:020000040800F2
:100000000000042025650008A1630008A56300081E
:10001000A9630008AD630008B163000875650008B6
:1000200000000000000000000000000021060108A0
:10003000B563000800000000B10501084DDE0008AE
:100040007565000875650008756500087565000828
:100050007565000875650008756500087565000818
:100060007565000875650008756500087565000808
:1000700075650008756500087565000875650008F8
:1000800075650008756500087565000875650008E8
:1000900075650008756500087565000875650008D8
:1000A00075650008756500087565000875650008C8
:1000B00075650008B9630008C56300087565000828
:1000C00075650008756500087565000875650008A8
:1000D000756500087565000875650008D16300083E
:1000E000DD63000875650008E963000875650008B0
:1000F0007565000875650008756500087565000878
:1001000075650008F563000801640008756500085E
:100110007565000875650008756500087565000857
:10012000756500080D64000819640008756500080D
:100130002564000875650008756500087565000888
:10014000756500087565000831640008756500086C
:100150007565000875650008756500087565000817
:10016000756500083D640008756500087565000840
:1001700075650008000000007565000800000000BB
:100180004964000875650008756500087565000814
:1001900075650008756500087565000875650008D7
:1001A00075650008756500087565000875650008C7
:1001B00075650008000000005564000875650008BA
:1001C0007565000800000000756500087565000889
:1001D0007565000875650008756500087565000897
:1001E0007565000875650008756500087565000887
:0401F000000000000B
:1002000010B5054C237833B9044B13B10448AFF350
:1002100000800123237010BDB00203200000000005
:10022000780B010808B5034B1BB103490348AFF332
:10023000008008BD00000000B4020320780B010814
:10024000034613F8012B002AFBD1181A0138704716
:10025000704700BF01F042BFF0B5274C274E9BB05E
:100260004FF0FF332822694620680EF063FC2828EF
:10027000F6D1039805F0E0FB0546002834D1029B37
:100280009BB929460AAA009801F0B6FF0FF058F969
:100290000AA90246684602F043F90FF051F90AA98B
:1002A0000246684601F000FFDAE7B3F1005FF4D1DF
:1002B00040F20172009B9342EFD10822039900277C
:1002C000914228BF11460D46C6E90577B760019FE8
:1002D0000B490C48C6E90037F56005F0B9FB30461C
:1002E000084901F081FDD8E74FF0FF332A46206826
:1002F0000AA90EF01FFCC2E750280320E0020320E9
:100300009005FA0BD40203202DE9F0431F4D9BB05A
:10031000DFF8808001AE0AAF002404EBC401C4F111
:1003200024024FF0FF33286806EB81010EF002FC37
:100330000444232CF1D9049805F07EFB039B8146ED
:10034000B3F1005F00D0A0B9114807F0ADFB50B188
:100350003A4631460E4807F071FAD8F80C300133AE
:10036000C8F80C30D8E74FF0FF3201210FF07CFBCA
:10037000EAE70024A9EB040239194FF0FF3328689B
:100380000EF0D8FB04444C45F4D3DDE74C280320A1
:10039000F42603200000032000B583B001F0D8FE4E
:1003A00001F008FC03221849184806F0DDFC03F0B0
:1003B00065FC00F0DDFE03F0ABFC0FF0C1F801F0CE
:1003C0006DFE13480BF040F812480BF005F8124C84
:1003D0000FF0B6F8019003F057FC019803F09EFC73
:1003E000019800F0C7FE237813B9019801F0FAFFD5
:1003F000019801F063FE019802F080F80A2101A83B
:100400000EF0DEFFE4E700BFF44B0320E4270320F7
:100410002C24032094230320760003202DE9F041AF
:100420000026214DDFF88C80204FA6B012E00FF09F
:1004300061FF98F8003033B10B9B23B164200DF0BD
:10044000BDFD01F0B7FB002202231146386800967B
:100450000FF08CFB4FF0FF32012100200FF004FB66
:100460000FF03AFF124807F075FC044606A9104841
:1004700007F0E0FA02A90E4807F004FB54222946CF
:1004800011A8AC6010F020FB094B1E66189BB3F559
:10049000003FCCD9AB689B02C9D5012385F8203039
:1004A0000B9301F02FFCC2E700000320B41B0320D4
:1004B000F4260320D002032000232DE9F04F85B05D
:1004C000DFF8B482A64FDFF8B4B2A64EA64DDFF82F
:1004D000B0A20DF10E098DF80B3014E028680EF073
:1004E00033FA012809D94FF0FF330222286803A903
:1004F0000EF020FB022800F0968000214FF0FF3222
:1005000008460FF0B1FAD8F800000EF01DFA0028E6
:1005100049D130680EF018FA0128DFD94FF0FF33C7
:100520000222306803A90EF005FB0228D6D1BDF8DF
:100530000C20B2F5845FD1D86AB10024121B39199E
:100540004FF0FF3330680EF0F5FABDF80C20204470
:1005500084B2A242F2D10EF0F3FF844B3946BDF8CB
:100560000C20CDF8009003F089F9BDF80E30002B77
:10057000B4D07F48494604464FF0FF33022200685A
:100580000EF0F0F9BDF80E204FF0FF3377492068E8
:100590000EF0E8F9002202231146DBF80000009279
:1005A0000FF0E4FA9AE74FF0FF330122D8F8000089
:1005B0000DF10B010EF0BEFA0128AAD1D8F8000007
:1005C0000EF0C2F90128A4D94FF0FF330222D8F867
:1005D000000003A90EF0AEFA02289AD1BDF80C2053
:1005E000B2F5845F95D8002A40F0AA809DF80B40B0
:1005F000002C56D10EF0A4FF5C4B5949BDF80C20DD
:10060000CDF8009005F096F9BDF80E30002B7DD1A5
:100610000EF096FF554B5249BDF80C20CDF80090D6
:1006200005F0D8F975E7BDF80C20B2F5805FBFF48E
:1006300064AF6AB10024121B39194FF0FF332868E8
:100640000EF078FABDF80C20204484B2A242F2D118
:100650000EF076FF454B3946BDF80C20CDF80090E2
:1006600005F0E4FABDF80E30002B3FF446AF4946E2
:100670004FF0FF330222DAF800000EF073F9BDF8F4
:100680000E204FF0FF333949DAF800000EF06AF916
:10069000002202231146DBF8000000920FF066FAF8
:1006A0002BE70EF04DFF314B2D49BDF80C20CDF856
:1006B000009005F067F9BDF80E30002BA8D02B494B
:1006C0000A787F2A08D1022BA2D98B78A3F11102D4
:1006D000012A9DD9312B9BD02648494604464FF02C
:1006E000FF33022200680EF03DF9BDF80E204FF0F6
:1006F000FF331E4920680EF035F90022022311460F
:10070000DBF8000000920FF031FA81E71948494602
:100710004FF0FF33022200680EF024F91548BDF8AF
:100720000E204FF0FF33114900680EF01BF9022331
:1007300022462146DBF8000000940FF017FA67E725
:100740000024121B4FF0FF333919D8F800000EF0C7
:10075000F1F9BDF80C2023189CB2A242F1D145E773
:10076000E44F02201003032008030320603F02200F
:100770000C0303201403032018030320F4080320B0
:10078000040303202DE9F04FDFF8C89185B0664FD0
:10079000664EDFF8C4A1664D09F19C0B0DF1080807
:1007A0001AE030680EF0D0F8012844D828680EF01E
:1007B000CBF801280AD94FF0FF33022228680DF147
:1007C00006010EF0B7F9022800F08B8000214FF0EF
:1007D000FF3208460FF048F938680EF0B5F80128E6
:1007E000DFD94FF0FF330222524938680EF0A2F9E8
:1007F0000228D6D1B9F89420B2F5845FD1D872B16D
:100800000024121B0BEB04014FF0FF3338680EF08D
:1008100091F9B9F89420204484B2A242F1D10EF0AB
:100820008FFE0146444802F085FA80B330680EF02E
:100830008BF80128BAD94FF0FF3302223F493068C4
:100840000EF078F90228B1D1BAF89420B2F5845F9D
:10085000ACD872B100243A49121B21444FF0FF3347
:1008600030680EF067F9BAF89420204484B2A242AE
:10087000F1D10EF065FE0146324802F05BFA002825
:1008800094D11BE0304B93F823010DF097FB0EF051
:1008900057FE04F055FF012883D038680EF054F855
:1008A00001283FF67EAF294B1B78002BEAD10A20A6
:1008B000EBE7274B93F823010DF080FB0EF040FE91
:1008C00002F060FF01283FF471AF30680EF03CF891
:1008D00001283FF66BAF1D4B1B78002BE9D10A2096
:1008E000EAE7BDF80620082A3FF670AF72B100248F
:1008F000121B08EB04014FF0FF3328680EF01AF9C1
:10090000BDF80620204484B2A242F1D10EF018FEB8
:100910004146BDF8062005F021F901283FF456AF05
:100920000A200DF04BFBF1E7140303200C03032016
:1009300004030320FC70022068600220503B032067
:10094000583B0320BC2A0320688002207600032045
:10095000BC4A032068700220BC3A032001F0C2BBED
:1009600001F0C4BB002001F0C5BB00BF0022024B58
:1009700002481A600AF068BDCC020320E02303207D
:10098000014B1868704700BFCC0203200000000034
:1009900010B59EB0482200210CA810F009F80023E1
:1009A0004FF40070CDE90233CDE90433CDE90733CC
:1009B000CDE90933019306930B9309F023F908B1AC
:1009C00072B6FEE701230222169311931993179230
:1009D00010231D9207229FED1E7BCDE91A320324BE
:1009E000042312900CA81C938DED0C7B189409F035
:1009F00045FB034608B172B6FEE70F22214601A867
:100A0000CDE9033305930294019209F0E3F903461B
:100A100008B172B6FEE7104A4FF0005C916D4BF6DC
:100A20007F3441F080719165926D069302F080727F
:100A3000009208932222202306A8CDE90A230099D8
:100A4000CDF81CC009940AF079FA1EB010BD00BFA1
:100A5000290000000000010000100240F0B595B030
:100A600072B64FF00062AA4B9A60BFF34F8F62B626
:100A7000002405F081FDFFF78BFFCDE90E44CDE9A1
:100A80001044A44D1294EB6C4FF4604143F0040306
:100A9000EB64EB6C224603F004030793079BEB6CBB
:100AA0009D4843F08003EB64EB6C012603F0800368
:100AB0000893089BEB6C43F00103EB64EB6C03F0D1
:100AC00001030993099BEB6C43F00203EB64EB6CAD
:100AD00003F002030A930A9B07F0D4FD224640F27A
:100AE00001118E4807F0CEFD224641F2E4018C4808
:100AF00007F0C8FD4FF4604387480EA9CDE90E36D4
:100B00001094119407F010FC40F2011383480EA9D1
:100B1000CDE90E36CDE9104407F006FC41F2E403BE
:100B20007F480EA9CDE90E36CDE9104407F0FCFB55
:100B30004FF4007379480EA9CDE90E34109607F0F2
:100B4000F3FB082377480EA9CDE90E34109407F083
:100B5000EBFBAB6C052143F00403AB64AB6C2246AA
:100B600003F004030493049BAB6C1D203343AB647C
:100B7000AB6C33400593059BAB6C43F00203AB6455
:100B8000AB6C03F002030693069B06F0DFF91D2011
:100B900006F016FA224605211E2006F0D7F91E207F
:100BA00006F00EFA22460521502006F0CFF950201B
:100BB00006F006FA204608F0E3F808B172B6FEE740
:100BC00008F0F2F8034640B95748584AC0E90023F4
:100BD0000AF0DCF918B172B6FEE772B6FEE7544AC5
:100BE000544B1070544A4FF440711A6010229960AF
:100BF0009A619A620F2113223C2404275860D8601E
:100C00009874D8631846C3E90D661E825E615E6201
:100C1000DC61D9621A621F6306F066FC034650BBB2
:100C20000BAD0B90CDE90E00CDE91000CDE912001F
:100C3000C5E901004FF480704FF4301C03214FF4DC
:100C400080523E4CC4E90233C4E90A3384F82030B0
:100C500084F838303A4B20832046C4E90467C4F84E
:100C600004C0E161626384F83060236005F0A8FC91
:100C700018B172B6FEE772B6FEE70B902946204621
:100C800006F0ECF808B172B6FEE706230F937F2357
:100C900011932C4B109013900EA9204612970E938F
:100CA00005F0BCFD08B172B6FEE7274B20460E9357
:100CB0000C230EA90F9305F0B1FD08B172B6FEE743
:100CC000224B20460E9312230EA90F9305F0A6FD8A
:100CD000034608B172B6FEE71D48C0E905338380BC
:100CE0001C4B0662036006F09DF908B172B6FEE780
:100CF00000234FF4027102221748C372174B818000
:100D0000C0F80720036008F059F848B372B6FEE750
:100D100000ED00E000100240000802420000024224
:100D200000040242001C0242F825032000080C4285
:100D3000D0020320F426032000A40040E42703206F
:100D400000800242400020190002B0250004002A61
:100D500058270320003002406C20032000D40040BC
:100D600041F63F76414C424ACDE90E00C4E901000C
:100D70001090A06120462260E6600AF055FD03460F
:100D800008B172B6FEE720460EA90E9310930AF042
:100D90007DFD034608B172B6FEE7364CCDE90E3351
:100DA0001093A360A36142F20F73334A2046C4E953
:100DB0000023E6600AF038FD034608B172B6FEE78C
:100DC00020460EA90E9310930AF060FD034608B169
:100DD00072B6FEE74F264FF6FF742848284AC0E94E
:100DE00004338360836102604660C4600AF01CFDC6
:100DF000034608B172B6FEE72248C0E90163C0E9C4
:100E00000343C0E90533204B03600AF00DFD08B130
:100E100072B6FEE74FF080414FF0FF321B4C0B9053
:100E2000CDE90E00CDE91000C5E90100C4E90100DB
:100E30002061A06120462160E2600AF0F5FC08B163
:100E400072B6FEE74FF4805320460EA90E930AF0C7
:100E500039FB034608B172B6FEE7294620460B93DC
:100E60000D930AF013FD98B172B6FEE7E02303205C
:100E7000001400402C240320001000409423032081
:100E80000044014048230320004801407824032007
:100E900000246E4A01216E4B009246F20600224663
:100EA000CDE901440DF0F8FC02466A4E6A4D009609
:100EB0000121CDE90144694B2A6046F20600224631
:100EC0000DF0EAFC664B674A01210092CDE901442E
:100ED00022461860644B46F206000DF0DDFC634EBE
:100EE000634B224600930121CDE90144614B306000
:100EF00046F206000DF0D0FC5F4B224600935F4B9C
:100F00000121CDE9014418605D4B4FF47A600DF08A
:100F1000C3FC5C4F5C4B224600930121CDE90144A8
:100F20005A4B38604FF47A600DF0B6FC584B2246AD
:100F30000093584B0121CDE901441860564B4FF402
:100F4000A0400DF0A9FC554B22460093544B0121C3
:100F5000CDE901441860534B4FF4A0400DF09CFCC8
:100F6000514B186001F09AFB0EF0EAFA33462A461C
:100F70004E49009701F0A2FA4D4802F001FF4D489A
:100F800001F072F84C484D4A4D4900F0F9FD0EA8A9
:100F90000E9401F079FB20B90E9B13B9494801F07A
:100FA0004BFB0CF061FF0021474A48480CF0ACFFB6
:100FB0000446474B0021474A47481C600CF0A4FFF9
:100FC0000446464B0021464A46481C600CF09CFFF4
:100FD00004463B4B0021444A44481C600CF094FFFB
:100FE0000446434B0021434A43481C600CF08CFFED
:100FF0000446324B0021414A41481C600CF084FFFA
:1010000004462A4B00213F4A3F481C600CF07CFFFD
:1010100004463E4B00213E4A3E481C600CF074FFE3
:1010200004463D4B00213D4A3D481C600CF06CFFDE
:1010300004463C4B00213C4A3C481C600CF064FFD9
:101040003B4B18600CF032FFFEE700BF1804032092
:1010500058DF0120F403032018030320507F0120F0
:1010600014030320D0030320481F01201003032092
:10107000AC03032040BF0020880303200C0303209F
:10108000A0AF0020080303206403032000A0002079
:101090004003032004030320005000201C0303200E
:1010A00050280320000000204C280320A40D03201A
:1010B000F825032058270320F42603205412032088
:1010C000B41B032004006345CC0D01085502000841
:1010D00068200320A80D010859020008642003209D
:1010E000840D010809030008600D01089903000838
:1010F000041703203C0D01081D040008180D010809
:10110000B9040008F40C010885070008F40803205E
:10111000D00C01085D09000844040320AC0C010850
:101120006109000840040320880C010865090008D3
:101130003C040320094A0368934206D0084A9342BC
:101140000AD0084A934205D07047074A1368013312
:101150001360704700F0BABF05F020BA00140040D9
:10116000002C014000100040CC02032072B6FEE7C4
:10117000704700BF70B50E4D0E4C2B6820891B6860
:101180000D491B6B80B298472B68208A0A4E1B685A
:1011900006F174019B6E80B298472B68208B1B6808
:1011A00006F1E8019B6F80B2BDE87040184700BFB0
:1011B000C8000320540003207429032008707047DE
:1011C00000787047030A08704B707047012994BF7C
:1011D00000780088704700BF012908D94FF6FE2328
:1011E00002889A4203D8981AC0F34F007047002033
:1011F000704700BF012911D94378FA2B07D8084A54
:10120000C3EB0330A2FB0020C0F30F10704740F681
:10121000FF72FF2B0CBF0020104670470020704764
:10122000D34D6210022907D94FF6FF73B0F80100C1
:10123000984208BF0020704700207047042907D952
:101240004FF6FF73B0F80300984208BF00207047C4
:1012500000207047012907D94FF6FF730088984294
:1012600008BF4FF4006070470020704701290ED975
:101270004FF6FF730088984209D047F27F53984297
:1012800038BF1846A0F5EA407F3880B270474FF467
:1012900000607047032986BFC078C0F3810000203A
:1012A000704700BF09B1007870470846704700BF1B
:1012B000012906D9437803F00F03013BDBB2022B6F
:1012C00001D900207047024A32F81300704700BF6E
:1012D000F00D010819B10178C1F38100704708468B
:1012E000704700BF032986BFC07800F003000020CC
:1012F000704700BF034600B583B008465BBA0222C0
:101300000DF10601ADF8063004F0A2FB03B000BDFC
:101310008446002310B50C4682B00DF1060002226F
:101320006146ADF8063004F093FBBDF80600012CD1
:1013300098BFC0B240BA80B202B010BD002300B561
:10134000012983B0ADF8063002D8184603B000BDBD
:10135000014602220DF1060004F07AFB9DF806001A
:1013600003B000BD38B50D4604460822FF212846CB
:1013700004F06AFBB4F5FB4F0ADAC4F5FA447F3493
:10138000640004F0FE03C4F307242B706C7038BDB6
:10139000002423466C702B7038BD00BF38B50D4655
:1013A0000822FF210446284604F04EFBFA2204FBE3
:1013B00002F2044BA3FB0213D21A03EB5203DB0A23
:1013C0006B7038BD0101100038B50C460546082287
:1013D000FF21204604F038FB2B0A6570A37038BD4E
:1013E00038B50C4605460822FF21204604F02CFBA8
:1013F0002B0AE570237138BD38B50C460546082226
:10140000FF21204604F020FB2B0A2570637038BDB5
:1014100038B50C4608220546FF21204604F014FB8F
:1014200048F6802247F27F53954294BF5B199B1880
:101430009BB21A0A2370627038BD00BF38B50D46E2
:1014400004460822FF2128467D3404F0FDFAAC70E2
:1014500038BD00BF38B50D4604460822FF21284696
:1014600004F0F2FAEB78A40023F00C0304F00C046F
:101470002343EB7038BD00BF38B50C460546082243
:10148000FF21204604F0E0FA257038BDFF2838B56A
:101490000D460FD9C3B2002B0CBF01240324082230
:1014A000FF21284604F0D0FA6B7823F00F031C4389
:1014B0006C7038BD031E18BF01235C00EFE700BF4E
:1014C00038B50D4604460822FF21284604F0BCFA30
:1014D0002B78A40023F00C0304F00C0423432B709E
:1014E00038BD00BF38B50C4605460822FF2120460E
:1014F00004F0AAFAE37805F0030523F003032B4375
:10150000E37038BD38B50D4604460822FF21284651
:1015100004F09AFA012C0AD0022C05D0032C0CBF3F
:10152000D723FF23AB7038BDC723AB7038BDC323AF
:10153000AB7038BD38B50C4605460822FF21204661
:1015400004F082FAEBB2022B12D0032B09D0042B49
:101550000CBF51230023FF2D88BF43F004032370E9
:1015600038BD1123FF2D88BF43F00403237038BD1D
:101570000123FF2D88BF43F00403237038BD00BF53
:1015800038B50C4605460822FF21204604F05CFAD7
:1015900015F0080F0CBF0021FA2115F0100F0CBF39
:1015A0000022FA2215F0200F0CBF0023FA2315F0B9
:1015B000400F0CBF0020FA2015F0800FE0700CBF28
:1015C0000020FA2015F0010F21700CBF0021FA2134
:1015D00015F0020F62700CBF0022FA2215F0040F02
:1015E000A3700CBF0023FA2320716171A271E37113
:1015F00038BD00BF022906D980787D38C0B2812865
:1016000088BF002070470020704700BF032906D91B
:10161000C0787D38C0B2812888BF00207047002084
:10162000704700BF02290FD9837803F00C02042A07
:1016300001D001207047C3F30113012B06D0002B0A
:101640000CBF022001207047002070470320704724
:1016500007292DD903784278A3F1FA03B3FA83F36B
:10166000FA2A4FEA531382784FEAC30308BF43F0C4
:101670001003FA2AC27808BF43F02003FA2A02793D
:1016800008BF43F04003FA2A427908BF43F08003C1
:10169000FA2A827908BF43F00103FA2AC27908BF07
:1016A00043F00203FA2A08BF43F0040318467047C8
:1016B0000020704700787047D9B103789A09012A51
:1016C0000ED003F03002102A15D003F00302012AD5
:1016D00014BF0120022003F00C03042B06D0704736
:1016E00003F00C03042B4FF00400F8D140F47F40CA
:1016F0007047084670470320EDE700BF0078704749
:10170000007870470078704700787047087070471D
:10171000087070470870704708707047087070470D
:10172000030A08704B707047012994BF0078008845
:10173000704700BF38B50D460822FF2104462846F1
:1017400004F082F9FA2204FB02F2044BA3FB021319
:10175000D21A03EB5203DB0A6B7038BD0101100093
:10176000012911D94378FA2B07D8084AC3EB033073
:10177000A2FB0020C0F30F10704740F6FF72FF2B52
:101780000CBF00201046704700207047D34D6210F8
:10179000034600B583B008465BBA02220DF106018C
:1017A000ADF8063004F054F903B000BD034600B5AF
:1017B00083B008465BBA02220DF10601ADF806308F
:1017C00004F046F903B000BD034600B583B00846F7
:1017D0005BBA02220DF10601ADF8063004F038F9CB
:1017E00003B000BD034600B583B008465BBA0222D1
:1017F0000DF10601ADF8063004F02AF903B000BD82
:10180000034600B583B008465BBA02220DF106011B
:10181000ADF8063004F01CF903B000BD034600B576
:1018200083B008465BBA02220DF10601ADF806301E
:1018300004F00EF903B000BD034600B583B00846BE
:101840005BBA02220DF10601ADF8063004F000F992
:1018500003B000BD8446002310B50C4682B00DF1E4
:10186000060002226146ADF8063004F0F1F8BDF83A
:101870000600012C98BFC0B240BA80B202B010BDC1
:101880008446002310B50C4682B00DF106000222FA
:101890006146ADF8063004F0DBF8BDF80600012C17
:1018A00098BFC0B240BA80B202B010BD84460023D7
:1018B00010B50C4682B00DF1060002226146ADF86B
:1018C000063004F0C5F8BDF80600012C98BFC0B280
:1018D00040BA80B202B010BD8446002310B50C4659
:1018E00082B00DF1060002226146ADF8063004F028
:1018F000AFF8BDF80600012C98BFC0B240BA80B264
:1019000002B010BD8446002310B50C4682B00DF124
:10191000060002226146ADF8063004F099F8BDF8E1
:101920000600012C98BFC0B240BA80B202B010BD10
:101930008446002310B50C4682B00DF10600022249
:101940006146ADF8063004F083F8BDF80600012CBE
:1019500098BFC0B240BA80B202B010BD8446002326
:1019600010B50C4682B00DF1060002226146ADF8BA
:10197000063004F06DF8BDF80600012C98BFC0B227
:1019800040BA80B202B010BD002300B5012983B077
:10199000ADF8063002D8184603B000BD0146022259
:1019A0000DF1060004F054F8BDF80600000A03B07B
:1019B00000BD00BF012918D9037803F00302012AF2
:1019C00017D003F00C02042A15D003F03002102ABD
:1019D0000DD003F0C003402B0FD0437803F0030376
:1019E000012B0CBF06200120704700207047052006
:1019F000704702207047032070470420704700BFE3
:101A00002DE9F04F3A4B8346984283B007D8394BC3
:101A1000984260D94FF028094FF4487609E03649DA
:101A20004FF02509B1FBFBF1C9B2192940F2EE26AE
:101A30005BD90124304B0134A4B2B3FBF4F1B1FB08
:101A4000FBF1C9B21929F6D8B4F5806F3FD2012055
:101A50002A4BCDF804B01F6823186FF0004C4FF4E8
:101A60007A759B461FFA83FAA1F1020EBEEB510F65
:101A70004FEA51031ADD01F1FF385FFA88F805FBE0
:101A800003F2B2FBF1F2B21A002AB8BF5242624529
:101A900009DA914507DB00209446A8EB0302D2B295
:101AA000FB617C613A6201337345E8DB124B1FFA3C
:101AB0008BF4B3FBFAF1019BB4F5806FB1FBF3F14A
:101AC0000AF1010AC9B203D004F1010BCCE70120ED
:101AD00003B0BDE8F08F08494FF02B09B1FBFBF1D3
:101AE000C9B2192940F26B36A3D80124AFE700BF71
:101AF00000350C0020A10700005A6202442903208F
:101B00004FF08041022201232DE9F041174C0025BE
:101B1000C4E91123164E174FDFF86080E16311E02E
:101B2000D8F800202365937C003B18BF012312499D
:101B30003868A36405F0C2FD78B96B1C022B4FF026
:101B4000010511D056F8043B2564E364002BE7D06F
:101B50006FF0604201232265E9E7FFF707FB6B1C8A
:101B6000022B4FF00105EDD1BDE8F081000003200C
:101B7000080F0108442903203C000320C80003206B
:101B800038B50C46064D0749074B0A6028600749DF
:101B900001201C600CF020FC054B186038BD00BF14
:101BA000442903203C2903204029032054280320F2
:101BB000A4280320F0B54D4E83B0306805F028FE10
:101BC000306805F091FC00286FD10022484D40217B
:101BD00048482A71EA602A616A61AA61AA60EA61DA
:101BE00085F8202006F04EFD306805F011FE092230
:101BF00002233068C0E90D2305F076FC002871D17E
:101C000000240222012340F2FF71C5E90B233A4F61
:101C1000A9636C6202E00134092C0ED037F8023F50
:101C200036493068AC626B6305F048FD0028F2D09D
:101C30000134FFF79BFA092CF0D1FFF761FF002375
:101C4000022230681146009305F064FD002846D159
:101C5000306805F081FD00283ED100220121306866
:101C600005F028FFA8BB00220621306805F022FFFE
:101C700060BB07224FF4F051306805F01BFF10BB2A
:101C800007228021306805F015FFC8B900221C49E1
:101C9000306805F00FFF80B900224FF460213068F2
:101CA00005F008FF20B903B0F0BDFFF75FFA8CE73D
:101CB00003B0BDE8F040FFF759BAFFF757FAEBE77A
:101CC000FFF754FAE2E7FFF751FAD9E7FFF74EFAC8
:101CD000CFE7FFF74BFAC6E7FFF748FABDE7FFF794
:101CE00045FAB5E7FFF742FA8AE700BF4429032027
:101CF00000000320000402420E0F0108240003200C
:101D000000407100014B186805F082BD4429032092
:101D1000FFF7F6BE082824D8DFE800F0080C1014FE
:101D2000171A1D2005001448FFF76ABE42F2107012
:101D3000FFF766BE44F62060FFF762BE4CF25030FB
:101D4000FFF75EBE0D48FFF75BBE0D48FFF758BEBC
:101D50000C48FFF755BE0C48FFF752BE0B48FFF783
:101D60004FBE0B4AA0F51C53103B934201D90120F2
:101D70007047FFF745BE00BF40420F00A08601003C
:101D800048E8010090D0030020A1070000350C00B6
:101D9000301B0F000346054A19780020516159781D
:101DA000D16199781162DB7893617047F426032042
:101DB0000246024B00209A61704700BFF4260320C0
:101DC000034600B5064A93F801E093F800C082F894
:101DD00010E004499B7881F800C05374002000BDD6
:101DE000F4260320D00203202DE9F047054682B0F7
:101DF000C0680F4603F020FEAB68B3F1005F3ED031
:101E00000646824600F12409264C4FF0FF31206837
:101E10000CF0A0FB0128F8D1DFF89480D8F800007E
:101E20000CF07EFD484517D202251F4A13792B433B
:101E30001371002320681A4619460CF031FA1B4A28
:101E40000223126810680022114600920DF08EFEE7
:101E5000284602B0BDE8F08729464FF0FF33242220
:101E6000D8F800000CF07EFD054686B94D450CD033
:101E70000D4A0125137943F008031371D9E74FF098
:101E8000000A4FF024095646BEE70025D1E7524626
:101E900039464FF0FF33D8F800000CF063FD0544DD
:101EA000E4E700BFA428032000000320402903200A
:101EB0004C2803202DE9F04700250C4682B0C907C5
:101EC0000646019516D4A20707D50221314A137997
:101ED00043F00103137133681965630738D4019B1C
:101EE0002BB14FF0E0234FF08052C3F8042D02B025
:101EF000BDE8F087DFF8A890DFF8988040214A46D7
:101F0000254B05F0FDFCD8F81430D9F80C0001334E
:101F1000C8F8143003F090FDDFF888A00746DAF81F
:101F200000000CF0FDFC07F12803984224D3494639
:101F30002822DAF8000001AB0CF0AEFD002FC2D071
:101F40003A46DAF80000144901AB0CF0A5FDBAE7F7
:101F50000424104B11499A69086801329A611A7970
:101F6000002142F008021A71336800680DEB040288
:101F70001C650DF01BFFB2E7D8F818302946013375
:101F8000C8F81830054B01AA1B6818680DF00EFF41
:101F900099E700BF00000320FC2803203C29032010
:101FA000D428032050280320002110B50A4A0B4CE6
:101FB0001268236982B01068013301AA236101917C
:101FC0000DF0F4FE019B2BB14FF0E0234FF0805257
:101FD000C3F8042D02B010BD4029032000000320E7
:101FE000002110B50A4A0B4C1268E36982B01068F0
:101FF000013301AAE36101910DF0D8FE019B2BB1E1
:102000004FF0E0234FF08052C3F8042D02B010BD12
:102010003C2903200000032038B50C46104D29460A
:1020200005F008FDA10303D5EB68A3B90D4A1360C1
:10203000620309D52B690B4A012B13790CBF43F0BE
:10204000040303F0FB031371230303D50122054BA3
:1020500083F8202038BD4FF00042024B1A60E7E7BA
:10206000A828032000000320704700BF91B14FF063
:10207000FF3210B4084C014410F8013B5340DBB26E
:1020800054F82330884283EA1222F5D1D0435DF818
:10209000044B704708467047240F01080022014B8B
:1020A0001A6070474C290320034B1B689B7C03B9C3
:1020B000704700F097BE00BFC8000320024A1368B3
:1020C00001331360704700BF4C290320024A136894
:1020D00001331360704700BF4829032000200DF032
:1020E000F9B800BF00200DF0F5B800BF00200DF0DA
:1020F000F1B800BF00200DF0EDB800BF124B1B6817
:102100001989F9B130B400245B68104A03EB41111E
:10211000D3E90050C2E900509D6898699561DD6877
:102120002033556153F8105C8B42C2E9024553F8E5
:102130000C5C02F1740242F8105C42F8040CE7D126
:1021400030BC7047704700BFC800032050290320EF
:1021500070B500250D4B0E4A1B6815709C7C0D4B0D
:10216000641B18BF0124644203F5AE76E4B218463E
:10217000082221460EF01CFC03467433B342C0E92A
:102180001155F4D1BDE87040FFF7B8BFC800032077
:10219000760003207429032038B3144B1A68824256
:1021A00023D02DE9F041847C0122003C18BF01249A
:1021B00000250F4E186037780E4B644203F5AE7859
:1021C000FFB23270E4B21846082221460EF0F0FB4E
:1021D000034674334345C0E91155F4D1FFF78EFF30
:1021E000FFF796FD3770BDE8F0817047C800032007
:1021F000760003207429032000293CD0F0B5764BEB
:1022000083B01D68AF7C6FB906462C8A44B1EB6879
:1022100003EBC40C1C68B4420FD008336345F9D1FA
:1022200003B0F0BDC0F30743EF2B4FEA1024C0F317
:102230001126EAD8694E2640E7E71C79E7B1B6F5E2
:102240006F4F49D04FF6D4539E4266D04FF602737B
:102250009E4200F0AD800F2C10D12B681046DB6F32
:1022600000929847009A137803F00303032BD7D00A
:102270005B4B1883D4E77047082C3BD02B68104683
:1022800003EBC4035B689847102CC9D801A353F82B
:1022900024F000BF3D2300087123000877230008C5
:1022A0007D23000883230008892300088F2300086A
:1022B000952300089B230008552300085D23000890
:1022C000652300086B230008492300084F230008FA
:1022D0007122000843230008C0F30720132860D0B0
:1022E0005A289DD12B6810465B6D98473C4AC3B273
:1022F000D37595E72B6810465B6C00910192984767
:102300000099374CC0B20129207389D0019A104638
:10231000FFF73AFB84F8200082E7C3B2212B4ED0AE
:102320005A2B7FF47DAF2B681046DB6C9847C3B205
:10233000032B3FF475AF2A4A937571E7284B5880F9
:102340006EE7274BD8836BE7254B188268E7244B51
:10235000988365E7224BC0B2987561E7204BC0B205
:10236000D8755DE71E4B58835AE71D4B588257E7D7
:102370001B4B188054E71A4BD88051E7184B9880B4
:102380004EE7174B98824BE7154B588148E7144BA3
:10239000188145E7124BD88142E7114BC0B2187340
:1023A0003EE72B681046DB6A98470D4B588137E7AC
:1023B0001046FFF7FFFA0A4B83F8200030E72B683E
:1023C00010465B6F9847C3B2032B3FF429AF044A12
:1023D0009BB2938324E700BFC800032000FF0300E3
:1023E00054000320314B1B78002B5DD12DE9F04FB9
:1023F000DFF8C4A003F0FF05DAF8003083B01B89D2
:10240000002B4ED02A4F06463C464FF0740908E098
:10241000DAF8003001351A89ABB29A4204F174043B
:102420003FD9E36E626EF31A9342F1D3B4F9703080
:1024300009FB05FB002B0DDBB4F868200BF1240031
:1024400052BA00EBE300ADF804203844022201A99F
:1024500003F0FEFAB4F9721004F1240800294FEADF
:10246000E10112DB4046FFF701FEB4F97220019052
:10247000002AB8BF07320BF1240000EBE20004226F
:1024800038440DEB020103F0E3FA0A4B41461A68A7
:1024900020462261FFF7A8FCA36EE6660133A3661F
:1024A000B6E703B0BDE8F08F704700BF76000320A9
:1024B0005029032000000320C800032010B50B4C56
:1024C000216004460A490A600A490B4A0B60029BD4
:1024D000136000F06BF8204603F0E6F8204601F0A8
:1024E0003FF9204603F01AFB002010BDB82A032054
:1024F000B42A0320B02A0320AC2A032038B50546AD
:1025000003F0F2F80446284601F036F9034628465F
:102510001C4303F00FFBE4B22043C0B238BD00BF40
:1025200070B51E4B82B01B6804460D46164603F07C
:1025300011F9012813D01A4B3246294620461B6850
:1025400001F02AF901281FD0164B324629462046B1
:102550001B6803F019FB01280BD002B070BD0022EC
:10256000114B11461B681868022300920DF0FEFA09
:10257000E1E700220C49022309680868114600922D
:102580000DF0F4FA02B070BD0022074B11461B6833
:102590001868022300920DF0E9FAD5E7B42A032067
:1025A000B02A0320AC2A0320B82A032000B583B048
:1025B000102001A900F09EF808B903B000BD002169
:1025C000102000F07FF8003818BF012003B000BDD4
:1025D00000B583B0102001A900F08CF820B90146A5
:1025E000019820B903B000BD012003B000BD102048
:1025F00000F068F8003818BF012003B000BD00BF2C
:1026000070B5002682B004460D46102001A901963F
:1026100000F070F810B9019BA34202D8012002B06B
:1026200070BD04F11100294680B200F063F8801BF0
:1026300018BF012002B070BD002210B5114B82B04E
:102640001B78019213B9184602B010BD044601A9C7
:10265000102000F04FF840B901981130FF2804D83D
:10266000214680B200F02EF818B10123184602B0BE
:1026700010BD01991020013100F024F8031E18BF8D
:102680000123E0E777000320014608B5102000F0A1
:1026900031F8003818BF012008BD00BF10B505F0A3
:1026A0005BFB00200AF0B0FC044618B905F068FB9B
:1026B000204610BD00200AF075F805F061FB2046A9
:1026C00010BD00BF38B504460D4605F045FB204659
:1026D00029460AF041FFC305044603D405F050FB28
:1026E000204638BD0AF038F90443A4B205F048FB8F
:1026F000204638BD0AF092BA84462DE9F8430CF51D
:102700000055104695F827210CF580540F461E46BB
:10271000B4F89210B4F8943072B3002940F08E806F
:10272000072B40F2A0803E2B40F2B9804FF04008CA
:10273000B3F5805F4246C1465FD21B0A43F01003E7
:102740000370B4F894300CF584514370023A1C3194
:10275000023003F07DF901220223A8F1020887F874
:102760000090A4F89280A5F81C2184F891300120F3
:10277000C4F89860BDE8F883B1B307224FF00808A9
:102780005B1A1FFA83F9B5F81C31914503F00F036A
:1027900043F0200300F8013BB4F8923003F5845372
:1027A00003F11C030CEB03014CD903F051F987F83A
:1027B0000080B4F89230B5F81C21013B9844A4F88D
:1027C000928095F822313BB1B2FBF3F103FB112368
:1027D00013B9022384F891300132A5F81C2101209D
:1027E000C4F89860BDE8F883072B3CD94FF008087F
:1027F000B3F5805F4246C1469FD310230360B4F80F
:1028000094300CF584511B0A0371B4F89430063AE5
:1028100043711C31063003F01BF901220223A8F199
:10282000060887F80090A4F89280A5F81C2184F887
:1028300091300120C4F89860BDE8F8833F224FF042
:1028400040089DE74A4603F003F9032309F101021A
:102850003A7084F89130B4F89230B5F81C2199445C
:10286000A4F89290B8E700F8013B0CF58451B4F855
:1028700094201C3103F0ECF801210322B4F89430C9
:102880000B443B70B4F894300120A4F89230A5F8C2
:102890001C1184F89120C4F89860BDE8F883017099
:1028A000B4F894300CF584514370B4F894201C3182
:1028B000023003F0CDF8B4F8943001210322023342
:1028C000DFE700BF70B500240E4600F580530470AA
:1028D000C0F8024004738460C3F89240C3F8984083
:1028E000A3F88E40A3F8904000F50053054621461A
:1028F0004FF48452C3E94744C3F82861C3F8244124
:102900000D300EF055F84FF48452A8182146BDE85A
:1029100070401C300EF04CB8F0B591B0169D0446D6
:10292000856019B3964612788C46100903281DD885
:10293000DFE800F0024C7A22003B18BF012304F5C7
:10294000005282F82631237823B10621002382F831
:10295000241123709EF80050BCF1080F05F00F05FC
:1029600000F2D1800123002D40F0D680237B012B83
:1029700000F0A78011B0F0BD04F5805797F89110D2
:1029800002F00F0204F500564B1E012A86F82121A1
:10299000DBB200F00B81022A00F01181002A40F026
:1029A000FB80BCF1010F00F01E819EF80130BCF1EC
:1029B000020F86F8223101D09EF80220022986F803
:1029C0002321D3D1012387F89130CFE7003B18BFF3
:1029D000012304F5005686F82631227822B106221A
:1029E00086F8242100222270BCF1070FBED99EF880
:1029F00000209EF8010002F00F01014340F09C808E
:102A0000DEF8022012BA072AB0D9B2F5845F40F28C
:102A1000F0800222072086F81E2186F8240121700A
:102A200096F81F21322159E02378012B9ED104F51D
:102A30008057B7F88E1002F00F0201F00F039A4290
:102A400040F0A2806088A38897F890201B1A9BB260
:102A5000002A00F0BE80551EAEB29E4280F0BC80BF
:102A6000944583D14A1C92B2EDB20D30A7F88E2066
:102A70000EF101012A46204402F0EAFF6388A28891
:102A80002B449BB29A42638000F0B08004F500565C
:102A900096F81F21002A3FF469AFB7F88E30013B4A
:102AA00093FBF2F102FB1133002B7FF45FAF96F83A
:102AB000263196F81E11003B18BF012341F030016A
:102AC0000CE004F5005696F8263196F81E11003BEE
:102AD00018BF012396F81F2141F0300100208DF826
:102AE000012003228DF8001096F820112073D6F8EB
:102AF00028015B058DF8021083616946C260FFF70B
:102B000073F911B0F0BD002D7FF430AF9EF8015085
:102B10000223002D3FF42AAFACEB03018D423FF7B7
:102B200025AF0EEB03012A4604F10D0002F090FFE1
:102B300002236580237019E7120202F470620243D7
:102B4000072A7FF613AF02210B46ACEB0303DDB27D
:102B500004F58057A28071442A4687F890C004F19A
:102B60000D0002F075FF012300226580237086F8B6
:102B70001E21A7F88E3096F826313021003B18BF71
:102B8000012396F81F21A9E70421002304F5005230
:102B900082F824112370E9E6012B3FF6E7AE052207
:102BA000032386F8252187F89130DFE6012B3FF6D5
:102BB000DDAE0223C7F8985087F89130D6E6012B96
:102BC0003FF6D4AE0822032386F8252187F89130FA
:102BD000CCE6072B3FF6CAAE9C457FF6C7AE4A1C33
:102BE00092B2DDB241E786F82221E7E602232370A4
:102BF000BCE606210B46A8E70378012B01D0002094
:102C000070478268064B891A9942F8DD0321002338
:102C100000F5005282F8241103700020704700BFB5
:102C2000400D03002DE9F04100F58055144695F85C
:102C3000912092B0561E012E05D9032A0ED00020F5
:102C400012B0BDE8F081D5F89830394ECB1AB342B6
:102C50000BD9022300F5005080F825310023012014
:102C600085F8913012B0BDE8F081012AE7D100F576
:102C7000005696F9237196F82321002F05DA0F32BA
:102C8000D2B2082A8CBF7F2201229A42D7D80B46A3
:102C900002AA0DF10701FFF72FFD9DF80780B8F19B
:102CA000080F38D9B8F10C0F37D9B8F1100F36D951
:102CB000B8F1140F35D9B8F1180F34D9B8F1200F85
:102CC00033D9B8F1310F34BF0E270F27384602F041
:102CD000B3FE80450AD2A0EB0802013AD2B202ABA1
:102CE0000021013203EB08000DF062FEE76096F868
:102CF0002731003B18BF01235B05A36102E00120DF
:102D000002F0C6FE204602A9FFF76EF80028F6D1B1
:102D100095F8912091E74746D8E70927D6E70A2793
:102D2000D4E70B27D2E70C27D0E70D27CEE700BF6B
:102D3000400D030000F58052B2F89430B3F5845F83
:102D400014D892F891309BB900F5005300204FF051
:102D5000010CA2F89200A3F81C01C2F8981093F895
:102D6000261183F8271182F891C07047012070471F
:102D70004FF0090C00F5005383F825C1E6E700BFCA
:102D8000830F032BC0F30D4020D0012B0ED0B3B91D
:102D9000B0F5B97F21D01F235FFA80FC000A012221
:102DA00081F800C048708B70CA70704740F263535E
:102DB0009842F0D102204FF0740C0D23EFE79128D8
:102DC000E9D10B204FF0380C0223E8E72928E2D1A3
:102DD00002204FF07F0C0923E1E70B204FF0EF0CAE
:102DE000DDE700BF2DE9F04F456893B0B5F1804FA6
:102DF00002D013B0BDE8F08F0668C068C6F307477D
:102E00000C4602F019FEEA2FC6F3072832D0EC2F49
:102E1000EFD1B8F1130FECD10728EAD92378102BA2
:102E2000E7D1E3793002C549A27980B201436479E0
:102E300008201B0443EA0223234300224FF0FF34FF
:102E4000099123FA00F18DF821308DF822101B0C26
:102E50000C9007A909A8CDE90D22CDE90F220A950A
:102E60008DF823300B92119207948DF82040FEF7D5
:102E7000BBFFBEE70228BCD9B8F1FF0F23D0B8F1E1
:102E8000130FB6D1A378617822781B0443EA01239B
:102E90001343B3F56E4F40F0C480A94A33029BB28E
:102EA0001A4300234FF080450824A64909A8CDE91C
:102EB0000A53CDE90C43CDE90E33CDE91033099225
:102EC000FEF792FF95E7A378617822781B0443EA26
:102ED00001231343B3F56E4F00F02E814FF6C55218
:102EE000934200F0CB804FF6CA62934281D14FF0FB
:102EF000000904A8CDF81090FFF7C6FB924B049A86
:102F0000B3F81EA0012ACAF3400A4FEA8A1A4AF00F
:102F10003F0A5FFA8AF440F22981920002321FFAD6
:102F200082FA8A4B0AF10601A3FB0103C91A03EBDB
:102F30005103C3F387074FF0804385490A930991F2
:102F4000082120230C91834907AA08910DF1240B35
:102F50004FEA1A218DF81E10584611468DF81C3084
:102F60001546CDE90D99CDE90F99CDF82C90CDF806
:102F700044908DF81DA08DF81F70FEF735FF764B3D
:102F80000993002F3FF435AFCDE9027B4FF00108E4
:102F9000A3460DF123060822FF21284602F054FD26
:102FA000334656469A4608F1FF34C4EBC4048DF804
:102FB0001C80A4B20195A6421ADDA3B243B3012B33
:102FC0002DD0A7B2023F05A9B810CDF8149007F094
:102FD0000307FFF715FB059806A9FFF7D1FE0DEBD8
:102FE00007031B7E05F8013FAA4504F10104E2D165
:102FF0005346019D03982946B24608F101081E4632
:10300000FEF7F2FE029B5FFA88F84345C3D2F0E672
:1030100005F801BFAA4504F10104CED1E8E7FF237A
:10302000E0E74FF6C552934228D04FF6CA6293426A
:103030003FF45DAF08270022FF240A956FF0FE05DC
:1030400006FA07F0454980B20143099123FA07F1D6
:103050008DF821308DF822101B0C07A909A8CDE9A5
:103060000B27CDE90D22CDE90F228DF823301192E7
:1030700007958DF82040FEF7B7FEBAE6384802F013
:10308000FBFC00224FF080410824314DCDE90A12AB
:10309000099505462021CDE90C42CDE90E22CDE966
:1030A0001022304A294B0892AA1D8DF81C10A3FB50
:1030B0000213D21A07A803EB520325FA04F10DF10B
:1030C000240BC3F387088DF81E10074601465846A7
:1030D0008DF81D508DF81F80FEF786FE1E4B09935C
:1030E000B8F1000F3FF485AE0124DFF874900DF1C4
:1030F0002306A4EB090A0822FF21384602F0A4FCAB
:103100003A46631EC3EBC3039BB2013B8DF81C40E0
:103110004B440AEB03018D4205DD13F8011F02F851
:10312000011F9642F5D1013439465846E4B2FEF704
:103130005BFEA045DFD25CE60B4AB2E61300EC1C56
:103140001300EE183C130108540003202549922473
:1031500013FFEC1CFFCAFE0013FFEB1C1300E81862
:1031600024130108FFC5FD0013FFEE1808224FF0DD
:10317000804316490C92099107A908460D46FF2184
:103180000A93CDE90D99CDE90F99CDF82C90CDF8A2
:10319000449002F059FCFF22049B8DF81C40012B47
:1031A0008DF81D2006D0CDF81E90294609A8FEF7FF
:1031B0001BFE1EE606A94846CDF81890FFF720FA38
:1031C00006980DF11E01FFF7DBFDEEE713CAFE18AE
:1031D0002DE9F043144602780646013A1D4685B0B3
:1031E000092A11D8DFE812F01C0010000A009A0129
:1031F000100010000A00100076010A00012900F0FA
:103200009A817F22122101E07F2211210323227063
:103210003278A17062702B80002005B0BDE8F08389
:103220000229EED14123237043786370A62BE8D89E
:1032300001A252F823F000BFFF360008E136000873
:103240000332000803320008AB360008A13600083C
:10325000033200080332000803320008033200087A
:1032600003320008033200088B3600087B36000862
:103270000332000803320008033200084B3600080E
:10328000033200080332000803320008033200084A
:10329000033200080332000803320008033200083A
:1032A000033200080332000803320008033200082A
:1032B00003320008B53600086F36000841360008B2
:1032C000033200080332000803320008033200080A
:1032D00003320008033200080332000803320008FA
:1032E00003320008033200080332000803320008EA
:1032F00003320008033200084B360008413600084C
:1033000003320008033200080332000803320008C9
:1033100003320008033200080332000803320008B9
:1033200003320008033200080332000803320008A9
:1033300003320008033200082D3700082137000847
:103340001537000803320008033200080332000872
:103350000B3700080332000803320008033200086C
:103360000332000803320008033200084136000827
:103370004136000803320008033200080332000817
:103380000332000803320008033200080332000849
:103390000332000803320008033200080332000839
:1033A0000332000803320008033200080332000829
:1033B00003320008033200085536000803320008C3
:1033C0000332000803320008033200080332000809
:1033D00003320008033200080332000803320008F9
:1033E00003320008033200080332000803320008E9
:1033F00003320008033200080332000803320008D9
:1034000003320008033200080332000803320008C8
:1034100003320008033200080332000803320008B8
:1034200003320008033200080332000803320008A8
:103430000332000803320008553600080332000842
:103440000332000803320008033200080332000888
:103450000332000803320008033200080332000878
:103460000332000803320008033200080332000868
:103470000332000803320008033200080332000858
:103480000332000803320008033200080332000848
:103490000332000803320008033200080332000838
:1034A0000332000803320008033200080332000828
:1034B0000332000803320008D53600080332000842
:1034C0000332000803320008033200080332000808
:1034D0006336000802297FF494AE492323704378B1
:1034E00063700A2B3FF68DAE01A252F823F000BFA5
:1034F0008F35000803320008AF350008033200089A
:103500009D350008033200083136000803320008F8
:1035100003320008033200081336000801297FF443
:1035200070AE0191FFF754F8019968BB33784033CE
:103530002370298070E602A8FFF7A6F820BB029B43
:103540005A1C52002A80327863704032DBB22270FB
:10355000002B3FF461AE074604F1020904F10308B1
:103560000CE0039B1A0E09F817201B0C9DF808208D
:1035700008F817300137BA427FF64EAE384603A935
:10358000FFF73EF80028ECD07F2210213EE644F2FF
:1035900054020623C4F802202B803DE6012367492C
:1035A000A370E01C02F060FA13232B8034E614238E
:1035B0000120E61CA07031462B80FFF79BF8E11D2F
:1035C00005460220FFF796F8034604F10B0103209D
:1035D0001D43FFF78FF8034604F10F010420ADB23D
:1035E0001D43FFF787F8034604F113010520ADB230
:1035F00045EA0304FFF77EF8A4B244EA00039BB255
:10360000002B3FF409AE11220021304602F01CFAD3
:1036100002E60123E61CA37014220021304602F0CA
:1036200013FA3046464902F01FFA17232B80F3E5C0
:10363000782207234349A271C4F802102B80EBE5DE
:10364000042200232A806380E6E5032200232A80E7
:10365000A370E1E506224FF080732A80C4F802309F
:10366000DAE50622384B2A80C4F80230D4E5062277
:10367000364B2A80C4F80230CEE50322344B2A8030
:103680009B8AC3F30723A370C6E50423304A2B802B
:103690009388C3F34A13A3709388DB00E370BBE500
:1036A000032274232A80A370B6E503224C232A80C8
:1036B000A370B1E504232B800BF042FF254DA5FB41
:1036C00000239B0BA3700BF03BFFA5FB00539B0952
:1036D000E370A1E5062204232A80C4F802309BE5AA
:1036E00003A8FEF7D1FF38BB039A02F07F02002344
:1036F00006212980A270E370237163718CE5062294
:10370000154B2A80C4F8023086E5032251232A8013
:10371000A37081E504224BF635732A8063807BE534
:10372000062200232A80C4F8023075E506220B4BDE
:103730002A80C4F802306FE50022D8E7300C010877
:10374000400C010801123456123456788001800171
:1037500054000320D34D621098188003A40C00017C
:1037600008B503490348FFF7ADF8002008BD00BFC6
:1037700078000320BC2A032001460148FFF73CBA29
:10378000BC2A03200146024A0248FFF74BBA00BF99
:10379000A0000320BC2A03202DE9F0410446D0E913
:1037A0000050B0F1804F884616461F4682B008D0C0
:1037B00018B940F2E5739D421AD0002002B0BDE86E
:1037C000F081C5F30743EF2BF7D1C5F30723132B84
:1037D000F3D105F10F03DBB2092BEED82B029BB21C
:1037E00005F0E0551D4345F46F0545F0130501E074
:1037F00040F2ED751C4BC3E900501C4BC3E900506F
:1038000098F800301A4D0F2B03D82B780BB10023FA
:103810002B70E06802F010F90096A3690146A3F549
:103820000013B3FA83F3424611485B09FFF774F8BB
:103830002A78022AC1D14FF0FF330E4938680BF0C5
:1038400091F84FF0FF3304460B496A8838680BF053
:1038500089F86B8804440233A34201D0FDF786FC4B
:10386000002301202B70A9E7A0000320780003208B
:10387000BC2A0320BE2A0320C92A03200020F0B45A
:10388000049F4E4D4E4E388037602B60002A4ED03C
:103890000846114602781C460F2A4AD9103A762A61
:1038A0003DD8DFE802F0553C3C3C3C3C3C3C3C3CD9
:1038B0003C3C3C3C3C3C3C3C3C3C3C3C3C3C4B690C
:1038C0003C3C3C3C3C3C3C3C3C3C3C3C3C3C3C3C38
:1038D0003C3C3C3C613C3C3C3C3C3C3C3C3C3C3C03
:1038E0003C3C3C3C3C3C3C3C3C3C3C3C3C3C3C3C18
:1038F0003C3C3C3C3C3C3C3C3C3C3C3C3C3C3C3C08
:103900003C3C3C3C3C3C3C3C3C3C3C3C3C3C3C3CF7
:103910003C3C3C3C3C3C3C3C3C3C3C3C3C007F22FA
:103920001121032322700278A17062703B80F0BCE9
:1039300070473B462246F0BCFFF74ABC012904D041
:103940004378012B2BD0022B21D07F221221E8E7D4
:103950000129FAD0437803F0FB03812BF5D15022E3
:10396000012322703B80E2E70129EED04378012B4E
:1039700011D0022BE9D1DAE70129E6D04378012BF7
:1039800014D0022BE1D100220E4B1A70CFE7012296
:103990000C4B1A70CBE77E2222703B80C7E7094AA6
:1039A00013700278403222703B80C0E70021054A44
:1039B00011700278403222703B80B8E7EC4B032054
:1039C000E84B032076000320814204D900F17840BF
:1039D000B0F5802F01D30020704701F17841013903
:1039E000B1F5802F2CBF002001207047814208D9FB
:1039F000B0F1005F05D3044881428CBF0020012054
:103A000070470020704700BF00000420814211D998
:103A1000B0F1005F10D31A4B994219D9194B984253
:103A200008D9194881428CBF002001207047B0F1AD
:103A3000006F15D200207047144B98420AD8144BDF
:103A40009842F4D9134881428CBF0020012070476E
:103A500001207047104881428CBF00200120704730
:103A60000E4B9942E6D80E4BB3F8E030B3F5007F29
:103A7000EED00C4881428CBF00200120704700BF6F
:103A8000000004203F20024040210240FFFFF90BCC
:103A9000FFFFF80B0080F90B0002FA0B000008088A
:103AA0000005FA0B0000040800B58BB001A804F073
:103AB0004FFB0598AA3818BF01200BB000BD00BF0E
:103AC00000B58BB072B601A804F042FB04214FF49C
:103AD0000052079B019143F08063CDE9062304F077
:103AE0003BF918B162B601200BB000BD04F054F9E7
:103AF0000028F7D101A804F009FA10B904F06EF912
:103B0000F0E704F05DF904F03BF9EBE710B58AB09B
:103B100004F022F9044604F03FF9044301A804F03C
:103B200017FB04214FF480729DF81E30E4B2C3F3FA
:103B3000001383F001031B05CDE90623019134B185
:103B400004F03EF904F01CF901200AB010BD01A8F0
:103B500004F0DCF90028F3D104F040F9044604F045
:103B60002FF9044304F00CF9E4B22043C0B200384A
:103B700018BF01200AB010BD30B58BB004F0ECF8CE
:103B8000044601A804F0E4FA0023802207980221E9
:103B900010F4801FCDE9033200930CBF02230123F0
:103BA000019101A86946029304F068FB054604F000
:103BB000E7F828432043C0B2003818BF01200BB0FB
:103BC00030BD00BF70B504F0C7F805460F4C104E6D
:103BD000D4E90023B3F1FF3F08BFB2F1FF3F04F582
:103BE000802107D0012004F035F9002818BF45F0E6
:103BF0000105EDB20834B442EAD104F0C1F828431B
:103C0000C0B2003818BF012070BD00BF00E003083B
:103C100000000408002330B58FB0009304F09CF836
:103C20000223044605A8019304F092FA0B9B042298
:103C300013F4801F4FF07C0014BF02230123694658
:103C400003900DEB02000492029304F017FB05466B
:103C500004F096F8054344EA0500C0B2003818BFE6
:103C600001200FB030BD00BF014608B5012004F0AF
:103C7000F1F8003818BF012008BD00BF0022014B39
:103C80001A607047F04B03201D4B10B45988B3F8ED
:103C900000C0B1F5E06F34BF00210121194C9B88B1
:103CA000194A34F81CC0B3F5306FA2F800C0917007
:103CB00013D2B3F5E06F1ED2B3F5407F1DD2B3F53A
:103CC000807F8CBF00230123D1789B00994208D1CB
:103CD0000E4B18605DF8044B70470123D178994270
:103CE000F6D00A4C2168411AFA29F3D9D370206022
:103CF0005DF8044B70470223F0E70323EEE700BFB3
:103D0000F44B032044130108C4000320F04B0320AC
:103D10000022014B1A707047FA4B0320154B164ACC
:103D20001B78108891787BB16FF4FC63C3183E2B2D
:103D3000124B14D91881188B60F0FF0080B21883E1
:103D400021B9598A89B201E00C4B18811982D278C5
:103D500022B1198B01F47F410A431A8370475889B5
:103D600080B21881188BC0B21883588A80B218822A
:103D7000E6E700BFFA4B0320C400032054000320F1
:103D8000014B1860704700BFFC4B0320704700BF19
:103D900000B5044B83B0186801A907F0DDF901985C
:103DA00003B000BDFC4B03200D4B02781B68403272
:103DB00001291A700FD900B5A1F1020E10FA8EFE7A
:103DC000024610F801CF724503F801CFF8D1054B38
:103DD0001B68198000BD034B1B681980704700BF2A
:103DE000244C0320204C032030B54378044685B092
:103DF00013B98378442B0FD07F204FF0310C03216F
:103E00003C4B3D4A1B6812681870207883F802C04A
:103E10005870118005B030BD0B2903D07F204FF0C2
:103E2000130CECE7354B1978022903D04FF07F0CC7
:103E30007F20E4E71B7F022B11D1314D6B7B13F008
:103E4000FB030FD07F20242503212A4B2A4A1B681D
:103E50001268187020789D7058701180DAE74FF062
:103E6000330CE5E7D0F80300AB6001232B73D4F8E3
:103E7000073000BA1BBAC1186B6001922860FFF7C7
:103E8000A3FD1C4B19681C4BD3F800C040B36B68F2
:103E9000019A13F0070F0AD07F2370200B700323C1
:103EA00094F800E0887081F801E0ACF800302378E5
:103EB0006A734FF20F04202540338DF80C3003AAAB
:103EC0004B1EC81C8DF80D50ADF80E4012F8011BAA
:103ED00003F8011F8342F9D10423ACF8003099E7BD
:103EE0007F22312003230A70227888704A70ACF850
:103EF00000308FE7244C0320204C0320004C03208B
:103F00002C4C032003780F2B40F283802DE9F047DF
:103F1000A3F1100204460D468EB0772A7FD8DFE861
:103F200012F0420232027E007E00C5017E007E0059
:103F30007E007E00AC017E007E007E007E007E0062
:103F40007E007E007E00F801E20108027E007E0015
:103F50006C019F01920115027E0085017E00220204
:103F6000D5017E005C017E007E0048012201ED004B
:103F7000DD00D0007E007E007E007E003201050163
:103F80007E007E007E007E007E007E007E007E0041
:103F90007E007E007E007E007E007E007E007E0031
:103FA0007E007E007E007E007E007E007E007E0021
:103FB0007E007E007E007E007E007E007E007E0011
:103FC0007E007E007E007E007E007E007E007E0001
:103FD0007E007E007E007E007E007E007E007E00F1
:103FE0007E007E007E007E007E007E007E007E00E1
:103FF0007E007E007E007E007E007E007E007E00D1
:104000007E007E007E007E001501C300B300A60086
:104010008D00A24BA24A1B681268FFF7D9B87F2017
:10402000112503219E4B9D4A1B6812681870207849
:104030009D70587011800EB0BDE8F087012D40F2E0
:10404000FA84427802F07F03012B00F01485032BE1
:1040500000F0FF847F2012250321914B8F4A1B68BB
:104060001268187020789D7058701180E3E77F20E7
:10407000112503218A4B894A1B6812681870207821
:104080009D7058701180D6E7022D00F0A8847F2023
:1040900013250321824B814A1B681268187020780F
:1040A0009D7058701180C6E77F20122503217C4B3C
:1040B0007A4A1B681268187020789D7058701180B9
:1040C000B9E77F2011250321754B744A1B681268DC
:1040D000187020789D7058701180ACE7704B6F4A53
:1040E000012D1B68166800F0A9837F21132003228D
:1040F000197021789870597032809CE7012D40F238
:104100003B83684E737B012B00F01A85644A634938
:10411000022B1268086800F0C2857F212425032342
:104120001170217895705170038084E7022D00F0A2
:104130006D847F2013250321594B584A1B68126850
:10414000187020789D705870118074E77F201125B9
:104150000321534B514A1B681268187020789D70D8
:104160005870118067E7022D00F22D817F20132502
:1041700003214B4B494A1B681268187020789D70C8
:104180005870118057E7012D40F20383437803F004
:104190000F02042A00F0C1847F2012250321404B26
:1041A0003E4A1B681268187020789D705870118004
:1041B00041E73D4BB3F8E030B3F5007F00F09C845D
:1041C0007F2011250321364B344A1B681268187072
:1041D00020789D70587011802DE7032D00F2FB8030
:1041E0007F20132503212E4B2C4A1B681268187060
:1041F00020789D70587011801DE7012D40F2E382F8
:10420000467806F07F06012E00F0CD84022E00F0E5
:10421000EB847F2012250321214B204A1B68126862
:10422000187020789D705870118004E77F20112548
:1042300003211B4B194A1B681268187020789D7067
:1042400058701180F7E67F2011250321144B134A83
:104250001B681268187020789D7058701180EAE60B
:104260007F20112503210E4B0C4A1B681268187021
:1042700020789D7058701180DDE6094F022D3B6853
:1042800000F242827F2013250321044A187020780F
:1042900012689D7058701180CDE600BF204C03203D
:1042A000244C03202C4C03200005FA0B042D00F0B5
:1042B000B3827F2013250321A44BA54A1B681268F3
:1042C000187020789D7058701180B4E67F201125F9
:1042D00003219E4B9E4A1B681268187020789D70BF
:1042E00058701180A7E6012D40F26082437803F0F8
:1042F0000F02042A00F044847F2012250321934BEF
:10430000934A1B681268187020789D70587011804D
:1043100091E6032D00F0A1827F20132503218B4B12
:104320008B4A1B681268187020789D705870118035
:1043300081E67F2011250321844B854A1B68126882
:10434000187020789D705870118074E67F201125B8
:1043500003217E4B7E4A1B681268187020789D707E
:104360005870118067E6022D00F2F5817F20132539
:104370000321764B764A1B681268187020789D706E
:104380005870118057E6714B714A022D1B681668F0
:1043900000F026827F211320032219702178987063
:1043A0005970328047E6022D00F0F1827F201325FC
:1043B0000321664B664A1B681268187020789D704E
:1043C0005870118037E60222294620460EB0BDE81B
:1043D000F047FFF709BD90F901204378002ABCBFE0
:1043E00003F07F0343704388B8BF01265BBA9BB2DA
:1043F000A8BF0026B3F5097F00F35F85B3F5007F02
:104400002ADBA3F50073242B26D8DFE813F0ED0098
:10441000D600C500B200A30090006800590050010A
:104420004801250025002500250025002500140150
:10443000FF0025002500250025002500250025007A
:104440002500250025002500250025002500410127
:104450002601760143003D007F20312103223B4BA2
:104460001B68187020789970394958700B681A8049
:10447000002E3FF4E0AD354A126812787F2A3FF4EF
:10448000DAAD00221A80D6E5052D00F069877F207D
:104490001321E3E7042DFAD1FDF78CFB0A2009F084
:1044A0008DFD2A4B1A682A4B1B6821784031117008
:1044B00061785170A1789170E178D1701D80D7E753
:1044C000224A234B042D12681B6800F02D877F21A0
:1044D000132011702178907051700325EEE70B2D99
:1044E000D5D9456887682DBA3FBA28467919FFF7AC
:1044F0008DFA0028B0D039462846FDF7B7FD0146B1
:104500000827124B25781A68403515706078104BD3
:104510005070A0781B689070E078D171D070080E50
:104520001071080CF940507191711F80A0E7074A83
:10453000074B062D11681B6800F002877F221320AD
:104540000A70227888704A70032290E7244C032076
:10455000204C032071200421AB4B1A68AB4B107028
:1045600060781B685070A0789070E078D0701980E7
:104570007EE7A54B71201968AB1E0A46087014FA35
:1045800083F3214614F8010F8B4202F8010FF8D192
:104590009E4B1B681D806BE7FFF714FB9A4B1A6854
:1045A0009A4B1B68002800F00F877F217220117042
:1045B000217803259070517080E7FFF72BFB924B19
:1045C0001A68924B1B680028EFD1214620784030B2
:1045D0001070A81E14FA80F00C4611F8017F844276
:1045E00002F8017FF8D169E7874A884B042D1268E9
:1045F0001B687FF46CAF4178012900F09487022991
:1046000040F089870020824908704EE7042D7FF42E
:104610003EAF804B1A78022A00F0AA877F227F20C3
:104620000321794B1B68187020789A70774A58706C
:10463000136819801CE7042D7FF429AF754B1A7895
:10464000022AEBD11B7F022B40F08F874378012B8E
:1046500000F0CF877F20122100E7052D7FF417AFF0
:104660000079FDF7A5FBFDF7A5FA0A2009F0A6FCE5
:104670000420654B21781A68644B40311B68117027
:1046800061785170A1789170E178D1701880EFE66F
:10469000072D7FF4FCAE0430FDF77CFBE3E75D4BB8
:1046A0001B7F022B00F011867F203321D6E6082DD8
:1046B0007FF4EDAE4378012BCCD1C379042B7FF48A
:1046C000CBAE807922796379000240EA026040EA49
:1046D000034040F00400FDF7AFFF002800F05685CE
:1046E0007F2072250321484A484B12681B681070CE
:1046F0002078957050701980BAE6072D7FF4C7AE08
:104700000430FDF75DFBAEE7592204211A704278B0
:1047100099705A70427802F07F02012A00F09C8260
:10472000022A00F093827F2512260320374A1D704B
:10473000257811689E705D70088094F90130002B17
:10474000BFF679AC3B681B787F2B3FF474AC00213B
:10475000136819806FE42F4B1E78022E00F05582EB
:104760007F220320284B29491B6809681A70247886
:104770009A705C7008805EE47F2013250321224B31
:10478000224A1B681268187020789D70587011803A
:1047900051E47F20132503211B4B1C4A1B68126820
:1047A000187020789D705870118044E47F20132584
:1047B0000321154B154A1B681268187020789D70EC
:1047C0005870118037E47F20132503210E4B0F4AC8
:1047D0001B681268187020789D70587011802AE448
:1047E0000C4A1278012A00F07682427802F07F02A9
:1047F000012A00F0A9837F21122003221970217859
:1048000098705970328016E4244C0320204C032009
:1048100076000320004C03204378FF2B00F07282C7
:104820007F2031250321A74BA74A1B681268187007
:1048300020789D7058701180FFF7FDBBA34A517B13
:10484000032900F032837F2124200322197021786C
:10485000987059703280FFF7EEBBB0F8012052BA61
:1048600090B20022A0F50071B1F5007FCDE90122E0
:10487000CDE903220092C0F06B82A0F57142843A28
:104880000C2A08D8DFE802F072076C6307070707F5
:104890005A07070715007F2031250321894B8A4AD3
:1048A0001B681268187020789D7058701180FFF78F
:1048B000C2BB69460120FDF71DFF01A90546022084
:1048C000FDF718FF034602A903201D43FDF712FF61
:1048D000034603A90420ADB21D43FDF70BFF0346B9
:1048E00004A90520ADB21D43FDF704FFADB2054399
:1048F000ADB2112269460DF1170001F0A9F8002DA3
:10490000C9D1142523786F4A66781168A27840339C
:10491000681E8DF814308DF816208DF8156005AAE4
:104920004B1E11FA80F012F8011B03F8011F83429D
:10493000F9D1654B1B681D80FFF77DBB0C226449D4
:104940000DF1170001F084F80F252378DBE704222E
:1049500060490DF1170001F07BF807252378D2E7B5
:104960005D4A042512788DF81720CCE70C225B49AC
:104970000DF1170001F06CF820230922584909A80D
:104980008DF82330192501F063F82378BBE74378CD
:1049900003F07F03022B00F05B82032B00F04482C4
:1049A000012B40F06A8200224B494E48C1E90322A4
:1049B0000B70464B02605A734A610A778A6194F918
:1049C00001306278002BFFF636AB50203D4B3E495C
:1049D0001B6809685A7018700D80FFF72CBB42786D
:1049E00002F07F03012B00F07F81022B00F0538245
:1049F0007F2012250321334B334A1B68126818703D
:104A000020789D7058701180FFF715BB4378002BFC
:104A100000F09381802B3FF40EAB7F201225032101
:104A2000284B294A1B681268187020789D705870AE
:104A30001180FFF700BB7F2013250321214B224A61
:104A40001B681268187020789D7058701180FFF7ED
:104A5000F2BA244D2968002940F02E817F202225BA
:104A6000184A1949126809681070207895705070BA
:104A70000B80FFF7E0BA022D00F037828378103BFD
:104A8000032B00F2F285DFE803F01917021B164B27
:104A9000144A136094F90130002BFFF6CCAA0221CE
:104AA000084A237812684033074D137060782B68EA
:104AB00050701980FFF7BFBA0C4BE9E70C4BE7E7E2
:104AC0000C4BE5E7244C0320204C03202C4C032006
:104AD0009005FA0B680C0108004C0320500C0108EB
:104AE0005C0C0108284C032020A1070090D0030093
:104AF00048E8010040420F00022D00F23C817F2077
:104B000013250321B14BB24A1B6812681870207834
:104B10009D7058701180FFF78EBA03F0F002402AA2
:104B200040F22C817F2012250321A84BA84A1B6844
:104B30001268187020789D7058701180FFF77BBA4A
:104B4000A91E11F007051FFA81F840F09A80B3689A
:104B500072684344934200F29480327B43789342DC
:104B600000F042847F2073250321984B984A1B68EC
:104B70001268187020789D7058701180FFF75BBA2A
:104B800003F0F002402A40F229817F201225032100
:104B90008E4B8F4A1B681268187020789D70587071
:104BA0001180FFF748BA40F26713ADF81430FFF7F1
:104BB000EFF8884A884B4240C3E903021E7794F914
:104BC000013000BA002BCDF81600FFF634AA0621FA
:104BD0007E4B05981B687E4A1860BDF81800126865
:104BE00098801180FFF727BA062D00F0CB817F2037
:104BF00013250321754B764A1B68126818702078BC
:104C00009D7058701180FFF716BA4FF28412B0F8F9
:104C1000013058BA80B220F00801914200F0F680CD
:104C200049F2F102934200F06382072D00F05783AE
:104C30007F2013250321654B654A1B681268187095
:104C400020789D7058701180FFF7F5B9032D00F0A2
:104C5000CE817F25132668E5032DFAD1002205A811
:104C6000DA70FDF711FD5A4A3B681668002800F01B
:104C700024837F21197072212078997058703580B3
:104C80005BE57F2071250321504B514A1B68126858
:104C9000187020789D7058701180FFF7CCB9022DE4
:104CA00000F061817F2171250323117021789570B7
:104CB00051700380FFF7BFB9130600F12481C720AC
:104CC0000221424B424A1B68126818706078587083
:104CD0001180FFF7B0B97F2203211A7000789A7013
:104CE00058703180FFF7A7B911063FF5A4A9C52177
:104CF000364B374A1B681268197041785970158015
:104D0000FFF799B98378FF2B7FF48AADC378FF2B27
:104D10007FF486ADFDF75CFC002800F01D847F2049
:104D200072250321294B2A4A1B68126818702078C3
:104D30009D7058701180FFF77EB97E21234B244A65
:104D40001B6812681970417859701580FFF773B9A4
:104D50006946FDF7CFFC002800F027817F21312034
:104D60001A4B1B4A1B681268197021789870597089
:104D70001580FFF760B90122FFF726BB1B095A1DFA
:104D8000AA4280F2D380002B00F0A7820027591E90
:104D90000530C90010F8012F8A4008393A4311F153
:104DA000080F97B2F6D19E1DF3199D4200F0728252
:104DB0007F2013250321054B054A1B6812681870D4
:104DC00020789D7058701180FFF735B9244C03206E
:104DD000204C032078563412004C0320AF4A12783E
:104DE000012A00F032811B099A1D954200F0EE81E4
:104DF0007F2013250321AA4BAA4A1B68126818704A
:104E000020789D7058701180FFF715B97F203125EB
:104E10000321A34BA34A1B681268187020789D7069
:104E200058701180FFF707B99F4A928A92B2B2F583
:104E3000805FC0F041817F208825994A9949126896
:104E4000096810702078957050700B80FFF7F3B8E8
:104E5000954B9B8A9BB2B3F5805FC0F003817F20A6
:104E6000222503218E4B8F4A1B6812681870207808
:104E70009D7058701180FFF7DEB87F201225032146
:104E8000874B884A1B681268187020789D7058708C
:104E90001180FFF7D0B812063FF5CDA8294620466D
:104EA0000EB0BDE8F047FEF77FBF042151730278D2
:104EB00040321A703580FFF7BEB8B3F57F4F00F06F
:104EC00050814FF6017293427FF4C6AA042D7FF4FD
:104ED000DEAA4378012B7FF4BDAB704B1A78022A0F
:104EE00000F07C837E22FFF79ABB7F2013250321ED
:104EF0006B4B6C4A1B681268187020789D70587054
:104F00001180FFF798B80123684C26782370FCF7CE
:104F1000F9FE4FF47A7009F051F8F6B22868FCF700
:104F2000F9FEFCF747FE2670FFF785B87F201325B2
:104F300003215B4B5B4A1B681268187020789D70D8
:104F400058701180FFF777B851221A7042785A7062
:104F5000358090F90130002BBFF66DA80EB0BDE88A
:104F6000F04702F04DB8317B63788B4200F05081FE
:104F70007F21732503231170217895705170038070
:104F8000FFF759B8454B9A69042A40F20B817F20FC
:104F900036250321424B434A1B681268187020785B
:104FA0009D7058701180FFF746B860782378A47818
:104FB000403304228DF8150069460DF117008DF875
:104FC00014308DF8164000F043FD354B0DF11302FF
:104FD0001868431E063012F8011F03F8011F98429B
:104FE000F9D107222F4B1B681A80FFF724B8002243
:104FF00005A8DA70FDF748FB8146002840F02D81B6
:10500000059B002B00F0AA8280466E4612E09DF8B8
:1050100003203B685A55BDF8022003F82820009A67
:105020002B44120A9A70009ADA70059B0435984551
:1050300080F01F8140463146FDF7E2FA08F1010891
:105040000028E4D04FF00109EFE77F220320144B42
:1050500014491B6809681A7024789A705C7008807B
:10506000FEF7E9BF00230D4A1148C2E90333114995
:1050700003604B7353611377936194F90130607847
:10508000002B1570FEF6D7AF5021054B054A1B6863
:105090001268587019701580FEF7CDBF004C0320C0
:1050A000244C0320204C03205400032076000320CE
:1050B000284C03202C4C03200022B349B348C1E9FB
:1050C00003220B70B24B42731A604A610A778A61FD
:1050D00094F9013060789342FEF6ADAF5021AD4BAC
:1050E000AD4A1B681268587019701580FEF7A3BF8F
:1050F000142D7FF49DADD4F803100120FDF7E2FAE2
:10510000D4F8071005463046FDF7DCFA0346D4F81C
:105110000B1003201D43FDF7D5FA0346D4F80F10FA
:105120000420ADB21D43FDF7CDFA0346E17C052016
:10513000ADB21D43FDF7C6FAADB245EA00039BB21E
:10514000944A954912680968002B00F0F0817F208D
:105150007225032310702078957050700B80FEF735
:105160006ABF042D7FF493A94378012B7FF472AAC0
:10517000854B1A78022A7FF4B5AE1B7F022B40F0D4
:10518000F481FEF7F9FC00287FF4AAAA0421204646
:10519000FEF70AFE804B1B681A88002A3EF44BAFCC
:1051A000FFF766B958685969411A092900F2FA806F
:1051B0007F2037250321774B774A1B6812681870C8
:1051C00020789D7058701180FEF735BF002B00F0DD
:1051D0008D800026013B411DDB0011F8012F9A4014
:1051E000083B13F1080F46EA0206F6D140F6FE73BB
:1051F0009E427CD97F2031250321664B664A1B687D
:105200001268187020789D7058701180FEF713BFD7
:10521000013333732378002140331370637802F82D
:10522000013FB3680BE034680131E35CB1F57F6F97
:1052300002F8013FB36803F10103B36003D074685F
:10524000A342F0D389B27268023193420180FEF426
:10525000F2AE03237373FEF7EEBE7F2272203B682B
:105260001A7021784C4A5970987013681D80FFF7A6
:1052700064BAB9F1000F00F071817F213B6872259B
:10528000197003212078444A58709D701368198062
:10529000FFF753BA3C4B1A78022A00F0F0807F22C5
:1052A0007F2503203B4B3C491B6809681D7024780F
:1052B0009A705C700880FEF7BEBE06200599597191
:1052C000090A19713080FFF738BABFF34F8FBFF367
:1052D0006F8F431D9847FFF7CBB91F4663E5D4F89E
:1052E000031009BAFDF7EEF9034629E71E46D4F884
:1052F00002502DBA71192846FEF788FB254B264A25
:105300001B681168002800F01D812278ED1A4032D8
:105310001A709A1902E0E85C03F8010F9A42FAD178
:10532000731C0B80FEF787BE4178012900F0D980FD
:10533000022940F0F080002018490870FFF7B5B846
:10534000828840F6FB7052BA92B2824240F2CD801F
:105350007F2231200A70227888704A70FFF7F4B8F3
:105360004378012B7FF476A90379002B00F04A8162
:10537000012B7FF471A80A48FCF70EFF294620464E
:10538000FEF712FD06E700BF004C03202C4C032063
:10539000284C0320244C0320204C0320FA4B0320EC
:1053A00044330108197F012900F0EF807F20242574
:1053B0000321B64BB64A1B681268187020789D709E
:1053C00058701180FEF737BE2146207840301070AB
:1053D000A81E14FA80F00C4611F8017F844202F8EE
:1053E000017FF8D1FFF76AB80133337302F0B4FCE0
:1053F000B8F1000F5ED02746AA46A946B0683B79AF
:105400007A791B0403EB0263FA78397A03EB0223FF
:105410007A7A090401EB0261BA780AF1080A1344A6
:1054200019EB0302FB79083701EB0323316801F51F
:105430008021084417F8021C0B44FEF715FC40EAD3
:105440000503B068D04500F10800DDB2B060D6D8E1
:1054500002F096FCD6E901329A4224BF032373730B
:1054600085B37F2172200322884B1B681970217835
:1054700098705970864B1B681A80FEF7DCBD1B7F45
:10548000022B2CD1D4F802502DBA28467919FEF7F8
:10549000ADFA002840F0BE807F20312503217B4BF0
:1054A0007B4A1B681268187020789D7058701180B4
:1054B000FEF7C1BD02F064FCD6E901239A4201D88F
:1054C000032373730220714A714923781268647848
:1054D00009684033137054700880FEF7ACBD332266
:1054E000DEE66C480170FEF7E0BF712008700846E8
:1054F00065784D70A5788D70E4780021151F00F84F
:10550000034F02E000F8011F01318D42FADC043242
:1055100092B2FEF7ACBF7F211220117021789070FB
:105520005170FEF7DABF5C480170FEF7BEBF6078CD
:105530002378A5785070032040331370957008804D
:10554000FEF779BD7F2031250322187020789D70E9
:1055500058700A80FEF76FBD0121A0E44C4A9B0001
:10556000116803330B80FFF7E8B83322FFF757B811
:105570001B7F022BF9D14378012B7FF46BA8FEF738
:10558000C5FA00287FF4ACA800E6D4F802101D6923
:1055900009BA8D4212D000277F2658613525032095
:1055A00001329A61394A3A4912681F771670237896
:1055B0000968537095700880FEF73DBD1E7794F919
:1055C0000130002BFEF637AD40F267212F4A304BF9
:1055D00012681B6811801E80FEF72DBD1B7F022BF9
:1055E000C3D12E4B5B7B042BC9D07F202221FEF739
:1055F00035BFFEF759FA00BBFEF762FA00287FF4C8
:105600006FA8C3E52648FCF7C7FD29462046FEF7EC
:10561000CBFBBFE5022F23D0042F1CD0082F12D0C4
:105620006FF00603E21D1B1B02E012F8011F297038
:105630009918B942F9D3314631E40BF0A9FA0028A0
:105640007FF44EA8A2E5A168E0680BBA02BA314621
:10565000C5E9002323E4A36831461BBA2B601EE48E
:10566000238931465BBA2B8019E47F220026312042
:105670000321064B0B4D1B682E601A70044A2478D8
:1056800012685C7098701180FEF7D5BC244C032022
:10569000204C0320FA4B0320760003202C4C0320DF
:1056A00058330108284C032038B500240122094B47
:1056B00009490A4D4C73586009490A48C3E9034433
:1056C000C3E905442C601A701C77FDF7FBF82046EF
:1056D00038BD00BF004C03202C4C0320284C032075
:1056E000D000032068600220114B01461A78032A7B
:1056F00002D01048FDF780BA41F288305A688A1A01
:105700008242F6D900224FF0010C0B4810B40B4C2A
:10571000427383F800C01A77226006485DF8044B94
:10572000C3E90322C3E905225960FDF765BA00BF4A
:10573000004C0320686002202C4C0320284C0320DE
:105740000146024A0248FDF76DBA00BFF800032087
:10575000686002202DE9F043002585B004468DF8ED
:105760000D50ADF80E50D0E90050B0F1804F0F460B
:1057700090461E46C5F382690CD038B940F2E173F9
:105780009D4263D040F2DF739D420ED0002005B0F1
:10579000BDE8F083C5F30743DA2BC5F3072200F019
:1057A0009980DB2BF2D1FF2AF0D1E06800F044F9B8
:1057B0000028EBD03B780F2BE8D8002B00F0968028
:1057C000072BE3D801388342E0D8A2690137ADF84E
:1057D0000E30A2F500120123B2FA82F28DF80D30DC
:1057E000504B520983F826216168B1F1804F00F0D7
:1057F0008F8040F2E97200214B484C4B0260C3E9B4
:10580000002141604FF0FF3301220DF10D0130689E
:1058100009F0A8F84FF0FF33022204460DF10E0103
:10582000306809F09FF802464FF0FF3314443946C0
:105830003068BDF80E2009F095F8BDF80E3004442C
:105840000333A34244D0FBF791FC41E040F2E973FB
:10585000364AC2E90030344AC2E90030E06800F05C
:10586000EBF8CDF80080A369314CA3F50013B3FA2F
:1058700083F301463A4620465B09FDF74DF825784B
:10588000022D83D100274FF0FF3301220DF10D01CE
:1058900030688DF80D7009F065F82A464FF0FF3337
:1058A0000546A11C306809F05DF802464FF0FF3351
:1058B00015443068628804F10D0109F053F86388DB
:1058C00005440333AB4201D0FBF750FC00232370A7
:1058D00001205CE7132A7FF459AF2B029BB243EA05
:1058E000896343F45A0343F01303B1E7A269B2F5A5
:1058F000001F7FF44BAF08287FF648AF7B78002B62
:105900003FF444AF023883423FF640AF02375EE7D0
:105910002A0292B242EA896242F45A0242F0130227
:105920006AE700BF68800220D0000320F80003204F
:10593000686002204FF0000C10B5029CA4F800C073
:105940008C460D490B600D490C600D4948601146AD
:1059500022B1BDE810406046FEF7D4BA4FF07F0E8A
:105960008CF800201320032283F800E09CF800103C
:1059700098705970228010BD244C0320204C0320C5
:10598000004C03204FF0000C10B5029CA4F800C09E
:105990008C460D490B600D490C600D49486011465D
:1059A00022B1BDE810406046FEF7ACBA4FF07F0E62
:1059B0008CF800201320032283F800E09CF80010EC
:1059C00098705970228010BD244C0320204C032075
:1059D000004C032038B5049A12884AB1197851292D
:1059E00007D0C72904D1012A02D05B78032B08D045
:1059F00038BD4FF4FA7008F0E1FABDE8384001F024
:105A0000FFBA4FF4FA7008F0D9FA0123084C257850
:105A10002370FCF777F94FF47A7008F0CFFA054B52
:105A2000EDB21868FCF776F9FCF7C4F8257038BDBC
:105A300076000320284C0320014BC0B2185C70474D
:105A400034350108704700BF0AB10AF0B1BF704792
:105A50004AB1013A4B1E0138114413F8012F8B4211
:105A600000F8012FF9D17047421E11F8013B02F8EE
:105A7000013F002BF9D1704708B503782BB10130F5
:105A8000FAF7DEFB013080B208BD184608BD00BF42
:105A90004FF47A7202FB00F0024BA3FB0030800946
:105AA00008F08CBAD34D6210F8B54178072909D9AE
:105AB00042F2FE2002221649164B09681B68088034
:105AC0001A80F8BD144D044628690144FDF79EFF75
:105AD0000F4A104B012816681F6805D042F2FE22BB
