:020000040800F2
:1000000000000420055300088151000885510008B4
:10001000895100088D51000891510008555300087E
:1000200000000000000000000000000001F40008D3
:10003000955100080000000091F300088DCC0008E5
:1000400055530008555300085553000855530008F0
:1000500055530008555300085553000855530008E0
:1000600055530008555300085553000855530008D0
:1000700055530008555300085553000855530008C0
:1000800055530008555300085553000855530008B0
:1000900055530008555300085553000855530008A0
:1000A0005553000855530008555300085553000890
:1000B0005553000899510008A551000855530008F0
:1000C0005553000855530008555300085553000870
:1000D000555300085553000855530008B151000806
:1000E000BD51000855530008C95100085553000878
:1000F0005553000855530008555300085553000840
:1001000055530008D5510008E15100085553000827
:10011000555300085553000855530008555300081F
:1001200055530008ED510008F951000855530008D7
:100130000552000855530008555300085553000850
:100140005553000855530008115200085553000834
:1001500055530008555300085553000855530008DF
:10016000555300081D520008555300085553000808
:10017000555300080000000055530008000000001F
:1001800029520008555300085553000855530008DC
:10019000555300085553000855530008555300089F
:1001A000555300085553000855530008555300088F
:1001B0005553000800000000355200085553000850
:1001C000555300080000000055530008555300081F
:1001D000555300085553000855530008555300085F
:1001E000555300085553000855530008555300084F
:0401F000000000000B
:1002000010B5054C237833B9044B13B10448AFF350
:1002100000800123237010BD38050320000000007A
:1002200060F9000808B5034B1BB103490348AFF35D
:10023000008008BD000000003C05032060F90008B4
:10024000034613F8012B002AFBD1181A0138704716
:10025000704700BF01F0ECBB2DE9F0412A4C2B4E5A
:10026000DFF8B0802A4F9AB04FF0FF33282269465A
:1002700020680DF07BFB2828F6D1039804F096FB4C
:100280000546002838D1029B9BB929460AAA009846
:1002900001F0E4FB0EF054F80AA90246684601F0AA
:1002A0006DFD0EF04DF80AA90246684601F0AEFB5E
:1002B000DAE7B3F1005FF4D140F20273009D9D4292
:1002C000EFD1082203994FF0000E91420B4628BF50
:1002D00013469C46019B41463846C6E905EEC6E9F1
:1002E0000053C6F808E0C6F80CC004F06BFB3946B2
:1002F000304601F02BFAD4E74FF0FF332A4620684E
:100300000AA90DF033FBBEE78C2A03206805032001
:100310005C0503209005FA0B2DE9F0411F4DDFF835
:1003200084801F4F9AB0002404EBC40101AEC4F1D5
:1003300024024FF0FF33286806EB81010DF016FB15
:100340000444232CF0D9049804F030FB039B0646A8
:10035000B3F1005F00D0A0B9384606F0ABFA50B157
:1003600038460AAA01A906F06FF9D8F80C30013313
:10037000C8F80C30D7E74FF0FF3201210EF06AFACF
:10038000EAE700240AA9321B21444FF0FF33286812
:100390000DF0ECFA0444A642F4D8DDE7882A0320E5
:1003A000302903200000032000B583B001F050FB8A
:1003B00001F094F803221849184805F0D3FB02F025
:1003C00071FE00F007FE02F0FBFE0DF0B9FF01F038
:1003D00017FB134809F052FF124809F017FF124C9F
:1003E0000DF0AEFF019002F063FE019802F0EEFE08
:1003F000019800F0F1FD237813B9019801F03EFC5B
:10040000019801F005FB019801F0ACFC0A2101A85C
:100410000DF0DCFEE4E700BF9C2B0320202A032024
:1004200068260320D0250320760003202DE9F04321
:100430000027224C224EDFF88C90DFF88C80A7B08A
:1004400013E00EF04DFE99F8003033B10B9B23B151
:1004500064200CF0D3FC01F041F800220223114685
:10046000D8F8000000970EF077FA4FF0FF32012124
:1004700000200EF0EFF90EF025FE204606F070FB8E
:10048000054606A9204606F0DBF902A9204606F03B
:10049000FFF95422314611A8B5600FF009FA27661A
:1004A000189BB3F5003FCCD9B3689B02C9D5012393
:1004B00086F820300B9301F0D7F8C2E730290320EB
:1004C0000000032058050320F01D032000232DE920
:1004D000F04F85B07F4E804FDFF80492DFF808B20E
:1004E0007E4DDFF808A20DF10E088DF80B3013E0F9
:1004F00028680DF047F9012808D94FF0FF33022290
:10050000286803A90DF032FA022847D000214FF0E5
:10051000FF3208460EF09EF930680DF033F90028DE
:10052000E6D04FF0FF33012230680DF10B010DF0E2
:100530001DFA0128DCD130680DF024F90128D7D943
:100540004FF0FF330222306803A90DF00FFA0228A2
:10055000CED1BDF80C20B2F5805FC9D2002A40F0A0
:10056000A9809DF80B40002C54D10DF0E9FE5C4BA6
:100570005949BDF80C20CDF8008003F0CFFABDF842
:100580000E30002B7CD10DF0DBFE554B5249BDF8EF
:100590000C20CDF8008004F0D7F9A9E7BDF80C20B5
:1005A000B2F5805FB2D26AB10024121B39194FF044
:1005B000FF3328680DF0DAF9BDF80C20204484B22E
:1005C000A242F2D10DF0BCFE4B463946BDF80C20DC
:1005D000CDF8008004F0A0FABDF80E30002B95D0C5
:1005E00041464FF0FF330222DAF800000DF0D8F850
:1005F0004946BDF80E204FF0FF33DAF800000DF049
:10060000CFF8002202231146DBF8000000920EF022
:10061000A3F97BE70DF094FE314B2F49BDF80C2078
:10062000CDF8008004F02CF9BDF80E30002BAAD0D4
:1006300099F800207F2A09D1022BA4D999F8023019
:10064000A3F11102012A9ED9312B9CD025484146A5
:1006500004464FF0FF33022200680DF0A1F8BDF808
:100660000E204FF0FF331E4920680DF099F800224C
:1006700002231146DBF8000000920EF06DF982E7CC
:10068000184841464FF0FF33022200680DF088F809
:100690001448BDF80E204FF0FF33114900680DF0EB
:1006A0007FF8022322462146DBF8000000940EF07A
:1006B00053F968E70024121B4FF0FF3339193068F3
:1006C0000DF054F9BDF80C2023189CB2A242F2D1CF
:1006D00047E700BF9C050320508F012090050320B1
:1006E000507F012098050320300B03208C05032048
:1006F0002DE9F04F404F414E414DDFF80CA185B040
:1007000007F11C0907F5805B07F1140814E028685D
:100710000DF038F8012809D94FF0FF33022228687C
:100720000DF106010DF022F9022844D000214FF00E
:10073000FF3208460EF08EF830680DF023F80128DD
:10074000E5D94FF0FF330222414630680DF00EF933
:100750000228DCD1BA8AB2F5805FD8D26AB100240F
:10076000121B09EB04014FF0FF3330680DF0FEF867
:10077000BA8A204484B2A242F2D10DF0E1FD0146D2
:10078000204801F0A9FD0028C1D103E09BF8230017
:100790000CF034FB0DF0D4FD03F0F0F80128B6D0D6
:1007A00030680CF0EFFF0128B1D89AF80030002B28
:1007B000ECD10A20ECE7BDF80620082AB6D872B1C1
:1007C000002402A9121B21444FF0FF3328680DF0CA
:1007D000CDF8BDF80620204484B2A242F1D10DF03C
:1007E000AFFDBDF8062002A904F030F901289DD024
:1007F0000A200CF003FBF2E754AF01209805032018
:100800008C050320549F01207600032001F014B9C9
:1008100001F016B9002001F017B900BF0022024B09
:1008200002481A6009F02ABD540503201C26032043
:10083000014B1868704700BF5405032000000000FA
:1008400030B59FB0482200210CA80EF0A5FF002370
:100850004FF40070CDE90233CDE90433CDE907331D
:10086000CDE90933019306930B9308F0F3F808B12F
:1008700072B6FEE701230222169311931993179281
:1008800010231D9207229FED1E7BCDE91A3203240F
:10089000042312900CA81C938DED0C7B189408F087
:1008A0001BFB034608B172B6FEE70F22214601A8E2
:1008B000CDE9033305930294019208F0BBF9034696
:1008C00008B172B6FEE7104A4FF00055916D4BF635
:1008D0007F3441F080719165926D069302F08072D1
:1008E000009208932222202306A8CDE90A2300992A
:1008F0000795099409F04EFA1FB030BDAFF30080A0
:10090000290000000000010000100240F0B595B081
:1009100072B64FF00062A94B9A60BFF34F8F62B678
:10092000002404F019FDFFF78BFFCDE90E44CDE95B
:100930001044A34D1294EB6C4FF4604143F0040358
:10094000EB64EB6C224603F004030793079BEB6C0C
:100950009C4843F08003EB64EB6C012603F08003BA
:100960000893089BEB6C43F00103EB64EB6C03F022
:1009700001030993099BEB6C43F00203EB64EB6CFE
:1009800003F002030A930A9B06F07EFD224640F222
:1009900001118D4806F078FD224641F2E4018B48B2
:1009A00006F072FD4FF4604386480EA9CDE90E367D
:1009B0001094119406F0BAFB40F2011382480EA97C
:1009C000CDE90E36CDE9104406F0B0FB41F2E40368
:1009D0007E480EA9CDE90E36CDE9104406F0A6FBFF
:1009E0004FF4007378480EA9CDE90E34109606F046
:1009F0009DFB082376480EA9CDE90E34109406F02D
:100A000095FBAB6C052143F00403AB64AB6C224651
:100A100003F004030493049BAB6C1D203343AB64CD
:100A2000AB6C33400593059BAB6C43F00203AB64A6
:100A3000AB6C03F002030693069B05F089F91D20B9
:100A400005F0C2F9224605211E2005F081F91E207D
:100A500005F0BAF922460521502005F079F9502019
:100A600005F0B2F9204607F08DF808B172B6FEE73E
:100A700007F09CF8034640B95648574AC0E900239E
:100A800009F0B0F918B172B6FEE772B6FEE7534A44
:100A9000534B1070534A4FF440711A601022996002
:100AA0009A619A620F2113223C2404255860D86071
:100AB0009874D8631846C3E90D661E825E615E6253
:100AC000DC61D9621A621D6305F014FC034640BB69
:100AD000CDE90E00CDE91000CDE91200CDE90C0002
:100AE0000B904FF480704FF4301703214FF4805275
:100AF0003D4CC4E90233C4E90A3384F8203084F859
:100B000038303A4B20832046C4E904656760E161D0
:100B1000626384F83060236004F042FC18B172B65E
:100B2000FEE772B6FEE70B900BA9204605F098F899
:100B300008B172B6FEE706230F937F2311932C4B67
:100B4000109013900EA9204612950E9304F052FDBA
:100B500008B172B6FEE7274B20460E930C230EA970
:100B60000F9304F047FD08B172B6FEE7224B204612
:100B70000E9312230EA90F9304F03CFD034608B117
:100B800072B6FEE71D48C0E9053383801C4B066240
:100B9000036005F04BF908B172B6FEE700234FF48D
:100BA000027102221748C372174B8180C0F80720D8
:100BB000036007F005F848B372B6FEE700ED00E009
:100BC00000100240000802420000024200040242FB
:100BD000001C02423428032000080C425805032060
:100BE0003029032000A40040202A03200080024274
:100BF000400020190002B0250004002A9429032097
:100C000000300240A822032000D4004041F63F7586
:100C1000A34CA44ACDE90E00C4E901001090A061E4
:100C200020462260E56009F019FD034608B172B65E
:100C3000FEE720460EA90E93109309F041FD0346EE
:100C400008B172B6FEE7984CCDE90E331093A3605D
:100C5000A36142F20F73954A2046C4E90023E56080
:100C600009F0FCFC034608B172B6FEE720460EA967
:100C70000E93109309F024FD034608B172B6FEE707
:100C80004F254FF6FF748A488A4AC0E904338360CF
:100C9000836102604560C46009F0E0FC034608B16E
:100CA00072B6FEE78448C0E90153C0E90343C0E9D6
:100CB0000533824B036009F0D1FC08B172B6FEE740
:100CC0004FF080414FF0FF327D4CCDE90E00CDE971
:100CD0001000CDE90B00C4E901000D902061A06176
:100CE00020462160E26009F0B9FC08B172B6FEE767
:100CF0004FF4805320460EA90E9309F0FDFA0346E7
:100D000008B172B6FEE720460BA90B930D9309F0CC
:100D1000D7FC08B172B6FEE700246A4A01216A4B8B
:100D2000009246F206002246CDE901440CF0D2FCC6
:100D30000246664D664E00950121CDE90144654BA2
:100D4000326046F2060022460CF0C4FC624B634A55
:100D500001210092CDE9014422461860604B4FF416
:100D60007A600CF0B7FC5F4D5F4B22460093012187
:100D7000CDE901445D4B28604FF47A600CF0AAFC89
:100D80005B4B224600935B4B0121CDE90144186087
:100D9000594B4FF4A0400CF09DFC584B2246009359
:100DA000574B0121CDE901441860564B4FF4A04048
:100DB0000CF090FC544B186001F08EF80DF0C0FA66
:100DC0003246524B5249009500F0B2FF514802F0B2
:100DD00025FA514800F0FAFD5048514A514900F0B7
:100DE00063FB0EA80E9401F06DF820B90E9B13B9A9
:100DF0004D4801F03FF80BF057FF00214B4A4C489B
:100E00000BF0A2FF04464B4B00214B4A4B481C60A1
:100E10000BF09AFF04464A4B00214A4A4A481C609C
:100E20000BF092FF04463F4B0021484A48481C60A3
:100E30000BF08AFF0446474B0021474A47481C6095
:100E40000BF082FF0446364B0021454A45481C60A2
:100E50000BF07AFF04462E4B0021434A43481C60A6
:100E60000BF072FF0446424B0021424A42481C608C
:100E70000BF06AFF0446414B0021414A41481C6087
:100E80000BF062FF0446404B0021404A40481C6082
:100E90000BF05AFF3F4B18600BF028FFFEE700BF36
:100EA0001C26032000140040682603200010004088
:100EB000D025032000440140842503200048014040
:100EC000B426032054060320481F012030060320C7
:100ED0009C05032040BF0020980503200C0603203A
:100EE000A0AF002090050320E805032000A000200B
:100EF000C40503208C05032000500020A00503201A
:100F00008C2A032000000020882A03209405032057
:100F1000E00F0320342803209429032030290320E4
:100F200090140320F01D032004007201B4FB00089C
:100F300055020008A422032090FB00085902000873
:100F4000A02203206CFB00081903000848FB0008DE
:100F5000A90300084019032024FB00082D04000801
:100F600000FB0008CD040008DCFA0008F1060008C8
:100F7000300B0320B8FA00080D0800088006032093
:100F800094FA0008110800087C06032070FA000893
:100F90001508000878060320094A0368934206D022
:100FA000084A93420AD0084A934205D07047074A3C
:100FB000136801331360704700F032BD04F0DEB9EE
:100FC00000140040002C0140001000405405032094
:100FD00072B6FEE7704700BF10B5104C104920886C
:100FE00080B200F039F8A0880E4980B200F06CF8A9
:100FF000207B0D4A94F8201000F0CAF8A07D0B4920
:1010000000F01AF9608B0A4980B200F02DF9BDE8B2
:101010001040084B0849187900F0CEB8540003205E
:1010200054030320DC02032064020320EC010320AC
:10103000FC0003207800032074010320012908D953
:101040004FF6FE2302889A4203D8981AC0F34F0045
:1010500070470020704700BF4FF0FA0C4FF0FF328E
:101060000CFB00F0054B0A60A3FB00C3C01A03EBA6
:101070005003DB0A4A604B70704700BF010110004B
:10108000012911D94378FA2B07D8084AC3EB03305A
:10109000A2FB0020C0F30F10704740F6FF72FF2B39
:1010A0000CBF00201046704700207047D34D6210DF
:1010B000022907D94FF6FF73B0F80100984208BF24
:1010C00000207047002070474FF0FA0C4FF0FF32BD
:1010D0000CFB00F0054B0A60A3FB00C3C01A03EB36
:1010E0005003DB0A4A604B70704700BF01011000DB
:1010F000012911D94378FA2B07D8084AC3EB0330EA
:10110000A2FB0020C0F30F10704740F6FF72FF2BC8
:101110000CBF00201046704700207047D34D62106E
:10112000042907D94FF6FF73B0F80300984208BFAF
:101130000020704700207047012907D94FF6FF7340
:101140000088984208BF4FF4006070470020704745
:1011500001290ED94FF6FF730088984209D047F253
:101160007F53984238BF1846A0F5EA407F3880B2D6
:1011700070474FF400607047022906D980787D38A7
:10118000C0B2822828BF002070470020704700BFEF
:101190004FF0FF337D3013605360D070704700BF55
:1011A000032906D9C0787D38C0B2822828BF002024
:1011B00070470020704700BF4FF0FF330238C0B2C5
:1011C0000428C1F801304B6006D8064A064B125C71
:1011D0001B5C0A704B707047FC2300224B700A7036
:1011E000704700BFE8FB0008E0FB0008012918D9A0
:1011F000037803F00302012A17D003F00C02042A3B
:1012000015D003F03002102A0DD003F0C003402B9C
:101210000FD0437803F00303012B0CBF06200120FD
:101220007047002070470520704702207047032058
:1012300070470420704700BF4FF0FF33800060F01C
:101240000C000B604B60C870704700BF032986BF5D
:10125000C078C0F381000020704700BF09B100785A
:1012600070470846704700BFFF280BD8003818BFEA
:1012700001204FF0FF33400040F0F0000B604B6066
:1012800048707047C0B200284FF0FF330CBFF12008
:10129000F3200B604B604870704700BF012906D9EE
:1012A000437803F00F03013BDBB2022B01D900208E
:1012B0007047024A32F81300704700BFD8FB00089D
:1012C00019B10178C1F3810070470846704700BF2B
:1012D000032986BFC07800F003000020704700BFDC
:1012E00002290FD9837803F00C02042A01D00120CF
:1012F0007047C3F30113012B06D0002B0CBF022053
:1013000001207047002070470320704771B10378B7
:101310009A09012A03F003010AD003F03003102BCD
:1013200008D001290CBF02200120704708467047F1
:101330000420704703207047072903462DD9007801
:101340005A78A0F1FA00B0FA80F0FA2A4FEA501069
:101350009A784FEAC00008BF40F01000FA2ADA7805
:1013600008BF40F02000FA2A1A7908BF40F0400078
:10137000FA2A5A7908BF40F08000FA2A9A79DB7974
:1013800008BF40F00100FA2A08BF40F00200FA2B23
:1013900000D0704740F0040070470020704700BF45
:1013A0002DE9F04F3C4B8346984283B007D83B4B26
:1013B000984269D94FF028094FF4487E0BE04FF06E
:1013C000250940F2EE2E364BB3FBFBFC5FFA8CFC9A
:1013D000BCF1190F5DD90120314B013080B2B3FB54
:1013E000F0FCBCFBFBFC5FFA8CFCBCF1190FF4D8E1
:1013F000B0F5806F42D201236FF000444FF47A764B
:101400005A460093274B1F68431C1FFA83FAACF11E
:101410000208B8EB5C0F4FEA5C0120DD0CF1FF3BEA
:101420005FFA8BFBCDF804A006FB01F5B5FBFCF5DC
:10143000BEEB050A48BFA5EB0E0AA2450ADAD14564
:1014400008DB002554460095ABEB0105EDB2F961D0
:1014500078613D6201314145E6DBDDF804A01049C9
:1014600098B2B1FBFAFCBCFBF2FCB0F5806F0AF15C
:10147000010A5FFA8CFC03D0431CC8E701230093E8
:10148000009803B0BDE8F08F4FF02B0940F26B3E9F
:1014900099E70120AFE700BF00350C0020A107004D
:1014A000005A6202802B032038B50C46064D0749CE
:1014B000074B0A602860074901201C600BF0ACFE56
:1014C000054B186038BD00BF802B0320782B03200C
:1014D0007C2B0320902A0320E02A032030B55B4DAB
:1014E00083B0286805F09AF8286804F003FF002804
:1014F00040F085800022564C402156482271E2601F
:1015000022616261A261A260E26184F8202005F09C
:10151000BBFF286805F082F8012202232868C0E991
:101520000D2304F0E7FE002840F08C800221012208
:1015300040F2FF700023C4E90B1240F20272A06374
:10154000454928686362A362626304F0BDFF08B185
:10155000FFF73EFD4FF0804202230121E263636406
:1015600000226FF06043A1643C492868E1643C4973
:101570002264236504F0A8FF002860D10023012223
:1015800037492868E3642264236504F09DFF00283E
:1015900052D10023022228681146009304F0C0FFB4
:1015A000002846D1286804F0DDFF00283ED1002243
:1015B0000121286805F084F9A8BB002206212868CB
:1015C00005F07EF960BB07224FF4F051286805F062
:1015D00077F910BB07228021286805F071F9C8B996
:1015E00000222049286805F06BF980B900224FF4E9
:1015F0006021286805F064F920B903B030BDFFF719
:10160000E7FC77E703B0BDE83040FFF7E1BCFFF748
:10161000DFFCEBE7FFF7DCFCE2E7FFF7D9FCD9E7FB
:10162000FFF7D6FCCFE7FFF7D3FCC6E7FFF7D0FC08
:10163000BDE7FFF7CDFCB5E7FFF7CAFCA9E7FFF769
:10164000C7FC9BE7FFF7C4FC70E700BF802B0320BB
:10165000000003200004024224000320FECA770099
:101660003C00032000407100014B186804F0D6BF15
:10167000802B0320082824D8DFE800F0080C101481
:10168000171A1D2005001448FFF78ABE42F2107099
:10169000FFF786BE44F62060FFF782BE4CF2503062
:1016A000FFF77EBE0D48FFF77BBE0D48FFF778BE03
:1016B0000C48FFF775BE0C48FFF772BE0B48FFF7EA
:1016C0006FBE0B4AA0F51C53103B934201D9012079
:1016D0007047FFF765BE00BF40420F00A0860100C3
:1016E00048E8010090D0030020A1070000350C005D
:1016F000301B0F000346054A1978002051615978C4
:10170000D16199781162DB789361704730290320A9
:101710000246024B00209A61704700BF3029032027
:10172000034600B5074A93F801E093F800C082F839
:1017300010E005499B7881F800C0537400205DF8E3
:1017400004FB00BF30290320580503202DE9F04792
:10175000054682B0C0680F4603F028F9AB68B3F1C4
:10176000005F3ED00646824600F12409264C4FF029
:10177000FF3120680BF00EFE0128F8D1DFF89480CD
:10178000D8F800000BF0EAFF484517D202251F4A9F
:1017900013792B431371002320681A4619460BF066
:1017A0009FFC00221A49022309680868114600922A
:1017B0000DF0D2F8284602B0BDE8F08729464FF078
:1017C000FF332422D8F800000BF0EAFF054686B963
:1017D0004D450CD00D4A0125137943F008031371D0
:1017E000D9E74FF0000A4FF024095646BEE700251E
:1017F000D1E7524639464FF0FF33D8F800000BF0DE
:10180000CFFF0544E4E700BFE02A032000000320E7
:101810007C2B0320882A03202DE9F04700250C4665
:1018200082B0C9070646019516D4A20707D5022142
:10183000314A137943F00103137133681965630763
:1018400038D4019B2BB14FF0E0234FF08052C3F806
:10185000042D02B0BDE8F087DFF8A890DFF898808B
:1018600040214A46254B04F051FFD8F81430D9F8EE
:101870000C000133C8F8143003F098F8DFF888A0A2
:101880000746DAF800000BF069FF07F128039842D9
:1018900024D349462822DAF8000001AB0CF01AF8EC
:1018A000002FC2D03A46DAF80000144901AB0CF020
:1018B00011F8BAE70424104B11499A6908680132FB
:1018C0009A611A79002142F008021A71336800689F
:1018D0000DEB04021C650DF059F9B2E7D8F8183089
:1018E00029460133C8F81830054B01AA1B6818684F
:1018F0000DF04CF999E700BF00000320382B0320BE
:10190000782B0320102B03208C2A0320002110B5F4
:101910000A4A0B4C1268236982B01068013301AA8D
:10192000236101910DF032F9019B2BB14FF0E023BF
:101930004FF08052C3F8042D02B010BD7C2B032061
:1019400000000320002110B50A4A0B4C1268E3691D
:1019500082B01068013301AAE36101910DF016F91C
:10196000019B2BB14FF0E0234FF08052C3F8042DC0
:1019700002B010BD782B03200000032038B50C46C0
:10198000104D294604F05CFFA10303D5EB68A3B911
:101990000D4A1360620309D52B690B4A012B137999
:1019A0000CBF43F0040303F0FB031371230303D5BF
:1019B0000122054B83F8202038BD4FF00042024B36
:1019C0001A60E7E7E42A032000000320704700BF05
:1019D00091B14FF0FF3210B4084C014410F8013BB4
:1019E0005340DBB254F82330884283EA1222F5D107
:1019F000D0435DF8044B704708467047F0FB000881
:101A00000022014B1A607047882B032000F0B0BC05
:101A1000024A136801331360704700BF882B03200C
:101A2000024A136801331360704700BF842B032000
:101A300000200CF055BB00BF00200CF051BB00BFD4
:101A400000200CF04DBB00BF00200CF049BB00BFD4
:101A50000022014B1A7070477600032000295FD0E6
:101A600010B5C0F3074CBCF1EF0F0C4682B04FEA43
:101A7000102EC0F3112315D84FF2090C7D4B0EEA3E
:101A80000303634517D8B3F5704F5ED9A3F57043D0
:101A9000013B082B0DD8DFE803F0800C8E879C0CEF
:101AA0000C0C95004FF209018B4204D8B3F5704F2E
:101AB000ECD102B010BD4FF602718B42F9D84FF64F
:101AC000F0618B422DD9A3F57E43F13B112BF0D869
:101AD00001A151F823F000BFEF1B0008B31A000862
:101AE000B31A0008B31A0008B31A0008B31A0008A2
:101AF000B31A0008B31A0008B31A0008E11B000863
:101B0000B31A0008B31A0008B31A0008B31A000881
:101B1000B31A00080D1C0008B31A0008FD1B0008CA
:101B200070474FF6D4518B4200F08A804FF64161E6
:101B30008B421ED04FF6CC518B42BAD12146104673
:101B4000FFF7ACFB4C4B5883B3E7B3F5806F05D17F
:101B50001046FFF773FA484B5880AAE75DD8B3B137
:101B6000B3F5807FA5D11046FFF706FB424BD88125
:101B70009FE7104621460192FFF7C8FB019A1378B0
:101B800003F00303032B94D03B4B188391E71046DB
:101B9000FFF78EFA384BD8808BE721461046FFF7C7
:101BA0006FFA354B188084E721461046FFF7B8FAE4
:101BB000314B98827DE721461046FFF799FA2E4B6C
:101BC000988076E721461046FFF7C2FA2A4B188123
:101BD0006FE721461046FFF7E3FA274B187368E7D3
:101BE00021461046FFF774FB234B188261E721461C
:101BF0001046FFF765FB204B58825AE721461046F6
:101C0000FFF7F4FA1C4B83F8200052E721461046F8
:101C1000FFF792FB184BD8834BE7B3F56F4F7FF478
:101C200048AF5FFA8EFEBEF1130F16D0BEF15A0F09
:101C30007FF43FAF1046FFF711FB0F4BD87538E725
:101C4000C3B2212B0FD05A2B7FF433AF214610465D
:101C5000FFF7FCFA084B98752BE71046FFF76CFA74
:101C6000054B588125E721461046FFF739FB024B0B
:101C700098831EE700FF030054000320294B1B78C4
:101C8000002B4DD12DE9F043274D0646DFF89C800F
:101C900083B005F1180701E0AF423ED055F8044B80
:101CA000E36E626EF31A9342F6D3B4F9723004EB2A
:101CB000E300002B00F1240008DBB4F868300222B6
:101CC0005BBA01A9ADF8043002F07CFEB4F97410DF
:101CD00004F1240900294FEAE10110DB4846FFF72F
:101CE00077FE0190B4F9740004220028B8BF0730D1
:101CF000C010243001A904FA80F002F063FED8F885
:101D00000030494623612046FFF720FDA36EAF4215
:101D100003F10103E666A366C0D103B0BDE8F0831A
:101D2000704700BF76000320F0FF0008000003208A
:101D300038B50446084B094D1A60094B049A2960CE
:101D40001A6000F04DF8204601F0CCFD204602F06C
:101D50005DFE002038BD00BF902B0320942B032094
:101D60008C2B032038B5054601F0DCFD04462846DF
:101D700002F058FE2043C0B238BD00BF70B5154B0D
:101D800082B01B6804460D46164601F001FE01288C
:101D90000AD0114B3246294620461B6802F06CFEE1
:101DA00001280BD002B070BD00220C4B11461B68FD
:101DB0001868022300920CF0CFFDEAE700220749E1
:101DC000022309680868114600920CF0C5FD02B0B4
:101DD00070BD00BF902B03208C2B0320942B03207D
:101DE00000B583B0102001A900F0A2F810B903B02B
:101DF0005DF804FB0021102000F082F8003818BFC5
:101E0000012003B05DF804FB00B583B0102001A9E8
:101E100000F08EF828B90146019830B903B05DF89A
:101E200004FB012003B05DF804FB102000F068F80B
:101E3000003818BF012003B05DF804FB70B5002620
:101E400082B004460D46102001A9019600F070F8FA
:101E500010B9019BA34202D8012002B070BD04F169
:101E60001100294680B200F063F8801B18BF0120E2
:101E700002B070BD002210B5114B82B01B780192E8
:101E800013B9184602B010BD044601A9102000F095
:101E90004FF840B901981130FF2804D8214680B28C
:101EA00000F02EF818B10123184602B010BD0199B8
:101EB0001020013100F024F8031E18BF0123E0E7D1
:101EC00077000320014608B5102000F031F80038F3
:101ED00018BF012008BD00BF10B504F043FE00206C
:101EE00009F098FF044618B904F050FE204610BDD2
:101EF000002009F061FB04F049FE204610BD00BF40
:101F000038B504460D4604F02DFE204629460AF059
:101F10003BFAC305044603D404F038FE204638BD1E
:101F200009F024FC0443A4B204F030FE204638BD7E
:101F300009F07CBDF8B54FF4805600240F460546E5
:101F400083190470C0F80240047384601C74C3F8E1
:101F500012409C61DC8100F5005332462146C3E902
:101F600007445F620D300DF017FCA8193246214678
:101F7000BDE8F8401C300DF00FBC00BFF0B50446C2
:101F800083B0836031B3157894462B09032B21D895
:101F9000DFE803F0253A600205F00F0500F5005672
:101FA000012986F8215000F0AB809CF8013002290D
:101FB00086F8223000F0A7809CF8023086F82330A3
:101FC000002D00F0AC80012D00F09F80032204F56D
:101FD00080531A74237B012B73D003B0F0BD0378B8
:101FE0000BB1002303706B1E062BF3D801398D4211
:101FF000F0D82A460CF1010104F10D0002F0E2FCD8
:10200000022365802370E5E703780BB1002303709A
:102010000729DFD99CF800309CF801201B0203F44B
:1020200070631343072BA380D4DD06220CF1020159
:1020300004F10D0002F0C6FC01220021062004F587
:10204000005622706080B17704F58051CA81302338
:10205000F27F3CE00378012BBCD100F58057FA8970
:1020600005F00F0502F00F039D4246D14088A3887A
:102070001B1A9BB2072B5BD90829ABD10132FA811D
:102080004B1EDDB20D302A460CF10101204402F056
:1020900099FC6388A2882B449BB29A4263804FD0FC
:1020A00004F50056F27F002A94D0FB89013B93FB94
:1020B000F2F102FB1133002B8CD1B37F43F03003DC
:1020C00005E004F50056B37FF27F43F030030021B2
:1020D00096F8200021738DF802000320746A8DF8B1
:1020E00000308DF8012002F067FC03466946706AF3
:1020F000E360FFF72BFB03B0F0BD0023037069E73B
:10210000002386F82230002358E704F58052137C20
:10211000013B012B3FF65EAF022313745AE704F52F
:1021200080531A7C022A7FF455AF01221A7451E7BA
:102130008B42BFF44FAF0132072BFA81A1D19FE749
:102140000223237046E700BF2DE9F84300F58056CF
:10215000347C012C03D000242046BDE8F88300F530
:1021600000581D4698F823300F46F12B28BF012355
:10217000B1698446691A9942EDD3718AB38A99B9D3
:10218000072B50D81046314600F8013BB28A1C316B
:1021900002F018FC0322B38A01333B70B38A7382C6
:1021A000A8F81C4032743AE010465B1A1FFA83F913
:1021B000B8F81C30B9F1070F03F00F0343F0200308
:1021C00000F8013B718A01F5805101F11C01614465
:1021D00014D9072202F0F6FB08233B70738A0733F9
:1021E000738298F82220B8F81C30AAB1B3FBF2F140
:1021F00002FB113282B9022232740DE04A4602F02B
:10220000E1FB032309F101023A703374738A9944A4
:10221000B8F81C30A6F812900133A8F81C302046FC
:10222000B561BDE8F883C3F3032343F010031370D3
:10223000B38A00F580515370901C1C31062202F0C5
:10224000C1FB082306223B7002237282A8F81C40BF
:102250003374E4E70378012B06D18268034B891AB3
:102260009942C4BF0023037000207047400D030053
:1022700030B500F5805514462A7C0B46013A012AF8
:1022800093B006D8AA698A1A12498A4284BF0322E7
:102290002A7402AA0DF10701FFF756FF50B92B7CF3
:1022A000032B02D0002013B030BD002301202B747B
:1022B00013B030BD9DF8070002F07EFBE06002E045
:1022C000012002F097FB204602A9FFF73FFA002801
:1022D000F6D1E4E7400D030000F5805CBCF8143053
:1022E000B3F5805F0FD800B500224FF0010E00F566
:1022F0000053ACF812209A838CF810E01046CCF80A
:1023000018105DF804FB0120704700BF830F032BFA
:10231000C0F30D401FD0012B0ED140F26353984201
:1023200020D01F235FFA80FC000A012281F800C040
:1023300048708B70CA70704733B9B0F5B97FF0D16F
:102340000B204FF0EF0CF0E79128EAD10B204FF073
:10235000380C0223E9E72928E3D102204FF07F0C53
:102360000923E2E702204FF0740C0D23DDE700BFE4
:102370002DE9F04F456891B0B5F1804F02D011B012
:10238000BDE8F08F0668C068C6F307470C4602F048
:102390000DFBEA2FC6F3072832D0EC2FEFD1B8F1AE
:1023A0005A0FECD10728EAD92378102BE7D1E3792B
:1023B0003002BD49A27980B20143647908201B0430
:1023C00043EA0223234300224FF0FF34079123FA0C
:1023D00000F18DF819308DF81A101B0C0A9005A920
:1023E00007A8CDE90B22CDE90D2208958DF81B3009
:1023F00009920F9205948DF81840FFF7A7F9BEE7F0
:102400000228BCD9B8F1FF0F23D0B8F15A0FB6D1CA
:10241000A378617822781B0443EA01231343B3F5C0
:102420006E4F40F0C980A14A33029BB21A43002389
:102430004FF0804508249E4907A8CDE90853CDE90F
:102440000A43CDE90C33CDE90E330792FFF77EF94D
:1024500095E7A378617822781B0443EA01231343AC
:10246000B3F56E4F00F04B814FF6C552934200F02A
:10247000D0804FF6CA62934281D14FF0000902A882
:10248000CDF80890FFF71EFD8A4BB3F81EA0029B03
:10249000CAF3400A4FEA8A1A4AF03F04012B00941B
:1024A00040F22F814FEA830808F102081FFA88F8EA
:1024B000814B08F10602A3FB0213D21A03EB52036D
:1024C000C3F387044FF080437C4A089307920822A5
:1024D00020230A927A4A05AE07AF069231464FEAA8
:1024E000182238468DF81430CDE90B99CDE90D99B5
:1024F000CDF824900194CDF83C908DF815808DF89E
:1025000017408DF81620FFF721F96E4B0793002C2A
:102510003FF435AF012521E003A94FEAAA00CDF829
:102520000C90FFF78BFC04A90398FFF7EFFE0AF06D
:10253000030340336B4413F8301C04F140036B4435
:10254000072C03F82C1C32D131463846FFF7FEF831
:102550000135019BEDB2AB42FFF411AF0822FF2120
:10256000304602F02BFA6B1E9BB2C3EBC3021FFA7C
:1025700082FBC3458DF81450E6DA002B40F0E4806E
:1025800001242146009B8DF8153001340129A1F169
:10259000020AE4B2C0D1FF2104F140036B4403F806
:1025A0002C1C04EB0B014145CEDA89B2EDE704EBBC
:1025B0000B014145F9DBC7E74FF6C552934228D0DE
:1025C0004FF6CA6293423FF458AF08270022FF2417
:1025D00008956FF0FE0506FA07F03B4980B201430B
:1025E000079123FA07F18DF819308DF81A101B0C9A
:1025F00005A907A8CDE90927CDE90B22CDE90D22D0
:102600008DF81B300F9205958DF81840FFF79EF856
:10261000B5E62E4802F0E2F900224FF0804108248E
:10262000CDE908122021CDE90A42CDE90C22CDE9FD
:102630000E22274A204B0692821D8DF81410A3FB10
:1026400002131E4DD21A20FA04F103EB520305AE19
:1026500007AFC3F3870807958DF815008DF816109E
:102660000546314638468DF81780FFF76FF8154B51
:102670000793B8F1000F3FF482AE0124DFF84C90CD
:102680000822FF21304602F099F9631EC3EBC30311
:102690009BB29D428DF8144028D9013B314609EB8D
:1026A00003020DF11B0C1AE05A00EC1C5A00EE1844
:1026B0002000010854000320254992245AFFEC1CF5
:1026C000FFCAFE005AFFEB1C5A00E8180800010878
:1026D000FFC5FD000233A3EB0903AB4206DA134644
:1026E00012F8010F01F8010F6145F3D101343146B1
:1026F0003846E4B2FFF72AF8A045C1D23FE61A4AAD
:1027000095E608224FF08043184905AE0791304600
:10271000FF210A920893CDE90B99CDE90D99CDF8E7
:102720002490CDF83C9002F049F9FF22029B8DF8ED
:102730001440012B8DF8152009D0CDF816903146A4
:1027400007A8FFF703F81AE6594600241DE704A975
:102750004846CDF81090FFF771FB04980DF1160173
:10276000FFF7D4FDEBE700BF5AFFEE185ACAFE1878
:102770002DE9F043144602780646013A1D4685B01D
:10278000092A11D8DFE812F01C0010000A008A01A3
:10279000100010000A00100066010A00012900F074
:1027A0008A817F22122101E07F22112103232270DE
:1027B0003278A17062702B80002005B0BDE8F083F4
:1027C0000229EED141232370437863709E2BE8D811
:1027D00001A252F823F000BF532D0008312D00084C
:1027E000A3270008692C00085F2C0008552C00085E
:1027F0004B2C0008412C0008A3270008A327000841
:10280000A3270008A32700082B2C00081B2C000876
:10281000112C0008112C0008F12C0008EF2B0008E7
:10282000A3270008092D0008A3270008FD2C000895
:10283000A3270008A3270008A3270008A327000850
:10284000A3270008A3270008C52C0008A327000819
:10285000A3270008A52C0008E52C0008E52B00089C
:10286000A3270008A3270008A3270008A327000820
:10287000A3270008A3270008A3270008A327000810
:10288000A3270008A3270008A3270008A327000800
:10289000EF2B0008A3270008EF2B0008E52B00080A
:1028A000A3270008B12D0008A52D0008A3270008C4
:1028B000A3270008A3270008A3270008A3270008D0
:1028C000A3270008A3270008992D0008A3270008C4
:1028D0008D2D0008A3270008812D0008A3270008DC
:1028E000752D0008E52B0008692D0008EF2B000866
:1028F0005F2D0008EF2B0008A3270008032C000819
:10290000032C0008A3270008032C0008E52B00086F
:10291000E52B0008A3270008A32700087F2C000848
:10292000A3270008A3270008A3270008F92B000805
:10293000F92B0008A3270008A3270008A3270008F5
:10294000A3270008A3270008A3270008A32700083F
:10295000A3270008A3270008732C0008A32700085A
:10296000DB2C0008CF2C0008A3270008A3270008B1
:10297000A3270008A3270008A32700081D2D00088F
:10298000A3270008A3270008A3270008A3270008FF
:10299000A3270008A3270008A3270008A3270008EF
:1029A000A3270008A3270008A3270008A3270008DF
:1029B000A3270008A3270008A3270008A3270008CF
:1029C000A3270008A3270008A3270008A3270008BF
:1029D000A3270008A3270008112D0008A32700083B
:1029E000A3270008A3270008A3270008A32700089F
:1029F000A3270008892C0008A3270008A3270008A4
:102A0000A3270008A3270008A3270008A32700087E
:102A1000F92B0008A3270008A3270008A327000814
:102A2000A3270008A3270008A3270008A32700085E
:102A3000A3270008A3270008A3270008A32700084E
:102A4000A3270008A3270008A3270008992C000843
:102A5000E52B000802297FF4A4AE492323704378B4
:102A600063700A2B3FF69DAE01A252F823F000BF1F
:102A70000F2B0008A32700083B2B0008A327000802
:102A80001D2B0008A3270008D52B0008A32700084A
:102A9000A3270008A3270008A72B000801297FF41B
:102AA00080AE0191FFF7B0F9019968BB33784033EC
:102AB0002370298080E602A8FFF704FA20BB029B5E
:102AC0005A1C52002A80327863704032DBB2227086
:102AD000002B3FF471AE074604F1020904F103082C
:102AE0000CE0039B1A0E09F817201B0C9DF8082018
:102AF00008F817300137BA427FF65EAE384603A9B0
:102B0000FFF79CF90028ECD07F2210214EE644F21A
:102B100054020623C4F802202B804DE6012313271C
:102B2000A64EA3700FCEC4F80300C4F80710C4F873
:102B30000B20C4F80F302F803EE614230120E61C42
:102B40003146A0702B80FFF7F3F9E11D0546022006
:102B5000FFF7EEF9034604F10B0103201D43FFF7D5
:102B6000E7F9034604F10F010420ADB21D43FFF75E
:102B7000DFF90346ADB2052004F113011D43FFF751
:102B8000D7F9ADB245EA00039BB2002B3FF414AE77
:102B90000023C4F80330C4F80730C4F80B30C4F87D
:102BA0000F30E37408E60123E71C142200213846A5
:102BB000A37001F003FF4FF0170C814E0FCEC4F845
:102BC0000300C4F80710C4F80B20C4F80F30A5F8B0
:102BD00000C0F1E5782207237A49A271C4F80210F7
:102BE0002B80E9E5042200232A806380E4E50322A8
:102BF00000232A80A370DFE5032280232A80A370AC
:102C0000DAE50322704B2A805B881B09A370D3E5A9
:102C100003228A232A80A370CEE503226B4B2A80ED
:102C20009B8AC3F30723A370C6E50423674A2B805E
:102C30009388C3F34A13A3709388DB00E370BBE56A
:102C4000032288232A80A370B6E503227E232A80EC
:102C5000A370B1E5032274232A80A370ACE503229C
:102C60004C232A80A370A7E5042202232A806380D4
:102C7000A2E50622564B2A80C4F802309CE50322C6
:102C800001232A80A37097E507210023514A298058
:102C9000C4F80220A3718FE5062200232A80C4F81D
:102CA000023089E504232B800BF04AFB4A4DA5FB3B
:102CB00000239B0BA3700BF043FBA5FB00539B0968
:102CC000E37079E503220A232A80A37074E50422C5
:102CD0004FF413432A8063806EE503227D232A800C
:102CE000A37069E506223D4B2A80C4F8023063E5F3
:102CF00004224FF41C532A8063805DE504224FF4C4
:102D00007F432A80638057E503232B80A37053E51C
:102D10000622334B2A80C4F802304DE500230921F6
:102D200040F269122980C4F80220E380237243E54F
:102D300003A8FFF7C7F808B1002303930023062177
:102D4000039A298002F07F02A270E37023716371FD
:102D500032E50622234B2A80C4F802302CE50322F8
:102D600051232A80A37027E504224FF49C532A8024
:102D7000638021E504224BF635732A8063801BE5CE
:102D80000622194B2A80C4F8023015E5042243F6C6
:102D90000B132A8063800FE5042248F613232A8050
:102DA000638009E50622114B2A80C4F8023003E54E
:102DB000032264232A80A370FEE400BF18FA0008EF
:102DC00028FA00080112345678000320540003202A
:102DD00060800001010C9500D34D62108005B01594
:102DE0000204000CBE1FA8137EDC8C018C92802391
:102DF000814204D900F17840B0F5802F01D3002042
:102E0000704701F178410139B1F5802F2CBF0020C6
:102E100001207047814208D9B0F1005F05D3044812
:102E200081428CBF0020012070470020704700BF06
:102E300000000420814211D9B0F1005F10D21A4B7A
:102E400098422AD8194B984205D9194881428CBF1B
:102E5000002001207047B0F1006F0FD200207047B2
:102E6000144B994201D801207047134B9842F5D971
:102E7000124881428CBF002001207047104B9942BC
:102E8000ECD8104BB3F8E030B3F5007FEBD00E4830
:102E900081428CBF0020012070470C4881428CBFCA
:102EA00000200120704700BFFFFFF90BFFFFF80B68
:102EB0000080F90B000004203F2002404021024026
:102EC000000008080005FA0B000004080002FA0BD5
:102ED00000B58BB001A804F03DF80598AA3818BFDA
:102EE00001200BB05DF804FB00B58BB072B601A8F1
:102EF00004F030F804214FF40052079B019143F095
:102F00008063CDE9062303F02DFE20B162B60120D7
:102F10000BB05DF804FB03F045FE0028F6D101A8D4
:102F200003F0F6FE10B903F05FFEEFE703F04EFE8C
:102F300003F02CFEEAE700BF10B58AB003F012FEE2
:102F4000044603F02FFE044301A804F003F8042113
:102F50004FF48072079BE4B283F4801303F4801370
:102F6000CDE90623019134B103F030FE03F00EFEEB
:102F700001200AB010BD01A803F0CAFE0028F3D159
:102F800003F032FE044603F021FE044303F0FEFD8D
:102F9000E4B22043C0B2003818BF01200AB010BD0F
:102FA00030B58BB003F0DEFD044601A803F0D2FF7C
:102FB000002380220798022110F4801FCDE90332FC
:102FC00000930CBF02230123019101A869460293DB
:102FD00004F056F8054603F0D9FD28432043C0B25B
:102FE000003818BF01200BB030BD00BF70B503F032
:102FF000B9FD05460F4C104ED4E90023B3F1FF3F55
:1030000008BFB2F1FF3F04F5802107D0012003F093
:1030100023FE002818BF45F00105EDB20834B44284
:10302000EAD103F0B3FD2843C0B2003818BF012035
:1030300070BD00BF00E0030800000408002330B5A5
:103040008FB0009303F08EFD0223044605A8019380
:1030500003F080FF0B9B042213F4801F4FF07C00D1
:1030600014BF02230123694603900DEB0200049272
:10307000029304F005F8054603F088FD054344EA91
:103080000500C0B2003818BF01200FB030BD00BF2E
:10309000014608B5012003F0DFFD003818BF01200C
:1030A00008BD00BF0022014B1A607047982B032017
:1030B0003F4A30B43F4C918815683F4B2268B1F5C8
:1030C000506F1D60A0EB02020DD30121642A19711B
:1030D00016D92060002593E80700384C1D7203C400
:1030E000228030BC7047B1F5406F1DD2B1F5306F12
:1030F0002AD2B1F5206F07D30521642A197131D87E
:1031000000251D7230BC7047B1F5E06F36D2B1F5C5
:10311000807F3BD90025642A1D71F1D9274A2060A0
:103120001279012AD6D1D6E70321642A1971E7D989
:10313000224A20601279012ACCD15A79062A01D874
:10314000013AD2B25A71C5E70421642A1971D7D95C
:103150001A4A20601279012ABCD19A7982F00102C0
:10316000DA80B7E7154A20601279012AB2D1DA88ED
:1031700082F4807222F0FF02DA80ABE70621642A33
:103180004FF001051971BCD92060A4E70221642A1F
:103190001971B5D9094A20601279012A9AD15A7950
:1031A000911FC9B2F82984BF0132D2B25A7191E796
:1031B0009C2B0320982B03207800032084000320FD
:1031C0000122014B1A707047A82B032010B5104C38
:1031D000104962880B6892B22280E288C31A92B2C8
:1031E000A280E289B3F57A7FD2B2227306D20A4B6B
:1031F0001A79DB8884F82020638310BD086000F012
:1032000015F800F00100A07500F01EF86083EEE7ED
:1032100054000320A42B032078000320014B1860E6
:10322000704700BFAC2B0320704700BF00B5054BB3
:1032300083B0186801A906F0BDFE9DF8040003B034
:103240005DF804FBAC2B032000B5054B83B0186878
:1032500001A906F0AFFEBDF8040003B05DF804FB61
:10326000AC2B032000B5054B83B0186801A906F00C
:10327000A1FE019803B05DF804FB00BFAC2B032056
:103280000D4B02781B68403201291A7010D900B525
:10329000A1F1020E10FA8EFE024610F801CF72451F
:1032A00003F801CFF8D1054B1B6819805DF804FBCA
:1032B000024B1B6819807047D42B0320D02B0320AE
:1032C00070B50129044682B00BD9457805F07F0519
:1032D000012D14D0022D02D07F20122503E00629F3
:1032E0002CD07F2013250321344B354A1B681268EC
:1032F000187020789D705870118002B070BD40F237
:103300006713ADF80030FFF7ADFF2E4A2E4B424059
:10331000C3E903021D7794F9013000BA002BCDF800
:103320000200EADB0621254B254A1B680098BDF800
:103330000440126818609C801180DEE7224BD0F8B0
:1033400002009A69042A02D97F203625CBE75E68FD
:103350005969711A092902D87F203725C3E7197FD7
:10336000012902D07F202425BDE7196900BA8142D6
:1033700015D04FF0000E4FF07F0C352503200132A1
:103380009A610E4A0E4912685E6183F81CE082F869
:1033900000C023780968537095700880ADE71D77E9
:1033A00094F90130002BA8DB40F26721034A044B5B
:1033B00012681B6811801D809FE700BFD42B03207B
:1033C000D02B032078563412B02B0320022910B5DD
:1033D00010D04FF07F0E4FF0130C03210F4B104A0B
:1033E0001B68126883F800E0007883F802C0587008
:1033F000118010BD437833B1802BFAD04FF07F0E8F
:103400004FF0120CE9E7054A037812684033137055
:10341000034C407823685070198010BDD42B0320D2
:10342000D02B0320022930B510D04FF07F0E4FF083
:10343000130C0321424B434A1B68126883F800E0D7
:10344000007883F802C05870118030BD437803F0D3
:103450007F03022B2FD0032B1BD0012B3ED1002248
:10346000394C3A4D23703A4B2A705A73C4E90322FF
:10347000C4E90522227790F901304278002BE4DB81
:1034800050242F4B2F481B6800685A701C70018015
:1034900030BD304A928A92B2B2F5805F47D37F2521
:1034A0008824274A274912680968157000789470A3
:1034B00050700B8030BD274A928A92B2B2F5805F7D
:1034C0001BD37F25222403211D4B1E4A1B68126833
:1034D0001D7000789C705870118030BD4FF07F0CCB
:1034E00012240321164B174A1B68126883F800C088
:1034F00000789C705870118030BD00221249144C25
:10350000C1E90322C1E90522104D62730A772A70CE
:1035100090F901200B70002A417896DB5024084A6C
:1035200008481268006851701470038030BD002292
:10353000054C074D2370054B6A731A7096E700BF60
:10354000D42B0320D02B0320B02B0320D82B032017
:10355000DC2B032054000320204B214A022910B504
:103560001B6812680CD04FF07F0E4FF0130C032134
:1035700083F800E0007883F802C05870118010BD15
:10358000184C94F800C0BCF1010F11D090F801C0A4
:103590000CF07F0CBCF1010F12D04FF07F0C122405
:1035A000032183F800C000789C705870118010BD12
:1035B0007F2103241970007899705870148010BD11
:1035C000047840341C7044785C70118090F90130AC
:1035D000002BD4DABDE8104002F016BCD42B032037
:1035E000D02B0320B02B0320022910B510D04FF0B0
:1035F0007F0E4FF0130C0321184B194A1B681268F9
:1036000083F800E0007883F802C05870118010BD84
:10361000427802F07F03012B13D0022B04D04FF02D
:103620007F0E4FF0120CE6E71206F0D40B49027839
:10363000096840320A700A4C40782268487013804A
:1036400010BD1406E3D4054A0378126840331370A2
:10365000034C407823685070198010BDD42B032090
:10366000D02B0320012970B51FD9427802F07F03C7
:10367000012B10D0032B1CD04FF07F0C1224032100
:10368000394B3A4A1B68126883F800C000789C7076
:103690005870118070BD02292AD08378103B032B0B
:1036A00051D8DFE803F04C4A444E4FF07F0C13240E
:1036B000E5E72F4C217869B1120626D402212A4A67
:1036C0000378126840331370284C40782368507098
:1036D000198070BD4FF07F0C2224234A23491268C1
:1036E000096882F800C00078947050700B8070BD3B
:1036F0007F25132403211C4B1C4A1B6812681D7074
:1037000000789C705870118070BD0123194D2E787F
:103710002B70FDF7A9FF4FF47A7009F06FFBF6B23A
:103720002078FDF7A7FFFDF7D9FE2E7070BD362378
:103730000F490B701306C1D570BD3523F8E734234C
:10374000F6E73823F4E77F22002631240321064BD5
:10375000074D1B682E701A70044A00781268587062
:103760009C70118070BD00BFD42B0320D02B032090
:10377000D82B03207600032030B54378044685B06B
:1037800013B98378442B0FD07F204FF0310C0321E5
:10379000354B364A1B6812681870207883F802C0CF
:1037A0005870118005B030BD0B2903D07F204FF039
:1037B000130CECE72E4B1978022903D04FF07F0C45
:1037C0007F20E4E71B7F022B11D12A4D6B7B13F086
:1037D000FB030FD07F2024250321234B234A1B68A2
:1037E0001268187020789D7058701180DAE74FF0D9
:1037F000330CE5E7D0F80300AB6001232B73D4F85A
:10380000073000BA1BBA1918019228606B60FFF7E5
:10381000EFFA28B3154B144918686B68096813F060
:10382000070F019A0BD07F234FF0700C0B7003230E
:1038300094F800E081F802C081F801E00380237869
:10384000202440338DF80C304FF20F036A730422AA
:103850008DF80D40ADF80E30039B0B600280A1E7A0
:103860007F203125B8E700BFD42B0320D02B0320C5
:10387000B02B0320DC2B0320042910B504460ED006
:103880007F204FF0130C0321144B154A1B6812685C
:103890001870207883F802C05870118010BD4378EA
:1038A000FF2B03D07F204FF0310CECE78378FF2B08
:1038B000F8D1C378FF2BF5D1FEF7A6FA18B17F2017
:1038C0004FF0720CDFE7012104482378044A0068B6
:1038D000126840330370118010BD00BFD42B032049
:1038E000D02B032038B500240122094B09490A4D89
:1038F0004C73586009490A48C3E90344C3E90544C5
:103900002C701A701C77FEF715FB204638BD00BFDF
:10391000B02B0320DC2B0320D82B032090000320A6
:10392000549F0120114B01461A78032A02D01048F7
:10393000FEF790BC41F288305A688A1A8242F6D962
:1039400000224FF0010C10B40A480B4C4273227055
:1039500083F800C01A7706485DF8044BC3E90322D8
:10396000C3E905225960FEF775BC00BFB02B0320E8
:10397000549F0120DC2B0320D82B03200146024A50
:103980000248FEF775BC00BFB4000320549F01201D
:103990002DE9F043D0E900574FF0000885B0B7F1AA
:1039A000804F8DF80D80ADF80E8003D0002005B05B
:1039B000BDE8F0831E46C5F30743DA2B0446C5F382
:1039C0008269C5F3072059D0DB2BEFD1FF28EDD159
:1039D000E068009100F0EAFF0028E7D000990B783A
:1039E000002BE3D003F0080252EA1312DED1E068A4
:1039F000CDE9003100F0DAFF009B421E93420199AD
:103A0000D4D8884601222C02A4B244EA896418F86A
:103A1000015BDFF8FCE0DFF8FCC044F45A0444F03A
:103A20005A0430684FF0FF33CEE90047CCE9004735
:103A30000DF10D0105F00F048DF80D20ADF80E40CD
:103A400009F0AEFE4FF0FF33022204460DF10E01E5
:103A5000306809F0A5FE02464FF0FF33144441469A
:103A60003068BDF80E2009F09BFEBDF80E3004440E
:103A70000333A3424AD0FDF7ABFA47E05A2895D169
:103A80002B029BB243EA8963E06843F45A03204C5B
:103A900043F05A03C4E900371E4CCDE90012C4E9D3
:103AA000003700F083FF0546019A00991A4C13462F
:103AB00020460A462946FEF761FA2578022D7FF452
:103AC00075AF4FF0FF3301220DF10D0130688DF815
:103AD0000D8009F065FE2A464FF0FF330546A11C14
:103AE000306809F05DFE02464FF0FF331544306840
:103AF000628804F10D0109F053FE63880544033325
:103B0000AB4201D0FDF764FA0023237001204EE799
:103B1000B400032090000320549F01202DE9F04FB2
:103B200000241D468FB0189B9B4F1C809B4E0C465B
:103B30009B499146336048603D60002A00F08280D6
:103B400022780F2A40F28D80103A772A00F2868080
:103B5000DFE812F09200990084008400A000840045
:103B6000840084008400A700840084008400840012
:103B70008400840084008400CD00D300840084008D
:103B80008400080184008400840084008400840090
:103B90000F01840084003301840084007A01D6017F
:103BA000DC012801840084008400840084009401E6
:103BB0008D018400840084008400840084008400DB
:103BC00084008400840084008400840084008400D5
:103BD00084008400840084008400840084008400C5
:103BE00084008400840084008400840084008400B5
:103BF00084008400840084008400840084008400A5
:103C00008400840084008400840084008400840094
:103C10008400840084008400840084008400840084
:103C20008400840084008400840084008400840074
:103C30008400840084008400840084008F00F101EB
:103C4000840001017F212270132003222970217832
:103C5000A87069701A800FB0BDE8F08F7F21112025
:103C6000F3E72A46494620460FB0BDE8F04FFEF77D
:103C70007FBD7F211220E8E7494620460FB0BDE80E
:103C8000F04FFFF7CFBB494620460FB0BDE8F04FDD
:103C9000FFF762BC494620460FB0BDE8F04FFFF782
:103CA000EBBDB9F1020F26D959222A70042261789E
:103CB000AA706970627802F07F02012A00F03683F0
:103CC000022A00F061837F2212212A7003222078C9
:103CD000A97068701A8094F90130002BBBDA3B6838
:103CE0001B787F2BB7D0002233681A80B3E7B9F175
:103CF000030F00F067827F21A6E7B9F1010FFAD028
:103D0000627802F00F000428B3D102F0F0004028DE
:103D1000AFD80978012937D01209911D8945EAD118
:103D2000D4F802C0002A00F0CD844FF00008013A18
:103D3000D200601D10F8011F9140083A12F1080FDF
:103D400048EA0108F6D140F6FE72904540F2BB8485
:103D50007F21312079E7494620460FB0BDE8F04F7A
:103D6000FFF780BC494620460FB0BDE8F04FFFF793
:103D7000A7BAB9F1020FBED991F80080B4F80120BA
:103D8000B8F1020F00F0DA827F2203212A70207836
:103D9000AA70687019805EE7D42B0320D02B032013
:103DA000B02B0320B9F1010FA5D1B04A517B0329F3
:103DB00000F036837F21242047E7B9F1030F9AD919
:103DC00094F9010062780028BCBF02F07F026270A3
:103DD0006288B8BF4FF0010852BA92B2A8BF4FF044
:103DE0000008B2F5097F80F22483B2F5007FC0F2AB
:103DF000A980A2F50072232A00F2A480DFE812F065
:103E0000ED00DD004C013C0133011401C5017B01D3
:103E1000A1015D01A200A200A200A200A200A200D6
:103E200089016A01A200A200A200A200A200A200D1
:103E3000A200A200A200A200A200A200A200A20072
:103E40000D010601C400B700894AB2F8E020B2F5BE
:103E5000007F7FF403AFB9F1020F7FF64CAF012270
:103E6000494620460FB0BDE8F04FFFF785BC4946F4
:103E700020460FB0BDE8F04FFFF7A8BAB9F1010F27
:103E80003FF439AF627802F00F0004287FF4F1AEFE
:103E900002F0F00040283FF6ECAE1209501D4845F4
:103EA000BFF629AF002A00F0FF834FF0000802F1AF
:103EB000FF3C4FEACC0C04F1050E1EF8010F00FA8E
:103EC0000CF0ACF1080C48EA00001CF1080F1FFAD6
:103ED00080F8F2D102F1060A0AEB080291457FF45C
:103EE0000AAF0878D4F80220022800F010847F225C
:103EF0007F20032128702078AA7068701980AAE6B4
:103F0000B9F1020F7FF6F7AE0222A9E7B9F1010F6E
:103F10003FF4F1AEDFF8548198F80D20012A00F04B
:103F2000EC81022A7FF446AFB9F1020F00F0A382C0
:103F30007F21712089E6494620460FB0BDE8F04F49
:103F4000FFF752BB7F222A7022786A703122AA7052
:103F500003221A803368B8F1000F3FF47CAE3A6850
:103F600012787F2A3FF477AE00221A8073E6B9F107
:103F7000040F00F0EF837F222A7022786A701322E8
:103F8000AA7003221A80E5E7B9F1070FF3D1201DCB
:103F9000FDF7C6FBFDF7A2FA0A2008F02FFF042167
:103FA00022783B6840321A7062785A70A2789A7010
:103FB000E278DA7033681980CCE7FFF73FF8002821
:103FC00000F074837F22722003213B681A702278EC
:103FD0005A70326898701180BCE7B9F1040FCAD1E9
:103FE0006278012A00F01584022A40F0A1800021A5
:103FF000204A1170227840322A7062786A70A27862
:10400000AA70E278EA7004221A80A3E7B9F1050FDA
:10401000B1D12079FDF77CFBBCE7B9F1070FAAD13C
:10402000201DFDF767FBB5E7B9F1060FA3D140F6F8
:10403000FB71A28852BA92B28A4283D87121284673
:10404000297061786970A178A970E178141F00F86F
:10405000031F002102E000F8011F01318C42FADC4D
:1040600004321A8076E77122C6E700BFDC2B0320FA
:104070000005FA0B760003207122611C2A70A9F159
:10408000020211FA82F214F8011FA24205F8011F80
:10409000F9D1A3F800905DE7FEF7A8FF002891D1C1
:1040A00001232278396840320A70E25CCA54013335
:1040B0009AB29145F9D83368EBE70A7F022A00F0FB
:1040C0001F837F222A7022786A703322AA7003220B
:1040D0001A803FE7B9F1040F7FF44DAF0A78022A46
:1040E00000F053837F227F2129702178AA70032258
:1040F00069701A802EE7B9F1040F7FF43CAF627843
:10410000012A00F07A83022A12D10021B74A1170E5
:1041100070E7B9F1040F7FF42EAF0A78022AE1D1DB
:104120000A7F022A40F064836278012A00F04C83FF
:104130007F222A7022786A701222AA7003221A80C3
:1041400008E7B9F1080F7FF416AF6278012AEFD1C2
:10415000E279042A7FF4F6AEA0792379000240EADE
:104160000360637940EA034040F00400FDF782FEFB
:1041700000287FF427AF04212046FFF781F8336839
:104180001A88002A3FF467ADE5E6B9F10B0F7FF618
:10419000F2AE6568D4F808902DBA99FA89F92846E4
:1041A00009EB0501FEF746FE002840F036837F222A
:1041B000312003213B681A7022785A703268987057
:1041C0001180C7E600236D46B4F80100009340BAA1
:1041D00080B2A0F5007CBCF5007FC5E90133C5E9DC
:1041E000033394F801E0A278C0F00A81A0F5714091
:1041F00084380C2808D8DFE800F07007665E0707EF
:1042000007075607070712007F2031253B683268F1
:104210000321187020789D70587011801BE5294685
:104220000120FDF785FE01A980460220FDF780FEF2
:1042300002A948EA00080320FDF77AFE1FFA88F871
:1042400048EA000803A90420FDF772FE1FFA88F867
:1042500048EA000804A90520FDF76AFE1FFA88F85D
:1042600048EA0008294611221FFA88F50DF11700C7
:1042700000F0A8FB002DC7D114252378A278403385
:104280008DF8143063788DF815303B688DF8162062
:10429000E81805AA12F8011B03F8011B8342F9D1A3
:1042A00033681D80D7E40C2251490DF1170000F04E
:1042B00089FB0F25E1E704224E490DF1170000F0BC
:1042C00081FB0725D9E70B7804258DF81730622389
:1042D0008DF815E08DF81430D7E70C2246490DF122
:1042E000170000F06FFB20230922444909A88DF82C
:1042F0002330192500F066FBBFE7A9F102091FFA78
:1043000089FA19F007097FF413AED8F80820D8F815
:10431000041052448A423FF60BAE98F80C106278B3
:104320008A4200F06A817F2173208EE4B9F1030F85
:1043300000F0F4807F2213212A70C7E44FF2841129
:1043400050BA80B220F0080C8C453FF401AD49F220
:10435000F1018A4200F00881B9F1070F7FF4CBAC7C
:10436000D4F8031009BAFDF7CBFD03463A6831686B
:10437000002B00F032817F207225032310702078FB
:10438000957050700B8066E4B9F1030FD2D1002311
:1043900005A8EB70FDF796FD8046002860D1059BCF
:1043A000002B00F07B8182466D4614E09DF80320CF
:1043B0003B6803F80920BDF8022003F82A20009A80
:1043C0004B44120A9A70009ADA70059B09F10409AD
:1043D000534540F2F38050462946FDF72FFD0AF180
:1043E000010A0028E2D04FF00108EEE7A82B0320D5
:1043F0009005FA0B50FA000838FA000844FA000851
:104400002946FDF795FD002868D07F2131203B68C3
:1044100032681970217898705970A2F800901AE4E7
:1044200004234946204653730FB0BDE8F04FFEF712
:1044300027BFB2F57F4F00F082804FF601708242B5
:104440007FF480ADB9F1040F7FF495AD6278012A55
:104450007FF46EAE0A78022A00F0FA817E2242E6EC
:104460007F223B681A70722221789A7059703368E3
:10447000A3F800902FE498F80C1062788A427FF439
:1044800052AF013288F80C20227840322A706178CD
:10449000002205F8011FD8F808100EE0D8F8000037
:1044A0000132415CB2F57F6F05F8011FD8F80810A2
:1044B00001F10101C8F8081004D0D8F804008842BE
:1044C000ECD892B2D8E90110023288421A80FFF487
:1044D000C2AB032388F80D30FFF7BDBB23786278A9
:1044E00040338DF81430A37829468DF815200DF14E
:1044F000170004228DF8163000F064FA3A680DF1C6
:104500001301531E063211F8010F03F8010F9A42EE
:10451000F9D1072233681A80FFF79DBB002305A855
:10452000EB70FDF7CFFC00289AD1059B3A685371D8
:104530001B0A1371062233681A80FFF7CCBBB9F14E
:10454000040F7FF418AD6278012A7FF4F1AD0A7888
:10455000022A83D10A7F022A40F04A81FEF720FD19
:1045600000287FF42FAD06E6B9F1140F7FF4C3AB3A
:10457000D4F803100120FDF7C3FCD4F8071005465A
:104580004046FDF7BDFC0346D4F80B1003201D4345
:10459000FDF7B6FC0346D4F80F100420ADB21D435E
:1045A000FDF7AEFC0346E17C0520ADB21D43FDF7EF
:1045B000A7FCADB245EA00039BB2D7E63268B8F17A
:1045C000000F6BD07F213B68722019700321257882
:1045D00098705D701180FFF77EBB23786078403360
:1045E0008DF8143003238DF81500BDF81450A07811
:1045F000158090700B80FFF72EBB013288F80C20DD
:1046000002F0B0FABAF1000F00F0FB804D46A1466F
:10461000AB4699F8043099F805201B0403EB0263BC
:1046200099F8032099F8081003EB022399F8092060
:10463000090401EB026199F80220D8F8080013443C
:104640001BEB030299F8073009F1080901EB03237A
:10465000D8F80010084419F8021C00F580200B441B
:10466000FEF716FD40EA0503DDB2D8F8083008333E
:10467000C8F80830A9EB04035345CAD302F086FA00
:10468000D8E901329A4202D3032388F80D303B68FF
:104690003268002D6ED07F207225B9E532689B000C
:1046A00003331380FFF717BB904613E401232278EE
:1046B000396840320A70E25CCA5401339AB29145BB
:1046C000F9D8F8E490469CFA8CF5284608EB0501E9
:1046D000FEF7B0FB00283FF497AD23783A684033EB
:1046E0001370AD1A02EB080302E0A95C02F8011F87
:1046F0009A42FAD1326808F101031380FFF7ABBA8E
:10470000BFF34F8FBFF36F8F631D984747E4097F57
:10471000022956D115BA284605EB0801FEF77AFBA7
:1047200000283FF471ADB8F1020F46D0B8F1040F84
:104730003FD0B8F1080F35D06FF00603E21D1B1B08
:1047400002E012F8011F297099184145F9D351462A
:10475000204669E6FCF7C2FE0A2008F04FFB2278EB
:104760003B6840321A7062785A70A2789A70E27888
:10477000DA70A0E4022023783A6864783168403324
:10478000137054700880FFF766BA0A7F022A2FD18F
:104790006278012A7FF4CCACFEF7CEFB00287FF4D0
:1047A00011ACE8E4A168E0680BBA02BAC5E90023DD
:1047B000CDE7A3681BBA2B60C9E723895BBA2B80BE
:1047C000C5E73322FFF794BBFEF782FB90B9FEF7F3
:1047D0008BFB326800283FF4CEAC7F20722503218A
:1047E0003B68187020789D7058701180FFF7B2BB3D
:1047F000332278E40BF0C0F8EBE71E490A70FFF7AC
:10480000F9BB02F0C3F9D8E901329A42B2D3554656
:104810003AE719490A70FFF7EDBB49462846FDF70C
:10482000D7F8082503462278396840320A70627842
:104830004A70A2788A70E278C871CA70000E326835
:104840000871180CEB4048718B711580FFF782BB23
:104850000A7F022ACCD1094A527B042A9CD07F22AB
:104860002A7022786A702222AA7003221A80FFF727
:1048700071BB00BFA82B032076000320DC2B032094
:1048800070B400242D4D039E2B602D4D34802E607E
:104890002C4D8C461C4611466860B2B19CF8002035
:1048A0000F2A1FD9272A23D8103A172A2AD8DFE837
:1048B00002F03834292930292929292929292929A7
:1048C0002929292929292929292C8CF800107F2216
:1048D0001321032322709CF80020A17062703380A2
:1048E00070BC70473346224670BC6046FDF740BF3F
:1048F000852A1ED0872A18D03E2A03D170BC604674
:10490000FEF764BD7F221121E3E7604670BCFEF72D
:10491000D7BC604670BCFEF7AFBF604670BCFEF708
:104920001BBE604670BCFEF77DBD604670BCFEF7E6
:1049300099BE604670BCFEF757BE00BFD42B032063
:10494000D02B0320B02B032038B5049A12884AB12B
:104950001978512907D0C72904D1012A02D05B78E0
:10496000032B08D038BD4FF4FA7008F047FABDE8C1
:10497000384001F049BA4FF4FA7008F03FFA0123C9
:10498000084C25782370FCF76FFE4FF47A7008F01E
:1049900035FA054BEDB21878FCF76CFEFCF79EFD7E
:1049A000257038BD76000320D82B0320014BC0B200
:1049B000185C704728000108704700BF0AB10AF070
:1049C000EBBE70474AB1013A4B1E0138114413F84F
:1049D000012F8B4200F8012FF9D1704708B50378F9
:1049E0002BB10130FBF72CFC013080B208BD18461A
:1049F00008BD00BF4FF47A7202FB00F0024BA3FB2C
:104A00000030800908F0FAB9D34D62100022014647
:104A1000034B1046C3E903221A7059601A8170478C
:104A2000F42B0320084B1A785AB14EF660215A68CD
:104A3000821A8A4205D90022C3E9032258601A70FB
:104A40001A810020704700BFF42B032038B5D0B284
:104A50000C46FFF7B1FF074DE86002E00A2008F0BE
:104A6000CDF921462846FCF771FE0028F6D1012039
:104A700038BD00BFA803032030B51C46D0E9003282
:104A8000B2F1804F83B002D0002003B030BD0D469C
:104A9000C3F30741EF29F7D1C3F307215A29F3D113
:104AA000D9B23F2906D040F255500021194BC3E935
:104AB0000001E9E7190289B203F0E0530B4343F424
:104AC0006F03144943F05A03C068C1E90032FFF78D
:104AD0006DFFADF806000028D6D04FF0FF3302225C
:104AE00020680DF1060108F05BFE84464FF0FF33AD
:104AF00020682946BDF80620644608F051FEBDF83E
:104B0000063004440233A34201D0FCF761FA0120CD
:104B1000BBE700BFA80303202DE9F041069EDFF8A4
:104B20005481504F504D3E606860C8F8003042B12B
:104B30000C46FF2119702178FF290ED02878012812
:104B400001D0BDE8F081F53909291BD8DFE801F073
:104B5000203C1A1A1A2B1A5A4452012A01D06278A0
:104B6000DAB9002201214FF4807408203F4FC5E9D3
:104B700003222A812970C3F80170A3F80540D97176
:104B80003080DEE742F2FE01022219803280D8E74F
:104B9000012A1BD0617807293FD942F2FE21022267
:104BA00019803280CDE7012A10D06278002AF4D132
:104BB0004FF080600821A3F80520DA712C4AC3F871
:104BC000010031802A61BCE7082A20D042F2FE11A0
:104BD000022219803280B4E7002159702A7A062017
:104BE000013A18BF01221201D970197159719A70D6
:104BF0003080A6E700230122C5E903332B702B8107
:104C000032809EE7FE2102221980328099E701223C
:104C100063681BBA2B61328093E728690144FEF771
:104C200009F9012808D042F2FE200222D8F800102B
:104C30003B6808801A8084E7FF23D8F800000370DF
:104C4000617859B100232A6912780133DBB2C2546A
:104C50002A6901322A6161789942F5D83B680131AD
:104C600019806EE7EC2B0320F42B032000000808CA
:104C700038000108F02B032010B50F4B82B0186EDE
:104C8000002240F0010018661C6E072104F00104A8
:104C90000094009C9C6D6FF0010044F080549C6572
:104CA0009B6D03F080530193019B01F051F802B01A
:104CB000BDE8104003F016BF0010024070B500219F
:104CC0000446ACB0942207A8CDE90211CDE9041145
:104CD00006910AF061FD324B22689A4201D02CB055
:104CE00070BD03234FF480424FF08051CDE907237C
:104CF0000993182211232791CDE90A2302210822C2
:104D00004FF0807307A8CDE90D230C9104F0C6FD88
:104D100000283BD1234B0026DA6C02A942F4005252
:104D2000DA64DA6C204D02F400520092009ADA6CD8
:104D300042F00102DA64DB6C322203F001030193DA
:104D4000032301981948CDE90223049602F0EEF9F5
:104D500080224FF480730521C5E903626B614FF433
:104D600080622023C5E9011611492846C5E90623BA
:104D70002E62296001F0FCF870B910210A4801F098
:104D8000A9FA30B92565AC622CB070BDFCF720F9EA
:104D9000C0E7FCF71DF9F5E7FCF71AF9EDE700BFEE
:104DA0000080024200100240B829032000000242A5
:104DB00008040240094B02689A4200D07047A3F5EC
:104DC00000539A6C82B042F480529A649B6C03F454
:104DD00080530193019B02B0704700BF0030024036
:104DE00010B500210446ACB0942207A8CDE9021109
:104DF000CDE9041106910AF0CFFC274B22689A42B4
:104E000001D02CB010BD4FF000724FF0807307A896
:104E10000792219304F042FD002832D19FED1A6BD6
:104E20009FED1B7B09241D4B02A9DA6D1C4842F43F
:104E30000072DA65DA6D02F400720092009ADA6CA0
:104E400042F00202DA64DB6C8DED026B03F00203C8
:104E500001938DED047B019B069402F067F900221B
:104E60000521272000F074FF272000F0ADFF00226D
:104E70000521282000F06CFF282000F0A5FF2CB0B1
:104E800010BDFCF7A5F8C9E7000300000200000010
:104E9000000000000000000000A4004000100240DC
:104EA0000004024208B502680A4B9A4200D008BDCD
:104EB000094A4FF44071D36D084823F40073D36559
:104EC00002F03AFA272000F08DFFBDE808402820C4
:104ED00000F088BF00A4004000100240000402421D
:104EE00010B50446A6B09422002101A80AF054FC93
:104EF000114B22689A4201D026B010BD4FF4802396
:104F000001A8019304F0CAFC98B90C4B0022D86C9C
:104F1000052140F48020D864DB6C5E2003F48023FC
:104F20000093009B00F014FF5E2000F04DFF26B0C0
:104F300010BDFCF74DF8E8E700080C4200100240F5
:104F400000B5036887B0B3F1804F0ED0304A93426A
:104F50003BD0304A934216D02F4A934228D02F4A52
:104F6000934247D007B05DF804FB03F504339A6D14
:104F700042F001029A659B6D03F001030193019BCE
:104F800007B05DF804FB264B0022986D052140F028
:104F9000200098659B6D322003F020030393039B50
:104FA00000F0D6FE322007B05DF804EB00F00CBF35
:104FB0001B4B1A6E42F400321A661B6E03F4003368
:104FC0000493049B07B05DF804FB154B0022986D19
:104FD000052140F0100098659B6D312003F010030F
:104FE0000293029B00F0B4FE312007B05DF804EBA1
:104FF00000F0EABE0A4B1A6E42F480221A661B6E5B
:1050000003F480230593059B07B05DF804FB00BF04
:1050100000100040001400400044014000480140DE
:10502000001002400000000010B500210446AEB0A0
:10503000942209A8CDE90411CDE9061108910AF0DE
:10504000ABFB2D4B22689A4201D02EB010BD4FF41D
:10505000005309A8099304F021FC00283FD19FEDDB
:10506000226B9FED237B0A22244C2548E36C04A984
:1050700043F00103E364E36C8DED046B03F0010383
:105080000193019B8DED067B089202F04FF8E36DD2
:1050900043F40013E365E36D03F400130293029BF2
:1050A000A36DDB0018D4A36D43F08053A365A36DFB
:1050B00003F080530393039B03F00CFDA36D23F0D7
:1050C0008053A36500220521492000F041FE4920BC
:1050D00000F07AFE2EB010BD03F0FCFCF2E7FBF707
:1050E00077FFBCE7AFF3008000180000020000006B
:1050F000000000000000000000D40040001002404A
:105100000000024210B5014688B000222A2000F0BB
:105110001FFE2A2000F058FE154B01A91A6E03A8A5
:1051200042F400621A661B6E124C03F40063029391
:10513000029B04F0ABFA04F091FA0346002140F21E
:10514000E7300D4A2161A2FB0323A1609B0C0B49B0
:10515000E060013B20462160636005F07FFA10B1FA
:10516000012008B010BD204605F088F808B010BD39
:1051700000100240082C032083DE1B43002C01405A
:10518000FEE700BFFEE700BFFEE700BFFEE700BF8F
:10519000FEE700BF704700BF014801F029B800BF1B
:1051A00068270320014801F023B800BF002703202F
:1051B000014801F00FBC00BF30290320014801F075
:1051C00009BC00BF30290320014805F047B900BFE2
:1051D000082C0320014805F041B900BF68260320D0
:1051E000014805F03BB900BF1C260320014802F02E
:1051F00051B900BFDC280320014802F0F5BA00BF16
:10520000DC280320014804F023BF00BFD02703207F
:10521000014805F0EDBA00BF48280320014802F01C
:105220001DBD00BFA8220320014800F0E1BF00BF60
:10523000B8290320014804F03BBE00BF34280320F6
:10524000034AD2F8883043F47003C2F888307047BC
:1052500000ED00E0254B25491A682548120754BF88
:10526000D3F894301B688A6858BFC3F3032302F055
:105270000C0248BFC3F30313082A50F823300FD0A1
:105280000C2A0FD01B49042A08BF0B46174A1A489C
:1052900092681A49C2F30312825CD3400B607047D4
:1052A000174BF3E7C868CA6800F00301C2F30312A2
:1052B000022902F1010211D0032913D0B3FBF2F14C
:1052C0000A4AD368D268C3F3062301FB03F3C2F38F
:1052D000416201325200B3FBF2F3D7E70549B1FB5B
:1052E000F2F1EDE70649B1FBF2F1E9E70010024007
:1052F000400001080024F40088000108CC030320CA
:1053000080969800DFF834D0FFF79AFF002103E081
:105310000B4B5B58435004310A480B4B42189A42DE
:10532000F6D30A4A02E0002342F8043B084B9A42B3
:10533000F9D30AF097FAFBF7E9FAFEE70000042038
:10534000BC000108000003203805032038050320B5
:10535000A0590320FEE70000042010B500F0E6FC91
:10536000FFF778FF0020FFF7CDFE10B101242046A3
:1053700010BD0446FFF780FC204610BD034A044BD5
:1053800011681B780B441360704700BF542C032036
:10539000D0030320014B1868704700BF542C032032
:1053A000002330B583B00193002800F09880856D0C
:1053B0000446002D00F09880226893689D0005D572
:1053C000936823F0204323F03F0393609368D80051
:1053D00019D45A4B5A481B6891689B09A0FB0303D8
:1053E00021F010419B0921F03F0101335B0041F0A6
:1053F000805191600193019B2BB1019B013B019373
:10540000019B002BF9D19368D9006BD40120A36DC7
:1054100043F01003A365E36D0343E365936813F062
:10542000040FA36D57D1DB0655D4A36D23F481730C
:1054300043F00203A3659368DD0708D4414B9B68E2
:1054400013F0010F404B9B6801D1D9075FD5E56888
:10545000636B94F820102B43A568012943EA0503E8
:10546000657E43EA453343EA01434BD0A16A21B14B
:10547000E56A01F4707129430B43D568334929402B
:105480001943D16093681B0716D494F83030257EF9
:10549000D1685B0043EA8533E56C21F4804121F05B
:1054A00006012B430B43D36094F83830012B36D0E0
:1054B000136923F0010313612369012B1AD0136BC5
:1054C00023F00F031363A36D23F0030343F00103E1
:1054D000A36503B030BDA36D43F01003A3650120A5
:1054E00003B030BD002099E7FFF7E8FBE56584F8DD
:1054F000545061E7116BE36921F00F01013B0B434D
:105500001363E0E7616A013943EA4143AEE71049BA
:1055100065688B6823F47C132B438B6097E71169D4
:10552000E36B256C6FF38A012B430B43616C0B43D8
:10553000A16C0B4343F001031361BDE7CC030320CF
:10554000632D3E05008002420081024207C0F0FF49
:1055500000830242704700BF704700BF08B5806AF1
:10556000FFF7FAFF08BD00BF704700BF836A10B5A0
:105570009A6D12F0500F9A6D1DD1196842F40072A5
:105580009A650A6812F0080FCA681BD012F4406FBF
:105590000DD1CA6894040AD49A6D22F480729A6577
:1055A0009A6DD10403D49A6D42F001029A651846AF
:1055B000FFF7D0FF10BDD2060AD4BDE810401B6D26
:1055C000DB6B18479007E7D51846FFF7C3FFF1E7F5
:1055D0001846FFF7C9FF10BD806A08B5836D43F018
:1055E00040038365C36D43F00403C365FFF7BCFF4D
:1055F00008BD00BF0022F0B583B0019290F854209E
:10560000012A00F0F480034601201A6883F8540050
:105610009068400709D501209A6D42F020029A65F2
:10562000002283F8542003B0F0BD1F24486802F123
:10563000300500F01F0C4FEA901E08680EF00C0EAB
:10564000C0F3846000FA0CF004FA0CFC55F80E402C
:1056500024EA0C0C40EA0C0045F80E00906810F0AB
:10566000040F906835D1070733D4072408688D6884
:10567000C0F30456B440C00DB5F1004F6FEA040406
:1056800000F0040000F0008102F11407B5403E581C
:1056900034402C433C50506920F000405061D1E927
:1056A0000464042ED568086800F0BB80C5F3C1050A
:1056B0006D0002F1600757F826C0AC40BA4D00F00B
:1056C000F8400CEA050505432C4344F0004447F834
:1056D00026409068C60738D4CE680C68B348D2F824
:1056E000B05006F01807F840C4F31207204025EA2E
:1056F00007052843C2F8B000AD48864227D0AD491F
:105700000C4222D0AC48AD4986688D68ED0771D453
:10571000AB4DAD68EF073FF57EAFAA4D06F0E077E1
:10572000AC4200F06981A84DAC4200F08981A74DE0
:10573000AC420AD1740208D48A4206D1826822F0AF
:10574000E0723A4342F480028260002068E7002F52
:1057500053D094FAA4F0002800F0A080B0FA80F0B2
:10576000013000F01F00092840F2988094FAA4F05C
:10577000002800F08181B0FA80F00130800600F04E
:10578000F84094FAA4F5002D00F06A810126B5FADC
:1057900085F5354405F01F0506FA05F5284394FA0A
:1057A000A4F4002C00F05A81B4FA84F56FF01D06C1
:1057B0000324013505F01F0514FB0564240544F09E
:1057C000007407272043C50D8E6805F0040502F11B
:1057D000140C5CF80540C0F30450864007FA00F052
:1057E00024EA000030434CF805000C6887E70220EB
:1057F00003B0F0BD724A92680DE70120A40E013497
:1058000004F01F06A40604F0F845B040092E06EB8C
:10581000460440EA050066D91E3C240544F00074A5
:10582000CFE7146E146EC0F31205C4F38464002D28
:105830005BD1C0F38466B44200F08F80546E556E25
:1058400002F16004C5F3846502F1640CB54200F016
:10585000BF80A568A56804F10807C5F38465C0F397
:105860008466AE4200F08D80E568E56804F10C06C0
:10587000C5F38464C0F38460A0427FF42AAF30682B
:1058800020F00040306024E702F1140635582C4027
:105890003450506940F00040506100E794FAA4F0A1
:1058A000002800F0F180B0FA80F00130800600F0AE
:1058B000F84094FAA4F5002D00F0E4800126B5FA32
:1058C00085F5354405F01F0506FA05F5284394FAD9
:1058D000A4F4002C00F0D380B4FA84F4013404F072
:1058E0001F0404EB440424056BE790FAA0F51DB1F6
:1058F000B5FA85F5AC4230D0546E556E02F16004B5
:10590000C5F3846502F1640C90FAA0F604F108076F
:10591000BE46002E00F0AB80B6FA86F6AE4259D0F5
:105920003D683D68C5F3846590FAA0FC04F10C065F
:10593000B646BCF1000F00F09580BCFA8CFCAC457B
:1059400021D034683468C4F3846490FAA0F000284D
:105950003FF4BFAEB0FA80F08EE71446106E02F14D
:10596000640C20F0004044F8600F506E0868556EDB
:10597000C0F31206C5F38465002EC5D1C0F384665A
:1059800064E704F10C0E3868764620F00040386079
:10599000E0680868E468C0F31205C4F38464002D6D
:1059A0003FF468AFD1E700BF00F0FF03FFFF07003F
:1059B00000007F4000000880008302420080024215
:1059C00000810242000052C7000084CB0100008029
:1059D00004F1080EDCF80000774620F00040CCF817
:1059E0000000A0680868A568C0F31206C5F38465C6
:1059F000002E3FF434AF97E736023FF5A6AE8A4259
:105A00007FF4A3AE8268224922F0E0723A4342F466
:105A1000000282600A681F499209A1FB02129209E2
:105A2000013202EB420292000192019A002A3FF4F5
:105A30008CAE019A013A0192019A002AF9D184E6CA
:105A4000F5013FF582AE8A427FF47FAE826822F094
:105A5000E0723A4342F08072826076E60E4CB0E625
:105A600002259BE6E568E468C4F384646DE7A568F5
:105A7000A568C5F3846557E74FF0806081E64FF471
:105A800040149EE6022521E74FF0806011E700BF39
:105A9000CC030320632D3E05000050FE002370B5AB
:105AA00082B0019303689A68D2072CD49968284A77
:105AB000044611422AD19A68264922F0004222F077
:105AC0003F0242F001029A608B681B0229D4FFF763
:105AD00061FC236805461A68D60714D41E4E9A68DE
