:020000040800F2
:100000000000042045510008C14F0008C54F0008FA
:10001000C94F0008CD4F0008D14F00089551000886
:10002000000000000000000000000000B1F5000822
:10003000D54F00080000000041F50008E9CD000898
:1000400095510008955100089551000895510008F8
:1000500095510008955100089551000895510008E8
:1000600095510008955100089551000895510008D8
:1000700095510008955100089551000895510008C8
:1000800095510008955100089551000895510008B8
:1000900095510008955100089551000895510008A8
:1000A0009551000895510008955100089551000898
:1000B00095510008D94F0008E54F000895510008F8
:1000C0009551000895510008955100089551000878
:1000D000955100089551000895510008F14F00080E
:1000E000FD4F00089551000809500008955100087F
:1000F0009551000895510008955100089551000848
:10010000955100081550000821500008955100082D
:100110009551000895510008955100089551000827
:10012000955100082D5000083950000895510008DD
:100130004550000895510008955100089551000858
:10014000955100089551000851500008955100083C
:1001500095510008955100089551000895510008E7
:10016000955100085D500008955100089551000810
:1001700095510008000000009551000800000000A3
:1001800069500008955100089551000895510008E4
:1001900095510008955100089551000895510008A7
:1001A0009551000895510008955100089551000897
:1001B0009551000800000000755000089551000896
:1001C0009551000800000000955100089551000865
:1001D0009551000895510008955100089551000867
:1001E0009551000895510008955100089551000857
:0401F000000000000B
:1002000010B5054C237833B9044B13B10448AFF350
:1002100000800123237010BDC004032000000000F3
:1002200008FB000808B5034B1BB103490348AFF3B3
:10023000008008BD00000000C404032008FB000883
:10024000704700BF01F0D0BBF0B5274C274E9BB0E4
:100250004FF0FF332822694620680DF039FC28282A
:10026000F6D1039804F090FA0546002834D1029B99
:100270009BB929460AAA009801F0D0FB0EF02EF98E
:100280000AA90246684601F0A3FD0EF027F90AA963
:100290000246684601F096FBDAE7B3F1005FF4D15D
:1002A00040F20272009B9342EFD10822039900278B
:1002B000914228BF11460D46C6E90577B760019FF8
:1002C0000B490C48C6E90037F56004F069FA30467E
:1002D000084901F017FAD8E74FF0FF332A462068A3
:1002E0000AA90DF0F5FBC2E7142A0320F00403204D
:1002F0009005FA0BE40403202DE9F0431F4D9BB059
:10030000DFF8808001AE0AAF002404EBC401C4F121
:1003100024024FF0FF33286806EB81010DF0D8FB73
:100320000444232CF1D9049804F02EFA039B81464F
:10033000B3F1005F00D0A0B9114806F0C5F950B183
:100340003A4631460E4806F089F8D8F80C300133A9
:10035000C8F80C30D8E74FF0FF3201210EF052FB05
:10036000EAE70024A9EB040239194FF0FF332868AB
:100370000DF0AEFB04444C45F4D3DDE7102A032016
:10038000B82803200000032000B583B001F040FB33
:1003900001F088F81B4807F0E5F808B172B6FEE7EF
:1003A00003221949194805F0EFFA02F043FD00F065
:1003B0006FFE02F0F3FD0EF091F801F0FDFA144823
:1003C0000AF010F8134809F0D5FF134C0EF086F828
:1003D000019002F035FD019802F0E6FD019800F071
:1003E00059FE237813B9019801F06CFC019801F0D3
:1003F000EBFA019801F0E0FC0A2101A80DF0AEFF34
:10040000E4E700BF64280320242B0320A82903204D
:10041000F025032058250320760003202DE9F04124
:100420000026214DDFF88C80204FA6B012E00EF0A0
:100430002FFF98F8003033B10B9B23B164200CF0F0
:100440008BFD01F02FF80022022311463868009638
:100450000EF05AFB4FF0FF32012100200EF0D2FACD
:100460000EF008FF124806F085FA044606A9104867
:1004700006F0F0F802A90E4806F014F954222946B5
:1004800011A8AC600FF0E8FA094B1E66189BB3F593
:10049000003FCCD9AB689B02C9D5012385F8203039
:1004A0000B9301F0BFF8C2E700000320781D032082
:1004B000B8280320E004032000232DE9F04D84B088
:1004C0007D4EDFF80082DFF804B27C4DDFF800A239
:1004D0000DF10E078DF80B3013E028680DF002FACD
:1004E000012808D94FF0FF330222286803A90DF034
:1004F000EFFA022845D000214FF0FF3208460EF0F7
:1005000081FA30680DF0EEF90028E6D04FF0FF33A5
:10051000012230680DF10B010DF0DAFA0128DCD16F
:1005200030680DF0DFF90128D7D94FF0FF330222F0
:10053000306803A90DF0CCFA0228CED1BDF80C200A
:10054000B2F5805FC9D2002A40F0A5809DF80B402B
:10055000002C52D10DF0C2FF594B5A49BDF80C2066
:10056000009703F0A3F9BDF80E30002B79D10DF000
:10057000B5FF534B5349BDF80C20009704F0D2F857
:10058000ABE7BDF80C20B2F5805FB4D272B10024A5
:10059000121B08EB04014FF0FF3328680DF098FAA6
:1005A000BDF80C20204484B2A242F1D10DF096FF98
:1005B000434B4146BDF80C20009704F077F9BDF895
:1005C0000E30002B97D039464FF0FF330222DAF875
:1005D00000000DF095F9BDF80E204FF0FF333849BB
:1005E000DAF800000DF08CF9002202231146DBF846
:1005F000000000920EF088FA7DE70DF06FFF304B9F
:100600003049BDF80C20009704F028F8BDF80E30F2
:10061000002BACD02A490A787F2A08D1022BA6D910
:100620008B78A3F11102012AA1D9312B9FD0264842
:10063000394604464FF0FF33022200680DF060F99E
:10064000BDF80E204FF0FF331D4920680DF058F91A
:10065000002202231146DBF8000000920EF054FA4B
:1006600085E7194839464FF0FF33022200680DF044
:1006700047F91548BDF80E204FF0FF3310490068C8
:100680000DF03EF9022322462146DBF800000094DB
:100690000EF03AFA6BE70024121B4FF0FF3308EB21
:1006A000040130680DF014FABDF80C2023189CB238
:1006B000A242F1D14AE700BF240503201805032018
:1006C000507F0120508F012020050320B80A03200D
:1006D000140503202DE9F04FDFF8148185B0404E5A
:1006E000404DDFF810A108F11C0908F5805B02AF4E
:1006F00014E028680DF0F6F8012809D94FF0FF330F
:10070000022228680DF106010DF0E2F9022846D018
:1007100000214FF0FF3208460EF074F930680DF0FA
:10072000E1F80128E5D94FF0FF3302222E49306865
:100730000DF0CEF90228DCD1B8F81420B2F5805FB4
:10074000D7D272B10024121B09EB04014FF0FF3322
:1007500030680DF0BDF9B8F81420204484B2A242EC
:10076000F1D10DF0BBFE0146204801F0BBFE002890
:10077000BFD103E09BF823000CF0EEFB0DF0AEFEC2
:1007800002F0E4FF0128B4D030680DF0ABF8012886
:10079000AFD89AF80030002BECD10A20ECE7BDF876
:1007A0000620082AB4D86AB10024121B39194FF068
:1007B000FF3328680DF08CF9BDF80620204484B280
:1007C000A242F2D10DF08AFE3946BDF8062004F0AF
:1007D00027F801289CD00A200CF0BEFBF2E700BFEE
:1007E00020050320140503207CAF0120689F012011
:1007F00068AF01207600032001F0FAB801F0FCB8E0
:10080000002001F0FDB800BF0022024B02481A6030
:1008100009F0E8BDDC040320A4250320014B18687F
:10082000704700BFDC04032010B59EB048220021B1
:100830000CA80FF085F800234FF40070CDE90233C7
:10084000CDE90433CDE90733CDE9093301930693AC
:100850000B9308F0A5F908B172B6FEE70123022256
:10086000169311931993179210231D9207229FED4F
:100870001E7BCDE91A320324042312900CA81C938A
:100880008DED0C7B189408F0C7FB034608B172B6D7
:10089000FEE70F22214601A8CDE903330593029418
:1008A000019208F065FA034608B172B6FEE7104AF5
:1008B0004FF0005C916D4BF67F3441F08071916593
:1008C000926D069302F080720092089322222023F8
:1008D00006A8CDE90A230099CDF81CC0099409F0B7
:1008E000FBFA1EB010BD00BF29000000000001008F
:1008F00000100240F0B595B072B64FF00062A24B06
:100900009A60BFF34F8F62B6002404F045FCFFF7F6
:100910008BFFCDE90E44CDE910449C4D1294EB6C55
:100920004FF4604143F00403EB64EB6C224603F0A8
:1009300004030793079BEB6C954843F08003EB643B
:10094000EB6C012603F080030893089BEB6C43F0EB
:100950000103EB64EB6C03F001030993099BEB6C5F
:1009600043F00203EB64EB6C03F002030A930A9B6F
:1009700006F098FC224640F20111864806F092FCEF
:10098000224641F2E401844806F08CFC4FF46043B7
:100990007F480EA9CDE90E361094119406F0D4FAD2
:1009A00040F201137B480EA9CDE90E36CDE9104483
:1009B00006F0CAFA41F2E40377480EA9CDE90E36F3
:1009C000CDE9104406F0C0FA4FF4007371480EA947
:1009D000CDE90E34109606F0B7FA08236F480EA939
:1009E000CDE90E34109406F0AFFAAB6C052143F05C
:1009F0000403AB64AB6C224603F004030493049B32
:100A0000AB6C1D203343AB64AB6C33400593059B4B
:100A1000AB6C43F00203AB64AB6C03F002030693D0
:100A2000069B05F0A3F81D2005F0DAF82246052103
:100A30001E2005F09BF81E2005F0D2F82246052165
:100A4000502005F093F8502005F0CAF8204607F032
:100A500065F908B172B6FEE707F074F9034640B9CC
:100A60004F48504AC0E9002309F05EFA18B172B647
:100A7000FEE772B6FEE74C4A4C4B10704C4A4FF4FE
:100A800040711A60102299609A619A620F211322B4
:100A90003C2404275860D8609874D8631846C3E98A
:100AA0000D661E825E615E62DC61D9621A621F633E
:100AB00005F02AFB034650BB0BAD0B90CDE90E00B1
:100AC000CDE91000CDE91200C5E901004FF48070B6
:100AD0004FF4301C03214FF48052364CC4E90233EA
:100AE000C4E90A3384F8203084F83830324B20834C
:100AF0002046C4E90467C4F804C0E161626384F875
:100B00003060236004F06CFB18B172B6FEE772B679
:100B1000FEE70B902946204604F0B0FF08B172B6FC
:100B2000FEE706230F937F231193244B109013901D
:100B30000EA9204612970E9304F080FC08B172B6FD
:100B4000FEE71F4B20460E930C230EA90F9304F0D3
:100B500075FC08B172B6FEE71A4B20460E931223BD
:100B60000EA90F9304F06AFC034608B172B6FEE7C3
:100B70001548C0E905338380144B0662036005F015
:100B800061F828B372B6FEE700ED00E00010024005
:100B9000000802420000024200040242001C02421D
:100BA000BC27032000080C42E0040320B8280320DF
:100BB00000A40040A8290320008002424000201920
:100BC0000002B0250004002A1C2903200030024046
:100BD0000023EE2101225B48C0E90433C0E906335B
:100BE000816003625849594BC260C0E9001306F0A6
:100BF0005FFB014608B172B6FEE7524807F03AF8CB
:100C0000014608B172B6FEE74E4807F05DF80346AC
:100C100008B172B6FEE74E484E4AC37202604FF406
:100C2000027302228380C0F8072007F095F808B10C
:100C300072B6FEE741F63F76474C484ACDE90E00D2
:100C4000C4E901001090A06120462260E66009F02E
:100C5000B9FD034608B172B6FEE720460EA90E9311
:100C6000109309F0E1FD034608B172B6FEE73C4C73
:100C7000CDE90E331093A360A36142F20F73394A9A
:100C80002046C4E90023E66009F09CFD034608B154
:100C900072B6FEE720460EA90E93109309F0C4FD2C
:100CA000034608B172B6FEE74F264FF6FF742E4892
:100CB0002E4AC0E904338360836102604660C460E9
:100CC00009F080FD034608B172B6FEE72848C0E986
:100CD0000163C0E90343C0E90533264B036009F013
:100CE00071FD08B172B6FEE700234FF080414FF06E
:100CF000FF3221480B93C5E90133CDE90E33CDE92D
:100D00001033C0E901330160C2600361836109F0FF
:100D100059FD08B172B6FEE74FF4805316480EA98C
:100D20000E9309F09DFB034608B172B6FEE7294613
:100D300011480B930D9309F077FD0446F0B172B69C
:100D4000FEE700BF6428032000580040E49CD11057
:100D50003022032000D40040A425032000140040CA
:100D6000F0250320001000405825032000440140D6
:100D70000C250320004801403C2603206048224601
:100D80000121604B0090CDE9014446F206000CF0D1
:100D900051FD02465C4D5D4E00950121CDE90144B7
:100DA0005B4B326046F2060022460CF043FD594B85
:100DB000594A01210092CDE9014422461860574B5F
:100DC0004FF47A600CF036FD554D564B2246009399
:100DD0000121CDE90144544B28604FF47A600CF0B6
:100DE00029FD524B22460093514B0121CDE901448C
:100DF0001860504B4FF4A0400CF01CFD4E4B2246A7
:100E000000934E4B0121CDE9014418604C4B4FF447
:100E1000A0400CF00FFD4B4B186001F083F80DF073
:100E20005DFB3246484B4949009500F0ABFF48480E
:100E300002F0ECF8474800F0A5FD4748474A48490A
:100E400000F016FB0EA80E9401F062F820B90E9B7C
:100E500013B9444801F034F80BF0D4FF0021424AA2
:100E600042480CF01FF80446414B0021414A4248D9
:100E70001C600CF017F80446404B0021404A4148E2
:100E80001C600CF00FF80446354B00213E4A3F48E9
:100E90001C600CF007F804463D4B00213D4A3E48DB
:100EA0001C600BF0FFFF04462C4B00213B4A3C48E2
:100EB0001C600BF0F7FF0446244B0021394A3A48E6
:100EC0001C600BF0EFFF0446384B0021384A3948CC
:100ED0001C600BF0E7FF0446374B0021374A3848C7
:100EE0001C600BF0DFFF0446364B0021364A3748C2
:100EF0001C600BF0D7FF364B18600BF0A5FFFEE728
:100F0000DC050320481F0120B80503202405032029
:100F100040BF00202005032094050320A0AF00203F
:100F2000180503207005032000A000204C050320B5
:100F3000140503200050002028050320142A032054
:100F400000000020102A03201C050320680F032046
:100F5000BC2703201C290320B828032018140320D1
:100F6000781D0320040072015CFD000845020008A2
:100F70002C22032038FD0008490200082822032003
:100F800014FD0008F9020008F0FC000889030008BD
:100F9000C8180320CCFC00081D040008A8FC0008A9
:100FA000B904000884FC0008D5060008B80A03202C
:100FB00060FC0008F9070008080603203CFC000854
:100FC000FD0700080406032018FC000801080008BB
:100FD0000006032018B11021014800F015BD70472C
:100FE000589F0120704700BFE0B110B519B1012929
:100FF0000AD072B6FEE74FF0007310220B4906F0DC
:1010000031FA70B172B6FEE704460421084800F0D8
:10101000FDFC4FF0007304222046054906F0A2F9BA
:1010200008B910BD704772B6FEE700BF589F012097
:10103000549F012008B106F095BA704710B50446D8
:1010400006F016FE00B910BD2046BDE8104006F0BF
:1010500089BA00BF094A0368934206D0084A9342FE
:101060000AD0084A934205D07047074A13680133F3
:101070001360704700F0B0BC04F0A0B8001400404A
:10108000002C014000100040DC04032072B6FEE793
:10109000704700BF10B50E4C0E49208880B200F09A
:1010A00039F8A0880C4980B200F06EF8207B0B4A1A
:1010B00094F8201000F0D0F8A07D094900F00CF958
:1010C000608B084980B2BDE8104000F00BB900BF4A
:1010D00054000320DC02032064020320EC010320FF
:1010E00074010320FC0003208446002310B50C4645
:1010F00082B00DF1060002226146ADF8063003F021
:101100004FFBBDF80600012C98BFC0B240BA80B2B8
:1011100002B010BD034600B583B008465BBA022298
:101120000DF10601ADF8063003F03AFB03B000BD47
:101130008446002310B50C4682B00DF10600022251
:101140006146ADF8063003F02BFBBDF80600012C1C
:1011500098BFC0B240BA80B202B010BD844600232E
:1011600010B50C4682B00DF1060002226146ADF8C2
:10117000063003F015FBBDF80600012C98BFC0B285
:1011800040BA80B202B010BD034600B583B0084635
:101190005BBA02220DF10601ADF8063003F000FB48
:1011A00003B000BD8446002310B50C4682B00DF19B
:1011B000060002226146ADF8063003F0F1FABDF8F0
:1011C0000600012C98BFC0B240BA80B202B010BD78
:1011D0008446002310B50C4682B00DF106000222B1
:1011E0006146ADF8063003F0DBFABDF80600012CCD
:1011F00098BFC0B240BA80B202B010BD844600238E
:1012000010B50C4682B00DF1060002226146ADF821
:10121000063003F0C5FABDF80600012C98BFC0B235
:1012200040BA80B202B010BD8446002310B50C460F
:1012300082B00DF1060002226146ADF8063003F0DF
:10124000AFFABDF80600012C98BFC0B240BA80B218
:1012500002B010BD0078704770B515460E460446C2
:1012600082B028460822FF2103F096FA44EA0624B9
:10127000022228460DF10601ADF8064003F090FA6F
:1012800002B070BD002300B5012983B0ADF806306F
:1012900002D8184603B000BD014602220DF1060037
:1012A00003F07EFA9DF8060003B000BD002300B5F0
:1012B000012983B0ADF8063002D8184603B000BD4E
:1012C000014602220DF1060003F06AFABDF806009D
:1012D000000A03B000BD00BF087070470078704777
:1012E00000787047034600B583B008465BBA022217
:1012F0000DF10601ADF8063003F052FA03B000BD5F
:101300008446002310B50C4682B00DF1060002227F
:101310006146ADF8063003F043FABDF80600012C33
:1013200098BFC0B240BA80B202B010BD844600235C
:1013300010B50C4682B00DF1060002226146ADF8F0
:10134000063003F02DFABDF80600012C98BFC0B29C
:1013500040BA80B202B010BD007870470078704784
:10136000012994BF00780088704700BF007870475B
:101370002DE9F04F3A4B8346984283B007D8394B5A
:10138000984260D94FF028094FF4487609E0364971
:101390004FF02509B1FBFBF1C9B2192940F2EE2645
:1013A0005BD90124304B0134A4B2B3FBF4F1B1FB9F
:1013B000FBF1C9B21929F6D8B4F5806F3FD20120EC
:1013C0002A4BCDF804B01F6823186FF0004C4FF47F
:1013D0007A759B461FFA83FAA1F1020EBEEB510FFC
:1013E0004FEA51031ADD01F1FF385FFA88F805FB77
:1013F00003F2B2FBF1F2B21A002AB8BF52426245C0
:1014000009DA914507DB00209446A8EB0302D2B22B
:10141000FB617C613A6201337345E8DB124B1FFAD2
:101420008BF4B3FBFAF1019BB4F5806FB1FBF3F1E0
:101430000AF1010AC9B203D004F1010BCCE7012083
:1014400003B0BDE8F08F08494FF02B09B1FBFBF169
:10145000C9B2192940F26B36A3D80124AFE700BF07
:1014600000350C0020A10700005A6202082B03205F
:1014700038B50C46064D0749074B0A6028600749F6
:1014800001201C600BF076FF054B186038BD00BFD3
:10149000082B0320002B0320042B0320182A0320F1
:1014A000682A0320F0B5574E83B0306804F0C0FFBF
:1014B000306804F029FE002840F084800022524D5C
:1014C000402152482A71EA602A616A61AA61AA60D1
:1014D000EA6185F8202005F0E5FE306804F0A8FFF9
:1014E0000B2201233068C0E90D2304F00DFE002813
:1014F00040F0858000240222012340F2FF71C5E9FB
:101500000B23434FA9636C6202E001340B2C0ED015
:1015100037F8023B3F493068AC626B6304F0DEFE93
:101520000028F2D00134FFF7B1FD0B2CF0D10223DB
:101530004FF08042002001216B646FF06043C5E9E9
:101540000F20354A3068C5E9121234492B6504F082
:10155000C5FE08B1FFF79AFD00230222306811464C
:10156000009304F0E7FE002846D1306804F004FF41
:1015700000283ED100220121306805F0ABF8A8BB5D
:1015800000220621306805F0A5F860BB07224FF461
:10159000F051306805F09EF810BB072280213068BA
:1015A00005F098F8C8B900221D49306805F092F896
:1015B00080B900224FF46021306805F08BF820B923
:1015C00003B0F0BDFFF762FD78E703B0BDE8F0407F
:1015D000FFF75CBDFFF75AFDEBE7FFF757FDE2E7CA
:1015E000FFF754FDD9E7FFF751FDCFE7FFF74EFDB9
:1015F000C6E7FFF74BFDBDE7FFF748FDB5E7FFF78F
:1016000045FD77E7082B0320000003200004024279
:1016100080FD000824000320FECA77003C00032060
:1016200000407100014B186804F002BF082B032032
:10163000082824D8DFE800F0080C1014171A1D2021
:1016400005001448FFF794BE42F21070FFF790BEF9
:1016500044F62060FFF78CBE4CF25030FFF788BE96
:101660000D48FFF785BE0D48FFF782BE0C48FFF717
:101670007FBE0C48FFF77CBE0B48FFF779BE0B4AD4
:10168000A0F51C53103B934201D901207047FFF78E
:101690006FBE00BF40420F00A086010048E8010075
:1016A00090D0030020A1070000350C00301B0F0074
:1016B0000346054A1978002051615978D16199781B
:1016C0001162DB7893617047B82803200246024B11
:1016D00000209A61704700BFB8280320034600B578
:1016E000064A93F801E093F800C082F810E004493C
:1016F0009B7881F800C05374002000BDB8280320F7
:10170000E00403202DE9F047054682B0C0680F468B
:1017100003F03AF8AB68B3F1005F3ED0064682466C
:1017200000F12409264C4FF0FF3120680BF0E0FE59
:101730000128F8D1DFF89480D8F800000CF0BEF84A
:10174000484517D202251F4A13792B4313710023F2
:1017500020681A4619460BF071FD1B4A02231268D5
:1017600010680022114600920DF0CEF9284602B012
:10177000BDE8F08729464FF0FF332422D8F8000057
:101780000CF0BEF8054686B94D450CD00D4A012532
:10179000137943F008031371D9E74FF0000A4FF0B3
:1017A00024095646BEE70025D1E7524639464FF098
:1017B000FF33D8F800000CF0A3F80544E4E700BFBD
:1017C000682A032000000320042B0320102A032092
:1017D0002DE9F04700250C4682B0C9070646019561
:1017E00016D4A20707D50221314A137943F0010329
:1017F000137133681965630738D4019B2BB14FF01F
:10180000E0234FF08052C3F8042D02B0BDE8F0870A
:10181000DFF8A890DFF8988040214A46254B04F075
:101820007FFED8F81430D9F80C000133C8F8143012
:1018300002F0AAFFDFF888A00746DAF800000CF0F3
:101840003DF807F12803984224D349462822DAF8C4
:10185000000001AB0CF0EEF8002FC2D03A46DAF8E7
:101860000000144901AB0CF0E5F8BAE70424104B72
:1018700011499A69086801329A611A79002142F087
:1018800008021A71336800680DEB04021C650DF044
:101890005BFAB2E7D8F8183029460133C8F8183097
:1018A000054B01AA1B6818680DF04EFA99E700BFB6
:1018B00000000320C02A0320002B0320982A0320C5
:1018C000142A0320002110B50A4A0B4C1268236920
:1018D00082B01068013301AA236101910DF034FA3E
:1018E000019B2BB14FF0E0234FF08052C3F8042D41
:1018F00002B010BD042B032000000320002110B50E
:101900000A4A0B4C1268E36982B01068013301AADD
:10191000E36101910DF018FA019B2BB14FF0E02328
:101920004FF08052C3F8042D02B010BD002B0320ED
:101930000000032038B50C46104D294604F08AFEFD
:10194000A10303D5EB68A3B90D4A1360620309D55F
:101950002B690B4A012B13790CBF43F0040303F0EE
:10196000FB031371230303D50122054B83F82020C9
:1019700038BD4FF00042024B1A60E7E76C2A0320A3
:1019800000000320704700BF91B14FF0FF3210B448
:10199000084C014410F8013B5340DBB254F82330AB
:1019A000884283EA1222F5D1D0435DF8044B704798
:1019B0000846704798FD00080022014B1A607047E6
:1019C000102B0320704700BF024A136801331360D5
:1019D000704700BF102B0320024A136801331360C5
:1019E000704700BF0C2B032000200CF041BC00BF4F
:1019F00000200CF03DBC00BF00200CF039BC00BF43
:101A000000200CF035BC00BF704700BF704700BF1E
:101A10000022014B1A7070477600032000294AD03B
:101A200030B577280C4683B02DD8572800F2848033
:101A30001A2800F03981A0F124031F2B39D81F2B5D
:101A400037D8DFE813F00D013600360036003600D7
:101A50003600360036003600360036000601360005
:101A600036003600360036003600360036003600C6
:101A7000FF003600360036003600360036003600ED
:101A800036003600F800B0F5EA7F12D2B0F5DC7F00
:101A900012D2B0F5A87F00F00D8100F2FA809828EC
:101AA00000F09280A22804D11046FFF719FC844B65
:101AB000D87503B030BD7047A0F5DC731B2BF8D888
:101AC00001A151F823F000BFD51B0008B31A00088C
:101AD000B31A0008F11B0008B31A0008B31A000873
:101AE000B31A0008B31A0008B31A0008B31A0008A2
:101AF000B31A0008B31A0008B31A0008B31A000892
:101B0000B31A0008B31A0008B31A0008E31B000850
:101B1000B31A0008B31A0008B31A0008B31A000871
:101B2000B31A0008B31A0008B31A0008B31A000861
:101B3000B31A0008FF1B0008A0F158031F2BB8D8E8
:101B400001A151F823F000BF0D1C0008B31A0008D2
:101B5000B31A0008B31A0008B31A0008B31A000831
:101B6000B31A0008B31A0008B31A0008B31A000821
:101B7000291C0008B31A0008B31A0008B31A000899
:101B8000B31A0008B31A0008B31A0008B31A000801
:101B9000B31A0008B31A0008B31A00081B1C000887
:101BA000B31A0008B31A0008B31A0008B31A0008E1
:101BB000B31A0008B31A0008B31A0008B31A0008D1
:101BC000B31A00086F1C00081046FFF787FB3C4B58
:101BD00098756EE721461046FFF7C0FB384B988397
:101BE00067E721461046FFF7A1FB354B588260E7B7
:101BF00021461046FFF7BAFB314BD88359E72146FF
:101C00001046FFF7A9FB2E4B188252E721461046DB
:101C1000FFF7F4FA2A4B58814BE721461046FFF7AD
:101C200019FB274BD88144E721461046FFF7FCFA01
:101C3000234B18813DE721461046FFF7C9FA204B98
:101C4000988236E721461046FFF7ACFA1C4B988085
:101C50002FE721461046FFF781FA194BD88028E775
:101C600021461046FFF764FA154B188021E72146FC
:101C700010460192FFF706FB114D012C28733FF42B
:101C800018AF019A21461046FFF710FB85F8200097
:101C90000FE740F2A71398427FF40BAF1046FFF70F
:101CA0002FFB074B588304E71046FFF71DFA044B40
:101CB0005880FEE61046FFF753FB014B1883F8E609
:101CC000540003202C4B1B7883BB2DE9F0430646C0
:101CD0002A4DDFF8AC8083B005F1140755F8044BAA
:101CE000E36E626EF31A934204D2AF42F6D103B0B0
:101CF000BDE8F083B4F9723004EBE300002B00F18F
:101D0000240026DAB4F9741004F1240900294FEAFA
:101D1000E1010CDAD8F80030494623612046FFF78C
:101D2000F1FCA36EE6660133A366DEE77047484622
:101D3000FFF72AFE0190B4F9740004220028B8BF0E
:101D40000730C010243001A904FA80F002F028FD09
:101D5000E0E7B4F8683001A95BBA0222ADF80430BC
:101D600002F01EFDB4F9741004F1240900294FEAB1
:101D7000E101CFDBDBE700BF76000320980101081B
:101D80000000032038B50446084B094D1A60094B82
:101D9000049A29601A6000F04DF8204601F08AFC90
:101DA000204602F01DFD002038BD00BF182B032087
:101DB0001C2B0320142B032038B5054601F09AFC98
:101DC0000446284602F018FD2043C0B238BD00BFCB
:101DD00070B5154B82B01B6804460D46164601F0DF
:101DE000BFFC01280AD0114B3246294620461B6809
:101DF00002F02CFD01280BD002B070BD00220C4B6C
:101E000011461B681868022300920CF07DFEEAE779
:101E100000220749022309680868114600920CF065
:101E200073FE02B070BD00BF182B0320142B0320DB
:101E30001C2B032000B583B0102001A900F09EF8F0
:101E400008B903B000BD0021102000F07FF8003871
:101E500018BF012003B000BD00B583B0102001A958
:101E600000F08CF820B90146019820B903B000BDFC
:101E7000012003B000BD102000F068F8003818BF42
:101E8000012003B000BD00BF70B5002682B004463B
:101E90000D46102001A9019600F070F810B9019BC1
:101EA000A34202D8012002B070BD04F111002946FE
:101EB00080B200F063F8801B18BF012002B070BD33
:101EC000002210B5114B82B01B78019213B918464D
:101ED00002B010BD044601A9102000F04FF840B92F
:101EE00001981130FF2804D8214680B200F02EF866
:101EF00018B10123184602B010BD0199102001311C
:101F000000F024F8031E18BF0123E0E77700032048
:101F1000014608B5102000F031F8003818BF012044
:101F200008BD00BF10B504F027FD00200AF03AF804
:101F3000044618B904F034FD204610BD002009F015
:101F4000FFFB04F02DFD204610BD00BF38B5044650
:101F50000D4604F011FD204629460AF0CBFAC305D0
:101F6000044603D404F01CFD204638BD09F0C2FC31
:101F70000443A4B204F014FD204638BD09F01CBE91
:101F800084462DE9F8430CF50055104695F82720B6
:101F90000CF580540F461E46618AA38A22B300299D
:101FA0005BD1072B40F282803E2B68D94FF03E0870
:101FB0004FF040094246C3F3032343F0100303707C
:101FC000A38A0CF5805143701C31023002F0E8FB0B
:101FD0000122022387F80090A4F81280AA83637478
:101FE0000120A661BDE8F88379B307224FF0080805
:101FF0005B1A1FFA83F9AB8B914503F00F0343F093
:10200000200300F8013B638A03F5805303F11C03AE
:102010000CEB030125D902F0C3FB87F80080638A2B
:10202000AA8B013B9844A4F8128095F8223033B172
:10203000B2FBF3F103FB11230BB9022363740132EA
:10204000AA830120A661BDE8F883072B2ED94FF0A3
:1020500006084FF008094246ADE73F224FF040081E
:10206000C6E74A4602F09CFB032309F101023A70DD
:102070006374638AAA8B9944A4F81290DFE7017015
:10208000A38A0CF580514370A28A1C31023002F001
:1020900087FB01210322A38A02333B70A38A01201C
:1020A0006382A9836274A661BDE8F88300F8013BEE
:1020B0000CF58051A28A1C3102F072FB0121A38A27
:1020C00003220B44E9E700BF4FF4805270B50024AF
:1020D0000E4683180470C0F8024004738460C3F88D
:1020E00012409C61DC811C8200F5005305462146AC
:1020F000C3E907449E625C620D300DF021FC4FF491
:102100008052A8182146BDE870401C300DF018BC64
:10211000F0B583B0089D0446856011B394461278EB
:102120000846110903291CD8DFE801F00247722193
:10213000003B18BF012304F5005282F826302378B3
:1021400023B10621002382F8241023709CF800504C
:10215000082805F00F0500F2C2800121002D40F093
:10216000C780237B012B00F0978003B0F0BD04F5FE
:102170008057797C02F00F0204F500564B1E012AAD
:1021800086F82120DBB200F0F080022A00F0F48013
:10219000002A40F0E180012800F001819CF8013024
:1021A000022886F8223001D09CF80220022986F805
:1021B0002320D6D101237B74D3E7003B18BF012332
:1021C00004F5005686F82630237823B10622002332
:1021D00086F8242023700728C3D99CF800309CF887
:1021E000011003F00F020A4340F09080DCF8023047
:1021F0001BBA072BB5D9B3F5805F40F2D680022019
:102200000721B07786F8241022703223F27F49E04C
:102210002378012BA5D104F58057F98902F00F022C
:1022200001F00F039A4240F08F806688A3883A7CC1
:102230009B1B9BB2002A00F0A880551E1FFA85FE4A
:102240009E4580F0A58090428BD14A1C92B2EDB29F
:1022500006F10D00FA810CF101012A46204402F03A
:102260009FFA6388A2882B449BB29A42638000F055
:10227000998004F50056F27F002A3FF472AFFB8983
:10228000013B93FBF2F102FB1133002B7FF469AFAA
:10229000B37F43F0300305E004F50056B37FF27FCF
:1022A00043F03003002196F8200021738DF80200DE
:1022B0000320B46A8DF800308DF8012002F06AFA2C
:1022C000B26AE06096F826301046003B18BF012342
:1022D0005B0569469361FFF715FA03B0F0BD002D69
:1022E0007FF43FAF9CF801500221002D3FF439AF3D
:1022F000401A85423FF735AF2A46614404F10D008C
:1023000002F04EFA0223658023702AE71B0203F4D1
:1023100070630B43072B7FF624AF02210A46821A13
:10232000D5B204F58057A3802A466144387404F17D
:102330000D0002F035FA0122002165802270B1778C
:10234000FA813023F27FADE70421002304F5005227
:1023500082F82410237004E7012B3FF602AF052218
:10236000032386F825207B74FBE6012B3FF6F9AEAC
:102370000223BD617B74F4E6012B3FF6F2AE082226
:10238000032386F825207B74EBE6072B3FF6E9AEA6
:1023900098427FF6E6AE4A1C92B2DDB258E786F864
:1023A000222003E702232370DBE606210A46B6E774
:1023B0000378012B01D0002070478268064B891AF0
:1023C0009942F8DD0321002300F5005282F8241021
:1023D00003700020704700BF400D03002DE9F0415D
:1023E00000F5805514466A7C92B0561E012E05D920
:1023F000032A0DD0002012B0BDE8F081AB69384E41
:10240000CB1AB3420AD9022300F5005080F82530D8
:10241000002301206B7412B0BDE8F081012AE9D1DC
:1024200000F5005696F9237096F82320002F05DA60
:102430000F32D2B2082A8CBF7F2201229A42D9D809
:102440000B4602AA0DF10701FFF79AFD9DF80780E0
:10245000B8F1080F37D9B8F10C0F36D9B8F1100F11
:1024600035D9B8F1140F34D9B8F1180F33D9B8F100
:10247000200F32D9B8F1310F34BF0E270F2738465D
:1024800002F082F980450AD2A0EB0802013AD2B2EA
:1024900002AB0021013203EB08000DF051FAE760B6
:1024A00096F82730003B18BF01235B05A36102E0CB
:1024B000012002F089F9204602A9FFF723F900283C
:1024C000F6D16A7C94E74746D9E70927D7E70A2778
:1024D000D5E70B27D3E70C27D1E70D27CFE700BFC0
:1024E000400D030000F58052938AB3F5805F10D24F
:1024F000537C83B900F5005300204FF0010C50824B
:102500009883916193F8261083F8271082F811C000
:102510007047012070474FF0090C00F5005383F815
:1025200025C0E9E72DE9F043144602780646013A52
:102530001D4685B0092A11D8DFE812F01C001000F2
:102540000A008A01100010000A00100066010A004B
:10255000012900F08A817F22122101E07F221121CE
:10256000032322703278A17062702B80002005B0A6
:10257000BDE8F0830229EED14123237043786370D4
:102580009E2BE8D801A252F823F000BFE32A0008EE
:10259000C12A000857250008F9290008EF2900087A
:1025A000E5290008DB290008D12900085725000883
:1025B000572500085725000857250008BB290008A3
:1025C000AB290008A1290008A1290008812A0008D8
:1025D0007F29000857250008992A00085725000878
:1025E0008D2A0008572500085725000857250008A0
:1025F000572500085725000857250008552A0008C8
:102600005725000857250008352A0008752A0008B4
:102610007529000857250008572500085725000888
:10262000572500085725000857250008572500089A
:10263000572500085725000857250008572500088A
:10264000572500087F290008572500087F29000822
:102650007529000857250008412B0008352B000874
:10266000572500085725000857250008572500085A
:10267000572500085725000857250008292B000872
:10268000572500081D2B000857250008112B0008AE
:1026900057250008052B000875290008F92A0008AD
:1026A0007F290008EF2A00087F2900085725000825
:1026B000932900089329000857250008932900084A
:1026C00075290008752900085725000857250008B6
:1026D0000F2A00085725000857250008572500082D
:1026E000892900088929000857250008572500086E
:1026F00057250008572500085725000857250008CA
:10270000572500085725000857250008032A000808
:10271000572500086B2A00085F2A00085725000883
:102720005725000857250008572500085725000899
:10273000AD2A00085725000857250008572500082E
:102740005725000857250008572500085725000879
:102750005725000857250008572500085725000869
:102760005725000857250008572500085725000859
:102770005725000857250008572500085725000849
:10278000572500085725000857250008A12A0008EA
:102790005725000857250008572500085725000829
:1027A0005725000857250008192A00085725000852
:1027B0005725000857250008572500085725000809
:1027C00057250008892900085725000857250008C3
:1027D00057250008572500085725000857250008E9
:1027E00057250008572500085725000857250008D9
:1027F00057250008572500085725000857250008C9
:10280000292A00087529000802297FF4A4AE49236B
:102810002370437863700A2B3FF69DAE01A252F8F5
:1028200023F000BFC328000857250008E32800084C
:1028300057250008D12800085725000865290008F9
:102840005725000857250008572500084729000884
:1028500001297FF480AE0191FFF7FEFA019968BB70
:10286000337840332370298080E602A8FFF750FBBD
:1028700020BB029B5A1C52002A803278637040327F
:10288000DBB22270002B3FF471AE074604F102095F
:1028900004F103080CE0039B1A0E09F817201B0C27
:1028A0009DF8082008F817300137BA427FF65EAE6F
:1028B000384603A9FFF7E8FA0028ECD07F22102160
:1028C0004EE644F254020623C4F802202B804DE663
:1028D00001239E49A370E01C01F06EFF13232B809F
:1028E00044E614230120E61CA07031462B80FFF73C
:1028F00045FBE11D05460220FFF740FB034604F1BE
:102900000B0103201D43FFF739FB034604F10F01C0
:102910000420ADB21D43FFF731FB034604F1130160
:102920000520ADB245EA0304FFF728FBA4B244EA50
:1029300000039BB2002B3FF419AE11220021304658
:1029400001F02AFF12E60123E61CA37014220021E5
:10295000304601F021FF30467D4901F02DFF17235D
:102960002B8003E6782207237A49A271C4F802106B
:102970002B80FBE5042200232A806380F6E50322F6
:1029800000232A80A370F1E5032280232A80A3700C
:10299000ECE50322704B2A805B881B09A370E5E5F8
:1029A00003228A232A80A370E0E503226B4B2A804E
:1029B0009B8AC3F30723A370D8E50423674A2B80BF
:1029C0009388C3F34A13A3709388DB00E370CDE5CB
:1029D000032288232A80A370C8E503227E232A804D
:1029E000A370C3E5032274232A80A370BEE50322EB
:1029F0004C232A80A370B9E5042202232A80638035
:102A0000B4E50622564B2A80C4F80230AEE5032214
:102A100001232A80A370A9E507210023514A2980B8
:102A2000C4F80220A371A1E5062200232A80C4F87D
:102A300002309BE504232B800BF050FD4A4DA5FB93
:102A400000239B0BA3700BF049FDA5FB00539B09D2
:102A5000E3708BE503220A232A80A37086E5042213
:102A60004FF413432A80638080E503227D232A806C
:102A7000A3707BE506223D4B2A80C4F8023075E541
:102A800004224FF41C532A8063806FE504224FF424
:102A90007F432A80638069E503232B80A37065E56B
:102AA0000622334B2A80C4F802305FE50023092157
:102AB00040F269122980C4F80220E380237255E5B0
:102AC00003A8FFF725FA08B100230393002306218A
:102AD000039A298002F07F02A270E3702371637170
:102AE00044E50622234B2A80C4F802303EE5032247
:102AF00051232A80A37039E504224FF49C532A8085
:102B0000638033E504224BF635732A8063802DE51C
:102B10000622194B2A80C4F8023027E5042243F626
:102B20000B132A80638021E5042248F613232A80B0
:102B300063801BE50622114B2A80C4F8023015E59C
:102B4000032264232A80A37010E500BFC0FB0008A5
:102B5000D0FB0008011234567800032054000320F3
:102B600060800001010C9500D34D62108005B01506
:102B70000204000CBE1FA8137EDC8C018C92802303
:102B8000814204D900F17840B0F5802F01D30020B4
:102B9000704701F178410139B1F5802F2CBF002039
:102BA00001207047814208D9B0F1005F05D3044885
:102BB00081428CBF0020012070470020704700BF79
:102BC00000000420814211D9B0F1005F10D31A4BEC
:102BD000994219D9194B984208D9194881428CBF9A
:102BE000002001207047B0F1006F15D2002070471F
:102BF000144B98420AD8144B9842F4D91348814296
:102C00008CBF00200120704701207047104881428E
:102C10008CBF0020012070470E4B9942E6D80E4B26
:102C2000B3F8E030B3F5007FEED00C4881428CBFA2
:102C300000200120704700BF000004203F20024018
:102C400040210240FFFFF90BFFFFF80B0080F90B5A
:102C50000002FA0B000008080005FA0B0000040847
:102C600000B58BB001A804F083F80598AA3818BF06
:102C700001200BB000BD00BF00B58BB072B601A83B
:102C800004F076F804214FF40052079B019143F0C1
:102C90008063CDE9062303F06FFE18B162B6012010
:102CA0000BB000BD03F088FE0028F7D101A803F0A7
:102CB0003DFF10B903F0A2FEF0E703F091FE03F030
:102CC0006FFEEBE710B58AB003F056FE044603F042
:102CD00073FE044301A804F04BF804214FF4807202
:102CE0009DF81E30E4B2C3F3001383F001031B050B
:102CF000CDE90623019134B103F072FE03F050FEDA
:102D000001200AB010BD01A803F010FF0028F3D184
:102D100003F074FE044603F063FE044303F040FE38
:102D2000E4B22043C0B2003818BF01200AB010BD81
:102D300030B58BB003F020FE044601A804F018F86B
:102D4000002380220798022110F4801FCDE903326E
:102D500000930CBF02230123019101A8694602934D
:102D600004F09CF8054603F01BFE28432043C0B244
:102D7000003818BF01200BB030BD00BF70B503F0A4
:102D8000FBFD05460F4C104ED4E90023B3F1FF3F85
:102D900008BFB2F1FF3F04F5802107D0012003F006
:102DA00069FE002818BF45F00105EDB20834B442B1
:102DB000EAD103F0F5FD2843C0B2003818BF012066
:102DC00070BD00BF00E0030800000408002330B518
:102DD0008FB0009303F0D0FD0223044605A80193B1
:102DE00003F0C6FF0B9B042213F4801F4FF07C00FE
:102DF00014BF02230123694603900DEB02000492E5
:102E0000029304F04BF8054603F0CAFD054344EA7B
:102E10000500C0B2003818BF01200FB030BD00BFA0
:102E2000014608B5012003F025FE003818BF012037
:102E300008BD00BF0022014B1A607047202B032001
:102E4000514930B40A884AB1B2F57B6F68D24F4B12
:102E5000C2EB0232A3FB0232C2F3CF224C4C4B88AE
:102E600022804BB1B3F57B6F5DD2484AC3EB03338D
:102E7000A2FB0323C3F3CF23464D8A8863802B68CC
:102E8000B2F5506FA0EB03030FD30122642B227124
:102E900020D928604FF0000C94E807003E4B84F8DE
:102EA00008C003C330BC1A807047B2F5406F17D218
:102EB000B2F5306F3AD2B2F5206F21D2B2F5E06FA1
:102EC00048D2B2F5807F4DD94FF0000C642B84F8C6
:102ED00004C039D84FF0000C84F808C030BC7047EB
:102EE0000322642B2271F5D92B4B28601B79012B0F
:102EF000D0D16379062B01D8013BDBB26371C9E7FE
:102F00000522642B2271E5D9234B28601B79012B04
:102F1000C0D1E38883F4807323F0FF03E380B9E733
:102F200040F6FF729AE740F6FF73A5E70422642B90
:102F30002271CFD9184B28601B79012BAAD1A37914
:102F400083F00103E380A5E7134B28601B79012B75
:102F5000A0D1A1E70622642B4FF0010C2271BBD94E
:102F6000286099E70222642B2271B3D90A4B2860AA
:102F70001B79012B8ED163799A1FD2B2F82A84BFB4
:102F80000133DBB2637185E7242B0320BFBF8C8242
:102F900078000320202B0320840003200022014B13
:102FA0001A7070472A2B0320154B164A1B7811887C
:102FB000B2F802C0507963B9134B1980A3F804C06A
:102FC0001873107A1179D288987583F820105A8373
:102FD00070471F290C4B08D91980A3F804C000289A
:102FE000EED1D989C9B21973EBE7BCF11F0FF3D841
:102FF000598889B21980D98889B29980EFE700BFD2
:103000002A2B03207800032054000320014B186072
:10301000704700BF2C2B0320704700BF00B5044B46
:1030200083B0186801A907F065F8019803B000BDE6
:103030002C2B03200D4B02781B68403201291A709B
:103040000FD900B5A1F1020E10FA8EFE024610F85B
:1030500001CF724503F801CFF8D1054B1B681980E9
:1030600000BD034B1B681980704700BF542B032021
:10307000502B032070B50129044682B00BD9457846
:1030800005F07F05012D14D0022D02D07F201225DE
:1030900003E006292CD07F2013250321344B354A29
:1030A0001B681268187020789D705870118002B0EB
:1030B00070BD40F26713ADF80030FFF7AFFF2E4A46
:1030C0002E4B4240C3E903021D7794F9013000BA48
:1030D000002BCDF80200EADB0621254B254A1B68B0
:1030E0000098BDF80440126818609C801180DEE7EB
:1030F000224B9A69042A02D97F203625CDE75868E9
:103100005969411A092902D87F203725C5E7197F57
:10311000012902D07F202425BFE7D4F802101E69C0
:1031200009BA8E4215D04FF0000E4FF07F0C586157
:103130003525032001329A610D4A0E49126883F841
:103140001CE082F800C023780968537095700880ED
:10315000ADE71D7794F90130002BA8DB40F2672121
:10316000034A044B12681B6811801D809FE700BF53
:10317000542B0320502B032078563412302B03207D
:10318000022910B510D04FF07F0E4FF0130C032121
:103190000F4B104A1B68126883F800E0007883F830
:1031A00002C05870118010BD437833B1802BFAD023
:1031B0004FF07F0E4FF0120CE9E7054A03781268D2
:1031C00040331370034C407823685070198010BD51
:1031D000542B0320502B0320022930B510D04FF080
:1031E0007F0E4FF0130C0321424B434A1B681268B9
:1031F00083F800E0007883F802C05870118030BD79
:10320000437803F07F03022B2FD0032B1BD0012B1D
:103210003ED10022394C3A4D23703A4B2A705A73F2
:10322000C4E90322C4E90522227790F901304278EB
:10323000002BE4DB50242F4B2F481B6800685A708A
:103240001C70018030BD304A928A92B2B2F5805F24
:1032500047D37F258824274A2749126809681570B3
:103260000078947050700B8030BD274A928A92B2D9
:10327000B2F5805F1BD37F25222403211D4B1E4AFC
:103280001B6812681D7000789C705870118030BDEA
:103290004FF07F0C12240321164B174A1B6812684B
:1032A00083F800C000789C705870118030BD0022F7
:1032B0001249144CC1E90322C1E90522104D627381
:1032C0000A772A7090F901200B70002A417896DB6A
:1032D0005024084A0848126800685170147003802E
:1032E00030BD0022054C074D2370054B6A731A70E0
:1032F00096E700BF542B0320502B0320302B0320D4
:10330000582B03205C2B032054000320204B214A20
:10331000022910B51B6812680CD04FF07F0E4FF0D9
:10332000130C032183F800E0007883F802C0587082
:10333000118010BD184C94F800C0BCF1010F11D0E1
:1033400090F801C00CF07F0CBCF1010F12D04FF0CF
:103350007F0C1224032183F800C000789C70587001
:10336000118010BD7F210324197000789970587066
:10337000148010BD047840341C7044785C70118057
:1033800090F90130002BD4DABDE8104002F048BCBF
:10339000542B0320502B0320302B0320022910B57F
:1033A00010D04FF07F0E4FF0130C0321184B194A29
:1033B0001B68126883F800E0007883F802C0587038
:1033C000118010BD427802F07F03012B13D0022B35
:1033D00004D04FF07F0E4FF0120CE6E71206F0D447
:1033E0000B490278096840320A700A4C407822681A
:1033F0004870138010BD1406E3D4054A03781268A0
:1034000040331370034C407823685070198010BD0E
:10341000542B0320502B0320012970B51FD942786B
:1034200002F07F03012B10D0032B1CD04FF07F0C38
:1034300012240321394B3A4A1B68126883F800C0F2
:1034400000789C705870118070BD02292AD0837852
:10345000103B032B51D8DFE803F04C4A444E4FF0A9
:103460007F0C1324E5E72F4C217869B1120626D48E
:1034700002212A4A0378126840331370284C40789E
:1034800023685070198070BD4FF07F0C2224234AAE
:1034900023491268096882F800C00078947050705F
:1034A0000B8070BD7F25132403211C4B1C4A1B6815
:1034B00012681D7000789C705870118070BD0123D7
:1034C000194D2E782B70FEF7ADF84FF47A7009F095
:1034D00043FDF6B22078FEF7ABF8FDF7E3FF2E7060
:1034E00070BD36230F490B701306C1D570BD35234F
:1034F000F8E73423F6E73823F4E77F220026312467
:103500000321064B074D1B682E701A70044A007881
:10351000126858709C70118070BD00BF542B03203E
:10352000502B0320582B03207600032030B543781E
:10353000044685B013B98378442B0FD07F204FF019
:10354000310C03213C4B3D4A1B68126818702078EF
:1035500083F802C05870118005B030BD0B2903D02C
:103560007F204FF0130CECE7354B1978022903D07C
:103570004FF07F0C7F20E4E71B7F022B11D1314DF0
:103580006B7B13F0FB030FD07F20242503212A4BF4
:103590002A4A1B681268187020789D705870118034
:1035A000DAE74FF0330CE5E7D0F80300AB60012316
:1035B0002B73D4F8073000BA1BBAC1186B600192A4
:1035C0002860FFF7DDFA1C4B19681C4BD3F800C0CC
:1035D00040B36B68019A13F0070F0AD07F23702065
:1035E0000B70032394F800E0887081F801E0ACF8D8
:1035F000003023786A734FF20F04202540338DF892
:103600000C3003AA4B1EC81C8DF80D50ADF80E40AF
:1036100012F8011B03F8011F8342F9D10423ACF80F
:10362000003099E77F22312003230A7022788870C6
:103630004A70ACF800308FE7542B0320502B032046
:10364000302B03205C2B0320042910B504460ED038
:103650007F204FF0130C0321144B154A1B6812688E
:103660001870207883F802C05870118010BD43781C
:10367000FF2B03D07F204FF0310CECE78378FF2B3A
:10368000F8D1C378FF2BF5D1FEF7E6FB074B084ACC
:103690001B68126820B17F204FF0720C0321DFE716
:1036A0000120217840311970108010BD542B032067
:1036B000502B032038B500240122094B09490A4D3B
:1036C0004C73586009490A48C3E90344C3E90544F7
:1036D0002C701A701C77FEF7F7FC204638BD00BF2F
:1036E000302B03205C2B0320582B03209000032059
:1036F000689F0120114B01461A78032A02D0104816
:10370000FEF756BE41F288305A688A1A8242F6D9CC
:1037100000224FF0010C10B40A480B4C4273227087
:1037200083F800C01A7706485DF8044BC3E903220A
:10373000C3E905225960FEF73BBE00BF302B0320D2
:10374000689F01205C2B0320582B03200146024A6E
:103750000248FEF743BE00BFB4000320689F01206B
:1037600040F2E27C2DE9F04100260446006884B076
:1037700060450F4698468DF80D60ADF80E6007D095
:1037800040F2DF73984241D0002004B0BDE8F081E0
:103790001546E06800F0F8FF0095A369414CA3F5D9
:1037A0000013B3FA83F301463A4620465B09FEF75D
:1037B000AFFC2578022DE7D14FF0FF3301220DF148
:1037C0000D01D8F800008DF80D600AF099F82A462E
:1037D0004FF0FF330546A11CD8F800000AF090F81E
:1037E00002464FF0FF331544D8F80000628804F118
:1037F0000D010AF085F8638805440333AB4201D01C
:10380000FDF744FC002323700120BEE7E06800F0D0
:10381000BBFF0028B8D03D78002DB5D005F00803D7
:1038200053EA1513B0D1E06800F0AEFF431E9D428D
:10383000AAD8A4690122A4F50014B4FA84F417F8F4
:10384000010B194D640985F8264000F00F004FF078
:10385000FF330DF10D01ADF80E00D8F800008DF822
:103860000D200AF04DF84FF0FF33022204460DF10F
:103870000E01D8F800000AF043F802464FF0FF337B
:1038800014443946D8F80000BDF80E200AF038F884
:10389000BDF80E3004440333A342B5D0FDF7F6FB68
:1038A000B2E700BF689F012068BF01202DE9F04FFB
:1038B00000248FB0DDF860C09E4FACF800409E4EF3
:1038C0000C469E491D469146C6F800C048603B60C4
:1038D000002A00F0838023780F2B40F29080A3F120
:1038E0001002772A00F28880DFE812F095009C0031
:1038F00086008600A3008600860086008600AA0057
:103900008600860086008600860086008600860087
:10391000D100D7008600860086000A018600860056
:10392000860086008600860011018600860035012B
:10393000860086007C01D301D9012A018600860019
:1039400086008600860096018F018600860086002C
:103950008600860086008600860086008600860037
:103960008600860086008600860086008600860027
:103970008600860086008600860086008600860017
:103980008600860086008600860086008600860007
:1039900086008600860086008600860086008600F7
:1039A00086008600860086008600860086008600E7
:1039B00086008600860086008600860086008600D7
:1039C00086008600860086008600860086008600C7
:1039D000860086009200EE01860003017F2284F8B3
:1039E0000090132103232A702278A9706A70ACF822
:1039F00000300FB0BDE8F08F7F221121F2E763465F
:103A00002A46494620460FB0BDE8F04FFEF78ABD72
:103A10007F221221E6E7494620460FB0BDE8F04F6D
:103A2000FFF7DABB494620460FB0BDE8F04FFFF77D
:103A30006DBC494620460FB0BDE8F04FFFF704BE0D
:103A4000B9F1020F27D959232B7004236278AB7088
:103A50006A70637803F07F03012B00F02483022B4C
:103A600000F051837F2312222B7003232178AA7048
:103A70006970ACF8003094F90130002BB9DA3B687A
:103A80001B787F2BB5D0002233681A80B1E7B9F1DB
:103A9000030F00F057827F22A3E7B9F1010FFAD09C
:103AA000637803F00F02042AB2D103F0F002402A37
:103AB000AED80A78012A33D01B099A1D9145EAD164
:103AC000002B00F0CD844FF00008013BDB00611DAE
:103AD00011F8012F9A40083B13F1080F48EA020839
:103AE000F6D140F6FE73984540F2BB847F22312127
:103AF00078E7494620460FB0BDE8F04FFFF78CBC91
:103B0000494620460FB0BDE8F04FFFF7B3BAB9F110
:103B1000020FC0D991F80080B8F1020F00F0CB82FB
:103B20007F2303222B702178AB706970ACF80020E2
:103B30005FE700BF542B0320502B0320302B0320C2
:103B4000B9F1010FA7D1B64B5A7B032A00F01E83AF
:103B50007F22242146E7B9F1030F9CD994F9012073
:103B60006378002ABCBF03F07F0363706388B8BF2B
:103B70004FF001085BBA9BB2A8BF4FF00008B3F545
:103B8000097F80F20C83B3F5007FC0F2A480A3F517
:103B90000073232B00F29F80DFE813F0EB00DA00C4
:103BA0004801330131011101B501A70165015A0135
:103BB0009D009D009D009D009D009D00830174015E
:103BC0009D009D009D009D009D009D009D009D000D
:103BD0009D009D009D009D009D009D000A01030128
:103BE000BF00B4008F4BB3F8E030B3F5007F7FF433
:103BF00003AFB9F1020F7FF64EAF012249462046CE
:103C00000FB0BDE8F04FFFF791BC494620460FB01A
:103C1000BDE8F04FFFF7B4BAB9F1010F3FF43BAF85
:103C2000637803F00F02042A7FF4F2AE03F0F0028F
:103C3000402A3FF6EDAE1B095A1D4A45BFF62BAF91
:103C4000002B00F069844FF00008581EC00004F1FA
:103C5000050E1EF8012F8240083848EA020210F1D2
:103C6000080F1FFA82F8F4D103F1060A0AEB0803E1
:103C700099457FF410AF0B78022B00F010847F235E
:103C80007F21032229702178AB706970ACF8002085
:103C9000AFE6B9F1020F7FF6FEAE0222AEE7B9F150
:103CA000010F3FF4F8AEDFF8788198F80D30012B62
:103CB00000F0E081022B7FF44BAFB9F1020F00F06E
:103CC00085827F2271218DE6494620460FB0BDE8EE
:103CD000F04FFFF763BB7F232B7023786B7031238A
:103CE000AB704FF00309ACF80090B8F1000F3FF44F
:103CF00080AE3B681B787F2B3FF47BAE0023ACF893
:103D0000003076E6B9F1040F00F0F1837F232B70C9
:103D100023786B701323AB70E3E7B9F1070FF5D18C
:103D2000201DFDF7DBFCFDF7BDFB0A2009F014F9AF
:103D3000042122783B684032D6F800C01A706278BD
:103D40005A70A2789A70E278DA70ACF80010CCE77A
:103D5000FFF73CF8D6F800C03B68002800F0DF838E
:103D60007F221A7022784FF003095A7072229A70DB
:103D7000B9E7B9F1040FC9D16378012B00F04F8482
:103D8000022B78D10022284B1A70237840332B70F5
:103D900063784FF004096B70A378AB70E378EB7035
:103DA000A1E7B9F1050FB1D12079FDF78FFCBAE792
:103DB000B9F1070FAAD1201DFDF77AFCB3E7B9F1DD
:103DC000060FA3D140F6FB72A3885BBA9BB2934265
:103DD00081D8712229462A706278181F6A70A278E9
:103DE000AA70E27801F8032F002202E001F8012F07
:103DF00001329042FADC04331FFA83F973E771232E
:103E0000C5E77123621C2B70A9F1020312FA83F338
:103E100014F8012FA34205F8012FF9D163E700BF81
:103E20005C2B03200005FA0B76000320FEF7A6FFAB
:103E3000D6F800C03B68002892D101222178403199
:103E40001970A15C9954013291B28945F9D84AE7B9
:103E50000B7F022B00F0FD827F232B7023786B7089
:103E60003323AB703DE7B9F1080F7FF44FAF6378B0
:103E7000012B00F0C0837F232B7023786B701223FB
:103E8000AB702EE7B9F1040F7FF440AF0B78022B33
:103E900000F07B837F237F222A702278AB706A70C8
:103EA0001FE7B9F1040F7FF431AF0B78022BF1D18A
:103EB0000B7F022B40F099836378012BDBD1FEF757
:103EC000CFFE002840F08B83FEF7D6FE002840F09E
:103ED0002F8204212046FFF7ADF8D6F800C0BCF8C9
:103EE0000030002B3FF485ADFFE6B9F1040F7FF4FD
:103EF0000DAF6378012B00F07A83022BBBD1002237
:103F0000BC4B1A7041E7B9F10B0F7FF6FFAE656845
:103F1000D4F808902DBA99FA89F9284609EB0501D9
:103F2000FEF750FE002840F03D837F223B683121A0
:103F30001A702278D6F800C05A7003229970ACF833
:103F40000020D2E60022B4F80100CDE9012240BAF7
:103F500080B2A0F5007CBCF5007FCDE90322009281
:103F6000C0F00481A0F5714084380C2808D8DFE83F
:103F700000F070076B620707070759070707120071
:103F80007F20312503213B683268187020789D70AE
:103F9000587011802DE569460120FDF7EFFF01A95A
:103FA00080460220FDF7EAFF02A948EA0008032044
:103FB000FDF7E4FF1FFA88F848EA000803A9042087
:103FC000FDF7DCFF1FFA88F848EA000804A905207D
:103FD000FDF7D4FF1FFA88F848EA00081FFA88F5B1
:103FE000694611220DF1170000F0DAFB002DC7D150
:103FF000142523784033396862788DF81430A3781B
:10400000681E8DF815208DF8163005AA4B1E11FA82
:1040100080F012F8011B03F8011F9842F9D13368B0
:104020001D80E6E40C2274490DF1170000F0B8FB86
:104030000F252378DEE7042270490DF1170000F008
:10404000AFFB07252378D5E70A7804258DF81720DC
:10405000D0E70C226A490DF1170000F0A1FB2023E4
:104060000922684909A88DF82330192500F098FB2A
:104070002378BFE7A9F1020212F007091FFA82FABA
:104080007FF41FAED8F80830D8F8041053448B42A0
:104090003FF617AE98F80C206378934200F07081D9
:1040A0007F2273219EE4B9F1030F00F0EE807F239D
:1040B00013222B70D9E44FF28412B4F8013058BAAD
:1040C00080B220F0080191423FF410AD49F2F102B4
:1040D000934200F0EE80B9F1070F7FF4DCACD4F826
:1040E000031009BAFDF732FF03463A683168002B26
:1040F00000F096817F207225032310702078957040
:1041000050700B8075E4B9F1030FD0D1002305A8DE
:10411000EB70FDF7FDFE8046002840F01681059B00
:10412000002B00F0908182466D4614E09DF803203C
:104130003B6803F80920BDF8022003F82A20009A02
:104140004B44120A9A70009ADA70059B09F104092F
:10415000534540F2068150462946FDF795FE0AF187
:10416000010A0028E2D04FF00108EEE76946FDF7AA
:1041700005FF002869D07F2131203B683268197023
:10418000217898705970A2F8009032E404224946D0
:1041900020465A730FB0BDE8F04FFEF74BBFB3F5A2
:1041A0007F4F00F0B0804FF6017293427FF493ADE1
:1041B000B9F1040F7FF4AAAD6378012B7FF45BAEF5
:1041C0000B78022B00F0B7817E2364E698F80C2070
:1041D000637893427FF464AF013388F80C3023781E
:1041E000002240332B70637805F8013FD8F808307F
:1041F00019E000BF2A2B03209005FA0BF8FB0008FA
:10420000E0FB0008ECFB0008D8F800100132CB5CA2
:10421000B2F57F6F05F8013FD8F8083003F10103CC
:10422000C8F8083004D0D8F804109942ECD892B2FB
:10423000D8F8041002329942ACF800203FF6D9AB0E
:10424000032388F80D30FFF7D4BB2378627840331E
:104250008DF81430A37869468DF815200DF11700FC
:1042600004228DF8163000F09BFA3A680DF1130124
:10427000531E063211F8010F03F8010F9342F9D1D2
:10428000072233681A80FFF7B4BB002305A8EB7040
:10429000FDF73EFE3B683168002800F0CC807F22AD
:1042A0001A70722220789A705870A1F80090FFF767
:1042B000E2BBB9F1140F7FF4EEABD4F80310012088
:1042C000FDF744FED4F8071005464046FDF73EFED4
:1042D0000346D4F80B1003201D43FDF737FE0346B9
:1042E000D4F80F100420ADB21D43FDF72FFE034696
:1042F000E17C0520ADB21D43FDF728FEADB245EAD5
:1043000000039BB2F1E6B9F1040F7FF4FFAC6378D0
:10431000012B7FF4B0AD0B78022B7FF455AF0B7FF0
:10432000022B40F06281FEF703FD00283FF4D1AD7F
:104330007F223B68D6F800C01A70227872215A702A
:1043400003229970ACF80020CFE47F223B681A70FA
:10435000722221789A7059703368A3F80090FFF7A1
:104360008ABBB8F1000F6ED07F213B6872201970B4
:104370000321257832685D7098701180FFF77BBB50
:10438000013388F80C3002F0F7FABAF1000F00F0B0
:10439000E8804D46A146AB4699F8043099F80520CF
:1043A0001B0403EB026399F8032099F8081003EB50
:1043B000022399F80920090401EB026199F802200F
:1043C000D8F8080013441BEB030299F8073009F1F1
:1043D000080901EB0323D8F80010084419F8021C5F
:1043E00000F580200B44FEF71BFD40EA0503DDB21B
:1043F000D8F808300833C8F80830A9EB04039A4508
:10440000CAD802F0CDFAD8E901329A4224BF032378
:1044100088F80D30002D00F0AD807F207225B1E5C9
:1044200060782378A578507003204033137095701E
:104430000880FFF7DEBA0620059A5A71120A1A712F
:104440000880FFF718BB32689B0003331380FFF727
:1044500012BBBFF34F8FBFF36F8F631D984767E4A5
:104460009846D4F802502DBA08EB05012846FEF70D
:10447000A9FB3B683168002800F0D5802278ED1A4E
:1044800040321A7003EB080202E0E85C03F8010F07
:104490009342FAD108F101030B80FFF7AABA0B7F10
:1044A000022B40F0D280D4F802502DBA284605EBFA
:1044B0000801FEF777FB00283FF462ADB8F1020F68
:1044C00000F0BB80B8F1040F00F0BB80B8F1080F1A
:1044D00040D06FF00603E21D1B1B02E012F8011F23
:1044E000297099188845F9D85146204652E6FCF7BC
:1044F000D9FF0A2008F030FD22783B6840321A705C
:104500006278D6F800C05A70A2789A70E278DA70B1
:10451000ACF80090FFF7E9BB9846FFF7A5BB012276
:10452000217840311970A15C9954013291B28945CA
:10453000F9D8FFF7D8BB0B7F022B56D1444B5B7BDE
:10454000042B29D07F232B7023786B702223AB7030
:10455000FFF7C7BBA168E0680BBA02BAC5E9002340
:10456000C2E702F01DFAD8E901329A4202D30323CE
:1045700088F80D30022023783A6864783168403337
:10458000137054700880FFF734BA0B7F022B2CD1C4
:104590006378012B7FF46FACFEF794FB00287FF467
:1045A000C7AE96E449462846FDF7EEF908250246CF
:1045B00021783B68403119706178D6F800C0597095
:1045C000A178EA409970E178D871D970010E19711B
:1045D000010C59719A71ACF80050FFF786BB0BF0D3
:1045E0009FFA00287FF4A4AE73E4332353E4194AFE
:1045F0001370FFF7CABBE379042B7FF46CABA0798F
:104600002379000240EA0360637940EA034040F006
:104610000400FDF755FC00287FF48AAE59E40E4AE9
:104620001370FFF7B2BB7F2031250322187020786A
:104630009D7058700A80FFF7DCB923895BBA2B8024
:1046400052E7A3681BBA2B604EE73323FFF718BB72
:104650005C2B03202A2B03207600032070B4002457
:104660002D4D039E2B602D4D34802E602C4D8C469D
:104670001C4611466860B2B19CF800200F2A1FD971
:10468000272A23D8103A172A2AD8DFE802F038342C
:104690002929302929292929292929292929292983
:1046A00029292929292C8CF800107F221321032382
:1046B00022709CF80020A1706270338070BC70473B
:1046C0003346224670BC6046FDF72CBF852A1ED0BB
:1046D000872A18D03E2A03D170BC6046FEF750BD31
:1046E0007F221121E3E7604670BCFEF7C3BC604641
:1046F00070BCFEF7A9BF604670BCFEF707BE6046FF
:1047000070BCFEF769BD604670BCFEF785BE6046B2
:1047100070BCFEF743BE00BF542B0320502B032078
:10472000302B032038B5049A12884AB119785129E0
:1047300007D0C72904D1012A02D05B78032B08D007
:1047400038BD4FF4FA7008F007FCBDE8384001F0BE
:1047500067BA4FF4FA7008F0FFFB0123084C257884
:104760002370FCF75FFF4FF47A7008F0F5FB054B00
:10477000EDB21878FCF75CFFFCF794FE257038BDAD
:1047800076000320582B0320014BC0B2185C704701
:10479000AC010108704700BF0AB10BF0D1B87047F7
:1047A0004AB1013A4B1E0138114413F8012F8B42D4
:1047B00000F8012FF9D17047421E11F8013B02F8B1
:1047C000013F002BF9D170474FF47A7202FB00F0E1
:1047D000024BA3FB0030800908F0BEBBD34D621032
:1047E00000220146034B1046C3E903221A705960A8
:1047F0001A817047742B0320084B1A785AB14EF671
:1048000060215A68821A8A4205D90022C3E903222C
:1048100058601A701A810020704700BF742B032063
:1048200038B5D0B20C46FFF7B5FF074DE86002E09F
:104830000A2008F091FB21462846FCF763FF002878
:10484000F6D1012038BD00BF3003032040F254529E
:1048500030B51C46036883B0934202D0002003B0F9
:1048600030BDC0680D46FFF78FFFADF80600002889
:10487000F4D04FF0FF33022220680DF1060109F059
:104880003FF884464FF0FF3320682946BDF80620E4
:10489000644609F035F8BDF8063004440233A342FB
:1048A00001D10120DBE7FCF7F1FBFAE72DE9F0414C
:1048B000069EDFF850814F4C4F4F26607860C8F855
:1048C000003042B10D46FF2119702978FF290ED022
:1048D0003878012801D0BDE8F081F53909291BD8C5
:1048E000DFE801F0203C1A1A1A2B1A5A4452012A06
:1048F00001D06A78DAB9002201214FF480740820CF
:104900003E4DC7E903223A813970C3F80150A3F83C
:104910000540D9713080DEE742F2FE0102221980A3
:104920003280D8E7012A1BD0697807293FD942F2A3
:10493000FE21022219803280CDE7012A10D06A7848
:10494000002AF4D14FF080600821A3F80520DA7125
:104950002B4AC3F8010031803A61BCE7082A20D015
:1049600042F2FE11022219803280B4E70021597010
:104970003A7A0620013A18BF01221201D970197142
:1049800059719A703080A6E700230122C7E90333EA
:104990003B703B8132809EE7FE21022219803280EB
:1049A00099E701226B681BBA3B61328093E7386953
:1049B0000144FEF707F90128D8F80060246805D003
:1049C00042F2FE2202233280238084E7FF233370E9
:1049D000697859B100233A6912780133DBB2F25495
:1049E0003A6901323A6169789942F5D801312180FA
:1049F00071E700BF6C2B0320742B03200000080814
:104A0000BC010108702B032010B50F4B82B0186E4B
:104A1000002240F0010018661C6E072104F001041A
:104A20000094009C9C6D6FF0010044F080549C65E4
:104A30009B6D03F080530193019B01F097F802B046
:104A4000BDE8104004F0EAB80010024070B5002143
:104A50000446ACB0942207A8CDE90211CDE90411B7
:104A600006910AF06DFF324B22689A4201D02CB0B9
:104A700070BD03234FF480424FF08051CDE90723EE
:104A80000993182211232791CDE90A230221082234
:104A90004FF0807307A8CDE90D230C9104F09CFF23
:104AA00000283BD1234B0026DA6C02A942F40052C5
:104AB000DA64DA6C204D02F400520092009ADA6C4B
:104AC00042F00102DA64DB6C322203F0010301934D
:104AD000032301981948CDE90223049602F034FA21
:104AE00080224FF480730521C5E903626B614FF4A6
:104AF00080622023C5E9011611492846C5E906232D
:104B00002E62296001F040F970B910210A4801F0C5
:104B1000EBFA30B92565AC622CB070BDFCF7B6FA83
:104B2000C0E7FCF7B3FAF5E7FCF7B0FAEDE700BF32
:104B3000008002420010024040290320000002428F
:104B400008040240094B02689A4200D07047A3F55E
:104B500000539A6C82B042F480529A649B6C03F4C6
:104B600080530193019B02B0704700BF00300240A8
:104B700010B500210446ACB0942207A8CDE902117B
:104B8000CDE9041106910AF0DBFE274B22689A4218
:104B900001D02CB010BD4FF000724FF0807307A809
:104BA0000792219304F018FF002832D19FED1A6B71
:104BB0009FED1B7B09241D4B02A9DA6D1C4842F4B2
:104BC0000072DA65DA6D02F400720092009ADA6C13
:104BD00042F00202DA64DB6C8DED026B03F002033B
:104BE00001938DED047B019B069402F0ADF9002248
:104BF0000521272000F0BAFF272000F0F1FF002256
:104C00000521282000F0B2FF282000F0E9FF2CB099
:104C100010BDFCF73BFAC9E70003000002000000EA
:104C2000000000000000000000A40040001002404E
:104C30000004024208B502680A4B9A4200D008BD3F
:104C4000094A4FF44071D36D084823F40073D365CB
:104C500002F080FA272000F0D1FFBDE808402820AC
:104C600000F0CCBF00A4004000100240000402424B
:104C700010B500210446ACB0942207A8CDE902117A
:104C8000CDE9041106910AF05BFE254B22689A4299
:104C900001D02CB010BD802307A8079304F09CFE20
:104CA000002832D19FED1A6B9FED1B7B04221D4C17
:104CB00002A9E36C1C4843F00203E364E36C8DED4E
:104CC000026B03F0020300938DED047B009B0692C0
:104CD00002F03AF9A36D002243F48003A365A36DAB
:104CE000052103F4800301933920019B00F03EFF6E
:104CF000392000F075FF002205213A2000F036FF30
:104D00003A2000F06DFF2CB010BDFCF7BFF9C9E7E9
:104D1000000C000012000000010000000000000074
:104D200000580040001002400004024210B5044642
:104D3000A6B09422002101A80AF002FE114B2268BD
:104D40009A4201D026B010BD4FF4802301A80193F0
:104D500004F042FE98B90C4B0022D86C052140F4B7
:104D60008020D864DB6C5E2003F480230093009BDA
:104D700000F0FCFE5E2000F033FF26B010BDFCF713
:104D800085F9E8E700080C420010024000B503680E
:104D900087B0B3F1804F0DD02E4A934238D02E4ABF
:104DA000934214D02D4A934226D02D4A934244D0A8
:104DB00007B000BD03F504339A6D42F001029A6515
:104DC0009B6D03F001030193019B07B000BD254BD0
:104DD0000022986D052140F0200098659B6D3220DF
:104DE00003F020030393039B00F0C0FE322007B0C2
:104DF0005DF804EB00F0F4BE1A4B1A6E42F4003278
:104E00001A661B6E03F400330493049B07B000BDC5
:104E1000144B0022986D052140F0100098659B6DA1
:104E2000312003F010030293029B00F09FFE31201B
:104E300007B05DF804EB00F0D3BE0A4B1A6E42F4E3
:104E400080221A661B6E03F480230593059B07B02E
:104E500000BD00BF001000400014004000440140AD
:104E6000004801400010024010B500210446AEB0D9
:104E7000942209A8CDE90411CDE9061108910AF0A0
:104E80005FFD2D4B22689A4201D02EB010BD4FF429
:104E9000005309A8099304F09FFD00283FD19FED1E
:104EA000226B9FED237B0A22244C2548E36C04A946
:104EB00043F00103E364E36C8DED046B03F0010345
:104EC0000193019B8DED067B089202F03DF8E36DA6
:104ED00043F40013E365E36D03F400130293029BB4
:104EE000A36DDB0018D4A36D43F08053A365A36DBD
:104EF00003F080530393039B03F088FEA36D23F01C
:104F00008053A36500220521492000F02FFE49208F
:104F100000F066FE2EB010BD03F078FEF2E7FCF75D
:104F2000B5F8BCE7AFF300800018000002000000F5
:104F3000000000000000000000D40040001002400B
:104F40000000024210B5014688B000222A2000F07D
:104F50000DFE2A2000F044FE154B01A91A6E03A88D
:104F600042F400621A661B6E124C03F40063029353
:104F7000029B04F029FC04F00FFC0346002140F2E0
:104F8000E7300D4A2161A2FB0323A1609B0C0B4972
:104F9000E060013B20462160636005F013FC10B126
:104FA000012008B010BD204605F01CFA08B010BD65
:104FB00000100240882B032083DE1B43002C01409D
:104FC000FEE700BFFEE700BFFEE700BFFEE700BF51
:104FD000FEE700BF704700BF014801F013B800BFF3
:104FE000F0260320014801F00DB800BF88260320F9
:104FF000014801F0F9BB00BFB8280320014801F0C7
:10500000F3BB00BFB8280320014805F0DBBA00BF9E
:10501000882B0320014805F0D5BA00BFF0250320F6
:10502000014805F0CFBA00BFA4250320014802F0D3
:10503000B1BA00BF64280320014802F03FBC00BFA2
:1050400064280320014805F0A3B800BF58270320B7
:10505000014805F081BC00BFD0270320014802F0C1
:10506000C9BE00BF30220320014800F0CBBF00BF03
:1050700040290320014804F0BDBF00BFBC27032026
:10508000034AD2F8883043F47003C2F8883070477E
:1050900000ED00E0254B25491A68120754BFD3F8EC
:1050A00094301B688A6858BFC3F3032302F00C02D4
:1050B00048BFC3F30313082A12D01D480C2A50F826
:1050C00023300FD01B49042A08BF0B46174A1A4841
:1050D00092681A49C2F30312825CD3400B60704796
:1050E000174BF3E7C868CA6800F00301C2F3031264
:1050F000022902F1010211D0032913D0B3FBF2F10E
:105100000A4AD368D268C3F3062301FB03F3C2F350
:10511000416201325200B3FBF2F3D7E70549B1FB1C
:10512000F2F1EDE70649B1FBF2F1E9E700100240C8
:10513000C40101080024F4000C02010854030320F8
:1051400080969800DFF834D0FFF79AFF002103E043
:105150000B4B5B58435004310A480B4B42189A42A0
:10516000F6D30A4A02E0002342F8043B084B9A4275
:10517000F9D30AF04BFCFBF7BDFBFEE7000004206F
:105180003802010800000320C0040320C0040320EB
:1051900020590320FEE70000042010B500F0D4FCE5
:1051A000FFF778FF0020FFF7CDFE10B10124204665
:1051B00010BD0446FFF728FC204610BD034A044BEF
:1051C00011681B780B441360704700BFD42B032079
:1051D00058030320014B1868704700BFD42B0320ED
:1051E000002330B583B00193002800F09E80856DC8
:1051F0000446002D00F09C80226893689D0005D530
:10520000936823F0204323F03F0393609368D80012
:1052100019D45C4B5C481B6891689B09A0FB030395
:1052200021F010419B0921F03F0101335B0041F067
:10523000805191600193019B2BB1019B013B019334
:10524000019B002BF9D19368D90064D40120A36D90
:1052500043F01003A365E36D0343E365936813F024
:10526000040FA36D5DD1DB065BD4A36D23F48173C2
:1052700043F00203A3659368DD0708D4434B9B68A2
:1052800013F0010F424B9B6801D1D90763D5E56844
:10529000636B94F820102B43A568012943EA0503AA
:1052A000657E43EA453343EA01434FD0A16A21B109
:1052B000E56A01F4707129430B43D56835492940EB
:1052C0001943D16093681B0716D494F83030257EBB
:1052D000D1685B0043EA8533E56C21F4804121F01D
:1052E00006012B430B43D36094F83830012B3AD09E
:1052F000136923F0010313612369012B1ED0136B83
:1053000023F00F031363A36D23F0030343F00103A2
:10531000A36503B030BD9368002013F0040FA36DA4
:10532000A1D0A36D43F01003A365012003B030BDED
:10533000FFF78CFBE56584F854505DE7116BE3697A
:1053400021F00F01013B0B431363DCE7616A013974
:1053500043EA4143AAE7104965688B6823F47C134C
:105360002B438B6093E71169E36B256C6FF38A0124
:105370002B430B43616C0B43A16C0B4343F00103C4
:105380001361B9E754030320632D3E0500800242F8
:105390000081024207C0F0FF00830242704700BF55
:1053A000704700BF08B5806AFFF7FAFF08BD00BF6D
:1053B000704700BF836A10B59A6D12F0500F9A6D56
:1053C0001DD1196842F400729A650A6812F0080F3C
:1053D000CA681BD012F4406F0DD1CA6894040AD475
:1053E0009A6D22F480729A659A6DD10403D49A6DF5
:1053F00042F001029A651846FFF7D0FF10BDD206B1
:105400000AD4BDE810401B6DDB6B18479007E7D549
:105410001846FFF7C3FFF1E71846FFF7C9FF10BDB5
:10542000806A08B5836D43F040038365C36D43F024
:105430000403C365FFF7BCFF08BD00BF0022F0B541
:1054400083B0019290F85420012A00F0F3800346C3
:1054500001201A6883F854009068400709D501209C
:105460009A6D42F020029A65002283F8542003B01E
:10547000F0BD1F24486802F1300500F01F0C4FEA10
:10548000901E08680EF00C0EC0F3846000FA0CF059
:1054900004FA0CFC55F80E4024EA0C0C40EA0C000F
:1054A00045F80E00906810F0040F906835D107079A
:1054B00033D4072408688D68C0F30456B440C00D87
:1054C000B5F1004F6FEA040400F0040000F0FC8026
:1054D00002F11407B5403E5834402C433C5050690B
:1054E00020F0004050610E69D468042E086800F076
:1054F000B88002F1600757F826C0BA4D00F0F840B6
:105500000CEA05050543C4F3C10448696400A040E2
:10551000284340F0004047F826009068C60701D5B0
:105520000020A1E7CE680C68AF48D2F8B05006F072
:105530001807F840C4F31207204025EA070528435E
:10554000C2F8B000A948864226D0A9490C42E7D04B
:10555000A848A94986688D68ED076ED4A74DAD6847
:10556000EF073FF57CAFA64D06F0E077AC4200F0C8
:105570005F81A44DAC4200F07F81A34DAC42CFD1FE
:105580007402CDD48A42CBD1826822F0E0723A43D1
:1055900042F480028260C3E7002F51D094FAA4F055
:1055A000002800F0D080B0FA80F0013000F01F0039
:1055B000092840F2C88094FAA4F0002800F0728113
:1055C000B0FA80F00130800600F0F84094FAA4F5BB
:1055D000002D00F06C810126B5FA85F5354405F003
:1055E0001F0506FA05F5284394FAA4F4002C00F0F0
:1055F0005C81B4FA84F4013404F01F0404EB440425
:105600001E3C240544F0007407272043C50D8E6816
:1056100005F0040502F1140C5CF80540C0F30450D9
:10562000864007FA00F024EA000030434CF80500F9
:105630000C688AE7022003B0F0BD704A92680EE75A
:105640000120A40E013404F01F06A40604F0F8455E
:10565000B040092E06EB460440EA0500D0D82405E8
:10566000D2E7146E146EC0F31205C4F38464002DE7
:1056700034D1C0F38466B44200F08B80546E556E12
:1056800002F16004C5F3846502F1640CB54200F0D8
:105690009480A568A56804F10807C5F38465C0F384
:1056A0008466AE4200F0B280E568E56804F10C065D
:1056B000C5F38464C0F38460A0427FF42EAF3068E9
:1056C00020F00040306028E702F1140635582C40E5
:1056D0003450506940F00040506104E790FAA0F562
:1056E0001DB1B5FA85F5AC4253D0546E556E02F13A
:1056F0006004C5F3846502F1640C90FAA0F604F12D
:105700000807BE461EB1B6FA86F6AE4257D0A56867
:10571000A568C5F3846590FAA0FC04F10C06B646B2
:10572000BCF1000F03D0BCFA8CFCAC4570D0E5682E
:10573000E468C4F3846490FAA0F000283FF4EDAE6E
:10574000B0FA80F0B8E794FAA4F0002800F0A48042
:10575000B0FA80F00130800600F0F84094FAA4F529
:10576000002D00F097800126B5FA85F5354405F047
:105770001F0506FA05F5284394FAA4F4002C00F05E
:105780008E80B4FA84F4013404F01F0404EB440462
:1057900065E71446106E02F1640C20F0004044F8F6
:1057A000600F506E0868556EC0F31206C5F384652D
:1057B000002EA2D1C0F3846668E704F1080EDCF87D
:1057C0000000774620F00040CCF80000A068086890
:1057D000A568C0F31206C5F38465002E3FF45FAFE1
:1057E00099E700BF00F0FF03FFFF070000007F40C4
:1057F00000000880008302420080024200810242D1
:10580000000052C7000084CB0100008004F10C0EA0
:105810003868764620F000403860E0680868E46840
:10582000C0F31205C4F38464002D3FF443AF82E754
:1058300036023FF575AE8A427FF472AE82681D492A
:1058400022F0E0723A4342F4000282600A681A4988
:105850009209A1FB02129209013202EB420292006C
:105860000192019A002A3FF45BAE019A013A01923B
:10587000019A002AF9D153E6F5013FF551AE8A426B
:105880007FF44EAE826822F0E0723A4342F08072BA
:10589000826045E602256EE74FF080605EE74FF4D8
:1058A0004014B1E64FF0806090E6044CACE602256F
:1058B00099E600BF54030320632D3E05000050FE0F
:1058C000002370B582B0019303689A68D2072CD484
:1058D0009968284A054611422AD19A68264922F039
:1058E000004222F03F0242F001029A608B681E02E1
:1058F00029D4FFF76FFC2B6806461A68D40714D426
:105900001E4C9A68D00704D49A68224042F00102E3
:105910009A60FFF75FFC821B022A2B6802D91A6883
:10592000D10705D51A68D207EBD5002002B070BDAB
:105930000120AB6D43F01003AB65EB6D43F0010349
:10594000EB6502B070BD0E4B0E4A1B689B09A2FBB3
:1059500003239B09013303EB43039B000193019B4A
:10596000002BC6D0019B013B0193019B002BF9D179
:10597000BFE700BF3F00008000830242C0FFFF7FFF
:1059800054030320632D3E052DE9F041364B056895
:105990009B68AD6815F0040516D1164690F85420A2
:1059A0000446012A10D040F2212C03F01F080123E5
:1059B0002CFA08FC1CEA030C80F8543007D180F85C
:1059C00054C00120BDE8F0810220BDE8F0810F46FF
:1059D000FFF776FF002840D1A36D216823F47063A0
:1059E00023F0010343F48073A365204B994237D021
:1059F000A36D23F48013A365A36D002513F48053D6
:105A000018BFE36D206D18BF23F00603E36533462E
:105A10001C263A46164F4031C762164F0763164F91
:105A2000C76341F8406C84F8545051F83C5C45F031
:105A3000100541F83C5C51F8345C45F0010541F833
:105A4000345C00F017FA2268936823F0004323F0D7
:105A50003F0343F004039360B7E784F85450B0E782
:105A6000B8F1000FC8D1C3E70083024200810242AF
:105A7000B5530008A55300082154000890F854209D
:105A8000012A46D0034600220120F0B42B4D1C68A9
:105A90009AB0AC42169283F85400179208D0996DD0
:105AA00083F8542041F0200199651AB0F0BC70478A
:105AB000234A906840070BD5A26801209A6D42F0F6
:105AC00020029A65002283F854201AB0F0BC704777
:105AD000A0684507F1D40D68EDB11A4E4F68B06863
