:020000040800F2
:100000000000042095AA000811A9000815A90008FD
:1000100019A900081DA9000821A90008E5AA0008DF
:10002000000000000000000000000000214C01085A
:1000300025A9000800000000B14B0108B12001080B
:10004000E5AA0008E5AA0008E5AA0008E5AA000854
:10005000E5AA0008E5AA0008E5AA0008E5AA000844
:10006000E5AA0008E5AA0008E5AA0008E5AA000834
:10007000E5AA0008E5AA0008E5AA0008E5AA000824
:10008000E5AA0008E5AA0008E5AA0008E5AA000814
:10009000E5AA0008E5AA0008E5AA0008E5AA000804
:1000A000E5AA0008E5AA0008E5AA0008E5AA0008F4
:1000B000E5AA000829A9000835A90008E5AA000852
:1000C000E5AA0008E5AA0008E5AA0008E5AA0008D4
:1000D000E5AA0008E5AA0008E5AA000841A9000869
:1000E0004DA90008E5AA000859A90008E5AA0008DA
:1000F000E5AA0008E5AA0008E5AA0008E5AA0008A4
:10010000E5AA000865A9000871A90008E5AA000889
:10011000E5AA0008E5AA0008E5AA0008E5AA000883
:10012000E5AA00087DA9000889A90008E5AA000839
:1001300095A90008E5AA0008E5AA0008E5AA0008B4
:10014000E5AA0008E5AA0008A1A90008E5AA000898
:10015000E5AA0008E5AA0008E5AA0008E5AA000843
:10016000E5AA0008ADA90008E5AA0008E5AA00086C
:10017000E5AA000800000000E5AA00080000000051
:10018000B9A90008E5AA0008E5AA0008E5AA000840
:10019000E5AA0008E5AA0008E5AA0008E5AA000803
:1001A000E5AA0008E5AA0008E5AA0008E5AA0008F3
:1001B000E5AA000800000000C5A90008E5AA00089B
:1001C000E5AA000800000000E5AA0008E5AA00086A
:1001D000E5AA0008E5AA0008E5AA0008E5AA0008C3
:1001E000E5AA0008E5AA0008E5AA0008E5AA0008B3
:0401F000000000000B
:1002000010B5054C237833B9044B13B10448AFF350
:1002100000800123237010BD600303200000000054
:100220003C56010808B5034B1BB103490348AFF323
:10023000008008BD00000000640303203C56010854
:10024000034613F8012B002AFBD1181A0138704716
:10025000704700BF30B5214C214D83B04FF0FF33C4
:10026000022220680DF1060112F0BAFD022807D023
:100270002B78012B29D001211A4809F041FEEDE726
:1002800042F20303BDF806209A42F1D816494FF016
:10029000FF33206812F0A4FDBDF806108142E7D1BB
:1002A000114805F053FE0028D8D12B78BDF8061070
:1002B000012B0D480DD005F04FF80128CED12B7839
:1002C000B3FA83F35B092B70C8E7084809F086FE90
:1002D000C4E703F0DDFE0128C0D1F0E7800403206D
:1002E000540403208056010840B8002060560108DD
:1002F0002DE9F04F834C9BB0DFF82482824F834E70
:100300000AAD4FF0FF3328226946206812F068FDDD
:100310002828F6D1039809F0FDFF8346002840F015
:100320009380029B002B70D10098D8F8003098423F
:1003300000F092802A46594605F0AAFE13F004FB0D
:1003400029460246684606F0D7FD13F0FDFA294615
:100350000246684605F0F0FD3B78002BD1D0069BA5
:10036000B3F5001F00F086800121BBF1080F28BF04
:100370004FF0080B002289465FFA8BFBDDE9013064
:1003800000286FD13144002B00F0AA805420B054D3
:10039000009809F067FE09EB00035FFA83F9069AFB
:1003A00006EB0901B2F5001F6FD00BF00F0009F04A
:1003B000D7FE09EB00035FFA83FABBF1000F0CD004
:1003C000A946AB4419F8010B06EB0A0109F0B8FE87
:1003D000D94550445FFA80FAF4D1FA78002A5ED108
:1003E0007A791AB1069AB2F5001F7DD00D220AF172
:1003F00001014648C9B206F80A2009F081FD00282B
:100400003FF47FAF00233B707BE7B3F1005F9CD1EB
:10041000009BB3F5E06F98D13D4801990360039BC1
:100420004160082B28BF08231A460023C260C0E998
:100430000533836008223749374809F077FF36498A
:10044000334803F085FC80E702464FF0FF3329462E
:10045000206812F0C5FC64E73049314803F078FCAD
:10046000009867E77BB352204FF0000BB054314443
:1004700000988EE7059B0221B3F5801F14BF30233F
:10048000312301228946337078E7039800F00F008A
:1004900009F066FE09EB00035FFA83FA8DE713F0BB
:1004A00053FA4EF6602C1F4B06EB0A01A3FB00E249
:1004B000920B0CFB120080B209F020FE0AEB000345
:1004C0005FFA83FA8CE772209B46B054009831445F
:1004D00080B209F0FDFD09EB00035FFA83F95EE7E6
:1004E0007420B0540098F3E7049AB2F1004F7FF4FF
:1004F0007DAF69220AF1010306F80A205FFA83FA48
:1005000074E700BFFC370320DC00032040B6002066
:10051000900303209005FA0B840303205039032035
:100520005839032073B2E7452DE9F0431F4D9BB0C6
:10053000DFF8808001AE0AAF002404EBC401C4F1EF
:1005400024024FF0FF33286806EB810112F048FCCB
:100550000444232CF1D9049809F0DCFE039B814666
:10056000B3F1005F00D0A0B911480AF0C5FF50B147
:100570003A4631460E480AF07FFED8F80C30013377
:10058000C8F80C30D8E74FF0FF32012113F072FDAC
:10059000EAE70024A9EB040239194FF0FF33286879
:1005A00012F01EFC04444C45F4D3DDE7F837032079
:1005B0006027032010000320F0B583B005F00EFD86
:1005C00003F0CAFA06F098FD00F0A4FD07F07AFDEA
:1005D00013F0BAF905F0AAFC1D480EF0F7FC1D480F
:1005E0000EF0BCFC1C4D07F06BFB1C4E1C4F05E0D5
:1005F00001330CD10A2101A813F038F813F0A4F943
:1006000032682B6801320190F2D101330BD04FF4E4
:100610007A7401E0013CEDD02846124903F098FBC2
:100620000028F7D0E6E707F04BFD019807F050FDF2
:10063000019800F071FD3B7833B1019805F088FC1A
:10064000019806F057FCD5E7019805F029FEF4E77C
:1006500098240320002403202C3903205839032038
:1006600086000320243903202DE9F04300262B4D7A
:10067000DFF8B490DFF8B480294FA7B016E063022A
:1006800003D52B7943F080032B7198F8003033B1F8
:100690000B9B23B1642011F0E7FD03F05DFA00220B
:1006A000022311463868009613F066FD4FF0FF32C2
:1006B0000121002013F0DEFC14F014F919480BF0AE
:1006C00071F8044606A917480AF0D2FE02A9154897
:1006D0000AF0F6FE5422294611A8AC6014F056FF29
:1006E000104B1E66189BB3F5003F02D9AB689A0207
:1006F0000CD414F005F999F80030012BBFD1234632
:1007000011AA06A902A805F0FFFEB8E7012385F8A3
:1007100020300B9303F0AAFAEBE700BF1000032090
:10072000201C032060270320D03C032080030320EB
:1007300000232DE9F04385B05B4C5C4EDFF87881F7
:100740005B4D0DF10E078DF80B3005E000214FF0E9
:10075000FF32084613F08EFC206812F04BFA002896
:10076000F4D04FF0FF33012220680DF10B0112F09D
:1007700037FB0128EAD1206812F03CFA0128E5D9BC
:100780004FF0FF330222206803A912F029FB022850
:10079000DCD1BDF80C20B2F5845FD7D8002A56D141
:1007A0009DF80B90B9F1000F16D113F0CDF8414B25
:1007B0003146BDF80C20009709F0D4FABDF80E3090
:1007C000002B57D113F0C0F831463A4BBDF80C203E
:1007D000009709F017FBB9E713F0B6F8354B33492A
:1007E000BDF80C20009709F0E5FABDF80E3023B3F0
:1007F00030490A787F2A08D1022B1ED98B78A3F1C1
:100800001102012A19D9312B17D04FF0FF330222E0
:100810003946D8F8000012F0FBF94FF0FF332549B4
:10082000BDF80E20D8F8000012F0F2F900220223E1
:1008300011462868009213F09FFC13F085F81D4BB9
:100840001A49BDF80C20009709F0DCFA7EE74FF05A
:100850000009A2EB090206EB09014FF0FF33206803
:1008600012F0BEFABDF80C2081441FFA89F94A45FE
:10087000EFD195E739464FF0FF330222D8F8000058
:1008800012F0C6F9BDF80E204FF0FF330949D8F831
:10089000000012F0BDF902234A4649462868CDF807
:1008A000009013F069FC8DE7C0030320BCA5002075
:1008B0006009032038950020BC0303202DE9F8438C
:1008C000294E2A4DDFF8B08006F19C0706F58059C5
:1008D00005E000214FF0FF32084613F0CBFB2868FB
:1008E00012F088F90128F4D94FF0FF330222204991
:1008F000286812F075FA0228EBD1B6F89420B2F508
:10090000845FE6D86AB10024121B39194FF0FF3317
:10091000286812F065FAB6F894200444A4B2A24202
:10092000F2D113F011F80146124806F06BFF0028CF
:10093000CFD113F009F809F01DF90128C9D02868B2
:1009400012F058F90128C4D898F8003053B199F83A
:10095000230111F089FC12F0F7FF09F00BF90128CF
:10096000B7D0ECE70A20F4E7BC870120BC030320E2
:1009700050880120BC7701208600032010B50C4967
:100980000C4809F079FA0A4A0B490C4814F054FB58
:10099000084C0B494FF0FF334FF40062206812F00F
:1009A0001FFA01460028F4D0054809F07DFAF0E767
:1009B000B004032058040320D42003208004032023
:1009C00044D8002005F0D4BA002005F0D5BA00BF05
:1009D0000022024B02481A600EF0F8BA7C03032092
:1009E0004C240320014B1868704700BF7C03032090
:1009F00010B59EB0482200210CA814F03BFD002346
:100A00004FF40070CDE90233CDE90433CDE907336B
:100A1000CDE90933019306930B930CF0B5FE08B1B1
:100A200072B6FEE7012302221693119319931792CF
:100A300010231D9207229FED1E7BCDE91A3203245D
:100A4000042312900CA81C938DED0C7B18940DF0D0
:100A5000D7F8034608B172B6FEE70F22214601A877
:100A6000CDE903330593029401920CF075FF034620
:100A700008B172B6FEE7104A4FF0005C916D4BF67C
:100A80007F3441F080719165926D069302F080721F
:100A9000009208932222202306A8CDE90A23009978
:100AA000CDF81CC009940EF00BF81EB010BD00BFAD
:100AB00029000000000001000010024070B594B051
:100AC00072B64FF00062A34B9A60BFF34F8F62B6CD
:100AD00000240AF009F807F0D5F9FFF789FFCDE9FE
:100AE0000F44CDE911449C4D1394EB6C4FF46041DD
:100AF00043F00403EB64EB6C224603F00403089319
:100B0000089BEB6C954843F08003EB64EB6C01268B
:100B100003F080030993099BEB6C43F00103EB6442
:100B2000EB6C03F001030A930A9BEB6C43F00203A6
:100B3000EB64EB6C03F002030B930B9B0BF0D0FA0E
:100B4000224640F2011186480BF0CAFA224641F2D1
:100B5000E40184480BF0C4FA4FF460437F480FA9C6
:100B6000CDE90F36119412940BF006F940F20113FF
:100B70007B480FA9CDE90F36CDE911440BF0FCF805
:100B800041F2E40377480FA9CDE90F36CDE91144CE
:100B90000BF0F2F84FF4007371480FA9CDE90F3450
:100BA00011960BF0E9F808236F480FA9CDE90F342F
:100BB00011940BF0E1F8AB6C052143F00403AB6436
:100BC000AB6C224603F004030593059BAB6C1D2020
:100BD0003343AB64AB6C33400693069BAB6C43F082
:100BE0000203AB64AB6C03F002030793079B09F0AD
:100BF000B1FF1D2009F0E8FF224605211E2009F063
:100C0000A9FF1E2009F0E0FF22460521502009F02F
:100C1000A1FF502009F0D8FF20460BF0E9FD08B1F4
:100C200072B6FEE70BF0F8FD034640B94F48504A54
:100C3000C0E900230DF06CFF18B172B6FEE772B682
:100C4000FEE74C4A4C4B10704C4A4FF440711A600E
:100C500010229A619A62132299601A620F2104226B
:100C60003C245860D8609874D8631846C3E90D6670
:100C70001E825E615E62DC61D9621A630AF02EF93F
:100C80000346E0B94FF0FF313D4AC2E90500C2E931
:100C90000100D06011603B4A3B4811603B49C0E90C
:100CA0000533C2E90533C2E901338380D3600662AC
:100CB000016009F0BBFF034618B172B6FEE772B6D9
:100CC000FEE74FF4027102223148C372314B81803A
:100CD0000360C0F807200BF0A9FD034608B172B607
:100CE000FEE741F63F752C4C2C4ACDE90F001190E0
:100CF0002046C4E90133A3612260E5600EF056FB93
:100D0000034608B172B6FEE720460FA90F93119370
:100D10000EF07EFB034608B172B6FEE7204C214A76
:100D2000CDE90F00226042F20F72C4E90205119072
:100D30002046A36162600EF039FB034608B172B62B
:100D4000FEE720460FA90F9311930EF061FB58B3F5
:100D500072B6FEE700ED00E000100240000802421B
:100D60000000024200040242001C024264260320EA
:100D700000080C42800303206027032000A40040E9
:100D8000583903202C390320C427032000300240A7
:100D9000D820032000D400404C240320001400403D
:100DA000982403200010004000234F254FF6FF74C5
:100DB0008D498E4A0846C1E90153C1E90343C1E99F
:100DC00005330A600EF0F2FA034608B172B6FEE788
:100DD0008748C0E90153C0E90343C0E90533854BA7
:100DE00003600EF0E3FA034608B172B6FEE74FF077
:100DF00080414FF0FF32804CCDE90F00CDE911006A
:100E0000C4E901000CAD0C902061A0612046C5E949
:100E100001332160E2600EF0C9FA08B172B6FEE754
:100E20004FF4805320460FA90F930EF00DF903469F
:100E300008B172B6FEE7204629460C930E930EF0D9
:100E4000E7FA044608B172B6FEE76C486C490090B8
:100E50002246CDE901446B4B0C7043F698200121EA
:100E600011F070FE0546684E684A00960121CDE9F2
:100E70000144674B156043F69820224611F062FE4C
:100E80000546644E644A00960121CDE90144634B56
:100E9000156041F20100224611F054FE0246604EF8
:100EA000604D00960121CDE901445F4B2A6041F27B
:100EB0000100224611F046FE5C4B5D4A0121009282
:100EC000CDE90144224618605A4B43F6982011F0B0
:100ED00039FE594B594A01210092CDE9014422467D
:100EE0001860574B43F6982011F02CFE554B564E88
:100EF0001860204606F0CCF8204606F0E3F806F02D
:100F000035F912F021FD2A46504B5149009605F063
:100F1000DFFF504807F030F94F4804F0EDFF4F482D
:100F20004F4A504902F0FEFD0FA80F9406F06CF8EE
:100F300020B90F9B13B94C4806F03EF811F0C6F8E3
:100F400013F066FF0021494A494811F00FF90446A1
:100F5000484B0021484A49481C6011F007F90446F3
:100F6000474B0021474A48481C6011F0FFF80446EF
:100F70003C4B0021454A46481C6011F0F7F80446F6
:100F8000444B0021444A45481C6011F0EFF80446E8
:100F9000334B0021424A43481C6011F0E7F80446F5
:100FA0002B4B0021404A41481C6011F0DFF80446F9
:100FB0003F4B00213F4A40481C6011F0D7F80446DF
:100FC0003E4B00213E4A3F481C6011F0CFF80446DA
:100FD0003D4B00213D4A3E481C6011F0C7F83D4B97
:100FE000186011F095F8FEE700240320004401404A
:100FF000B423032000480140E42403208404032098
:1010000054040320DC1A01205C0403208004032024
:1010100044E00020300403205804032034850020DD
:101020000C040320C003032030750020BC03032000
:10103000E8030320983A0020FC370320C403032070
:1010400000000020F8370320B4030320B803032076
:10105000100E032064260320C427032060270320EA
:10106000C0120320201C0320040029C04085010871
:1010700055020008D42003201C850108F102000855
:10108000D0200320F884010829050008D484010831
:10109000B905000870170320B0840108690600082C
:1010A0008C8401083107000868840108BD08000825
:1010B00060090320448401087D090008B00403206E
:1010C00020840108C5090008AC040320FC83010842
:1010D000C9090008A8040320094A0368934206D0FE
:1010E000084A93420AD0084A934205D07047074AFB
:1010F000136801331360704704F032BF09F006BD76
:1011000000140040002C0140001000407C0303202C
:1011100072B6FEE7704700BF034B044A1B68D07DE0
:101120001B6803491B6D18478800032064000320D7
:10113000043C032040F69E732DE9F047DFF89CA0A5
:101140002349244ADAF80040B1F800E012889C42B2
:1011500004FB0E2238D800204FF0804140F69F76E5
:101160004FF030083127DFF878901B4D09EB040C65
:101170004B6A9342FCD32B69013013F48073C0B2E5
:1011800004F1010472440ED118468CF80080B44278
:101190000CF1010CECD10120CAF80040002309F841
:1011A0000430BDE8F0870A288CF80070EFD9142CC1
:1011B00002D80CF1010CDBE7002309F80430002011
:1011C000CAF80040BDE8F0870120DFF81490E5E799
:1011D0000A000320080003200004024254280320D0
:1011E0005828032070B500244FF0804101254FF6A8
:1011F000FF7086B0CDE90044CDE9024404940A684A
:101200001A4E22F001020A603288194B013A8A62B2
:101210004C624D610A682A430A601A6822F0010292
:101220001A6098625C625D611A682A431A6002F073
:101230001DFD2A464FF400710E480AF051FF4FF48D
:101240008072002369460B48CDE9002302940AF01E
:1012500093FD4FF40073032269460648CDE900353B
:10126000039202940AF088FD06B070BD0C000320C2
:101270000048014000040242F0B5BDF81440012CC2
:1012800045D94FF0300C0127013C83F800C00029FC
:101290003FD10A263D4604E08C4675460127013EB3
:1012A00015D320FA06F101F0010105F1010EA54266
:1012B00001F130011FFA8EFE29DA8C455955EBD128
:1012C0000137FFB2052F4FD0013E7546E9D2002A03
:1012D0000CBF30263126A54219DA691CB4455E558B
:1012E00089B200F0C1800127A14210DA30224D1CE2
:1012F0009642ADB25A5400F0D980A54207DA881C54
:1013000080B25A5500221A54F0BDA54239DB0020A4
:10131000F0BD1C263D4605E08C4675460127013E82
:10132000112EF2D020FA06F101F0010105F1010EB3
:10133000A54201F130011FFA8EFEE8DA8C455955BD
:10134000EAD10137FFB2052F01D07546E7E7CCF1AE
:10135000610CA6455FFA8CFC05F10205D7DA01277E
:1013600003F80EC0ADB2DAE7CCF1610CA6455FFA26
:101370008CFC05F10205CADA012703F80EC0ADB2F4
:101380008DE74FF0310E691CF44589B203F805E092
:101390004FD0A142BBDA03F801E0A91CF4460227B2
:1013A0001FFA81FE04E08C46AE460127013E22D39F
:1013B00020FA06F101F00101A64501F13001A6DA9B
:1013C0000EF10105614503F80E10ADB2EBD1013706
:1013D000FFB2052F01D0AE46E8E7CCF1610CA54283
:1013E0005FFA8CFC0EF1020E91DA012703F805C0BA
:1013F0001FFA8EFEDAE7002A0CBF30253125A645FC
:1014000085DA0EF10102AC4503F80E5092B262D0BB
:101410000121A242BFF67BAF3027561CBD42B6B2B7
:101420009F5477D0A642BFF672AF023290B29F555A
:1014300068E7042F28D0A142BFF669AF0237FFB298
:1014400005F1020E052F03F801C01FFA8EFEAFD181
:10145000A645BFF65CAF4FF0300C033503F80EC065
:1014600001271FFA85FEA3E70137FFB2052F7FF49E
:101470003BAFA142BFF64BAFC6F16106F6B20235F3
:101480005E540127A9B22FE7A142BFF640AF302733
:101490005F54A91C89B28C427FF739AF05F1030E66
:1014A000012703F801C01FFA8EFE81E77A1CD2B231
:1014B000052A21D0A542BFF62AAF881C042A5E5512
:1014C00080B27FF41FAFA042BFF621AF31220331BB
:1014D0001A5488B216E7791CC9B2052999D1A242DB
:1014E000BFF615AFC5F16105EDB20EF1020E9D54C8
:1014F00001211FFA8EF28CE7A542BFF608AF312218
:101500005A558A1C92B294427FF701AFC81C80B230
:101510009E54F7E60131C9B2052910D0A642BFF6A4
:10152000F6AE9D55042902F10205ADB215D1A542D2
:10153000BFF6EDAE3121033290B25955E2E6A64234
:10154000BFF6E5AE31219955911C89B2A142BFF693
:10155000DEAE033290B25D54D4E62846D2E600BF38
:101560004B4B1868831C70D02DE9F04FC71C91B00D
:1015700077D0411C02D14FF000090BE03024454BDD
:10158000454A1978127804AB0094FFF775FE81463E
:10159000002860D04FF0804C404B414A1B88B2F885
:1015A00000A003933F4B0AEB8A0E1F883E4B3F4936
:1015B0001C683F4E4FEA4E0E0B69DA05FCD5DCF88D
:1015C000242092B20B69DB05F6D5DCF824309B1A97
:1015D0009E45F7D80B6913F4807306D0736ABB423B
:1015E0002DD80B6913F48073F8D1CCF82430B9F1FD
:1015F000000F1AD01C464FF08040039ADFF8B880E5
:10160000DFF8A8B004AD436A9342FCD3DBF8103096
:10161000524413F4807F15F8013B0DD0312BCBD110
:101620000134A14508F8013BEDD11F4BC3F80090F0
:10163000002011B0BDE8F08F302BF1D0BCE70120C5
:10164000194B1C6011B0BDE8F08F4FF080430022B1
:1016500000205A627047174808F0C0FC4FF000099C
:1016600098E74FF080440E4B104A188800EB80003A
:1016700040001369DE05FCD5616A89B21369DD0596
:10168000F7D5636A5B1A8342F8D300236362CFE71E
:1016900004000320512803205028032008000320C1
:1016A0000A00032000000320542803200004024203
:1016B000004801401C5701085828032002783AB31B
:1016C0004FF0000C30B56346864631250BE02A2AE0
:1016D00007D10CF1010C1FFA8CFC8EF8005000EBC6
:1016E0000C0EC25C82B1A2F13001013301290CF170
:1016F00001049BB2EBD88EF80020C25C1FFA84FC78
:1017000000EB0C0E002AEED100238EF8003030BD25
:1017100000230370704700BF70B5044608F012FE46
:1017200014281ED900F1FF3E1FFA8EFE14F80E3069
:1017300004EB0E05312B2A4615D1831E9BB200EB1C
:10174000040C0CEB03002A262344A0EB0E0005E05A
:1017500016701A461178013B312906D1C11A0C299D
:10176000F6D9002070BD00EB040C002220460126B3
:10177000144610F8013BA3F1300101292FD862B3C0
:1017800086B3052A42D0A3420FD0312B5ED08445C8
:1017900015D010F8011B0122A1F13003012B79D8DB
:1017A00030231C460B46A342EFD10132312CD2B27A
:1017B00056D084454FF001064FF03004D9D10FFACE
:1017C0008EFEBEF1000F06DB2A4615F801392A2BE2
:1017D00058D05F2B37D0012070BD1C4601228445B4
:1017E000C7D1ECE7A3420DD08445E8D010F8011B27
:1017F0001C46A1F13002012A22D80B46A3424FF029
:101800000102F1D101320026D2B2E8E7A342A8D00A
:101810005F23844500F8013CD1D0034613F8011B37
:10182000A1F13002012A20D86345C8D0437832465E
:10183000A3F13004012C00F102000C46A0D9CEE740
:1018400000260122CBE730231370C4E78445B6D0CD
:1018500010F8011BA1F13002012A1ED80122A0E7D5
:10186000062A8CBF00260126B9E76345A7D01A785F
:101870000230A2F13003DBB2012B96BF14460022E6
:101880003246ACE70EF1FF3E0FFA8EFEBEF1FF3F8F
:101890009AD1A0E730241646A1E701221C4616463D
:1018A0009DE700BF70B571B3002344F2995600F173
:1018B000FF3C0CEB01051CF8012F5C00A2F131028A
:1018C000B2FA82F24FEA933E47F6FE73520972452E
:1018D00003EA040318BF7340AC45ECD14A1E00F183
:1018E0000E0C024400208C4412F8011F40003129E4
:1018F00008BF40F00100944580B2F5D1C01AB0FA9B
:1019000080F0400970BD0B46E8E700BF2DE9F04FBD
:101910008FB0044608F016FD122840F24B81237860
:10192000302B05D0B4480FB0BDE8F04F08F056BBDF
:10193000074606AEB14808F051FB00253146234664
:1019400004F10B0C13F8012FA2F13100B0FA80F072
:101950009C454FEA501001F8012B40EA4505F1D1B2
:101960004FF00008A6488DF8238008F037FB06A842
:1019700008F034FBA34808F031FB03A9284608F01F
:1019800071FB03A88DF8148008F028FB9E4808F02E
:1019900025FB94F80CA09D48657B8DF819808DF887
:1019A00018A008F01BFB06A808F018FB984808F0E0
:1019B00015FB98488DF8185008F010FB06A808F0A1
:1019C0000DFB934808F00AFB312D40F0FD80262FD7
:1019D00040F2F680454606AA04F10D010DF12A00F9
:1019E00011F8013F02F8013BA3F13103B3FA83F38D
:1019F00090424FEA531343EA4505F1D14FF00008F6
:101A000085488DF82A8008F0E9FA06A808F0E6FA79
:101A10007C4808F0E3FA03A9284608F023FB03A852
:101A20008DF8148008F0DAFA774808F0D7FA94F8BD
:101A300020A07A488DF819808DF818A008F0CEFA09
:101A400006A808F0CBFA724808F0C8FA94F82130DA
:101A500073488DF8183008F0C1FA06A808F0BEFAED
:101A60006B4808F0BBFA94F822306E488DF81830B5
:101A700008F0B4FA06A808F0B1FA654808F0AEFA22
:101A80002322002504F1040C06A89444A11811F89F
:101A9000013B00F8013BA3F13103B3FA83F38C451A
:101AA0004FEA531343EA4505F1D14FF000095E4870
:101AB00002F1040801928DF81C9008F08FFA06A834
:101AC00008F08CFAEDB24F4808F088FA03A92846CE
:101AD00008F036FB03A88DF80E9008EBC50B08F054
:101AE0007DFA494808F07AFA0BF10F03BB42019ADC
:101AF00000F2E780BAF1300F00F0A680002506A9B9
:101B00000BF1FF30204401F10F0710F8012F01F80D
:101B1000012BA2F13102B2FA82F28F424FEA521245
:101B200042EA4505F1D10027404801938DF827701E
:101B300008F054FA06A808F051FA324808F04EFAB4
:101B400003A9A8B208F0DAFA03A88DF8107008F01B
:101B500045FA374808F042FA59462046FFF7A2FEF8
:101B6000019B002840D0334808F038FA019BE25C22
:101B7000E118A2F13003012B98BF012303D916E02D
:101B80000133202B36D006F8012B11F8012FA2F1DA
:101B900030000128F4D900226B4427481A7608F057
:101BA0001DFA06A808F01AFA194808F017FA0FB03B
:101BB000BDE8F08F21480FB0BDE8F04F08F00EBA35
:101BC0001F4808F00BFAF2E7A37B16488DF818308F
:101BD0008DF8198008F002FA06A808F0FFF90C4801
:101BE00008F0FCF90F224CE71648019308F0F6F9CB
:101BF000019BBCE71F23CEE7585701086C5701082B
:101C00008057010890570108F87C0108985701088F
:101C1000A8570108AC570108D0570108E057010840
:101C2000F057010800580108105801084C580108E5
:101C30005C580108605801087458010844570108AD
:101C4000BC57010868580108082D3FF657AF002D12
:101C50003BD06B1EDBB20C3202EBC30B0DF11F0746
:101C600000250DF1170204EB080111F8013B02F801
:101C7000013FA3F13103B3FA83F397424FEA5313C1
:101C800043EA4505F1D113488DF8209008F0A6F9F4
:101C900006A808F0A3F9104808F0A0F903A9E8B2D3
:101CA00008F04EFA03A808F108088DF80E9008F025
:101CB00095F90A4808F092F9C345D1D10BF10F0309
:101CC0001CE7074808F08AF971E7C34602F11303DD
:101CD00014E700BF3C58010890570108F87C010840
:101CE00020580108002800F0F98030B583B0044680
:101CF00008F028FB0130235C25180BB9012038E0DF
:101D00002046774908F036FB48BB2046754908F065
:101D100031FB20BB2046744908F02CFB002856D12B
:101D20002046724908F026FB002862D00A21284686
:101D30000DF1070208F088FB9DF80730002BDDD07D
:101D40004FF6FE73421E9A42D8D8694B80B21A8869
:101D50006849824208800BD34008188008E0284672
:101D6000654908F007FB30B16FF00102634B1A6060
:101D7000002003B030BD2846614908F0FBFA20B1CD
:101D80004FF0FF325D4B1A60F2E728465D4908F0DC
:101D9000F1FA20B16FF00202584B1A60E8E7102107
:101DA00028460DF1070208F04FFB9DF80730044666
:101DB000002BA3D0B0F1005FA0D2B0F5006F03D329
:101DC000514B1A78002A50D04C4B1C60D0E70A21A6
:101DD00028460DF1070208F037FB9DF80730002B6D
:101DE0008CD04FF6FE73421E9A4287D8474B18801C
:101DF000BEE72046464908F0BDFA90B10A212846C0
:101E00000DF1070208F020FB9DF80730002B3FF48E
:101E100075AF384B1B8883427FF670AF344B188008
:101E2000A6E720463B4908F0A5FA80B128463A4982
:101E300008F0A0FA002837D0304B384A1B68A3F5C9
:101E40000063934246D900222F4B1A7090E7204638
:101E5000334908F08FFA70B128462F4908F08AFA02
:101E600068B300222F4B1A7082E701222E481A70A5
:101E700008F0B4F8A8E720462C4908F07BFA0028BF
:101E80003FF43CAF0DF107020A21284608F0DCFAC6
:101E90009DF80720002A3FF431AFB0F5803FBFF432
:101EA0002DAF234A108063E72846224908F062FAE2
:101EB00000283FF423AF0122134B1A7058E728463D
:101EC0001C4908F057FA00283FF418AF0122154BBF
:101ED0001A704DE7184808F081F80FE701207047A5
:101EE0008458010890580108D0580108DC580108AE
:101EF000080003200A0003208C5801080400032076
:101F0000985801089C580108512803200C00032010
:101F1000E8580108F858010804590108FFF7FF1FA5
:101F20003459010850280320A458010838590108E1
:101F300000000320305901080859010810B536483F
:101F400084B008F04BF8354B01A9188808F0AAFABC
:101F500001A808F043F8324C324808F03FF8324804
:101F600008F03CF801A9206808F07CF8002301A8DB
:101F70008DF80C3008F032F82368991C40D05A1CB8
:101F800042D0033344D0294808F028F8284B01A94F
:101F9000187808F087FA01A808F020F8254808F01A
:101FA0001DF8254B01A9187808F07CFA01A808F063
:101FB00015F8224808F012F8214B01A9188808F0FA
:101FC00071FA01A808F00AF81E4808F007F81E4B3D
:101FD00001A9188808F066FA01A807F0FFFF1B485E
:101FE00007F0FCFF1A4B01A9188808F05BFA01A85A
:101FF00007F0F4FF174807F0F1FF002004B010BD10
:10200000154807F0EBFFBEE7144807F0E7FFBAE713
:10201000134807F0E3FFB6E740590108000003202A
:10202000040003204C59010854590108745901084F
:10203000512803208059010850280320885901089D
:102040000C000320AC5901080A000320BC59010808
:1020500008000320A85701085C59010864590108C9
:102060006C5901082DE9F0410026104D104FFFF783
:10207000B9F86E626A6A3B889A4212D24FF0804485
:10208000DFF83480B8F800206662636A9342FCD3BC
:102090004FF4007107480AF029F86A6A3B889A42AF
:1020A000F0D301F059FD0020BDE8F0810048014067
:1020B00000000320000402420A0003202DE9F04F33
:1020C0007A4B91B01B88B3F57A7F60D9FFF78AF815
:1020D00072B6774B1868831C00F0D780C71C6DD090
:1020E000411C5BD14FF000094FF0804C714B724A9C
:1020F0001B88B2F800A00393704B0AEB8A041D689A
:102100006A4B6F49B3F800E06E4F64000B69DA0563
:10211000FCD5DCF8242092B20B69DB05F6D5DCF89F
:1021200024309B1AA342F7D30B6913F4807307D0B2
:102130007B6A734500F2B1800B6913F48073F7D1A9
:10214000CCF82430B9F1000F1AD01D464FF0804072
:10215000039ADFF88C81DFF868B104AE436A9342DA
:10216000FCD3DBF81030524413F4807F16F8013BA7
:102170000AD0312BCAD10135A94508F8013BEDD170
:102180004E4BC3F8009032E0302BF4D0BEE74E48FF
:1021900007F024FF002011B0BDE8F08F30244B4B36
:1021A0004B4A1978127804AB0094FFF765F8814622
:1021B000002899D1474807F011FF93E74FF080447A
:1021C0003D4B3F4A188800EB800040001369DE0554
:1021D000FCD5616A89B21369DD05F7D5636A5B1ABC
:1021E0008342F8D300236362304BB3F800E000264B
:1021F000344D6E626B6A73452FD22E4B4FF0804187
:10220000B3F800C02C4B2E4C1F8802E06B6A73455C
:102210002ED2236913F48073F8D162461846D5F89C
:1022200024804B624B6A9342FCD32369013013F440
:102230008073C0B219D00B283A44F3D1A2EB0C0240
:102240004B6A9342FCD36B6AA3EB08031E446B6A90
:102250007345DED3204B03FB06F662B601F07CFC2F
:10226000124B1B88B6FBF3F095E718463A44D9E7C2
:1022700062B601F071FC184B0C4A06FB03F31088A0
:10228000B3FBF0F011B0BDE8F08F4FF080430022B7
:102290005A62064BB3F800E0A9E7084B1D6062B62E
:1022A0000E4807F09BFE01F057FC73E70000032087
:1022B00004000320080003200A0003205428032000
:1022C0000004024200480140D0590108512803206F
:1022D000502803201C570108A0860100EC59010872
:1022E000582803202A4B70B51B680333012B37D9BC
:1022F000FEF778FF72B60022264B5A62FFF730F9DC
:1023000028BBFEF717FF044600283AD162B6224EDA
:102310003368072B2ED9214D284607F05FFE204851
:1023200007F05CFE33682846EC54FFF7F5F9D8B1A6
:10233000284607F053FE1B4807F050FE2846FFF7DB
:10234000BDF9FFF7E3FA01F007FC204670BD62B665
:10235000154807F043FE01F0FFFB0124204670BD45
:10236000124807F03BFEF8E7114807F037FE01F08E
:10237000F3FBF3E70F4807F031FE01F0EDFB2046D9
:1023800070BD62B60C4807F029FE01F0E5FBE4E7FA
:10239000040003200048014054280320582803204B
:1023A000805A0108985A0108345A0108005A010855
:1023B000885A0108685A0108505A01082DE9F04F5F
:1023C00091B0FEF70FFF72B600254FF080427049C2
:1023D0007048714B556205604D621868811C00F0B1
:1023E000A180C31C00F0B380421C7FD1AB464FF0EC
:1023F000804E6A4B6A481E886A4B06EB86041A8830
:10240000694BDFF88C81B3F8009064000369DB0549
:10241000FCD5DEF8241089B20369DF05F6D5DEF8B5
:1024200024305B1AA342F7D3036913F4807307D0F7
:10243000D8F824304B457ED8036913F48073F7D164
:10244000CEF82430BBF1000F00F09B801D46574BA7
:1024500011469A464FF0804703930DF1100C7B6AAA
:102460008B42FCD34E4B31441B6913F4807F1CF824
:10247000013B54D0312BC9D10135AB450AF8013BA2
:10248000EDD1444B06FB0B22C3F800B040F69E731F
:102490009B451AD84FF080414FF0300C3127039BF9
:1024A0000BF1FF30424D3E4C18444B6A9342FCD333
:1024B0002369DB052DD500F8017FA8423244F4D111
:1024C00040F69F739B46334A13600024039B03F836
:1024D0000B4062B601F040FB344807F07FFD354801
:1024E00007F07CFD204611B0BDE8F08F324B334A37
:1024F000197830231278009304ABFEF7BDFE8346B3
:1025000000287FF474AF2E4807F068FD214B1D684A
:102510006DE700F801CFA8423244C6D1D0E7302B96
:10252000AAD073E71D4B1F491E88204B5562AB464E
:102530000A880393AEE7174B1D6062B6214807F087
:102540004DFD01F009FB012011B0BDE8F08F134BE8
:1025500013491E8806EB860464000B69DF05FCD571
:10256000506A80B20B69DD05F7D5536A1B1AA34286
:10257000F8D300230B490D489B46039053620A8809
:1025800088E70A4B0393034BC3F800B082E700BF10
:102590000048014054280320040003200A000320BF
:1025A00000040242080003200000032058280320F2
:1025B000F6370320A857010851280320502803208C
:1025C0001C570108EC590108002800F019812DE979
:1025D000F04F95B0834607F0B5FEB0F57A6F28BF8F
:1025E0004FF47A60894E81463368033340F0C480EB
:1025F000FEF7F8FD72B600254FF08044844B65620B
:102600005D623068834B1D60831C00F0E380C71C53
:1026100000F0C580471C00F0BA80302300937E4B49
:102620001A787E4B197808ABFEF726FE8246002802
:1026300000F0AF807A4B4FF0804E1A8879491346EC
:10264000098802EB8204059177497848B1F8008047
:102650006F4F64000169CE05FCD5DEF82460B6B288
:102660000169C905F6D5DEF82410891B8C42F7D81C
:10267000016911F4807107D0796A414500F2B48094
:10268000016911F48071F7D1CEF82410BAF1000F6E
:1026900000F0B8804FF0804C0D466549059E0691CC
:1026A000049108A903910794DCF82410B142FBD3EC
:1026B0005E49039C0969164411F4807F14F8011BDC
:1026C000039460D0312960D1049C013504F8011BCA
:1026D000AA450494E8D105990024114418464FF006
:1026E00080424FF4007E4FF0300840F69F7C494D09
:1026F000504E4E4F2C60556A8542FCD3A1453FD9C0
:102700001BF80450312D3BD0302D04D14FF0007A0E
:10271000464DC5F818A0556A8D42FCD33D69013479
:10272000ED0544BF312506F8015F3A4D58BF06F864
:10273000018F64452C6018441944DCD14FF47A6051
:1027400000224FF0804100FB03F3069880F89F2F92
:102750004A6A9A42FCD34FF40072344B9A6162B6D3
:1027600001F0FAF9324807F039FC334807F036FC3B
:10277000002015B0BDE8F08F304807F02FFC37E798
:10278000C7F818E0C7E730299ED0079C62E7AA4641
:1027900050E72B4807F022FC1E4B1D684AE7204BF0
:1027A000224D1A88134602EB820149002869C605AA
:1027B000FCD5666AB6B22869C005F7D5606A801B89
:1027C0008842F8D3002161621649098805911849A9
:1027D000069180E7124A134B12881B8814496562E0
:1027E00005930691134676E70A4B1D6062B61548BD
:1027F00007F0F4FB01F0B0F9012015B0BDE8F08F4F
:10280000012070470A49069165E700BF04000320D4
:102810000048014054280320502803205128032059
:102820000A000320080003200000032000040242E5
:102830005828032057280320A8570108A85A010840
:102840001C570108345A01082DE9F04F91B0FEF7EA
:10285000C9FC72B600229C499C4B4A621868831CD2
:1028600000F01881C71C00F04981441C02D14FF0D0
:10287000000E0CE03024964B964A1978127804AB7F
:102880000094FEF7F9FC8646002800F017814FF00F
:102890008044914A914B1288B3F800C00392904B48
:1028A000904A0CEB8C05B2F800B01E688E49864F3A
:1028B0006D000A69D005FCD5606A80B20A69D2054C
:1028C000F7D5626A121A9542F8D80A6912F4807232
:1028D00007D07A6A5A4500F2D2800A6912F48072EF
:1028E000F7D16262BEF1000F00F0258116467F4AE3
:1028F0004FF080489146039802920DF1100AD8F8E3
:1029000024208242FBD3784A6044126912F4807F0B
:102910001AF8012B00F0AA80312ACAD10136B64537
:1029200009F8012BEBD1039A0CFB0E2200244FF087
:10293000804040F69E764FF0310830276A4D416A5C
:102940009142FCD32969013411F480710AD1B64552
:1029500098BF029C624498BF04F80E700C460EF1BA
:10296000010EECE7B64598BF0299624498BF01F8A2
:102970000E80092C0EF1010EE1D10399DFF848A178
:10298000594EC3F800E0511A0393DAF82400584571
:1029900033D840F68E739E452FD8029B0EF1FF353B
:1029A0001D4400204FF080434FF031094FF03008B4
:1029B0000EF101045F6A8F42FCD3052894BF4FF0EB
:1029C00000774FF40077B7615F6A9742FCD33769AD
:1029D0006144FF0554BF05F8018F05F8019FDAF83F
:1029E000247062445F4504EB000ECED801301028FD
:1029F000E0D1DAF824305B45CBD94FF08042039B1D
:102A0000C3F800E0536A8B42FCD32F4C636A5B45EA
:102A100018D84FF0804300274FF000764FF4007530
:102A20000CEB4C01304849004FEA0C1C5F62866198
:102A30005A6A8A42FCD385615A6A6245FCD3626A4B
:102A40005A45F3D9BEF57A6F14D20023029A02F8E0
:102A50000E3062B601F080F8244807F0BFFA24482F
:102A600007F0BCFA002011B0BDE8F08F302A3FF427
:102A700055AF1EE70023029A82F89F3FE9E71E60E8
:102A800062B61C4807F0AAFA01F066F8012011B0FE
:102A9000BDE8F08F4FF08045104C144E104B0E489F
:102AA0001049B4F800C002966A620288D3F800E0C8
:102AB0000392B1F800B00EFB0C2237E70E4807F086
:102AC0008DFA4FF0000EE2E60048014004000320BA
:102AD0005128032050280320080003200A00032067
:102AE0005428032000000320000402425828032039
:102AF000A8570108345A01081C5701084FF08042BA
:102B00000F4B1048B3F800C00CEB8C01490003696F
:102B1000DE05FCD5546AA4B20369DD05F7D5536A16
:102B20001B1B8B42F8D30024074D084B0295084825
:102B300008495462B9E70449039A0291F6E600BFD6
:102B40000A000320000402425828032054280320CE
:102B500008000320000003202DE9F04FA24C93B0A1
:102B600023680333012B40F214818346FEF73AFBBE
:102B700072B600264FF080429C4B5E629C4B1E60FA
:102B800056622068811C00F02581C31C00F04A8138
:102B9000421C72D134464FF0804C964BDFF864A251
:102BA0001D88954B05EB850E1B8894490593944B26
:102BB000DFF83882B3F800904FEA4E0E0B69DB0560
:102BC000FCD5DCF8242092B20B69DF05F6D5DCF8E1
:102BD00024309B1A9E45F7D80B6913F4807308D0F4
:102BE000D8F824304B4500F2C6800B6913F480738B
:102BF000F6D1CCF82430002C00F02E814FF080402C
:102C00001E46804B06AF059A04930397436A93428E
:102C1000FCD37A4B039F1B692A4413F4807F17F877
:102C2000013B03973BD0312BC8D1049F013607F8F5
:102C3000013BB4420497E9D16D4B1C60059B05FB39
:102C4000043300264FF0804240F69E7C4FF031095D
:102C50004FF03008694F0BF1060E516A9942FCD3D0
:102C60003969013611F4807104F101001AD164450B
:102C700021D90E4604462B44EFE7634B1A783023E4
:102C80000093624B197806ABFEF7F6FA044600286B
:102C900081D15F4807F0A2F9554B1E687BE7302BC6
:102CA000C3D08BE7644598BF0AF80490B6452B441F
:102CB00007D90446D1E70AF804800E4601342B44B4
:102CC000CBE701464FF08040059A9E1A426AB24215
:102CD000FCD34FF000774FF08040484A9761426A3A
:102CE0009A42FCD3454A0234126912F4807F40F6BE
:102CF0009E7255D1914261D93D48944204602E4460
:102D00002B4442D84FF080424FF4007C4FF0310802
:102D10004FF0300E3F4F394C5144506AB042FCD313
:102D2000C4F818C0506A8342FCD82069C0051BD47F
:102D300001F801EFB9422E442B44EED140F69F73C7
:102D40002B4A136040F69F7300220AF8032062B6F4
:102D500000F002FF2B4807F041F92F4807F03EF939
:102D6000002013B0BDE8F08F01F8018FB9422E4466
:102D70002B44D2D1E2E71E4B28481C461E6007F0C8
:102D80002DF92368B3F57A6FDED300238AF89F3FCD
:102D9000DDE7234807F022F9012013B0BDE8F08FEA
:102DA0009142A9D8124A2E44146031220AF8012017
:102DB00040F69F7294422B44A4D1C3E70C4A2E44A0
:102DC000146030220AF8012040F69F7294422B448E
:102DD00098D1B7E7084B56621B88064A34461588D7
:102DE000DFF820A005932CE70400032000480140F1
:102DF000542803200A000320080003200004024294
:102E000000000320582803205028032051280320C5
:102E10001C570108F6370320A8570108EC5A01088F
:102E2000D85A01080D4B0E491D8805EB8504640036
:102E30000B69DF05FCD5506A80B20B69DE05F7D55A
:102E4000536A1B1AA342F8D30024064B54621B8812
:102E5000DFF814A00593F4E6059BF2E60A000320D0
:102E60000004024208000320582803209B4B2DE950
:102E7000F04F1B6893B00333012B40F2248181464D
:102E8000FEF7B0F972B60023DFF87CB2944ACBF8B3
:102E90002430DBF824301688B34280F0DA80914C7D
:102EA00009F1060900274FF080428C4B57621D68DC
:102EB0008D4BA91C1F6000F0D680EB1C00F0E48055
:102EC000691C00F0CD8030230093884B28461A7887
:102ED000874B197806ABFEF7CFF98246002800F041
:102EE000CB8038464FF08047824BB3F800E0824BEE
:102EF0000EEB8E0C1B884FEA4C0C04932369DA0509
:102F0000FCD57A6A92B22369DB05F7D57B6A9B1AF6
:102F10006345F8D3236913F4807308D0DBF82430B9
:102F2000B34200F2CA80236913F48073F6D17B6246
:102F3000BAF1000F00F0C4804FF0804118466F4B8B
:102F4000049A03930DF1180805954B6A9342FCD33C
:102F50002369724413F4807F18F8013B1FD0312B92
:102F60001FD1039D013005F8013B82450395ECD14B
:102F7000DDE9043500FB0E3200274FF080410130BF
:102F80004B6A9342FCD32369013713F4807300F139
:102F9000010C08D0B945724409D96046F0E7302BDE
:102FA000DFD0059DAAE71F4672440130E8E74FF0E5
:102FB00080414D4B1860049BD21A4B6A9342FCD35C
:102FC0004FF000734FF080417244A3614B6A93420B
:102FD000FCD34FF4007CC4F818C0DBF82430B342B3
:102FE00037D202357FF45EAF4FF080414FF0000ED4
:102FF0004FF0007B3F4B3B4D1F883F4BDFF808A154
:10300000B3F80080002442462046C1F824E0C1F80D
:1030100024E04B6A9A42FCD82B69013013F4807388
:1030200058D0814504F101043A44F2D8A2EB0802D9
:103030004B6A9A42FCD8C5F818B03A444B6A9A4297
:10304000FCD8C5F818C0DAF824309E42DAD8264BEE
:103050001C6062B600F080FD002013B0BDE8F08F68
:103060003846BA463EE7244B57621A88214B384609
:10307000B3F800E004927FE7214806F0AFFF184B59
:103080001E88194B18682DE71A4B1649B3F800E053
:103090000EEB8E077F000B69D805FCD5506A80B215
:1030A0000B69DB05F7D5536A1B1ABB42F8D3002026
:1030B000114B50621A8804925EE70B4B1860C8E708
:1030C0005046049A58E70F4806F088FF012013B0D5
:1030D000BDE8F08F184601343A449AE70400032013
:1030E000000003200004024254280320502803203B
:1030F000512803200A000320080003205828032039
:103100001C570108D85A0108004801400870704750
:1031100000787047030A08704B707047012994BF0C
:1031200000780088704700BF012908D94FF6FE23B8
:1031300002889A4203D8981AC0F34F0070470020C3
:10314000704700BF012911D94378FA2B07D8084AE4
:10315000C3EB0330A2FB0020C0F30F10704740F612
:10316000FF72FF2B0CBF00201046704700207047F5
:10317000D34D6210022907D94FF6FF73B0F8010052
:10318000984208BF0020704700207047042907D9E3
:103190004FF6FF73B0F80300984208BF0020704755
:1031A00000207047012907D94FF6FF730088984225
:1031B00008BF4FF4006070470020704701290ED906
:1031C0004FF6FF730088984209D047F27F53984228
:1031D00038BF1846A0F5EA407F3880B270474FF4F8
:1031E00000607047032986BFC078C0F381000020CB
:1031F000704700BF09B1007870470846704700BFAC
:10320000012906D9437803F00F03013BDBB2022BFF
:1032100001D900207047024A32F81300704700BFFE
:103220007485010819B10178C1F38100704708461F
:10323000704700BF032986BFC07800F0030000205C
:10324000704700BF034600B583B008465BBA022250
:103250000DF10601ADF8063007F068F803B000BDC7
:103260008446002310B50C4682B00DF10600022200
:103270006146ADF8063007F059F8BDF80600012C9C
:1032800098BFC0B240BA80B202B010BD002300B5F2
:10329000012983B0ADF8063002D8184603B000BD4E
:1032A000014602220DF1060007F040F89DF80600E5
:1032B00003B000BD38B50D4604460822FF2128465C
:1032C00007F030F8B4F5FB4F0ADAC4F5FA447F345E
:1032D000640004F0FE03C4F307242B706C7038BD47
:1032E000002423466C702B7038BD00BF38B50D46E6
:1032F0000822FF210446284607F014F8FA2204FBAE
:1033000002F2044BA3FB0213D21A03EB5203DB0AB3
:103310006B7038BD0101100038B50C460546082217
:10332000FF21204606F0FEFF2B0A6570A37038BD12
:1033300038B50C4605460822FF21204606F0F2FF6C
:103340002B0AE570237138BD38B50C4605460822B6
:10335000FF21204606F0E6FF2B0A2570637038BD7A
:1033600038B50C4608220546FF21204606F0DAFF54
:1033700048F6802247F27F53954294BF5B199B1811
:103380009BB21A0A2370627038BD00BF38B50D4673
:1033900004460822FF2128467D3406F0C3FFAC70A6
:1033A00038BD00BF38B50D4604460822FF21284627
:1033B00006F0B8FFEB78A40023F00C0304F00C0433
:1033C0002343EB7038BD00BF38B50C4605460822D4
:1033D000FF21204606F0A6FF257038BDFF2838B52E
:1033E0000D460FD9C3B2002B0CBF012403240822C1
:1033F000FF21284606F096FF6B7823F00F031C434D
:103400006C7038BD031E18BF01235C00EFE700BFDE
:1034100038B50D4604460822FF21284606F082FFF3
:103420002B78A40023F00C0304F00C0423432B702E
:1034300038BD00BF38B50C4605460822FF2120469E
:1034400006F070FFE37805F0030523F003032B4338
:10345000E37038BD38B50D4604460822FF212846E2
:1034600006F060FF012C0AD0022C05D0032C0CBF03
:10347000D723FF23AB7038BDC723AB7038BDC32340
:10348000AB7038BD38B50C4605460822FF212046F2
:1034900006F048FFEBB2022B12D0032B09D0042B0D
:1034A0000CBF51230023FF2D88BF43F0040323707A
:1034B00038BD1123FF2D88BF43F00403237038BDAE
:1034C0000123FF2D88BF43F00403237038BD00BFE4
:1034D00038B50C4605460822FF21204606F022FF9B
:1034E00015F0080F0CBF0021FA2115F0100F0CBFCA
:1034F0000022FA2215F0200F0CBF0023FA2315F04A
:10350000400F0CBF0020FA2015F0800FE0700CBFB8
:103510000020FA2015F0010F21700CBF0021FA21C4
:1035200015F0020F62700CBF0022FA2215F0040F92
:10353000A3700CBF0023FA2320716171A271E371A3
:1035400038BD00BF022906D980787D38C0B28128F5
:1035500088BF002070470020704700BF032906D9AC
:10356000C0787D38C0B2812888BF00207047002015
:10357000704700BF02290FD9837803F00C02042A98
:1035800001D001207047C3F30113012B06D0002B9B
:103590000CBF0220012070470020704703207047B5
:1035A00007292DD903784278A3F1FA03B3FA83F3FC
:1035B000FA2A4FEA531382784FEAC30308BF43F055
:1035C0001003FA2AC27808BF43F02003FA2A0279CE
:1035D00008BF43F04003FA2A427908BF43F0800352
:1035E000FA2A827908BF43F00103FA2AC27908BF98
:1035F00043F00203FA2A08BF43F004031846704759
:103600000020704700787047D9B103789A09012AE1
:103610000ED003F03002102A15D003F00302012A65
:1036200014BF0120022003F00C03042B06D07047C6
:1036300003F00C03042B4FF00400F8D140F47F405A
:103640007047084670470320EDE700BF00787047D9
:1036500000787047007870470078704708707047AE
:10366000087070470870704708707047087070479E
:1036700038B50D460822FF210446284606F052FEC2
:10368000FA2204FB02F2044BA3FB0213D21A03EB4F
:103690005203DB0A6B7038BD01011000012911D9FA
:1036A0004378FA2B07D8084AC3EB0330A2FB00206B
:1036B000C0F30F10704740F6FF72FF2B0CBF0020C5
:1036C0001046704700207047D34D6210034600B586
:1036D00083B008465BBA02220DF10601ADF8063050
:1036E00006F024FE03B000BD034600B583B00846D3
:1036F0005BBA02220DF10601ADF8063006F016FEA7
:1037000003B000BD034600B583B008465BBA022291
:103710000DF10601ADF8063006F008FE03B000BD5D
:10372000034600B583B008465BBA02220DF10601DC
:10373000ADF8063006F0FAFD03B000BD034600B553
:1037400083B008465BBA02220DF10601ADF80630DF
:1037500006F0ECFD03B000BD034600B583B008469B
:103760005BBA02220DF10601ADF8063006F0DEFD6F
:1037700003B000BD034600B583B008465BBA022221
:103780000DF10601ADF8063006F0D0FD03B000BD26
:10379000034600B583B008465BBA02220DF106016C
:1037A000ADF8063006F0C2FD03B000BD844600232C
:1037B00010B50C4682B00DF1060002226146ADF84C
:1037C000063006F0B3FDBDF80600012C98BFC0B26C
:1037D00040BA80B202B010BD8446002310B50C463A
:1037E00082B00DF1060002226146ADF8063006F007
:1037F0009DFDBDF80600012C98BFC0B240BA80B252
:1038000002B010BD8446002310B50C4682B00DF105
:10381000060002226146ADF8063006F087FDBDF8CD
:103820000600012C98BFC0B240BA80B202B010BDF1
:103830008446002310B50C4682B00DF1060002222A
:103840006146ADF8063006F071FDBDF80600012CAA
:1038500098BFC0B240BA80B202B010BD8446002307
:1038600010B50C4682B00DF1060002226146ADF89B
:10387000063006F05BFDBDF80600012C98BFC0B213
:1038800040BA80B202B010BD8446002310B50C4689
:1038900082B00DF1060002226146ADF8063006F056
:1038A00045FDBDF80600012C98BFC0B240BA80B2F9
:1038B00002B010BD8446002310B50C4682B00DF155
:1038C000060002226146ADF8063006F02FFDBDF875
:1038D0000600012C98BFC0B240BA80B202B010BD41
:1038E0008446002310B50C4682B00DF1060002227A
:1038F0006146ADF8063006F019FDBDF80600012C52
:1039000098BFC0B240BA80B202B010BD70B51546C3
:103910000E46044682B028460822FF2106F002FD2A
:1039200044EA0624022228460DF10601ADF80640BD
:1039300006F0FCFC02B070BD002300B5012983B085
:10394000ADF8063002D8184603B000BD0146022289
:103950000DF1060006F0EAFCBDF80600000A03B00F
:1039600000BD00BF38B50C4605460822FF212046A1
:1039700006F0D8FC257038BD09B1007870470846BC
:10398000704700BF38B5154604460822FF21284677
:103990007D3406F0C7FCEC7038BD00BF00207047D6
:1039A00038B50D4604460822FF21284606F0BAFC29
:1039B000A31EDBB2042B06D8054A0649D25CCB5CB9
:1039C0002A706B7038BDFC2300226B702A7038BDE2
:1039D0006C85010864850108012918D9037803F072
:1039E0000302012A17D003F00C02042A15D003F0B9
:1039F0003002102A0DD003F0C003402B0FD04378C3
:103A000003F00303012B0CBF0620012070470020A8
:103A1000704705207047022070470320704704203C
:103A2000704700BF2DE9F04F3A4B8346984283B070
:103A300007D8394B984260D94FF028094FF448769F
:103A400009E036494FF02509B1FBFBF1C9B219294C
:103A500040F2EE265BD90124304B0134A4B2B3FB13
:103A6000F4F1B1FBFBF1C9B21929F6D8B4F5806FB6
:103A70003FD201202A4BCDF804B01F6823186FF005
:103A8000004C4FF47A759B461FFA83FAA1F1020E9F
:103A9000BEEB510F4FEA51031ADD01F1FF385FFA17
:103AA00088F805FB03F2B2FBF1F2B21A002AB8BFA4
:103AB0005242624509DA914507DB00209446A8EBA3
:103AC0000302D2B2FB617C613A6201337345E8DBE9
:103AD000124B1FFA8BF4B3FBFAF1019BB4F5806F24
:103AE000B1FBF3F10AF1010AC9B203D004F1010BF1
:103AF000CCE7012003B0BDE8F08F08494FF02B0957
:103B0000B1FBFBF1C9B2192940F26B36A3D80124ED
:103B1000AFE700BF00350C0020A10700005A620289
:103B2000F038032038B50C46064D0749074B0A60AC
:103B30002860074901201C600EF0A4FD054B1860A9
:103B400038BD00BFF0380320E8380320EC380320EC
:103B5000003803205038032030B53F4C83B0206834
:103B600007F074FB206807F0B9F9002851D1002252
:103B70003A4D40213A482A71EA602A616A61AA6195
:103B8000AA60EA6185F8202008F0AAFA206805F109
:103B9000240107F08DFA00285BD13249206807F034
:103BA00087FA002852D10023022220681146009390
:103BB00007F0AAFA002846D1206807F0EBFA00289F
:103BC0003ED100220121206807F09CFCA8BB002206
:103BD0000621206807F096FC60BB07224FF4F051E5
:103BE000206807F08FFC10BB07228021206807F0B7
:103BF00089FCC8B900221C49206807F083FC80B901
:103C000000224FF46021206807F07CFC20B903B04B
:103C100030BDFDF77DFAAAE703B0BDE83040FDF7FF
:103C200077BAFDF775FAEBE7FDF772FAE2E7FDF711
:103C30006FFAD9E7FDF76CFACFE7FDF769FAC6E747
:103C4000FDF766FABDE7FDF763FAB5E7FDF760FA41
:103C5000A9E7FDF75DFAA0E7F03803201000032084
:103C6000000402424C00032000407100014B186820
:103C700007F0ECBAF0380320704700BF082824D8BA
:103C8000DFE800F0080C1014171A1D200500144876
:103C9000FFF7C8BE42F21070FFF7C4BE44F62060C2
:103CA000FFF7C0BE4CF25030FFF7BCBE0D48FFF727
:103CB000B9BE0D48FFF7B6BE0C48FFF7B3BE0C48BF
:103CC000FFF7B0BE0B48FFF7ADBE0B4AA0F51C5383
:103CD000103B934201D901207047FFF7A3BE00BFFC
:103CE00040420F00A086010048E8010090D0030088
:103CF00020A1070000350C00301B0F000346054AC9
:103D00001978002051615978D16199781162DB7876
:103D100093617047602703200246024B00209A619E
:103D2000704700BF60270320034600B5064A93F89A
:103D300001E093F800C082F810E004499B7881F814
:103D400000C05374002000BD6027032080030320BF
:103D50002DE9F047054682B0C0680F4606F0DAFA52
:103D6000AB68B3F1005F3ED00646824600F12409FD
:103D7000264C4FF0FF3120680EF042FD0128F8D1AB
:103D8000DFF89480D8F800000EF020FF484517D2E5
:103D900002251F4A13792B431371002320681A460A
:103DA00019460EF0D3FB1B4A02231268106800224A
:103DB0001146009210F0E0F9284602B0BDE8F08705
:103DC00029464FF0FF332422D8F800000EF020FFE0
:103DD000054686B94D450CD00D4A0125137943F0AF
:103DE00008031371D9E74FF0000A4FF02409564633
:103DF000BEE70025D1E7524639464FF0FF33D8F8E9
:103E000000000EF005FF0544E4E700BF5038032032
:103E100010000320EC380320F837032030B40122CF
:103E2000002410200A4B04211B684FF440751C82AB
:103E3000C3E90520DC6018623F240F209A74C3E9AF
:103E40000125DC61C3E9092130BC1963D8627047E0
:103E5000F03803202DE9F04700250C4682B0C90751
:103E60000646019516D4A20707D50221314A1379D7
:103E700043F00103137133681965630738D4019B5C
:103E80002BB14FF0E0234FF08052C3F8042D02B065
:103E9000BDE8F087DFF8A890DFF8988040214A4617
:103EA000254B07F04BFAD8F81430D9F80C00013341
:103EB000C8F8143006F02EFADFF888A00746DAF8C2
:103EC00000000EF083FE07F12803984224D34946F0
:103ED0002822DAF8000001AB0EF034FF002FC2D028
:103EE0003A46DAF80000144901AB0EF02BFFBAE7AE
:103EF0000424104B11499A69086801329A611A79B1
:103F0000002142F008021A71336800680DEB0402C8
:103F10001C6510F051FAB2E7D8F818302946013381
:103F2000C8F81830054B01AA1B68186810F044FA4D
:103F300099E700BF10000320A8380320E8380320C9
:103F400080380320FC370320002110B50A4A0B4CAF
:103F50001268236982B01068013301AA23610191BC
:103F600010F02AFA019B2BB14FF0E0234FF0805262
:103F7000C3F8042D02B010BDEC380320100003205C
:103F8000002110B50A4A0B4C1268E36982B0106830
:103F9000013301AAE361019110F00EFA019B2BB1EC
:103FA0004FF0E0234FF08052C3F8042D02B010BD53
:103FB000E83803201000032038B50C46104D294680
:103FC00007F056FAA10303D5EB68A3B90D4A1360B5
:103FD000620309D52B690B4A012B13790CBF43F0FF
:103FE000040303F0FB031371230303D50122054BE4
:103FF00083F8202038BD4FF00042024B1A60E7E7FB
:104000005438032010000320F0B500250B7885B04C
:10401000074602950395CBB10C460DF1FF3608E03B
:104020002046D5B206F01AF914F8023F06F8010F3F
:1040300023B163786A1C0BB3072DF1D18DF80850BA
:104040002A4669460DF1090011F0A0FA00230E4C32
:104050000820C4E90533C4E90133276006F060F99C
:10406000082203460DEB02010848E36006F05EF902
:1040700020460649FFF76CFE05B0F0BD8DF80850EC
:10408000002DDDD1E2E700BF00390320F438032022
:1040900042F202032DE9F043002499428BB04454CC
:1040A00000F2BA80002900F07A8100F1FF3E013968
:1040B000F4467346014405E00A2A1CBF0255013448
:1040C0008B4209D013F8012F082AF5D1002CF7D024
:1040D0008B4204F1FF34F5D10025AC42055540F385
:1040E00058812A460EEB04031CF8011F202900F01A
:1040F000898082B99C4505F101050CF101010CD0C4
:104100009CF80140202C7FD0994206D01CF8022F49
:10411000203A18BF01229C45E6D1A24901AA06F027
:104120005FF90446002800F081809F4906F022F9DB
:10413000002800F00981012D40F3B1809949002049
:1041400001AA06F04DF99949044606F013F9002832
:1041500070D12046964906F00DF9002800F09A81AA
:10416000944805F03BFF944805F038FF914805F06E
:1041700035FF924805F032FF914805F02FFF8F4838
:1041800005F02CFF8F4805F029FF8F4805F026FF2A
:104190008A4805F023FF8D4805F020FF8C4805F084
:1041A0001DFF864805F01AFF8A4805F017FF8A4868
:1041B00005F014FF814805F011FF884805F00EFF57
:1041C000874805F00BFF874805F008FF864805F093
:1041D00005FF864805F002FF854805F0FFFE85488B
:1041E00005F0FCFE844805F0F9FE844805F0F6FE73
:1041F000724805F0F3FE6F4805F0F0FE804805F0C8
:10420000EDFE0CE0002286E7994286D01CF8021FE2
:1042100020297FF46FAF7EE77A4805F0DFFE7A4809
:1042200005F0DCFE00200BB0BDE8F083774805F018
:10423000D5FEF4E75F4805F0D1FE5F4805F0CEFEFD
:104240005C4805F0CBFE5D4805F0C8FE704805F0FF
:10425000C5FE5A4805F0C2FE5A4805F0BFFE6D483B
:1042600005F0BCFE554805F0B9FE584805F0B6FE0D
:10427000694805F0B3FE514805F0B0FE554805F019
:10428000ADFE664805F0AAFE4C4805F0A7FE53486F
:1042900005F0A4FE624805F0A1FE6248A6E7454885
:1042A00005F09CFE444805F099FE424805F096FE54
:1042B000424805F093FE5C4805F090FE3F4805F04B
:1042C0008DFE5A4805F08AFE594805F087FE594888
:1042D00005F084FE584805F081FE584805F07EFE42
:1042E000574805F07BFE574805F078FE564805F024
:1042F00075FE564805F072FE554805F06FFE5548AC
:1043000005F06CFE544805F069FE544805F066FE61
:10431000534805F063FE534805F060FE524805F02F
:104320005DFE524805F05AFE514805F057FE5148CF
:1043300005F054FE214805F051FE4F4805F04EFEB1
:104340001C4805F04BFE6AE720464C4906F012F87F
:1043500000287FF4F0AE2046494906F00BF800280B
:104360007FF4E9AE2046474906F004F807460028E6
:104370007FF4E1AE2046444905F0FCFF804600286A
:1043800000F00681022D00F0D680404805F026FEA0
:1043900045E77FF4C2AE3E4805F020FE3FE70170DE
:1043A000F9E700BF305B0108605B01087C5B010836
:1043B0001C5D0108845B0108C45B0108A857010863
:1043C000245D0108005C0108385D0108445C0108B7
:1043D000745D0108685C0108885D0108BC5C010827
:1043E000D45D0108F45D0108045E0108245E010843
:1043F000345E0108545E0108645E0108905E0108A5
:1044000060600108185B0108C87B0108345B010883
:10441000F05B0108105C01084C5C0108745C010849
:10442000C85C01080C5D0108B4600108586101080E
:1044300064610108D8610108606201088C620108AA
:10444000DC6201082C6301087C630108D463010865
:10445000406401086864010894640108F464010878
:104460005C650108A8650108EC650108186601088B
:1044700070660108C866010834670108685B0108B6
:10448000705B0108785B0108A45E010854670108AD
:104490002C5B01082046914905F06CFF002846D0AE
:1044A0008F4805F09BFD8F4805F098FD8C4805F07E
:1044B00095FD8D4805F092FD8C4805F08FFD8A48EA
:1044C00005F08CFD8A4805F089FD8A4805F086FDD7
:1044D000854805F083FD884805F080FD874805F094
:1044E0007DFD814805F07AFD854805F077FD85481A
:1044F00005F074FD7C4805F071FD834805F06EFD04
:10450000824805F06BFD824805F068FD814805F0A2
:1045100065FD814805F062FD804805F05FFD80483B
:1045200005F05CFD7F4805F059FD7F485EE67F4859
:1045300005F054FD62E638467D4901AA05F050FFBA
:1045400003780446002B3FF46AAE051D413B232B44
:1045500013D8DFE803F04139312912121212121276
:10456000121212121212121212121212121212122B
:10457000121212121212413931296E4805F02EFD25
:1045800014F8013F002B3FF44AAEA542DED146E6C7
:104590002046694905F0EEFE00284ED0022D1FD0BE
:1045A000664805F01BFD3AE6654805F017FD002159
:1045B000442002F033FDE3E7624805F00FFD0021DF
:1045C000432002F02BFDDBE75F4805F007FD0021EB
:1045D000422002F023FDD3E75C4805F0FFFCCFE763
:1045E0004046534901AA05F0FBFE03780446002B20
:1045F0003FF415AE051D413B232B13D8DFE803F034
:104600003E36422E121212121212121212121212EE
:10461000121212121212121212121212121212127A
:104620003E36422E434805F0D9FC14F8013F002BDA
:104630003FF4F5ADA542DED1F1E52046444905F051
:1046400099FE002800F0B180012D00F0A680AE1E7A
:10465000012E1FD93F4805F0C1FCE0E53E4805F0BA
:10466000BDFC0121442002F0D9FCDEE73B4805F007
:10467000B5FC0121422002F0D1FCD6E7384805F014
:10468000ADFCD2E7374805F0A9FC0121432002F038
:10469000C5FCCAE7264901AA002005F0A1FE05F0E5
:1046A00001FEB0F5006F80F098802F4F022D38602A
:1046B00000F08A801E4901AA002005F091FE0646FE
:1046C00005F040FEC107044600F18B80102800F27F
:1046D00088803546DFF8948050E000BFA45E010872
:1046E000845B0108C45B0108A8570108AC5E01089F
:1046F000005C0108C05E0108445C0108FC5E010822
:10470000685C0108105F0108BC5C01085C5F01087F
:104710007C5F0108905F0108B05F0108C45F010879
:10472000E45F0108F85F01082460010838600108AF
:10473000305B01085C6801081C5D010884680108A1
:104740003868010814680108F0670108A4670108C7
:104750005C6901087C69010838690108F068010892
:10476000D46801081469010858390320503903201E
:10477000284605F073FD023508F8010BAB1B9BB210
:104780009C42F5D8601CC0F3470005F0C9FD034604
:10479000AC48FB6005F022FC41E54FF0FF32AA4B2C
:1047A000AA481A6005F01AFC39E52046A84905F028
:1047B000E1FD002861D0012D52D0AE1E012E14D98A
:1047C000A44805F00BFC2AE5002005F0A9FD0346EE
:1047D000A148FB6005F002FC21E5A04805F0FEFBC6
:1047E0001DE59F4805F0FAFB19E59E4901AA002046
:1047F00005F0F6FD05F056FDB0F5006F80F0AB80DA
:10480000994F022D386000F09D800DF009FD2821A0
:104810000DF008FD01AA9349002005F0E1FD0646D0
:1048200005F090FDC2070446DBD41028D9D83546E0
:10483000DFF89C8205E0284605F010FD023508F8F7
:10484000010BAB1B9BB2A342F5D3601CC0F3470026
:1048500005F066FD03468548FB6005F0BFFBDEE41E
:104860004FF0FF32804B82481A6005F0B7FB0DF025
:10487000D7FC18210DF0D6FCD1E420467D4905F087
:1048800079FD10B3032D03D07B4805F0A7FBC6E4E8
:10489000744901AA002005F0A3FD7249054601AA4A
:1048A000002005F09DFD0A21002205F0CDFD734991
:1048B0000446284605F05EFDA0B1714B71485C616D
:1048C00005F08CFBFFF748F9A9E420466E4905F096
:1048D00051FD0746002842D0032D0FD06B4805F04C
:1048E0007DFB9CE428466A4905F044FD002843D03E
:1048F000634B6848DC6105F071FBE3E75949002030
:1049000001AA05F06DFD6449044605F033FD002859
:1049100074D040F2DF7401AA5249002005F060FD16
:10492000054605F00FFD421E92B20D2A034661D8DE
:10493000DB075FD420462946FFF766FB574805F0A2
:104940004DFB6CE4002005F0EBFC03465448FB6093
:1049500005F044FB63E4534805F040FB5FE4204668
:10496000514905F007FD0646002851D0022D10D010
:104970004E4805F033FB52E428464D4905F0FAFC59
:10498000002800F0BD803E4B4A481C6205F026FB23
:1049900098E73846334901AA05F022FD451E041D5B
:1049A00015F8012FA2F12A03002A3FF438ACA542E2
:1049B0003FF435AC1A2B00F20E81DFE813F003014F
:1049C0000C010C010C010C010C010C010C010C017F
:1049D0000C010C010C010C010C010C010C010C016F
:1049E0000C010C010C010C010C010C018B003900B5
:1049F00098008F00304805F0F1FA10E420462F4966
:104A000005F0B8FC002800F0868040F2E17482E7EF
:104A100020462B4905F0AEFC0746002800F0028135
:104A2000022D00F0DC80274805F0D8FAFFF7F7BB2D
:104A3000254805F0D3FA40F2E1702449FFF7E4FA83
:104A4000AEE700BF006A0108583903206469010815
:104A50002C6A0108506A0108C8690108A4690108A4
:104A6000E8690108305B01082C390320C46A010899
:104A7000346A0108EC6A0108F06A0108D05801089C
:104A8000602703200C6B0108506C0108546C01086E
:104A9000246B01082C6B0108906C0108286D01083B
:104AA000A46A0108786A01083C6D0108446D010898
:104AB000406B0108486B0108FC6C0108946C01080C
:104AC000F46D0108FC6D0108B86D0108846D0108E2
:104AD00024390320964805F081FA61E7954805F0EE
:104AE0007DFA40F2E3709449FFF78EFA58E7934855
:104AF00005F074FA40F2E2708F49FFF785FA4FE74C
:104B000028468F4905F036FC68B18E4B8E489C6173
:104B100005F064FAD6E620468C4905F02BFC80B1FE
:104B200040F2E274F7E62846894905F023FC80B19B
:104B3000003C18BF0124834B86481C7405F04EFAD4
:104B4000C0E62046844905F015FC80B140F2E374CC
:104B5000E1E62846814905F00DFC90B1003C18BF04
:104B60000124784B7E485C7405F038FAAAE62046AA
:104B70007C4905F0FFFB90B17B4805F02FFA00243B
:104B8000C9E62846794905F0F5FB60B1003C18BF3D
:104B90000124774B77481C7005F020FA92E676489E
:104BA00005F01CFAEBE72846744905F0E3FB002802
:104BB00072D0002C69D1724805F010FA0222614BC4
:104BC000DA607FE66F4805F009FA40F2DF705A4973
:104BD000FFF71AFAE4E6684805F000FAE0E6304626
:104BE000694901AA05F0FCFB451E041D15F8012FBB
:104BF000A2F12A03002A3FF412ABA5423FF40FAB07
:104C00001A2B3ED8DFE803F0343D3D3D3D3D3D3DB0
:104C10003D3D3D3D3D3D3D3D3D3D3D3D3D3D3D30D1
:104C2000274C1E002046594905F0A4FB06460028E3
:104C300067D0012D5AD0022D3BD0554805F0CEF952
:104C4000FFF7EDBA534805F0C9F940F2E370524955
:104C5000FFF7DAF9CAE7514805F0C0F940F2E17010
:104C60004D49FFF7D1F9C1E7314805F0B7F9BDE784
:104C70004B4805F0B3F940F2DF704749FFF7C4F93C
:104C8000B4E73D4805F0AAF9B0E7464805F0A6F9B3
:104C900000222C4BDA6015E6434805F09FF911E637
:104CA000424805F09BF940F2E2703B49FFF7ACF94E
:104CB0009CE73549384601AA05F092FB3C49044679
:104CC00005F058FB88BB20463A4905F053FB38B342
:104CD000394C3A4801F0A8F9214640F2DF70FFF75D
:104CE00093F9374805F07AF9FFF799BA354A334B0B
:104CF00012689A420CBF3448344805F06FF9FFF748
:104D00008EBA2046324905F035FB0746002800F0F0
:104D10008D80012D66D02F4805F060F9FFF77FBA2E
:104D20002D4805F05BF9FFF77ABA2C4C2C48D1E7F7
:104D3000906D0108E06D0108846D0108CC6D0108DB
:104D40005C6B010860270320606B0108986C010808
:104D5000746B0108806B01089C6C0108A86B01084A
:104D6000B86B0108A06C0108A46C0108D46B0108A1
:104D700080030320E06B0108D86C0108006C010877
:104D8000046C0108606D0108305B0108A86E010821
:104D90000C670108886E01083C6E0108486E010826
:104DA000146E0108206C0108386C0108686E010857
:104DB000046F01080C6F0108005B0108C48A010838
:104DC000486F010888000320B46E0108DC6E0108FA
:104DD0006C6F0108786F0108146F01080C5B010803
:104DE000E88A010801AABF49304605F0F9FABE4831
:104DF00005F0F4F8304602F04BF932200DF034FAA9
:104E00002946422002F00AF903F0BEF90DF02CFA0F
:104E10002946432002F002F903F0B6F90DF024FA16
:104E20002946442002F0FAF8FFF7F9B92046AF49C5
:104E300005F0A0FA30B1022D20D0AD4805F0CEF833
:104E4000FFF7EDB92046AB4905F094FA002800F0D1
:104E5000C580012D40F3BD800020A24901AA05F0C4
:104E6000BFFA044600283FF4DAA9A34905F082FA04
:104E7000E0B1A24805F0B2F8FFF7D1B93846994938
:104E800001AA05F0ADFA451E041D15F8012FA2F187
:104E90004103002A3FF4C3A9A5423FF4C0A9032B54
:104EA00000F22482DFE803F0912D240B2046944980
:104EB00005F060FA60B1FDF715FAFFF7B0B9914857
:104EC00005F08CF840F2E3708F49FFF79DF8DCE7BE
:104ED00020468E4905F04EFA0646D8B18C4805F0BA
:104EE0007DF8FDF7BFF88B4805F078F8FFF797B924
:104EF000894805F073F840F2E2708349FFF784F8BF
:104F0000C3E7864805F06AF840F2E1707E49FFF792
:104F10007BF8BAE72046824905F02CFA00286CD0CD
:104F2000804805F05BF8FDF7C9F84FF47A73044642
:104F3000B0FBF3F002A903FB104405F0B3FA0A2119
:104F40000346B4FBF1F24FF02E09642503F1280863
:104F5000E84408F8209CB2FBF1F8B4FBF5F54FF0FB
:104F6000200E4FF0250C0D2701FB124401FB1822E7
:104F70000DF12808591C58FA81F1303501F8205CF0
:104F8000991C303258FA81F101F8202CDA1C58FAB9
:104F900082F2303402F8204C1A1D58FA82F202F8DC
:104FA00020EC5A1D58FA82F202F820CC9A1D0733E1
:104FB00058FA82F258FA83F302F8207C02A803F828
:104FC000206C05F00BF8FFF72AB9574805F006F8F2
:104FD0005BE7564805F002F8FFF721B9204654492F
:104FE00005F0C8F900287FF434AF2046514905F098
:104FF000C1F978B10120FFF716B920464E4905F0F6
:10500000B9F9064648B34D4804F0E8FFFDF7D6F974
:10501000FFF705B920464A4905F0ACF90028E9D167
:105020002046484905F0A6F90028E3D12046464924
:1050300005F0A0F906460028DCD12046434905F0DA
:1050400099F9002800F0B980012D2BD0022D11DD37
:105050003F4804F0C3FFFFF7E2B820463D4905F0A2
:1050600089F900287ED0032D26D03B4804F0B6FFF6
:10507000FFF7D5B830461B4901AA05F0B1F9451E26
:10508000C41C15F8012FA2F14103002A3FF4C7A860
:10509000A5423FF4C4A8032B00F22C81DFE803F003
:1050A000BC7E6F972D4804F099FFC8200DF0DCF806
:1050B00005F0AAFDFFF7B3B80A4901AA304605F08A
:1050C0008FF90A2102AA8DF8086005F0BDF99DF854
:1050D0000830C4B2012B00F09480214804F07EFF18
:1050E000FFF79DB8305B0108A06F0108FC6F010855
:1050F00008700108BC700108605B010804710108B8
:10510000CC7701087870010848700108D47701084D
:10511000D8770108E4770108547001082470010869
:10512000EC770108F4770108906D0108C870010858
:10513000C07001086C7901080C7801081478010826
:105140007079010878790108807901088879010867
:10515000E07901082C780108347801089079010879
:105160006C7801082046654905F004F9002871D0E3
:10517000032D55D0624804F031FFFFF750B8614865
:1051800004F02CFF0021432001F048FF32200DF0F5
:105190006BF80121432001F041FF72E75A4804F007
:1051A0001DFF0021422001F039FF32200DF05CF894
:1051B0000121422001F032FF63E72046534905F008
:1051C000D9F898B1524804F009FFFFF728B85148C0
:1051D00004F004FF0021442001F020FF32200DF0F4
:1051E00043F80121442001F019FF4AE74A4804F03E
:1051F000F5FE204604F0F2FE484804F0EFFEFFF70B
:105200000EB8474804F0EAFE2046FDF72FFE454859
:1052100004F0E4FEFFF703B8434804F0DFFE30E794
:10522000424901AA002005F0DBF800230A2102AA66
:105230008DF8083005F008F99DF80830C4B2012B4C
:105240007FF44BAF364804F0C9FE2046FDF784FCDE
:10525000FEF7E5BF2046364905F08CF848B13548E1
:1052600004F0BCFE032D11D0334804F0B7FEFEF766
:10527000D6BF2046314905F07DF8064678B1304862
:1052800004F0ACFEFDF7E0FAFEF7C9BF274901AA1A
:10529000002005F0A5F8FDF797F9FEF7C0BF2046FE
:1052A000284905F067F870B1042DDDD11F4901AA26
:1052B000304605F095F8FCF715FD68B9194804F07B
:1052C0008DFEFEF7ACBF20461F4905F053F840B1F4
:1052D000FCF734FEFEF7A3BF1C4804F07FFEFEF788
:1052E0009EBF1B4804F07AFEFEF799BF194804F0F0
:1052F00075FECAE5174804F071FEC2E68078010821
:105300008C780108C47A0108B07A0108EC7A0108A7
:10531000F47A0108D87A0108707B0108847B0108BF
:105320005878010864780108647A0108305B010844
:10533000B4780108BC780108C8780108E878010849
:10534000F07801080C7901082C790108107901081E
:10535000347901089C7001082DE9F047037805466F
:10536000A3F13002012A0E46A0B040F28F80002245
:10537000824FCDE90B227979012910D00024DFF882
:105380000082752BD8F80020CDE90D440A9213D184
:10539000132E00F06E81002020B0BDE8F087701E53
:1053A000295C0024692904BF4FF000420646752B92
:1053B000CDE90D440A92EBD0295D2246722905EB16
:1053C000040900F0E58000F2458152297FD054297C
:1053D0007DD0233B562B00F23881DFE813F0ED033C
:1053E0003601AE033601360136013601360136018B
:1053F00036013601360136013601360136013601F5
:1054000036013601360136013601360136013601E4
:105410003601360136015B01530336013601A40320
:10542000830376036E031C045B0117040F04F60369
:105430006D042D0453046003360136013601B301B7
:105440003601360199018D0184017A01600136012E
:10545000360136013601360136016D016801460319
:1054600038033601280336015B011D030C03F402E7
:10547000E902D602C00236014B02230236010D02B8
:10548000360136010302FC01EA01D9014FF4001193
:1054900042780C91302A00F0CD804FF48010374FC5
:1054A0000B907979012900F0D98000233449722AC0
:1054B0000968CDE90D330A9105F1010966D063D879
:1054C000522A02D0542A40F0C08001242246B71A42
:1054D000092F40F2BA804FF080434FF0000A601C61
:1054E00028440793CDF820A004F0ECFE069004F1C8
:1054F0000900284404F0ACFE99F800308046522B95
:10550000099003D14FF00053D0460893404604F071
:1055100001FF053000B2B7EB400F40F096800A342F
:10552000013EA64288BF00270DD9281904F096FE37
:105530000234E4B220AB53FA87F3B44203F8400CD0
:1055400007F10107F1D304F013FD10AC01210D4860
:1055500006AE04F023FD21463046FEF7F9FB022893
:1055600000F08B8004F010FD4046069D04F0D2FE52
:1055700022460146284600F08BFD0CE7DC000320A4
:1055800010000320A8570108742A5ED10124224686
:10559000B71A042F59D94FF0000A601C2844CDE9EE
:1055A00007AA04F07FFE0690201D284404F050FE58
:1055B00099F800308046722B099003D14FF00053C8
:1055C000D0460893404604F0A5FE052300B203EB45
:1055D00040039F4239D10534013EA64288BF0027CF
:1055E0000DD9281904F03AFE0234E4B220AB53FA84
:1055F00087F3B44203F8400C07F10107F1D304F03C
:10560000B7FC10AC0121B54806AE04F0C7FC21463A
:105610003046FEF79DFB0228A4D104F0B5FC02E061
:105620000A200CF021FE21463046FEF791FB0228AD
:10563000F6D099E70022AA4F0B92797901290DD073
:10564000A84B0D921B680E920A930121A64804F004
:1056500057FCA0E674297FF4BCAE99E7721EA95CE2
:10566000692900F04F8300220124CDE90D220A921E
:10567000A2E6284600F080FE8DE604F085FC02E0FC
:105680000A200CF0F1FD21463046FEF761FB0228AE
:10569000F6D069E71621954804F032FC7BE6022E2D
:1056A000D3D16B78302B0CBF00230123FB70012179
:1056B0008A4804F025FC6EE6022EC6D16B788C4A2F
:1056C000303B18BF012301218448137404F018FCF7
:1056D00061E6022EB9D16B78302B0CBF002001207F
:1056E00001F0D6FCE3E70EF035F9102840F2148300
:1056F000804804F073FC4EE6022EA6D16B78303B56
:10570000032BA2D8DFE813F0FC02F302F102E70258
:1057100001F020FD0F21002800F08883764804F076
:10572000EFFB0C21754804F0EBFB0121744804F0F9
:10573000E7FB0921734804F0E3FB0221724804F0FF
:10574000DFFB28E6B31E062B3FF67FAF01220020C9
:105750006E4CA9182E4411F8013B00EB8000303B41
:1057600003EB4000DBB2092B8CBF002202F00102E8
:10577000A0428CBF002202F001028E42EBD1002A2F
:105780003FF463AFFEF77AFA00287FF45EAF8EE74E
:10579000032E7FF45AAF6878A0F14203022B3FF644
:1057A00054AFAB78302B0CBF0021012101F036FC47
:1057B0007DE77822564B8DF84020D3F890050DF107
:1057C000410104F04FFC0D230A2110A88DF8493047
:1057D00004F096FBDFE5FEF7BFF901213F4804F036
:1057E0008FFBD8E5022E7FF430AF6B78302B0CBFE7
:1057F000002301237B715AE7052E7FF426AF012693
:105800003B4CA819666104F029FD0346E81CE361DE
:1058100004F024FD2062FEF79FF931462F4804F082
:105820006FFBB8E53B4804F0D9FB4021304805F058
:1058300059FE04F0E9FB384C2D4805F05DFE04F0FC
:10584000E3FB20680DF0C2F904F0DEFB2068334C66
:105850000DF0D0F904F0D8FB20680DF0B7F904F092
:10586000D3FB20680DF0C6F904F0CEFB1B4804F012
:10587000B5FB90E5022E7FF4E8AE6B78423B022B3D
:105880003FF6E3AE00234FF400124FF48011BB70DB
:10589000CDE90B12099340F281123B7000234FF0C7
:1058A0001409CDE90623DFF83C8010AC06AE0020D9
:1058B00001F0EEFBFEF7B2FAFEF74EF964200CF0B1
:1058C000D3FC6878012101F0C7FB6878012101F061
:1058D000A5FB48460CF0C8FC25E000BFA85701080E
:1058E000DC00032010000320805601083C7C0108E6
:1058F000602703206C7C0108D47B0108F47B01083D
:10590000305B0108007C0108F87C010840420F0070
:105910000000FA0B547C0108FC370320F837032001
:105920000A200CF0A1FC21463046FEF711FA0228AD
:10593000F6D032200CF098FCD8F8143023B909F1D5
:105940001409B9F5D27FB2D1D8F81430002B3FF446
:105950007CAE0121C248397004F0D2FA1BE5012E59
:105960007FF473AE3146BE4804F0CAFABD4800F079
:10597000B9FD002001F08CFB002001F0A3FB6420A6
:105980000CF072FC05F040F905E5042E00F05D8294
:10599000092E7FF45AAE681C04F094FC0346B24A08
:1059A00023F000430121AE48136504F0A9FAF2E4A4
:1059B0000121AB4804F0A4FA0123AC4A3B70D36048
:1059C000FEF7CAF8E7E4092E7FF43FAE681C04F046
:1059D00051FC0346A54C681D636104F03FFC03467F
:1059E000E81DE36104F03AFC034601219C48236270
:1059F00004F086FACFE46A238DF8403002F0C4FB4D
:105A00000DF1410104F09CFB0D23042110A88DF839
:105A1000433004F075FABEE4022E7FF416AE6B78C4
:105A20009248302B00F03A8205F090FB3FE6022EC0
:105A30007FF40BAE6B78302B00F02C82312B0CBF37
:105A40004FF480724FF44072884B9A602FE6022E1A
:105A50007FF4FBAD6B78302B00F02382312B7FF489
:105A600026AE012000F038FD21E6022E7FF4EDADD8
:105A70006B78302B40F0DE81012100237C4A1170CD
:105A8000BB7014E6022E7FF4E0AD6B78302B00F093
:105A9000FE81312B7FF40BAE01233B7107E6012E13
:105AA0007FF4D3AD31466E4804F02AFA00226F4BE2
:105AB0003E70DA60FEF750F86DE446236A4A0DF155
:105AC000410110798DF840309CE710A9674805F036
:105AD000CFFC02A9654805F0F3FC10A902A800F06C
