:020000040800F2
:10000000000004203D960008B9940008BD94000843
:10001000C1940008C5940008C99400088D96000892
:10002000000000000000000000000000013801088E
:10003000CD9400080000000091370108150C01085C
:100040008D9600088D9600088D9600088D96000804
:100050008D9600088D9600088D9600088D960008F4
:100060008D9600088D9600088D9600088D960008E4
:100070008D9600088D9600088D9600088D960008D4
:100080008D9600088D9600088D9600088D960008C4
:100090008D9600088D9600088D9600088D960008B4
:1000A0008D9600088D9600088D9600088D960008A4
:1000B0008D960008D1940008DD9400088D96000804
:1000C0008D9600088D9600088D9600088D96000884
:1000D0008D9600088D9600088D960008E99400081A
:1000E000F59400088D960008019500088D9600088B
:1000F0008D9600088D9600088D9600088D96000854
:100100008D9600080D950008199500088D96000839
:100110008D9600088D9600088D9600088D96000833
:100120008D96000825950008319500088D960008E9
:100130003D9500088D9600088D9600088D96000864
:100140008D9600088D960008499500088D96000848
:100150008D9600088D9600088D9600088D960008F3
:100160008D960008559500088D9600088D9600081C
:100170008D960008000000008D9600080000000029
:10018000619500088D9600088D9600088D960008F0
:100190008D9600088D9600088D9600088D960008B3
:1001A0008D9600088D9600088D9600088D960008A3
:1001B0008D960008000000006D9500088D960008DF
:1001C0008D960008000000008D9600088D960008AE
:1001D0008D9600088D9600088D9600088D96000873
:1001E0008D9600088D9600088D9600088D96000863
:0401F000000000000B
:1002000010B5054C237833B9044B13B10448AFF350
:1002100000800123237010BDA00603200000000011
:10022000C041010808B5034B1BB103490348AFF3B4
:10023000008008BD00000000A4060320C0410108A2
:10024000034613F8012B002AFBD1181A0138704716
:10025000704700BF30B5214C214D83B04FF0FF33C4
:10026000022220680DF1060111F0A6FB022807D03A
:100270002B78012B29D001211A4808F01BFCEDE74F
:1002800042F20303BDF806209A42F1D816494FF016
:10029000FF33206811F090FBBDF806108142E7D1D2
:1002A000114805F0A7FA0028D8D12B78BDF8061020
:1002B000012B0D480DD004F0ABFC0128CED12B78DA
:1002C000B3FA83F35B092B70C8E7084808F060FCB9
:1002D000C4E703F097FB0128C0D1F0E7C007032073
:1002E00094070320004201083CB70020E0410108C8
:1002F0002DE9F04F834C9BB0DFF82482824F834E70
:100300000AAD4FF0FF3328226946206811F054FBF4
:100310002828F6D1039808F0D7FD8346002840F03E
:100320009380029B002B70D10098D8F8003098423F
:1003300000F092802A46594605F07CFA12F0F0F857
:1003400029460246684606F0DBF912F0E9F829462C
:100350000246684605F04CFA3B78002BD1D0069B4C
:10036000B3F5001F00F086800121BBF1080F28BF04
:100370004FF0080B002289465FFA8BFBDDE9013064
:1003800000286FD13144002B00F0AA805420B054D3
:10039000009808F041FC09EB00035FFA83F9069A24
:1003A00006EB0901B2F5001F6FD00BF00F0008F04B
:1003B000B1FC09EB00035FFA83FABBF1000F0CD02C
:1003C000A946AB4419F8010B06EB0A0108F092FCB0
:1003D000D94550445FFA80FAF4D1FA78002A5ED108
:1003E0007A791AB1069AB2F5001F7DD00D220AF172
:1003F00001014648C9B206F80A2008F05BFB002854
:100400003FF47FAF00233B707BE7B3F1005F9CD1EB
:10041000009BB3F5E06F98D13D4801990360039BC1
:100420004160082B28BF08231A460023C260C0E998
:100430000533836008223749374808F04DFD3649B7
:10044000334803F03FF980E702464FF0FF33294677
:10045000206811F0B1FA64E73049314803F032F90D
:10046000009867E77BB352204FF0000BB054314443
:1004700000988EE7059B0221B3F5801F14BF30233F
:10048000312301228946337078E7039800F00F008A
:1004900008F040FC09EB00035FFA83FA8DE712F0E5
:1004A0003FF84EF6602C1F4B06EB0A01A3FB00E25F
:1004B000920B0CFB120080B208F0FAFB0AEB00036F
:1004C0005FFA83FA8CE772209B46B054009831445F
:1004D00080B208F0D7FB09EB00035FFA83F95EE70F
:1004E0007420B0540098F3E7049AB2F1004F7FF4FF
:1004F0007DAF69220AF1010306F80A205FFA83FA48
:1005000074E700BF3C3B0320D00003203CB5002033
:10051000D00603209005FA0BC4060320903C03206C
:10052000983C032073B2E7452DE9F0431F4D9BB083
:10053000DFF8808001AE0AAF002404EBC401C4F1EF
:1005400024024FF0FF33286806EB810111F034FAE2
:100550000444232CF1D9049808F0B6FC039B81468F
:10056000B3F1005F00D0A0B9114809F099FD50B176
:100570003A4631460E4809F053FCD8F80C300133A6
:10058000C8F80C30D8E74FF0FF32012112F05EFBC3
:10059000EAE70024A9EB040239194FF0FF33286879
:1005A00011F00AFA04444C45F4D3DDE7383B03204C
:1005B000A02A032010000320F0B583B005F034F921
:1005C00002F086FF06F09CF900F0A4FD06F044FE60
:1005D00011F0A6FF05F006F91D480DF0ADFA1D4813
:1005E0000DF072FA1C4D06F035FC1C4E1C4F05E058
:1005F00001330CD10A2101A811F024FE11F090FF63
:1006000032682B6801320190F2D101330BD04FF4E4
:100610007A7401E0013CEDD02846124903F052F80B
:100620000028F7D0E6E706F015FE019806F01AFE5E
:10063000019800F071FD3B7833B1019805F0DCF8CA
:10064000019806F05BF8D5E7019805F04DFAF4E75C
:10065000D8270320402703206C3C0320983C03202C
:1006600086000320643C03202DE9F04300262B4D37
:10067000DFF8B490DFF8B480294FA7B016E063022A
:1006800003D52B7943F080032B7198F8003033B1F8
:100690000B9B23B1642010F099FB02F019FF00229C
:1006A000022311463868009612F052FB4FF0FF32D9
:1006B0000121002012F0CAFA12F000FF194809F0D7
:1006C00045FE044606A9174809F0A6FC02A91548EC
:1006D00009F0CAFC5422294611A8AC6013F018FD99
:1006E000104B1E66189BB3F5003F02D9AB689A0207
:1006F0000CD412F0F1FE99F80030012BBFD1234643
:1007000011AA06A902A805F003FBB8E7012385F8A2
:1007100020300B9302F066FFEBE700BF10000320D0
:10072000601F0320A02A0320C43C0320C00603202E
:1007300000232DE9F04385B05B4C5C4EDFF87881F7
:100740005B4D0DF10E078DF80B3005E000214FF0E9
:10075000FF32084612F07AFA206811F037F80028C4
:10076000F4D04FF0FF33012220680DF10B0111F09E
:1007700023F90128EAD1206811F028F80128E5D9E9
:100780004FF0FF330222206803A911F015F9022867
:10079000DCD1BDF80C20B2F5805FD7D2002A56D14B
:1007A0009DF80B90B9F1000F16D111F0B9FE414B35
:1007B0003146BDF80C20009707F0F4F9BDF80E3073
:1007C000002B57D111F0ACFE31463A4BBDF80C204E
:1007D000009708F005F9B9E711F0A2FE354B33494F
:1007E000BDF80C20009708F097F8BDF80E3023B341
:1007F00030490A787F2A08D1022B1ED98B78A3F1C1
:100800001102012A19D9312B17D04FF0FF330222E0
:100810003946D8F8000010F0E7FF4FF0FF332549C4
:10082000BDF80E20D8F8000010F0DEFF00220223F1
:1008300011462868009212F08BFA11F071FE1D4BE0
:100840001A49BDF80C20009708F0CAF87EE74FF06F
:100850000009A2EB090206EB09014FF0FF33206803
:1008600011F0AAF8BDF80C2081441FFA89F94A4515
:10087000EFD195E739464FF0FF330222D8F8000058
:1008800010F0B2FFBDF80E204FF0FF330949D8F841
:10089000000010F0A9FF02234A4649462868CDF817
:1008A000009012F055FA8DE70007032038A50020CC
:1008B000A00C032038950020FC0603202DE9F84306
:1008C000284E294DDFF8AC8006F11C0706F580594B
:1008D00005E000214FF0FF32084612F0B7F9286812
:1008E00010F074FF0128F4D94FF0FF3302221F49A2
:1008F000286811F061F80228EBD1B28AB2F5805F66
:10090000E7D262B10024121B39194FF0FF33286877
:1009100011F052F8B28A0444A4B2A242F3D111F009
:10092000FFFD0146124806F069FA0028D1D111F006
:10093000F7FD07F099F80128CBD0286810F046FFA2
:100940000128C6D898F8003053B199F8230010F068
:100950003DFA11F0E5FD07F087F80128B9D0ECE782
:100960000A20F4E7B8860120FC060320CC8601208B
:10097000B87601208600032010B50C490C4808F019
:1009800069F80A4A0B490C4813F042F9084C0B4924
:100990004FF0FF334FF40062206811F00DF801466C
:1009A0000028F4D0054808F06DF8F0E7F0070320C0
:1009B0009807032014240320C007032040D70020F9
:1009C00004F02ABF002004F02BBF00BF0022024B1E
:1009D00002481A600DF0B0B8BC0603208C27032033
:1009E000014B1868704700BFBC06032000000000E0
:1009F00010B59EB0482200210CA813F0FDFA002388
:100A00004FF40070CDE90233CDE90433CDE907336B
:100A1000CDE90933019306930B930BF06BFC08B1FE
:100A200072B6FEE7012302221693119319931792CF
:100A300010231D9207229FED1E7BCDE91A3203245D
:100A4000042312900CA81C938DED0C7B18940BF0D2
:100A50008DFE034608B172B6FEE70F22214601A8BB
:100A6000CDE903330593029401920BF02BFD03466D
:100A700008B172B6FEE7104A4FF0005C916D4BF67C
:100A80007F3441F080719165926D069302F080721F
:100A9000009208932222202306A8CDE90A23009978
:100AA000CDF81CC009940CF0C1FD1EB010BD00BFF4
:100AB00029000000000001000010024070B594B051
:100AC00072B64FF00062A34B9A60BFF34F8F62B6CD
:100AD000002408F0DDFD06F09FFAFFF789FFCDE95D
:100AE0000F44CDE911449C4D1394EB6C4FF46041DD
:100AF00043F00403EB64EB6C224603F00403089319
:100B0000089BEB6C954843F08003EB64EB6C01268B
:100B100003F080030993099BEB6C43F00103EB6442
:100B2000EB6C03F001030A930A9BEB6C43F00203A6
:100B3000EB64EB6C03F002030B930B9B0AF0A4F83D
:100B4000224640F2011186480AF09EF8224641F200
:100B5000E40184480AF098F84FF460437F480FA9F5
:100B6000CDE90F361194129409F0DAFE40F2011328
:100B70007B480FA9CDE90F36CDE9114409F0D0FE2D
:100B800041F2E40377480FA9CDE90F36CDE91144CE
:100B900009F0C6FE4FF4007371480FA9CDE90F3478
:100BA000119609F0BDFE08236F480FA9CDE90F3457
:100BB000119409F0B5FEAB6C052143F00403AB645E
:100BC000AB6C224603F004030593059BAB6C1D2020
:100BD0003343AB64AB6C33400693069BAB6C43F082
:100BE0000203AB64AB6C03F002030793079B08F0AE
:100BF00085FD1D2008F0BCFD224605211E2008F0C1
:100C00007DFD1E2008F0B4FD22460521502008F08D
:100C100075FD502008F0ACFD20460AF0BDFB08B180
:100C200072B6FEE70AF0CCFB034640B94F48504A83
:100C3000C0E900230CF022FD18B172B6FEE772B6CF
:100C4000FEE74C4A4C4B10704C4A4FF440711A600E
:100C500010229A619A62132299601A620F2104226B
:100C60003C245860D8609874D8631846C3E90D6670
:100C70001E825E615E62DC61D9621A6308F002FF67
:100C80000346E0B94FF0FF313D4AC2E90500C2E931
:100C90000100D06011603B4A3B4811603B49C0E90C
:100CA0000533C2E90533C2E901338380D3600662AC
:100CB000016008F08FFD034618B172B6FEE772B608
:100CC000FEE74FF4027102223148C372314B81803A
:100CD0000360C0F807200AF07DFB034608B172B636
:100CE000FEE741F63F752C4C2C4ACDE90F001190E0
:100CF0002046C4E90133A3612260E5600DF00CF9E0
:100D0000034608B172B6FEE720460FA90F93119370
:100D10000DF034F9034608B172B6FEE7204C214AC3
:100D2000CDE90F00226042F20F72C4E90205119072
:100D30002046A36162600DF0EFF8034608B172B679
:100D4000FEE720460FA90F9311930DF017F958B342
:100D500072B6FEE700ED00E000100240000802421B
:100D60000000024200040242001C0242A4290320A7
:100D700000080C42C0060320A02A032000A4004063
:100D8000983C03206C3C0320042B032000300240DD
:100D90001824032000D400408C27032000140040B6
:100DA000D82703200010004000234F254FF6FF7482
:100DB0008D498E4A0846C1E90153C1E90343C1E99F
:100DC00005330A600DF0A8F8034608B172B6FEE7D5
:100DD0008748C0E90153C0E90343C0E90533854BA7
:100DE00003600DF099F8034608B172B6FEE74FF0C4
:100DF00080414FF0FF32804CCDE90F00CDE911006A
:100E0000C4E901000CAD0C902061A0612046C5E949
:100E100001332160E2600DF07FF808B172B6FEE7A1
:100E20004FF4805320460FA90F930CF0C3FE0346E6
:100E300008B172B6FEE7204629460C930E930DF0DA
:100E40009DF8044608B172B6FEE76C486C49009004
:100E50002246CDE901446B4B0C7043F698200121EA
:100E600010F022FC0546684E684A00960121CDE943
:100E70000144674B156043F69820224610F014FC9D
:100E80000546644E644A00960121CDE90144634B56
:100E9000156041F20100224610F006FC0246604E49
:100EA000604D00960121CDE901445F4B2A6041F27B
:100EB0000100224610F0F8FB5C4B5D4A01210092D4
:100EC000CDE90144224618605A4B43F6982010F0B1
:100ED000EBFB594B594A01210092CDE901442246CE
:100EE0001860574B43F6982010F0DEFB554B564EDA
:100EF0001860204605F0D0FC204605F0E7FC05F020
:100F000039FD11F00DFB2A46504B5149009605F072
:100F1000E3FB504806F0FAF94F4804F049FC4F480B
:100F20004F4A504902F0BAFA0FA80F9405F070FC2E
:100F300020B90F9B13B94C4805F042FC0FF078FE26
:100F400012F056FD0021494A49480FF0C1FE0446FF
:100F5000484B0021484A49481C600FF0B9FE04463E
:100F6000474B0021474A48481C600FF0B1FE044639
:100F70003C4B0021454A46481C600FF0A9FE044640
:100F8000444B0021444A45481C600FF0A1FE044632
:100F9000334B0021424A43481C600FF099FE04463F
:100FA0002B4B0021404A41481C600FF091FE044643
:100FB0003F4B00213F4A40481C600FF089FE044629
:100FC0003E4B00213E4A3F481C600FF081FE044624
:100FD0003D4B00213D4A3E481C600FF079FE3D4BE1
:100FE00018600FF047FEFEE7402703200044014051
:100FF000F42603200048014024280320C4070320CE
:1010000094070320D81901209C070320C007032060
:1010100040DF00207007032098070320348500205C
:101020004C0703200007032030750020FC06032036
:1010300028070320983A00203C3B032004070320A4
:1010400000000020383B0320F4060320F8060320AC
:1010500050110320A4290320042B0320A02A0320DD
:1010600000160320601F0320040029C0746F0108CC
:101070005502000814240320506F0108F1020008F3
:10108000102403202C6F010829050008086F0108AF
:10109000B9050008B01A0320E46E010869060008CB
:1010A000C06E0108310700089C6E0108BD080008E9
:1010B000A00C0320786E010879090008F0070320CE
:1010C000546E0108C1090008EC070320306E0108C6
:1010D000C5090008E8070320094A0368934206D0BF
:1010E000084A93420AD0084A934205D07047074AFB
:1010F000136801331360704704F086BB08F0DABA56
:1011000000140040002C014000100040BC060320E9
:1011100072B6FEE7704700BF024B0349D87D02F06C
:10112000F3B800BF640003207C01032040F69E73E7
:101130002DE9F047DFF89CA02349244ADAF8004063
:10114000B1F800E012889C4204FB0E2238D800203F
:101150004FF0804140F69F764FF030083127DFF89E
:1011600078901B4D09EB040C4B6A9342FCD32B691E
:10117000013013F48073C0B204F1010472440ED143
:1011800018468CF80080B4420CF1010CECD101201F
:10119000CAF80040002309F80430BDE8F0870A28A7
:1011A0008CF80070EFD9142C02D80CF1010CDBE79D
:1011B000002309F804300020CAF80040BDE8F08799
:1011C0000120DFF81490E5E70A000320080003205F
:1011D00000040242942B0320982B032070B50024B6
:1011E0004FF0804101254FF6FF7086B0CDE90044F5
:1011F000CDE9024404940A681A4E22F001020A6002
:101200003288194B013A8A624C624D610A682A435E
:101210000A601A6822F001021A6098625C625D61DD
:101220001A682A431A6002F0DDF92A464FF4007169
:101230000E4809F029FD4FF48072002369460B48DF
:10124000CDE90023029409F06BFB4FF400730322F5
:1012500069460648CDE900350392029409F060FB27
:1012600006B070BD0C00032000480140000402429B
:10127000F0B5BDF81440012C45D94FF0300C0127D2
:10128000013C83F800C000293FD10A263D4604E016
:101290008C4675460127013E15D320FA06F101F070
:1012A000010105F1010EA54201F130011FFA8EFE88
:1012B00029DA8C455955EBD10137FFB2052F4FD0B4
:1012C000013E7546E9D2002A0CBF30263126A542E0
:1012D00019DA691CB4455E5589B200F0C180012756
:1012E000A14210DA30224D1C9642ADB25A5400F0A1
:1012F000D980A54207DA881C80B25A5500221A54B8
:10130000F0BDA54239DB0020F0BD1C263D4605E0BE
:101310008C4675460127013E112EF2D020FA06F1C7
:1013200001F0010105F1010EA54201F130011FFAA2
:101330008EFEE8DA8C455955EAD10137FFB2052F08
:1013400001D07546E7E7CCF1610CA6455FFA8CFC4D
:1013500005F10205D7DA012703F80EC0ADB2DAE7CE
:10136000CCF1610CA6455FFA8CFC05F10205CADAE6
:10137000012703F80EC0ADB28DE74FF0310E691CA6
:10138000F44589B203F805E04FD0A142BBDA03F877
:1013900001E0A91CF44602271FFA81FE04E08C46F6
:1013A000AE460127013E22D320FA06F101F00101E9
:1013B000A64501F13001A6DA0EF10105614503F8F9
:1013C0000E10ADB2EBD10137FFB2052F01D0AE4602
:1013D000E8E7CCF1610CA5425FFA8CFC0EF1020E3D
:1013E00091DA012703F805C01FFA8EFEDAE7002A1A
:1013F0000CBF30253125A64585DA0EF10102AC453A
:1014000003F80E5092B262D00121A242BFF67BAF28
:101410003027561CBD42B6B29F5477D0A642BFF6C5
:1014200072AF023290B29F5568E7042F28D0A142D4
:10143000BFF669AF0237FFB205F1020E052F03F8C0
:1014400001C01FFA8EFEAFD1A645BFF65CAF4FF0CC
:10145000300C033503F80EC001271FFA85FEA3E701
:101460000137FFB2052F7FF43BAFA142BFF64BAF70
:10147000C6F16106F6B202355E540127A9B22FE724
:10148000A142BFF640AF30275F54A91C89B28C42FD
:101490007FF739AF05F1030E012703F801C01FFAEA
:1014A0008EFE81E77A1CD2B2052A21D0A542BFF672
:1014B0002AAF881C042A5E5580B27FF41FAFA04279
:1014C000BFF621AF312203311A5488B216E7791CD6
:1014D000C9B2052999D1A242BFF615AFC5F1610580
:1014E000EDB20EF1020E9D5401211FFA8EF28CE72F
:1014F000A542BFF608AF31225A558A1C92B29442D7
:101500007FF701AFC81C80B29E54F7E60131C9B223
:10151000052910D0A642BFF6F6AE9D55042902F16A
:101520000205ADB215D1A542BFF6EDAE31210332B1
:1015300090B25955E2E6A642BFF6E5AE3121995583
:10154000911C89B2A142BFF6DEAE033290B25D5467
:10155000D4E62846D2E600BF4B4B1868831C70D0F7
:101560002DE9F04FC71C91B077D0411C02D14FF04C
:1015700000090BE03024454B454A1978127804AB3A
:101580000094FFF775FE8146002860D04FF0804C34
:10159000404B414A1B88B2F800A003933F4B0AEB33
:1015A0008A0E1F883E4B3F491C683F4E4FEA4E0E45
:1015B0000B69DA05FCD5DCF8242092B20B69DB0557
:1015C000F6D5DCF824309B1A9E45F7D80B6913F446
:1015D000807306D0736ABB422DD80B6913F48073F5
:1015E000F8D1CCF82430B9F1000F1AD01C464FF0D6
:1015F0008040039ADFF8B880DFF8A8B004AD436AF2
:101600009342FCD3DBF81030524413F4807F15F87A
:10161000013B0DD0312BCBD10134A14508F8013B62
:10162000EDD11F4BC3F80090002011B0BDE8F08F42
:10163000302BF1D0BCE70120194B1C6011B0BDE884
:10164000F08F4FF08043002200205A627047174805
:1016500007F09EFA4FF0000998E74FF080440E4BD8
:10166000104A188800EB800040001369DE05FCD5A5
:10167000616A89B21369DD05F7D5636A5B1A834233
:10168000F8D300236362CFE704000320912B0320EB
:10169000902B0320080003200A00032000000320F1
:1016A000942B032000040242004801409C420108A0
:1016B000982B032002783AB34FF0000C30B5634604
:1016C000864631250BE02A2A07D10CF1010C1FFABE
:1016D0008CFC8EF8005000EB0C0EC25C82B1A2F1C3
:1016E0003001013301290CF101049BB2EBD88EF8D3
:1016F0000020C25C1FFA84FC00EB0C0E002AEED125
:1017000000238EF8003030BD00230370704700BF07
:1017100070B5044607F0ECFB14281ED900F1FF3E1B
:101720001FFA8EFE14F80E3004EB0E05312B2A46FC
:1017300015D1831E9BB200EB040C0CEB03002A2690
:101740002344A0EB0E0005E016701A461178013B09
:10175000312906D1C11A0C29F6D9002070BD00EB41
:10176000040C002220460126144610F8013BA3F188
:10177000300101292FD862B386B3052A42D0A34293
:101780000FD0312B5ED0844515D010F8011B0122FB
:10179000A1F13003012B79D830231C460B46A3421C
:1017A000EFD10132312CD2B256D084454FF0010630
:1017B0004FF03004D9D10FFA8EFEBEF1000F06DBD8
:1017C0002A4615F801392A2B58D05F2B37D0012033
:1017D00070BD1C4601228445C7D1ECE7A3420DD061
:1017E0008445E8D010F8011B1C46A1F13002012A03
:1017F00022D80B46A3424FF00102F1D1013200265C
:10180000D2B2E8E7A342A8D05F23844500F8013CA8
:10181000D1D0034613F8011BA1F13002012A20D8D0
:101820006345C8D043783246A3F13004012C00F15F
:1018300002000C46A0D9CEE700260122CBE73023D8
:101840001370C4E78445B6D010F8011BA1F1300233
:10185000012A1ED80122A0E7062A8CBF00260126F5
:10186000B9E76345A7D01A780230A2F13003DBB2A2
:10187000012B96BF144600223246ACE70EF1FF3E24
:101880000FFA8EFEBEF1FF3F9AD1A0E73024164634
:10189000A1E701221C4616469DE700BF70B571B353
:1018A000002344F2995600F1FF3C0CEB01051CF8B3
:1018B000012F5C00A2F13102B2FA82F24FEA933EAC
:1018C00047F6FE735209724503EA040318BF7340DA
:1018D000AC45ECD14A1E00F10E0C024400208C44B1
:1018E00012F8011F4000312908BF40F00100944563
:1018F00080B2F5D1C01AB0FA80F0400970BD0B4635
:10190000E8E700BF2DE9F04F8FB0044607F0F0FA8A
:10191000122840F24B812378302B05D0B4480FB009
:10192000BDE8F04F07F034B9074606AEB14807F0FE
:101930002FF900253146234604F10B0C13F8012F33
:10194000A2F13100B0FA80F09C454FEA501001F846
:10195000012B40EA4505F1D14FF00008A6488DF86B
:10196000238007F015F906A807F012F9A34807F03D
:101970000FF903A9284607F04FF903A88DF8148042
:1019800007F006F99E4807F003F994F80CA09D486B
:10199000657B8DF819808DF818A007F0F9F806A876
:1019A00007F0F6F8984807F0F3F898488DF81850C3
:1019B00007F0EEF806A807F0EBF8934807F0E8F810
:1019C000312D40F0FD80262F40F2F680454606AAD4
:1019D00004F10D010DF12A0011F8013F02F8013B5D
:1019E000A3F13103B3FA83F390424FEA531343EA6E
:1019F0004505F1D14FF0000885488DF82A8007F0A1
:101A0000C7F806A807F0C4F87C4807F0C1F803A996
:101A1000284607F001F903A88DF8148007F0B8F8FC
:101A2000774807F0B5F894F820A07A488DF8198027
:101A30008DF818A007F0ACF806A807F0A9F87248CE
:101A400007F0A6F894F8213073488DF8183007F0A5
:101A50009FF806A807F09CF86B4807F099F894F8EF
:101A600022306E488DF8183007F092F806A807F07B
:101A70008FF8654807F08CF82322002504F1040C48
:101A800006A89444A11811F8013B00F8013BA3F10A
:101A90003103B3FA83F38C454FEA531343EA450508
:101AA000F1D14FF000095E4802F1040801928DF86F
:101AB0001C9007F06DF806A807F06AF8EDB24F48E1
:101AC00007F066F803A9284607F014F903A88DF873
:101AD0000E9008EBC50B07F05BF8494807F058F883
:101AE0000BF10F03BB42019A00F2E780BAF1300F0D
:101AF00000F0A680002506A90BF1FF30204401F17B
:101B00000F0710F8012F01F8012BA2F13102B2FAF0
:101B100082F28F424FEA521242EA4505F1D1002784
:101B2000404801938DF8277007F032F806A807F0B7
:101B30002FF8324807F02CF803A9A8B207F0B8F83C
:101B400003A88DF8107007F023F8374807F020F845
:101B500059462046FFF7A2FE019B002840D033489B
:101B600007F016F8019BE25CE118A2F13003012BAB
:101B700098BF012303D916E00133202B36D006F895
:101B8000012B11F8012FA2F130000128F4D9002215
:101B90006B4427481A7606F0FBFF06A806F0F8FF0C
:101BA000194806F0F5FF0FB0BDE8F08F21480FB0DF
:101BB000BDE8F04F06F0ECBF1F4806F0E9FFF2E782
:101BC000A37B16488DF818308DF8198006F0E0FFD9
:101BD00006A806F0DDFF0C4806F0DAFF0F224CE7FE
:101BE0001648019306F0D4FF019BBCE71F23CEE704
:101BF000D8420108EC4201080043010810430108E3
:101C00002C67010818430108284301082C430108E8
:101C100050430108604301087043010880430108F4
:101C200090430108CC430108DC430108E04301086C
:101C3000F4430108C44201083C430108E843010899
:101C4000082D3FF657AF002D3BD06B1EDBB20C3298
:101C500002EBC30B0DF11F0700250DF1170204EB7A
:101C6000080111F8013B02F8013FA3F13103B3FA77
:101C700083F397424FEA531343EA4505F1D11348E2
:101C80008DF8209006F084FF06A806F081FF10482A
:101C900006F07EFF03A9E8B207F02CF803A808F1CC
:101CA00008088DF80E9006F073FF0A4806F070FFE2
:101CB000C345D1D10BF10F031CE7074806F068FFBD
:101CC00071E7C34602F1130314E700BFBC430108E8
:101CD000104301082C670108A0430108002800F008
:101CE000F98030B583B0044607F002F90130235C77
:101CF00025180BB9012038E02046774907F010F984
:101D000048BB2046754907F00BF920BB20467449B3
:101D100007F006F9002856D12046724907F000F96D
:101D2000002862D00A2128460DF1070207F062F967
:101D30009DF80730002BDDD04FF6FE73421E9A420D
:101D4000D8D8694B80B21A886849824208800BD380
:101D50004008188008E02846654907F0E1F830B1EE
:101D60006FF00102634B1A60002003B030BD2846BB
:101D7000614907F0D5F820B14FF0FF325D4B1A6092
:101D8000F2E728465D4907F0CBF820B16FF0020278
:101D9000584B1A60E8E7102128460DF1070207F0BA
:101DA00029F99DF807300446002BA3D0B0F1005F5D
:101DB000A0D2B0F5006F03D3514B1A78002A50D04F
:101DC0004C4B1C60D0E70A2128460DF1070207F0B2
:101DD00011F99DF80730002B8CD04FF6FE73421E90
:101DE0009A4287D8474B1880BEE72046464907F0FD
:101DF00097F890B10A2128460DF1070207F0FAF88A
:101E00009DF80730002B3FF475AF384B1B88834299
:101E10007FF670AF344B1880A6E720463B4907F0A9
:101E20007FF880B128463A4907F07AF8002837D081
:101E3000304B384A1B68A3F50063934246D9002211
:101E40002F4B1A7090E72046334907F069F870B1BC
:101E500028462F4907F064F868B300222F4B1A7008
:101E600082E701222E481A7006F092FEA8E720466B
:101E70002C4907F055F800283FF43CAF0DF107025C
:101E80000A21284607F0B6F89DF80720002A3FF4FB
:101E900031AFB0F5803FBFF42DAF234A108063E728
:101EA0002846224907F03CF800283FF423AF0122DE
:101EB000134B1A7058E728461C4907F031F80028E0
:101EC0003FF418AF0122154B1A704DE7184806F081
:101ED0005FFE0FE701207047044401081044010829
:101EE000504401085C440108080003200A00032054
:101EF0000C44010804000320184401081C44010894
:101F0000912B03200C000320684401087844010849
:101F100084440108FFF7FF1FB0440108902B032001
:101F200024440108B444010800000320205601089D
:101F30008844010810B5364884B006F029FE354BB8
:101F400001A9188807F084F801A806F021FE324C98
:101F5000324806F01DFE324806F01AFE01A920683C
:101F600006F05AFE002301A88DF80C3006F010FE92
:101F70002368991C40D05A1C42D0033344D02948CE
:101F800006F006FE284B01A9187807F061F801A8B1
:101F900006F0FEFD254806F0FBFD254B01A918784B
:101FA00007F056F801A806F0F3FD224806F0F0FD10
:101FB000214B01A9188807F04BF801A806F0E8FDAD
:101FC0001E4806F0E5FD1E4B01A9188807F040F8F1
:101FD00001A806F0DDFD1B4806F0DAFD1A4B01A949
:101FE000188807F035F801A806F0D2FD174806F06A
:101FF000CFFD002004B010BD154806F0C9FDBEE7B6
:10200000144806F0C5FDBAE7134806F0C1FDB6E76F
:10201000BC4401080000032004000320C844010858
:10202000D0440108F0440108912B0320FC4401082E
:10203000902B0320044501080C00032028450108CB
:102040000A0003203845010808000320284301083E
:10205000D8440108E0440108E84401082DE9F041B2
:102060000026104D104FFFF7B9F86E626A6A3B8880
:102070009A4212D24FF08044DFF83480B8F8002042
:102080006662636A9342FCD34FF40071074808F01C
:1020900001FE6A6A3B889A42F0D301F019FA0020E7
:1020A000BDE8F08100480140000003200004024226
:1020B0000A0003202DE9F04F7A4B91B01B88B3F54D
:1020C0007A7F60D9FFF78AF872B6774B1868831C5D
:1020D00000F0D780C71C6DD0411C5BD14FF00009C8
:1020E0004FF0804C714B724A1B88B2F800A00393EA
:1020F000704B0AEB8A041D686A4B6F49B3F800E025
:102100006E4F64000B69DA05FCD5DCF8242092B22E
:102110000B69DB05F6D5DCF824309B1AA342F7D314
:102120000B6913F4807307D07B6A734500F2B180AA
:102130000B6913F48073F7D1CCF82430B9F1000F98
:102140001AD01D464FF08040039ADFF88C81DFF8EB
:1021500068B104AE436A9342FCD3DBF810305244BA
:1021600013F4807F16F8013B0AD0312BCAD1013518
:10217000A94508F8013BEDD14E4BC3F8009032E081
:10218000302BF4D0BEE74E4806F002FD002011B01F
:10219000BDE8F08F30244B4B4B4A1978127804ABD2
:1021A0000094FFF765F88146002899D1474806F06A
:1021B000EFFC93E74FF080443D4B3F4A188800EB1B
:1021C000800040001369DE05FCD5616A89B213699D
:1021D000DD05F7D5636A5B1A8342F8D30023636297
:1021E000304BB3F800E00026344D6E626B6A7345E5
:1021F0002FD22E4B4FF08041B3F800C02C4B2E4C09
:102200001F8802E06B6A73452ED2236913F4807332
:10221000F8D162461846D5F824804B624B6A934247
:10222000FCD32369013013F48073C0B219D00B289A
:102230003A44F3D1A2EB0C024B6A9342FCD36B6A93
:10224000A3EB08031E446B6A7345DED3204B03FBEC
:1022500006F662B601F03CF9124B1B88B6FBF3F0B0
:1022600095E718463A44D9E762B601F031F9184BC0
:102270000C4A06FB03F31088B3FBF0F011B0BDE885
:10228000F08F4FF0804300225A62064BB3F800E013
:10229000A9E7084B1D6062B60E4806F079FC01F014
:1022A00017F973E70000032004000320080003204F
:1022B0000A000320942B032000040242004801403E
:1022C0004C450108912B0320902B03209C420108D0
:1022D000A086010068450108982B03202A4B70B5A1
:1022E0001B680333012B37D9FEF778FF72B6002243
:1022F000264B5A62FFF730F928BBFEF717FF04465A
:1023000000283AD162B6224E3368072B2ED9214DD0
:10231000284606F03DFC204806F03AFC3368284683
:10232000EC54FFF7F5F9D8B1284606F031FC1B480C
:1023300006F02EFC2846FFF7BDF9FFF7E3FA01F09F
:10234000C7F8204670BD62B6154806F021FC01F0C2
:10235000BFF80124204670BD124806F019FCF8E7CA
:10236000114806F015FC01F0B3F8F3E70F4806F04A
:102370000FFC01F0ADF8204670BD62B60C4806F0C7
:1023800007FC01F0A5F8E4E7040003200048014041
:10239000942B0320982B0320FC45010814460108C8
:1023A000B04501087C45010804460108E4450108E0
:1023B000CC4501082DE9F04F91B0FEF70FFF72B642
:1023C00000254FF0804270497048714B556205609E
:1023D0004D621868811C00F0A180C31C00F0B3801E
:1023E000421C7FD1AB464FF0804E6A4B6A481E8834
:1023F0006A4B06EB86041A88694BDFF88C81B3F8C8
:10240000009064000369DB05FCD5DEF8241089B276
:102410000369DF05F6D5DEF824305B1AA342F7D353
:10242000036913F4807307D0D8F824304B457ED865
:10243000036913F48073F7D1CEF82430BBF1000F99
:1024400000F09B801D46574B11469A464FF080473F
:1024500003930DF1100C7B6A8B42FCD34E4B31443D
:102460001B6913F4807F1CF8013B54D0312BC9D178
:102470000135AB450AF8013BEDD1444B06FB0B227D
:10248000C3F800B040F69E739B451AD84FF08041C8
:102490004FF0300C3127039B0BF1FF30424D3E4C87
:1024A00018444B6A9342FCD32369DB052DD500F811
:1024B000017FA8423244F4D140F69F739B46334AD1
:1024C00013600024039B03F80B4062B601F000F890
:1024D000344806F05DFB354806F05AFB204611B043
:1024E000BDE8F08F324B334A1978302312780093CD
:1024F00004ABFEF7BDFE834600287FF474AF2E4880
:1025000006F046FB214B1D686DE700F801CFA8429D
:102510003244C6D1D0E7302BAAD073E71D4B1F49F8
:102520001E88204B5562AB460A880393AEE7174BD3
:102530001D6062B6214806F02BFB00F0C9FF0120A8
:1025400011B0BDE8F08F134B13491E8806EB8604CB
:1025500064000B69DF05FCD5506A80B20B69DD05AC
:10256000F7D5536A1B1AA342F8D300230B490D4831
:102570009B46039053620A8888E70A4B0393034BF8
:10258000C3F800B082E700BF00480140942B03204D
:10259000040003200A000320000402420800032074
:1025A00000000320982B0320363B0320284301081A
:1025B000912B0320902B03209C42010868450108C1
:1025C000002800F019812DE9F04F95B0834606F000
:1025D0008FFCB0F57A6F28BF4FF47A60894E814640
:1025E0003368033340F0C480FEF7F8FD72B600256F
:1025F0004FF08044844B65625D623068834B1D60A0
:10260000831C00F0E380C71C00F0C580471C00F06D
:10261000BA80302300937E4B1A787E4B197808AB32
:10262000FEF726FE8246002800F0AF807A4B4FF07E
:10263000804E1A8879491346098802EB8204059175
:1026400077497848B1F800806F4F64000169CE0582
:10265000FCD5DEF82460B6B20169C905F6D5DEF80E
:102660002410891B8C42F7D8016911F4807107D0BE
:10267000796A414500F2B480016911F48071F7D1A3
:10268000CEF82410BAF1000F00F0B8804FF0804C63
:102690000D466549059E0691049108A9039107948A
:1026A000DCF82410B142FBD35E49039C096916444F
:1026B00011F4807F14F8011B039460D0312960D19C
:1026C000049C013504F8011BAA450494E8D105993E
:1026D0000024114418464FF080424FF4007E4FF022
:1026E000300840F69F7C494D504E4E4F2C60556A45
:1026F0008542FCD3A1453FD91BF80450312D3BD076
:10270000302D04D14FF0007A464DC5F818A0556A17
:102710008D42FCD33D690134ED0544BF312506F8F7
:10272000015F3A4D58BF06F8018F64452C6018448C
:102730001944DCD14FF47A6000224FF0804100FB55
:1027400003F3069880F89F2F4A6A9A42FCD34FF40D
:102750000072344B9A6162B600F0BAFE324806F05D
:1027600017FA334806F014FA002015B0BDE8F08FD0
:10277000304806F00DFA37E7C7F818E0C7E7302908
:102780009ED0079C62E7AA4650E72B4806F000FA65
:102790001E4B1D684AE7204B224D1A88134602EB58
:1027A000820149002869C605FCD5666AB6B2286967
:1027B000C005F7D5606A801B8842F8D300216162AA
:1027C0001649098805911849069180E7124A134B6A
:1027D00012881B881449656205930691134676E7B3
:1027E0000A4B1D6062B6154806F0D2F900F070FE83
:1027F000012015B0BDE8F08F012070470A4906910D
:1028000065E700BF0400032000480140942B03202B
:10281000902B0320912B03200A00032008000320A3
:102820000000032000040242982B0320972B032072
:1028300028430108244601089C420108B0450108CC
:102840002DE9F04F91B0FEF7C9FC72B600229C4909
:102850009C4B4A621868831C00F01881C71C00F06A
:102860004981441C02D14FF0000E0CE03024964BFD
:10287000964A1978127804AB0094FEF7F9FC864664
:10288000002800F017814FF08044914A914B128844
:10289000B3F800C00392904B904A0CEB8C05B2F851
:1028A00000B01E688E49864F6D000A69D005FCD5C0
:1028B000606A80B20A69D205F7D5626A121A954237
:1028C000F8D80A6912F4807207D07A6A5A4500F281
:1028D000D2800A6912F48072F7D16262BEF1000FF1
:1028E00000F0258116467F4A4FF0804891460398B4
:1028F00002920DF1100AD8F824208242FBD3784AC4
:102900006044126912F4807F1AF8012B00F0AA804B
:10291000312ACAD10136B64509F8012BEBD1039A09
:102920000CFB0E2200244FF0804040F69E764FF0C4
:10293000310830276A4D416A9142FCD3296901343C
:1029400011F480710AD1B64598BF029C624498BFC9
:1029500004F80E700C460EF1010EECE7B64598BF78
:102960000299624498BF01F80E80092C0EF1010E05
:10297000E1D10399DFF848A1594EC3F800E0511A9C
:102980000393DAF82400584533D840F68E739E45F9
:102990002FD8029B0EF1FF351D4400204FF08043DD
:1029A0004FF031094FF030080EF101045F6A8F4299
:1029B000FCD3052894BF4FF000774FF40077B76140
:1029C0005F6A9742FCD337696144FF0554BF05F83D
:1029D000018F05F8019FDAF8247062445F4504EB2B
:1029E000000ECED801301028E0D1DAF824305B4553
:1029F000CBD94FF08042039BC3F800E0536A8B426F
:102A0000FCD32F4C636A5B4518D84FF080430027F6
:102A10004FF000764FF400750CEB4C013048490044
:102A20004FEA0C1C5F6286615A6A8A42FCD3856158
:102A30005A6A6245FCD3626A5A45F3D9BEF57A6F89
:102A400014D20023029A02F80E3062B600F040FD64
:102A5000244806F09DF8244806F09AF8002011B0AA
:102A6000BDE8F08F302A3FF455AF1EE70023029AED
:102A700082F89F3FE9E71E6062B61C4806F088F8BE
:102A800000F026FD012011B0BDE8F08F4FF0804529
:102A9000104C144E104B0E481049B4F800C002966A
:102AA0006A620288D3F800E00392B1F800B00EFB2E
:102AB0000C2237E70E4806F06BF84FF0000EE2E606
:102AC0000048014004000320912B0320902B032099
:102AD000080003200A000320942B03200000032099
:102AE00000040242982B032028430108B045010846
:102AF0009C4201084FF080420F4B1048B3F800C0D1
:102B00000CEB8C0149000369DE05FCD5546AA4B2C4
:102B10000369DD05F7D5536A1B1B8B42F8D30024EC
:102B2000074D084B0295084808495462B9E7044923
:102B3000039A0291F6E600BF0A0003200004024255
:102B4000982B0320942B032008000320000003206F
:102B50002DE9F04FA24C93B023680333012B40F2D0
:102B600014818346FEF73AFB72B600264FF080428E
:102B70009C4B5E629C4B1E6056622068811C00F07C
:102B80002581C31C00F04A81421C72D134464FF0AB
:102B9000804C964BDFF864A21D88954B05EB850EA3
:102BA0001B8894490593944BDFF83882B3F8009062
:102BB0004FEA4E0E0B69DB05FCD5DCF8242092B2FF
:102BC0000B69DF05F6D5DCF824309B1A9E45F7D853
:102BD0000B6913F4807308D0D8F824304B4500F209
:102BE000C6800B6913F48073F6D1CCF82430002C26
:102BF00000F02E814FF080401E46804B06AF059AB4
:102C000004930397436A9342FCD37A4B039F1B6957
:102C10002A4413F4807F17F8013B03973BD0312BF4
:102C2000C8D1049F013607F8013BB4420497E9D1AB
:102C30006D4B1C60059B05FB043300264FF0804262
:102C400040F69E7C4FF031094FF03008694F0BF190
:102C5000060E516A9942FCD33969013611F480712C
:102C600004F101001AD1644521D90E4604462B44D3
:102C7000EFE7634B1A7830230093624B197806AB69
:102C8000FEF7F6FA0446002881D15F4805F080FF80
:102C9000554B1E687BE7302BC3D08BE7644598BF4C
:102CA0000AF80490B6452B4407D90446D1E70AF840
:102CB00004800E4601342B44CBE701464FF08040A0
:102CC000059A9E1A426AB242FCD34FF000774FF049
:102CD0008040484A9761426A9A42FCD3454A02348E
:102CE000126912F4807F40F69E7255D1914261D9EB
:102CF0003D48944204602E442B4442D84FF0804219
:102D00004FF4007C4FF031084FF0300E3F4F394CFC
:102D10005144506AB042FCD3C4F818C0506A834290
:102D2000FCD82069C0051BD401F801EFB9422E443C
:102D30002B44EED140F69F732B4A136040F69F73ED
:102D400000220AF8032062B600F0C2FB2B4805F00F
:102D50001FFF2F4805F01CFF002013B0BDE8F08FC7
:102D600001F8018FB9422E442B44D2D1E2E71E4B29
:102D700028481C461E6005F00BFF2368B3F57A6FE8
:102D8000DED300238AF89F3FDDE7234805F000FFEC
:102D9000012013B0BDE8F08F9142A9D8124A2E4409
:102DA000146031220AF8012040F69F7294422B44AD
:102DB000A4D1C3E70C4A2E44146030220AF8012043
:102DC00040F69F7294422B4498D1B7E7084B566265
:102DD0001B88064A34461588DFF820A005932CE7A7
:102DE0000400032000480140942B03200A00032024
:102DF000080003200004024200000320982B032057
:102E0000902B0320912B03209C420108363B03208A
:102E10002843010868460108544601080D4B0E4935
:102E20001D8805EB850464000B69DF05FCD5506A3D
:102E300080B20B69DE05F7D5536A1B1AA342F8D39B
:102E40000024064B54621B88DFF814A00593F4E6B7
:102E5000059BF2E60A00032000040242080003205A
:102E6000982B03209B4B2DE9F04F1B6893B0033345
:102E7000012B40F224818146FEF7B0F972B600239F
:102E8000DFF87CB2944ACBF82430DBF82430168883
:102E9000B34280F0DA80914C09F1060900274FF027
:102EA00080428C4B57621D688D4BA91C1F6000F03F
:102EB000D680EB1C00F0E480691C00F0CD8030234C
:102EC0000093884B28461A78874B197806ABFEF793
:102ED000CFF98246002800F0CB8038464FF080477B
:102EE000824BB3F800E0824B0EEB8E0C1B884FEA4E
:102EF0004C0C04932369DA05FCD57A6A92B22369F3
:102F0000DB05F7D57B6A9B1A6345F8D3236913F475
:102F1000807308D0DBF82430B34200F2CA80236902
:102F200013F48073F6D17B62BAF1000F00F0C48015
:102F30004FF0804118466F4B049A03930DF1180827
:102F400005954B6A9342FCD32369724413F4807F46
:102F500018F8013B1FD0312B1FD1039D013005F81C
:102F6000013B82450395ECD1DDE9043500FB0E32CF
:102F700000274FF0804101304B6A9342FCD3236914
:102F8000013713F4807300F1010C08D0B945724485
:102F900009D96046F0E7302BDFD0059DAAE71F4630
:102FA00072440130E8E74FF080414D4B1860049BBC
:102FB000D21A4B6A9342FCD34FF000734FF080411A
:102FC0007244A3614B6A9342FCD34FF4007CC4F873
:102FD00018C0DBF82430B34237D202357FF45EAF3D
:102FE0004FF080414FF0000E4FF0007B3F4B3B4DC8
:102FF0001F883F4BDFF808A1B3F800800024424649
:103000002046C1F824E0C1F824E04B6A9A42FCD87B
:103010002B69013013F4807358D0814504F1010409
:103020003A44F2D8A2EB08024B6A9A42FCD8C5F89F
:1030300018B03A444B6A9A42FCD8C5F818C0DAF87E
:1030400024309E42DAD8264B1C6062B600F040FA6B
:10305000002013B0BDE8F08F3846BA463EE7244B57
:1030600057621A88214B3846B3F800E004927FE794
:10307000214805F08DFD184B1E88194B18682DE767
:103080001A4B1649B3F800E00EEB8E077F000B6970
:10309000D805FCD5506A80B20B69DB05F7D5536AB9
:1030A0001B1ABB42F8D30020114B50621A880492BD
:1030B0005EE70B4B1860C8E75046049A58E70F4884
:1030C00005F066FD012013B0BDE8F08F184601340D
:1030D0003A449AE70400032000000320000402425F
:1030E000942B0320902B0320912B03200A00032014
:1030F00008000320982B03209C4201085446010835
:1031000000480140034600B583B008465BBA02227E
:103110000DF10601ADF8063005F0DEFE03B000BD8E
:103120008446002310B50C4682B00DF10600022241
:103130006146ADF8063005F0CFFEBDF80600012C63
:1031400098BFC0B240BA80B202B010BD844600231E
:1031500010B50C4682B00DF1060002226146ADF8B2
:10316000063005F0B9FEBDF80600012C98BFC0B2CC
:1031700040BA80B202B010BD034600B583B0084625
:103180005BBA02220DF10601ADF8063005F0A4FE8F
:1031900003B000BD8446002310B50C4682B00DF18B
:1031A000060002226146ADF8063005F095FEBDF836
:1031B0000600012C98BFC0B240BA80B202B010BD68
:1031C0008446002310B50C4682B00DF106000222A1
:1031D0006146ADF8063005F07FFEBDF80600012C13
:1031E00098BFC0B240BA80B202B010BD034600B56D
:1031F00083B008465BBA02220DF10601ADF8063035
:1032000005F06AFE03B000BD8446002310B50C46ED
:1032100082B00DF1060002226146ADF8063005F0DD
:103220005BFEBDF80600012C98BFC0B240BA80B268
:1032300002B010BD034600B583B008465BBA022257
:103240000DF10601ADF8063005F046FE03B000BDF5
:103250008446002310B50C4682B00DF10600022210
:103260006146ADF8063005F037FEBDF80600012CCA
:1032700098BFC0B240BA80B202B010BD84460023ED
:1032800010B50C4682B00DF1060002226146ADF881
:10329000063005F021FEBDF80600012C98BFC0B233
:1032A00040BA80B202B010BD087070470078704715
:1032B000002300B5012983B0ADF8063002D81846C6
:1032C00003B000BD014602220DF1060005F004FE28
:1032D0009DF8060003B000BD002300B5012983B0AE
:1032E000ADF8063002D8184603B000BD01460222F0
:1032F0000DF1060005F0F0FDBDF80600000A03B070
:1033000000BD00BF007870470870704700787047B4
:103310008446002310B50C4682B00DF1060002224F
:103320006146ADF8063005F0D7FDBDF80600012C6A
:1033300098BFC0B240BA80B202B010BD034600B51B
:1033400083B008465BBA02220DF10601ADF80630E3
:1033500005F0C2FD03B000BD8446002310B50C4645
:1033600082B00DF1060002226146ADF8063005F08C
:10337000B3FDBDF80600012C98BFC0B240BA80B2C0
:1033800002B010BD0078704700787047012994BFE3
:1033900000780088704700BF007870472DE9F04F33
:1033A0003A4B8346984283B007D8394B984260D94C
:1033B0004FF028094FF4487609E036494FF02509C7
:1033C000B1FBFBF1C9B2192940F2EE265BD9012409
:1033D000304B0134A4B2B3FBF4F1B1FBFBF1C9B241
:1033E0001929F6D8B4F5806F3FD201202A4BCDF8C9
:1033F00004B01F6823186FF0004C4FF47A759B4699
:103400001FFA83FAA1F1020EBEEB510F4FEA5103EE
:103410001ADD01F1FF385FFA88F805FB03F2B2FB11
:10342000F1F2B21A002AB8BF5242624509DA914558
:1034300007DB00209446A8EB0302D2B2FB617C615B
:103440003A6201337345E8DB124B1FFA8BF4B3FB8E
:10345000FAF1019BB4F5806FB1FBF3F10AF1010AB7
:10346000C9B203D004F1010BCCE7012003B0BDE8E1
:10347000F08F08494FF02B09B1FBFBF1C9B21929B4
:1034800040F26B36A3D80124AFE700BF00350C0033
:1034900020A10700005A6202303C032038B50C46D8
:1034A000064D0749074B0A602860074901201C6048
:1034B0000DF09AFE054B186038BD00BF303C03206C
:1034C000283C03202C3C0320403B0320903B03205E
:1034D00030B53F4C83B0206806F08CFC206806F0C5
:1034E000D1FA002851D100223A4D40213A482A71A0
:1034F000EA602A616A61AA61AA60EA6185F820200F
:1035000007F0C2FB206805F1240106F0A5FB0028A6
:103510005BD13249206806F09FFB002852D100237E
:10352000022220681146009306F0C2FB002846D113
:10353000206806F003FC00283ED10022012120680B
:1035400006F0B4FDA8BB00220621206806F0AEFDFF
:1035500060BB07224FF4F051206806F0A7FD10BBB6
:1035600007228021206806F0A1FDC8B900221C496D
:10357000206806F09BFD80B900224FF4602120688E
:1035800006F094FD20B903B030BDFDF7C1FDAAE7F8
:1035900003B0BDE83040FDF7BBBDFDF7B9FDEBE77B
:1035A000FDF7B6FDE2E7FDF7B3FDD9E7FDF7B0FDA6
:1035B000CFE7FDF7ADFDC6E7FDF7AAFDBDE7FDF7D7
:1035C000A7FDB5E7FDF7A4FDA9E7FDF7A1FDA0E77D
:1035D000303C032010000320000402424C00032072
:1035E00000407100014B186806F004BC303C032019
:1035F000082824D8DFE800F0080C1014171A1D2042
:1036000005001448FFF7CABE42F21070FFF7C6BEAD
:1036100044F62060FFF7C2BE4CF25030FFF7BEBE4A
:103620000D48FFF7BBBE0D48FFF7B8BE0C48FFF7CB
:10363000B5BE0C48FFF7B2BE0B48FFF7AFBE0B4A52
:10364000A0F51C53103B934201D901207047FFF7AE
:10365000A5BE00BF40420F00A086010048E801005F
:1036600090D0030020A1070000350C00301B0F0094
:103670000346054A1978002051615978D16199783B
:103680001162DB7893617047A02A03200246024B47
:1036900000209A61704700BFA02A0320034600B5AE
:1036A000064A93F801E093F800C082F810E004495C
:1036B0009B7881F800C05374002000BDA02A03202D
:1036C000C00603202DE9F047054682B0C0680F46CA
:1036D00005F0FAFBAB68B3F1005F3ED006468246C8
:1036E00000F12409264C4FF0FF3120680DF03AFE1E
:1036F0000128F8D1DFF89480D8F800000EF052F8D5
:10370000484517D202251F4A13792B431371002312
:1037100020681A4619460DF0CBFC1B4A022312689A
:1037200010680022114600920FF012FB284602B0EA
:10373000BDE8F08729464FF0FF332422D8F8000077
:103740000EF052F8054686B94D450CD00D4A0125BC
:10375000137943F008031371D9E74FF0000A4FF0D3
:1037600024095646BEE70025D1E7524639464FF0B8
:10377000FF33D8F800000EF037F80544E4E700BF47
:10378000903B0320100003202C3C0320383B0320F7
:1037900030B40122002410200A4B04211B684FF48E
:1037A00040751C82C3E90520DC6018623F240F20AD
:1037B0009A74C3E90125DC61C3E9092130BC1963AE
:1037C000D8627047303C03202DE9F04700250C46B5
:1037D00082B0C9070646019516D4A20707D5022173
:1037E000314A137943F00103137133681965630794
:1037F00038D4019B2BB14FF0E0234FF08052C3F837
:10380000042D02B0BDE8F087DFF8A890DFF89880BB
:1038100040214A46254B06F065FBD8F81430D9F80C
:103820000C000133C8F8143005F04EFBDFF888A017
:103830000746DAF800000DF0B5FF07F128039842BB
:1038400024D349462822DAF8000001AB0EF066F8CE
:10385000002FC2D03A46DAF80000144901AB0EF04E
:103860005DF8BAE70424104B11499A6908680132DF
:103870009A611A79002142F008021A7133680068CF
:103880000DEB04021C650FF083FBB2E7D8F818308B
:1038900029460133C8F81830054B01AA1B6818687F
:1038A0000FF076FB99E700BF10000320E83B0320F0
:1038B000283C0320C03B03203C3B0320002110B5E3
:1038C0000A4A0B4C1268236982B01068013301AABE
:1038D000236101910FF05CFB019B2BB14FF0E023C2
:1038E0004FF08052C3F8042D02B010BD2C3C0320D1
:1038F00010000320002110B50A4A0B4C1268E3693E
:1039000082B01068013301AAE36101910FF040FB1E
:10391000019B2BB14FF0E0234FF08052C3F8042DF0
:1039200002B010BD283C03201000032038B50C461F
:10393000104D294606F070FBA10303D5EB68A3B92F
:103940000D4A1360620309D52B690B4A012B1379C9
:103950000CBF43F0040303F0FB031371230303D5EF
:103960000122054B83F8202038BD4FF00042024B66
:103970001A60E7E7943B032010000320F0B5002510
:103980000B7885B0074602950395CBB10C460DF137
:10399000FF3608E02046D5B205F03AFA14F8023FA7
:1039A00006F8010F23B163786A1C0BB3072DF1D120
:1039B0008DF808502A4669460DF1090010F0A8FB61
:1039C00000230E4C0820C4E90533C4E90133276005
:1039D00005F080FA082203460DEB02010848E36077
:1039E00005F07AFA20460649FFF76CFE05B0F0BDF7
:1039F0008DF80850002DDDD1E2E700BF403C0320E8
:103A0000343C032042F202032DE9F04300249942A2
:103A10008BB0445400F2BA80002900F0778100F1A5
:103A2000FF3E0139F4467346014405E00A2A1CBFF3
:103A3000025501348B4209D013F8012F082AF5D121
:103A4000002CF7D08B4204F1FF34F5D10025AC42B5
:103A5000055540F355812A460EEB04031CF8011F5F
:103A6000202900F0898082B99C4505F101050CF1FF
:103A700001010CD09CF80140202C7FD0994206D047
:103A80001CF8022F203A18BF01229C45E6D1A0491C
:103A900001AA05F07BFA0446002800F081809D49C8
:103AA00005F03EFA002800F00681012D40F3B180B8
:103AB0009749002001AA05F069FA9749044605F0E4
:103AC0002FFA002870D12046944905F029FA0028E1
:103AD00000F09481924805F05BF8924805F058F8A0
:103AE0008F4805F055F8904805F052F88F4805F0DA
:103AF0004FF88D4805F04CF88D4805F049F88D4891
:103B000005F046F8884805F043F88B4805F040F882
:103B10008A4805F03DF8844805F03AF8884805F0F1
:103B200037F8884805F034F87F4805F031F88648C2
:103B300005F02EF8854805F02BF8854805F028F8A3
:103B4000844805F025F8844805F022F8834805F0FC
:103B50001FF8834805F01CF8824805F019F88248E0
:103B600005F016F8704805F013F86D4805F010F8E8
:103B70007E4805F00DF80CE0002286E7994286D0D9
:103B80001CF8021F20297FF46FAF7EE7784804F00D
:103B9000FFFF784804F0FCFF00200BB0BDE8F08385
:103BA000754804F0F5FFF4E75D4804F0F1FF5D4867
:103BB00004F0EEFF5A4804F0EBFF5B4804F0E8FF26
:103BC0006E4804F0E5FF584804F0E2FF584804F05E
:103BD000DFFF6B4804F0DCFF534804F0D9FF564880
:103BE00004F0D6FF674804F0D3FF4F4804F0D0FF3D
:103BF000534804F0CDFF644804F0CAFF4A4804F07B
:103C0000C7FF514804F0C4FF604804F0C1FF60489A
:103C1000A6E7434804F0BCFF424804F0B9FF40481F
:103C200004F0B6FF404804F0B3FF5A4804F0B0FF78
:103C30003D4804F0ADFF584804F0AAFF574804F08F
:103C4000A7FF574804F0A4FF564804F0A1FF5648C8
:103C500004F09EFF554804F09BFF554804F098FF80
:103C6000544804F095FF544804F092FF534804F080
:103C70008FFF534804F08CFF524804F089FF5248EC
:103C800004F086FF514804F083FF514804F080FFA0
:103C9000504804F07DFF504804F07AFF4F4804F08C
:103CA00077FF214804F074FF4D4804F071FF1C4871
:103CB00004F06EFF6DE720464A4905F031F900280F
:103CC0007FF4F3AE2046484905F02AF900287FF436
:103CD000ECAE2046454905F023F9074600287FF45D
:103CE000E4AE2046424905F01BF98046002800F06A
:103CF0000381022D00F0D3803E4804F049FF48E7DD
:103D00007FF4C5AE3C4804F043FF42E70170F9E799
:103D100094460108C4460108E046010880480108AD
:103D2000E846010828470108284301088848010897
:103D3000644701089C480108A8470108D8480108C1
:103D4000CC470108EC48010820480108384901081F
:103D5000584901086849010888490108984901083B
:103D6000B8490108C8490108F4490108C44B0108D1
:103D70007C460108FC650108984601085447010883
:103D800074470108B0470108D84701082C480108CA
:103D900070480108184C0108BC4C0108C84C0108C7
:103DA0003C4D0108C44D0108F04D0108404E01088A
:103DB000904E0108E04E0108384F0108A44F010859
:103DC000CC4F0108F84F010858500108C0500108B5
:103DD0000C510108505101087C510108D4510108CF
:103DE0002C520108CC460108D4460108DC460108E3
:103DF000084A01084C5201089046010820469149A2
:103E000005F08EF8002846D08F4804F0C1FE8F4898
:103E100004F0BEFE8C4804F0BBFE8D4804F0B8FEF2
:103E20008C4804F0B5FE8A4804F0B2FE8A4804F0DB
:103E3000AFFE8A4804F0ACFE854804F0A9FE88482D
:103E400004F0A6FE874804F0A3FE814804F0A0FE1B
:103E5000854804F09DFE854804F09AFE7C4804F0F5
:103E600097FE834804F094FE824804F091FE824855
:103E700004F08EFE814804F08BFE814804F088FE39
:103E8000804804F085FE804804F082FE7F4804F0FC
:103E90007FFE7F4864E67F4804F07AFE68E6384695
:103EA0007D4901AA05F072F803780446002B3FF41F
:103EB00070AE051D413B232B13D8DFE803F04139D9
:103EC000312912121212121212121212121212129C
:103ED000121212121212121212121212121241396C
:103EE00031296E4804F054FE14F8013F002B3FF4D2
:103EF00050AEA542DED14CE62046694905F010F8E7
:103F000000284ED0022D1FD0664804F041FE40E646
:103F1000654804F03DFE0021442002F083FCE3E705
:103F2000624804F035FE0021432002F07BFCDBE711
:103F30005F4804F02DFE0021422002F073FCD3E71D
:103F40005C4804F025FECFE74046534901AA05F03E
:103F50001DF803780446002B3FF41BAE051D413BC2
:103F6000232B13D8DFE803F03E36422E1212121232
:103F70001212121212121212121212121212121221
:103F800012121212121212123E36422E434804F03E
:103F9000FFFD14F8013F002B3FF4FBADA542DED13D
:103FA000F7E52046444904F0BBFF002800F0B1804B
:103FB000012D00F0A680AE1E012E1FD93F4804F04F
:103FC000E7FDE6E53E4804F0E3FD0121442002F070
:103FD00029FCDEE73B4804F0DBFD0121422002F032
:103FE00021FCD6E7384804F0D3FDD2E7374804F087
:103FF000CFFD0121432002F015FCCAE7264901AAA2
:10400000002004F0C3FF04F027FFB0F5006F80F03C
:1040100098802F4F022D386000F08A801E4901AA37
:10402000002004F0B3FF064604F062FFC107044617
:1040300000F18B80102800F288803546DFF89480EC
:1040400050E000BF084A0108E84601082847010877
:1040500028430108104A010864470108244A01085E
:10406000A8470108604A0108CC470108744A0108C2
:1040700020480108C04A0108E04A0108F44A010842
:10408000144B0108284B0108484B01085C4B010800
:10409000884B01089C4B01089446010854530108C1
:1040A000804801087C530108305301080C53010873
:1040B000E85201089C520108545401087454010844
:1040C00030540108E8530108CC5301080C5401088E
:1040D000983C0320903C0320284604F099FE0235CA
:1040E00008F8010BAB1B9BB29C42F5D8601CC0F3D7
:1040F000470004F0EFFE0346AC48FB6004F048FDC7
:1041000047E54FF0FF32AA4BAA481A6004F040FD81
:104110003FE52046A84904F003FF002861D0012DA7
:1041200052D0AE1E012E14D9A44804F031FD30E562
:10413000002004F0CFFE0346A148FB6004F028FDF8
:1041400027E5A04804F024FD23E59F4804F020FD66
:104150001FE59E4901AA002004F018FF04F07CFE30
:10416000B0F5006F80F0AB80994F022D386000F001
:104170009D800CF007FE28210CF006FE01AA934951
:10418000002004F003FF064604F0B2FEC207044616
:10419000DBD41028D9D83546DFF89C8205E02846C4
:1041A00004F036FE023508F8010BAB1B9BB2A342AC
:1041B000F5D3601CC0F3470004F08CFE034685482D
:1041C000FB6004F0E5FCE4E44FF0FF32804B8248F2
:1041D0001A6004F0DDFC0CF0D5FD18210CF0D4FDC4
:1041E000D7E420467D4904F09BFE10B3032D03D095
:1041F0007B4804F0CDFCCCE4744901AA002004F013
:10420000C5FE7249054601AA002004F0BFFE0A213E
:10421000002204F0EFFE73490446284604F080FEB5
:10422000A0B1714B71485C6104F0B2FCFFF750F92A
:10423000AFE420466E4904F073FE0646002842D0E3
:10424000032D0FD06B4804F0A3FCA2E428466A4972
:1042500004F066FE002843D0634B6848DC6104F03C
:1042600097FCE3E75949002001AA04F08FFE644956
:10427000044604F055FE002874D040F2DF7401AA11
:104280005249002004F082FE054604F031FE421E31
:1042900092B20D2A034661D8DB075FD42046294637
:1042A000FFF76CFB574804F073FC72E4002004F045
:1042B00011FE03465448FB6004F06AFC69E453486D
:1042C00004F066FC65E42046514904F029FE0746E7
:1042D000002851D0022D10D04E4804F059FC58E46B
:1042E00028464D4904F01CFE002800F0BD803E4BDE
:1042F0004A481C6204F04CFC98E73046334901AA56
:1043000004F044FE451E041D15F8012FA2F12A03F6
:10431000002A3FF43EACA5423FF43BAC1A2B00F21E
:104320000E81DFE813F003010C010C010C010C01FC
:104330000C010C010C010C010C010C010C010C0115
:104340000C010C010C010C010C010C010C010C0105
:104350000C010C018B00390098008F00304804F0EC
:1043600017FC16E420462F4904F0DAFD002800F07F
:10437000868040F2E17482E720462B4904F0D0FDAC
:104380000646002800F00281022D00F0DC8027485C
:1043900004F0FEFBFFF7FDBB254804F0F9FB40F2FB
:1043A000E1702449FFF7EAFAAEE700BFF8540108CC
:1043B000983C03205C540108245501084855010825
:1043C000C05401089C540108E054010894460108B7
:1043D0006C3C0320BC5501082C550108E45501082C
:1043E000E855010850440108A02A0320045601089A
:1043F000485701084C5701081C560108245601086B
:1044000088570108205801089C550108705501087B
:10441000345801083C580108385601084056010834
:10442000F45701088C570108EC580108F4580108AA
:10443000B05801087C580108643C03209C4804F0F3
:10444000A7FB61E79B4804F0A3FB40F2E3709A49A5
:10445000FFF794FA58E7994804F09AFB40F2E270AB
:104460009549FFF78BFA4FE72846954904F058FD28
:1044700068B1944B94489C6104F08AFBD6E62046D0
:10448000924904F04DFD80B140F2E274F7E628460F
:104490008F4904F045FD80B1003C18BF0124894BD1
:1044A0008C481C7404F074FBC0E620468A4904F072
:1044B00037FD80B140F2E374E1E62846874904F015
:1044C0002FFD90B1003C18BF01247E4B84485C74E2
:1044D00004F05EFBAAE62046824904F021FD90B17B
:1044E000814804F055FB0024C9E628467F4904F0C2
:1044F00017FD60B1003C18BF01247D4B7D481C7046
:1045000004F046FB92E67C4804F042FBEBE72846C9
:104510007A4904F005FD00286CD0002C63D178485E
:1045200004F036FB0222674BDA607FE6754804F040
:104530002FFB40F2DF706049FFF720FAE4E66E4897
:1045400004F026FBE0E638466F4901AA04F01EFDA0
:10455000451E041D15F8012FA2F12A03002A3FF47D
:1045600018ABA5423FF415AB1A2B38D8DFE803F09F
:104570002E373737373737373737373737373737D4
:10458000373737373737374F46251C0020465F49C6
:1045900004F0C6FC0746002861D0012D3BD05C48E2
:1045A00004F0F6FAFFF7F5BA5A4804F0F1FA40F2CF
:1045B000E3705949FFF7E2F9CCE7584804F0E8FA0C
:1045C00040F2E2705449FFF7D9F9C3E7544804F0C8
:1045D000DFFA40F2DF705049FFF7D0F9BAE74648FA
:1045E00004F0D6FAB6E74F4804F0D2FA0022354B71
:1045F000DA601BE64C4804F0CBFA17E64B4804F0AF
:10460000C7FA40F2E1704449FFF7B8F9A2E7284839
:1046100004F0BEFA9EE701AA3B49304604F0B6FC1E
:10462000434804F0B5FA304602F036F932200CF077
:10463000CDFB2946422002F0F5F802F06FFE0CF0A7
:10464000C5FB2946432002F0EDF802F067FE0CF0AE
:10465000BDFB2946442002F0E5F8FFF79ABA204650
:10466000344904F05DFC30B1022D6DD0324804F0C5
:104670008FFAFFF78EBA2046304904F051FC00282B
:1046800000F01281012D40F30A8100201E4901AA89
:1046900004F07CFC044600283FF47BAA284904F07F
:1046A0003FFC002868D0274804F072FAFFF771BA7F
:1046B00088580108D85801087C580108C4580108D6
:1046C00054560108A02A03205856010890570108A3
:1046D0006C5601087856010894570108A056010845
:1046E000B0560108985701089C570108CC5601089C
:1046F000C0060320D8560108D0570108F856010813
:10470000FC5601085858010894460108A0590108B0
:10471000AC59010880590108345901086059010851
:104720000C59010818570108305701084059010871
:10473000D4590108305A01083C5A0108F05A0108BE
:10474000C4460108385B01083846C14901AA04F093
:104750001DFC451E041D15F8012FA2F14103002A7E
:104760003FF417AAA5423FF414AA032B00F22B82B0
:10477000DFE803F0912D240B2046B64904F0D0FB6E
:1047800060B1FDF7ABFDFFF704BAB34804F000FADF
:1047900040F2E370B149FFF7F1F8DCE72046B04999
:1047A00004F0BEFB0646D8B1AE4804F0F1F9FDF7BF
:1047B00055FCAD4804F0ECF9FFF7EBB9AB4804F059
:1047C000E7F940F2E270A549FFF7D8F8C3E7A84837
:1047D00004F0DEF940F2E170A049FFF7CFF8BAE744
:1047E0002046A44904F09CFB00286CD0A24804F0A9
:1047F000CFF9FDF75FFC4FF47A730446B0FBF3F09A
:1048000002A903FB104404F023FC0A210346B4FB75
:10481000F1F24FF02E09642503F12808E84408F866
:10482000209CB2FBF1F8B4FBF5F54FF0200E4FF0F1
:10483000250C0D2701FB124401FB18220DF128085D
:10484000591C58FA81F1303501F8205C991C30323E
:1048500058FA81F101F8202CDA1C58FA82F230342F
:1048600002F8204C1A1D58FA82F202F820EC5A1D68
:1048700058FA82F202F820CC9A1D073358FA82F2D5
:1048800058FA83F302F8207C02A803F8206C04F0A5
:104890007FF9FFF77EB9794804F07AF95BE7784849
:1048A00004F076F9FFF775B92046764904F038FB35
:1048B00000287FF4E7AE2046734904F031FB78B15D
:1048C0000120FFF76AB92046704904F029FB06462B
:1048D00040B36F4804F05CF9FDF76CFDFFF759B980
:1048E00020466C4904F01CFB0028E9D120466A49A7
:1048F00004F016FB0028E3D12046684904F010FBC1
:1049000006460028DCD12046654904F009FB002852
:104910007AD0012D2BD0022D11DD624804F038F938
:10492000FFF737B92046604904F0FAFA00283ED074
:10493000032D26D05D4804F02BF9FFF72AB9304645
:10494000434901AA04F022FB451EC41C15F8012F9F
:10495000A2F14103002A3FF41CA9A5423FF419A982
:10496000032B00F23481DFE803F0C4403159504892
:1049700004F00EF9C8200CF029FA04F019FFFFF733
:1049800008B9334901AA304604F000FB0A2102AA03
:104990008DF8086004F02EFB9DF80830C4B2012B9E
:1049A00000F09C80434804F0F3F8FFF7F2B820468B
:1049B000414904F0B5FA002800F0B980032D00F059
:1049C0009C803E4804F0E4F8FFF7E3B83C4804F06C
:1049D000DFF80021432001F025FF32200CF0F6F92A
:1049E0000121432001F01EFFB0E7364804F0D0F863
:1049F0000021422001F016FF32200CF0E7F90121DE
:104A0000422001F00FFFA1E720462F4904F088FA69
:104A100098B12E4804F0BCF8FFF7BBB82C4804F05E
:104A2000B7F80021442001F0FDFE32200CF0CEF951
:104A30000121442001F0F6FE88E7264804F0A8F89A
:104A4000204604F0A5F8244804F0A2F8FFF7A1B826
:104A50009446010800620108AC5A01087C5A01081A
:104A6000086201080C62010818620108885A0108EE
:104A7000585A010820620108286201088858010874
:104A8000FC5A0108F45A0108A063010840620108B9
:104A900048620108A4630108AC630108B46301081B
:104AA000BC630108146401086062010868620108BF
:104AB000C4630108A0620108B4620108C062010871
:104AC000F8640108E464010820650108286501080C
:104AD0000C650108A4650108B86501083E4804F0AA
:104AE00057F82046FEF7BEF93C4804F051F8FFF7AE
:104AF00050B83B4804F04CF828E73A4901AA002096
:104B000004F044FA00230A2102AA8DF8083004F0C8
:104B100071FA9DF80830C4B2012B7FF443AF2E48E0
:104B200004F036F82046FEF713F8FFF732B82046B7
:104B30002D4904F0F5F948B12C4804F029F8032D6B
:104B400011D02B4804F024F8FFF723B82046294958
:104B500004F0E6F9064678B1274804F019F8FDF7A5
:104B60006FFEFFF716B81F4901AA002004F00EFAE5
:104B7000FDF726FDFFF70DB82046204904F0D0F9D7
:104B800070B1042DDDD1174901AA304604F0FEF9B9
:104B9000FDF7A4F868B9114803F0FAFFFEF7F9BF72
:104BA0002046174904F0BCF940B1FDF7C3F9FEF700
:104BB000F0BF144803F0ECFFFEF7EBBF124803F020
:104BC000E7FFFEF7E6BF114803F0E2FFC3E50F4839
:104BD00003F0DEFFBAE600BF8C62010898620108AC
:104BE0009864010894460108E8620108F06201082F
:104BF000FC6201081C63010824630108406301088A
:104C0000606301084463010868630108D05A010821
:104C10002DE9F04703780546A3F13002012A0E463C
:104C2000A0B040F28F800022824FCDE90B2279792B
:104C3000012910D00024DFF80082752BD8F800205D
:104C4000CDE90D440A9213D1132E00F06E8100209D
:104C500020B0BDE8F087701E295C0024692904BFDC
:104C60004FF000420646752BCDE90D440A92EBD079
:104C7000295D2246722905EB040900F0E58000F267
:104C8000458152297FD054297DD0233B562B00F2F9
:104C90003881DFE813F0ED033601AE03360136014B
:104CA000360136013601360136013601360136014C
:104CB000360136013601360136013601360136013C
:104CC00036013601360136013601360136015B0107
:104CD000530336013601A403830376036E031C04D9
:104CE0005B0117040F04F6036D042D0453046003E5
:104CF000360136013601B3013601360199018D01C5
:104D000084017A016001360136013601360136012F
:104D100036016D0168014603380336012803360168
:104D20005B011D030C03F402E902D602C002360146
:104D30004B02230236010D02360136010302FC014B
:104D4000EA01D9014FF4001142780C91302A00F0A9
:104D5000CD804FF48010374F0B907979012900F006
:104D6000D98000233449722A0968CDE90D330A91AC
:104D700005F1010966D063D8522A02D0542A40F0C6
:104D8000C08001242246B71A092F40F2BA804FF0A2
:104D900080434FF0000A601C28440793CDF820A000
:104DA00004F06AF8069004F10900284404F02AF897
:104DB00099F800308046522B099003D14FF00053F0
:104DC000D0460893404604F07FF8053000B2B7EBB8
:104DD000400F40F096800A34013EA64288BF00276B
:104DE0000DD9281904F014F80234E4B220AB53FAB8
:104DF00087F3B44203F8400C07F10107F1D303F045
:104E00008FFE10AC01210D4806AE03F09FFE214637
:104E10003046FEF757FC022800F08B8003F08CFE32
:104E20004046069D04F050F822460146284600F010
:104E300001FD0CE7D00003201000032028430108E7
:104E4000742A5ED101242246B71A042F59D94FF093
:104E5000000A601C2844CDE907AA03F0FDFF069074
:104E6000201D284403F0CEFF99F800308046722BB5
:104E7000099003D14FF00053D0460893404604F008
:104E800023F8052300B203EB40039F4239D10534D8
:104E9000013EA64288BF00270DD9281903F0B8FFAC
:104EA0000234E4B220AB53FA87F3B44203F8400C67
:104EB00007F10107F1D303F033FE10AC0121B5482F
:104EC00006AE03F043FE21463046FEF7FBFB022808
:104ED000A4D103F031FE02E00A200BF077FF214657
:104EE0003046FEF7EFFB0228F6D099E70022AA4FE2
:104EF0000B92797901290DD0A84B0D921B680E9267
:104F00000A930121A64803F0D5FDA0E674297FF499
:104F1000BCAE99E7721EA95C692900F04F8300229C
:104F20000124CDE90D220A92A2E6284600F036FEC1
:104F30008DE603F001FE02E00A200BF047FF214658
:104F40003046FEF7BFFB0228F6D069E716219548E8
:104F500003F0B0FD7BE6022ED3D16B78302B0CBF73
:104F600000230123FB7001218A4803F0A3FD6EE6B4
:104F7000022EC6D16B788C4A303B18BF0123012129
:104F80008448137403F096FD61E6022EB9D16B7864
:104F9000302B0CBF0020012001F07EFCE3E70DF078
:104FA000C5FA102840F21483804803F0F1FD4EE664
:104FB000022EA6D16B78303B032BA2D8DFE813F08A
:104FC000FC02F302F102E70201F0C8FC0F21002805
:104FD00000F08883764803F06DFD0C21754803F0DE
:104FE00069FD0121744803F065FD0921734803F050
:104FF00061FD0221724803F05DFD28E6B31E062B19
:105000003FF67FAF012200206E4CA9182E4411F804
:10501000013B00EB8000303B03EB4000DBB2092B8F
:105020008CBF002202F00102A0428CBF002202F0DD
:1050300001028E42EBD1002A3FF463AFFEF7D8FAAB
:1050400000287FF45EAF8EE7032E7FF45AAF6878B6
:10505000A0F14203022B3FF654AFAB78302B0CBFCC
:105060000021012101F0DEFB7DE77822564B8DF80F
:105070004020D3F890050DF1410103F0CDFD0D2343
:105080000A2110A88DF8493003F014FDDFE5FEF782
:105090001FFA01213F4803F00DFDD8E5022E7FF4F1
:1050A00030AF6B78302B0CBF002301237B715AE7A4
:1050B000052E7FF426AF01263B4CA819666103F04C
:1050C000A7FE0346E81CE36103F0A2FE2062FEF7A0
:1050D000FFF931462F4803F0EDFCB8E53B4803F0FB
:1050E00057FD4021304804F0D1FF03F067FD384CF4
:1050F0002D4804F0D5FF03F061FD20680CF052FB51
:1051000003F05CFD2068334C0CF060FB03F056FDAF
:1051100020680CF047FB03F051FD20680CF056FBB3
:1051200003F04CFD1B4803F033FD90E5022E7FF4A5
:10513000E8AE6B78423B022B3FF6E3AE00234FF420
:1051400000124FF48011BB70CDE90B12099340F2AD
:1051500081123B7000234FF01409CDE90623DFF8DC
:105160003C8010AC06AE002001F096FBFEF710FB71
:10517000FEF7AEF964200BF029FE6878012101F0FA
:105180006FFB6878012101F04DFB48460BF01EFED5
:1051900025E000BF28430108D000032010000320B1
:1051A0000042010870660108A02A0320A0660108D9
:1051B000086601082866010894460108346601085B
:1051C0002C67010840420F000000FA0B88660108B6
:1051D0003C3B0320383B03200A200BF0F7FD21461F
:1051E0003046FEF76FFA0228F6D032200BF0EEFDC3
:1051F000D8F8143023B909F11409B9F5D27FB2D126
:10520000D8F81430002B3FF47CAE0121C24839702D
:1052100003F050FC1BE5012E7FF473AE3146BE480F
:1052200003F048FCBD4800F061FD002001F034FBB4
:10523000002001F04BFB64200BF0C8FD04F0B8FA2D
:1052400005E5042E00F05D82092E7FF45AAE681C3D
:1052500003F012FE0346B24A23F000430121AE4898
:10526000136503F027FCF2E40121AB4803F022FCB4
:105270000123AC4A3B70D360FEF72AF9E7E4092E1C
:105280007FF43FAE681C03F0CFFD0346A54C681DBC
:10529000636103F0BDFD0346E81DE36103F0B8FD63
:1052A000034601219C48236203F004FCCFE46A23F7
:1052B0008DF8403002F032F80DF1410103F01AFD93
:1052C0000D23042110A88DF8433003F0F3FBBEE456
:1052D000022E7FF416AE6B789248302B00F03A82A3
:1052E00004F008FD3FE6022E7FF40BAE6B78302B06
:1052F00000F02C82312B0CBF4FF480724FF44072BF
:10530000884B9A602FE6022E7FF4FBAD6B78302B32
:1053100000F02382312B7FF426AE012000F0E0FC68
:1053200021E6022E7FF4EDAD6B78302B40F0DE816C
:10533000012100237C4A1170BB7014E6022E7FF419
:10534000E0AD6B78302B00F0FE81312B7FF40BAE9B
:1053500001233B7107E6012E7FF4D3AD31466E4841
:1053600003F0A8FB00226F4B3E70DA60FEF7B0F846
:105370006DE446236A4A0DF1410110798DF8403001
:105380009CE710A9674804F047FE02A9654804F0AD
:105390006BFE10A902A800F061FC58E4634803F01A
:1053A000A7FD431C9E427FF4ACAD604803F0A0FD16
:1053B0005E490246681C03F0D1FD00287FF4A1ADD0
:1053C0000121554803F076FBC8200BF0FFFC01F0EB
:1053D00017FE002840F0C58101F05EFE91E5012E28
:1053E0007FF48FAD002331464B483B7003F062FBE6
:1053F0002DE4032E7FF685AD6F1C384603F02CFD9F
:105400007608023E1FFA86F8404504467FF479ADDF
:1054100005F104084146B2B2454810AE03F0D8FC8D
:105420000DF07EF82246434B4149009602F0BAFB4C
:105430003946BDF8400003F025FCBDF84020404649
:105440003C4903F0C7FB0D22BDF84030284602332B
:1054500005F813205B00591C03F02CFB0DF060F8DD
:105460002246344B3249009603F0BAFAFFF7EFBBFD
:10547000012E7FF446AD304803F08AFB3046FFF73B
:10548000E7BB072E7FF43DAD681C03F0C1FC03466B
:10549000244CE81C636203F0BBFC0346681DE36216
:1054A00003F0B6FC034601211B48236303F002FB13
:1054B000FFF7CDBB4A238DF8403001F03DFF0DF1E1
:1054C0004101DAE5164800F0A9FBFFF7C0BB032E47
:1054D00000F02581052E7FF414AD681C03F098FCC4
:1054E0000346104CE81CA36103F092FCA0623AE56D
:1054F000042E00F01A81092E7FF403AD681C03F01E
:10550000BBFC0346064A23F0004301210248D36452
:1055100003F0D0FAFFF79BBB28430108906601080F
:1055200010000320A02A0320860003208C660108B7
:10553000B4660120B0560120406601084E238B4D11
:105540008B4E0DF141048DF8403015F8040B2146C7
:1055500003F0D0FBB54204F10204F6D1192110A8E2
:1055600003F0A8FA0121834803F0A4FAFFF76FBB08
:10557000012E7FF4C6AC31467E4803F09BFA02222E
:105580007D4B3E70DA60FDF7A3FFFFF760BB03229F
:105590007A4B01217748DA625A6403F08BFAFFF7FD
:1055A00056BB0222F4E70121744B7248D962596458
:1055B00003F080FAFFF74BBB0022E9E74FF0004110
:1055C000164600220124CDE90D220A91FFF750BBB7
:1055D0006B4803F0DDFA0CF0A9FF02AA0146694806
:1055E0000DF0BCF910AC684803F0D2FA0021224655
:1055F000029803F099FB204603F0CAFA634803F0CF
:10560000C7FA4FF00009DFF87C815EE0642106EB09
:10561000C60208EB82029269F50001FB02F2B2FBBE
:10562000F3F35FFA83FA22460021304603F07CFB55
:10563000AF19204603F0ACFA08EB8707544803F093
:10564000A7FA786803F0A4FA786803F051FC0728F9
:1056500094BF5048504803F09BFAAB1908EB830302
:105660001B7B3544052B96BF4C4A4D4852F823000E
:1056700003F08EFA22460021504603F055FB4648BF
:1056800003F086FA204603F083FA08EB85054548C7
:1056900003F07EFA22460021288C03F045FB3E48A9
:1056A00003F076FA204603F073FA3B4803F070FAF1
:1056B00022460021A86903F037FB204603F068FA70
:1056C0002C4803F065FA09F101090CF02FFF5FFA8D
:1056D00089F6B0427FF6BBAA029B002B96D19A4670
:1056E000F500A0E7304803F0E5F976E40024224B0A
:1056F0003C70DC60FDF7ECFE01222C4BBA701C7094
:1057000031E4681C03F0A8FB03461C4AC3F30A03F8
:1057100001211848936303F0CDF9FFF798BA681C8C
:1057200003F076FB144B98611DE4681C03F094FBB6
:105730000346124AC3F30A0301210E48536303F0E0
:10574000B9F9FFF784BA00233B710CE400220A4B3D
:105750009A6008E404F0E0FA05E4002000F0C0FAE2
:1057600001E40EF039FDFFF7CCBB00BF9005FA0B4A
:10577000C005FA0B28430108A02A032010000320CB
:10578000B066010870540120FC6601081C6701081E
:10579000306701083467010838670108986F01080D
:1057A000006601083C6701081866010886000320AE
:1057B000704700BF91B14FF0FF3210B4084C014464
:1057C00010F8013B5340DBB254F82330884283EA9F
:1057D0001222F5D1D0435DF8044B7047084670475C
:1057E000B06F01080022014B1A607047C03C0320D3
:1057F000704700BF00207047024A136801331360EE
:10580000704700BFC03C0320024A13680133136095
:10581000704700BFBC3C032000200CF09DBC00BFC3
:1058200000200CF099BC00BF0122014B1A70704798
:105830008600032000294AD030B577280C4683B073
:105840002DD8572800F284801A2800F03F81A0F15B
:1058500024031F2B39D81F2B37D8DFE813F00D0195
:105860003600360036003600360036003600360088
:1058700036003600060136003600360036003600A7
:105880003600360036003600FF003600360036009F
:10589000360036003600360036003600F800B0F527
:1058A000EA7F12D2B0F5DC7F12D2B0F5A87F00F00B
:1058B000138100F20081982800F09280A22804D180
:1058C0001046FDF723FD874BD87503B030BD7047F8
:1058D000A0F5DC731B2BF8D801A151F823F000BF11
:1058E000ED590008CB580008CB580008095A0008A9
:1058F000CB580008CB580008CB580008CB580008FC
:10590000CB580008CB580008CB580008CB580008EB
:10591000CB580008CB580008CB580008CB580008DB
:10592000CB580008FB590008CB580008CB5800089A
:10593000CB580008CB580008CB580008CB580008BB
:10594000CB580008CB580008CB580008175A00085D
:10595000A0F158031F2BB8D801A151F823F000BFC4
:10596000255A0008CB580008CB580008CB5800082F
:10597000CB580008CB580008CB580008CB5800087B
:10598000CB580008CB580008415A0008CB580008F3
:10599000CB580008CB580008CB580008CB5800085B
:1059A000CB580008CB580008CB580008CB5800084B
:1059B000CB580008335A0008CB580008CB580008D1
:1059C000CB580008CB580008CB580008CB5800082B
:1059D000CB580008CB580008CB580008875A00085D
:1059E0001046FDF78FFC3F4B98756EE72146104639
:1059F000FDF7CAFC3B4B988367E721461046FDF74D
:105A0000ABFC384B588260E721461046FDF7C4FCDA
:105A1000344BD88359E721461046FDF7B3FC314B90
:105A2000188252E721461046FDF712FC2D4B588193
:105A30004BE721461046FDF739FC2A4BD88144E755
:105A400021461046FDF71AFC264B18813DE72146FA
:105A50001046FDF7D9FB234B988236E721461046C6
:105A6000FDF7AEFB1F4B98802FE721461046FDF750
:105A700091FB1C4BD88028E721461046FDF766FBBA
:105A8000184B188021E7214610460192FDF710FCC3
:105A9000144D012C28733FF418AF019A214610468B
:105AA000FDF71AFC85F8200095F8200003B0BDE84A
:105AB000304001F0F1B940F2A71398427FF405AFEE
:105AC0001046FDF725FC074B5883FEE61046FDF710
:105AD00027FB044B5880F8E61046FDF757FC014BB6
