:020000040800F2
:1000000000000420ED470008694600086D4600081E
:100010007146000875460008794600083D4800080A
:10002000000000000000000000000000E1E80008FF
:100030007D4600080000000071E8000815C10008B6
:100040003D4800083D4800083D4800083D4800087C
:100050003D4800083D4800083D4800083D4800086C
:100060003D4800083D4800083D4800083D4800085C
:100070003D4800083D4800083D4800083D4800084C
:100080003D4800083D4800083D4800083D4800083C
:100090003D4800083D4800083D4800083D4800082C
:1000A0003D4800083D4800083D4800083D4800081C
:1000B0003D480008814600088D4600083D4800087C
:1000C0003D4800083D4800083D4800083D480008FC
:1000D0003D4800083D4800083D4800089946000892
:1000E000A54600083D480008B14600083D48000804
:1000F0003D4800083D4800083D4800083D480008CC
:100100003D480008BD460008C94600083D480008B3
:100110003D4800083D4800083D4800083D480008AB
:100120003D480008D5460008E14600083D48000863
:10013000ED4600083D4800083D4800083D480008DD
:100140003D4800083D480008F94600083D480008C1
:100150003D4800083D4800083D4800083D4800086B
:100160003D480008054700083D4800083D48000894
:100170003D480008000000003D4800080000000065
:10018000114700083D4800083D4800083D48000868
:100190003D4800083D4800083D4800083D4800082B
:1001A0003D4800083D4800083D4800083D4800081B
:1001B0003D480008000000001D4700083D480008B9
:1001C0003D480008000000003D4800083D48000888
:1001D0003D4800083D4800083D4800083D480008EB
:1001E0003D4800083D4800083D4800083D480008DB
:0401F000000000000B
:1002000010B5054C237833B9044B13B10448AFF350
:1002100000800123237010BDC003032000000000F4
:1002200038EE000808B5034B1BB103490348AFF390
:10023000008008BD00000000C403032038EE000861
:10024000704700BF01F024BBF0B5274C274E9BB090
:100250004FF0FF332822694620680CF0CFFD282894
:10026000F6D1039803F04CFE0546002834D1029BDA
:100270009BB929460AAA009801F020FB0DF0C4FAA8
:100280000AA90246684601F0E7FC0DF0BDFA0AA98A
:100290000246684601F0EAFADAE7B3F1005FF4D10A
:1002A00040F20172009B9342EFD10822039900278C
:1002B000914228BF11460D46C6E90577B760019FF8
:1002C0000B490C48C6E90037F56003F021FE3046C3
:1002D000084901F06BF9D8E74FF0FF332A46206850
:1002E0000AA90CF08BFDC2E714290320F0030320B8
:1002F0009005FA0BE40303202DE9F0431F4D9BB05A
:10030000DFF8808001AE0AAF002404EBC401C4F121
:1003100024024FF0FF33286806EB81010CF06EFDDC
:100320000444232CF1D9049803F0EAFD039B814691
:10033000B3F1005F00D0A0B9114805F019FD50B12C
:100340003A4631460E4805F0DDFBD8F80C30013353
:10035000C8F80C30D8E74FF0FF3201210DF0E8FC6F
:10036000EAE70024A9EB040239194FF0FF332868AB
:100370000CF044FD04444C45F4D3DDE71029032080
:10038000B82703200000032000B583B001F090FAE5
:1003900000F0DCFF03221849184804F049FE02F07F
:1003A0006FF900F005FE02F0B5F90DF02DFA01F03D
:1003B00057FA134809F0ACF9124809F071F9124CD8
:1003C0000DF022FA019002F061F9019802F0A8F90B
:1003D000019800F0EFFD237813B9019801F0C2FBFA
:1003E000019801F045FA019801F02AFC0A2101A8C0
:1003F0000DF04AF9E4E700BF242A0320A8280320CF
:10040000F024032058240320760003202DE9F04136
:100410000026214DDFF88C80204FA6B012E00EF0B0
:10042000CDF898F8003033B10B9B23B164200BF06A
:1004300029FF00F08BFF0022022311463868009646
:100440000DF0F8FC4FF0FF32012100200DF070FCA0
:100450000EF0A6F8124805F0E1FD044606A9104882
:1004600005F04CFC02A90E4805F070FC5422294608
:1004700011A8AC600EF088FC094B1E66189BB3F502
:10048000003FCCD9AB689B02C9D5012385F8203049
:100490000B9301F01BF8C2E700000320781C032037
:1004A000B8270320E003032000232DE9F04D84B09A
:1004B0007D4EDFF80082DFF804B27C4DDFF800A249
:1004C0000DF10E078DF80B3013E028680CF0A0FB3F
:1004D000012808D94FF0FF330222286803A90CF045
:1004E0008DFC022845D000214FF0FF3208460DF068
:1004F0001FFC30680CF08CFB0028E6D04FF0FF3377
:10050000012230680DF10B010CF078FC0128DCD1E0
:1005100030680CF07DFB0128D7D94FF0FF33022261
:10052000306803A90CF06AFC0228CED1BDF80C207B
:10053000B2F5805FC9D2002A40F0A5809DF80B403B
:10054000002C52D10DF060F9594B5A49BDF80C20DE
:10055000009702F067FDBDF80E30002B79D10DF049
:1005600053F9534B5349BDF80C20009703F096FC08
:10057000ABE7BDF80C20B2F5805FB4D272B10024B5
:10058000121B08EB04014FF0FF3328680CF036FC17
:10059000BDF80C20204484B2A242F1D10DF034F910
:1005A000434B4146BDF80C20009703F02FFDBDF8EA
:1005B0000E30002B97D039464FF0FF330222DAF885
:1005C00000000CF033FBBDF80E204FF0FF3338492C
:1005D000DAF800000CF02AFB002202231146DBF8B7
:1005E000000000920DF026FC7DE70DF00DF9304B78
:1005F0003049BDF80C20009703F0ECFBBDF80E303D
:10060000002BACD02A490A787F2A08D1022BA6D920
:100610008B78A3F11102012AA1D9312B9FD0264852
:10062000394604464FF0FF33022200680CF0FEFA10
:10063000BDF80E204FF0FF331D4920680CF0F6FA8C
:10064000002202231146DBF8000000920DF0F2FBBD
:1006500085E7194839464FF0FF33022200680CF055
:10066000E5FA1548BDF80E204FF0FF331049006839
:100670000CF0DCFA022322462146DBF8000000944D
:100680000DF0D8FB6BE70024121B4FF0FF3308EB93
:10069000040130680CF0B2FBBDF80C2023189CB2AA
:1006A000A242F1D14AE700BF24040320180403202A
:1006B000507F0120508F012020040320B80903201F
:1006C000140403202DE9F04FDFF8148185B0404E6B
:1006D000404DDFF810A108F11C0908F5805B02AF5E
:1006E00014E028680CF094FA012809D94FF0FF3380
:1006F000022228680DF106010CF080FB022846D08A
:1007000000214FF0FF3208460DF012FB30680CF06C
:100710007FFA0128E5D94FF0FF3302222E493068D5
:100720000CF06CFB0228DCD1B8F81420B2F5805F25
:10073000D7D272B10024121B09EB04014FF0FF3332
:1007400030680CF05BFBB8F81420204484B2A2425D
:10075000F1D10DF059F80146204801F007FE0028BC
:10076000BFD103E09BF823000BF08CFD0DF04CF89B
:1007700002F0A8FB0128B4D030680CF049FA012837
:10078000AFD89AF80030002BECD10A20ECE7BDF886
:100790000620082AB4D86AB10024121B39194FF078
:1007A000FF3328680CF02AFBBDF80620204484B2F1
:1007B000A242F2D10DF028F83946BDF8062003F028
:1007C000DFFB01289CD00A200BF05CFDF2E700BFA4
:1007D000200403201404032068AF0120549F01204B
:1007E00054AF01207600032001F056B801F058B84C
:1007F000002001F059B800BF0022024B02481A60E5
:1008000008F086BFDC030320A4240320014B1868F2
:10081000704700BFDC03032010B59EB048220021C2
:100820000CA80EF025FA00234FF40070CDE9023336
:10083000CDE90433CDE90733CDE9093301930693BC
:100840000B9307F043FB08B172B6FEE701230222C7
:10085000169311931993179210231D9207229FED5F
:100860001E7BCDE91A320324042312900CA81C939A
:100870008DED0C7B189407F065FD034608B172B648
:10088000FEE70F22214601A8CDE903330593029428
:10089000019207F003FC034608B172B6FEE7104A66
:1008A0004FF0005C916D4BF67F3441F080719165A3
:1008B000926D069302F08072009208932222202308
:1008C00006A8CDE90A230099CDF81CC0099408F0C8
:1008D00099FC1EB010BD00BF2900000000000100FF
:1008E00000100240F0B595B072B64FF00062AA4B0E
:1008F0009A60BFF34F8F62B6002403F0A1FFFFF7A9
:100900008BFFCDE90E44CDE91044A44D1294EB6C5D
:100910004FF4604143F00403EB64EB6C224603F0B8
:1009200004030793079BEB6C9D4843F08003EB6443
:10093000EB6C012603F080030893089BEB6C43F0FB
:100940000103EB64EB6C03F001030993099BEB6C6F
:1009500043F00203EB64EB6C03F002030A930A9B7F
:1009600005F0F4FF224640F201118E4805F0EEFF3B
:10097000224641F2E4018C4805F0E8FF4FF4604361
:1009800087480EA9CDE90E361094119405F030FE7B
:1009900040F2011383480EA9CDE90E36CDE910448B
:1009A00005F026FE41F2E4037F480EA9CDE90E369C
:1009B000CDE9104405F01CFE4FF4007379480EA9F0
:1009C000CDE90E34109605F013FE082377480EA9E2
:1009D000CDE90E34109405F00BFEAB6C052143F00D
:1009E0000403AB64AB6C224603F004030493049B42
:1009F000AB6C1D203343AB64AB6C33400593059B5C
:100A0000AB6C43F00203AB64AB6C03F002030693E0
:100A1000069B04F0FFFB1D2004F036FC2246052156
:100A20001E2004F0F7FB1E2004F02EFC22460521B8
:100A3000502004F0EFFB502004F026FC204606F086
:100A400003FB08B172B6FEE706F012FB034640B99D
:100A50005748584AC0E9002308F0FCFB18B172B6A9
:100A6000FEE772B6FEE7544A544B1070544A4FF4F6
:100A700040711A60102299609A619A620F211322C4
:100A80003C2404275860D8609874D8631846C3E99A
:100A90000D661E825E615E62DC61D9621A621F634E
:100AA00004F086FE034650BB0BAD0B90CDE90E0063
:100AB000CDE91000CDE91200C5E901004FF48070C6
:100AC0004FF4301C03214FF480523E4CC4E90233F2
:100AD000C4E90A3384F8203084F838303A4B208354
:100AE0002046C4E90467C4F804C0E161626384F885
:100AF0003060236003F0C8FE18B172B6FEE772B62C
:100B0000FEE70B902946204604F00CFB08B172B6B4
:100B1000FEE706230F937F2311932C4B1090139025
:100B20000EA9204612970E9303F0DCFF08B172B6AF
:100B3000FEE7274B20460E930C230EA90F9303F0DC
:100B4000D1FF08B172B6FEE7224B20460E93122366
:100B50000EA90F9303F0C6FF034608B172B6FEE775
:100B60001D48C0E9053383801C4B0662036004F016
:100B7000BDFB08B172B6FEE700234FF402710222FA
:100B80001748C372174B8180C0F80720036006F036
:100B900079FA48B372B6FEE700ED00E000100240BB
:100BA000000802420000024200040242001C02420D
:100BB000BC26032000080C42E0030320B8270320D2
:100BC00000A40040A8280320008002424000201911
:100BD0000002B0250004002A1C2803200030024037
:100BE0003021032000D4004041F63F76A34CA44AB4
:100BF000CDE90E00C4E901001090A06120462260FA
:100C0000E66008F075FF034608B172B6FEE72046BD
:100C10000EA90E93109308F09DFF034608B172B61B
:100C2000FEE7984CCDE90E331093A360A36142F226
:100C30000F73954A2046C4E90023E66008F058FF88
:100C4000034608B172B6FEE720460EA90E93109334
:100C500008F080FF034608B172B6FEE74F264FF654
:100C6000FF748A488A4AC0E9043383608361026062
:100C70004660C46008F03CFF034608B172B6FEE768
:100C80008448C0E90163C0E90343C0E90533824BEE
:100C9000036008F02DFF08B172B6FEE74FF0804107
:100CA0004FF0FF327D4C0B90CDE90E00CDE91000E6
:100CB000C5E90100C4E901002061A061204621606E
:100CC000E26008F015FF08B172B6FEE74FF48053FA
:100CD00020460EA90E9308F059FD034608B172B6DE
:100CE000FEE7294620460B930D9308F033FF08B129
:100CF00072B6FEE700246A4A01216A4B009246F26E
:100D000006002246CDE901440BF02AFF0246664D5B
:100D1000664E00950121CDE90144654B326046F2F3
:100D2000060022460BF01CFF624B634A0121009231
:100D3000CDE9014422461860604B4FF47A600BF015
:100D40000FFF5F4D5F4B224600930121CDE9014427
:100D50005D4B28604FF47A600BF002FF5B4B22463C
:100D600000935B4B0121CDE901441860594B4FF4CE
:100D7000A0400BF0F5FE584B22460093574B012143
:100D8000CDE901441860564B4FF4A0400BF0E8FE4B
:100D9000544B186001F00AF80CF036FD3246524B05
:100DA0005249009500F032FF514801F0EBFC5148E8
:100DB00000F03CFD5048514A514900F0ADFA0EA8F0
:100DC0000E9400F0E9FF20B90E9B13B94D4800F0D6
:100DD000BBFF0BF0ADF900214B4A4C480BF0F8F982
:100DE00004464B4B00214B4A4B481C600BF0F0F97A
:100DF00004464A4B00214A4A4A481C600BF0E8F975
:100E000004463F4B0021484A48481C600BF0E0F97B
:100E10000446474B0021474A47481C600BF0D8F96D
:100E20000446364B0021454A45481C600BF0D0F97A
:100E300004462E4B0021434A43481C600BF0C8F97E
:100E40000446424B0021424A42481C600BF0C0F964
:100E50000446414B0021414A41481C600BF0B8F95F
:100E60000446404B0021404A40481C600BF0B0F95A
:100E70003F4B18600BF07EF9FEE700BFA42403206F
:100E800000140040F02403200010004058240320E8
:100E9000004401400C240320004801403C2503206D
:100EA000DC040320481F0120B8040320240403208D
:100EB00040BF00202004032094040320A0AF0020A2
:100EC000180403207004032000A000204C04032019
:100ED00014040320005000202804032014290320B8
:100EE00000000020102903201C040320680E0320AA
:100EF000BC2603201C280320B82703201813032036
:100F0000781C0320040063456CF0000845020008CB
:100F10002C21032048F00008490200082821032062
:100F200024F00008F902000800F000088903000816
:100F3000C8170320DCEF00080D040008B8EF000814
:100F4000A904000894EF0008C5060008B8090320AA
:100F500070EF0008E9070008080503204CEF0008BF
:100F6000ED0700080405032028EF0008F10700083A
:100F700000050320094A0368934206D0084A9342B9
:100F80000AD0084A934205D07047074A13680133D4
:100F90001360704700F074BC03F064BC00140040A0
:100FA000002C014000100040DC03032072B6FEE775
:100FB000704700BF10B5094C0949208980B200F084
:100FC00099F8208A0749C0B200F014F9208B06492D
:100FD00080B2BDE8104000F013B900BF54000320F8
:100FE000D801032060010320E80003208446002389
:100FF00010B50C4682B00DF1060002226146ADF834
:10100000063002F085FFBDF80600012C98BFC0B283
:1010100040BA80B202B010BD8446002310B50C4621
:1010200082B00DF1060002226146ADF8063002F0F2
:101030006FFFBDF80600012C98BFC0B240BA80B265
:1010400002B010BD8446002310B50C4682B00DF1ED
:10105000060002226146ADF8063002F059FFBDF8E5
:101060000600012C98BFC0B240BA80B202B010BDD9
:101070008446002310B50C4682B00DF10600022212
:101080006146ADF8063002F043FFBDF80600012CC2
:1010900098BFC0B240BA80B202B010BD84460023EF
:1010A00010B50C4682B00DF1060002226146ADF883
:1010B000063002F02DFFBDF80600012C98BFC0B22B
:1010C00040BA80B202B010BD8446002310B50C4671
:1010D00082B00DF1060002226146ADF8063002F042
:1010E00017FFBDF80600012C98BFC0B240BA80B20D
:1010F00002B010BD034600B583B008465BBA0222B9
:101100000DF10601ADF8063002F002FF03B000BD9C
:101110008446002310B50C4682B00DF10600022271
:101120006146ADF8063002F0F3FEBDF80600012C72
:1011300098BFC0B240BA80B202B010BD007870470C
:10114000002300B5012983B0ADF8063002D8184657
:1011500003B000BD014602220DF1060002F0D8FEE8
:101160009DF8060003B000BD002300B5012983B03F
:10117000ADF8063002D8184603B000BD0146022281
:101180000DF1060002F0C4FEBDF80600000A03B02F
:1011900000BD00BF00787047007870478446002388
:1011A00010B50C4682B00DF1060002226146ADF882
:1011B000063002F0ADFEBDF80600012C98BFC0B2AB
:1011C00040BA80B202B010BD8446002310B50C4670
:1011D00082B00DF1060002226146ADF8063002F041
:1011E00097FEBDF80600012C98BFC0B240BA80B28D
:1011F00002B010BD087070470078704700787047E3
:10120000030A08704B707047012994BF007800886A
:10121000704700BF007870472DE9F04F3A4B834686
:10122000984283B007D8394B984260D94FF02809CB
:101230004FF4487609E036494FF02509B1FBFBF140
:10124000C9B2192940F2EE265BD90124304B013492
:10125000A4B2B3FBF4F1B1FBFBF1C9B21929F6D882
:10126000B4F5806F3FD201202A4BCDF804B01F683F
:1012700023186FF0004C4FF47A759B461FFA83FADF
:10128000A1F1020EBEEB510F4FEA51031ADD01F13D
:10129000FF385FFA88F805FB03F2B2FBF1F2B21AED
:1012A000002AB8BF5242624509DA914507DB0020A7
:1012B0009446A8EB0302D2B2FB617C613A6201332F
:1012C0007345E8DB124B1FFA8BF4B3FBFAF1019B79
:1012D000B4F5806FB1FBF3F10AF1010AC9B203D092
:1012E00004F1010BCCE7012003B0BDE8F08F084901
:1012F0004FF02B09B1FBFBF1C9B2192940F26B3653
:10130000A3D80124AFE700BF00350C0020A10700DF
:10131000005A6202082A032038B50C46064D0749D8
:10132000074B0A602860074901201C600BF0B8F9E0
:10133000054B186038BD00BF082A0320002A03208F
:10134000042A03201829032068290320F0B5574EEA
:1013500083B0306804F0C0FB306804F029FA00283C
:1013600040F084800022524D402152482A71EA60A8
:101370002A616A61AA61AA60EA6185F8202005F005
:10138000E5FA306804F0A8FB082201233068C0E9C0
:101390000D2304F00DFA002840F08580002402227D
:1013A000012340F2FF71C5E90B23434FA9636C622F
:1013B00002E00134082C0ED037F8023F3F49306874
:1013C000AC626B6304F0DEFA0028F2D00134FFF760
:1013D000EDFD082CF0D102234FF0804200200121C6
:1013E0006B646FF06043C5E90F20354A3068C5E98A
:1013F000121234492B6504F0C5FA08B1FFF7D6FD87
:101400000023022230681146009304F0E7FA002816
:1014100046D1306804F004FB00283ED100220121AF
:10142000306804F0ABFCA8BB00220621306804F051
:10143000A5FC60BB07224FF4F051306804F09EFC1D
:1014400010BB07228021306804F098FCC8B9002244
:101450001D49306804F092FC80B900224FF46021ED
:10146000306804F08BFC20B903B0F0BDFFF79EFD9F
:1014700078E703B0BDE8F040FFF798BDFFF796FDB1
:10148000EBE7FFF793FDE2E7FFF790FDD9E7FFF702
:101490008DFDCFE7FFF78AFDC6E7FFF787FDBDE7C4
:1014A000FFF784FDB5E7FFF781FD77E7082A032002
:1014B00000000320000402428EF0000824000320F4
:1014C000FECA77003C00032000407100014B186801
:1014D00004F002BB082A0320082824D8DFE800F023
:1014E000080C1014171A1D2005001448FFF794BEAD
:1014F00042F21070FFF790BE44F62060FFF78CBEFA
:101500004CF25030FFF788BE0D48FFF785BE0D48FE
:10151000FFF782BE0C48FFF77FBE0C48FFF77CBE8A
:101520000B48FFF779BE0B4AA0F51C53103B9342C2
:1015300001D901207047FFF76FBE00BF40420F0086
:10154000A086010048E8010090D0030020A1070018
:1015500000350C00301B0F000346054A19780020A7
:1015600051615978D16199781162DB789361704744
:10157000B82703200246024B00209A61704700BF43
:10158000B8270320034600B5064A93F801E093F814
:1015900000C082F810E004499B7881F800C05374C1
:1015A000002000BDB8270320E00303202DE9F04709
:1015B000054682B0C0680F4602F0A2FCAB68B3F1EA
:1015C000005F3ED00646824600F12409264C4FF0CB
:1015D000FF3120680BF022F90128F8D1DFF8948060
:1015E000D8F800000BF000FB484517D202251F4A2F
:1015F00013792B431371002320681A4619460AF009
:10160000B3FF1B4A022312681068002211460092A1
:101610000CF010FC284602B0BDE8F08729464FF0D8
:10162000FF332422D8F800000BF000FB054686B9F2
:101630004D450CD00D4A0125137943F00803137171
:10164000D9E74FF0000A4FF024095646BEE70025BF
:10165000D1E7524639464FF0FF33D8F800000BF07F
:10166000E5FA0544E4E700BF6829032000000320F1
:10167000042A0320102903202DE9F04700250C46F9
:1016800082B0C9070646019516D4A20707D50221E4
:10169000314A137943F00103137133681965630705
:1016A00038D4019B2BB14FF0E0234FF08052C3F8A8
:1016B000042D02B0BDE8F087DFF8A890DFF898802D
:1016C00040214A46254B04F07FFAD8F81430D9F867
:1016D0000C000133C8F8143002F012FCDFF888A0C7
:1016E0000746DAF800000BF07FFA07F1280398426A
:1016F00024D349462822DAF8000001AB0BF030FB76
:10170000002FC2D03A46DAF80000144901AB0BF0C2
:1017100027FBBAE70424104B11499A690868013283
:101720009A611A79002142F008021A713368006840
:101730000DEB04021C650CF09DFCB2E7D8F81830E4
:1017400029460133C8F81830054B01AA1B681868F0
:101750000CF090FC99E700BF00000320C029032093
:10176000002A03209829032014290320002110B502
:101770000A4A0B4C1268236982B01068013301AA2F
:10178000236101910CF076FC019B2BB14FF0E0231B
:101790004FF08052C3F8042D02B010BD042A03207C
:1017A00000000320002110B50A4A0B4C1268E369BF
:1017B00082B01068013301AAE36101910CF05AFC78
:1017C000019B2BB14FF0E0234FF08052C3F8042D62
:1017D00002B010BD002A03200000032038B50C46DB
:1017E000104D294604F08AFAA10303D5EB68A3B98A
:1017F0000D4A1360620309D52B690B4A012B13793B
:101800000CBF43F0040303F0FB031371230303D560
:101810000122054B83F8202038BD4FF00042024BD7
:101820001A60E7E76C29032000000320704700BF1F
:1018300091B14FF0FF3210B4084C014410F8013B55
:101840005340DBB254F82330884283EA1222F5D1A8
:10185000D0435DF8044B704708467047A0F000087D
:101860000022014B1A607047102A0320704700BF06
:10187000024A136801331360704700BF102A032027
:10188000024A136801331360704700BF0C2A03201B
:1018900000200BF083BE00BF00200BF07FBE00BF16
:1018A00000200BF07BBE00BF00200BF077BE00BF16
:1018B0000022014B1A7070477600032000294AD09D
:1018C00030B577280C4683B02DD8572800F2848095
:1018D0001A2800F03981A0F124031F2B39D81F2BBF
:1018E00037D8DFE813F00D01360036003600360039
:1018F0003600360036003600360036000601360067
:101900003600360036003600360036003600360027
:10191000FF0036003600360036003600360036004E
:1019200036003600F800B0F5EA7F12D2B0F5DC7F61
:1019300012D2B0F5A87F00F00D8100F2FA8098284D
:1019400000F09280A22804D11046FFF725FC844BBA
:10195000D87503B030BD7047A0F5DC731B2BF8D8E9
:1019600001A151F823F000BF751A000853190008AF
:1019700053190008911A0008531900085319000858
:101980005319000853190008531900085319000887
:101990005319000853190008531900085319000877
:1019A000531900085319000853190008831A000836
:1019B0005319000853190008531900085319000857
:1019C0005319000853190008531900085319000847
:1019D000531900089F1A0008A0F158031F2BB8D80C
:1019E00001A151F823F000BFAD1A000853190008F7
:1019F0005319000853190008531900085319000817
:101A00005319000853190008531900085319000806
:101A1000C91A00085319000853190008531900087F
:101A200053190008531900085319000853190008E6
:101A3000531900085319000853190008BB1A00086D
:101A400053190008531900085319000853190008C6
:101A500053190008531900085319000853190008B6
:101A6000531900080F1B00081046FFF793FB3C4B6F
:101A700098756EE721461046FFF7C0FB384B9883F8
:101A800067E721461046FFF79FFB354B588260E71A
:101A900021461046FFF7BEFB314BD88359E721465C
:101AA0001046FFF7A9FB2E4B188252E7214610463D
:101AB000FFF70AFB2A4B58814BE721461046FFF7F8
:101AC0003DFB274BD88144E721461046FFF720FB1A
:101AD000234B18813DE721461046FFF7DFFA204BE4
:101AE000988236E721461046FFF7C2FA1C4B9880D1
:101AF0002FE721461046FFF7A5FA194BD88028E7B3
:101B000021461046FFF788FA154B188021E7214639
:101B100010460192FFF714FB114D012C28733FF47E
:101B200018AF019A21461046FFF71EFB85F82000EA
:101B30000FE740F2A71398427FF40BAF1046FFF770
:101B40002DFB074B588304E71046FFF74FFA044B71
:101B50005880FEE61046FFF757FB014B1883F8E666
:101B600054000320264B1B7893B92DE9F04106461B
:101B7000244D82B005F10C0755F8044BE36E626EFC
:101B8000F31A934205D2AF42F6D102B0BDE8F0811C
:101B90007047B4F9723004EBE300002B00F124002D
:101BA00008DBB4F8683002225BBA01A9ADF8043052
:101BB00002F0AEF9B4F9743004F12408002B4FEAB6
:101BC000E30111DB4046FFF733FE04220190B4F934
:101BD00074000DEB02010028B8BF0730C01024309C
:101BE00004FA80F002F094F9074B41461B68204646
:101BF0002361FFF7DBFCA36EE6660133A366C2E751
:101C000076000320A0F400080000032038B5044645
:101C1000084B094D1A60094B049A29601A6000F0BC
:101C20004DF8204601F002F9204602F089F9002023
:101C300038BD00BF182A03201C2A0320142A0320C1
:101C400038B5054601F012F90446284602F084F939
:101C50002043C0B238BD00BF70B5154B82B01B68C1
:101C600004460D46164601F037F901280AD0114BFB
:101C70003246294620461B6802F098F901280BD00D
:101C800002B070BD00220C4B11461B68186802237D
:101C900000920CF0CFF8EAE7002207490223096816
:101CA0000868114600920CF0C5F802B070BD00BF84
:101CB000182A0320142A03201C2A032000B583B00D
:101CC000102001A900F09EF808B903B000BD002162
:101CD000102000F07FF8003818BF012003B000BDCD
:101CE00000B583B0102001A900F08CF820B901469E
:101CF000019820B903B000BD012003B000BD102041
:101D000000F068F8003818BF012003B000BD00BF24
:101D100070B5002682B004460D46102001A9019638
:101D200000F070F810B9019BA34202D8012002B064
:101D300070BD04F11100294680B200F063F8801BE9
:101D400018BF012002B070BD002210B5114B82B047
:101D50001B78019213B9184602B010BD044601A9C0
:101D6000102000F04FF840B901981130FF2804D836
:101D7000214680B200F02EF818B10123184602B0B7
:101D800010BD01991020013100F024F8031E18BF86
:101D90000123E0E777000320014608B5102000F09A
:101DA00031F8003818BF012008BD00BF10B504F09D
:101DB00037F9002009F08CFA044618B904F044F908
:101DC000204610BD002008F051FE04F03DF92046E9
:101DD00010BD00BF38B504460D4604F021F9204679
:101DE000294609F01DFDC305044603D404F02CF96F
:101DF000204638BD08F014FF0443A4B204F024F9CF
:101E0000204638BD09F06EB884462DE9F8430CF53C
:101E10000055104695F827200CF580540F461E46B5
:101E2000618AA38A22B300295BD1072B40F282800A
:101E30003E2B68D94FF03E084FF040094246C3F3AD
:101E4000032343F010030370A38A0CF58051437001
:101E50001C31023002F05CF80122022387F8009066
:101E6000A4F81280AA8363740120A661BDE8F883F8
:101E700079B307224FF008085B1A1FFA83F9AB8B7E
:101E8000914503F00F0343F0200300F8013B638A00
:101E900003F5805303F11C030CEB030125D902F079
:101EA00037F887F80080638AAA8B013B9844A4F82E
:101EB000128095F8223033B1B2FBF3F103FB11230A
:101EC0000BB9022363740132AA830120A661BDE825
:101ED000F883072B2ED94FF006084FF00809424629
:101EE000ADE73F224FF04008C6E74A4602F010F83F
:101EF000032309F101023A706374638AAA8B99443F
:101F0000A4F81290DFE70170A38A0CF580514370AA
:101F1000A28A1C31023001F0FBFF01210322A38AB7
:101F200002333B70A38A01206382A9836274A66195
:101F3000BDE8F88300F8013B0CF58051A28A1C3102
:101F400001F0E6FF0121A38A03220B44E9E700BF69
:101F50004FF4805270B500240E4683180470C0F808
:101F6000024004738460C3F812409C61DC811C82CF
:101F700000F5005305462146C3E907449E625C62B2
:101F80000D300CF075FE4FF48052A8182146BDE8C4
:101F900070401C300CF06CBEF0B583B0089D044658
:101FA000856011B3944612780846110903291CD89C
:101FB000DFE801F002477221003B18BF012304F55E
:101FC000005282F82630237823B10621002382F8BC
:101FD000241023709CF80050082805F00F0500F22B
:101FE000C2800121002D40F0C780237B012B00F02F
:101FF000978003B0F0BD04F58057797C02F00F02A2
:1020000004F500564B1E012A86F82120DBB200F0B1
:10201000F080022A00F0F480002A40F0E1800128DC
:1020200000F001819CF80130022886F8223001D0AE
:102030009CF80220022986F82320D6D101237B7444
:10204000D3E7003B18BF012304F5005686F826307D
:10205000237823B10622002386F824202370072842
:10206000C3D99CF800309CF8011003F00F020A431A
:1020700040F09080DCF802301BBA072BB5D9B3F5DD
:10208000805F40F2D68002200721B07786F82410C6
:1020900022703223F27F49E02378012BA5D104F589
:1020A0008057F98902F00F0201F00F039A4240F0C5
:1020B0008F806688A3883A7C9B1B9BB2002A00F025
:1020C000A880551E1FFA85FE9E4580F0A58090428F
:1020D0008BD14A1C92B2EDB206F10D00FA810CF1DF
:1020E00001012A46204401F013FF6388A2882B4493
:1020F0009BB29A42638000F0998004F50056F27F0B
:10210000002A3FF472AFFB89013B93FBF2F102FB23
:102110001133002B7FF469AFB37F43F0300305E048
:1021200004F50056B37FF27F43F03003002196F8A8
:10213000200021738DF802000320B46A8DF800306E
:102140008DF8012001F0E2FEB26AE06096F82630D8
:102150001046003B18BF01235B0569469361FFF7FA
:1021600025FA03B0F0BD002D7FF43FAF9CF801507D
:102170000221002D3FF439AF401A85423FF735AFB9
:102180002A46614404F10D0001F0C2FE022365807D
:1021900023702AE71B0203F470630B43072B7FF6BF
:1021A00024AF02210A46821AD5B204F58057A380D3
:1021B0002A466144387404F10D0001F0A9FE0122A1
:1021C000002165802270B177FA813023F27FADE77C
:1021D0000421002304F5005282F82410237004E740
:1021E000012B3FF602AF0522032386F825207B74DE
:1021F000FBE6012B3FF6F9AE0223BD617B74F4E6EA
:10220000012B3FF6F2AE0822032386F825207B74CB
:10221000EBE6072B3FF6E9AE98427FF6E6AE4A1CA6
:1022200092B2DDB258E786F8222003E7022323703A
:10223000DBE606210A46B6E70378012B01D0002031
:1022400070478268064B891A9942F8DD0321002302
:1022500000F5005282F8241003700020704700BF80
:10226000400D03002DE9F04100F5805514466A7CCD
:1022700092B0561E012E05D9032A0DD0002012B0AF
:10228000BDE8F081AB69384ECB1AB3420AD90223BC
:1022900000F5005080F82530002301206B7412B047
:1022A000BDE8F081012AE9D100F5005696F92370C6
:1022B00096F82320002F05DA0F32D2B2082A8CBFFD
:1022C0007F2201229A42D9D80B4602AA0DF10701BA
:1022D000FFF79AFD9DF80780B8F1080F37D9B8F1DC
:1022E0000C0F36D9B8F1100F35D9B8F1140F34D915
:1022F000B8F1180F33D9B8F1200F32D9B8F1310F36
:1023000034BF0E270F27384601F0FAFD80450AD268
:10231000A0EB0802013AD2B202AB0021013203EB7A
:1023200008000CF0A5FCE76096F82730003B18BFCA
:1023300001235B05A36102E0012001F0F5FD2046C9
:1023400002A9FFF733F90028F6D16A7C94E74746E3
:10235000D9E70927D7E70A27D5E70B27D3E70C27C3
:10236000D1E70D27CFE700BF400D030000F58052F5
:10237000938AB3F5805F10D2537C83B900F5005384
:1023800000204FF0010C50829883916193F8261041
:1023900083F8271082F811C07047012070474FF072
:1023A000090C00F5005383F825C0E9E710B57F2438
:1023B00084464FF0110E032114709CF800C00020D9
:1023C00082F802E082F801C0198010BD814204D970
:1023D00000F17840B0F5802F01D30020704701F163
:1023E00078410139B1F5802F2CBF002001207047C2
:1023F000814208D9B0F1005F05D3044881428CBF07
:102400000020012070470020704700BF000004201A
:10241000814211D9B0F1005F10D31A4B994219D9FA
:10242000194B984208D9194881428CBF00200120DD
:102430007047B0F1006F15D200207047144B9842DE
:102440000AD8144B9842F4D9134881428CBF00201B
:102450000120704701207047104881428CBF002046
:10246000012070470E4B9942E6D80E4BB3F8E0308E
:10247000B3F5007FEED00C4881428CBF00200120D4
:10248000704700BF000004203F200240402102406E
:10249000FFFFF90BFFFFF80B0080F90B0002FA0BAE
:1024A000000008080005FA0B0000040800B58BB016
:1024B00001A803F0B1FF0598AA3818BF01200BB09E
:1024C00000BD00BF00B58BB072B601A803F0A4FF39
:1024D00004214FF40052079B019143F08063CDE942
:1024E000062303F09DFD18B162B601200BB000BDBC
:1024F00003F0B6FD0028F7D101A803F06BFE10B978
:1025000003F0D0FDF0E703F0BFFD03F09DFDEBE726
:1025100010B58AB003F084FD044603F0A1FD044326
:1025200001A803F079FF04214FF480729DF81E305A
:10253000E4B2C3F3001383F001031B05CDE90623C6
:10254000019134B103F0A0FD03F07EFD01200AB03B
:1025500010BD01A803F03EFE0028F3D103F0A2FD58
:10256000044603F091FD044303F06EFDE4B2204302
:10257000C0B2003818BF01200AB010BD30B58BB012
:1025800003F04EFD044601A803F046FF002380221D
:102590000798022110F4801FCDE9033200930CBF8D
:1025A00002230123019101A86946029303F0CAFFA7
:1025B000054603F049FD28432043C0B2003818BF48
:1025C00001200BB030BD00BF70B503F029FD0546FA
:1025D0000F4C104ED4E90023B3F1FF3F08BFB2F116
:1025E000FF3F04F5802107D0012003F097FD00286C
:1025F00018BF45F00105EDB20834B442EAD103F04A
:1026000023FD2843C0B2003818BF012070BD00BFB1
:1026100000E0030800000408002330B58FB00093E9
:1026200003F0FEFC0223044605A8019303F0F4FE28
:102630000B9B042213F4801F4FF07C0014BF022375
:102640000123694603900DEB02000492029303F00C
:1026500079FF054603F0F8FC054344EA0500C0B2E3
:10266000003818BF01200FB030BD00BF014608B5CB
:10267000012003F053FD003818BF012008BD00BF42
:102680000022014B1A607047202A03201D4B10B412
:102690005988B3F800C0B1F5E06F34BF00210121C3
:1026A000194C9B88194A34F81CC0B3F5306FA2F856
:1026B00000C0917013D2B3F5E06F1ED2B3F5407F26
:1026C0001DD2B3F5807F8CBF00230123D1789B00FE
:1026D000994208D10E4B18605DF8044B70470123F6
:1026E000D1789942F6D00A4C2168411AFA29F3D9D7
:1026F000D37020605DF8044B70470223F0E703239A
:10270000EEE700BF242A0320ACF400087800032081
:10271000202A03200022014B1A7070472A2A032026
:10272000154B164A1B78108891787BB16FF4FC63C7
:10273000C3183E2B124B14D91881188B60F0FF0080
:1027400080B2188321B9598A89B201E00C4B1881F3
:102750001982D27822B1198B01F47F410A431A837E
:102760007047588980B21881188BC0B21883588A74
:1027700080B21882E6E700BF2A2A032078000320EF
:1027800054000320014B1860704700BF2C2A03201F
:10279000704700BF00B5044B83B0186801A906F06C
:1027A0003FFE019803B000BD2C2A03200D4B027898
:1027B0001B68403201291A700FD900B5A1F1020E31
:1027C00010FA8EFE024610F801CF724503F801CFD1
:1027D000F8D1054B1B68198000BD034B1B6819809D
:1027E000704700BF542A0320502A032070B50129E6
:1027F000044682B00BD9457805F07F05012D14D031
:10280000022D02D07F20122503E006292CD07F2044
:1028100013250321344B354A1B6812681870207841
:102820009D705870118002B070BD40F26713ADF812
:102830000030FFF7AFFF2E4A2E4B4240C3E90302A0
:102840001D7794F9013000BA002BCDF80200EADBC5
:102850000621254B254A1B680098BDF804401268E4
:1028600018609C801180DEE7224B9A69042A02D905
:102870007F203625CDE758685969411A092902D8C1
:102880007F203725C5E7197F012902D07F20242525
:10289000BFE7D4F802101E6909BA8E4215D04FF076
:1028A000000E4FF07F0C58613525032001329A61EC
:1028B0000D4A0E49126883F81CE082F800C02378A4
:1028C0000968537095700880ADE71D7794F9013061
:1028D000002BA8DB40F26721034A044B12681B68F7
:1028E00011801D809FE700BF542A0320502A032037
:1028F00078563412302A0320022910B510D04FF038
:102900007F0E4FF0130C03210F4B104A1B68126807
:1029100083F800E0007883F802C05870118010BD81
:10292000437833B1802BFAD04FF07F0E4FF0120C6A
:10293000E9E7054A0378126840331370034C407886
:1029400023685070198010BD542A0320502A032098
:10295000022930B510D04FF07F0E4FF0130C032139
:10296000424B434A1B68126883F800E0007883F802
:1029700002C05870118030BD437803F07F03022BF2
:102980002FD0032B1BD0012B3ED10022394C3A4DC6
:1029900023703A4B2A705A73C4E90322C4E9052212
:1029A000227790F901304278002BE4DB50242F4B42
:1029B0002F481B6800685A701C70018030BD304A77
:1029C000928A92B2B2F5805F47D37F258824274A46
:1029D00027491268096815700078947050700B8050
:1029E00030BD274A928A92B2B2F5805F1BD37F2511
:1029F000222403211D4B1E4A1B6812681D7000789B
:102A00009C705870118030BD4FF07F0C1224032150
:102A1000164B174A1B68126883F800C000789C7038
:102A20005870118030BD00221249144CC1E90322B4
:102A3000C1E90522104D62730A772A7090F90120CE
:102A40000B70002A417896DB5024084A0848126827
:102A5000006851701470038030BD0022054C074D92
:102A60002370054B6A731A7096E700BF542A03203F
:102A7000502A0320302A0320582A03205C2A0320EE
:102A800054000320204B214A022910B51B6812680C
:102A90000CD04FF07F0E4FF0130C032183F800E0B1
:102AA000007883F802C05870118010BD184C94F85B
:102AB00000C0BCF1010F11D090F801C00CF07F0CE8
:102AC000BCF1010F12D04FF07F0C1224032183F8C8
:102AD00000C000789C705870118010BD7F210324C5
:102AE0001970007899705870148010BD04784034C3
:102AF0001C7044785C70118090F90130002BD4DA9E
:102B0000BDE8104002F0E0BB542A0320502A032005
:102B1000302A0320022910B510D04FF07F0E4FF05D
:102B2000130C0321184B194A1B68126883F800E044
:102B3000007883F802C05870118010BD427802F00E
:102B40007F03012B13D0022B04D04FF07F0E4FF0E8
:102B5000120CE6E71206F0D40B49027809684032FD
:102B60000A700A4C407822684870138010BD140621
:102B7000E3D4054A0378126840331370034C40785D
:102B800023685070198010BD542A0320502A032056
:102B9000012970B51FD9427802F07F03012B10D0B4
:102BA000032B1CD04FF07F0C12240321394B3A4ADF
:102BB0001B68126883F800C000789C705870118000
:102BC00070BD02292AD08378103B032B51D8DFE84F
:102BD00003F04C4A444E4FF07F0C1324E5E72F4C92
:102BE000217869B1120626D402212A4A0378126894
:102BF00040331370284C407823685070198070BDA2
:102C00004FF07F0C2224234A23491268096882F876
:102C100000C00078947050700B8070BD7F25132425
:102C200003211C4B1C4A1B6812681D7000789C70A5
:102C30005870118070BD0123194D2E782B70FEF74E
:102C400045FC4FF47A7009F01DFBF6B22078FEF7D0
:102C500043FCFEF77BFB2E7070BD36230F490B70D3
:102C60001306C1D570BD3523F8E73423F6E73823C2
:102C7000F4E77F22002631240321064B074D1B6811
:102C80002E701A70044A0078126858709C70118077
:102C900070BD00BF542A0320502A0320582A032065
:102CA0007600032030B54378044685B013B98378A5
:102CB000442B0FD07F204FF0310C03213C4B3D4A79
:102CC0001B6812681870207883F802C05870118051
:102CD00005B030BD0B2903D07F204FF0130CECE77B
:102CE000354B1978022903D04FF07F0C7F20E4E7A1
:102CF0001B7F022B11D1314D6B7B13F0FB030FD0E7
:102D00007F20242503212A4B2A4A1B681268187049
:102D100020789D7058701180DAE74FF0330CE5E7AA
:102D2000D0F80300AB6001232B73D4F8073000BA4E
:102D30001BBAC1186B6001922860FFF747FB1C4B60
:102D400019681C4BD3F800C040B36B68019A13F0AC
:102D5000070F0AD07F2370200B70032394F800E044
:102D6000887081F801E0ACF8003023786A734FF284
:102D70000F04202540338DF80C3003AA4B1EC81CCD
:102D80008DF80D50ADF80E4012F8011B03F8011F2D
:102D90008342F9D10423ACF8003099E77F22312037
:102DA00003230A70227888704A70ACF800308FE7ED
:102DB000542A0320502A0320302A03205C2A0320AF
:102DC000042910B504460ED07F204FF0130C0321C8
:102DD000144B154A1B6812681870207883F802C0DB
:102DE0005870118010BD4378FF2B03D07F204FF027
:102DF000310CECE78378FF2BF8D1C378FF2BF5D1AA
:102E0000FEF76EFF074B084A1B68126820B17F204F
:102E10004FF0720C0321DFE7012021784031197057
:102E2000108010BD542A0320502A032038B50024F6
:102E30000122094B09490A4D4C73586009490A4857
:102E4000C3E90344C3E905442C701A701C77FFF7EB
:102E50007FF8204638BD00BF302A03205C2A0320BB
:102E6000582A03207C000320549F0120114B014667
:102E70001A78032A02D01048FFF7DEB941F28830F1
:102E80005A688A1A8242F6D900224FF0010C10B417
:102E90000A480B4C4273227083F800C01A77064828
:102EA0005DF8044BC3E90322C3E905225960FFF72B
:102EB000C3B900BF302A0320549F01205C2A03209D
:102EC000582A03200146024A0248FFF7CBB900BF47
:102ED000A0000320549F012040F2E17C2DE9F04145
:102EE00000260446006884B060450F4698468DF879
:102EF0000D60ADF80E6007D040F2DF73984241D00C
:102F0000002004B0BDE8F0811546E06800F0F8FF4D
:102F10000095A369414CA3F50013B3FA83F301466E
:102F20003A4620465B09FFF737F82578022DE7D1AE
:102F30004FF0FF3301220DF10D01D8F800008DF89C
:102F40000D6009F073FE2A464FF0FF330546A11CC1
:102F5000D8F8000009F06AFE02464FF0FF3315442E
:102F6000D8F80000628804F10D0109F05FFE638863
:102F700005440333AB4201D0FEF718F80023237059
:102F80000120BEE7E06800F0BBFF0028B8D03D7824
:102F9000002DB5D005F0080353EA1513B0D1E06851
:102FA00000F0AEFF431E9D42AAD8A4690122A4F5F9
:102FB0000014B4FA84F417F8010B194D640985F86C
:102FC000264000F00F004FF0FF330DF10D01ADF87A
:102FD0000E00D8F800008DF80D2009F027FE4FF004
:102FE000FF33022204460DF10E01D8F8000009F06B
:102FF0001DFE02464FF0FF3314443946D8F8000056
:10300000BDF80E2009F012FEBDF80E300444033363
:10301000A342B5D0FDF7CAFFB2E700BF549F01201D
:1030200054BF01202DE9F04F00248FB0DDF860C0BF
:103030009E4FACF800409E4E0C469E491D46914660
:10304000C6F800C048603B60002A00F08380237807
:103050000F2B40F29080A3F11002772A00F28880B3
:10306000DFE812F095009C0086008600A300860031
:10307000860086008600AA008600860086008600FC
:103080008600860086008600D100D7008600860074
:1030900086000A018600860086008600860086007B
:1030A0001101860086003501860086007C01D3016F
:1030B000D9012A01860086008600860086009601D6
:1030C0008F018600860086008600860086008600C6
:1030D00086008600860086008600860086008600C0
:1030E00086008600860086008600860086008600B0
:1030F00086008600860086008600860086008600A0
:10310000860086008600860086008600860086008F
:10311000860086008600860086008600860086007F
:10312000860086008600860086008600860086006F
:10313000860086008600860086008600860086005F
:103140008600860086008600860086009200EE01DA
:10315000860003017F2284F80090132103232A7044
:103160002278A9706A70ACF800300FB0BDE8F08F1B
:103170007F221121F2E763462A46494620460FB0D6
:10318000BDE8F04FFFF712B97F221221E6E749466A
:1031900020460FB0BDE8F04FFFF7DABB49462046A6
:1031A0000FB0BDE8F04FFFF76DBC494620460FB0A9
:1031B000BDE8F04FFFF704BEB9F1020F27D959233C
:1031C0002B7004236278AB706A70637803F07F031E
:1031D000012B00F02483022B00F051837F23122265
:1031E0002B7003232178AA706970ACF8003094F931
:1031F0000130002BB9DA3B681B787F2BB5D0002259
:1032000033681A80B1E7B9F1030F00F057827F22CB
:10321000A3E7B9F1010FFAD0637803F00F02042A93
:10322000B2D103F0F002402AAED80A78012A33D096
:103230001B099A1D9145EAD1002B00F0CD844FF077
:103240000008013BDB00611D11F8012F9A40083B8B
:1032500013F1080F48EA0208F6D140F6FE739845CC
:1032600040F2BB847F22312178E7494620460FB0E7
:10327000BDE8F04FFFF78CBC494620460FB0BDE8D3
:10328000F04FFFF7B3BAB9F1020FC0D991F800803F
:10329000B8F1020F00F0CB827F2303222B7021783C
:1032A000AB706970ACF800205FE700BF542A0320C0
:1032B000502A0320302A0320B9F1010FA7D1B64BC1
:1032C0005A7B032A00F01E837F22242146E7B9F1AE
:1032D000030F9CD994F901206378002ABCBF03F046
:1032E0007F0363706388B8BF4FF001085BBA9BB27D
:1032F000A8BF4FF00008B3F5097F80F20C83B3F547
:10330000007FC0F2A480A3F50073232B00F29F80FE
:10331000DFE813F0EB00DA0048013301310111015D
:10332000B501A70165015A019D009D009D009D000A
:103330009D009D00830174019D009D009D009D00E6
:103340009D009D009D009D009D009D009D009D0095
:103350009D009D000A010301BF00B4008F4BB3F82C
:10336000E030B3F5007F7FF403AFB9F1020F7FF6D1
:103370004EAF0122494620460FB0BDE8F04FFFF79F
:1033800091BC494620460FB0BDE8F04FFFF7B4BAF4
:10339000B9F1010F3FF43BAF637803F00F02042A49
:1033A0007FF4F2AE03F0F002402A3FF6EDAE1B09C7
:1033B0005A1D4A45BFF62BAF002B00F069844FF031
:1033C0000008581EC00004F1050E1EF8012F8240AF
:1033D000083848EA020210F1080F1FFA82F8F4D107
:1033E00003F1060A0AEB080399457FF410AF0B7846
:1033F000022B00F010847F237F2103222970217883
:10340000AB706970ACF80020AFE6B9F1020F7FF63F
:10341000FEAE0222AEE7B9F1010F3FF4F8AEDFF8DD
:10342000788198F80D30012B00F0E081022B7FF4B9
:103430004BAFB9F1020F00F085827F2271218DE63A
:10344000494620460FB0BDE8F04FFFF763BB7F232E
:103450002B7023786B703123AB704FF00309ACF8FD
:103460000090B8F1000F3FF480AE3B681B787F2BD3
:103470003FF47BAE0023ACF8003076E6B9F1040FE0
:1034800000F0F1837F232B7023786B701323AB70D4
:10349000E3E7B9F1070FF5D1201DFEF773F8FDF74B
:1034A00055FF0A2008F0EEFE042122783B684032E6
:1034B000D6F800C01A7062785A70A2789A70E278D2
:1034C000DA70ACF80010CCE7FFF7A6F8D6F800C029
:1034D0003B68002800F0DF837F221A7022784FF0CB
:1034E00003095A7072229A70B9E7B9F1040FC9D171
:1034F0006378012B00F04F84022B78D10022284BF7
:103500001A70237840332B7063784FF004096B7086
:10351000A378AB70E378EB70A1E7B9F1050FB1D1F7
:103520002079FEF727F8BAE7B9F1070FAAD1201DD5
:10353000FEF712F8B3E7B9F1060FA3D140F6FB721C
:10354000A3885BBA9BB2934281D8712229462A7024
:103550006278181F6A70A278AA70E27801F8032FC7
:10356000002202E001F8012F01329042FADC04331C
:103570001FFA83F973E77123C5E77123621C2B706F
:10358000A9F1020312FA83F314F8012FA34205F8FC
:10359000012FF9D163E700BF5C2A03200005FA0B75
:1035A00076000320FFF710F8D6F800C03B6800282B
:1035B00092D10122217840311970A15C99540132D5
:1035C00091B28945F9D84AE70B7F022B00F0FD82C2
:1035D0007F232B7023786B703323AB703DE7B9F1F9
:1035E000080F7FF44FAF6378012B00F0C0837F2377
:1035F0002B7023786B701223AB702EE7B9F1040F98
:103600007FF440AF0B78022B00F07B837F237F2277
:103610002A702278AB706A701FE7B9F1040F7FF44B
:1036200031AF0B78022BF1D10B7F022B40F0998345
:103630006378012BDBD1FEF739FF002840F08B8344
:10364000FEF740FF002840F02F8204212046FFF7BC
:10365000ADF8D6F800C0BCF80030002B3FF485ADC3
:10366000FFE6B9F1040F7FF40DAF6378012B00F092
:103670007A83022BBBD10022BC4B1A7041E7B9F10F
:103680000B0F7FF6FFAE6568D4F808902DBA99FA53
:1036900089F9284609EB0501FEF7BAFE002840F03B
:1036A0003D837F223B6831211A702278D6F800C012
:1036B0005A7003229970ACF80020D2E60022B4F8C8
:1036C0000100CDE9012240BA80B2A0F5007CBCF532
:1036D000007FCDE903220092C0F00481A0F5714083
:1036E00084380C2808D8DFE800F070076B62070701
:1036F00007075907070712007F20312503213B6880
:103700003268187020789D70587011802DE56946D8
:103710000120FEF777FB01A980460220FEF772FB2D
:1037200002A948EA00080320FEF76CFB1FFA88F89C
:1037300048EA000803A90420FEF764FB1FFA88F892
:1037400048EA000804A90520FEF75CFB1FFA88F888
:1037500048EA00081FFA88F5694611220DF11700A2
:1037600000F0D6FB002DC7D11425237840333968EB
:1037700062788DF81430A378681E8DF815208DF8C6
:10378000163005AA4B1E11FA80F012F8011B03F83F
:10379000011F9842F9D133681D80E6E40C22744978
:1037A0000DF1170000F0B4FB0F252378DEE70422AB
:1037B00070490DF1170000F0ABFB07252378D5E722
:1037C0000A7804258DF81720D0E70C226A490DF1FC
:1037D000170000F09DFB20230922684909A88DF8F5
:1037E0002330192500F094FB2378BFE7A9F10202EA
:1037F00012F007091FFA82FA7FF41FAED8F80830DA
:10380000D8F8041053448B423FF617AE98F80C20BA
:103810006378934200F070817F2273219EE4B9F1B6
:10382000030F00F0EE807F2313222B70D9E44FF2B8
:103830008412B4F8013058BA80B220F008019142E5
:103840003FF410AD49F2F102934200F0EE80B9F17D
:10385000070F7FF4DCACD4F8031009BAFEF7BAFA0C
:1038600003463A683168002B00F096817F2072256C
:10387000032310702078957050700B8075E4B9F1B7
:10388000030FD0D1002305A8EB70FEF785FA804620
:10389000002840F01681059B002B00F090818246A5
:1038A0006D4614E09DF803203B6803F80920BDF83D
:1038B000022003F82A20009A4B44120A9A70009AB8
:1038C000DA70059B09F10409534540F20681504620
:1038D0002946FEF71DFA0AF1010A0028E2D04FF04E
:1038E0000108EEE76946FEF78DFA002869D07F21CE
:1038F00031203B6832681970217898705970A2F8AD
:10390000009032E40422494620465A730FB0BDE8C5
:10391000F04FFEF74BBFB3F57F4F00F0B0804FF68E
:10392000017293427FF493ADB9F1040F7FF4AAAD15
:103930006378012B7FF45BAE0B78022B00F0B7812C
:103940007E2364E698F80C20637893427FF464AF9A
:10395000013388F80C302378002240332B706378D1
:1039600005F8013FD8F8083019E000BF2A2A0320E3
:103970009005FA0B08EF0008F0EE0008FCEE0008D6
:10398000D8F800100132CB5CB2F57F6F05F8013F2B
:10399000D8F8083003F10103C8F8083004D0D8F88B
:1039A00004109942ECD892B2D8F80410023299422D
:1039B000ACF800203FF6D9AB032388F80D30FFF7B1
:1039C000D4BB2378627840338DF81430A3786946ED
:1039D0008DF815200DF1170004228DF8163000F037
:1039E00097FA3A680DF11301531E063211F8010FD0
:1039F00003F8010F9342F9D1072233681A80FFF7C9
:103A0000B4BB002305A8EB70FEF7C6F93B6831682C
:103A1000002800F0CC807F221A70722220789A70E1
:103A20005870A1F80090FFF7E2BBB9F1140F7FF4D2
:103A3000EEABD4F803100120FEF7CCF9D4F8071050
:103A400005464046FEF7C6F90346D4F80B1003209E
:103A50001D43FEF7BFF90346D4F80F100420ADB2A2
:103A60001D43FEF7B7F90346E17C0520ADB21D43C7
:103A7000FEF7B0F9ADB245EA00039BB2F1E6B9F149
:103A8000040F7FF4FFAC6378012B7FF4B0AD0B78AB
:103A9000022B7FF455AF0B7F022B40F06281FEF7C3
:103AA0006DFD00283FF4D1AD7F223B68D6F800C001
:103AB0001A70227872215A7003229970ACF8002093
:103AC000CFE47F223B681A70722221789A70597075
:103AD0003368A3F80090FFF78ABBB8F1000F6ED0EF
:103AE0007F213B68722019700321257832685D7050
:103AF00098701180FFF77BBB013388F80C3002F01F
:103B00008FFABAF1000F00F0E8804D46A146AB46AF
:103B100099F8043099F805201B0403EB026399F827
:103B2000032099F8081003EB022399F809200904EF
:103B300001EB026199F80220D8F8080013441BEB4E
:103B4000030299F8073009F1080901EB0323D8F8BB
:103B50000010084419F8021C00F580200B44FEF701
:103B600085FD40EA0503DDB2D8F808300833C8F80F
:103B70000830A9EB04039A45CAD802F065FAD8E9DF
:103B800001329A4224BF032388F80D30002D00F043
:103B9000AD807F207225B1E560782378A5785070DC
:103BA00003204033137095700880FFF7DEBA0620BB
:103BB000059A5A71120A1A710880FFF718BB326809
:103BC0009B0003331380FFF712BBBFF34F8FBFF38C
:103BD0006F8F631D984767E49846D4F802502DBA5A
:103BE00008EB05012846FEF713FC3B683168002806
:103BF00000F0D5802278ED1A40321A7003EB0802EB
:103C000002E0E85C03F8010F9342FAD108F10103E6
:103C10000B80FFF7AABA0B7F022B40F0D280D4F8BA
:103C200002502DBA284605EB0801FEF7E1FB0028FB
:103C30003FF462ADB8F1020F00F0BB80B8F1040FA1
:103C400000F0BB80B8F1080F40D06FF00603E21D12
:103C50001B1B02E012F8011F297099188845F9D83A
:103C60005146204652E6FDF771FB0A2008F00AFB98
:103C700022783B6840321A706278D6F800C05A70D9
:103C8000A2789A70E278DA70ACF80090FFF7E9BB9E
:103C90009846FFF7A5BB0122217840311970A15C3D
:103CA0009954013291B28945F9D8FFF7D8BB0B7FFF
:103CB000022B56D1444B5B7B042B29D07F232B70E6
:103CC00023786B702223AB70FFF7C7BBA168E06855
:103CD0000BBA02BAC5E90023C2E702F0B5F9D8E988
:103CE00001329A4202D3032388F80D300220237850
:103CF0003A68647831684033137054700880FFF775
:103D000034BA0B7F022B2CD16378012B7FF46FAC7C
:103D1000FEF7FEFB00287FF4C7AE96E4494628462E
:103D2000FDF786FD0825024621783B684031197071
:103D30006178D6F800C05970A178EA409970E178AE
:103D4000D871D970010E1971010C59719A71ACF8C2
:103D50000050FFF786BB0BF07BF800287FF4A4AE81
:103D600073E4332353E4194A1370FFF7CABBE379B2
:103D7000042B7FF46CABA0792379000240EA036046
:103D8000637940EA034040F00400FDF7DDFF0028BE
:103D90007FF48AAE59E40E4A1370FFF7B2BB7F205E
:103DA00031250322187020789D7058700A80FFF723
:103DB000DCB923895BBA2B8052E7A3681BBA2B605E
:103DC0004EE73323FFF718BB5C2A03202A2A03207F
:103DD0007600032070B400242D4D039E2B602D4DE2
:103DE00034802E602C4D8C461C4611466860B2B162
:103DF0009CF800200F2A1FD9272A23D8103A172A07
:103E00002AD8DFE802F0383429293029292929293C
:103E1000292929292929292929292929292C8CF8DD
:103E200000107F221321032322709CF80020A17030
:103E30006270338070BC70473346224670BC604667
:103E4000FEF7B4BA852A1ED0872A18D03E2A03D19D
:103E500070BC6046FEF750BD7F221121E3E760464B
:103E600070BCFEF7C3BC604670BCFEF7A9BF6046DD
:103E700070BCFEF707BE604670BCFEF769BD6046C9
:103E800070BCFEF785BE604670BCFEF743BE00BF47
:103E9000542A0320502A0320302A032038B5049ADC
:103EA00012884AB11978512907D0C72904D1012AAB
:103EB00002D05B78032B08D038BD4FF4FA7008F0BD
:103EC000E1F9BDE8384001F0FFB94FF4FA7008F0AD
:103ED000D9F90123084C25782370FDF7F7FA4FF440
:103EE0007A7008F0CFF9054BEDB21878FDF7F4FAC7
:103EF000FDF72CFA257038BD76000320582A0320E0
:103F0000014BC0B2185C7047AC140108704700BF89
:103F10004AB1013A4B1E0138114413F8012F8B426C
:103F200000F8012FF9D170474FF47A7202FB00F0CC
:103F3000024BA3FB0030800908F0A4B9D34D6210F6
:103F400000220146034B1046C3E903221A70596050
:103F50001A817047742A0320084B1A785AB14EF61A
:103F600060215A68821A8A4205D90022C3E90322D5
:103F700058601A701A810020704700BF742A03200D
:103F800038B5D0B20C46FFF7C1FF074DE86002E03C
:103F90000A2008F077F921462846FDF707FB00289C
:103FA000F6D1012038BD00BF2C02032040F252524E
:103FB00030B51C46036883B0934202D0002003B0A2
:103FC00030BDC0680D46FFF79BFFADF80600002826
:103FD000F4D04FF0FF33022220680DF1060108F003
:103FE00025FE84464FF0FF3320682946BDF80620A1
:103FF000644608F01BFEBDF8063004440233A342B9
:1040000001D10120DBE7FCF7D1FFFAE72DE9F04110
:10401000069EDFF850814F4C4F4F26607860C8F8FD
:10402000003042B10D46FF2119702978FF290ED0CA
:104030003878012801D0BDE8F081F53909291BD86D
:10404000DFE801F0203C1A1A1A2B1A5A4452012AAE
:1040500001D06A78DAB9002201214FF48074082077
:104060003E4DC7E903223A813970C3F80150A3F8E5
:104070000540D9713080DEE742F2FE01022219804C
:104080003280D8E7012A1BD0697807293FD942F24C
:10409000FE21022219803280CDE7012A10D06A78F1
:1040A000002AF4D14FF080600821A3F80520DA71CE
:1040B0002B4AC3F8010031803A61BCE7082A20D0BE
:1040C00042F2FE11022219803280B4E700215970B9
:1040D0003A7A0620013A18BF01221201D9701971EB
:1040E00059719A703080A6E700230122C7E9033393
:1040F0003B703B8132809EE7FE2102221980328094
:1041000099E701226B681BBA3B61328093E73869FB
:104110000144FEF77DF90128D8F80060246805D035
:1041200042F2FE2202233280238084E7FF23337091
:10413000697859B100233A6912780133DBB2F2543D
:104140003A6901323A6169789942F5D801312180A2
:1041500071E700BF6C2A0320742A032000000808BE
:10416000BC140108702A032010B50F4B82B0186EE2
:10417000002240F0010018661C6E072104F00104C3
:104180000094009C9C6D6FF0010044F080549C658D
:104190009B6D03F080530193019B01F03BF802B04B
:1041A000BDE8104003F0D0BE0010024070B5002101
:1041B0000446ACB0942207A8CDE90211CDE9041160
:1041C00006910AF055FD324B22689A4201D02CB07C
:1041D00070BD03234FF480424FF08051CDE9072397
:1041E0000993182211232791CDE90A2302210822DD
:1041F0004FF0807307A8CDE90D230C9104F082FDE8
:1042000000283BD1234B0026DA6C02A942F400526D
:10421000DA64DA6C204D02F400520092009ADA6CF3
:1042200042F00102DA64DB6C322203F001030193F5
:10423000032301981948CDE90223049602F0D8F926
:1042400080224FF480730521C5E903626B614FF44E
:1042500080622023C5E9011611492846C5E90623D5
:104260002E62296001F0E4F870B910210A4801F0CB
:104270008FFA30B92565AC622CB070BDFCF796FEA4
:10428000C0E7FCF793FEF5E7FCF790FEEDE700BF13
:104290000080024200100240402803200000024239
:1042A00008040240094B02689A4200D07047A3F507
:1042B00000539A6C82B042F480529A649B6C03F46F
:1042C00080530193019B02B0704700BF0030024051
:1042D00010B500210446ACB0942207A8CDE9021124
:1042E000CDE9041106910AF0C3FC274B22689A42DB
:1042F00001D02CB010BD4FF000724FF0807307A8B2
:104300000792219304F0FEFC002832D19FED1A6B36
:104310009FED1B7B09241D4B02A9DA6D1C4842F45A
:104320000072DA65DA6D02F400720092009ADA6CBB
:1043300042F00202DA64DB6C8DED026B03F00203E3
:1043400001938DED047B019B069402F051F900224C
:104350000521272000F05EFF272000F095FF0022B6
:104360000521282000F056FF282000F08DFF2CB0FA
:1043700010BDFCF71BFEC9E70003000002000000AF
:10438000000000000000000000A4004000100240F7
:104390000004024208B502680A4B9A4200D008BDE8
:1043A000094A4FF44071D36D084823F40073D36574
:1043B00002F024FA272000F075FFBDE8084028200D
:1043C00000F070BF00A40040001002400004024250
:1043D00010B50446A6B09422002101A80AF048FCBA
:1043E000114B22689A4201D026B010BD4FF48023B1
:1043F00001A8019304F086FC98B90C4B0022D86CFC
:10440000052140F48020D864DB6C5E2003F4802317
:104410000093009B00F0FEFE5E2000F035FF26B00A
:1044200010BDFCF7C3FDE8E700080C420010024095
:1044300000B5036887B0B3F1804F0DD02E4A934288
:1044400038D02E4A934214D02D4A934226D02D4A7A
:10445000934244D007B000BD03F504339A6D42F097
:1044600001029A659B6D03F001030193019B07B064
:1044700000BD254B0022986D052140F02000986575
:104480009B6D322003F020030393039B00F0C2FED8
:10449000322007B05DF804EB00F0F6BE1A4B1A6E3E
:1044A00042F400321A661B6E03F400330493049B3B
:1044B00007B000BD144B0022986D052140F010009C
:1044C00098659B6D312003F010030293029B00F06E
:1044D000A1FE312007B05DF804EB00F0D5BE0A4B19
:1044E0001A6E42F480221A661B6E03F48023059331
:1044F000059B07B000BD00BF001000400014004045
:10450000004401400048014000100240000000004B
:1045100010B500210446AEB0942209A8CDE90411DB
:10452000CDE9061108910AF0A3FB2D4B22689A42AF
:1045300001D02EB010BD4FF4005309A8099304F028
:10454000E1FB00283FD19FED226B9FED237B0A22E8
:10455000244C2548E36C04A943F00103E364E36CB5
:104560008DED046B03F001030193019B8DED067B40
:10457000089202F03DF8E36D43F40013E365E36D48
:1045800003F400130293029BA36DDB0018D4A36D08
:1045900043F08053A365A36D03F080530393039B03
:1045A00003F0CAFCA36D23F08053A365002205210C
:1045B000492000F02FFE492000F066FE2EB010BD0D
:1045C00003F0BAFCF2E7FCF7F1FCBCE7AFF30080C4
:1045D00000180000020000000000000000000000C1
:1045E00000D40040001002400000024210B5014615
:1045F00088B000222A2000F00DFE2A2000F044FEA0
:10460000154B01A91A6E03A842F400621A661B6ECC
:10461000124C03F400630293029B04F06BFA04F063
:1046200051FA0346002140F2E7300D4A2161A2FB16
:104630000323A1609B0C0B49E060013B20462160F5
:10464000636005F055FA10B1012008B010BD204696
:1046500005F05EF808B010BD00100240882A032063
:1046600083DE1B43002C0140FEE700BFFEE700BFD6
:10467000FEE700BFFEE700BFFEE700BF704700BFD8
:10468000014801F013B800BFF0250320014801F0F4
:104690000DB800BF88250320014801F0F9BB00BF19
:1046A000B8270320014801F0F3BB00BFB82703205F
:1046B000014805F01DB900BF882A0320014805F014
:1046C00017B900BFF0240320014805F011B900BF5D
:1046D000A4240320014802F03FB900BF642703204F
:1046E000014802F0D7BA00BF64270320014804F054
:1046F000E5BE00BF58260320014805F0C3BA00BF3D
:10470000D0260320014802F00BBD00BF302103205A
:10471000014800F0CBBF00BF40280320014804F04F
:10472000FFBD00BFBC260320034AD2F8883043F403
:104730007003C2F88830704700ED00E0254B254932
:104740001A68120754BFD3F894301B688A6858BFA0
:10475000C3F3032302F00C0248BFC3F30313082A78
:1047600012D01D480C2A50F823300FD01B49042AC0
:1047700008BF0B46174A1A4892681A49C2F3031237
:10478000825CD3400B607047174BF3E7C868CA6878
:1047900000F00301C2F30312022902F1010211D059
:1047A000032913D0B3FBF2F10A4AD368D268C3F3EA
:1047B000062301FB03F3C2F3416201325200B3FB53
:1047C000F2F3D7E70549B1FBF2F1EDE70649B1FB9A
:1047D000F2F1E9E700100240C41401080024F400DB
:1047E0000C1501085002032080969800DFF834D0A1
:1047F000FFF79AFF002103E00B4B5B584350043155
:104800000A480B4B42189A42F6D30A4A02E00023A8
:1048100042F8043B084B9A42F9D30AF08FFAFCF7AE
:1048200061F8FEE7000004203815010800000320AD
:10483000C0030320C003032020580320FEE700002C
:10484000042010B500F0D4FCFFF778FF0020FFF73C
:10485000CDFE10B10124204610BD0446FFF784FCB4
:10486000204610BD034A044B11681B780B441360AB
:10487000704700BFD42A032054020320014B18685C
:10488000704700BFD42A0320002330B583B00193C2
:10489000002800F09E80856D0446002D00F09C806D
:1048A000226893689D0005D5936823F0204323F088
:1048B0003F0393609368D80019D45C4B5C481B6835
:1048C00091689B09A0FB030321F010419B0921F093
:1048D0003F0101335B0041F0805191600193019BE6
:1048E0002BB1019B013B0193019B002BF9D19368F4
:1048F000D90064D40120A36D43F01003A365E36DD8
:104900000343E365936813F0040FA36D5DD1DB06E9
:104910005BD4A36D23F4817343F00203A365936812
:10492000DD0708D4434B9B6813F0010F424B9B6893
:1049300001D1D90763D5E568636B94F820102B4348
:10494000A568012943EA0503657E43EA453343EA46
:1049500001434FD0A16A21B1E56A01F47071294386
:104960000B43D568354929401943D16093681B072B
:1049700016D494F83030257ED1685B0043EA853345
:10498000E56C21F4804121F006012B430B43D360F9
:1049900094F83830012B3AD0136923F001031361E6
:1049A0002369012B1ED0136B23F00F031363A36D38
:1049B00023F0030343F00103A36503B030BD936804
:1049C000002013F0040FA36DA1D0A36D43F01003DA
:1049D000A365012003B030BDFFF7E8FBE56584F86F
:1049E00054505DE7116BE36921F00F01013B0B436C
:1049F0001363DCE7616A013943EA4143AAE71049DE
:104A000065688B6823F47C132B438B6093E71169F3
:104A1000E36B256C6FF38A012B430B43616C0B43F3
:104A2000A16C0B4343F001031361B9E7500203206B
:104A3000632D3E05008002420081024207C0F0FF64
:104A400000830242704700BF704700BF08B5806A0C
:104A5000FFF7FAFF08BD00BF704700BF836A10B5BB
:104A60009A6D12F0500F9A6D1DD1196842F40072C0
:104A70009A650A6812F0080FCA681BD012F4406FDA
:104A80000DD1CA6894040AD49A6D22F480729A6592
:104A90009A6DD10403D49A6D42F001029A651846CA
:104AA000FFF7D0FF10BDD2060AD4BDE810401B6D41
:104AB000DB6B18479007E7D51846FFF7C3FFF1E710
:104AC0001846FFF7C9FF10BD806A08B5836D43F033
:104AD00040038365C36D43F00403C365FFF7BCFF68
:104AE00008BD00BF0022F0B583B0019290F85420B9
:104AF000012A00F0F380034601201A6883F854006D
:104B00009068400709D501209A6D42F020029A650D
:104B1000002283F8542003B0F0BD1F24486802F13E
:104B2000300500F01F0C4FEA901E08680EF00C0EC6
:104B3000C0F3846000FA0CF004FA0CFC55F80E4047
:104B400024EA0C0C40EA0C0045F80E00906810F0C6
:104B5000040F906835D1070733D4072408688D689F
:104B6000C0F30456B440C00DB5F1004F6FEA040421
:104B700000F0040000F0FC8002F11407B5403E583C
:104B800034402C433C50506920F0004050610E6985
:104B9000D468042E086800F0B88002F1600757F866
:104BA00026C0BA4D00F0F8400CEA05050543C4F3F1
:104BB000C10448696400A040284340F0004047F821
:104BC00026009068C60701D50020A1E7CE680C68D2
:104BD000AF48D2F8B05006F01807F840C4F31207F7
:104BE000204025EA07052843C2F8B000A9488642BC
:104BF00026D0A9490C42E7D0A848A94986688D6803
:104C0000ED076ED4A74DAD68EF073FF57CAFA64D1D
:104C100006F0E077AC4200F05F81A44DAC4200F0BA
:104C20007F81A34DAC42CFD17402CDD48A42CBD187
:104C3000826822F0E0723A4342F480028260C3E765
:104C4000002F51D094FAA4F0002800F0D080B0FAE0
:104C500080F0013000F01F00092840F2C88094FA6B
:104C6000A4F0002800F07281B0FA80F001308006D4
:104C700000F0F84094FAA4F5002D00F06C810126B4
:104C8000B5FA85F5354405F01F0506FA05F5284304
:104C900094FAA4F4002C00F05C81B4FA84F401349A
:104CA00004F01F0404EB44041E3C240544F000748B
:104CB00007272043C50D8E6805F0040502F1140C8A
:104CC0005CF80540C0F30450864007FA00F024EA7F
:104CD000000030434CF805000C688AE7022003B05E
:104CE000F0BD704A92680EE70120A40E013404F072
:104CF0001F06A40604F0F845B040092E06EB460452
:104D000040EA0500D0D82405D2E7146E146EC0F333
:104D10001205C4F38464002D34D1C0F38466B44218
:104D200000F08B80546E556E02F16004C5F384650B
:104D300002F1640CB54200F09480A568A56804F106
:104D40000807C5F38465C0F38466AE4200F0B28004
:104D5000E568E56804F10C06C5F38464C0F384607B
:104D6000A0427FF42EAF306820F00040306028E78A
:104D700002F1140635582C403450506940F0004080
:104D8000506104E790FAA0F51DB1B5FA85F5AC4283
:104D900053D0546E556E02F16004C5F3846502F180
:104DA000640C90FAA0F604F10807BE461EB1B6FAEC
:104DB00086F6AE4257D0A568A568C5F3846590FA1B
:104DC000A0FC04F10C06B646BCF1000F03D0BCFAFF
:104DD0008CFCAC4570D0E568E468C4F3846490FA58
:104DE000A0F000283FF4EDAEB0FA80F0B8E794FAF6
:104DF000A4F0002800F0A480B0FA80F00130800612
:104E000000F0F84094FAA4F5002D00F097800126F8
:104E1000B5FA85F5354405F01F0506FA05F5284372
:104E200094FAA4F4002C00F08E80B4FA84F40134D7
:104E300004F01F0404EB440465E71446106E02F10D
:104E4000640C20F0004044F8600F506E0868556E06
:104E5000C0F31206C5F38465002EA2D1C0F38466A8
:104E600068E704F1080EDCF80000774620F0004007
:104E7000CCF80000A0680868A568C0F31206C5F366
:104E80008465002E3FF45FAF99E700BF00F0FF0399
:104E9000FFFF070000007F400000088000830242FF
:104EA0000080024200810242000052C7000084CB11
:104EB0000100008004F10C0E3868764620F00040B6
:104EC0003860E0680868E468C0F31205C4F38464DD
:104ED000002D3FF443AF82E736023FF575AE8A42BC
:104EE0007FF472AE82681D4922F0E0723A4342F4C8
:104EF000000282600A681A499209A1FB0212920913
:104F0000013202EB420292000192019A002A3FF420
:104F10005BAE019A013A0192019A002AF9D153E657
:104F2000F5013FF551AE8A427FF44EAE826822F021
:104F3000E0723A4342F08072826045E602256EE7F5
:104F40004FF080605EE74FF44014B1E64FF08060B0
:104F500090E6044CACE6022599E600BF500203201F
:104F6000632D3E05000050FE002370B582B0019312
:104F700003689A68D2072CD49968284A05461142DA
:104F80002AD19A68264922F0004222F03F0242F0DC
:104F900001029A608B681E0229D4FFF76FFC2B6810
:104FA00006461A68D40714D41E4C9A68D00704D455
:104FB0009A68224042F001029A60FFF75FFC821B70
:104FC000022A2B6802D91A68D10705D51A68D207B8
:104FD000EBD5002002B070BD0120AB6D43F0100393
:104FE000AB65EB6D43F00103EB6502B070BD0E4B9A
:104FF0000E4A1B689B09A2FB03239B09013303EBA9
:1050000043039B000193019B002BC6D0019B013BF6
:105010000193019B002BF9D1BFE700BF3F00008047
:1050200000830242C0FFFF7F50020320632D3E0534
:105030002DE9F041364B05689B68AD6815F0040515
:1050400016D1164690F854200446012A10D040F29A
:10505000212C03F01F0801232CFA08FC1CEA030C86
:1050600080F8543007D180F854C00120BDE8F081A9
:105070000220BDE8F0810F46FFF776FF002840D1FF
:10508000A36D216823F4706323F0010343F480735C
:10509000A365204B994237D0A36D23F48013A365F9
:1050A000A36D002513F4805318BFE36D206D18BF66
:1050B00023F00603E36533461C263A46164F40317B
:1050C000C762164F0763164FC76341F8406C84F8F8
:1050D000545051F83C5C45F0100541F83C5C51F8E7
:1050E000345C45F0010541F8345C00F017FA2268A1
:1050F000936823F0004323F03F0343F004039360DD
:10510000B7E784F85450B0E7B8F1000FC8D1C3E74F
:1051100000830242008102425D4A00084D4A0008B5
:10512000C94A000890F85420012A46D003460022BC
:105130000120F0B42B4D1C689AB0AC42169283F853
:105140005400179208D0996D83F8542041F0200143
:1051500099651AB0F0BC7047234A906840070BD598
:10516000A26801209A6D42F020029A65002283F81D
:1051700054201AB0F0BC7047A0684507F1D40D6800
:10518000EDB11A4E4F68B06893F830C020F460401B
:10519000384340EA4C30B060A0689268C0070AD437
:1051A000D70708D4B268896822F471620D4322F0EF
:1051B0000F021543B5600020D8E7022070470B4866
:1051C000816821F460418160A1689268CD07F2D4C2
:1051D000D407F0D4826822F4716222F00F02826058
:1051E000E9E700BF008002420081024200830242E0
:1051F0004FF6FF0C06490302CA6803F4E06302EAB3
:105200000C02134343F0BF6343F40033CB60704799
:1052100000ED00E01A4B00B5DB68C3F30223C3F1D5
:10522000070EBEF1030F03F1030C28BF4FF0030E6E
:10523000BCF1060F1BD9A3F1040C4FF0FF3303FAA6
:105240000CF322EA03024FF0FF3303FA0EF321EAD4
:10525000030303FA0CF313435B010028DBB209DB01
:1052600000F1604000F5614080F8003300BD00228D
:105270009446E8E7034A00F00F000244137600BDAD
:1052800000ED00E0FCEC00E0002807DB012300F06B
:105290001F01034A40098B4042F82030704700BF8D
:1052A00000E100E000280CDB01220649430900F080
:1052B0001F002033824041F82320BFF34F8FBFF3FC
:1052C0006F8F704700E100E0BFF34F8F0549064B39
:1052D000CA6802F4E0621343CB60BFF34F8F00BF94
:1052E000FDE700BF00ED00E00400FA05002836D01D
:1052F00038B5437F044603F0FF0263B302222379EB
:105300006277F3B92368174A5A619A6822F0180243
:105310009A6062798AB122691A6101219A68656985
:1053200022F060022A439A609A68A56922F08002FE
:105330002A439A606177002038BD4FF0FF321A612E
:10534000EBE72046D4E9021200F00EF808B9236812
:10535000DFE7012038BD0277FEF7A4FFCEE701208A
:10536000704700BFB71DC104CB071AD51E2310B468
:1053700001E0013B17D321FA03FC1CF0010FF8D028
:10538000182A11D8DFE802F01610101010101010B3
:1053900024101010101010102110101010101010E8
:1053A0001400012070472AB101205DF8044B7047BA
:1053B000062BF9D8046800206161A36823F0180364
:1053C0001343A3605DF8044B7047072BF2D9EBE75A
:1053D0000F2BEFD9E8E700BF11490368C26C8B427D
:1053E00088BF104922F0030294BF02F1804189185E
:1053F0004FF0010210B4DBB20B4CA3F10803A4FB85
:1054000003430A4CC3F3041398BF01F5023102FAB7
:1054100003F3C0E9141483655DF8044B704700BFC3
:105420000704024020080240CDCCCCCC80080240CA
:1054300000285ED00268304B70B59A42044646D9C7
:105440002E4B2F491344A1FB03132E481B099B002D
:105450000221C4E91203D4E9025320692B43034318
:10546000606984F825100343A06911680343E0696B
:105470006FF310110343206A03430B43204613606C
:10548000FFF7AAFFD4E91461B5F5804FA06D27D0CE
:105490006368DAB2013B032B3260486024D80121F3
:1054A0000020194B194D1344013A01FA02F2184930
:1054B0009B00E3656266256618604A64002301224A
:1054C000636484F8243084F82520184670BD114B9D
:1054D0000B491344A1FB03131B090F489B00B7E7BB
:1054E00000236360336048600023C4E917336366B8
:1054F000E4E70120704700BF07040240F8FBFDBF4E
:10550000CDCCCCCC000402403F82001040090240C8
:1055100000090240F8FFFDBF00000240F0B590F81E
:105520002440012C0AD04FF0010C90F8254080F85F
:1055300024C0644504D0002380F824300220F0BD4C
:105540000026D0E9157C4FF0020E046880F825E0B3
:1055500046642668C56D26F001062660C7F804C0BB
:1055600015B1D0E9186777600126C76C07F01C0CED
:10557000876C06FA0CF67E6063608368102B036B01
:105580000BBFA260A160E160E260B3B1236843F0A9
:105590000E032360036D1A68D20303D51A6842F420
:1055A00080721A601DB12B6843F480732B602368EE
:1055B000002043F001032360F0BD236823F00403BF
:1055C0002360236843F00A032360E3E790F8252073
:1055D0000346022A06D004225A640022012083F8DE
:1055E00024207047026870B4046D1068D96C20F0F4
:1055F0000E00106020689E6C20F48070206010689F
:1056000001F01C0120F0010010600122D3E91545D2
:10561000D86D8A407260656030B1D3E918140268B1
:1056200022F4807202604C60012283F8252000225F
:1056300083F82420002070BC704700BF90F825201C
:105640000346022A03D0042201205A6470470268EC
:1056500070B5046D1068D96C20F00E0010601068F1
:105660009E6C20F0010010602268D86D22F48072D8
:1056700022600122D3E9154501F01C018A407260C5
:10568000656030B1D3E91814026822F480720260B8
:105690004C60012000211A6C83F8250083F8241047
:1056A0000AB118469047002070BD00BF0421F0B435
:1056B000C26C866C02F01C02356804689140294275
:1056C0000346276812D017F0040F0FD02268170482
:1056D00039D42268950603D4226822F0040222609D
:1056E0001A6B716092B1F0BC1846104702219140CC
:1056F00029420DD0B8070BD5226812F4004F22685A
:1057000029D0D4033CD45A6B002AECD1F0BC7047AA
:10571000082191402942F9D03907F7D521680020A6
:1057200021F00E0121600121DC6B01FA02F27260AE
:10573000596483F8240083F82510002CE6D018461D
:105740002346F0BC184771602268D60314D4036B5B
:10575000002BF6D1DAE7900606D4226822F00A027E
:105760002260012283F825200020DA6A716083F824
:105770002400002AB7D1C9E7836B002BE1D1C5E72C
:10578000DA6A002AAFD1C1E790F82500704700BF60
:1057900060B10368C8061A6805D5C9024CBF42F457
:1057A000801222F4801200201A6070470120704796
:1057B000002800F0D78038B590F85C30044603F03C
:1057C000FF02002B70D02268936923F010039361CD
:1057D000FFF754F8054604E0FFF750F8401B0A288D
:1057E00059D823689A691107F6D49A6942F00102E0
:1057F0009A61FFF743F8054604E0FFF73FF8401BC6
:105800000A2848D823689A69D207F6D59A69606849
:10581000574942F002029A610860227C012A9A6983
:105820000CBF22F0400242F040029A61627C012AE1
:105830009A690CBF42F4804222F480429A61A27CB1
:10584000012A9A690CBF22F4805242F480529A6174
:105850009A69A06822F4407202439A619A69E168E9
:1058600022F0A4029A611A69012922F010021A6139
:105870001FD011B302299A6976D042F080029A6152
:105880001A69032942F010021A6116D19A6942F08E
:1058900020029A6111E00322236E012043F00103EC
:1058A000236684F85C2038BD80F85D20FEF710FD8B
:1058B00089E79A6942F004029A61D4E90612013A32
:1058C0000139120242EA4162216AB0F5407F01F1DA
:1058D000FF3142EA0102616901F1FF3142EA01420E
:1058E000DA610ED1D4E90B02A16A013A0138120142
:1058F000013942EA00220A43616A013942EA01425F
:10590000DA60D3F8C020E06B616B0243C3F8C020BB
:10591000D3F88020174822F4F81242EA01422064AA
:10592000C3F88020D3F88020A16B134D22F0706261
:1059300042EA01626564C3F88020104B104940358B
:10594000C4E91253F033C4E914134FF45472002124
:1059500009F08EF900230122236684F85C201846A2
:10596000A36538BD0120704742F020029A61A4E788
:1059700000A5004000AC004070AC004088AD004085
:1059800060AE004090F85C200346013A012A05D938
:105990001A6E012042F002021A6670478A6870B4DB
:1059A000D1E9035448699207D1E9006156B942EA46
:1059B000C56202431B6C42EA0442002070BC43F8FB
:1059C000212070475B6C44EA457443F83140104332
:1059D00003EBC103586070BC00207047844690F808
:1059E0005C00012807D0DCF86030012043F004039C
:1059F000CCF86030704710B40198DCF8004040EA01
:105A00004303D4F8800043EA820242EA011120F005
:105A10003F030B430020C4F880305DF8044B70470F
:105A200090F85C200346012A05D01A6E012042F04E
:105A300004021A6670470222002110B4046880F83C
:105A40005C20A269084622F00102A2615DF8044BC5
:105A50001966704790F85C300146022B17D1026836
:105A6000936943F0010393619369DB0758BF0B23EC
:105A700013D49069C00710D4013BFAD103220B6EF6
:105A8000012043F001030B6681F85C207047036E30
:105A900043F00803036601207047936923F0100365
:105AA000936193691B0748BF0B2305D590690007D5
:105AB00002D5013BFAD1E1E74FF0010C10B400240C
:105AC0009369204643F00203936181F85CC08C65C2
:105AD0005DF8044B704700BF88B110B50446FFF76E
