:020000040800F2
:100000000000042045470008C1450008C545000818
:10001000C9450008CD450008D145000895470008AE
:1000200000000000000000000000000041E800089F
:10003000D545000800000000D1E70008CDC0000849
:100040009547000895470008954700089547000820
:100050009547000895470008954700089547000810
:100060009547000895470008954700089547000800
:1000700095470008954700089547000895470008F0
:1000800095470008954700089547000895470008E0
:1000900095470008954700089547000895470008D0
:1000A00095470008954700089547000895470008C0
:1000B00095470008D9450008E54500089547000820
:1000C00095470008954700089547000895470008A0
:1000D000954700089547000895470008F145000836
:1000E000FD450008954700080946000895470008A7
:1000F0009547000895470008954700089547000870
:100100009547000815460008214600089547000855
:10011000954700089547000895470008954700084F
:10012000954700082D460008394600089547000805
:100130004546000895470008954700089547000880
:100140009547000895470008514600089547000864
:10015000954700089547000895470008954700080F
:10016000954700085D460008954700089547000838
:1001700095470008000000009547000800000000B7
:10018000694600089547000895470008954700080C
:1001900095470008954700089547000895470008CF
:1001A00095470008954700089547000895470008BF
:1001B00095470008000000007546000895470008B4
:1001C0009547000800000000954700089547000883
:1001D000954700089547000895470008954700088F
:1001E000954700089547000895470008954700087F
:0401F000000000000B
:1002000010B5054C237833B9044B13B10448AFF350
:1002100000800123237010BDC004032000000000F3
:10022000A0ED000808B5034B1BB103490348AFF329
:10023000008008BD00000000C4040320A0ED0008F9
:10024000704700BF01F09CBB2DE9F0412A4C2B4EBA
:10025000DFF8B0802A4F9AB04FF0FF33282269466A
:1002600020680CF0A3FD2828F6D1039803F0ECFDDC
:100270000546002838D1029B9BB929460AAA009856
:1002800001F094FB0DF07CFA0AA90246684601F0E1
:1002900069FD0DF075FA0AA90246684601F05EFB99
:1002A000DAE7B3F1005FF4D140F20273009D9D42A2
:1002B000EFD1082203994FF0000E91420B4628BF60
:1002C00013469C46019B41463846C6E905EEC6E901
:1002D0000053C6F808E0C6F80CC003F0BDFD39466F
:1002E000304601F0DBF9D4E74FF0FF332A462068AF
:1002F0000AA90CF05BFDBEE7142A0320F0040320DA
:10030000E40403209005FA0B2DE9F0411F4DDFF8BE
:1003100084801F4F9AB0002404EBC40101AEC4F1E5
:1003200024024FF0FF33286806EB81010CF03EFDFC
:100330000444232CF0D9049803F086FD039B064661
:10034000B3F1005F00D0A0B9384605F0D3FC50B13E
:1003500038460AAA01A905F097FBD8F80C300133FA
:10036000C8F80C30D7E74FF0FF3201210DF092FCB6
:10037000EAE700240AA9321B21444FF0FF33286822
:100380000CF014FD0444A642F4D8DDE7102A032043
:10039000B82803200000032000B583B001F000FB63
:1003A00001F046F803221849184804F0FBFD02F05A
:1003B0000BF900F0FFFD02F095F90DF0E1F901F005
:1003C000C7FA134809F07AF9124809F03FF9124CBC
:1003D0000DF0D6F9019002F0FDF8019802F088F9CD
:1003E000019800F0E9FD237813B9019801F032FC7F
:1003F000019801F0B5FA019801F0A8FC0A2101A8C2
:100400000DF004F9E4E700BF242B0320A829032002
:10041000F025032058250320760003202DE9F04322
:100420000027224C224EDFF88C90DFF88C80A7B09A
:1004300013E00EF075F899F8003033B10B9B23B13F
:1004400064200BF0FBFE00F0F3FF002202231146B4
:10045000D8F8000000970DF09FFC4FF0FF3201210B
:1004600000200DF017FC0EF04DF8204605F098FD29
:10047000054606A9204605F003FC02A9204605F022
:1004800027FC5422314611A8B5600EF031FC2766D6
:10049000189BB3F5003FCCD9B3689B02C9D50123A3
:1004A00086F820300B9301F087F8C2E7B8280320C4
:1004B00000000320E0040320781D032000232DE921
:1004C000F04F85B07F4E804FDFF80492DFF808B21E
:1004D0007E4DDFF808A20DF10E088DF80B3013E009
:1004E00028680CF06FFB012808D94FF0FF33022277
:1004F000286803A90CF05AFC022847D000214FF0CD
:10050000FF3208460DF0C6FB30680CF05BFB00289C
:10051000E6D04FF0FF33012230680DF10B010CF0F3
:1005200045FC0128DCD130680CF04CFB0128D7D900
:100530004FF0FF330222306803A90CF037FC022889
:10054000CED1BDF80C20B2F5805FC9D2002A40F0B0
:10055000A9809DF80B40002C54D10DF011F95C4B93
:100560005949BDF80C20CDF8008002F025FDBDF8FA
:100570000E30002B7CD10DF003F9554B5249BDF8DC
:100580000C20CDF8008003F02DFCA9E7BDF80C206D
:10059000B2F5805FB2D26AB10024121B39194FF054
:1005A000FF3328680CF002FCBDF80C20204484B214
:1005B000A242F2D10DF0E4F84B463946BDF80C20CA
:1005C000CDF8008003F0C6FCBDF80E30002B95D0AE
:1005D00041464FF0FF330222DAF800000CF000FB36
:1005E0004946BDF80E204FF0FF33DAF800000CF05A
:1005F000F7FA002202231146DBF8000000920DF00A
:10060000CBFB7BE70DF0BCF8314B2F49BDF80C203C
:10061000CDF8008003F082FBBDF80E30002BAAD08D
:1006200099F800207F2A09D1022BA4D999F8023029
:10063000A3F11102012A9ED9312B9CD025484146B5
:1006400004464FF0FF33022200680CF0C9FABDF8EF
:100650000E204FF0FF331E4920680CF0C1FA002233
:1006600002231146DBF8000000920DF095FB82E7B3
:10067000184841464FF0FF33022200680CF0B0FAF0
:100680001448BDF80E204FF0FF33114900680CF0FC
:10069000A7FA022322462146DBF8000000940DF061
:1006A0007BFB68E70024121B4FF0FF3339193068D9
:1006B0000CF07CFBBDF80C2023189CB2A242F2D1B6
:1006C00047E700BF24050320508F012018050320B1
:1006D000507F012020050320B80A032014050320C1
:1006E0002DE9F04F404F414E414DDFF80CA185B050
:1006F00007F11C0907F5805B07F1140814E028686E
:100700000CF060FA012809D94FF0FF330222286863
:100710000DF106010CF04AFB022844D000214FF0F5
:10072000FF3208460DF0B6FA30680CF04BFA01289B
:10073000E5D94FF0FF330222414630680CF036FB1A
:100740000228DCD1BA8AB2F5805FD8D26AB100241F
:10075000121B09EB04014FF0FF3330680CF026FB4D
:10076000BA8A204484B2A242F2D10DF009F80146BF
:10077000204801F0A5FD0028C1D103E09BF823002B
:100780000BF05CFD0CF0FCFF02F078FB0128B6D00A
:1007900030680CF017FA0128B1D89AF80030002B15
:1007A000ECD10A20ECE7BDF80620082AB6D872B1D1
:1007B000002402A9121B21444FF0FF3328680CF0DB
:1007C000F5FABDF80620204484B2A242F1D10CF023
:1007D000D7FFBDF8062002A903F076FB01289DD0C3
:1007E0000A200BF02BFDF2E754AF01202005032077
:1007F00014050320549F01207600032001F0C4B8A3
:1008000001F0C6B8002001F0C7B800BF0022024BBB
:1008100002481A6008F052BFDC040320A42503201C
:10082000014B1868704700BFDC0403200000000083
:1008300030B59FB0482200210CA80EF0CDF900235E
:100840004FF40070CDE90233CDE90433CDE907332D
:10085000CDE90933019306930B9307F01BFB08B115
:1008600072B6FEE701230222169311931993179291
:1008700010231D9207229FED1E7BCDE91A3203241F
:10088000042312900CA81C938DED0C7B189407F098
:1008900043FD034608B172B6FEE70F22214601A8C8
:1008A000CDE9033305930294019207F0E3FB03467D
:1008B00008B172B6FEE7104A4FF00055916D4BF645
:1008C0007F3441F080719165926D069302F08072E1
:1008D000009208932222202306A8CDE90A2300993A
:1008E0000795099408F076FC1FB030BDAFF3008087
:1008F000290000000000010000100240F0B595B092
:1009000072B64FF00062A54B9A60BFF34F8F62B68C
:10091000002503F041FFFFF78BFFCDE90E55CDE930
:1009200010559F4C1295E36C4FF4604143F0040363
:10093000E364E36C2A4603F004030793079BE36C2C
:10094000984843F08003E364E36C012603F08003DE
:100950000893089BE36C43F00103E364E36C03F04A
:1009600001030993099BE36C43F00203E364E36C26
:1009700003F002030A930A9B05F0A6FF2A4640F201
:100980000111894805F0A0FF2A4641F2E401874899
:1009900005F09AFF4FF4604382480EA9CDE90E3668
:1009A0001095119505F0E2FD40F201137E480EA965
:1009B000CDE90E36CDE9105505F0D8FD41F2E4033E
:1009C0007A480EA9CDE90E36CDE9105505F0CEFDD9
:1009D000082377480EA9CDE90E35109505F0C6FD20
:1009E000A36C052143F00403A364A36C2A4603F01F
:1009F00004030493049BA36C1D203343A364A36CE2
:100A000033400593059BA36C43F00203A364A36CDE
:100A100003F002030693069B04F0BAFB1D2004F0CA
:100A2000F3FB2A4605211E2004F0B2FB1E2004F031
:100A3000EBFB2A460521502004F0AAFB502004F0CD
:100A4000E3FB284606F0BEFA08B172B6FEE706F0F0
:100A5000CDFA034640B95748574AC0E9002308F089
:100A6000E1FB18B172B6FEE772B6FEE7534A544B8B
:100A70001070544A4FF440711A60102299609A61C4
:100A80009A620F2113223C2404255860D860987480
:100A9000D8631846C3E90D661E825E615E62DC6142
:100AA000D9621A621D6304F045FE034640BBCDE9DE
:100AB0000E00CDE91000CDE91200CDE90C000B903D
:100AC0004FF480704FF4301703214FF480523E4CA6
:100AD000C4E90233C4E90A3384F8203084F838309A
:100AE0003A4B20832046C4E904656760E161626394
:100AF00084F83060236003F073FE18B172B6FEE72D
:100B000072B6FEE70B900BA9204604F0C9FA08B1B3
:100B100072B6FEE706230F937F2311932C4B1090A0
:100B200013900EA9204612950E9303F083FF08B18F
:100B300072B6FEE7274B20460E930C230EA90F93A7
:100B400003F078FF08B172B6FEE7234B20460E9300
:100B500012230EA90F9303F06DFF034608B172B67E
:100B6000FEE71E48C0E9053383801D4B0662036023
:100B700004F07CFB08B172B6FEE700234FF402716B
:100B800002221848C372184B8180C0F80720036006
:100B900006F036FA50B372B6FEE700BF00ED00E093
:100BA000001002400008024200000242000402421B
:100BB000001C0242BC27032000080C42E004032072
:100BC000B828032000A40040A82903200080024286
:100BD000400020190002B0250004002A1C2903202F
:100BE000003002403022032000D4004041F63F751F
:100BF000A34CA44ACDE90E00C4E901001090A06105
:100C000020462260E56008F049FF034608B172B64D
:100C1000FEE720460EA90E93109308F071FF0346DD
:100C200008B172B6FEE7984CCDE90E331093A3607D
:100C3000A36142F20F73954A2046C4E90023E560A0
:100C400008F02CFF034608B172B6FEE720460EA955
:100C50000E93109308F054FF034608B172B6FEE7F6
:100C60004F254FF6FF748A488A4AC0E904338360EF
:100C7000836102604560C46008F010FF034608B15C
:100C800072B6FEE78448C0E90153C0E90343C0E9F6
:100C90000533824B036008F001FF08B172B6FEE72E
:100CA0004FF080414FF0FF327D4CCDE90E00CDE991
:100CB0001000CDE90B00C4E901000D902061A06196
:100CC00020462160E26008F0E9FE08B172B6FEE756
:100CD0004FF4805320460EA90E9308F02DFD0346D5
:100CE00008B172B6FEE720460BA90B930D9308F0EE
:100CF00007FF08B172B6FEE700246A4A01216A4B79
:100D0000009246F206002246CDE901440BF002FFB4
:100D10000246664D664E00950121CDE90144654BC2
:100D2000326046F2060022460BF0F4FE624B634A44
:100D300001210092CDE9014422461860604B4FF436
:100D40007A600BF0E7FE5F4D5F4B22460093012176
:100D5000CDE901445D4B28604FF47A600BF0DAFE78
:100D60005B4B224600935B4B0121CDE901441860A7
:100D7000594B4FF4A0400BF0CDFE584B2246009348
:100D8000574B0121CDE901441860564B4FF4A04068
:100D90000BF0C0FE544B186001F092F80CF0F0FC20
:100DA0003246524B5249009500F0B6FF514801F0CF
:100DB000D1FC514800F0B2FD5048514A514900F071
:100DC0001DFB0EA80E9401F071F820B90E9B13B90B
:100DD0004D4801F043F80BF087F900214B4A4C488D
:100DE0000BF0D2F904464B4B00214B4A4B481C6098
:100DF0000BF0CAF904464A4B00214A4A4A481C6093
:100E00000BF0C2F904463F4B0021484A48481C6099
:100E10000BF0BAF90446474B0021474A47481C608B
:100E20000BF0B2F90446364B0021454A45481C6098
:100E30000BF0AAF904462E4B0021434A43481C609C
:100E40000BF0A2F90446424B0021424A42481C6082
:100E50000BF09AF90446414B0021414A41481C607D
:100E60000BF092F90446404B0021404A40481C6078
:100E70000BF08AF93F4B18600BF058F9FEE700BF02
:100E8000A425032000140040F0250320001000409A
:100E900058250320004401400C2503200048014050
:100EA0003C260320DC050320481F0120B805032051
:100EB0002405032040BF00202005032094050320C3
:100EC000A0AF0020180503207005032000A000201B
:100ED0004C050320140503200050002028050320A2
:100EE000142A032000000020102A03201C050320E0
:100EF000680F0320BC2703201C290320B8280320E7
:100F000018140320781D032004007201D4EF000898
:100F1000450200082C220320B0EF00084902000817
:100F2000282203208CEF00080903000868EF00085E
:100F300099030008C818032044EF00081D040008A6
:100F400020EF0008BD040008FCEE0008E1060008E0
:100F5000B80A0320D8EE0008FD07000808060320A1
:100F6000B4EE0008010800080406032090EE000813
:100F70000508000800060320094A0368934206D0CA
:100F8000084A93420AD0084A934205D07047074A5C
:100F9000136801331360704700F0EABC03F00EBC25
:100FA00000140040002C014000100040DC0403202D
:100FB00072B6FEE7704700BF10B50E4C0E49208890
:100FC00080B200F03BF8A0880C4980B200F076F8BF
:100FD000207B0B4A94F8201000F0E2F8A07D09492C
:100FE00000F024F9608B084980B2BDE8104000F0A1
:100FF00023B900BF54000320DC0203206402032055
:10100000EC01032074010320FC000320844600232C
:1010100010B50C4682B00DF1060002226146ADF813
:10102000063002F019FF012C8CBFBDF806009DF8B8
:10103000060040BA80B202B010BD00BF034600B542
:1010400083B008465BBA02220DF10601ADF8063006
:1010500002F002FF03B05DF804FB00BF84460023EA
:1010600010B50C4682B00DF1060002226146ADF8C3
:10107000063002F0F1FE012C8CBFBDF806009DF891
:10108000060040BA80B202B010BD00BF8446002303
:1010900010B50C4682B00DF1060002226146ADF893
:1010A000063002F0D9FE012C8CBFBDF806009DF879
:1010B000060040BA80B202B010BD00BF034600B5C2
:1010C00083B008465BBA02220DF10601ADF8063086
:1010D00002F0C2FE03B05DF804FB00BF84460023AB
:1010E00010B50C4682B00DF1060002226146ADF843
:1010F000063002F0B1FE012C8CBFBDF806009DF851
:10110000060040BA80B202B010BD00BF8446002382
:1011100010B50C4682B00DF1060002226146ADF812
:10112000063002F099FE012C8CBFBDF806009DF838
:10113000060040BA80B202B010BD00BF8446002352
:1011400010B50C4682B00DF1060002226146ADF8E2
:10115000063002F081FE012C8CBFBDF806009DF820
:10116000060040BA80B202B010BD00BF8446002322
:1011700010B50C4682B00DF1060002226146ADF8B2
:10118000063002F069FE012C8CBFBDF806009DF808
:10119000060040BA80B202B010BD00BF00787047B0
:1011A00000B58E4613464FF0FF3C83B040EA0E2058
:1011B000ADF80600022218460DF10601C3F800C082
:1011C000C3F804C002F048FE03B05DF804FB00BFA2
:1011D000002300B5012983B0ADF8063003D81846C6
:1011E00003B05DF804FB014602220DF1060002F097
:1011F00033FE9DF8060003B05DF804FB002300B544
:10120000012983B0ADF8063003D8184603B05DF865
:1012100004FB014602220DF1060002F01DFEBDF89E
:101220000600000A03B05DF804FB00BF08707047B9
:101230000078704700787047034600B583B00846D1
:101240005BBA02220DF10601ADF8063002F004FE91
:1012500003B05DF804FB00BF8446002310B50C46C4
:1012600082B00DF1060002226146ADF8063002F0B0
:10127000F3FD012C8CBFBDF806009DF8060040BAB6
:1012800080B202B010BD00BF8446002310B50C46EA
:1012900082B00DF1060002226146ADF8063002F080
:1012A000DBFD012C8CBFBDF806009DF8060040BA9E
:1012B00080B202B010BD00BF007870470078704760
:1012C0008446002310B50C4682B00DF106000222C0
:1012D0006146ADF8063002F0BFFD012C8CBFBDF8B1
:1012E00006009DF8060040BA80B202B010BD00BFF3
:1012F000007870472DE9F04F3C4B8346984283B00D
:1013000007D83B4B984269D94FF028094FF4487EE3
:101310000BE04FF0250940F2EE2E364BB3FBFBFC01
:101320005FFA8CFCBCF1190F5DD90120314B013003
:1013300080B2B3FBF0FCBCFBFBFC5FFA8CFCBCF1A5
:10134000190FF4D8B0F5806F42D201236FF000443A
:101350004FF47A765A460093274B1F68431C1FFAB6
:1013600083FAACF10208B8EB5C0F4FEA5C0120DDB8
:101370000CF1FF3B5FFA8BFBCDF804A006FB01F5F7
:10138000B5FBFCF5BEEB050A48BFA5EB0E0AA2456E
:101390000ADAD14508DB002554460095ABEB010580
:1013A000EDB2F96178613D6201314145E6DBDDF87E
:1013B00004A0104998B2B1FBFAFCBCFBF2FCB0F5FA
:1013C000806F0AF1010A5FFA8CFC03D0431CC8E766
:1013D00001230093009803B0BDE8F08F4FF02B0974
:1013E00040F26B3E99E70120AFE700BF00350C00EB
:1013F00020A10700005A6202082B032038B50C46D2
:10140000064D0749074B0A602860074901201C6008
:101410000BF022F9054B186038BD00BF082B0320E4
:10142000002B0320042B0320182A0320682A032002
:101430002DE9F041584E82B0306804F00FFB30685F
:1014400004F078F9002840F087800022534D4021B5
:1014500053482A71EA602A616A61AA61AA60EA6156
:1014600085F8202005F030FA306804F0F7FA0B22F6
:1014700001233068C0E90D2304F05CF9002840F036
:10148000888000240222012340F2FF71C5E90B236A
:10149000444FDFF82081A9636C6202E001340B2C19
:1014A0000ED037F8023B41463068AC626B6304F003
:1014B0002BFA0028F2D00134FFF77AFD0B2CF0D183
:1014C00002234FF08042002001216B646FF06043E3
:1014D000C5E90F20344A3068C5E9121233492B653B
:1014E00004F012FA08B1FFF763FD0023022230680E
:1014F0001146009304F034FA002847D1306804F014
:1015000051FA00283FD100220121306804F0F8FB95
:10151000B0BB00220621306804F0F2FB68BB072252
:101520004FF4F051306804F0EBFB18BB0722802128
:10153000306804F0E5FBD0B900221D49306804F0A2
:10154000DFFB88B900224FF46021306804F0D8FB3B
:1015500028B902B0BDE8F081FFF72AFD75E702B0B7
:10156000BDE8F041FFF724BDFFF722FDEAE7FFF7F2
:101570001FFDE1E7FFF71CFDD8E7FFF719FDCEE7F8
:10158000FFF716FDC5E7FFF713FDBCE7FFF710FDFA
:10159000B4E7FFF70DFD74E7082B032000000320DC
:1015A00000040242F8EF0008FECA77003C00032066
:1015B0000040710024000320014B186804F04EBA6B
:1015C000082B0320082824D8DFE800F0080C1014AA
:1015D000171A1D2005001448FFF78CBE42F2107048
:1015E000FFF788BE44F62060FFF784BE4CF250300F
:1015F000FFF780BE0D48FFF77DBE0D48FFF77ABEAE
:101600000C48FFF777BE0C48FFF774BE0B48FFF796
:1016100071BE0B4AA0F51C53103B934201D9012027
:101620007047FFF767BE00BF40420F00A086010071
:1016300048E8010090D0030020A1070000350C000D
:10164000301B0F000346054A197800205161597874
:10165000D16199781162DB7893617047B8280320D3
:101660000246024B00209A61704700BFB828032051
:10167000034600B5074A93F801E093F800C082F8EA
:1016800010E005499B7881F800C0537400205DF894
:1016900004FB00BFB8280320E00403202DE9F04735
:1016A000054682B0C0680F4602F0CEFBAB68B3F1CE
:1016B000005F3ED00646824600F12409264C4FF0DA
:1016C000FF3120680BF086F80128F8D1DFF894800C
:1016D000D8F800000BF062FA484517D202251F4ADD
:1016E00013792B431371002320681A4619460AF018
:1016F00017FF00221A490223096808681146009260
:101700000CF04AFB284602B0BDE8F08729464FF0AE
:10171000FF332422D8F800000BF062FA054686B9A0
:101720004D450CD00D4A0125137943F00803137180
:10173000D9E74FF0000A4FF024095646BEE70025CE
:10174000D1E7524639464FF0FF33D8F800000BF08E
:1017500047FA0544E4E700BF682A0320000003209D
:10176000042B0320102A03202DE9F04700250C4606
:1017700082B0C9070646019516D4A20707D50221F3
:10178000314A137943F00103137133681965630714
:1017900038D4019B2BB14FF0E0234FF08052C3F8B7
:1017A000042D02B0BDE8F087DFF8A890DFF898803C
:1017B00040214A46254B04F0C9F9D8F81430D9F82D
:1017C0000C000133C8F8143002F03EFBDFF888A0AB
:1017D0000746DAF800000BF0E1F907F12803984218
:1017E00024D349462822DAF8000001AB0BF092FA24
:1017F000002FC2D03A46DAF80000144901AB0BF0D2
:1018000089FABAE70424104B11499A690868013231
:101810009A611A79002142F008021A71336800684F
:101820000DEB04021C650CF0D1FBB2E7D8F81830C0
:1018300029460133C8F81830054B01AA1B681868FF
:101840000CF0C4FB99E700BF00000320C02A03206E
:10185000002B0320982A0320142A0320002110B50E
:101860000A4A0B4C1268236982B01068013301AA3E
:10187000236101910CF0AAFB019B2BB14FF0E023F7
:101880004FF08052C3F8042D02B010BD042B03208A
:1018900000000320002110B50A4A0B4C1268E369CE
:1018A00082B01068013301AAE36101910CF08EFB54
:1018B000019B2BB14FF0E0234FF08052C3F8042D71
:1018C00002B010BD002B03200000032038B50C46E9
:1018D000104D294604F0D4F9A10303D5EB68A3B950
:1018E0000D4A1360620309D52B690B4A012B13794A
:1018F0000CBF43F0040303F0FB031371230303D570
:101900000122054B83F8202038BD4FF00042024BE6
:101910001A60E7E76C2A032000000320704700BF2D
:1019200091B14FF0FF3210B4084C014410F8013B64
:101930005340DBB254F82330884283EA1222F5D1B7
:10194000D0435DF8044B70470846704710F000081C
:101950000022014B1A607047102B0320704700BF14
:10196000024A136801331360704700BF102B032035
:10197000024A136801331360704700BF0C2B032029
:1019800000200BF0CDBD00BF00200BF0C9BD00BF93
:1019900000200BF0C5BD00BF00200BF0C1BD00BF93
:1019A0000022014B1A7070477600032000294AD0AC
:1019B00030B577280C4683B02DD8572800F28480A4
:1019C0001A2800F03981A0F124031F2B39D81F2BCE
:1019D00037D8DFE813F00D01360036003600360048
:1019E0003600360036003600360036000601360076
:1019F0003600360036003600360036003600360037
:101A0000FF0036003600360036003600360036005D
:101A100036003600F800B0F5EA7F12D2B0F5DC7F70
:101A200012D2B0F5A87F00F00D8100F2FA8098285C
:101A300000F09280A22804D11046FFF7FBFB844BF4
:101A4000D87503B030BD7047A0F5DC731B2BF8D8F8
:101A500001A151F823F000BF651B0008431A0008DC
:101A6000431A0008811B0008431A0008431A0008A3
:101A7000431A0008431A0008431A0008431A0008D2
:101A8000431A0008431A0008431A0008431A0008C2
:101A9000431A0008431A0008431A0008731B000881
:101AA000431A0008431A0008431A0008431A0008A2
:101AB000431A0008431A0008431A0008431A000892
:101AC000431A00088F1B0008A0F158031F2BB8D839
:101AD00001A151F823F000BF9D1B0008431A000824
:101AE000431A0008431A0008431A0008431A000862
:101AF000431A0008431A0008431A0008431A000852
:101B0000B91B0008431A0008431A0008431A0008CA
:101B1000431A0008431A0008431A0008431A000831
:101B2000431A0008431A0008431A0008AB1B0008B8
:101B3000431A0008431A0008431A0008431A000811
:101B4000431A0008431A0008431A0008431A000801
:101B5000431A0008FF1B00081046FFF769FB3C4BC7
:101B600098756EE721461046FFF7A8FB384B98831F
:101B700067E721461046FFF787FB354B588260E741
:101B800021461046FFF7B4FB314BD88359E7214675
:101B90001046FFF791FB2E4B188252E72146104664
:101BA000FFF7CCFA2A4B58814BE721461046FFF746
:101BB000F5FA274BD88144E721461046FFF7D6FABD
:101BC000234B18813DE721461046FFF79FFA204B33
:101BD000988236E721461046FFF780FA1C4B988022
:101BE0002FE721461046FFF751FA194BD88028E716
:101BF00021461046FFF732FA154B188021E721469F
:101C000010460192FFF7E4FA114D012C28733FF4BE
:101C100018AF019A21461046FFF7F0FA85F8200028
:101C20000FE740F2A71398427FF40BAF1046FFF77F
:101C300013FB074B588304E71046FFF7E7F9044B03
:101C40005880FEE61046FFF73BFB014B1883F8E691
:101C5000540003202D4B1B789BBB2DE9F0432C4DEA
:101C60000646DFF8B08083B005F1140701E0AF420B
:101C700024D055F8044BE36E626EF31A9342F6D308
:101C8000B4F9723004EBE300002B00F124002BDAEE
:101C9000B4F9741004F1240900294FEAE10111DAC2
:101CA000D8F80030494623612046FFF7F7FCA36EC1
:101CB000AF4203F10103E666A366DAD103B0BDE8E3
:101CC000F08370474846FFF72BFE0190B4F974008B
:101CD00004220028B8BF0730C010243001A904FA3C
:101CE00080F002F0B9F8DBE7B4F8683001A95BBA1C
:101CF0000222ADF8043002F0AFF8B4F9741004F128
:101D0000240900294FEAE101CADBDBE77600032062
:101D100010F400080000032038B50446084B094DB4
:101D20001A60094B049A29601A6000F04DF82046A9
:101D300001F058F8204602F0A7F8002038BD00BF97
:101D4000182B03201C2B0320142B032038B5054629
:101D500001F068F80446284602F0A2F82043C0B219
:101D600038BD00BF70B5154B82B01B6804460D46E8
:101D7000164601F08DF801280AD0114B324629464B
:101D800020461B6802F0B6F801280BD002B070BDE7
:101D900000220C4B11461B681868022300920BF0BE
:101DA000FBFFEAE700220749022309680868114699
:101DB00000920BF0F1FF02B070BD00BF182B0320A2
:101DC000142B03201C2B032000B583B0102001A985
:101DD00000F0A2F810B903B05DF804FB0021102058
:101DE00000F082F8003818BF012003B05DF804FB52
:101DF00000B583B0102001A900F08EF828B9014683
:101E0000019830B903B05DF804FB012003B05DF820
:101E100004FB102000F068F8003818BF012003B060
:101E20005DF804FB70B5002682B004460D46102014
:101E300001A9019600F070F810B9019BA34202D8E5
:101E4000012002B070BD04F11100294680B200F0FB
:101E500063F8801B18BF012002B070BD002210B5CE
:101E6000114B82B01B78019213B9184602B010BD15
:101E7000044601A9102000F04FF840B90198113034
:101E8000FF2804D8214680B200F02EF818B10123B3
:101E9000184602B010BD01991020013100F024F85D
:101EA000031E18BF0123E0E777000320014608B5B1
:101EB000102000F031F8003818BF012008BD00BF25
:101EC00010B504F06FF8002009F0C4F9044618B901
:101ED00004F07CF8204610BD002008F08DFD04F0D1
:101EE00075F8204610BD00BF38B504460D4604F015
:101EF00059F82046294609F067FCC305044603D477
:101F000004F064F8204638BD08F050FE0443A4B243
:101F100004F05CF8204638BD08F0A8BFF8B54FF4CF
:101F2000805600240F46054683190470C0F802400D
:101F3000047384601C74C3F812409C61DC8100F55A
:101F4000005332462146C3E907445F620D300CF06E
:101F500043FEA81932462146BDE8F8401C300CF07B
:101F60003BBE00BFF0B5044683B0836031B3157843
:101F700094462B09032B21D8DFE803F0253A6002B1
:101F800005F00F0500F50056012986F8215000F0F4
:101F9000AB809CF80130022986F8223000F0A7803F
:101FA0009CF8023086F82330002D00F0AC80012D23
:101FB00000F09F80032204F580531A74237B012BC9
:101FC00073D003B0F0BD03780BB1002303706B1E18
:101FD000062BF3D801398D42F0D82A460CF10101C5
:101FE00004F10D0001F038FF022365802370E5E75E
:101FF00003780BB1002303700729DFD99CF8003068
:102000009CF801201B0203F470631343072BA38089
:10201000D4DD06220CF1020104F10D0001F01CFFD9
:1020200001220021062004F5005622706080B1775D
:1020300004F58051CA813023F27F3CE00378012B04
:10204000BCD100F58057FA8905F00F0502F00F03A7
:102050009D4246D14088A3881B1A9BB2072B5BD9AF
:102060000829ABD10132FA814B1EDDB20D302A4670
:102070000CF10101204401F0EFFE6388A2882B449B
:102080009BB29A4263804FD004F50056F27F002A3B
:1020900094D0FB89013B93FBF2F102FB1133002B3F
:1020A0008CD1B37F43F0300305E004F50056B37FD5
:1020B000F27F43F03003002196F8200021738DF861
:1020C00002000320746A8DF800308DF8012001F0C1
:1020D000C1FE03466946706AE360FFF7DFFA03B0AA
:1020E000F0BD0023037069E7002386F82230002347
:1020F00058E704F58052137C013B012B3FF65EAF9D
:10210000022313745AE704F580531A7C022A7FF4E1
:1021100055AF01221A7451E78B42BFF44FAF013221
:10212000072BFA81A1D19FE70223237046E700BF66
:102130002DE9F84300F58056347C012C03D00024AF
:102140002046BDE8F88300F500581D4698F8233076
:102150000F46F12B28BF0123B1698446691A9942C1
:10216000EDD3718AB38A99B9072B50D810463146FE
:1021700000F8013BB28A1C3101F06EFE0322B38AE3
:1021800001333B70B38A7382A8F81C4032743AE082
:1021900010465B1A1FFA83F9B8F81C30B9F1070F23
:1021A00003F00F0343F0200300F8013B718A01F5AF
:1021B000805101F11C01614414D9072201F04CFE49
:1021C00008233B70738A0733738298F82220B8F88B
:1021D0001C30AAB1B3FBF2F102FB113282B9022228
:1021E00032740DE04A4601F037FE032309F1010283
:1021F0003A703374738A9944B8F81C30A6F8129078
:102200000133A8F81C302046B561BDE8F883C3F35C
:10221000032343F010031370B38A00F58051537009
:10222000901C1C31062201F017FE082306223B7089
:1022300002237282A8F81C403374E4E70378012B70
:1022400006D18268034B891A9942C4BF00230370E8
:1022500000207047400D030030B500F5805514464E
:102260002A7C0B46013A012A93B006D8AA698A1A39
:1022700012498A4284BF03222A7402AA0DF107017F
:10228000FFF756FF50B92B7C032B02D0002013B070
:1022900030BD002301202B7413B030BD9DF8070022
:1022A00001F0D8FDE06002E0012001F0E1FD2046F0
:1022B00002A9FFF7F3F90028F6D1E4E7400D030087
:1022C00000F5805CBCF81430B3F5805F0FD800B522
:1022D00000224FF0010E00F50053ACF812209A8353
:1022E0008CF810E01046CCF818105DF804FB0120C3
:1022F000704700BF10B57F2484464FF0110E0321B4
:1023000014709CF800C0002082F802E082F801C03E
:10231000198010BD814204D900F17840B0F5802FBA
:1023200001D30020704701F178410139B1F5802FC8
:102330002CBF002001207047814208D9B0F1005F16
:1023400005D3044881428CBF002001207047002043
:10235000704700BF00000420814211D9B0F1005F36
:1023600010D21A4B98422AD8194B984205D91948CD
:1023700081428CBF002001207047B0F1006F0FD266
:1023800000207047144B994201D801207047134B2D
:102390009842F5D9124881428CBF00200120704735
:1023A000104B9942ECD8104BB3F8E030B3F5007FF6
:1023B000EBD00E4881428CBF0020012070470C48B2
:1023C00081428CBF00200120704700BFFFFFF90B46
:1023D000FFFFF80B0080F90B000004203F200240B3
:1023E00040210240000008080005FA0B0000040824
:1023F0000002FA0B00B58BB001A803F0CBFF0598E3
:10240000AA3818BF01200BB05DF804FB00B58BB0F3
:1024100072B601A803F0BEFF04214FF40052079BDF
:10242000019143F08063CDE9062303F0BBFD20B1A9
:1024300062B601200BB05DF804FB03F0D3FD002869
:10244000F6D101A803F084FE10B903F0EDFDEFE72B
:1024500003F0DCFD03F0BAFDEAE700BF10B58AB077
:1024600003F0A0FD044603F0BDFD044301A803F002
:1024700091FF04214FF48072079BE4B283F4801330
:1024800003F48013CDE90623019134B103F0BEFDBE
:1024900003F09CFD01200AB010BD01A803F058FE16
:1024A0000028F3D103F0C0FD044603F0AFFD044360
:1024B00003F08CFDE4B22043C0B2003818BF012005
:1024C0000AB010BD30B58BB003F06CFD044601A816
:1024D00003F060FF002380220798022110F4801F80
:1024E000CDE9033200930CBF02230123019101A81F
:1024F0006946029303F0E4FF054603F067FD2843B5
:102500002043C0B2003818BF01200BB030BD00BF5F
:1025100070B503F047FD05460F4C104ED4E900237B
:10252000B3F1FF3F08BFB2F1FF3F04F5802107D0B0
:10253000012003F0B1FD002818BF45F00105EDB200
:102540000834B442EAD103F041FD2843C0B2003858
:1025500018BF012070BD00BF00E0030800000408A0
:10256000002330B58FB0009303F01CFD0223044616
:1025700005A8019303F00EFF0B9B042213F4801FA8
:102580004FF07C0014BF02230123694603900DEB3A
:1025900002000492029303F093FF054603F016FD38
:1025A000054344EA0500C0B2003818BF01200FB04F
:1025B00030BD00BF014608B5012003F06DFD0038B5
:1025C00018BF012008BD00BF0022014B1A607047F0
:1025D000202B03203F4A30B43F4C918815683F4B75
:1025E0002268B1F5506F1D60A0EB02020DD30121EE
:1025F000642A197116D92060002593E80700384C29
:102600001D7203C4228030BC7047B1F5406F1DD2EB
:10261000B1F5306F2AD2B1F5206F07D30521642AB6
:10262000197131D800251D7230BC7047B1F5E06FCB
:1026300036D2B1F5807F3BD90025642A1D71F1D9CE
:10264000274A20601279012AD6D1D6E70321642ACD
:102650001971E7D9224A20601279012ACCD15A791E
:10266000062A01D8013AD2B25A71C5E70421642A78
:102670001971D7D91A4A20601279012ABCD19A79E6
:1026800082F00102DA80B7E7154A20601279012A48
:10269000B2D1DA8882F4807222F0FF02DA80ABE7EE
:1026A0000621642A4FF001051971BCD92060A4E706
:1026B0000221642A1971B5D9094A20601279012AC8
:1026C0009AD15A79911FC9B2F82984BF0132D2B286
:1026D0005A7191E7242B0320202B0320780003203C
:1026E000840003200022014B1A7070472A2B03201C
:1026F000154B164A1B781188B2F802C0507963B99D
:10270000134B1980A3F804C01873107A1179D2887A
:10271000987583F820105A8370471F290C4B08D9ED
:102720001980A3F804C00028EED1D989C9B2197361
:10273000EBE7BCF11F0FF3D8598889B21980D9880B
:1027400089B29980EFE700BF2A2B0320780003208D
:1027500054000320014B1860704700BF2C2B03204E
:10276000704700BF00B5054B83B0186801A906F09B
:1027700041FE019803B05DF804FB00BF2C2B032041
:102780000D4B02781B68403201291A7010D900B530
:10279000A1F1020E10FA8EFE024610F801CF72452A
:1027A00003F801CFF8D1054B1B6819805DF804FBD5
:1027B000024B1B6819807047542B0320502B0320B9
:1027C00070B50129044682B00BD9457805F07F0524
:1027D000012D14D0022D02D07F20122503E00629FE
:1027E0002CD07F2013250321344B354A1B681268F7
:1027F000187020789D705870118002B070BD40F242
:102800006713ADF80030FFF7ADFF2E4A2E4B424064
:10281000C3E903021D7794F9013000BA002BCDF80B
:102820000200EADB0621254B254A1B680098BDF80B
:102830000440126818609C801180DEE7224BD0F8BB
:1028400002009A69042A02D97F203625CBE75E6808
:102850005969711A092902D87F203725C3E7197FE2
:10286000012902D07F202425BDE7196900BA8142E1
:1028700015D04FF0000E4FF07F0C352503200132AC
:102880009A610E4A0E4912685E6183F81CE082F874
:1028900000C023780968537095700880ADE71D77F4
:1028A00094F90130002BA8DB40F26721034A044B66
:1028B00012681B6811801D809FE700BF542B032006
:1028C000502B032078563412302B0320022910B5E8
:1028D00010D04FF07F0E4FF0130C03210F4B104A16
:1028E0001B68126883F800E0007883F802C0587013
:1028F000118010BD437833B1802BFAD04FF07F0E9A
:102900004FF0120CE9E7054A037812684033137060
:10291000034C407823685070198010BD542B03205D
:10292000502B0320022930B510D04FF07F0E4FF00E
:10293000130C0321424B434A1B68126883F800E0E2
:10294000007883F802C05870118030BD437803F0DE
:102950007F03022B2FD0032B1BD0012B3ED1002253
:10296000394C3A4D23703A4B2A705A73C4E903220A
:10297000C4E90522227790F901304278002BE4DB8C
:1029800050242F4B2F481B6800685A701C70018020
:1029900030BD304A928A92B2B2F5805F47D37F252C
:1029A0008824274A274912680968157000789470AE
:1029B00050700B8030BD274A928A92B2B2F5805F88
:1029C0001BD37F25222403211D4B1E4A1B6812683E
:1029D0001D7000789C705870118030BD4FF07F0CD6
:1029E00012240321164B174A1B68126883F800C093
:1029F00000789C705870118030BD00221249144C30
:102A0000C1E90322C1E90522104D62730A772A70D9
:102A100090F901200B70002A417896DB5024084A77
:102A200008481268006851701470038030BD00229D
:102A3000054C074D2370054B6A731A7096E700BF6B
:102A4000542B0320502B0320302B0320582B032022
:102A50005C2B032054000320204B214A022910B58F
:102A60001B6812680CD04FF07F0E4FF0130C03213F
:102A700083F800E0007883F802C05870118010BD20
:102A8000184C94F800C0BCF1010F11D090F801C0AF
:102A90000CF07F0CBCF1010F12D04FF07F0C122410
:102AA000032183F800C000789C705870118010BD1D
:102AB0007F2103241970007899705870148010BD1C
:102AC000047840341C7044785C70118090F90130B7
:102AD000002BD4DABDE8104002F0B6BB542B032023
:102AE000502B0320302B0320022910B510D04FF0BB
:102AF0007F0E4FF0130C0321184B194A1B68126804
:102B000083F800E0007883F802C05870118010BD8F
:102B1000427802F07F03012B13D0022B04D04FF038
:102B20007F0E4FF0120CE6E71206F0D40B49027844
:102B3000096840320A700A4C407822684870138055
:102B400010BD1406E3D4054A0378126840331370AD
:102B5000034C407823685070198010BD542B03201B
:102B6000502B0320012970B51FD9427802F07F0352
:102B7000012B10D0032B1CD04FF07F0C122403210B
:102B8000394B3A4A1B68126883F800C000789C7081
:102B90005870118070BD02292AD08378103B032B16
:102BA00051D8DFE803F04C4A444E4FF07F0C132419
:102BB000E5E72F4C217869B1120626D402212A4A72
:102BC0000378126840331370284C407823685070A3
:102BD000198070BD4FF07F0C2224234A23491268CC
:102BE000096882F800C00078947050700B8070BD46
:102BF0007F25132403211C4B1C4A1B6812681D707F
:102C000000789C705870118070BD0123194D2E788A
:102C10002B70FEF7D1FC4FF47A7009F00FFBF6B27F
:102C20002078FEF7CFFCFEF703FC2E7070BD362334
:102C30000F490B701306C1D570BD3523F8E7342357
:102C4000F6E73823F4E77F22002631240321064BE0
:102C5000074D1B682E701A70044A0078126858706D
:102C60009C70118070BD00BF542B0320502B03209B
:102C7000582B03207600032030B54378044685B0F6
:102C800013B98378442B0FD07F204FF0310C0321F0
:102C9000354B364A1B6812681870207883F802C0DA
:102CA0005870118005B030BD0B2903D07F204FF044
:102CB000130CECE72E4B1978022903D04FF07F0C50
:102CC0007F20E4E71B7F022B11D12A4D6B7B13F091
:102CD000FB030FD07F2024250321234B234A1B68AD
:102CE0001268187020789D7058701180DAE74FF0E4
:102CF000330CE5E7D0F80300AB6001232B73D4F865
:102D0000073000BA1BBA1918019228606B60FFF7F0
:102D100001FB28B3154B144918686B68096813F058
:102D2000070F019A0BD07F234FF0700C0B70032319
:102D300094F800E081F802C081F801E00380237874
:102D4000202440338DF80C304FF20F036A730422B5
:102D50008DF80D40ADF80E30039B0B600280A1E7AB
:102D60007F203125B8E700BF542B0320502B0320D0
:102D7000302B03205C2B0320042910B504460ED011
:102D80007F204FF0130C0321144B154A1B68126867
:102D90001870207883F802C05870118010BD4378F5
:102DA000FF2B03D07F204FF0310CECE78378FF2B13
:102DB000F8D1C378FF2BF5D1FFF71AF818B17F20AF
:102DC0004FF0720CDFE7012104482378044A0068C1
:102DD000126840330370118010BD00BF542B0320D4
:102DE000502B032038B500240122094B09490A4D14
:102DF0004C73586009490A48C3E90344C3E90544D0
:102E00002C701A701C77FFF789F8204638BD00BF78
:102E1000302B03205C2B0320582B03209000032031
:102E2000549F0120114B01461A78032A02D0104802
:102E3000FFF704BA41F288305A688A1A8242F6D9FA
:102E400000224FF0010C10B40A480B4C4273227060
:102E500083F800C01A7706485DF8044BC3E90322E3
:102E6000C3E905225960FFF7E9B900BF302B032001
:102E7000549F01205C2B0320582B03200146024A5B
:102E80000248FFF7E9B900BFB4000320549F0120B6
:102E900040F2E27C2DE9F04100260446006882B051
:102EA00060450F4698468DF80560ADF8066007D07E
:102EB00040F2DF7398423BD0002002B0BDE8F081C1
:102EC000E068154600F0C0FF3A4C01462B4620460C
:102ED0003A46FFF747F82578022DEDD14FF0FF3342
:102EE00001220DF10501D8F800008DF8056009F008
:102EF00077FE2A464FF0FF330546A11CD8F80000A4
:102F000009F06EFE02464FF0FF331544D8F800007A
:102F1000628804F10D0109F063FE63880544033300
:102F2000AB4201D0FEF744F8002323700120C4E730
:102F3000E06800F089FF0028BED03D78002DBBD0AE
:102F400005F0080353EA1513B6D1E06800F07CFFE2
:102F5000431E9D42B0D8012217F8014B4FF0FF33BA
:102F60000DF1050104F00F04D8F800008DF80520DC
:102F7000ADF8064009F034FE4FF0FF33022204465C
:102F80000DF10601D8F8000009F02AFE02464FF0C4
:102F9000FF3314443946D8F80000BDF8062009F084
:102FA0001FFEBDF8063004440333A342BED0FDF734
:102FB000FFFFBBE7549F01202DE9F04F00241D4681
:102FC0008FB0189B9B4F1C809B4E0C469B49914693
:102FD000336048603D60002A00F0828022780F2A2A
:102FE00040F28D80103A772A00F28680DFE812F0F6
:102FF0009200990084008400A00084008400840072
:103000008400A7008400840084008400840084007D
:1030100084008400CD00D300840084008400080173
:103020008400840084008400840084000F018400F4
:1030300084003301840084007A01D601DC01280178
:103040008400840084008400840094018D01840045
:103050008400840084008400840084008400840050
:103060008400840084008400840084008400840040
:103070008400840084008400840084008400840030
:103080008400840084008400840084008400840020
:103090008400840084008400840084008400840010
:1030A0008400840084008400840084008400840000
:1030B00084008400840084008400840084008400F0
:1030C00084008400840084008400840084008400E0
:1030D00084008400840084008F00F10184000101D9
:1030E0007F2122701320032229702178A870697033
:1030F0001A800FB0BDE8F08F7F211120F3E72A4638
:10310000494620460FB0BDE8F04FFFF7F3B87F21E6
:103110001220E8E7494620460FB0BDE8F04FFFF720
:1031200001BC494620460FB0BDE8F04FFFF794BC04
:10313000494620460FB0BDE8F04FFFF71DBEB9F17C
:10314000020F26D959222A7004226178AA70697068
:10315000627802F07F02012A00F03683022A00F032
:1031600061837F2212212A7003222078A97068705F
:103170001A8094F90130002BBBDA3B681B787F2B57
:10318000B7D0002233681A80B3E7B9F1030F00F01B
:1031900067827F21A6E7B9F1010FFAD0627802F0C9
:1031A0000F000428B3D102F0F0004028AFD809780E
:1031B000012937D01209911D8945EAD1D4F802C0FE
:1031C000002A00F0CD844FF00008013AD200601DC3
:1031D00010F8011F9140083A12F1080F48EA01085F
:1031E000F6D140F6FE72904540F2BB847F2131203B
:1031F00079E7494620460FB0BDE8F04FFFF7B2BC73
:10320000494620460FB0BDE8F04FFFF7D9BAB9F1F3
:10321000020FBED991F80080B4F80120B8F1020F76
:1032200000F0DA827F2203212A702078AA70687069
:1032300019805EE7542B0320502B0320302B0320F2
:10324000B9F1010FA5D1B04A517B032900F03683B3
:103250007F21242047E7B9F1030F9AD994F901009F
:1032600062780028BCBF02F07F0262706288B8BF3B
:103270004FF0010852BA92B2A8BF4FF00008B2F561
:10328000097F80F22483B2F5007FC0F2A980A2F505
:103290000072232A00F2A480DFE812F0ED00DD00C6
:1032A0004C013C0133011401C5017B01A1015D0109
:1032B000A200A200A200A200A200A20089016A014D
:1032C000A200A200A200A200A200A200A200A200EE
:1032D000A200A200A200A200A200A2000D0106010D
:1032E000C400B700894AB2F8E020B2F5007F7FF44D
:1032F00003AFB9F1020F7FF64CAF012249462046D9
:103300000FB0BDE8F04FFFF7B7BC494620460FB0FD
:10331000BDE8F04FFFF7DABAB9F1010F3FF439AF6A
:10332000627802F00F0004287FF4F1AE02F0F000A2
:1033300040283FF6ECAE1209501D4845BFF629AFB4
:10334000002A00F0FF834FF0000802F1FF3C4FEA33
:10335000CC0C04F1050E1EF8010F00FA0CF0ACF1D4
:10336000080C48EA00001CF1080F1FFA80F8F2D19F
:1033700002F1060A0AEB080291457FF40AAF0878C9
:10338000D4F80220022800F010847F227F2003213D
:1033900028702078AA7068701980AAE6B9F1020F27
:1033A0007FF6F7AE0222A9E7B9F1010F3FF4F1AEC3
:1033B000DFF8548198F80D20012A00F0EC81022AF0
:1033C0007FF446AFB9F1020F00F0A3827F21712094
:1033D00089E6494620460FB0BDE8F04FFFF784BBB1
:1033E0007F222A7022786A703122AA7003221A8002
:1033F0003368B8F1000F3FF47CAE3A6812787F2A48
:103400003FF477AE00221A8073E6B9F1040F00F0A2
:10341000EF837F222A7022786A701322AA70032217
:103420001A80E5E7B9F1070FF3D1201DFEF720F967
:10343000FDF7FEFF0A2008F001FF042122783B6817
:1034400040321A7062785A70A2789A70E278DA7014
:1034500033681980CCE7FFF783F8002800F0748305
:103460007F22722003213B681A7022785A703268DA
:1034700098701180BCE7B9F1040FCAD16278012AB3
:1034800000F01584022A40F0A1800021204A11702A
:10349000227840322A7062786A70A278AA70E27844
:1034A000EA7004221A80A3E7B9F1050FB1D120799F
:1034B000FEF7D6F8BCE7B9F1070FAAD1201DFEF739
:1034C000C1F8B5E7B9F1060FA3D140F6FB71A288A8
:1034D00052BA92B28A4283D8712128462970617803
:1034E0006970A178A970E178141F00F8031F00210A
:1034F00002E000F8011F01318C42FADC04321A802C
:1035000076E77122C6E700BF5C2B03200005FA0BAB
:10351000760003207122611C2A70A9F1020211FABF
:1035200082F214F8011FA24205F8011FF9D1A3F895
:1035300000905DE7FEF7ECFF002891D1012322788F
:10354000396840320A70E25CCA5401339AB291453C
:10355000F9D83368EBE70A7F022A00F01F837F2245
:103560002A7022786A703322AA7003221A803FE7F9
:10357000B9F1040F7FF44DAF0A78022A00F05383AB
:103580007F227F2129702178AA70032269701A8016
:103590002EE7B9F1040F7FF43CAF6278012A00F006
:1035A0007A83022A12D10021B74A117070E7B9F16B
:1035B000040F7FF42EAF0A78022AE1D10A7F022A93
:1035C00040F064836278012A00F04C837F222A70E5
:1035D00022786A701222AA7003221A8008E7B9F1D1
:1035E000080F7FF416AF6278012AEFD1E279042A3E
:1035F0007FF4F6AEA0792379000240EA0360637994
:1036000040EA034040F00400FEF728FC00287FF465
:1036100027AF04212046FFF7B3F833681A88002A41
:103620003FF467ADE5E6B9F10B0F7FF6F2AE6568E2
:10363000D4F808902DBA99FA89F9284609EB0501C2
:10364000FEF78AFE002840F036837F2231200321D6
:103650003B681A7022785A70326898701180C7E6F9
:1036600000236D46B4F80100009340BA80B2A0F583
:10367000007CBCF5007FC5E90133C5E9033394F84C
:1036800001E0A278C0F00A81A0F5714084380C28CE
:1036900008D8DFE800F07007665E070707075607DF
:1036A000070712007F2031253B683268032118701C
:1036B00020789D70587011801BE529460120FEF787
:1036C0002BFC01A980460220FEF726FC02A948EA4D
:1036D00000080320FEF720FC1FFA88F848EA0008DB
:1036E00003A90420FEF718FC1FFA88F848EA00082E
:1036F00004A90520FEF710FC1FFA88F848EA000824
:10370000294611221FFA88F50DF1170000F0A4FBDD
:10371000002DC7D114252378A27840338DF81430BA
:1037200063788DF815303B688DF81620E81805AAE7
:1037300012F8011B03F8011B8342F9D133681D8085
:10374000D7E40C2251490DF1170000F085FB0F253D
:10375000E1E704224E490DF1170000F07DFB07253B
:10376000D9E70B7804258DF8173062238DF815E022
:103770008DF81430D7E70C2246490DF1170000F000
:103780006BFB20230922444909A88DF82330192511
:1037900000F062FBBFE7A9F102091FFA89FA19F0EC
:1037A00007097FF413AED8F80820D8F80410524463
:1037B0008A423FF60BAE98F80C1062788A4200F00D
:1037C0006A817F2173208EE4B9F1030F00F0F48049
:1037D0007F2213212A70C7E44FF2841150BA80B2BD
:1037E00020F0080C8C453FF401AD49F2F1018A420A
:1037F00000F00881B9F1070F7FF4CBACD4F80310C7
:1038000009BAFEF771FB03463A683168002B00F0F5
:1038100032817F20722503231070207895705070BC
:103820000B8066E4B9F1030FD2D1002305A8EB7039
:10383000FEF73CFB8046002860D1059B002B00F082
:103840007B8182466D4614E09DF803203B6803F8B7
:103850000920BDF8022003F82A20009A4B44120ADE
:103860009A70009ADA70059B09F10409534540F2F9
:10387000F38050462946FEF7D5FA0AF1010A0028DE
:10388000E2D04FF00108EEE72A2B03209005FA0B57
:1038900070EE000858EE000864EE00082946FEF7B6
:1038A0003BFB002868D07F2131203B6832681970CB
:1038B000217898705970A2F800901AE404234946C0
:1038C000204653730FB0BDE8F04FFEF759BFB2F575
:1038D0007F4F00F082804FF6017082427FF480AD0E
:1038E000B9F1040F7FF495AD6278012A7FF46EAED2
:1038F0000A78022A00F0FA817E2242E67F223B68A3
:103900001A70722221789A7059703368A3F8009067
:103910002FE498F80C1062788A427FF452AF01329B
:1039200088F80C20227840322A706178002205F84D
:10393000011FD8F808100EE0D8F800000132415CF1
:10394000B2F57F6F05F8011FD8F8081001F10101E9
:10395000C8F8081004D0D8F804008842ECD892B215
:10396000D8E90110023288421A80FFF4C2AB032367
:1039700088F80D30FFF7BDBB2378627840338DF8AF
:103980001430A37829468DF815200DF11700042274
:103990008DF8163000F060FA3A680DF11301531EED
:1039A000063211F8010F03F8010F9A42F9D10722EC
:1039B00033681A80FFF79DBB002305A8EB70FEF764
:1039C00075FA00289AD1059B3A6853711B0A137146
:1039D000062233681A80FFF7CCBBB9F1040F7FF4DD
:1039E00018AD6278012A7FF4F1AD0A78022A83D1FA
:1039F0000A7F022A40F04A81FEF764FD00287FF426
:103A00002FAD06E6B9F1140F7FF4C3ABD4F8031061
:103A10000120FEF769FAD4F8071005464046FEF784
:103A200063FA0346D4F80B1003201D43FEF75CFA3B
:103A30000346D4F80F100420ADB21D43FEF754FA2C
:103A40000346E17C0520ADB21D43FEF74DFAADB251
:103A500045EA00039BB2D7E63268B8F1000F6BD09D
:103A60007F213B68722019700321257898705D7062
:103A70001180FFF77EBB2378607840338DF81430D7
:103A800003238DF81500BDF81450A07815809070B0
:103A90000B80FFF72EBB013288F80C2002F082FA6F
:103AA000BAF1000F00F0FB804D46A146AB4699F8F5
:103AB000043099F805201B0403EB026399F80320F6
:103AC00099F8081003EB022399F80920090401EB87
:103AD000026199F80220D8F8080013441BEB030296
:103AE00099F8073009F1080901EB0323D8F8001011
:103AF000084419F8021C00F580200B44FEF75AFD1B
:103B000040EA0503DDB2D8F808300833C8F80830B9
:103B1000A9EB04035345CAD302F058FAD8E901329D
:103B20009A4202D3032388F80D303B683268002D97
:103B30006ED07F207225B9E532689B000333138075
:103B4000FFF717BB904613E401232278396840320F
:103B50000A70E25CCA5401339AB29145F9D8F8E48C
:103B600090469CFA8CF5284608EB0501FEF7F4FB1D
:103B700000283FF497AD23783A6840331370AD1AAC
:103B800002EB080302E0A95C02F8011F9A42FAD195
:103B9000326808F101031380FFF7ABBABFF34F8F10
:103BA000BFF36F8F631D984747E4097F022956D101
:103BB00015BA284605EB0801FEF7BEFB00283FF4C6
:103BC00071ADB8F1020F46D0B8F1040F3FD0B8F193
:103BD000080F35D06FF00603E21D1B1B02E012F840
:103BE000011F297099184145F9D35146204669E6CD
:103BF000FDF71EFC0A2008F021FB22783B684032CA
:103C00001A7062785A70A2789A70E278DA70A0E43A
:103C1000022023783A686478316840331370547016
:103C20000880FFF766BA0A7F022A2FD16278012A3C
:103C30007FF4CCACFEF712FC00287FF411ACE8E472
:103C4000A168E0680BBA02BAC5E90023CDE7A36812
:103C50001BBA2B60C9E723895BBA2B80C5E73322E7
:103C6000FFF794BBFEF7C6FB90B9FEF7CFFB3268B7
:103C700000283FF4CEAC7F20722503213B681870EA
:103C800020789D7058701180FFF7B2BB332278E422
:103C90000BF092F8EBE71E490A70FFF7F9BB02F050
:103CA00095F9D8E901329A42B2D355463AE7194913
:103CB0000A70FFF7EDBB49462846FDF731FE08259F
:103CC00003462278396840320A7062784A70A278D6
:103CD0008A70E278C871CA70000E32680871180CD8
:103CE000EB4048718B711580FFF782BB0A7F022A77
:103CF000CCD1094A527B042A9CD07F222A70227898
:103D00006A702222AA7003221A80FFF771BB00BFDB
:103D10002A2B0320760003205C2B032070B40024A0
:103D20002D4D039E2B602D4D34802E602C4D8C46E6
:103D30001C4611466860B2B19CF800200F2A1FD9BA
:103D4000272A23D8103A172A2AD8DFE802F0383475
:103D500029293029292929292929292929292929CC
:103D600029292929292C8CF800107F2213210323CB
:103D700022709CF80020A1706270338070BC704784
:103D80003346224670BC6046FEF7B4BA852A1ED080
:103D9000872A18D03E2A03D170BC6046FEF796BD34
:103DA0007F221121E3E7604670BCFEF709BD604643
:103DB00070BCFEF7E1BF604670BCFEF74DBE6046CA
:103DC00070BCFEF7AFBD604670BCFEF7CBBE604670
:103DD00070BCFEF789BE00BF542B0320502B03207C
:103DE000302B032038B5049A12884AB1197851292A
:103DF00007D0C72904D1012A02D05B78032B08D051
:103E000038BD4FF4FA7008F019FABDE8384001F0F7
:103E10001BBA4FF4FA7008F011FA0123084C257808
:103E20002370FDF7C9FB4FF47A7008F007FA054BD1
:103E3000EDB21878FDF7C6FBFDF7FAFA257038BD2C
:103E400076000320582B0320014BC0B2185C70474A
:103E500024F40008704700BF4AB1013A4B1E0138F4
:103E6000114413F8012F8B4200F8012FF9D170474C
:103E70004FF47A7202FB00F0024BA3FB0030800982
:103E800008F0DCB9D34D621000220146034B104606
:103E9000C3E903221A7059601A817047742B0320FA
:103EA000084B1A785AB14EF660215A68821A8A4233
:103EB00005D90022C3E9032258601A701A81002034
:103EC000704700BF742B032038B5D0B20C46FFF703
:103ED000C1FF074DE86002E00A2008F0AFF9214673
:103EE0002846FDF7DBFB0028F6D1012038BD00BFD6
:103EF0003003032040F2545230B51C46036883B0AF
:103F0000934202D0002003B030BDC0680D46FFF7D9
:103F10009BFFADF806000028F4D04FF0FF330222DB
:103F200020680DF1060108F05BFE84464FF0FF3378
:103F300020682946BDF80620644608F051FEBDF809
:103F4000063004440233A34201D10120DBE7FDF730
:103F50002FF8FAE72DE9F041069EDFF85481504F23
:103F6000504D3E606860C8F8003042B10C46FF21F9
:103F700019702178FF290ED02878012801D0BDE8DA
:103F8000F081F53909291BD8DFE801F0203C1A1A25
:103F90001A2B1A5A4452012A01D06278DAB9002247
:103FA00001214FF4807408203F4FC5E903222A8184
:103FB0002970C3F80170A3F80540D9713080DEE79D
:103FC00042F2FE01022219803280D8E7012A1BD07A
:103FD000617807293FD942F2FE21022219803280FE
:103FE000CDE7012A10D06278002AF4D14FF080602A
:103FF0000821A3F80520DA712C4AC3F801003180AA
:104000002A61BCE7082A20D042F2FE110222198060
:104010003280B4E7002159702A7A0620013A18BF8D
:1040200001221201D970197159719A703080A6E776
:1040300000230122C5E903332B702B8132809EE7D8
:10404000FE2102221980328099E7012263681BBA9F
:104050002B61328093E728690144FEF77DF901283E
:1040600008D042F2FE200222D8F800103B680880F7
:104070001A8084E7FF23D8F800000370617859B1F3
:1040800000232A6912780133DBB2C2542A69013253
:104090002A6161789942F5D83B68013119806EE751
:1040A0006C2B0320742B03200000080834F4000854
:1040B000702B032010B50F4B82B0186E002240F019
:1040C000010018661C6E072104F001040094009C96
:1040D0009C6D6FF0010044F080549C659B6D03F073
:1040E00080530193019B01F053F802B0BDE81040EA
:1040F00003F018BF0010024070B500210446ACB0B8
:10410000942207A8CDE90211CDE9041106910AF025
:1041100063FD324B22689A4201D02CB070BD03235C
:104120004FF480424FF08051CDE9072309931822C4
:1041300011232791CDE90A23022108224FF0807331
:1041400007A8CDE90D230C9104F0C8FD00283BD150
:10415000234B0026DA6C02A942F40052DA64DA6CCE
:10416000204D02F400520092009ADA6C42F00102F3
:10417000DA64DB6C322203F001030193032301981C
:104180001948CDE90223049602F0F0F980224FF499
:1041900080730521C5E903626B614FF480622023BF
:1041A000C5E9011611492846C5E906232E62296092
:1041B00001F0FEF870B910210A4801F0ABFA30B9ED
:1041C0002565AC622CB070BDFCF7F2FEC0E7FCF7D1
:1041D000EFFEF5E7FCF7ECFEEDE700BF00800242E2
:1041E000001002404029032000000242080402405F
:1041F000094B02689A4200D07047A3F500539A6CAD
:1042000082B042F480529A649B6C03F48053019311
:10421000019B02B0704700BF003002400000000068
:1042200010B500210446ACB0942207A8CDE90211D4
:10423000CDE9041106910AF0CFFC274B22689A427F
:1042400001D02CB010BD4FF000724FF0807307A862
:104250000792219304F042FD002832D19FED1A6BA2
:104260009FED1B7B09241D4B02A9DA6D1C4842F40B
:104270000072DA65DA6D02F400720092009ADA6C6C
:1042800042F00202DA64DB6C8DED026B03F0020394
:1042900001938DED047B019B069402F067F90022E7
:1042A0000521272000F074FF272000F0ADFF002239
:1042B0000521282000F06CFF282000F0A5FF2CB07D
:1042C00010BDFCF775FEC9E7000300000200000006
:1042D000000000000000000000A4004000100240A8
:1042E0000004024208B502680A4B9A4200D008BD99
:1042F000094A4FF44071D36D084823F40073D36525
:1043000002F03AFA272000F08DFFBDE8084028208F
:1043100000F088BF00A400400010024000040242E8
:1043200010B50446A6B09422002101A80AF054FC5E
:10433000114B22689A4201D026B010BD4FF4802361
:1043400001A8019304F0CAFC98B90C4B0022D86C68
:10435000052140F48020D864DB6C5E2003F48023C8
:104360000093009B00F014FF5E2000F04DFF26B08C
:1043700010BDFCF71DFEE8E700080C4200100240EB
:1043800000B5036887B0B3F1804F0ED0304A934236
:104390003BD0304A934216D02F4A934228D02F4A1E
:1043A000934247D007B05DF804FB03F504339A6DE0
:1043B00042F001029A659B6D03F001030193019B9A
:1043C00007B05DF804FB264B0022986D052140F0F4
:1043D000200098659B6D322003F020030393039B1C
:1043E00000F0D6FE322007B05DF804EB00F00CBF01
:1043F0001B4B1A6E42F400321A661B6E03F4003334
:104400000493049B07B05DF804FB154B0022986DE4
:10441000052140F0100098659B6D312003F01003DA
:104420000293029B00F0B4FE312007B05DF804EB6C
:1044300000F0EABE0A4B1A6E42F480221A661B6E26
:1044400003F480230593059B07B05DF804FB00BFD0
:1044500000100040001400400044014000480140AA
:10446000001002400000000010B500210446AEB06C
:10447000942209A8CDE90411CDE9061108910AF0AA
:10448000ABFB2D4B22689A4201D02EB010BD4FF4E9
:10449000005309A8099304F021FC00283FD19FEDA7
:1044A000226B9FED237B0A22244C2548E36C04A950
:1044B00043F00103E364E36C8DED046B03F001034F
:1044C0000193019B8DED067B089202F04FF8E36D9E
:1044D00043F40013E365E36D03F400130293029BBE
:1044E000A36DDB0018D4A36D43F08053A365A36DC7
:1044F00003F080530393039B03F00CFDA36D23F0A3
:104500008053A36500220521492000F041FE492087
:1045100000F07AFE2EB010BD03F0FCFCF2E7FCF7D1
:1045200047FDBCE7AFF30080001800000200000068
:10453000000000000000000000D400400010024015
:104540000000024210B5014688B000222A2000F087
:104550001FFE2A2000F058FE154B01A91A6E03A871
:1045600042F400621A661B6E124C03F4006302935D
:10457000029B04F0ABFA04F091FA0346002140F2EA
:10458000E7300D4A2161A2FB0323A1609B0C0B497C
:10459000E060013B20462160636005F07FFA10B1C6
:1045A000012008B010BD204605F088F808B010BD05
:1045B00000100240882B032083DE1B43002C0140A7
:1045C000FEE700BFFEE700BFFEE700BFFEE700BF5B
:1045D000FEE700BF704700BF014801F029B800BFE7
:1045E000F0260320014801F023B800BF88260320ED
:1045F000014801F00FBC00BFB8280320014801F0BA
:1046000009BC00BFB8280320014805F047B900BF26
:10461000882B0320014805F041B900BFF025032095
:10462000014805F03BB900BFA4250320014802F072
:1046300051B900BF64280320014802F0F5BA00BF59
:1046400064280320014804F023BF00BF582703203B
:10465000014805F0EDBA00BFD0270320014802F061
:104660001DBD00BF30220320014800F0E1BF00BFA4
:1046700040290320014804F03BBE00BFBC270320B3
:10468000034AD2F8883043F47003C2F88830704788
:1046900000ED00E0254B25491A682548120754BF54
:1046A000D3F894301B688A6858BFC3F3032302F021
:1046B0000C0248BFC3F30313082A50F823300FD06D
:1046C0000C2A0FD01B49042A08BF0B46174A1A4868
:1046D00092681A49C2F30312825CD3400B607047A0
:1046E000174BF3E7C868CA6800F00301C2F303126E
:1046F000022902F1010211D0032913D0B3FBF2F118
:104700000A4AD368D268C3F3062301FB03F3C2F35A
:10471000416201325200B3FBF2F3D7E70549B1FB26
:10472000F2F1EDE70649B1FBF2F1E9E700100240D2
:104730003CF400080024F40084F40008540303202F
:1047400080969800DFF834D0FFF79AFF002103E04D
:104750000B4B5B58435004310A480B4B42189A42AA
:10476000F6D30A4A02E0002342F8043B084B9A427F
:10477000F9D30AF097FAFCF7C1F8FEE7000004202D
:10478000B0F4000800000320C0040320C00403208C
:1047900020590320FEE70000042010B500F0E6FCDD
:1047A000FFF778FF0020FFF7CDFE10B1012420466F
:1047B00010BD0446FFF77EFC204610BD034A044BA3
:1047C00011681B780B441360704700BFD42B032083
:1047D00058030320014B1868704700BFD42B0320F7
:1047E000002330B583B00193002800F09880856DD8
:1047F0000446002D00F09880226893689D0005D53E
:10480000936823F0204323F03F0393609368D8001C
:1048100019D45A4B5A481B6891689B09A0FB0303A3
:1048200021F010419B0921F03F0101335B0041F071
:10483000805191600193019B2BB1019B013B01933E
:10484000019B002BF9D19368D9006BD40120A36D93
:1048500043F01003A365E36D0343E365936813F02E
:10486000040FA36D57D1DB0655D4A36D23F48173D8
:1048700043F00203A3659368DD0708D4414B9B68AE
:1048800013F0010F404B9B6801D1D9075FD5E56854
:10489000636B94F820102B43A568012943EA0503B4
:1048A000657E43EA453343EA01434BD0A16A21B117
:1048B000E56A01F4707129430B43D56833492940F7
:1048C0001943D16093681B0716D494F83030257EC5
:1048D000D1685B0043EA8533E56C21F4804121F027
:1048E00006012B430B43D36094F83830012B36D0AC
:1048F000136923F0010313612369012B1AD0136B91
:1049000023F00F031363A36D23F0030343F00103AC
:10491000A36503B030BDA36D43F01003A365012070
:1049200003B030BD002099E7FFF7E6FBE56584F8AA
:10493000545061E7116BE36921F00F01013B0B4318
:104940001363E0E7616A013943EA4143AEE7104986
:1049500065688B6823F47C132B438B6097E71169A0
:10496000E36B256C6FF38A012B430B43616C0B43A4
:10497000A16C0B4343F001031361BDE75403032013
:10498000632D3E05008002420081024207C0F0FF15
:1049900000830242704700BF704700BF08B5806ABD
:1049A000FFF7FAFF08BD00BF704700BF836A10B56C
:1049B0009A6D12F0500F9A6D1DD1196842F4007271
:1049C0009A650A6812F0080FCA681BD012F4406F8B
:1049D0000DD1CA6894040AD49A6D22F480729A6543
:1049E0009A6DD10403D49A6D42F001029A6518467B
:1049F000FFF7D0FF10BDD2060AD4BDE810401B6DF2
:104A0000DB6B18479007E7D51846FFF7C3FFF1E7C0
:104A10001846FFF7C9FF10BD806A08B5836D43F0E3
:104A200040038365C36D43F00403C365FFF7BCFF18
:104A300008BD00BF0022F0B583B0019290F8542069
:104A4000012A00F0F480034601201A6883F854001C
:104A50009068400709D501209A6D42F020029A65BE
:104A6000002283F8542003B0F0BD1F24486802F1EF
:104A7000300500F01F0C4FEA901E08680EF00C0E77
:104A8000C0F3846000FA0CF004FA0CFC55F80E40F8
:104A900024EA0C0C40EA0C0045F80E00906810F077
:104AA000040F906835D1070733D4072408688D6850
:104AB000C0F30456B440C00DB5F1004F6FEA0404D2
:104AC00000F0040000F0008102F11407B5403E58E8
:104AD00034402C433C50506920F000405061D1E9F3
:104AE0000464042ED568086800F0BB80C5F3C105D6
:104AF0006D0002F1600757F826C0AC40BA4D00F0D7
:104B0000F8400CEA050505432C4344F0004447F8FF
:104B100026409068C60738D4CE680C68B348D2F8EF
:104B2000B05006F01807F840C4F31207204025EAF9
:104B300007052843C2F8B000AD48864227D0AD49EA
:104B40000C4222D0AC48AD4986688D68ED0771D41F
:104B5000AB4DAD68EF073FF57EAFAA4D06F0E077AD
:104B6000AC4200F06981A84DAC4200F08981A74DAC
:104B7000AC420AD1740208D48A4206D1826822F07B
:104B8000E0723A4342F480028260002068E7002F1E
:104B900053D094FAA4F0002800F0A080B0FA80F07E
:104BA000013000F01F00092840F2988094FAA4F028
:104BB000002800F08181B0FA80F00130800600F01A
:104BC000F84094FAA4F5002D00F06A810126B5FAA8
:104BD00085F5354405F01F0506FA05F5284394FAD6
:104BE000A4F4002C00F05A81B4FA84F56FF01D068D
:104BF0000324013505F01F0514FB0564240544F06A
:104C0000007407272043C50D8E6805F0040502F1E6
:104C1000140C5CF80540C0F30450864007FA00F01D
:104C200024EA000030434CF805000C6887E70220B6
:104C300003B0F0BD724A92680DE70120A40E013462
:104C400004F01F06A40604F0F845B040092E06EB58
:104C5000460440EA050066D91E3C240544F0007471
:104C6000CFE7146E146EC0F31205C4F38464002DF4
:104C70005BD1C0F38466B44200F08F80546E556EF1
:104C800002F16004C5F3846502F1640CB54200F0E2
:104C9000BF80A568A56804F10807C5F38465C0F363
:104CA0008466AE4200F08D80E568E56804F10C068C
:104CB000C5F38464C0F38460A0427FF42AAF3068F7
:104CC00020F00040306024E702F1140635582C40F3
:104CD0003450506940F00040506100E794FAA4F06D
:104CE000002800F0F180B0FA80F00130800600F07A
:104CF000F84094FAA4F5002D00F0E4800126B5FAFE
:104D000085F5354405F01F0506FA05F5284394FAA4
:104D1000A4F4002C00F0D380B4FA84F4013404F03D
:104D20001F0404EB440424056BE790FAA0F51DB1C1
:104D3000B5FA85F5AC4230D0546E556E02F1600480
:104D4000C5F3846502F1640C90FAA0F604F108073B
:104D5000BE46002E00F0AB80B6FA86F6AE4259D0C1
:104D60003D683D68C5F3846590FAA0FC04F10C062B
:104D7000B646BCF1000F00F09580BCFA8CFCAC4547
:104D800021D034683468C4F3846490FAA0F0002819
:104D90003FF4BFAEB0FA80F08EE71446106E02F119
:104DA000640C20F0004044F8600F506E0868556EA7
:104DB000C0F31206C5F38465002EC5D1C0F3846626
:104DC00064E704F10C0E3868764620F00040386045
:104DD000E0680868E468C0F31205C4F38464002D39
:104DE0003FF468AFD1E700BF00F0FF03FFFF07000B
:104DF00000007F40000008800083024200800242E1
:104E000000810242000052C7000084CB01000080F4
:104E100004F1080EDCF80000774620F00040CCF8E2
:104E20000000A0680868A568C0F31206C5F3846591
:104E3000002E3FF434AF97E736023FF5A6AE8A4224
:104E40007FF4A3AE8268224922F0E0723A4342F432
:104E5000000282600A681F499209A1FB02129209AE
:104E6000013202EB420292000192019A002A3FF4C1
:104E70008CAE019A013A0192019A002AF9D184E696
:104E8000F5013FF582AE8A427FF47FAE826822F060
:104E9000E0723A4342F08072826076E60E4CB0E6F1
:104EA00002259BE6E568E468C4F384646DE7A568C1
:104EB000A568C5F3846557E74FF0806081E64FF43D
:104EC00040149EE6022521E74FF0806011E700BF05
:104ED00054030320632D3E05000050FE002370B5EF
:104EE00082B0019303689A68D2072CD49968284A43
:104EF000044611422AD19A68264922F0004222F043
:104F00003F0242F001029A608B681B0229D4FFF72E
:104F100061FC236805461A68D60714D41E4E9A68A9
:104F2000D00704D49A68324042F001029A60FFF739
:104F300051FC431B022B236802D91A68D10705D5FF
:104F40001A68D207EBD5002002B070BD0120A36D16
:104F500043F01003A365E36D43F00103E36502B082
:104F600070BD0E4B0E4A1B689B09A2FB03239B09D5
:104F7000013303EB43039B000193019B002BC6D03D
:104F8000019B013B0193019B002BF9D1BFE700BFBF
:104F90003F00008000830242C0FFFF7F54030320D4
:104FA000632D3E05394B2DE9F041D3F808800368A5
:104FB0009D6815F0040516D190F854300446012B75
:104FC00011D040F221234FF0010C08F01F0823FA02
:104FD00008F313EA0C0380F854C007D184F8543066
:104FE0006046BDE8F0810220BDE8F0810E4617461C
:104FF000FFF774FF002841D1A36D216823F470638B
:1050000023F0010343F48073A365214B994238D008
:10501000A36D23F48013A365324600251C26A36DDF
:10502000206D13F4805318BFE36D01F1400118BFE8
:1050300023F00603E3653B46164FC762164F07632E
:10504000164FC76341F8406C84F8545051F83C5CEB
:1050500045F0100541F83C5C51F8345C45F0010521
:1050600041F8345C00F01CFA2268936823F0004396
:1050700023F03F0343F004039360B5E784F85450F2
:10508000B2E7B8F1000FC7D1C2E700BF0083024208
:1050900000810242AD4900089D490008194A0008F4
:1050A00090F85420012A45D0034600220120F0B494
:1050B0002B4D1C689AB0AC42169283F8540017929C
:1050C00008D0996D83F8542041F0200199651AB0F9
:1050D000F0BC7047234A906840070BD5A2680120B6
:1050E0009A6D42F020029A65002283F854201AB08B
:1050F000F0BC7047A0684507F1D40D68E5B11A4EC1
:105100004F68B06893F830C020F46040384340EAFC
:105110004C30B060A0689268C0071ED4D7071CD47A
:10512000B268896822F471620D4322F00F021543C0
:10513000B56012E0022070470B48816821F460419D
:105140008160A1689268CD0707D4D40705D482682E
:1051500022F4716222F00F0282600020C4E700BFD7
:105160000080024200810242008302424FF6FF0C9F
:1051700006490302CA6803F4E06302EA0C0213431F
:1051800043F0BF6343F40033CB60704700ED00E0B1
:105190001B4B00B5DB68C3F30223C3F1070EBEF15E
:1051A000030F03F1030C28BF4FF0030EBCF1060FF1
:1051B0001CD9A3F1040C4FF0FF3303FA0CF322EADD
:1051C00003024FF0FF3303FA0EF321EA030303FA5D
:1051D0000CF313435B010028DBB20ADB00F16040F3
:1051E00000F5614080F800335DF804FB002294462E
:1051F000E7E7044A00F00F00024413765DF804FB71
:1052000000ED00E0FCEC00E0002807DB012300F0EB
:105210001F01034A40098B4042F82030704700BF0D
:1052200000E100E000280CDB01220649430900F000
:105230001F002033824041F82320BFF34F8FBFF37C
:105240006F8F704700E100E0BFF34F8F0549064BB9
:10525000CA6802F4E0621343CB60BFF34F8F00BF14
:10526000FDE700BF00ED00E00400FA05002836D09D
:1052700038B5437F044603F0FF0263B3022223796B
:105280006277F3B92368174A5A619A6822F01802C4
:105290009A6062798AB122691A6101219A68656906
:1052A00022F060022A439A609A68A56922F080027F
:1052B0002A439A606177002038BD4FF0FF321A61AF
:1052C000EBE72046D4E9021200F00EF808B9236893
:1052D000DFE7012038BD0277FEF78AFFCEE7012025
:1052E000704700BFB71DC104CB071AD51F2310B4E8
:1052F000013B5C1C21FA03FC15D01CF0010FF7D018
:10530000182A11D8DFE802F0161010101010101033
:105310002410101010101010211010101010101068
:105320001400012070472AB101205DF8044B70473A
:10533000062BF9D8046800206161A36823F01803E4
:105340001343A3605DF8044B7047072BF2D9EBE7DA
:105350000F2BEFD9E8E700BF11490368C26C8B42FD
:1053600088BF104922F0030294BF02F180418918DE
:105370004FF0010210B4DBB20B4CA3F10803A4FB05
:1053800003430A4CC3F3041398BF01F5023102FA38
:1053900003F3C0E9141483655DF8044B704700BF44
:1053A0000704024020080240CDCCCCCC800802404B
:1053B000002861D038B50268304B04469A4246D97D
:1053C0002F4B30491344A1FB03132F481B099B00AB
:1053D0000221C4E91203D4E9025320692B43034399
:1053E000606984F825100343A06911680343E069EC
:1053F0006FF310110343206A03430B4320461360ED
:10540000FFF7AAFFB5F5804F2AD0D4E9145163689D
:10541000A06DDAB2013B032B2A60486027D8012136
:1054200000201A4B1A4D1344013A01FA02F21949AD
:105430009B00E3656266256618604A6400230122CA
:10544000636484F8243084F82520184638BD124B54
:105450000C491344A1FB03131B0910489B00B7E739
:105460000023D4E91402A16D63600360516000233E
:10547000C4E917336366E1E701207047070402407F
:10548000F8FBFDBFCDCCCCCC000402403F82001025
:105490004009024000090240F8FFFDBF0000024041
:1054A000F0B590F82440012C0AD04FF0010C90F890
:1054B000254080F824C0644504D0002380F82430BF
:1054C0000220F0BD0026D0E9157C4FF0020E0468E2
:1054D00080F825E046642668C56D26F00106266042
:1054E000C7F804C015B1D0E9186777600126C76C0A
:1054F00007F01C0C876C06FA0CF67E60636083680C
:10550000102B036B0BBFA260A160E160E260B3B13E
:10551000236843F00E032360036D1A68D20303D59A
:105520001A6842F480721A601DB12B6843F48073CC
:105530002B602368002043F001032360F0BD236843
:1055400023F004032360236843F00A032360E3E7A6
:1055500090F825200346022A06D004225A6400222D
:10556000012083F824207047026870B4046D10682D
:10557000D96C20F00E00106020689E6C20F48070C2
:105580002060106801F01C0120F001001060012271
:10559000D3E91545D86D8A407260656030B1D3E9B2
:1055A0001814026822F4807202604C60012283F8B1
:1055B0002520002283F82420002070BC704700BF03
:1055C00090F825200346022A03D0042201205A64C1
:1055D0007047026870B5046D1068D96C20F00E0039
:1055E000106010689E6C20F0010010602268D86D79
:1055F00022F4807222600122D3E9154501F01C01DA
:105600008A407260656030B1D3E91814026822F4F0
:10561000807202604C60012000211A6C83F8250022
:1056200083F824100AB118469047002070BD00BFCF
:105630000421F0B4C26C866C02F01C023568046868
:10564000914029420346276812D017F0040F0FD06B
:105650002268170439D42268950603D4226822F000
:10566000040222601A6B716092B1F0BC18461047B8
:105670000221914029420DD0B8070BD5226812F4BF
:10568000004F226829D0D4033CD45A6B002AECD1B5
:10569000F0BC7047082191402942F9D03907F7D56D
:1056A0002168002021F00E0121600121DC6B01FA4C
:1056B00002F27260596483F8240083F82510002CEC
:1056C000E6D018462346F0BC184771602268D6031E
:1056D00014D4036B002BF6D1DAE7900606D42268C7
:1056E00022F00A022260012283F825200020DA6AD3
:1056F000716083F82400002AB7D1C9E7836B002BBF
:10570000E1D1C5E7DA6A002AAFD1C1E790F82500F8
:10571000704700BF60B10368C8061A6805D5C902A2
:105720004CBF42F4801222F4801200201A607047AD
:1057300001207047002800F0D78038B590F85C3021
:10574000044603F0FF02002B70D02268936923F017
:1057500010039361FFF73EF8054604E0FFF73AF8BF
:10576000401B0A2859D823689A691107F6D49A6908
:1057700042F001029A61FFF72DF8054604E0FFF7B9
:1057800029F8401B0A2848D823689A69D207F6D519
:105790009A696068574942F002029A610860227C67
:1057A000012A9A690CBF22F0400242F040029A613D
:1057B000627C012A9A690CBF42F4804222F4804242
:1057C0009A61A27C012A9A690CBF22F4805242F4A9
:1057D00080529A619A69A06822F4407202439A61E9
:1057E0009A69E16822F0A4029A611A69012922F0FB
:1057F00010021A611FD011B302299A6976D042F0C3
:1058000080029A611A69032942F010021A6116D1C6
:105810009A6942F020029A6111E00322236E01206E
:1058200043F00103236684F85C2038BD80F85D20D6
:10583000FEF7F6FC89E79A6942F004029A61D4E91E
:105840000612013A0139120242EA4162216AB0F5B8
:10585000407F01F1FF3142EA0102616901F1FF314C
:1058600042EA0142DA610ED1D4E90B02A16A013A9F
:1058700001381201013942EA00220A43616A013902
:1058800042EA0142DA60D3F8C020E06B616B024368
:10589000C3F8C020D3F88020174822F4F81242EA57
:1058A00001422064C3F88020D3F88020A16B134DFF
:1058B00022F0706242EA01626564C3F88020104BF6
:1058C00010494035C4E91253F033C4E914134FF4BE
:1058D0005472002109F080F900230122236684F824
:1058E0005C201846A36538BD0120704742F02002B5
:1058F0009A61A4E700A5004000AC004070AC0040F5
:1059000088AD004060AE004090F85C200346013A4C
:10591000012A05D91A6E012042F002021A66704768
:105920008A6870B4D1E9035448699207D1E90061EB
:1059300056B942EAC56202431B6C42EA04420020A7
:1059400070BC43F8212070475B6C44EA457443F80F
:105950003140104303EBC103586070BC0020704716
:10596000844690F85C00012807D0DCF86030012004
:1059700043F00403CCF86030704710B40198DCF8B1
:10598000004040EA4303D4F8800043EA820242EA3E
:10599000011120F03F030B430020C4F880305DF874
:1059A000044B704790F85C200346012A05D01A6E1C
:1059B000012042F004021A6670470222002110B44E
:1059C000046880F85C20A269084622F00102A26106
:1059D0005DF8044B1966704790F85C300146022B65
:1059E00017D10268936943F0010393619369DB0760
:1059F00058BF0B2313D49069C00710D4013BFAD1D0
:105A000003220B6E012043F001030B6681F85C203A
:105A10007047036E43F008030366012070479369E3
:105A200023F01003936193691B0748BF0B2305D52F
:105A30009069000702D5013BFAD1E1E74FF0010C74
:105A400010B400249369204643F00203936181F867
:105A50005CC08C655DF8044B704700BF88B110B521
:105A60000446FFF7B9FF22682046D36D23F00303F5
:105A7000D365FEF737FC0023236684F85C301846B4
:105A800010BD0120704700BFF0B590F85C3086462D
:105A9000022B0BD10568D5F8C43013F4001C0BD0D1
:105AA000036E43F4007303660120F0BD036E43F000
:105AB000080303660120F0BDD5F8C4604B680C698B
:105AC00088680F68C6F30146002B37D1044344EAC7
:105AD0008744D1E906030343486906EBC60703433D
