:020000040800F2
:1000000000000420AD910008299000082D90000800
:10001000319000083590000839900008FD910008E3
:10002000000000000000000000000000E1320108B4
:100030003D9000080000000071320108310A0108FB
:10004000FD910008FD910008FD910008FD91000858
:10005000FD910008FD910008FD910008FD91000848
:10006000FD910008FD910008FD910008FD91000838
:10007000FD910008FD910008FD910008FD91000828
:10008000FD910008FD910008FD910008FD91000818
:10009000FD910008FD910008FD910008FD91000808
:1000A000FD910008FD910008FD910008FD910008F8
:1000B000FD910008419000084D900008FD91000856
:1000C000FD910008FD910008FD910008FD910008D8
:1000D000FD910008FD910008FD910008599000086D
:1000E00065900008FD91000871900008FD910008DE
:1000F000FD910008FD910008FD910008FD910008A8
:10010000FD9100087D90000889900008FD9100088D
:10011000FD910008FD910008FD910008FD91000887
:10012000FD91000895900008A1900008FD9100083D
:10013000AD900008FD910008FD910008FD910008B8
:10014000FD910008FD910008B9900008FD9100089C
:10015000FD910008FD910008FD910008FD91000847
:10016000FD910008C5900008FD910008FD91000870
:10017000FD91000800000000FD9100080000000053
:10018000D1900008FD910008FD910008FD91000844
:10019000FD910008FD910008FD910008FD91000807
:1001A000FD910008FD910008FD910008FD910008F7
:1001B000FD91000800000000DD900008FD9100089E
:1001C000FD91000800000000FD910008FD9100086D
:1001D000FD910008FD910008FD910008FD910008C7
:1001E000FD910008FD910008FD910008FD910008B7
:0401F000000000000B
:1002000010B5054C237833B9044B13B10448AFF350
:1002100000800123237010BDA00603200000000011
:10022000FC3C010808B5034B1BB103490348AFF37D
:10023000008008BD00000000A4060320FC3C01086B
:10024000034613F8012B002AFBD1181A0138704716
:10025000704700BF30B5214C214D83B04FF0FF33C4
:10026000022220680DF1060111F07AFA022807D067
:100270002B78012B29D001211A4808F07FF9EDE7EE
:1002800042F20303BDF806209A42F1D816494FF016
:10029000FF33206811F064FABDF806108142E7D1FF
:1002A000114805F0EDF90028D8D12B78BDF80610DB
:1002B000012B0D480DD004F095FC0128CED12B78F0
:1002C000B3FA83F35B092B70C8E7084808F0C4F958
:1002D000C4E703F081FB0128C0D1F0E7B807032091
:1002E0008C070320403D010840B80020203D010854
:1002F0002DE9F04F834C9BB0DFF82482824F834E70
:100300000AAD4FF0FF3328226946206811F028FA21
:100310002828F6D1039808F0DBFA8346002840F03D
:100320009380029B002B70D10098D8F8003098423F
:1003300000F092802A46594605F0C2F911F074FF88
:1003400029460246684605F0BDFB11F06DFF2946BF
:100350000246684605F092F93B78002BD1D0069B07
:10036000B3F5001F00F086800121BBF1080F28BF04
:100370004FF0080B002289465FFA8BFBDDE9013064
:1003800000286FD13144002B00F0AA805420B054D3
:10039000009808F099F909EB00035FFA83F9069ACF
:1003A00006EB0901B2F5001F6FD00BF00F0008F04B
:1003B00009FA09EB00035FFA83FABBF1000F0CD0D6
:1003C000A946AB4419F8010B06EB0A0108F0EAF95B
:1003D000D94550445FFA80FAF4D1FA78002A5ED108
:1003E0007A791AB1069AB2F5001F7DD00D220AF172
:1003F00001014648C9B206F80A2008F0BFF80028F3
:100400003FF47FAF00233B707BE7B3F1005F9CD1EB
:10041000009BB3F5E06F98D13D4801990360039BC1
:100420004160082B28BF08231A460023C260C0E998
:100430000533836008223749374808F055FA3649B2
:10044000334803F029F980E702464FF0FF3329468D
:10045000206811F085F964E73049314803F01CF950
:10046000009867E77BB352204FF0000BB054314443
:1004700000988EE7059B0221B3F5801F14BF30233F
:10048000312301228946337078E7039800F00F008A
:1004900008F098F909EB00035FFA83FA8DE711F091
:1004A000C3FE4EF6602C1F4B06EB0A01A3FB00E2D5
:1004B000920B0CFB120080B208F052F90AEB000319
:1004C0005FFA83FA8CE772209B46B054009831445F
:1004D00080B208F02FF909EB00035FFA83F95EE7B9
:1004E0007420B0540098F3E7049AB2F1004F7FF4FF
:1004F0007DAF69220AF1010306F80A205FFA83FA48
:1005000074E700BF1C3B0320D000032040B600204E
:10051000C80603209005FA0BC0060320703C032098
:10052000783C032073B2E7452DE9F0431F4D9BB0A3
:10053000DFF8808001AE0AAF002404EBC401C4F1EF
:1005400024024FF0FF33286806EB810111F008F90F
:100550000444232CF1D9049808F0BAF9039B81468E
:10056000B3F1005F00D0A0B9114809F003FC50B10D
:100570003A4631460E4809F0BDFAD8F80C3001333E
:10058000C8F80C30D8E74FF0FF32012112F0CCF858
:10059000EAE70024A9EB040239194FF0FF33286879
:1005A00011F0DEF804444C45F4D3DDE7183B03209A
:1005B000802A032010000320F0B583B005F07AF8FC
:1005C00002F070FF05F07EFB00F08EFD06F032FBBE
:1005D00011F02AFE05F048F811F026FE05F048F863
:1005E0001E480DF0B3F91E480DF078F91D4D1E4E52
:1005F0001E4F05E001330CD10A2101A811F0F6FCD1
:1006000011F012FE32682B6801320190F2D10133F1
:100610000BD04FF47A7401E0013CEDD02846144928
:1006200003F03AF80028F7D0E6E706F001FB01985E
:1006300006F006FB019800F059FD3B7833B10198B4
:1006400005F020F8019805F03BFAD5E7019805F090
:100650008BF9019805F00AF8F1E700BFB8270320ED
:10066000202703204C3C0320783C032086000320F5
:10067000443C03202DE9F0410026244DDFF898800A
:10068000234FA6B04FF0FF320121002012F04CF8AA
:1006900012F082FC1F4809F0C3FC044606A91D485D
:1006A00009F024FB02A91B4809F048FB5422294603
:1006B00011A8AC6013F0CAFA164B1E66189BB3F56E
:1006C000003F02D9AB68990219D412F073FC6202A0
:1006D00098F8003003D52A7942F080022A7133B1AC
:1006E0000B9B23B1642010F07FFA02F0DBFE0022A6
:1006F000022311463868009612F098F8C2E70123E9
:1007000085F820300B9302F057FFDEE7100003203E
:10071000441F0320802A0320BC06032000232DE968
:10072000F04385B05B4C5C4EDFF878815B4D0DF19A
:100730000E078DF80B3005E000214FF0FF32084620
:1007400011F0F2FF206810F015FF0028F4D04FF0F0
:10075000FF33012220680DF10B0111F001F801288F
:10076000EAD1206810F006FF0128E5D94FF0FF33E9
:100770000222206803A910F0F3FF0228DCD1BDF8A3
:100780000C20B2F5845FD7D8002A56D19DF80B9083
:10079000B9F1000F16D111F047FD414B3146BDF8BC
:1007A0000C20009706F002FFBDF80E30002B57D149
:1007B00011F03AFD31463A4BBDF80C20009707F096
:1007C0005FFEB9E711F030FD354B3349BDF80C2021
:1007D000009707F0F1FDBDF80E3023B330490A78D9
:1007E0007F2A08D1022B1ED98B78A3F11102012A8E
:1007F00019D9312B17D04FF0FF3302223946D8F8E0
:10080000000010F0C5FE4FF0FF332549BDF80E2063
:10081000D8F8000010F0BCFE002202231146286820
:10082000009212F003F811F0FFFC1D4B1A49BDF8BD
:100830000C20009707F024FE7EE74FF00009A2EBA2
:10084000090206EB09014FF0FF33206810F088FF22
:10085000BDF80C2081441FFA89F94A45EFD195E78C
:1008600039464FF0FF330222D8F8000010F090FE16
:10087000BDF80E204FF0FF330949D8F8000010F002
:1008800087FE02234A4649462868CDF8009011F0B9
:10089000CDFF8DE7F8060320BCA50020940C0320B3
:1008A00038950020F40603202DE9F843294E2A4DFF
:1008B000DFF8B08006F19C0706F5805905E00021BD
:1008C0004FF0FF32084611F02FFF286810F052FE5B
:1008D0000128F4D94FF0FF3302222049286810F094
:1008E0003FFF0228EBD1B6F89420B2F5845FE6D83A
:1008F0006AB10024121B39194FF0FF33286810F039
:100900002FFFB6F894200444A4B2A242F2D111F011
:100910008BFC0146124805F05BFD0028CFD111F099
:1009200083FC06F095FD0128C9D0286810F022FE4E
:100930000128C4D898F8003053B199F8230110F079
:1009400053F911F071FC06F083FD0128B7D0ECE7F4
:100950000A20F4E77C850120F4060320108601209C
:100960007C7501208600032010B50C490C4807F067
:10097000C1FD0A4A0B490C4812F0BEFE084C0B4957
:100980004FF0FF334FF40062206810F0E9FE01469B
:100990000028F4D0054807F0C5FDF0E7E80703207C
:1009A00090070320F4230320B807032044D8002035
:1009B00004F078BE002004F079BE00BF0000000003
:1009C00010B59EB0482200210CA813F0B3F8002304
:1009D0004FF40070CDE90233CDE90433CDE907339C
:1009E000CDE90933019306930B930BF00BFB08B190
:1009F00072B6FEE701230222169311931993179200
:100A000010231D9207229FED1E7BCDE91A3203248D
:100A1000042312900CA81C938DED0C7B18940BF002
:100A20002DFD034608B172B6FEE70F22214601A84C
:100A3000CDE903330593029401920BF0CBFB0346FF
:100A400008B172B6FEE7104A4FF0005C916D4BF6AC
:100A50007F3441F080719165926D069302F080724F
:100A6000009208932222202306A8CDE90A230099A8
:100A7000CDF81CC009940CF061FC1EB010BD00BF85
:100A80002900000000000100001002402DE9F041A3
:100A900094B072B64FF00062A44B9A60BFF34F8FD0
:100AA00062B6002408F0ACFB05F0A4FFFFF788FF56
:100AB000CDE90F44CDE911449D4D1394EB6C4FF4F7
:100AC000604143F00403EB64EB6C224603F0040343
:100AD0000893089BEB6C974843F08003EB64EB6C46
:100AE000012603F080030993099BEB6C4FF4007817
:100AF00043F00103EB64EB6C082703F001030A9356
:100B00000A9BEB6C43F00203EB64EB6C03F0020313
:100B10000B930B9B09F022FF224640F201118648FD
:100B200009F01CFF224641F2E401844809F016FF57
:100B30004FF460437F480FA9CDE90F36119412940A
:100B400009F058FD40F201137B480FA9CDE90F369B
:100B5000CDE9114409F04EFD41F2E40377480FA9B5
:100B6000CDE90F36CDE9114409F044FD72480FA9D3
:100B7000CDE90F84119609F03DFD71480FA9CDE92B
:100B80000F74119409F036FDAB6C052143F004039A
:100B9000AB64AB6C224603F004030593059BAB6C7E
:100BA0001D203343AB64AB6C33400693069BAB6CA8
:100BB00043F00203AB64AB6C03F002030793079BA3
:100BC00008F054FB1D2008F08BFB224605211E2057
:100BD00008F04CFB1E2008F083FB22460521502024
:100BE00008F044FB502008F07BFB20460AF03EFA58
:100BF00008B172B6FEE70AF04DFA034648B951480B
:100C00004360514B03600CF0C1FB034618B172B650
:100C1000FEE772B6FEE710224FF4407E4FF03C0C28
:100C2000042113250F24494882618262484A4360A7
:100C3000C3608374C3631370464BC0E907C5036088
:100C4000C0E90B41C0E90D66068246614662C0F804
:100C500008E008F081FD034658BB07224FF0FF3142
:100C60004FF482754FF4E0643B48C0E90A323B4AD6
:100C7000C0E90433C2E90533C2E90133D36011602E
:100C8000374AC0E90833C2E90533C2E9013383605A
:100C90000363D360334BC0F818800360C7614763B8
:100CA0004560C46011600CF0A3FC034618B172B635
:100CB000FEE772B6FEE72C482C4AC0E90533838074
:100CC0000260066208F03EFB034608B172B6FEE71A
:100CD0004FF4027102222648C372264B8180C0F86D
:100CE000072003600AF0E0F908B172B6FEE742F2AD
:100CF0000F7141F63F72204C204BCDE90F0011904F
:100D0000A060A061204623606160E2600DF00EF8F3
:100D1000034608B172B6FEE720460FA90F93119360
:100D20000DF036F8034658B372B6FEE700ED00E06A
:100D30000010024000080242000002420004024289
:100D4000001C02428429032000080C42802A032050
:100D5000BC06032000A4004020290320783C032087
:100D60004C3C032000380040E42A032000300240BD
:100D7000F823032000D40040B827032000100040CF
:100D80004F214FF6FF729248C0E9043383608361BC
:100D9000904B4160C26003600CF0C8FF08B172B6AE
:100DA000FEE700234FF6FF724F218B48C0E9023265
:100DB000C0E904338361894B416003600CF0B6FFE6
:100DC000034608B172B6FEE74FF080414FF0FF32A4
:100DD000834CCDE90F00CDE91100C4E901000CAD51
:100DE0000C902061A0612046C5E901332160E260DA
:100DF0000CF09CFF08B172B6FEE74FF4805320461A
:100E00000FA90F930CF0E0FD034608B172B6FEE7A0
:100E1000204629460C930E930CF0BAFF044608B105
:100E200072B6FEE76F48704900902246CDE9014452
:100E30006E4B0C7043F69820012110F043FB0546E1
:100E40006B4E6C4A00960121CDE901446A4B156056
:100E500043F69820224610F035FB0546674E684A57
:100E600000960121CDE90144664B156041F2010075
:100E7000224610F027FB0246634E644D0096012186
:100E8000CDE90144624B2A6041F20100224610F094
:100E900019FB604B604A01210092CDE901442246D2
:100EA00018605E4B43F6982010F00CFB5C4B5D4ADB
:100EB00001210092CDE90144224618605A4B43F6C5
:100EC000982010F0FFFA594B594E1860204604F054
:100ED000C5FE204604F0DCFE5649574805F004FFE5
:100EE00004F02AFF11F0A0F92A46544B5449009609
:100EF00004F0D4FD534805F0FDFE534804F09AFB7E
:100F00005248534A534902F0B3FA0FA80F9404F021
:100F100061FE10B90F9B002B55D00FF097FD12F01A
:100F2000D7FA00214C4A4D480FF0E0FD04464C4BE7
:100F300000214C4A4C481C600FF0D8FD04464B4B36
:100F400000214B4A4B481C600FF0D0FD0446414B3A
:100F50000021494A49481C600FF0C8FD0446354B42
:100F60000021474A47481C600FF0C0FD0446384B3B
:100F70000021454A45481C600FF0B8FD0446304B3F
:100F80000021434A43481C600FF0B0FD0446424B29
:100F90000021424A42481C600FF0A8FD0446414B24
:100FA0000021414A41481C600FF0A0FD0446404B1F
:100FB0000021404A40481C600FF098FD3F4B1860EC
:100FC0000FF066FDFEE73E4804F0DCFDA5E700BF3C
:100FD0002027032000440140D4260320004801407C
:100FE00004280320BC0703208C070320DC1A0120FF
:100FF00094070320B807032044E00020680703207B
:10100000900703203485002044070320F8060320BE
:1010100030750020F406032020070320983A0020B2
:101020001C3B0320FC06032000000020183B03208B
:10103000EC060320981A032020290320F006032041
:101040004011032084290320E42A0320802A03205E
:10105000EC150320441F0320F46301085502000827
:10106000F4230320D0630108F1020008F0230320D9
:10107000AC6301082905000888630108B905000868
:101080006463010875060008406301081D07000835
:101090001C630108A9080008940C0320F8620108E9
:1010A00069090008E8070320D4620108B1090008B3
:1010B000E4070320B0620108B5090008E007032037
:1010C000040029C0054A0368934203D0044A9342AE
:1010D00002D0704708F0A6B804F0DCBA002C01403A
:1010E0000010004072B6FEE7704700BF024B034994
:1010F000D87D02F0F3B800BF640003207C01032018
:1011000040F69E732DE9F047DFF89CA02349244A5E
:10111000DAF80040B1F800E012889C4204FB0E228D
:1011200038D800204FF0804140F69F764FF03008CD
:101130003127DFF878901B4D09EB040C4B6A934282
:10114000FCD32B69013013F48073C0B204F10104A5
:1011500072440ED118468CF80080B4420CF1010C98
:10116000ECD10120CAF80040002309F80430BDE8A2
:10117000F0870A288CF80070EFD9142C02D80CF1F3
:10118000010CDBE7002309F804300020CAF8004016
:10119000BDE8F0870120DFF81490E5E70A0003209E
:1011A0000800032000040242742B0320782B032044
:1011B00070B500244FF0804101254FF6FF7086B0D6
:1011C000CDE90044CDE9024404940A681A4E22F0A5
:1011D00001020A603288194B013A8A624C624D6101
:1011E0000A682A430A601A6822F001021A609862AB
:1011F0005C625D611A682A431A6002F0DDF92A46D2
:101200004FF400710E4809F0A9FB4FF480720023DF
:1012100069460B48CDE90023029409F0EBF94FF43D
:101220000073032269460648CDE900350392029413
:1012300009F0E0F906B070BD0C0003200048014041
:1012400000040242F0B5BDF81440012C45D94FF01E
:10125000300C0127013C83F800C000293FD10A2649
:101260003D4604E08C4675460127013E15D320FA21
:1012700006F101F0010105F1010EA54201F1300175
:101280001FFA8EFE29DA8C455955EBD10137FFB292
:10129000052F4FD0013E7546E9D2002A0CBF3026FB
:1012A0003126A54219DA691CB4455E5589B200F0B1
:1012B000C1800127A14210DA30224D1C9642ADB206
:1012C0005A5400F0D980A54207DA881C80B25A55DA
:1012D00000221A54F0BDA54239DB0020F0BD1C26C7
:1012E0003D4605E08C4675460127013E112EF2D0A1
:1012F00020FA06F101F0010105F1010EA54201F10C
:1013000030011FFA8EFEE8DA8C455955EAD10137D3
:10131000FFB2052F01D07546E7E7CCF1610CA64579
:101320005FFA8CFC05F10205D7DA012703F80EC03D
:10133000ADB2DAE7CCF1610CA6455FFA8CFC05F1A1
:101340000205CADA012703F80EC0ADB28DE74FF0EF
:10135000310E691CF44589B203F805E04FD0A14273
:10136000BBDA03F801E0A91CF44602271FFA81FE4C
:1013700004E08C46AE460127013E22D320FA06F156
:1013800001F00101A64501F13001A6DA0EF10105D7
:10139000614503F80E10ADB2EBD10137FFB2052F56
:1013A00001D0AE46E8E7CCF1610CA5425FFA8CFCB7
:1013B0000EF1020E91DA012703F805C01FFA8EFE26
:1013C000DAE7002A0CBF30253125A64585DA0EF173
:1013D0000102AC4503F80E5092B262D00121A24244
:1013E000BFF67BAF3027561CBD42B6B29F5477D0B4
:1013F000A642BFF672AF023290B29F5568E7042F43
:1014000028D0A142BFF669AF0237FFB205F1020E44
:10141000052F03F801C01FFA8EFEAFD1A645BFF617
:101420005CAF4FF0300C033503F80EC001271FFAF4
:1014300085FEA3E70137FFB2052F7FF43BAFA14242
:10144000BFF64BAFC6F16106F6B202355E54012716
:10145000A9B22FE7A142BFF640AF30275F54A91CC5
:1014600089B28C427FF739AF05F1030E012703F8EB
:1014700001C01FFA8EFE81E77A1CD2B2052A21D064
:10148000A542BFF62AAF881C042A5E5580B27FF4BD
:101490001FAFA042BFF621AF312203311A5488B2E8
:1014A00016E7791CC9B2052999D1A242BFF615AF3A
:1014B000C5F16105EDB20EF1020E9D5401211FFA36
:1014C0008EF28CE7A542BFF608AF31225A558A1C2E
:1014D00092B294427FF701AFC81C80B29E54F7E6E7
:1014E0000131C9B2052910D0A642BFF6F6AE9D550E
:1014F000042902F10205ADB215D1A542BFF6EDAE49
:101500003121033290B25955E2E6A642BFF6E5AE6C
:1015100031219955911C89B2A142BFF6DEAE03324A
:1015200090B25D54D4E62846D2E600BF4B4B186813
:10153000831C70D02DE9F04FC71C91B077D0411CAF
:1015400002D14FF000090BE03024454B454A197891
:10155000127804AB0094FFF775FE8146002860D036
:101560004FF0804C404B414A1B88B2F800A00393D7
:101570003F4B0AEB8A0E1F883E4B3F491C683F4E8B
:101580004FEA4E0E0B69DA05FCD5DCF8242092B246
:101590000B69DB05F6D5DCF824309B1A9E45F7D89D
:1015A0000B6913F4807306D0736ABB422DD80B69A4
:1015B00013F48073F8D1CCF82430B9F1000F1AD0AD
:1015C0001C464FF08040039ADFF8B880DFF8A8B0DF
:1015D00004AD436A9342FCD3DBF81030524413F459
:1015E000807F15F8013B0DD0312BCBD10134A145C3
:1015F00008F8013BEDD11F4BC3F80090002011B05B
:10160000BDE8F08F302BF1D0BCE70120194B1C60F6
:1016100011B0BDE8F08F4FF08043002200205A62E5
:101620007047174807F018F84FF0000998E74FF097
:1016300080440E4B104A188800EB8000400013696C
:10164000DE05FCD5616A89B21369DD05F7D5636AE9
:101650005B1A8342F8D300236362CFE704000320C0
:10166000712B0320702B0320080003200A000320A5
:1016700000000320742B03200004024200480140B4
:10168000DC3D0108782B032002783AB34FF0000CC0
:1016900030B56346864631250BE02A2A07D10CF186
:1016A000010C1FFA8CFC8EF8005000EB0C0EC25C93
:1016B00082B1A2F13001013301290CF101049BB286
:1016C000EBD88EF80020C25C1FFA84FC00EB0C0EF5
:1016D000002AEED100238EF8003030BD00230370C5
:1016E000704700BF70B5044607F028F914281ED9CA
:1016F00000F1FF3E1FFA8EFE14F80E3004EB0E05CB
:10170000312B2A4615D1831E9BB200EB040C0CEB47
:1017100003002A262344A0EB0E0005E016701A46AB
:101720001178013B312906D1C11A0C29F6D90020C4
:1017300070BD00EB040C002220460126144610F870
:10174000013BA3F1300101292FD862B386B3052AEA
:1017500042D0A3420FD0312B5ED0844515D010F873
:10176000011B0122A1F13003012B79D830231C4643
:101770000B46A342EFD10132312CD2B256D0844570
:101780004FF001064FF03004D9D10FFA8EFEBEF1B2
:10179000000F06DB2A4615F801392A2B58D05F2B9B
:1017A00037D0012070BD1C4601228445C7D1ECE72B
:1017B000A3420DD08445E8D010F8011B1C46A1F1CE
:1017C0003002012A22D80B46A3424FF00102F1D188
:1017D00001320026D2B2E8E7A342A8D05F238445B5
:1017E00000F8013CD1D0034613F8011BA1F13002EF
:1017F000012A20D86345C8D043783246A3F130048B
:10180000012C00F102000C46A0D9CEE700260122EF
:10181000CBE730231370C4E78445B6D010F8011B22
:10182000A1F13002012A1ED80122A0E7062A8CBFAE
:1018300000260126B9E76345A7D01A780230A2F145
:101840003003DBB2012B96BF144600223246ACE7D0
:101850000EF1FF3E0FFA8EFEBEF1FF3F9AD1A0E7D8
:1018600030241646A1E701221C4616469DE700BF1C
:1018700070B571B3002344F2995600F1FF3C0CEBB4
:1018800001051CF8012F5C00A2F13102B2FA82F2CC
:101890004FEA933E47F6FE735209724503EA04038A
:1018A00018BF7340AC45ECD14A1E00F10E0C024447
:1018B00000208C4412F8011F4000312908BF40F07D
:1018C0000100944580B2F5D1C01AB0FA80F0400909
:1018D00070BD0B46E8E700BF2DE9F04F8FB004461E
:1018E00007F02CF8122840F24B812378302B05D0DA
:1018F000B4480FB0BDE8F04F06F0AEBE074606AEE6
:10190000B14806F0A9FE00253146234604F10B0C30
:1019100013F8012FA2F13100B0FA80F09C454FEA94
:10192000501001F8012B40EA4505F1D14FF00008B5
:10193000A6488DF8238006F08FFE06A806F08CFEE0
:10194000A34806F089FE03A9284606F0BDFE03A8B9
:101950008DF8148006F080FE9E4806F07DFE94F817
:101960000CA09D48657B8DF819808DF818A006F0B5
:1019700073FE06A806F070FE984806F06DFE9848C3
:101980008DF8185006F068FE06A806F065FE93482C
:1019900006F062FE312D40F0FD80262F40F2F680E9
:1019A000454606AA04F10D010DF12A0011F8013F88
:1019B00002F8013BA3F13103B3FA83F390424FEAFB
:1019C000531343EA4505F1D14FF0000885488DF8DF
:1019D0002A8006F041FE06A806F03EFE7C4806F08E
:1019E0003BFE03A9284606F06FFE03A88DF814807D
:1019F00006F032FE774806F02FFE94F820A07A48D1
:101A00008DF819808DF818A006F026FE06A806F0BD
:101A100023FE724806F020FE94F8213073488DF8BA
:101A2000183006F019FE06A806F016FE6B4806F000
:101A300013FE94F822306E488DF8183006F00CFE34
:101A400006A806F009FE654806F006FE23220025DA
:101A500004F1040C06A89444A11811F8013B00F805
:101A6000013BA3F13103B3FA83F38C454FEA5313DF
:101A700043EA4505F1D14FF000095E4802F1040840
:101A800001928DF81C9006F0E7FD06A806F0E4FD33
:101A9000EDB24F4806F0E0FD03A9284606F082FEAD
:101AA00003A88DF80E9008EBC50B06F0D5FD49484C
:101AB00006F0D2FD0BF10F03BB42019A00F2E78062
:101AC000BAF1300F00F0A680002506A90BF1FF3017
:101AD000204401F10F0710F8012F01F8012BA2F1AA
:101AE0003102B2FA82F28F424FEA521242EA4505BF
:101AF000F1D10027404801938DF8277006F0ACFD26
:101B000006A806F0A9FD324806F0A6FD03A9A8B272
:101B100006F026FE03A88DF8107006F09DFD3748EC
:101B200006F09AFD59462046FFF7A2FE019B0028C9
:101B300040D0334806F090FD019BE25CE118A2F131
:101B40003003012B98BF012303D916E00133202B6A
:101B500036D006F8012B11F8012FA2F13000012830
:101B6000F4D900226B4427481A7606F075FD06A8C2
:101B700006F072FD194806F06FFD0FB0BDE8F08F5A
:101B800021480FB0BDE8F04F06F066BD1F4806F0D3
:101B900063FDF2E7A37B16488DF818308DF81980A5
:101BA00006F05AFD06A806F057FD0C4806F054FD55
:101BB0000F224CE71648019306F04EFD019BBCE74F
:101BC0001F23CEE7183E01082C3E0108403E0108C5
:101BD000503E0108583E01085C3E01086C3E010879
:101BE000703E0108943E0108A43E0108B43E01087D
:101BF000C43E0108D43E0108103F0108203F0108FF
:101C0000243F0108383F0108043E0108803E0108D6
:101C10002C3F0108082D3FF657AF002D3BD06B1E1F
:101C2000DBB20C3202EBC30B0DF11F0700250DF1E7
:101C3000170204EB080111F8013B02F8013FA3F180
:101C40003103B3FA83F397424FEA531343EA45054E
:101C5000F1D113488DF8209006F0FEFC06A806F09E
:101C6000FBFC104806F0F8FC03A9E8B206F09AFD68
:101C700003A808F108088DF80E9006F0EDFC0A485C
:101C800006F0EAFCC345D1D10BF10F031CE707486E
:101C900006F0E2FC71E7C34602F1130314E700BF4C
:101CA000003F0108503E0108583E0108E43E01088B
:101CB000002800F0F98030B583B0044606F03EFEFF
:101CC0000130235C25180BB9012038E02046774904
:101CD00006F04CFE48BB2046754906F047FE20BB87
:101CE0002046744906F042FE002856D1204672492B
:101CF00006F03CFE002862D00A2128460DF10702BA
:101D000006F09EFE9DF80730002BDDD04FF6FE73E7
:101D1000421E9A42D8D8694B80B21A8868498242DA
:101D200008800BD34008188008E02846654906F073
:101D30001DFE30B16FF00102634B1A60002003B04A
:101D400030BD2846614906F011FE20B14FF0FF3248
:101D50005D4B1A60F2E728465D4906F007FE20B1A8
:101D60006FF00202584B1A60E8E7102128460DF187
:101D7000070206F065FE9DF807300446002BA3D04D
:101D8000B0F1005FA0D2B0F5006F03D3514B1A78C9
:101D9000002A50D04C4B1C60D0E70A2128460DF198
:101DA000070206F04DFE9DF80730002B8CD04FF651
:101DB000FE73421E9A4287D8474B1880BEE72046E2
:101DC000464906F0D3FD90B10A2128460DF10702DD
:101DD00006F036FE9DF80730002B3FF475AF384B08
:101DE0001B8883427FF670AF344B1880A6E72046ED
:101DF0003B4906F0BBFD80B128463A4906F0B6FDE6
:101E0000002837D0304B384A1B68A3F50063934253
:101E100046D900222F4B1A7090E72046334906F02E
:101E2000A5FD70B128462F4906F0A0FD68B3002239
:101E30002F4B1A7082E701222E481A7006F00CFC14
:101E4000A8E720462C4906F091FD00283FF43CAF5E
:101E50000DF107020A21284606F0F2FD9DF8072041
:101E6000002A3FF431AFB0F5803FBFF42DAF234AD5
:101E7000108063E72846224906F078FD00283FF4E9
:101E800023AF0122134B1A7058E728461C4906F06D
:101E90006DFD00283FF418AF0122154B1A704DE775
:101EA000184806F0D9FB0FE701207047483F0108AA
:101EB000543F0108943F0108A03F01080800032097
:101EC0000A000320503F0108040003205C3F010882
:101ED000603F0108712B03200C000320AC3F010878
:101EE000BC3F0108C83F0108FFF7FF1FF43F01088E
:101EF000702B0320683F0108F83F01080000032011
:101F000064510108CC3F010810B5364884B006F092
:101F1000A3FB354B01A9188806F0C0FD01A806F007
:101F20009BFB324C324806F097FB324806F094FB9C
:101F300001A9206806F0C8FB002301A88DF80C3029
:101F400006F08AFB2368991C40D05A1C42D0033308
:101F500044D0294806F080FB284B01A9187806F0E8
:101F60009DFD01A806F078FB254806F075FB254B82
:101F700001A9187806F092FD01A806F06DFB224831
:101F800006F06AFB214B01A9188806F087FD01A81D
:101F900006F062FB1E4806F05FFB1E4B01A9188885
:101FA00006F07CFD01A806F057FB1B4806F054FB29
:101FB0001A4B01A9188806F071FD01A806F04CFB28
:101FC000174806F049FB002004B010BD154806F084
:101FD00043FBBEE7144806F03FFBBAE7134806F0A0
:101FE0003BFBB6E70040010800000320040003208B
:101FF0000C4001081440010834400108712B0320F3
:1020000040400108702B0320484001080C000320C9
:102010006C4001080A0003207C40010808000320EE
:102020006C3E01081C400108244001082C400108B6
:102030002DE9F0410026104D104FFFF7B9F86E6200
:102040006A6A3B889A4212D24FF08044DFF83480AB
:10205000B8F800206662636A9342FCD34FF40071C3
:10206000074808F081FC6A6A3B889A42F0D301F085
:1020700019FA0020BDE8F08100480140000003206B
:10208000000402420A0003202DE9F04F7A4B91B080
:102090001B88B3F57A7F60D9FFF78AF872B6774B61
:1020A0001868831C00F0D780C71C6DD0411C5BD121
:1020B0004FF000094FF0804C714B724A1B88B2F808
:1020C00000A00393704B0AEB8A041D686A4B6F49AA
:1020D000B3F800E06E4F64000B69DA05FCD5DCF85C
:1020E000242092B20B69DB05F6D5DCF824309B1A6C
:1020F000A342F7D30B6913F4807307D07B6A73454F
:1021000000F2B1800B6913F48073F7D1CCF824305E
:10211000B9F1000F1AD01D464FF08040039ADFF846
:102120008C81DFF868B104AE436A9342FCD3DBF8DC
:102130001030524413F4807F16F8013B0AD0312B43
:10214000CAD10135A94508F8013BEDD14E4BC3F882
:10215000009032E0302BF4D0BEE74E4806F07CFA17
:10216000002011B0BDE8F08F30244B4B4B4A19785A
:10217000127804AB0094FFF765F88146002899D1E6
:10218000474806F069FA93E74FF080443D4B3F4AD9
:10219000188800EB800040001369DE05FCD5616AF9
:1021A00089B21369DD05F7D5636A5B1A8342F8D3F8
:1021B00000236362304BB3F800E00026344D6E62BA
:1021C0006B6A73452FD22E4B4FF08041B3F800C09D
:1021D0002C4B2E4C1F8802E06B6A73452ED223696C
:1021E00013F48073F8D162461846D5F824804B6208
:1021F0004B6A9342FCD32369013013F48073C0B25D
:1022000019D00B283A44F3D1A2EB0C024B6A93424B
:10221000FCD36B6AA3EB08031E446B6A7345DED3E1
:10222000204B03FB06F662B601F03CF9124B1B880B
:10223000B6FBF3F095E718463A44D9E762B601F0E9
:1022400031F9184B0C4A06FB03F31088B3FBF0F08E
:1022500011B0BDE8F08F4FF0804300225A62064B68
:10226000B3F800E0A9E7084B1D6062B60E4806F01F
:10227000F3F901F017F973E70000032004000320CD
:10228000080003200A000320742B032000040242EC
:102290000048014090400108712B0320702B03205F
:1022A000DC3D0108A0860100AC400108782B03202A
:1022B0002A4B70B51B680333012B37D9FEF778FF23
:1022C00072B60022264B5A62FFF730F928BBFEF7A0
:1022D00017FF044600283AD162B6224E3368072B16
:1022E0002ED9214D284606F0B7F9204806F0B4F95A
:1022F00033682846EC54FFF7F5F9D8B1284606F0C4
:10230000ABF91B4806F0A8F92846FFF7BDF9FFF71F
:10231000E3FA01F0C7F8204670BD62B6154806F032
:102320009BF901F0BFF80124204670BD124806F069
:1023300093F9F8E7114806F08FF901F0B3F8F3E7E5
:102340000F4806F089F901F0ADF8204670BD62B67D
:102350000C4806F081F901F0A5F8E4E70400032039
:1023600000480140742B0320782B032040410108D2
:1023700058410108F4400108C040010848410108E3
:1023800028410108104101082DE9F04F91B0FEF7F6
:102390000FFF72B600254FF0804270497048714BB4
:1023A000556205604D621868811C00F0A180C31C55
:1023B00000F0B380421C7FD1AB464FF0804E6A4B99
:1023C0006A481E886A4B06EB86041A88694BDFF858
:1023D0008C81B3F8009064000369DB05FCD5DEF85E
:1023E000241089B20369DF05F6D5DEF824305B1AC4
:1023F000A342F7D3036913F4807307D0D8F82430CD
:102400004B457ED8036913F48073F7D1CEF824309E
:10241000BBF1000F00F09B801D46574B11469A46BA
:102420004FF0804703930DF1100C7B6A8B42FCD375
:102430004E4B31441B6913F4807F1CF8013B54D090
:10244000312BC9D10135AB450AF8013BEDD1444BE5
:1024500006FB0B22C3F800B040F69E739B451AD8CA
:102460004FF080414FF0300C3127039B0BF1FF30D0
:10247000424D3E4C18444B6A9342FCD32369DB0522
:102480002DD500F8017FA8423244F4D140F69F7365
:102490009B46334A13600024039B03F80B4062B64B
:1024A00001F000F8344806F0D7F8354806F0D4F8C3
:1024B000204611B0BDE8F08F324B334A19783023F3
:1024C0001278009304ABFEF7BDFE834600287FF42C
:1024D00074AF2E4806F0C0F8214B1D686DE700F878
:1024E00001CFA8423244C6D1D0E7302BAAD073E73F
:1024F0001D4B1F491E88204B5562AB460A8803932B
:10250000AEE7174B1D6062B6214806F0A5F800F053
:10251000C9FF012011B0BDE8F08F134B13491E888D
:1025200006EB860464000B69DF05FCD5506A80B2B7
:102530000B69DD05F7D5536A1B1AA342F8D30023B4
:102540000B490D489B46039053620A8888E70A4B63
:102550000393034BC3F800B082E700BF004801407B
:10256000742B0320040003200A000320000402420D
:102570000800032000000320782B0320163B0320D3
:102580006C3E0108712B0320702B0320DC3D0108F9
:10259000AC400108002800F019812DE9F04F95B0FA
:1025A000834606F0CBF9B0F57A6F28BF4FF47A6016
:1025B000894E81463368033340F0C480FEF7F8FD4E
:1025C00072B600254FF08044844B65625D623068CE
:1025D000834B1D60831C00F0E380C71C00F0C580A6
:1025E000471C00F0BA80302300937E4B1A787E4B54
:1025F000197808ABFEF726FE8246002800F0AF806F
:102600007A4B4FF0804E1A8879491346098802EBBD
:102610008204059177497848B1F800806F4F6400D3
:102620000169CE05FCD5DEF82460B6B20169C905A2
:10263000F6D5DEF82410891B8C42F7D8016911F415
:10264000807107D0796A414500F2B480016911F4C4
:102650008071F7D1CEF82410BAF1000F00F0B880E5
:102660004FF0804C0D466549059E0691049108A9DE
:1026700003910794DCF82410B142FBD35E49039C1C
:102680000969164411F4807F14F8011B039460D08B
:10269000312960D1049C013504F8011BAA4504943A
:1026A000E8D105990024114418464FF080424FF4B8
:1026B000007E4FF0300840F69F7C494D504E4E4F03
:1026C0002C60556A8542FCD3A1453FD91BF80450C4
:1026D000312D3BD0302D04D14FF0007A464DC5F856
:1026E00018A0556A8D42FCD33D690134ED0544BF05
:1026F000312506F8015F3A4D58BF06F8018F644551
:102700002C6018441944DCD14FF47A6000224FF059
:10271000804100FB03F3069880F89F2F4A6A9A4293
:10272000FCD34FF40072344B9A6162B600F0BAFEEB
:10273000324805F091FF334805F08EFF002015B0B8
:10274000BDE8F08F304805F087FF37E7C7F818E09D
:10275000C7E730299ED0079C62E7AA4650E72B487E
:1027600005F07AFF1E4B1D684AE7204B224D1A8860
:10277000134602EB820149002869C605FCD5666A4A
:10278000B6B22869C005F7D5606A801B8842F8D3C5
:10279000002161621649098805911849069180E770
:1027A000124A134B12881B881449656205930691DF
:1027B000134676E70A4B1D6062B6154805F04CFFDC
:1027C00000F070FE012015B0BDE8F08F01207047C9
:1027D0000A49069165E700BF040003200048014054
:1027E000742B0320702B0320712B03200A0003207D
:1027F000080003200000032000040242782B03207D
:10280000772B03206C3E010868410108DC3D01087C
:10281000F44001082DE9F04F91B0FEF7C9FC72B603
:1028200000229C499C4B4A621868831C00F0188166
:10283000C71C00F04981441C02D14FF0000E0CE08F
:102840003024964B964A1978127804AB0094FEF720
:10285000F9FC8646002800F017814FF08044914A29
:10286000914B1288B3F800C00392904B904A0CEB46
:102870008C05B2F800B01E688E49864F6D000A695B
:10288000D005FCD5606A80B20A69D205F7D5626AC4
:10289000121A9542F8D80A6912F4807207D07A6A3F
:1028A0005A4500F2D2800A6912F48072F7D162624E
:1028B000BEF1000F00F0258116467F4A4FF0804898
:1028C0009146039802920DF1100AD8F82420824212
:1028D000FBD3784A6044126912F4807F1AF8012B06
:1028E00000F0AA80312ACAD10136B64509F8012B79
:1028F000EBD1039A0CFB0E2200244FF0804040F6EF
:102900009E764FF0310830276A4D416A9142FCD3E0
:102910002969013411F480710AD1B64598BF029C2F
:10292000624498BF04F80E700C460EF1010EECE7FD
:10293000B64598BF0299624498BF01F80E80092CF1
:102940000EF1010EE1D10399DFF848A1594EC3F809
:1029500000E0511A0393DAF82400584533D840F6C2
:102960008E739E452FD8029B0EF1FF351D4400202B
:102970004FF080434FF031094FF030080EF1010461
:102980005F6A8F42FCD3052894BF4FF000774FF465
:102990000077B7615F6A9742FCD337696144FF05EE
:1029A00054BF05F8018F05F8019FDAF824706244DE
:1029B0005F4504EB000ECED801301028E0D1DAF8E4
:1029C00024305B45CBD94FF08042039BC3F800E035
:1029D000536A8B42FCD32F4C636A5B4518D84FF087
:1029E000804300274FF000764FF400750CEB4C014C
:1029F000304849004FEA0C1C5F6286615A6A8A427D
:102A0000FCD385615A6A6245FCD3626A5A45F3D9A0
:102A1000BEF57A6F14D20023029A02F80E3062B625
:102A200000F040FD244805F017FE244805F014FE90
:102A3000002011B0BDE8F08F302A3FF455AF1EE7FB
:102A40000023029A82F89F3FE9E71E6062B61C48A5
:102A500005F002FE00F026FD012011B0BDE8F08F68
:102A60004FF08045104C144E104B0E481049B4F8EE
:102A700000C002966A620288D3F800E00392B1F8BF
:102A800000B00EFB0C2237E70E4805F0E5FD4FF0D5
:102A9000000EE2E60048014004000320712B0320F1
:102AA000702B0320080003200A000320742B03204E
:102AB0000000032000040242782B03206C3E010832
:102AC000F4400108DC3D01084FF080420F4B1048F4
:102AD000B3F800C00CEB8C0149000369DE05FCD59E
:102AE000546AA4B20369DD05F7D5536A1B1B8B42F8
:102AF000F8D30024074D084B029508480849546252
:102B0000B9E70449039A0291F6E600BF0A000320E0
:102B100000040242782B0320742B032008000320BA
:102B2000000003202DE9F04FA24C93B0236803333B
:102B3000012B40F214818346FEF73AFB72B6002661
:102B40004FF080429C4B5E629C4B1E605662206838
:102B5000811C00F02581C31C00F04A81421C72D107
:102B600034464FF0804C964BDFF864A21D88954B9D
:102B700005EB850E1B8894490593944BDFF838824A
:102B8000B3F800904FEA4E0E0B69DB05FCD5DCF87C
:102B9000242092B20B69DF05F6D5DCF824309B1AAD
:102BA0009E45F7D80B6913F4807308D0D8F8243009
:102BB0004B4500F2C6800B6913F48073F6D1CCF854
:102BC0002430002C00F02E814FF080401E46804BB8
:102BD00006AF059A04930397436A9342FCD37A4B5A
:102BE000039F1B692A4413F4807F17F8013B039766
:102BF0003BD0312BC8D1049F013607F8013BB442CA
:102C00000497E9D16D4B1C60059B05FB043300263E
:102C10004FF0804240F69E7C4FF031094FF0300873
:102C2000694F0BF1060E516A9942FCD3396901369E
:102C300011F4807104F101001AD1644521D90E46C6
:102C400004462B44EFE7634B1A7830230093624B22
:102C5000197806ABFEF7F6FA0446002881D15F48E2
:102C600005F0FAFC554B1E687BE7302BC3D08BE791
:102C7000644598BF0AF80490B6452B4407D904462A
:102C8000D1E70AF804800E4601342B44CBE7014615
:102C90004FF08040059A9E1A426AB242FCD34FF030
:102CA00000774FF08040484A9761426A9A42FCD3CD
:102CB000454A0234126912F4807F40F69E7255D163
:102CC000914261D93D48944204602E442B4442D83D
:102CD0004FF080424FF4007C4FF031084FF0300E3F
:102CE0003F4F394C5144506AB042FCD3C4F818C02D
:102CF000506A8342FCD82069C0051BD401F801EF5B
:102D0000B9422E442B44EED140F69F732B4A1360F8
:102D100040F69F7300220AF8032062B600F0C2FB5F
:102D20002B4805F099FC2F4805F096FC002013B0C5
:102D3000BDE8F08F01F8018FB9422E442B44D2D167
:102D4000E2E71E4B28481C461E6005F085FC236800
:102D5000B3F57A6FDED300238AF89F3FDDE723487F
:102D600005F07AFC012013B0BDE8F08F9142A9D89C
:102D7000124A2E44146031220AF8012040F69F7254
:102D800094422B44A4D1C3E70C4A2E441460302251
:102D90000AF8012040F69F7294422B4498D1B7E77D
:102DA000084B56621B88064A34461588DFF820A077
:102DB00005932CE70400032000480140742B0320F6
:102DC0000A00032008000320000402420000032040
:102DD000782B0320702B0320712B0320DC3D01088E
:102DE000163B03206C3E0108AC41010898410108E4
:102DF0000D4B0E491D8805EB850464000B69DF054A
:102E0000FCD5506A80B20B69DE05F7D5536A1B1AF0
:102E1000A342F8D30024064B54621B88DFF814A0A9
:102E20000593F4E6059BF2E60A0003200004024243
:102E300008000320782B03209B4B2DE9F04F1B68E3
:102E400093B00333012B40F224818146FEF7B0F9A1
:102E500072B60023DFF87CB2944ACBF82430DBF85A
:102E600024301688B34280F0DA80914C09F10609CB
:102E700000274FF080428C4B57621D688D4BA91C78
:102E80001F6000F0D680EB1C00F0E480691C00F0AD
:102E9000CD8030230093884B28461A78874B1978C9
:102EA00006ABFEF7CFF98246002800F0CB8038460B
:102EB0004FF08047824BB3F800E0824B0EEB8E0C54
:102EC0001B884FEA4C0C04932369DA05FCD57A6A17
:102ED00092B22369DB05F7D57B6A9B1A6345F8D369
:102EE000236913F4807308D0DBF82430B34200F276
:102EF000CA80236913F48073F6D17B62BAF1000FA4
:102F000000F0C4804FF0804118466F4B049A039341
:102F10000DF1180805954B6A9342FCD3236972445E
:102F200013F4807F18F8013B1FD0312B1FD1039D74
:102F3000013005F8013B82450395ECD1DDE904350C
:102F400000FB0E3200274FF0804101304B6A934264
:102F5000FCD32369013713F4807300F1010C08D00E
:102F6000B945724409D96046F0E7302BDFD0059DA2
:102F7000AAE71F4672440130E8E74FF080414D4B0D
:102F80001860049BD21A4B6A9342FCD34FF0007333
:102F90004FF080417244A3614B6A9342FCD34FF4DB
:102FA000007CC4F818C0DBF82430B34237D20235B5
:102FB0007FF45EAF4FF080414FF0000E4FF0007B8A
:102FC0003F4B3B4D1F883F4BDFF808A1B3F8008013
:102FD000002442462046C1F824E0C1F824E04B6AB0
:102FE0009A42FCD82B69013013F4807358D0814584
:102FF00004F101043A44F2D8A2EB08024B6A9A4267
:10300000FCD8C5F818B03A444B6A9A42FCD8C5F8C7
:1030100018C0DAF824309E42DAD8264B1C6062B61B
:1030200000F040FA002013B0BDE8F08F3846BA46F1
:103030003EE7244B57621A88214B3846B3F800E02C
:1030400004927FE7214805F007FB184B1E88194BB7
:1030500018682DE71A4B1649B3F800E00EEB8E07FF
:103060007F000B69D805FCD5506A80B20B69DB057F
:10307000F7D5536A1B1ABB42F8D30020114B50629C
:103080001A8804925EE70B4B1860C8E75046049A12
:1030900058E70F4805F0E0FA012013B0BDE8F08FC3
:1030A000184601343A449AE7040003200000032044
:1030B00000040242742B0320702B0320712B032089
:1030C0000A00032008000320782B0320DC3D0108C0
:1030D0009841010800480140034600B583B0084606
:1030E0005BBA02220DF10601ADF8063005F0FCFBDB
:1030F00003B000BD8446002310B50C4682B00DF12C
:10310000060002226146ADF8063005F0EDFBBDF881
:103110000600012C98BFC0B240BA80B202B010BD08
:103120008446002310B50C4682B00DF10600022241
:103130006146ADF8063005F0D7FBBDF80600012C5E
:1031400098BFC0B240BA80B202B010BD034600B50D
:1031500083B008465BBA02220DF10601ADF80630D5
:1031600005F0C2FB03B000BD8446002310B50C4639
:1031700082B00DF1060002226146ADF8063005F07E
:10318000B3FBBDF80600012C98BFC0B240BA80B2B4
:1031900002B010BD8446002310B50C4682B00DF17C
:1031A000060002226146ADF8063005F09DFBBDF831
:1031B0000600012C98BFC0B240BA80B202B010BD68
:1031C000034600B583B008465BBA02220DF1060142
:1031D000ADF8063005F088FB03B000BD844600233F
:1031E00010B50C4682B00DF1060002226146ADF822
:1031F000063005F079FBBDF80600012C98BFC0B27F
:1032000040BA80B202B010BD034600B583B0084694
:103210005BBA02220DF10601ADF8063005F064FB41
:1032200003B000BD8446002310B50C4682B00DF1FA
:10323000060002226146ADF8063005F055FBBDF8E8
:103240000600012C98BFC0B240BA80B202B010BDD7
:103250008446002310B50C4682B00DF10600022210
:103260006146ADF8063005F03FFBBDF80600012CC5
:1032700098BFC0B240BA80B202B010BD08707047AB
:1032800000787047002300B5012983B0ADF80630FF
:1032900002D8184603B000BD014602220DF1060017
:1032A00005F022FB9DF8060003B000BD002300B529
:1032B000012983B0ADF8063002D8184603B000BD2E
:1032C000014602220DF1060005F00EFBBDF80600D6
:1032D000000A03B000BD00BF007870470870704757
:1032E000007870478446002310B50C4682B00DF17B
:1032F000060002226146ADF8063005F0F5FABDF889
:103300000600012C98BFC0B240BA80B202B010BD16
:10331000034600B583B008465BBA02220DF10601F0
:10332000ADF8063005F0E0FA03B000BD8446002396
:1033300010B50C4682B00DF1060002226146ADF8D0
:10334000063005F0D1FABDF80600012C98BFC0B2D6
:1033500040BA80B202B010BD007870470078704764
:10336000012994BF00780088704700BF007870473B
:103370002DE9F04F3A4B8346984283B007D8394B3A
:10338000984260D94FF028094FF4487609E0364951
:103390004FF02509B1FBFBF1C9B2192940F2EE2625
:1033A0005BD90124304B0134A4B2B3FBF4F1B1FB7F
:1033B000FBF1C9B21929F6D8B4F5806F3FD20120CC
:1033C0002A4BCDF804B01F6823186FF0004C4FF45F
:1033D0007A759B461FFA83FAA1F1020EBEEB510FDC
:1033E0004FEA51031ADD01F1FF385FFA88F805FB57
:1033F00003F2B2FBF1F2B21A002AB8BF52426245A0
:1034000009DA914507DB00209446A8EB0302D2B20B
:10341000FB617C613A6201337345E8DB124B1FFAB2
:103420008BF4B3FBFAF1019BB4F5806FB1FBF3F1C0
:103430000AF1010AC9B203D004F1010BCCE7012063
:1034400003B0BDE8F08F08494FF02B09B1FBFBF149
:10345000C9B2192940F26B36A3D80124AFE700BFE7
:1034600000350C0020A10700005A6202103C032026
:1034700038B50C46064D0749074B0A6028600749D6
:1034800001201C600DF0BEFD054B186038BD00BF6B
:10349000103C0320083C03200C3C0320203B03206D
:1034A000703B032030B53F4C83B0206806F00CFB26
:1034B000206806F051F9002851D100223A4D4021F0
:1034C0003A482A71EA602A616A61AA61AA60EA61DF
:1034D00085F8202007F042FA206805F1240106F063
:1034E00025FA00285BD13249206806F01FFA00282F
:1034F00052D10023022220681146009306F042FABE
:10350000002846D1206806F083FA00283ED1002228
:103510000121206806F034FCA8BB002206212068A7
:1035200006F02EFC60BB07224FF4F051206806F035
:1035300027FC10BB07228021206806F021FCC8B9B7
:1035400000221C49206806F01BFC80B900224FF4C1
:103550006021206806F014FC20B903B030BDFDF7EF
:10356000C1FDAAE703B0BDE83040FDF7BBBDFDF7E4
:10357000B9FDEBE7FDF7B6FDE2E7FDF7B3FDD9E7EF
:10358000FDF7B0FDCFE7FDF7ADFDC6E7FDF7AAFDFE
:10359000BDE7FDF7A7FDB5E7FDF7A4FDA9E7FDF73A
:1035A000A1FDA0E7103C032010000320000402420C
:1035B0004C00032000407100014B186806F084BAEB
:1035C000103C0320082824D8DFE800F0080C101471
:1035D000171A1D2005001448FFF7CABE42F21070EA
:1035E000FFF7C6BE44F62060FFF7C2BE4CF2503073
:1035F000FFF7BEBE0D48FFF7BBBE0D48FFF7B8BED4
:103600000C48FFF7B5BE0C48FFF7B2BE0B48FFF7FA
:10361000AFBE0B4AA0F51C53103B934201D90120C9
:103620007047FFF7A5BE00BF40420F00A086010013
:1036300048E8010090D0030020A1070000350C00ED
:10364000301B0F000346054A197800205161597854
:10365000D16199781162DB7893617047802A0320E9
:103660000246024B00209A61704700BF802A032067
:10367000034600B5064A93F801E093F800C082F8CB
:1036800010E004499B7881F800C05374002000BD0D
:10369000802A0320BC0603202DE9F047054682B0AE
:1036A000C0680F4605F014F9AB68B3F1005F3ED077
:1036B0000646824600F12409264C4FF0FF3120686F
:1036C0000DF05EFD0128F8D1DFF89480D8F80000F5
:1036D0000DF03CFF484517D202251F4A13792B43B2
:1036E0001371002320681A4619460DF0EFFB1B4AA0
:1036F0000223126810680022114600920FF096F81B
:10370000284602B0BDE8F08729464FF0FF33242257
:10371000D8F800000DF03CFF054686B94D450CD0A9
:103720000D4A0125137943F008031371D9E74FF0CF
:10373000000A4FF024095646BEE70025D1E752465D
:1037400039464FF0FF33D8F800000DF021FF054453
:10375000E4E700BF703B0320100003200C3C032073
:10376000183B032030B40122002410200A4B04210E
:103770001B684FF440751C82C3E90520DC601862A9
:103780003F240F209A74C3E90125DC61C3E90921B4
:1037900030BC1963D8627047103C03202DE9F04714
:1037A00000250C4682B0C9070646019516D4A2072B
:1037B00007D50221314A137943F0010313713368AD
:1037C0001965630738D4019B2BB14FF0E0234FF00C
:1037D0008052C3F8042D02B0BDE8F087DFF8A8904E
:1037E000DFF8988040214A46254B06F0E5F9D8F8E5
:1037F0001430D9F80C000133C8F8143005F068F81B
:10380000DFF888A00746DAF800000DF09FFE07F108
:103810002803984224D349462822DAF8000001AB55
:103820000DF050FF002FC2D03A46DAF800001449DC
:1038300001AB0DF047FFBAE70424104B11499A6918
:10384000086801329A611A79002142F008021A715F
:10385000336800680DEB04021C650FF007F9B2E74E
:10386000D8F8183029460133C8F81830054B01AA9A
:103870001B6818680FF0FAF899E700BF10000320E2
:10388000C83B0320083C0320A03B03201C3B032033
:10389000002110B50A4A0B4C1268236982B01068E7
:1038A000013301AA236101910FF0E0F8019B2BB1D4
:1038B0004FF0E0234FF08052C3F8042D02B010BD4A
:1038C0000C3C032010000320002110B50A4A0B4CC9
:1038D0001268E36982B01068013301AAE3610191C3
:1038E0000FF0C4F8019B2BB14FF0E0234FF0805252
:1038F000C3F8042D02B010BD083C032010000320C3
:1039000038B50C46104D294606F0F0F9A10303D551
:10391000EB68A3B90D4A1360620309D52B690B4A02
:10392000012B13790CBF43F0040303F0FB03137165
:10393000230303D50122054B83F8202038BD4FF027
:103940000042024B1A60E7E7743B0320100003209B
:10395000F0B500250B7885B0074602950395CBB1ED
:103960000C460DF1FF3608E02046D5B204F054FFB6
:1039700014F8023F06F8010F23B163786A1C0BB3F9
:10398000072DF1D18DF808502A4669460DF109003E
:1039900010F05CF900230E4C0820C4E90533C4E99B
:1039A0000133276004F09AFF082203460DEB020161
:1039B0000848E36004F098FF20460649FFF76CFED4
:1039C00005B0F0BD8DF80850002DDDD1E2E700BF55
:1039D000203C0320143C032042F202032DE9F04373
:1039E000002499428BB0445400F2BA80002900F0C0
:1039F000778100F1FF3E0139F4467346014405E04A
:103A00000A2A1CBF025501348B4209D013F8012F3A
:103A1000082AF5D1002CF7D08B4204F1FF34F5D100
:103A20000025AC42055540F355812A460EEB0403B0
:103A30001CF8011F202900F0898082B99C4505F1FE
:103A400001050CF101010CD09CF80140202C7FD025
:103A5000994206D01CF8022F203A18BF01229C453B
:103A6000E6D1A04901AA04F0B7FF0446002800F0FF
:103A700081809D4904F07AFF002800F00681012D25
:103A800040F3B1809749002001AA04F0A5FF9749AF
:103A9000044604F06BFF002870D12046944904F0DE
:103AA00065FF002800F09481924804F0D5FD92480B
:103AB00004F0D2FD8F4804F0CFFD904804F0CCFD17
:103AC0008F4804F0C9FD8D4804F0C6FD8D4804F010
:103AD000C3FD8D4804F0C0FD884804F0BDFD8B484F
:103AE00004F0BAFD8A4804F0B7FD844804F0B4FD40
:103AF000884804F0B1FD884804F0AEFD7F4804F02A
:103B0000ABFD864804F0A8FD854804F0A5FD854876
:103B100004F0A2FD844804F09FFD844804F09CFD5D
:103B2000834804F099FD834804F096FD824804F030
:103B300093FD824804F090FD704804F08DFD6D48BF
:103B400004F08AFD7E4804F087FD0CE0002286E741
:103B5000994286D01CF8021F20297FF46FAF7EE7C0
:103B6000784804F079FD784804F076FD00200BB029
:103B7000BDE8F083754804F06FFDF4E75D4804F09C
:103B80006BFD5D4804F068FD5A4804F065FD5B4834
:103B900004F062FD6E4804F05FFD584804F05CFDDF
:103BA000584804F059FD6B4804F056FD534804F0A2
:103BB00053FD564804F050FD674804F04DFD4F4852
:103BC00004F04AFD534804F047FD644804F044FD06
:103BD0004A4804F041FD514804F03EFD604804F0BD
:103BE0003BFD6048A6E7434804F036FD424804F038
:103BF00033FD404804F030FD404804F02DFD5A48A4
:103C000004F02AFD3D4804F027FD584804F024FD47
:103C1000574804F021FD574804F01EFD564804F0B3
:103C20001BFD564804F018FD554804F015FD554895
:103C300004F012FD544804F00FFD544804F00CFD4C
:103C4000534804F009FD534804F006FD524804F0BF
:103C500003FD524804F000FD514804F0FDFC5148BA
:103C600004F0FAFC504804F0F7FC504804F0F4FC6F
:103C70004F4804F0F1FC214804F0EEFC4D4804F0FC
:103C8000EBFC1C4804F0E8FC6DE720464A4904F0D0
:103C90006DFE00287FF4F3AE2046484904F066FE2E
:103CA00000287FF4ECAE2046454904F05FFE07464D
:103CB00000287FF4E4AE2046424904F057FE8046D7
:103CC000002800F00381022D00F0D3803E4804F06C
:103CD000C3FC48E77FF4C5AE3C4804F0BDFC42E7B6
:103CE0000170F9E7D841010808420108244201089F
:103CF000C44301082C4201086C4201086C3E0108D3
:103D0000CC430108A8420108E0430108EC42010845
:103D10001C440108104301083044010864430108B1
:103D20007C4401089C440108AC440108CC440108CF
:103D3000DC440108FC4401080C4501083845010831
:103D400008470108C041010840610108DC41010841
:103D500098420108B8420108F44201081C430108D6
:103D600070430108B44301085C470108004801089A
:103D70000C48010880480108084901083449010835
:103D800084490108D4490108244A01087C4A0108F1
:103D9000E84A0108104B01083C4B01089C4B010804
:103DA000044C0108504C0108944C0108C04C010817
:103DB000184D0108704D0108104201081842010811
:103DC000204201084C450108904D0108D4410108EA
:103DD0002046914904F0CAFD002846D08F4804F0DF
:103DE0003BFC8F4804F038FC8C4804F035FC8D48CF
:103DF00004F032FC8C4804F02FFC8A4804F02CFCC0
:103E00008A4804F029FC8A4804F026FC854804F01E
:103E100023FC884804F020FC874804F01DFC8148FE
:103E200004F01AFC854804F017FC854804F014FCE3
:103E30007C4804F011FC834804F00EFC824804F036
:103E40000BFC824804F008FC814804F005FC814822
:103E500004F002FC804804F0FFFB804804F0FCFB07
:103E60007F4804F0F9FB7F4864E67F4804F0F4FBE8
:103E700068E638467D4901AA04F0AEFD03780446A1
:103E8000002B3FF470AE051D413B232B13D8DFE818
:103E900003F04139312912121212121212121212A7
:103EA00012121212121212121212121212121212F2
:103EB0001212413931296E4804F0CEFB14F8013F4B
:103EC000002B3FF450AEA542DED14CE620466949B6
:103ED00004F04CFD00284ED0022D1FD0664804F09F
:103EE000BBFB40E6654804F0B7FB0021442001F02D
:103EF0007BFEE3E7624804F0AFFB0021432001F0C2
:103F000073FEDBE75F4804F0A7FB0021422001F0CD
:103F10006BFED3E75C4804F09FFBCFE74046534974
:103F200001AA04F059FD03780446002B3FF41BAEB0
:103F3000051D413B232B13D8DFE803F03E36422E0C
:103F40001212121212121212121212121212121251
:103F50001212121212121212121212123E36422EA5
:103F6000434804F079FB14F8013F002B3FF4FBAD0C
:103F7000A542DED1F7E52046444904F0F7FC0028CD
:103F800000F0B180012D00F0A680AE1E012E1FD9D9
:103F90003F4804F061FBE6E53E4804F05DFB01218B
:103FA000442001F021FEDEE73B4804F055FB0121EF
:103FB000422001F019FED6E7384804F04DFBD2E765
:103FC000374804F049FB0121432001F00DFECAE708
:103FD000264901AA002004F0FFFC04F041FCB0F5E2
:103FE000006F80F098802F4F022D386000F08A809B
:103FF0001E4901AA002004F0EFFC064604F09EFCD6
:10400000C107044600F18B80102800F288803546F5
:10401000DFF8948050E000BF4C4501082C420108B5
:104020006C4201086C3E010854450108A842010891
:1040300068450108EC420108A44501081043010845
:10404000B8450108644301080446010824460108F4
:1040500038460108584601086C4601088C4601089C
:10406000A0460108CC460108E0460108D8410108F5
:10407000984E0108C4430108C04E0108744E01085F
:10408000504E01082C4E0108E04D0108984F0108E0
:10409000B84F0108744F01082C4F0108104F010858
:1040A000504F0108783C0320703C0320284604F060
:1040B000B3FB023508F8010BAB1B9BB29C42F5D851
:1040C000601CC0F3470004F009FC0346AC48FB60E9
:1040D00004F0C2FA47E54FF0FF32AA4BAA481A6033
:1040E00004F0BAFA3FE52046A84904F03FFC002856
:1040F00061D0012D52D0AE1E012E14D9A44804F077
:10410000ABFA30E5002004F0E9FB0346A148FB6070
:1041100004F0A2FA27E5A04804F09EFA23E59F48A0
:1041200004F09AFA1FE59E4901AA002004F054FC0D
:1041300004F096FBB0F5006F80F0AB80994F022D34
:10414000386000F09D800CF02BFD28210CF02AFD3A
:1041500001AA9349002004F03FFC064604F0EEFB60
:10416000C2070446DBD41028D9D83546DFF89C8234
:1041700005E0284604F050FB023508F8010BAB1BA4
:104180009BB2A342F5D3601CC0F3470004F0A6FB2A
:1041900003468548FB6004F05FFAE4E44FF0FF3229
:1041A000804B82481A6004F057FA0CF0F9FC182191
:1041B0000CF0F8FCD7E420467D4904F0D7FB10B39F
:1041C000032D03D07B4804F047FACCE4744901AADC
:1041D000002004F001FC7249054601AA002004F009
:1041E000FBFB0A21002204F02BFC734904462846FD
:1041F00004F0BCFBA0B1714B71485C6104F02CFA77
:10420000FFF750F9AFE420466E4904F0AFFB0646D5
:10421000002842D0032D0FD06B4804F01DFAA2E411
:1042200028466A4904F0A2FB002843D0634B684843
:10423000DC6104F011FAE3E75949002001AA04F017
:10424000CBFB6449044604F091FB002874D040F293
:10425000DF7401AA5249002004F0BEFB054604F0B9
:104260006DFB421E92B20D2A034661D8DB075FD474
:1042700020462946FFF76CFB574804F0EDF972E43D
:10428000002004F02BFB03465448FB6004F0E4F9E3
:1042900069E4534804F0E0F965E42046514904F02C
:1042A00065FB0746002851D0022D10D04E4804F07F
:1042B000D3F958E428464D4904F058FB002800F093
:1042C000BD803E4B4A481C6204F0C6F998E7304670
:1042D000334901AA04F080FB451E041D15F8012F87
:1042E000A2F12A03002A3FF43EACA5423FF43BACC6
:1042F0001A2B00F20E81DFE813F003010C010C0110
:104300000C010C010C010C010C010C010C010C0145
:104310000C010C010C010C010C010C010C010C0135
:104320000C010C010C010C018B00390098008F006E
:10433000304804F091F916E420462F4904F016FBAA
:10434000002800F0868040F2E17482E720462B4985
:1043500004F00CFB0646002800F00281022D00F05C
:10436000DC80274804F078F9FFF7FDBB254804F00E
:1043700073F940F2E1702449FFF7EAFAAEE700BFB3
:104380003C500108783C0320A04F01086850010808
:104390008C50010804500108E04F01082450010826
:1043A000D84101084C3C032000510108705001081D
:1043B000285101082C510108943F0108802A03204C
:1043C000485101088C5201089052010860510108BF
:1043D00068510108CC52010864530108E0500108FB
:1043E000B450010878530108805301087C5101083A
:1043F0008451010838530108D05201083054010893
:1044000038540108F4530108C0530108443C032008
:104410009C4804F021F961E79B4804F01DF940F243
:10442000E3709A49FFF794FA58E7994804F014F9B1
:1044300040F2E2709549FFF78BFA4FE7284695491D
:1044400004F094FA68B1944B94489C6104F004F928
:10445000D6E62046924904F089FA80B140F2E2742F
:10446000F7E628468F4904F081FA80B1003C18BF76
:104470000124894B8C481C7404F0EEF8C0E62046F9
:104480008A4904F073FA80B140F2E374E1E6284609
:10449000874904F06BFA90B1003C18BF01247E4BB1
:1044A00084485C7404F0D8F8AAE62046824904F0F7
:1044B0005DFA90B1814804F0CFF80024C9E628469F
:1044C0007F4904F053FA60B1003C18BF01247D4BD2
:1044D0007D481C7004F0C0F892E67C4804F0BCF8FB
:1044E000EBE728467A4904F041FA00286CD0002C0A
:1044F00063D1784804F0B0F80222674BDA607FE6B7
:10450000754804F0A9F840F2DF706049FFF720FA1F
:10451000E4E66E4804F0A0F8E0E638466F4901AAE8
:1045200004F05AFA451E041D15F8012FA2F12A03C2
:10453000002A3FF418ABA5423FF415AB1A2B38D82C
:10454000DFE803F02E373737373737373737373726
:1045500037373737373737373737374F46251C0028
:1045600020465F4904F002FA0746002861D0012D79
:104570003BD05C4804F070F8FFF7F5BA5A4804F0F5
:104580006BF840F2E3705949FFF7E2F9CCE758487D
:1045900004F062F840F2E2705449FFF7D9F9C3E73A
:1045A000544804F059F840F2DF705049FFF7D0F951
:1045B000BAE7464804F050F8B6E74F4804F04CF824
:1045C0000022354BDA601BE64C4804F045F817E64C
:1045D0004B4804F041F840F2E1704449FFF7B8F964
:1045E000A2E7284804F038F89EE701AA3B49304684
:1045F00004F0F2F9434804F02FF8304601F02EFBA6
:1046000032200CF0F1FA2946422001F0EDFA02F0D6
:1046100079FB0CF0E9FA2946432001F0E5FA02F0B3
:1046200071FB0CF0E1FA2946442001F0DDFAFFF7B6
:104630009ABA2046344904F099F930B1022D6DD070
:10464000324804F009F8FFF78EBA2046304904F0EA
:104650008DF9002800F01281012D40F30A8100201D
:104660001E4901AA04F0B8F9044600283FF47BAAC9
:10467000284904F07BF9002868D0274803F0ECFFB4
:10468000FFF771BACC5301081C540108C05301084C
:104690000854010898510108802A03209C51010800
:1046A000D4520108B0510108BC510108D852010888
:1046B000E4510108F4510108DC520108E0520108FC
:1046C00010520108BC0603201C52010814530108B3
:1046D0003C520108405201089C530108D84101088E
:1046E000E4540108F0540108C45401087854010846
:1046F000A4540108505401085C5201087452010886
:1047000084540108185501087455010880550108A2
:1047100034560108084201087C5601083846C14950
:1047200001AA04F059F9451E041D15F8012FA2F144
:104730004103002A3FF417AAA5423FF414AA032B11
:1047400000F22B82DFE803F0912D240B2046B649BE
:1047500004F00CF960B1FDF7ABFDFFF704BAB34804
:1047600003F07AFF40F2E370B149FFF7F1F8DCE7BC
:104770002046B04904F0FAF80646D8B1AE4803F036
:104780006BFFFDF755FCAD4803F066FFFFF7EBB993
:10479000AB4803F061FF40F2E270A549FFF7D8F89B
:1047A000C3E7A84803F058FF40F2E170A049FFF7C3
:1047B000CFF8BAE72046A44904F0D8F800286CD016
:1047C000A24803F049FFFDF75FFC4FF47A730446FB
:1047D000B0FBF3F002A903FB104404F05FF90A21D7
:1047E0000346B4FBF1F24FF02E09642503F12808CB
:1047F000E84408F8209CB2FBF1F8B4FBF5F54FF063
:10480000200E4FF0250C0D2701FB124401FB18224E
:104810000DF12808591C58FA81F1303501F8205C57
:10482000991C303258FA81F101F8202CDA1C58FA20
:1048300082F2303402F8204C1A1D58FA82F202F843
:1048400020EC5A1D58FA82F202F820CC9A1D073348
:1048500058FA82F258FA83F302F8207C02A803F88F
:10486000206C03F0F9FEFFF77EB9794803F0F4FEFF
:104870005BE7784803F0F0FEFFF775B9204676490C
:1048800004F074F800287FF4E7AE2046734904F082
:104890006DF878B10120FFF76AB92046704904F03D
:1048A00065F8064640B36F4803F0D6FEFDF76CFD91
:1048B000FFF759B920466C4904F058F80028E9D1AF
:1048C00020466A4904F052F80028E3D1204668499E
:1048D00004F04CF806460028DCD12046654904F077
:1048E00045F800287AD0012D2BD0022D11DD624829
:1048F00003F0B2FEFFF737B92046604904F036F8FE
:1049000000283ED0032D26D05D4803F0A5FEFFF71A
:104910002AB93046434901AA04F05EF8451EC41C7A
:1049200015F8012FA2F14103002A3FF41CA9A5426A
:104930003FF419A9032B00F23481DFE803F0C440EF
:104940003159504803F088FEC8200CF04DF904F0AE
:10495000E7FCFFF708B9334901AA304604F03CF8F8
:104960000A2102AA8DF8086004F06AF89DF8083060
:10497000C4B2012B00F09C80434803F06DFEFFF7AA
:10498000F2B82046414903F0F1FF002800F0B98059
:10499000032D00F09C803E4803F05EFEFFF7E3B875
:1049A0003C4803F059FE0021432001F01DF932205C
:1049B0000CF01AF90121432001F016F9B0E736484E
:1049C00003F04AFE0021422001F00EF932200CF0E3
:1049D0000BF90121422001F007F9A1E720462F49F8
:1049E00003F0C4FF98B12E4803F036FEFFF7BBB8C2
:1049F0002C4803F031FE0021442001F0F5F832206C
:104A00000CF0F2F80121442001F0EEF888E7264886
:104A100003F022FE204603F01FFE244803F01CFE94
:104A2000FFF7A1B8D8410108445D0108F05501081D
:104A3000C05501084C5D0108505D01085C5D01082E
:104A4000CC5501089C550108645D01086C5D0108A6
:104A5000CC5301084056010838560108E45E0108AD
:104A6000845D01088C5D0108E85E0108F05E0108C4
:104A7000F85E0108005F0108585F0108A45D0108A5
:104A8000AC5D0108085F0108E45D0108F85D0108FC
:104A9000045E01083C6001082860010864600108A8
:104AA0006C60010850600108E8600108FC600108C2
:104AB0003E4803F0D1FD2046FEF7BEF93C4803F026
:104AC000CBFDFFF750B83B4803F0C6FD28E73A4955
:104AD00001AA002003F080FF00230A2102AA8DF81A
:104AE000083003F0ADFF9DF80830C4B2012B7FF40D
:104AF00043AF2E4803F0B0FD2046FEF713F8FFF752
:104B000032B820462D4903F031FF48B12C4803F05C
:104B1000A3FD032D11D02B4803F09EFDFFF723B812
:104B20002046294903F022FF064678B1274803F0C2
:104B300093FDFDF76FFEFFF716B81F4901AA00208D
:104B400003F04AFFFDF726FDFFF70DB82046204988
:104B500003F00CFF70B1042DDDD1174901AA3046D6
:104B600003F03AFFFDF7A4F868B9114803F074FDAB
:104B7000FEF7F9BF2046174903F0F8FE40B1FDF7F4
:104B8000C3F9FEF7F0BF144803F066FDFEF7EBBF74
:104B9000124803F061FDFEF7E6BF114803F05CFD2B
:104BA000C3E50F4803F058FDBAE600BFD05D010829
:104BB000DC5D0108DC5F0108D84101082C5E0108BA
:104BC000345E0108405E0108605E0108685E01080D
:104BD000845E0108A45E0108885E0108AC5E0108DD
:104BE000145601082DE9F04703780546A3F1300279
:104BF000012A0E46A0B040F28F800022824FCDE9FC
:104C00000B227979012910D00024DFF80082752B5E
:104C1000D8F80020CDE90D440A9213D1132E00F0EC
:104C20006E81002020B0BDE8F087701E295C002452
:104C3000692904BF4FF000420646752BCDE90D44AB
:104C40000A92EBD0295D2246722905EB040900F097
:104C5000E58000F2458152297FD054297DD0233B45
:104C6000562B00F23881DFE813F0A90136016D01FF
:104C7000F1013601360136013601360136013601C1
:104C8000360136013601360136013601360136016C
:104C9000360136013601360136013601360136015C
:104CA00036015B01E40136013601DA01B901B001D8
:104CB0006C045C045B01360154043B04550342035D
:104CC00029031B03360136013601E702360136019E
:104CD000CD020D033601AC0260013601360136010A
:104CE000B70236013601BF0268019F023601360164
:104CF000760236015B016B025A024202370224023D
:104D000011023601AB03830336016D033601360110
:104D100063031104FE0300024FF4001142780C916A
:104D2000302A00F0CD804FF48010374F0B90797906
:104D3000012900F0D98000233449722A0968CDE99D
:104D40000D330A9105F1010966D063D8522A02D0C9
:104D5000542A40F0C08001242246B71A092F40F29D
:104D6000BA804FF080434FF0000A601C284407933C
:104D7000CDF820A003F084FD069004F1090028443A
:104D800003F044FD99F800308046522B099003D17E
:104D90004FF00053D0460893404603F099FD05308C
:104DA00000B2B7EB400F40F096800A34013EA642B5
:104DB00088BF00270DD9281903F02EFD0234E4B274
:104DC00020AB53FA87F3B44203F8400C07F1010714
:104DD000F1D303F00BFC10AC01210D4806AE03F03B
:104DE0001BFC21463046FEF757FC022800F08B8062
:104DF00003F008FC4046069D03F06AFD224601468A
:104E0000284600F05DFC0CE7D000032010000320D2
:104E10006C3E0108742A5ED101242246B71A042F81
:104E200059D94FF0000A601C2844CDE907AA03F0C5
:104E300017FD0690201D284403F0E8FC99F8003087
:104E40008046722B099003D14FF00053D04608934F
:104E5000404603F03DFD052300B203EB40039F42B3
:104E600039D10534013EA64288BF00270DD9281943
:104E700003F0D2FC0234E4B220AB53FA87F3B4421D
:104E800003F8400C07F10107F1D303F0AFFB10ACBE
:104E90000121B94806AE03F0BFFB21463046FEF7BC
:104EA000FBFB0228A4D103F0ADFB02E00A200BF0CB
:104EB0009BFE21463046FEF7EFFB0228F6D099E72D
:104EC0000022AE4F0B92797901290DD0AC4B0D9297
:104ED0001B680E920A930121AA4803F04FFBA0E63B
:104EE00074297FF4BCAE99E7721EA95C692900F0B1
:104EF000478300220124CDE90D220A92A2E628462A
:104F000000F08CFD8DE603F07DFB02E00A200BF043
:104F10006BFE21463046FEF7BFFB0228F6D069E75C
:104F20001621994803F02AFB7BE6022ED3D16B7839
:104F3000302B0CBF00230123FB7001218E4803F0AE
:104F40001DFB6EE6032EC6D96F1C384603F088FCA5
:104F50007608023E1FFA86F840450446BBD105F1AB
:104F600004084146B2B2894810AE03F035FC0DF09A
:104F70005BF92246864B8549009602F017FB3946BD
:104F8000BDF8400003F0D6FBBDF840204046804904
:104F900003F078FB0D22BDF840302846023305F8B7
:104FA00013205B00591C03F0E9FA0DF03DF922468D
:104FB000774B7649009603F063FA32E6012E8AD1E8
:104FC000744803F049FB30462CE610A9724804F0FF
:104FD0008DFE02A9704804F0B1FE22E66F4803F08E
:104FE000ADFC431C9E427FF476AF6C4803F0A6FCF8
:104FF0006A490246681C03F0D7FC00287FF46BAFB7
:1050000001215D4803F0BAFAC8200BF0EDFD01F074
:10501000E5FC002840F0FE8201F02CFD5BE7012E4C
:105020007FF459AF0023314653483B7003F0A6FA92
:10503000F7E5022E7FF44FAF6B78302B00F0DB8268
:10504000312B7FF47AAF01233B7176E7062E7FF494
:1050500042AF05225249681C03F052FC002840F080
:10506000D482504803F0F8FA67E7032E7FF433AF99
:105070006878A0F14203022B3FF62DAFAB78302BBE
:105080000CBF0021012100F0AFFD56E7012E7FF497
:1050900022AF3146384803F071FA002000F0DEFDFF
:1050A000002000F0F5FD64200BF09EFD04F038F9BF
:1050B000B7E5042E00F09182092E7FF40CAF681C36
:1050C00003F0DEFB03462E4A23F0004301212A4869
:1050D000136503F053FAA4E50121274803F04EFAC3
:1050E00001232D4A3B70D360FEF7DCF999E5092EC8
:1050F0007FF4F1AE681C03F09BFB0346264C681D51
:10510000636103F089FB0346E81DE36103F084FB60
:10511000034601211848236203F030FA81E56A232F
:105120008DF8403001F0EEFD0DF1410103F03AFB46
:105130000D23042110A88DF8433003F01FFA70E509
:10514000022E7FF4C8AE6B781348302B00F05682E5
:1051500004F03AFCF1E6022E7FF4BDAE6B78302B02
:1051600000F04F82312B0CBF4FF480724FF440722D
:10517000094B9A60E1E600BF6C3E0108D0000320B5
:1051800010000320403D0108AC6101087865012052
:10519000745501207C610108802A0320C861010840
:1051A000E0610108E8610108022E7FF494AE6B789B
:1051B000302B40F0F38101210023B84A1170BB70FD
:1051C000BBE6022E7FF487AE6B78302B0CBF00203D
:1051D000012000F043FDB0E6B14803F03DFA0121A3
:1051E000B04803F0CBF91CE5022E7FF474AE6B7867
:1051F000AD4A303B18BF01230121AA48137403F0C4
:10520000BDF90EE500F08CFD0F21002800F0C281F1
:10521000A64803F0B3F90C21A54803F0AFF901212A
:10522000A44803F0ABF90921A34803F0A7F9022130
:10523000A24803F0A3F9F4E4B31E062B3FF64BAEED
:10524000012200209E4CA9182E4411F8013B00EBCE
:105250008000303B03EB4000DBB2092B8CBF002207
:1052600002F00102A0428CBF002202F001028E4235
:10527000EBD1002A3FF42FAEFEF7A4F900287FF40B
:105280002AAE5AE6022E7FF426AE6B78303B032B13
:105290003FF621AEDFE813F07201690167015D019D
:1052A000012E7FF418AE31467E4803F067F90022E4
:1052B0007D4B3E70DA60FEF7F5F8B2E44E23814D87
:1052C000814E0DF141048DF8403015F8040B214654
:1052D00003F068FAB54204F10204F6D1192110A8CE
:1052E00003F04CF901216F4803F048F999E4042ECA
:1052F00000F05F81092E7FF4EEAD681C03F0C0FA68
:105300000346724A23F0004301216648D36403F048
:1053100035F986E4012E7FF4DEAD3146614803F0B5
:105320002DF90222604B3E70DA60FEF7BBF878E49C
:10533000022E7FF4D0AD6B78302B0CBF00230123FD
:105340007B71FAE5052E7FF4C6AD0126564CA819EF
:10535000666103F061FA0346E81CE36103F05CFA5E
:105360002062FEF79FF831464E4803F007F958E4F3
:10537000574803F071F940214B4804F0F1FC03F069
:1053800075F9544C484804F0F5FC03F06FF92068B7
:105390000CF0DCF803F06AF920684F4C0CF0EAF8E6
:1053A00003F064F920680CF0D1F803F05FF920688D
:1053B0000CF0E0F803F05AF93A4803F04DF930E404
:1053C000022E7FF488AD6B78423B022B3FF683AD13
:1053D00000234FF400124FF48011BB70CDE90B1283
:1053E000099340F281123B7000234FF01409CDE97C
:1053F0000623DFF8D88010AC06AE002000F02EFCAB
:10540000FEF7B0F9FEF74EF864200BF0EDFB68787C
:10541000012100F007FC6878012100F0E5FB484617
:105420000BF0E2FB02E00A200BF0DEFB21463046E7
:10543000FEF732F90228F6D032200BF0D5FBD8F86F
:10544000143023B909F11409B9F5D27FD5D1D8F8B0
:105450001430002B3FF43FAD01211248397003F0A6
:105460008DF8FFF7DEBB78221C4B8DF84020D3F877
:1054700090050DF1410103F027F90D230A2110A831
:105480008DF8493003F07AF8FFF7CBBBFEF70AF846
:105490000121044803F072F8FFF7C3BB8600032024
:1054A000CC6101086C3E0108802A03204461010898
:1054B00064610108D841010870610108583E010883
:1054C00040420F009005FA0BC005FA0B10000320B4
:1054D000C46101081C3B0320183B03200000FA0BA9
:1054E000072E7FF4F8AC681C03F096F903464B4C8A
:1054F000E81C636203F090F90346681DE36203F061
:105500008BF9034601214648236303F037F8FFF780
:1055100088BB4A238DF8403001F002FC0DF14101B7
:10552000A9E7032E53D0052E7FF4D5AC681C03F0F9
:1055300073F90346394CE81CA36103F06DF9A062CE
:10554000FBE44623374A0DF1410110798DF84030D4
:10555000ECE50322334B01213148DA625A6403F04F
:105560000DF8FFF75EBB0222F4E701212D4B2C481A
:10557000D962596403F002F8FFF753BB0022E9E750
:105580004FF00041164600220124CDE90D220A9178
:10559000FFF758BB244802F0F1FF3CE600241F4B04
:1055A0003C70DC60FDF77EFF0122204BBA701C705E
:1055B000C3E4681C03F054F903461A4AC3F30A0310
:1055C00001211748536302F0D9FFFFF72ABB681C7B
:1055D00003F022F9114B9861AFE4681C03F040F925
:1055E0000346104AC3F30A0301210D48936302F0F6
:1055F000C5FFFFF716BB00233B719EE404F0F6F9EC
:105600009BE40022054B9A6097E4094803F024F8D4
:10561000FFF707BB0EF080FB5DE400BF802A03208C
:105620006C3E01081000032054610108860003202D
:1056300000620108704700BF91B14FF0FF3210B413
:10564000084C014410F8013B5340DBB254F82330BE
:10565000884283EA1222F5D1D0435DF8044B7047AB
:105660000846704718640108704700BF704700BFC4
:105670000022014B1A607047A03C0320704700BF16
:1056800000207047024A136801331360704700BF5F
:10569000A03C0320024A136801331360704700BF27
:1056A0009C3C032000200CF02BBC00BF00200CF021
:1056B00027BC00BF0122014B1A70704786000320EF
:1056C00000294AD030B577280C4683B02DD857280A
:1056D00000F284801A2800F03981A0F124031F2BE6
:1056E00039D81F2B37D8DFE813F00D01360036000C
:1056F00036003600360036003600360036003600FA
:105700000601360036003600360036003600360018
:1057100036003600FF003600360036003600360010
:105720003600360036003600F800B0F5EA7F12D2B7
:10573000B0F5DC7F12D2B0F5A87F00F00D8100F249
:10574000FA80982800F09280A22804D11046FDF734
:10575000C7FD844BD87503B030BD7047A0F5DC732E
:105760001B2BF8D801A151F823F000BF795800088D
:105770005757000857570008955800085757000812
:105780005757000857570008575700085757000841
:105790005757000857570008575700085757000831
:1057A0005757000857570008575700085757000821
:1057B00087580008575700085757000857570008E0
:1057C0005757000857570008575700085757000801
:1057D0005757000857570008A3580008A0F158036E
:1057E0001F2BB8D801A151F823F000BFB158000811
:1057F00057570008575700085757000857570008D1
:1058000057570008575700085757000857570008C0
:1058100057570008CD580008575700085757000839
:1058200057570008575700085757000857570008A0
:105830005757000857570008575700085757000890
:10584000BF58000857570008575700085757000817
:105850005757000857570008575700085757000870
:105860005757000857570008135900081046FDF70E
:1058700033FD3C4B98756EE721461046FDF76EFDF3
:10588000384B988367E721461046FDF74FFD354BAF
:10589000588260E721461046FDF768FD314BD883FA
:1058A00059E721461046FDF757FD2E4B188252E767
:1058B00021461046FDF7B6FC2A4B58814BE721469E
:1058C0001046FDF7DDFC274BD88144E72146104602
:1058D000FDF7BEFC234B18813DE721461046FDF73E
:1058E0007DFC204B988236E721461046FDF752FC9E
:1058F0001C4B98802FE721461046FDF735FC194BCD
:10590000D88028E721461046FDF70AFC154B188081
:1059100021E7214610460192FDF7B4FC114D012C00
:1059200028733FF418AF019A21461046FDF7BEFCDC
:1059300085F820000FE740F2A71398427FF40BAFE1
:105940001046FDF7CFFC074B588304E71046FDF7E0
:10595000D1FB044B5880FEE61046FDF701FD014BDC
:105960001883F8E664000320294B1B78002B4DD1E7
:105970002DE9F043274D0646DFF89C8083B005F102
:105980001C0701E0AF423ED055F8044FE36E626E53
:10599000F31A9342F6D3B4F9723001A904EBE30091
:1059A000002B00F1240007DBB4F8683002225BBA58
:1059B000ADF8043002F098FFB4F9743004F1240912
:1059C000002B4FEAE30110DB4846FFF735FE01905C
:1059D000B4F9740004220028B8BF0730C010243086
:1059E00001A904FA80F002F07FFFD8F800304946A0
:1059F00023612046FDF750FEA36EAF4203F1010381
:105A0000E666A366C0D103B0BDE8F083704700BF6F
:105A100086000320146801081000032010B5044616
:105A2000013002F01DFF1649FDF756FB201D02F064
:105A300017FF1449FDF78AFBE01D02F011FF124920
:105A4000FDF7BEFB04F10A0002F00AFF0F49FDF763
:105A5000DBFB04F10D0002F0DFFE0D49FDF70EFC4B
:105A600004F10F0002F0D8FE0A49FDF737FC04F1FB
:105A7000110002F0D1FEBDE810400749FDF748BC17
:105A8000D40303205C030320E40203206C02032000
:105A9000F40103207C0103200401032038B50446EF
:105AA000054B064D1A60296000F026F8204601F0EB
:105AB00083FC002038BD00BFA43C0320A83C032089
:105AC00001F09ABC00B50A4B83B01B6801F0CAFC18
:105AD000012801D003B000BD002206490223096855
