:020000040800F2
:1000000000000420FD4A0008794900087D490008E5
:100010008149000885490008894900084D4B0008BE
:10002000000000000000000000000000C1EB00081C
:100030008D4900080000000051EB000825C40008AD
:100040004D4B00084D4B00084D4B00084D4B000830
:100050004D4B00084D4B00084D4B00084D4B000820
:100060004D4B00084D4B00084D4B00084D4B000810
:100070004D4B00084D4B00084D4B00084D4B000800
:100080004D4B00084D4B00084D4B00084D4B0008F0
:100090004D4B00084D4B00084D4B00084D4B0008E0
:1000A0004D4B00084D4B00084D4B00084D4B0008D0
:1000B0004D4B0008914900089D4900084D4B000830
:1000C0004D4B00084D4B00084D4B00084D4B0008B0
:1000D0004D4B00084D4B00084D4B0008A949000846
:1000E000B54900084D4B0008C14900084D4B0008B8
:1000F0004D4B00084D4B00084D4B00084D4B000880
:100100004D4B0008CD490008D94900084D4B000867
:100110004D4B00084D4B00084D4B00084D4B00085F
:100120004D4B0008E5490008F14900084D4B000817
:10013000FD4900084D4B00084D4B00084D4B000891
:100140004D4B00084D4B0008094A00084D4B000874
:100150004D4B00084D4B00084D4B00084D4B00081F
:100160004D4B0008154A00084D4B00084D4B000848
:100170004D4B0008000000004D4B0008000000003F
:10018000214A00084D4B00084D4B00084D4B00081C
:100190004D4B00084D4B00084D4B00084D4B0008DF
:1001A0004D4B00084D4B00084D4B00084D4B0008CF
:1001B0004D4B0008000000002D4A00084D4B000880
:1001C0004D4B0008000000004D4B00084D4B00084F
:1001D0004D4B00084D4B00084D4B00084D4B00089F
:1001E0004D4B00084D4B00084D4B00084D4B00088F
:0401F000000000000B
:1002000010B5054C237833B9044B13B10448AFF350
:1002100000800123237010BDC003032000000000F4
:1002200018F1000808B5034B1BB103490348AFF3AD
:10023000008008BD00000000C403032018F100087E
:10024000704700BF01F0E8BAF0B5274C274E9BB0CD
:100250004FF0FF332822694620680CF057FF28280A
:10026000F6D1039803F0C8FF0546002834D1029B5D
:100270009BB929460AAA009801F0E4FA0DF046FC61
:100280000AA90246684601F0ABFC0DF03FFC0AA942
:100290000246684601F0AEFADAE7B3F1005FF4D146
:1002A00040F20172009B9342EFD10822039900278C
:1002B000914228BF11460D46C6E90577B760019FF8
:1002C0000B490C48C6E90037F56003F0A1FF304642
:1002D000084901F02FF9D8E74FF0FF332A4620688C
:1002E0000AA90CF013FFC2E7F4280320E803032057
:1002F0009005FA0BE00303202DE9F0431F4D9BB05E
:10030000DFF8808001AE0AAF002404EBC401C4F121
:1003100024024FF0FF33286806EB81010CF0F6FE53
:100320000444232CF1D9049803F066FF039B814613
:10033000B3F1005F00D0A0B9114805F0A1FE50B1A3
:100340003A4631460E4805F065FDD8F80C300133C9
:10035000C8F80C30D8E74FF0FF3201210DF056FEFF
:10036000EAE70024A9EB040239194FF0FF332868AB
:100370000CF0CCFE04444C45F4D3DDE7F028032018
:10038000982703200000032000B583B001F054FA41
:1003900000F0A0FF03221849184804F0D1FF02F032
:1003A00005FB00F0CBFD02F04BFB0DF0AFFB01F0C5
:1003B0001BFA134809F034FB124809F0F9FA124C01
:1003C0000DF0A4FB019002F0F7FA019802F03EFB59
:1003D000019800F0B5FD237813B9019801F086FB70
:1003E000019801F009FA019801F0EEFB0A2101A839
:1003F0000DF0D2FAE4E700BF042A03208828032086
:10040000D024032038240320760003202DE9F04176
:100410000026214DDFF88C80204FA6B012E00EF0B0
:100420003BFA98F8003033B10B9B23B164200CF0F9
:10043000B1F800F04FFF0022022311463868009601
:100440000DF066FE4FF0FF32012100200DF0DEFDC1
:100450000EF014FA124805F069FF044606A9104888
:1004600005F0D4FD02A90E4805F0F8FD54222946F6
:1004700011A8AC600EF0F8FD094B1E66189BB3F591
:10048000003FCCD9AB689B02C9D5012385F8203049
:100490000B9300F0DFFFC2E7000003205C1C032089
:1004A00098270320DC03032000232DE9F04D84B0BE
:1004B0007D4EDFF80082DFF804B27C4DDFF800A249
:1004C0000DF10E078DF80B3013E028680CF028FDB5
:1004D000012808D94FF0FF330222286803A90CF045
:1004E00015FE022845D000214FF0FF3208460DF0DE
:1004F0008DFD30680CF014FD0028E6D04FF0FF337E
:10050000012230680DF10B010CF000FE0128DCD156
:1005100030680CF005FD0128D7D94FF0FF330222D7
:10052000306803A90CF0F2FD0228CED1BDF80C20F2
:10053000B2F5805FC9D2002A40F0A5809DF80B403B
:10054000002C52D10DF0E2FA594B5A49BDF80C205B
:10055000009702F0E3FEBDF80E30002B79D10DF0CC
:10056000D5FA534B5349BDF80C20009703F012FE07
:10057000ABE7BDF80C20B2F5805FB4D272B10024B5
:10058000121B08EB04014FF0FF3328680CF0BEFD8E
:10059000BDF80C20204484B2A242F1D10DF0B6FA8D
:1005A000434B4146BDF80C20009703F0B7FEBDF861
:1005B0000E30002B97D039464FF0FF330222DAF885
:1005C00000000CF0BBFCBDF80E204FF0FF333849A3
:1005D000DAF800000CF0B2FC002202231146DBF82E
:1005E000000000920DF094FD7DE70DF08FFA304B86
:1005F0003049BDF80C20009703F068FDBDF80E30BF
:10060000002BACD02A490A787F2A08D1022BA6D920
:100610008B78A3F11102012AA1D9312B9FD0264852
:10062000394604464FF0FF33022200680CF086FC86
:10063000BDF80E204FF0FF331D4920680CF07EFC02
:10064000002202231146DBF8000000920DF060FD4D
:1006500085E7194839464FF0FF33022200680CF055
:100660006DFC1548BDF80E204FF0FF3310490068AF
:100670000CF064FC022322462146DBF800000094C3
:100680000DF046FD6BE70024121B4FF0FF3308EB23
:10069000040130680CF03AFDBDF80C2023189CB220
:1006A000A242F1D14AE700BF1C040320100403203A
:1006B000507F0120508F012018040320AC09032033
:1006C0000C0403202DE9F04FDFF8148185B0404E73
:1006D000404DDFF810A108F11C0908F5805B02AF5E
:1006E00014E028680CF01CFC012809D94FF0FF33F6
:1006F000022228680DF106010CF008FD022846D000
:1007000000214FF0FF3208460DF080FC30680CF0FD
:1007100007FC0128E5D94FF0FF3302222E4930684B
:100720000CF0F4FC0228DCD1B8F81420B2F5805F9C
:10073000D7D272B10024121B09EB04014FF0FF3332
:1007400030680CF0E3FCB8F81420204484B2A242D4
:10075000F1D10DF0DBF90146204801F0EDFC002855
:10076000BFD103E09BF823000BF014FF0DF0CEF98E
:1007700002F036FD0128B4D030680CF0D1FB01281E
:10078000AFD89AF80030002BECD10A20ECE7BDF886
:100790000620082AB4D86AB10024121B39194FF078
:1007A000FF3328680CF0B2FCBDF80620204484B268
:1007B000A242F2D10DF0AAF93946BDF8062003F0A5
:1007C00067FD01289CD00A200BF0E4FEF2E700BF91
:1007D000180403200C04032068AF0120549F01205B
:1007E00054AF01207600032001F01AB801F01CB8C4
:1007F000002001F01DB800BF10B59EB048220021B6
:100800000CA80EF0A5FB00234FF40070CDE90233D5
:10081000CDE90433CDE90733CDE9093301930693DC
:100820000B9307F0DBFC08B172B6FEE7012302224E
:10083000169311931993179210231D9207229FED7F
:100840001E7BCDE91A320324042312900CA81C93BA
:100850008DED0C7B189407F0FDFE034608B172B6CF
:10086000FEE70F22214601A8CDE903330593029448
:10087000019207F09BFD034608B172B6FEE7104AED
:100880004FF0005C916D4BF67F3441F080719165C3
:10089000926D069302F08072009208932222202328
:1008A00006A8CDE90A230099CDF81CC0099408F0E8
:1008B00031FE1EB010BD00BF290000000000010085
:1008C00000100240F0B595B072B64FF00062AA4B2E
:1008D0009A60BFF34F8F62B6002404F039F9FFF736
:1008E0008BFFCDE90E44CDE91044A44D1294EB6C7E
:1008F0004FF4604143F00403EB64EB6C224603F0D9
:1009000004030793079BEB6C9D4843F08003EB6463
:10091000EB6C012603F080030893089BEB6C43F01B
:100920000103EB64EB6C03F001030993099BEB6C8F
:1009300043F00203EB64EB6C03F002030A930A9B9F
:1009400006F08CF9224640F201118E4806F086F935
:10095000224641F2E4018C4806F080F94FF46043EE
:1009600087480EA9CDE90E361094119405F0C8FF02
:1009700040F2011383480EA9CDE90E36CDE91044AB
:1009800005F0BEFF41F2E4037F480EA9CDE90E3623
:10099000CDE9104405F0B4FF4FF4007379480EA977
:1009A000CDE90E34109605F0ABFF082377480EA969
:1009B000CDE90E34109405F0A3FFAB6C052143F094
:1009C0000403AB64AB6C224603F004030493049B62
:1009D000AB6C1D203343AB64AB6C33400593059B7C
:1009E000AB6C43F00203AB64AB6C03F00203069301
:1009F000069B04F097FD1D2004F0CEFD2246052144
:100A00001E2004F08FFD1E2004F0C6FD22460521A5
:100A1000502004F087FD502004F0BEFD204606F073
:100A20009BFC08B172B6FEE706F0AAFC034640B98B
:100A30005748584AC0E9002308F094FD18B172B62F
:100A4000FEE772B6FEE7544A544B1070544A4FF416
:100A500040711A60102299609A619A620F211322E4
:100A60003C2404275860D8609874D8631846C3E9BA
:100A70000D661E825E615E62DC61D9621A621F636E
:100A800005F01EF8034650BB0BAD0B90CDE90E00F0
:100A9000CDE91000CDE91200C5E901004FF48070E6
:100AA0004FF4301C03214FF480523E4CC4E9023312
:100AB000C4E90A3384F8203084F838303A4B208374
:100AC0002046C4E90467C4F804C0E161626384F8A5
:100AD0003060236004F060F818B172B6FEE772B6B9
:100AE000FEE70B902946204604F0A4FC08B172B63C
:100AF000FEE706230F937F2311932C4B1090139046
:100B00000EA9204612970E9304F074F908B172B63C
:100B1000FEE7274B20460E930C230EA90F9304F0FB
:100B200069F908B172B6FEE7224B20460E931223F4
:100B30000EA90F9304F05EF9034608B172B6FEE702
:100B40001D48C0E9053383801C4B0662036004F036
:100B500055FD08B172B6FEE700234FF40271022280
:100B60001748C372174B8180C0F80720036006F056
:100B700011FC48B372B6FEE700ED00E00010024041
:100B8000000802420000024200040242001C02422D
:100B90009C26032000080C42DC0303209827032036
:100BA00000A4004088280320008002424000201951
:100BB0000002B0250004002AFC2703200030024078
:100BC0001021032000D40040974C984A41F63F730F
:100BD000226042F20F72CDE90E001090A060A06179
:100BE0002046E360626009F00BF9034608B172B673
:100BF000FEE720460EA90E93109309F033F9034641
:100C000008B172B6FEE74F264FF6FF748848894A4E
:100C1000C0E904338360836102604660C46009F008
:100C2000EFF8034608B172B6FEE78348C0E90163F6
:100C3000C0E90343C0E90533804B036009F0E0F8E5
:100C400008B172B6FEE74FF080414FF0FF327C4CA6
:100C50000B90CDE90E00CDE91000C5E90100C4E913
:100C600001002061A06120462160E26009F0C8F81F
:100C700008B172B6FEE74FF4805320460EA90E93DA
:100C800008F00CFF034608B172B6FEE7204629467D
:100C90000B930D9309F0E6F8044608B172B6FEE72F
:100CA000684822460121684B0090CDE9014446F294
:100CB00006000CF0DDF80246644D654E00950121FA
:100CC000CDE90144634B326046F2060022460CF047
:100CD000CFF8614B614A01210092CDE901442246DF
:100CE00018605F4B4FF47A600CF0C2F85D4D5E4BBC
:100CF000224600930121CDE901445C4B28604FF46A
:100D00007A600CF0B5F85A4B22460093594B0121FA
:100D1000CDE901441860584B4FF4A0400CF0A8F8FE
:100D2000564B22460093564B0121CDE901441860F1
:100D3000544B4FF4A0400CF09BF8534B186000F05C
:100D4000F9FF0CF0E3FE3246504B5149009500F09C
:100D500021FF504801F0A4FE4F4800F02BFD4F4802
:100D60004F4A504900F09CFA0EA80E9400F0D8FFAC
:100D700010B90E9B002B53D00BF062FB00214A4AA6
:100D80004A480BF0ADFB0446494B0021494A4A480A
:100D90001C600BF0A5FB0446484B0021484A49481B
:100DA0001C600BF09DFB04463E4B0021464A474821
:100DB0001C600BF095FB0446454B0021454A464814
:100DC0001C600BF08DFB0446354B0021434A444820
:100DD0001C600BF085FB04462D4B0021414A424824
:100DE0001C600BF07DFB0446404B0021404A41480B
:100DF0001C600BF075FB04463F4B00213F4A404806
:100E00001C600BF06DFB04463E4B00213E4A3F4800
:100E10001C600BF065FB3E4B18600BF033FBFEE7EC
:100E20003C4800F055FFA7E7D02403200010004005
:100E30003824032000440140EC23032000480140F3
:100E40001C250320D4040320481F0120B0040320E4
:100E50001C04032040BF0020180403208C0403203E
:100E6000A0AF0020100403206804032000A000208D
:100E7000440403200C04032000500020200403201D
:100E8000F428032000000020F0280320140403208D
:100E9000580E03209C260320FC27032098270320BC
:100EA000041303205C1C03206CF3000845020008B7
:100EB0000C21032048F30008490200080821032000
:100EC00024F30008F902000800F300088903000871
:100ED000B0170320DCF200080D040008B8F2000887
:100EE000A904000894F20008C5060008AC09032014
:100EF00070F20008E9070008000503204CF2000822
:100F0000ED070008FC04032028F20008F1070008A0
:100F1000F804032004006345054A0368934203D0A4
:100F2000044A934202D0704703F024BE00F06CBC28
:100F3000002C01400010004072B6FEE7704700BF71
:100F400010B5094C0949208980B200F099F8208A2F
:100F50000749C0B200F014F9208B064980B2BDE801
:100F6000104000F013B900BF54000320D801032043
:100F700060010320E80003208446002310B50C46DE
:100F800082B00DF1060002226146ADF8063003F092
:100F90003FF9BDF80600012C98BFC0B240BA80B23C
:100FA00002B010BD8446002310B50C4682B00DF18E
:100FB000060002226146ADF8063003F029F9BDF8BB
:100FC0000600012C98BFC0B240BA80B202B010BD7A
:100FD0008446002310B50C4682B00DF106000222B3
:100FE0006146ADF8063003F013F9BDF80600012C98
:100FF00098BFC0B240BA80B202B010BD8446002390
:1010000010B50C4682B00DF1060002226146ADF823
:10101000063003F0FDF8BDF80600012C98BFC0B201
:1010200040BA80B202B010BD8446002310B50C4611
:1010300082B00DF1060002226146ADF8063003F0E1
:10104000E7F8BDF80600012C98BFC0B240BA80B2E4
:1010500002B010BD8446002310B50C4682B00DF1DD
:10106000060002226146ADF8063003F0D1F8BDF863
:101070000600012C98BFC0B240BA80B202B010BDC9
:10108000034600B583B008465BBA02220DF10601A3
:10109000ADF8063003F0BCF803B000BD8446002371
:1010A00010B50C4682B00DF1060002226146ADF883
:1010B000063003F0ADF8BDF80600012C98BFC0B2B1
:1010C00040BA80B202B010BD00787047002300B56E
:1010D000012983B0ADF8063002D8184603B000BD30
:1010E000014602220DF1060003F092F89DF8060079
:1010F00003B000BD002300B5012983B0ADF8063070
:1011000002D8184603B000BD014602220DF10600C8
:1011100003F07EF8BDF80600000A03B000BD00BF72
:1011200000787047007870478446002310B50C465D
:1011300082B00DF1060002226146ADF8063003F0E0
:1011400067F8BDF80600012C98BFC0B240BA80B263
:1011500002B010BD8446002310B50C4682B00DF1DC
:10116000060002226146ADF8063003F051F8BDF8E2
:101170000600012C98BFC0B240BA80B202B010BDC8
:1011800008707047007870470078704708707047A3
:1011900009B1007870470846704700BF0078704773
:1011A0002DE9F04F3A4B8346984283B007D8394B2C
:1011B000984260D94FF028094FF4487609E0364943
:1011C0004FF02509B1FBFBF1C9B2192940F2EE2617
:1011D0005BD90124304B0134A4B2B3FBF4F1B1FB71
:1011E000FBF1C9B21929F6D8B4F5806F3FD20120BE
:1011F0002A4BCDF804B01F6823186FF0004C4FF451
:101200007A759B461FFA83FAA1F1020EBEEB510FCD
:101210004FEA51031ADD01F1FF385FFA88F805FB48
:1012200003F2B2FBF1F2B21A002AB8BF5242624591
:1012300009DA914507DB00209446A8EB0302D2B2FD
:10124000FB617C613A6201337345E8DB124B1FFAA4
:101250008BF4B3FBFAF1019BB4F5806FB1FBF3F1B2
:101260000AF1010AC9B203D004F1010BCCE7012055
:1012700003B0BDE8F08F08494FF02B09B1FBFBF13B
:10128000C9B2192940F26B36A3D80124AFE700BFD9
:1012900000350C0020A10700005A6202E829032053
:1012A00038B50C46064D0749074B0A6028600749C8
:1012B00001201C600BF07CFB054B186038BD00BFA3
:1012C000E8290320E0290320E4290320F82803204B
:1012D00048290320F0B5574E83B0306804F084FDF0
:1012E000306804F0EDFB002840F084800022524D6D
:1012F000402152482A71EA602A616A61AA61AA60A3
:10130000EA6185F8202005F0A9FC306804F06CFD46
:10131000082201233068C0E90D2304F0D1FB002826
:1013200040F0858000240222012340F2FF71C5E9CC
:101330000B23434FA9636C6202E00134082C0ED0EA
:1013400037F8023F3F493068AC626B6304F0A2FC9F
:101350000028F2D00134FFF7EFFD082CF0D1022372
:101360004FF08042002001216B646FF06043C5E9BB
:101370000F20354A3068C5E9121234492B6504F054
:1013800089FC08B1FFF7D8FD00230222306811461E
:10139000009304F0ABFC002846D1306804F0C8FC90
:1013A00000283ED100220121306804F06FFEA8BB66
:1013B00000220621306804F069FE60BB07224FF46A
:1013C000F051306804F062FE10BB072280213068C3
:1013D00004F05CFEC8B900221D49306804F056FED6
:1013E00080B900224FF46021306804F04FFE20B92C
:1013F00003B0F0BDFFF7A0FD78E703B0BDE8F04013
:10140000FFF79ABDFFF798FDEBE7FFF795FDE2E7E1
:10141000FFF792FDD9E7FFF78FFDCFE7FFF78CFDD0
:10142000C6E7FFF789FDBDE7FFF786FDB5E7FFF7E4
:1014300083FD77E7E829032000000320000402422F
:101440008EF3000824000320FECA77003C0003202E
:1014500000407100014B186804F0C6BCE829032065
:10146000082824D8DFE800F0080C1014171A1D20F3
:1014700005001448FFF794BE42F21070FFF790BECB
:1014800044F62060FFF78CBE4CF25030FFF788BE68
:101490000D48FFF785BE0D48FFF782BE0C48FFF7E9
:1014A0007FBE0C48FFF77CBE0B48FFF779BE0B4AA6
:1014B000A0F51C53103B934201D901207047FFF760
:1014C0006FBE00BF40420F00A086010048E8010047
:1014D00090D0030020A1070000350C00301B0F0046
:1014E0000346054A1978002051615978D1619978ED
:1014F0001162DB7893617047982703200246024B04
:1015000000209A61704700BF98270320034600B56A
:10151000064A93F801E093F800C082F810E004490D
:101520009B7881F800C05374002000BD98270320E9
:10153000DC0303202DE9F047054682B0C0680F4662
:1015400002F05AFEAB68B3F1005F3ED00646824619
:1015500000F12409264C4FF0FF3120680BF0E6FA29
:101560000128F8D1DFF89480D8F800000BF0C4FC13
:10157000484517D202251F4A13792B4313710023C4
:1015800020681A4619460BF077F91B4A02231268A5
:1015900010680022114600920CF0BAFD284602B0F5
:1015A000BDE8F08729464FF0FF332422D8F8000029
:1015B0000BF0C4FC054686B94D450CD00D4A0125FB
:1015C000137943F008031371D9E74FF0000A4FF085
:1015D00024095646BEE70025D1E7524639464FF06A
:1015E000FF33D8F800000BF0A9FC0544E4E700BF86
:1015F0004829032000000320E4290320F0280320C9
:101600002DE9F04700250C4682B0C9070646019532
:1016100016D4A20707D50221314A137943F00103FA
:10162000137133681965630738D4019B2BB14FF0F0
:10163000E0234FF08052C3F8042D02B0BDE8F087DC
:10164000DFF8A890DFF8988040214A46254B04F047
:1016500043FCD8F81430D9F80C000133C8F8143022
:1016600002F0CAFDDFF888A00746DAF800000BF0A8
:1016700043FC07F12803984224D349462822DAF88C
:10168000000001AB0BF0F4FC002FC2D03A46DAF8B0
:101690000000144901AB0BF0EBFCBAE70424104B3B
:1016A00011499A69086801329A611A79002142F059
:1016B00008021A71336800680DEB04021C650CF017
:1016C00047FEB2E7D8F8183029460133C8F8183079
:1016D000054B01AA1B6818680CF03AFE99E700BF99
:1016E00000000320A0290320E029032078290320FB
:1016F000F4280320002110B50A4A0B4C1268236914
:1017000082B01068013301AA236101910CF020FE20
:10171000019B2BB14FF0E0234FF08052C3F8042D12
:1017200002B010BDE429032000000320002110B501
:101730000A4A0B4C1268E36982B01068013301AAAF
:10174000E36101910CF004FE019B2BB14FF0E0230B
:101750004FF08052C3F8042D02B010BDE0290320E1
:101760000000032038B50C46104D294604F04EFC0D
:10177000A10303D5EB68A3B90D4A1360620309D531
:101780002B690B4A012B13790CBF43F0040303F0C0
:10179000FB031371230303D50122054B83F820209B
:1017A00038BD4FF00042024B1A60E7E74C29032096
:1017B00000000320704700BF91B14FF0FF3210B41A
:1017C000084C014410F8013B5340DBB254F823307D
:1017D000884283EA1222F5D1D0435DF8044B70476A
:1017E00008467047A0F300080022014B1A607047BA
:1017F000F0290320704700BF024A136801331360C9
:10180000704700BFF0290320024A136801331360B8
:10181000704700BFEC29032000200CF047B800BF40
:1018200000200CF043B800BF00200CF03FB800BF10
:1018300000200CF03BB800BF0022014B1A7070472B
:101840007600032000294AD030B577280C4683B0B3
:101850002DD8572800F284801A2800F03981A0F191
:1018600024031F2B39D81F2B37D8DFE813F00D01C5
:1018700036003600360036003600360036003600B8
:1018800036003600060136003600360036003600D7
:101890003600360036003600FF00360036003600CF
:1018A000360036003600360036003600F800B0F557
:1018B000EA7F12D2B0F5DC7F12D2B0F5A87F00F03B
:1018C0000D8100F2FA80982800F09280A22804D1BD
:1018D0001046FFF727FC844BD87503B030BD704726
:1018E000A0F5DC731B2BF8D801A151F823F000BF41
:1018F000FD190008DB180008DB180008191A000899
:10190000DB180008DB180008DB180008DB180008EB
:10191000DB180008DB180008DB180008DB180008DB
:10192000DB180008DB180008DB180008DB180008CB
:10193000DB1800080B1A0008DB180008DB18000889
:10194000DB180008DB180008DB180008DB180008AB
:10195000DB180008DB180008DB180008271A00084D
:10196000A0F158031F2BB8D801A151F823F000BFF4
:10197000351A0008DB180008DB180008DB1800081F
:10198000DB180008DB180008DB180008DB1800086B
:10199000DB180008DB180008511A0008DB180008E3
:1019A000DB180008DB180008DB180008DB1800084B
:1019B000DB180008DB180008DB180008DB1800083B
:1019C000DB180008431A0008DB180008DB180008C1
:1019D000DB180008DB180008DB180008DB1800081B
:1019E000DB180008DB180008DB180008971A00084D
:1019F0001046FFF795FB3C4B98756EE72146104665
:101A0000FFF7C2FB384B988367E721461046FFF784
:101A1000A1FB354B588260E721461046FFF7BEFB1D
:101A2000314BD88359E721461046FFF7ABFB2E4BCD
:101A3000188252E721461046FFF70CFB2A4B5881CB
:101A40004BE721461046FFF73FFB274BD88144E781
:101A500021461046FFF722FB234B18813DE7214624
:101A60001046FFF7E1FA204B988236E721461046F0
:101A7000FFF7C4FA1C4B98802FE721461046FFF76A
:101A8000A7FA194BD88028E721461046FFF78AFAB3
:101A9000154B188021E7214610460192FFF716FBEF
:101AA000114D012C28733FF418AF019A21461046BE
:101AB000FFF720FB85F820000FE740F2A7139842BC
:101AC0007FF40BAF1046FFF72FFB074B588304E75B
:101AD0001046FFF751FA044B5880FEE61046FFF718
:101AE00057FB014B1883F8E654000320264B1B7864
:101AF00093B92DE9F0410646244D82B005F10C075B
:101B000055F8044BE36E626EF31A934205D2AF426E
:101B1000F6D102B0BDE8F0817047B4F9723004EB41
:101B2000E300002B00F1240008DBB4F86830022247
:101B30005BBA01A9ADF8043002F06AFBB4F9743065
:101B400004F12408002B4FEAE30111DB4046FFF7C4
:101B500033FE04220190B4F974000DEB0201002859
:101B6000B8BF0730C010243004FA80F002F050FBF8
:101B7000074B41461B6820462361FFF7DBFCA36E41
:101B8000E6660133A366C2E776000320A0F70008EB
:101B90000000032038B50446084B094D1A60094B74
:101BA000049A29601A6000F04DF8204601F0CCFA42
:101BB000204602F04DFB002038BD00BFF82903206D
:101BC000FC290320F429032038B5054601F0DCFA8E
:101BD0000446284602F048FB2043C0B238BD00BF8F
:101BE00070B5154B82B01B6804460D46164601F0D1
:101BF00001FB01280AD0114B3246294620461B68BA
:101C000002F05CFB01280BD002B070BD00220C4B2F
:101C100011461B681868022300920CF079FAEAE773
:101C200000220749022309680868114600920CF057
:101C30006FFA02B070BD00BFF8290320F429032019
:101C4000FC29032000B583B0102001A900F09EF804
:101C500008B903B000BD0021102000F07FF8003863
:101C600018BF012003B000BD00B583B0102001A94A
:101C700000F08CF820B90146019820B903B000BDEE
:101C8000012003B000BD102000F068F8003818BF34
:101C9000012003B000BD00BF70B5002682B004462D
:101CA0000D46102001A9019600F070F810B9019BB3
:101CB000A34202D8012002B070BD04F111002946F0
:101CC00080B200F063F8801B18BF012002B070BD25
:101CD000002210B5114B82B01B78019213B918463F
:101CE00002B010BD044601A9102000F04FF840B921
:101CF00001981130FF2804D8214680B200F02EF858
:101D000018B10123184602B010BD0199102001310D
:101D100000F024F8031E18BF0123E0E7770003203A
:101D2000014608B5102000F031F8003818BF012036
:101D300008BD00BF10B504F0FBFA002009F050FC0C
:101D4000044618B904F008FB204610BD002009F035
:101D500015F804F001FB204610BD00BF38B504465D
:101D60000D4604F0E5FA2046294609F0E1FEC305D8
:101D7000044603D404F0F0FA204638BD09F0D8F840
:101D80000443A4B204F0E8FA204638BD09F032BAA0
:101D90004FF4805270B500240E4683180470C0F8CA
:101DA0000240047384601C74C3F812409C61DC819F
:101DB00000F5005305462146C3E907445E620D3035
:101DC0000DF0C6F84FF48052A8182146BDE87040C7
:101DD0001C300DF0BDB800BFF0B5044683B0836081
:101DE00031B3157894462B09032B21D8DFE803F093
:101DF000253A600205F00F0500F50056012986F826
:101E0000215000F0AB809CF80130022986F8223086
:101E100000F0A7809CF8023086F82330002D00F0F7
:101E2000AC80012D00F09F80032204F580531A74CA
:101E3000237B012B73D003B0F0BD03780BB10023DB
:101E400003706B1E062BF3D801398D42F0D82A4659
:101E50000CF1010104F10D0002F0DAF902236580B2
:101E60002370E5E703780BB1002303700729DFD95E
:101E70009CF800309CF801201B0203F470631343AC
:101E8000072BA380D4DD06220CF1020104F10D0022
:101E900002F0BEF901220021062004F5005622704E
:101EA0006080B17704F58051CA813023F27F3CE035
:101EB0000378012BBCD100F58057FA8905F00F0596
:101EC00002F00F039D4246D14088A3881B1A9BB2A3
:101ED000072B5BD90829ABD10132FA814B1EDDB249
:101EE0000D302A460CF10101204402F091F963887B
:101EF000A2882B449BB29A4263804FD004F50056CF
:101F0000F27F002A94D0FB89013B93FBF2F102FBA4
:101F10001133002B8CD1B37F43F0300305E004F57F
:101F20000056B37FF27F43F03003002196F8200083
:101F300021738DF802000320746A8DF800308DF84B
:101F4000012002F05FF903466946706AE360FFF71B
:101F5000F1FA03B0F0BD0023037069E7002386F8AF
:101F60002230002358E704F58052137C013B012BFB
:101F70003FF65EAF022313745AE704F580531A7CD0
:101F8000022A7FF455AF01221A7451E78B42BFF445
:101F90004FAF0132072BFA81A1D19FE702232370B3
:101FA00046E700BF2DE9F84300F58056347C012C4C
:101FB00003D000242046BDE8F88300F500580F4602
:101FC00098F823101D46F12928BF0121B3698446E2
:101FD000EB1A8B42EDD3718AB38A99B9072B51D88A
:101FE0001046314600F8013BB28A1C3102F010F96C
:101FF0000322B38A01333B70B38A7382A8F81C4072
:1020000032743BE010465B1A1FFA83F9B8F81C30B3
:10201000B9F1070F03F00F0343F0200300F8013B71
:10202000738A03F5805303F11C030CEB030114D9ED
:10203000072202F0EDF808233B70738A073373829E
:1020400098F82220B8F81C30AAB1B3FBF2F102FBD9
:10205000113282B9022232740DE04A4602F0D8F8F9
:10206000032309F101023A703374738A9944B8F872
:102070001C30A6F812900133A8F81C302046B56138
:10208000BDE8F883C3F3032343F010031370B38A4E
:1020900000F580515370901C1C31062202F0B8F8F4
:1020A000082306223B7002237282A8F81C40337476
:1020B000E4E700BF0378012B06D18268034B891A3D
:1020C0009942C4BF0023037000207047400D0300F5
:1020D00030B500F5805514462A7C0B46013A012A9A
:1020E00093B006D8AA698A1A12498A4284BF032289
:1020F0002A7402AA0DF10701FFF754FF50B92B7C97
:10210000032B02D0002013B030BD002301202B741C
:1021100013B030BD9DF8070002F074F8E06002E0F3
:10212000012002F089F8204602A9FFF703FA0028EF
:10213000F6D1E4E7400D030000F5805CBCF81430F4
:10214000B3F5805F0ED800B500224FF0010E00F508
:102150000053ACF812209A838CF810E01046CCF8AB
:10216000181000BD012070472DE9F0431446027895
:102170000646013A1D4685B0092A11D8DFE812F05B
:102180001C0010000A009A01100010000A00100044
:1021900076010A00012900F09A817F22122101E0D4
:1021A0007F221121032322703278A17062702B806C
:1021B000002005B0BDE8F0830229EED14123237051
:1021C00043786370A62BE8D801A252F823F000BF31
:1021D00097260008792600089B2100089B2100080B
:1021E00043260008392600089B2100089B2100088F
:1021F0009B2100089B2100089B2100089B210008CF
:1022000023260008132600089B2100089B210008B4
:102210009B210008E32500089B2100089B21000862
:102220009B2100089B2100089B2100089B2100089E
:102230009B2100089B2100089B2100089B2100088E
:102240009B2100089B2100089B2100084D260008C7
:1022500007260008D92500089B2100089B210008BB
:102260009B2100089B2100089B2100089B2100085E
:102270009B2100089B2100089B2100089B2100084E
:102280009B2100089B2100089B2100089B2100083E
:10229000E3250008D92500089B2100089B210008A0
:1022A0009B2100089B2100089B2100089B2100081E
:1022B0009B2100089B2100089B2100089B2100080E
:1022C0009B2100089B2100089B2100089B210008FE
:1022D000C5260008B9260008AD2600089B21000885
:1022E0009B2100089B210008A32600089B210008D1
:1022F0009B2100089B2100089B2100089B210008CE
:102300009B210008D9250008D92500089B21000839
:102310009B2100089B2100089B2100089B210008AD
:102320009B2100089B2100089B2100089B2100089D
:102330009B2100089B2100089B2100089B2100088D
:102340009B2100089B2100089B2100089B2100087D
:10235000ED2500089B2100089B2100089B21000817
:102360009B2100089B2100089B2100089B2100085D
:102370009B2100089B2100089B2100089B2100084D
:102380009B2100089B2100089B2100089B2100083D
:102390009B2100089B2100089B2100089B2100082D
:1023A0009B2100089B2100089B2100089B2100081D
:1023B0009B2100089B2100089B2100089B2100080D
:1023C0009B2100089B2100089B2100089B210008FD
:1023D000ED2500089B2100089B2100089B21000897
:1023E0009B2100089B2100089B2100089B210008DD
:1023F0009B2100089B2100089B2100089B210008CD
:102400009B2100089B2100089B2100089B210008BC
:102410009B2100089B2100089B2100089B210008AC
:102420009B2100089B2100089B2100089B2100089C
:102430009B2100089B2100089B2100089B2100088C
:102440009B2100089B2100089B2100089B2100087C
:102450006D2600089B2100089B2100089B21000895
:102460009B2100089B210008FB25000802297FF41E
:1024700094AE49232370437863700A2B3FF68DAEE8
:1024800001A252F823F000BF272500089B21000875
:10249000472500089B210008352500089B210008DE
:1024A000C92500089B2100089B2100089B210008EA
:1024B000AB25000801297FF470AE0191FFF7D4FB32
:1024C000019968BB337840332370298070E602A8F5
:1024D000FFF726FC20BB029B5A1C52002A80327850
:1024E00063704032DBB22270002B3FF461AE0746CE
:1024F00004F1020904F103080CE0039B1A0E09F829
:1025000017201B0C9DF8082008F817300137BA4235
:102510007FF64EAE384603A9FFF7BEFB0028ECD08D
:102520007F2210213EE644F254020623C4F8022022
:102530002B803DE601236749A370E01C01F074FE87
:1025400013232B8034E614230120E61CA0703146AF
:102550002B80FFF71BFCE11D05460220FFF716FC50
:10256000034604F10B0103201D43FFF70FFC034654
:1025700004F10F010420ADB21D43FFF707FC034631
:1025800004F113010520ADB245EA0304FFF7FEFB99
:10259000A4B244EA00039BB2002B3FF409AE11221F
:1025A0000021304601F030FE02E60123E61CA37054
:1025B00014220021304601F027FE3046464901F042
:1025C00033FE17232B80F3E5782207234349A271BA
:1025D000C4F802102B80EBE5042200232A806380DC
:1025E000E6E5032200232A80A370E1E506224FF0EE
:1025F00080732A80C4F80230DAE50622384B2A803C
:10260000C4F80230D4E50622364B2A80C4F80230E2
:10261000CEE50322344B2A809B8AC3F30723A370A1
:10262000C6E50423304A2B809388C3F34A13A37072
:102630009388DB00E370BBE5032274232A80A37038
:10264000B6E503224C232A80A370B1E504232B8036
:102650000BF05CFA254DA5FB00239B0BA3700BF040
:1026600055FAA5FB00539B09E370A1E5062204235C
:102670002A80C4F802309BE503A8FFF751FB38BB62
:10268000039A02F07F02002306212980A270E370E2
:10269000237163718CE50622154B2A80C4F8023041
:1026A00086E5032251232A80A37081E504224BF69C
:1026B00035732A8063807BE5062200232A80C4F8D4
:1026C000023075E506220B4B2A80C4F802306FE514
:1026D0000022D8E7D0F10008E0F1000801123456DA
:1026E000123456788001800154000320D34D6210CB
:1026F00098188003A40C0001814204D900F17840AD
:10270000B0F5802F01D30020704701F178410139E5
:10271000B1F5802F2CBF002001207047814208D9DD
:10272000B0F1005F05D3044881428CBF0020012036
:1027300070470020704700BF00000420814211D97B
:10274000B0F1005F10D31A4B994219D9194B984236
:1027500008D9194881428CBF002001207047B0F190
:10276000006F15D200207047144B98420AD8144BC2
:102770009842F4D9134881428CBF00200120704751
:1027800001207047104881428CBF00200120704713
:102790000E4B9942E6D80E4BB3F8E030B3F5007F0C
:1027A000EED00C4881428CBF00200120704700BF52
:1027B000000004203F20024040210240FFFFF90BAF
:1027C000FFFFF80B0080F90B0002FA0B000008086D
:1027D0000005FA0B0000040800B58BB001A803F057
:1027E000A3FF0598AA3818BF01200BB000BD00BF99
:1027F00000B58BB072B601A803F096FF04214FF428
:102800000052079B019143F08063CDE9062303F05A
:102810008FFD18B162B601200BB000BD03F0A8FD1A
:102820000028F7D101A803F05DFE10B903F0C2FD46
:10283000F0E703F0B1FD03F08FFDEBE710B58AB0D0
:1028400003F076FD044603F093FD044301A803F072
:102850006BFF04214FF480729DF81E30E4B2C3F385
:10286000001383F001031B05CDE90623019134B168
:1028700003F092FD03F070FD01200AB010BD01A825
:1028800003F030FE0028F3D103F094FD044603F07A
:1028900083FD044303F060FDE4B22043C0B200387E
:1028A00018BF01200AB010BD30B58BB003F040FD59
:1028B000044601A803F038FF002380220798022174
:1028C00010F4801FCDE9033200930CBF02230123D3
:1028D000019101A86946029303F0BCFF054603F08D
:1028E0003BFD28432043C0B2003818BF01200BB085
:1028F00030BD00BF70B503F01BFD05460F4C104EF8
:10290000D4E90023B3F1FF3F08BFB2F1FF3F04F564
:10291000802107D0012003F089FD002818BF45F071
:102920000105EDB20834B442EAD103F015FD2843A5
:10293000C0B2003818BF012070BD00BF00E003081E
:1029400000000408002330B58FB0009303F0F0FCC2
:102950000223044605A8019303F0E6FE0B9B042224
:1029600013F4801F4FF07C0014BF0223012369463B
:1029700003900DEB02000492029303F06BFF0546F7
:1029800003F0EAFC054344EA0500C0B2003818BF72
:1029900001200FB030BD00BF014608B5012003F093
:1029A00045FD003818BF012008BD00BF0022014BC3
:1029B0001A607047002A03201D4B10B45988B3F8E1
:1029C00000C0B1F5E06F34BF00210121194C9B8894
:1029D000194A34F81CC0B3F5306FA2F800C09170EA
:1029E00013D2B3F5E06F1ED2B3F5407F1DD2B3F51D
:1029F000807F8CBF00230123D1789B00994208D1AE
:102A00000E4B18605DF8044B70470123D178994252
:102A1000F6D00A4C2168411AFA29F3D9D370206004
:102A20005DF8044B70470223F0E70323EEE700BF95
:102A3000042A0320ACF7000878000320002A0320B2
:102A40000022014B1A7070470A2A0320114B124AC8
:102A50001B781088917873B16FF4FC63C3183E2B18
:102A600010D94FF47F4C0D4B1881A3F818C021B931
:102A7000598A89B201E0094B18811982D27802B1D2
:102A80001A837047054B588980B21881588A80B2E2
:102A90001882ECE70A2A0320780003205400032060
:102AA000014B1860704700BF0C2A0320704700BF1D
:102AB00000B5044B83B0186801A906F039FE0198EF
:102AC00003B000BD0C2A03200D4B02781B68403276
:102AD00001291A700FD900B5A1F1020E10FA8EFE6D
:102AE000024610F801CF724503F801CFF8D1054B2B
:102AF0001B68198000BD034B1B681980704700BF1D
:102B0000342A0320302A032070B50129044682B0FC
:102B10000BD9457805F07F05012D14D0022D02D088
:102B20007F20122503E006292CD07F2013250321C6
:102B3000344B354A1B681268187020789D705870A5
:102B4000118002B070BD40F26713ADF80030FFF79E
:102B5000AFFF2E4A2E4B4240C3E903021D7794F982
:102B6000013000BA002BCDF80200EADB0621254B2C
:102B7000254A1B680098BDF80440126818609C80C4
:102B80001180DEE7224B9A69042A02D97F2036257C
:102B9000CDE758685969411A092902D87F2037259D
:102BA000C5E7197F012902D07F202425BFE7D4F88B
:102BB00002101E6909BA8E4215D04FF0000E4FF078
:102BC0007F0C58613525032001329A610D4A0E4968
:102BD000126883F81CE082F800C0237809685370FB
:102BE00095700880ADE71D7794F90130002BA8DBC4
:102BF00040F26721034A044B12681B6811801D8054
:102C00009FE700BF342A0320302A0320785634126D
:102C1000102A0320022910B510D04FF07F0E4FF07C
:102C2000130C03210F4B104A1B68126883F800E055
:102C3000007883F802C05870118010BD437833B11A
:102C4000802BFAD04FF07F0E4FF0120CE9E7054AC7
:102C50000378126840331370034C40782368507037
:102C6000198010BD342A0320302A0320022930B5F0
:102C700010D04FF07F0E4FF0130C0321424B434A0C
:102C80001B68126883F800E0007883F802C058706F
:102C9000118030BD437803F07F03022B2FD0032B2C
:102CA0001BD0012B3ED10022394C3A4D23703A4BB8
:102CB0002A705A73C4E90322C4E90522227790F9E5
:102CC00001304278002BE4DB50242F4B2F481B6847
:102CD00000685A701C70018030BD304A928A92B2EE
:102CE000B2F5805F47D37F258824274A2749126899
:102CF000096815700078947050700B8030BD274AB9
:102D0000928A92B2B2F5805F1BD37F2522240321E1
:102D10001D4B1E4A1B6812681D7000789C7058700D
:102D2000118030BD4FF07F0C12240321164B174A3F
:102D30001B68126883F800C000789C70587011807E
:102D400030BD00221249144CC1E90322C1E9052219
:102D5000104D62730A772A7090F901200B70002AD7
:102D6000417896DB5024084A084812680068517080
:102D70001470038030BD0022054C074D2370054BB5
:102D80006A731A7096E700BF342A0320302A0320A2
:102D9000102A0320382A03203C2A03205400032051
:102DA000204B214A022910B51B6812680CD04FF045
:102DB0007F0E4FF0130C032183F800E0007883F8B6
:102DC00002C05870118010BD184C94F800C0BCF1BE
:102DD000010F11D090F801C00CF07F0CBCF1010F75
:102DE00012D04FF07F0C1224032183F800C000782A
:102DF0009C705870118010BD7F21032419700078D9
:102E000099705870148010BD047840341C70447858
:102E10005C70118090F90130002BD4DABDE81040CD
:102E200002F0DABB342A0320302A0320102A0320C0
:102E3000022910B510D04FF07F0E4FF0130C032174
:102E4000184B194A1B68126883F800E0007883F871
:102E500002C05870118010BD427802F07F03012B30
:102E600013D0022B04D04FF07F0E4FF0120CE6E788
:102E70001206F0D40B490278096840320A700A4CF5
:102E8000407822684870138010BD1406E3D4054AC8
:102E90000378126840331370034C407823685070F5
:102EA000198010BD342A0320302A0320012970B56F
:102EB0001FD9427802F07F03012B10D0032B1CD0C6
:102EC0004FF07F0C12240321394B3A4A1B681268D9
:102ED00083F800C000789C705870118070BD022982
:102EE0002AD08378103B032B51D8DFE803F04C4AFB
:102EF000444E4FF07F0C1324E5E72F4C217869B145
:102F0000120626D402212A4A03781268403313702D
:102F1000284C407823685070198070BD4FF07F0CAA
:102F20002224234A23491268096882F800C00078E5
:102F3000947050700B8070BD7F25132403211C4BAF
:102F40001C4A1B6812681D7000789C7058701180B4
:102F500070BD0123194D2E782B70FEF77BFA4FF4CC
:102F60007A7009F017FBF6B22078FEF779FAFEF7CF
:102F7000B1F92E7070BD36230F490B701306C1D501
:102F800070BD3523F8E73423F6E73823F4E77F22D2
:102F9000002631240321064B074D1B682E701A7042
:102FA000044A0078126858709C70118070BD00BF90
:102FB000342A0320302A0320382A032076000320F5
:102FC00030B54378044685B013B98378442B0FD0CD
:102FD0007F204FF0310C03213C4B3D4A1B681268A7
:102FE0001870207883F802C05870118005B030BD89
:102FF0000B2903D07F204FF0130CECE7354B1978E9
:10300000022903D04FF07F0C7F20E4E71B7F022BC7
:1030100011D1314D6B7B13F0FB030FD07F202425A2
:1030200003212A4B2A4A1B681268187020789D7069
:1030300058701180DAE74FF0330CE5E7D0F8030061
:10304000AB6001232B73D4F8073000BA1BBAC11848
:103050006B6001922860FFF74FFB1C4B19681C4BFB
:10306000D3F800C040B36B68019A13F0070F0AD081
:103070007F2370200B70032394F800E0887081F8A0
:1030800001E0ACF8003023786A734FF20F0420257A
:1030900040338DF80C3003AA4B1EC81C8DF80D5020
:1030A000ADF80E4012F8011B03F8011F8342F9D15D
:1030B0000423ACF8003099E77F22312003230A7003
:1030C000227888704A70ACF800308FE7342A0320E9
:1030D000302A0320102A03203C2A0320042910B59B
:1030E00004460ED07F204FF0130C0321144B154AD9
:1030F0001B6812681870207883F802C0587011801D
:1031000010BD4378FF2B03D07F204FF0310CECE74C
:103110008378FF2BF8D1C378FF2BF5D1FEF7A4FD00
:10312000074B084A1B68126820B17F204FF0720CD1
:103130000321DFE70120217840311970108010BD94
:10314000342A0320302A032038B500240122094BF9
:1031500009490A4D4C73586009490A48C3E90344B8
:10316000C3E905442C701A701C77FEF711FE204647
:1031700038BD00BF102A03203C2A0320382A032030
:103180007C000320549F0120114B01461A78032A2A
:1031900002D01048FEF78EBF41F288305A688A1A72
:1031A0008242F6D900224FF0010C10B40A480B4CB1
:1031B0004273227083F800C01A7706485DF8044B0A
:1031C000C3E90322C3E905225960FEF773BF00BFBC
:1031D000102A0320549F01203C2A0320382A032070
:1031E0000146024A0248FEF773BF00BFA000032059
:1031F000549F012040F2E17C2DE9F0410026044675
:10320000006882B060450F4698468DF80560ADF8BD
:10321000066007D040F2DF7398423BD0002002B036
:10322000BDE8F081E068154600F0E6FF3A4C014643
:103230002B4620463A46FEF7CFFD2578022DEDD1EC
:103240004FF0FF3301220DF10501D8F800008DF891
:10325000056009F073FE2A464FF0FF330546A11CB6
:10326000D8F8000009F06AFE02464FF0FF3315441B
:10327000D8F80000628804F10D0109F05FFE638850
:1032800005440333AB4201D0FDF756FE0023237003
:103290000120C4E7E06800F0AFFF0028BED03D7811
:1032A000002DBBD005F0080353EA1513B6D1E06832
:1032B00000F0A2FF431E9D42B0D8012217F8014B37
:1032C0004FF0FF330DF1050104F00F04D8F80000B2
:1032D0008DF80520ADF8064009F030FE4FF0FF33C1
:1032E000022204460DF10601D8F8000009F026FE7E
:1032F00002464FF0FF3314443946D8F80000BDF8B9
:10330000062009F01BFEBDF8063004440333A34237
:10331000BED0FDF711FEBBE7549F01202DE9F04F11
:1033200000248FB0DDF860C09E4FACF800409E4E88
:103330000C469E491D469146C6F800C048603B6059
:10334000002A00F0838023780F2B40F29080A3F1B5
:103350001002772A00F28880DFE812F095009C00C6
:1033600086008600A3008600860086008600AA00EC
:10337000860086008600860086008600860086001D
:10338000D100D7008600860086000A0186008600EC
:1033900086008600860086001101860086003501C1
:1033A000860086007C01D301D9012A0186008600AF
:1033B00086008600860096018F01860086008600C2
:1033C00086008600860086008600860086008600CD
:1033D00086008600860086008600860086008600BD
:1033E00086008600860086008600860086008600AD
:1033F000860086008600860086008600860086009D
:10340000860086008600860086008600860086008C
:10341000860086008600860086008600860086007C
:10342000860086008600860086008600860086006C
:10343000860086008600860086008600860086005C
:10344000860086009200EE01860003017F2284F848
:103450000090132103232A702278A9706A70ACF8B7
:1034600000300FB0BDE8F08F7F221121F2E76346F4
:103470002A46494620460FB0BDE8F04FFEF774BE1D
:103480007F221221E6E7494620460FB0BDE8F04F03
:10349000FFF7ECBB494620460FB0BDE8F04FFFF701
:1034A0007FBC494620460FB0BDE8F04FFFF716BE7F
:1034B000B9F1020F27D959232B7004236278AB701E
:1034C0006A70637803F07F03012B00F02483022BE2
:1034D00000F051837F2312222B7003232178AA70DE
:1034E0006970ACF8003094F90130002BB9DA3B6810
:1034F0001B787F2BB5D0002233681A80B1E7B9F171
:10350000030F00F057827F22A3E7B9F1010FFAD031
:10351000637803F00F02042AB2D103F0F002402ACC
:10352000AED80A78012A33D01B099A1D9145EAD1F9
:10353000002B00F0CD844FF00008013BDB00611D43
:1035400011F8012F9A40083B13F1080F48EA0208CE
:10355000F6D140F6FE73984540F2BB847F223121BC
:1035600078E7494620460FB0BDE8F04FFFF79EBC14
:10357000494620460FB0BDE8F04FFFF7C5BAB9F194
:10358000020FC0D991F80080B8F1020F00F0CB8291
:103590007F2303222B702178AB706970ACF8002078
:1035A0005FE700BF342A0320302A0320102A0320BB
:1035B000B9F1010FA7D1B64B5A7B032A00F01E8345
:1035C0007F22242146E7B9F1030F9CD994F9012009
:1035D0006378002ABCBF03F07F0363706388B8BFC1
:1035E0004FF001085BBA9BB2A8BF4FF00008B3F5DB
:1035F000097F80F20C83B3F5007FC0F2A480A3F5AD
:103600000073232B00F29F80DFE813F0EB00DA0059
:103610004801330131011101B501A70165015A01CA
:103620009D009D009D009D009D009D0083017401F3
:103630009D009D009D009D009D009D009D009D00A2
:103640009D009D009D009D009D009D000A010301BD
:10365000BF00B4008F4BB3F8E030B3F5007F7FF4C8
:1036600003AFB9F1020F7FF64EAF01224946204663
:103670000FB0BDE8F04FFFF7A3BC494620460FB09E
:10368000BDE8F04FFFF7C6BAB9F1010F3FF43BAF09
:10369000637803F00F02042A7FF4F2AE03F0F00225
:1036A000402A3FF6EDAE1B095A1D4A45BFF62BAF27
:1036B000002B00F069844FF00008581EC00004F190
:1036C000050E1EF8012F8240083848EA020210F168
:1036D000080F1FFA82F8F4D103F1060A0AEB080377
:1036E00099457FF410AF0B78022B00F010847F23F4
:1036F0007F21032229702178AB706970ACF800201B
:10370000AFE6B9F1020F7FF6FEAE0222AEE7B9F1E5
:10371000010F3FF4F8AEDFF8788198F80D30012BF7
:1037200000F0E081022B7FF44BAFB9F1020F00F003
:1037300085827F2271218DE6494620460FB0BDE883
:10374000F04FFFF775BB7F232B7023786B7031230D
:10375000AB704FF00309ACF80090B8F1000F3FF4E4
:1037600080AE3B681B787F2B3FF47BAE0023ACF828
:10377000003076E6B9F1040F00F0F1837F232B705F
:1037800023786B701323AB70E3E7B9F1070FF5D122
:10379000201DFDF7BBFEFDF79DFD0A2008F0FAFE97
:1037A000042122783B684032D6F800C01A70627853
:1037B0005A70A2789A70E278DA70ACF80010CCE710
:1037C000FFF7C0F8D6F800C03B68002800F0DF83A0
:1037D0007F221A7022784FF003095A7072229A7071
:1037E000B9E7B9F1040FC9D16378012B00F04F8418
:1037F000022B78D10022284B1A70237840332B708B
:1038000063784FF004096B70A378AB70E378EB70CA
:10381000A1E7B9F1050FB1D12079FDF76FFEBAE745
:10382000B9F1070FAAD1201DFDF75AFEB3E7B9F190
:10383000060FA3D140F6FB72A3885BBA9BB29342FA
:1038400081D8712229462A706278181F6A70A2787E
:10385000AA70E27801F8032F002202E001F8012F9C
:1038600001329042FADC04331FFA83F973E77123C3
:10387000C5E77123621C2B70A9F1020312FA83F3CE
:1038800014F8012FA34205F8012FF9D163E700BF17
:103890003C2A03200005FA0B76000320FFF72AF8E4
:1038A000D6F800C03B68002892D10122217840312F
:1038B0001970A15C9954013291B28945F9D84AE74F
:1038C0000B7F022B00F0FD827F232B7023786B701F
:1038D0003323AB703DE7B9F1080F7FF44FAF637846
:1038E000012B00F0C0837F232B7023786B70122391
:1038F000AB702EE7B9F1040F7FF440AF0B78022BC9
:1039000000F07B837F237F222A702278AB706A705D
:103910001FE7B9F1040F7FF431AF0B78022BF1D11F
:103920000B7F022B40F099836378012BDBD1FEF7EC
:1039300053FF002840F08B83FEF75AFF002840F029
:103940002F8204212046FFF7BFF8D6F800C0BCF84C
:103950000030002B3FF485ADFFE6B9F1040F7FF492
:103960000DAF6378012B00F07A83022BBBD10022CC
:10397000BC4B1A7041E7B9F10B0F7FF6FFAE6568DB
:10398000D4F808902DBA99FA89F9284609EB05016F
:10399000FEF7D4FE002840F03D837F223B683121B2
:1039A0001A702278D6F800C05A7003229970ACF8C9
:1039B0000020D2E60022B4F80100CDE9012240BA8D
:1039C00080B2A0F5007CBCF5007FCDE90322009217
:1039D000C0F00481A0F5714084380C2808D8DFE8D5
:1039E00000F070076B620707070759070707120007
:1039F0007F20312503213B683268187020789D7044
:103A0000587011802DE569460120FEF7BFF901A924
:103A100080460220FEF7BAF902A948EA000803200E
:103A2000FEF7B4F91FFA88F848EA000803A9042051
:103A3000FEF7ACF91FFA88F848EA000804A9052047
:103A4000FEF7A4F91FFA88F848EA00081FFA88F57B
:103A5000694611220DF1170000F0DAFB002DC7D1E5
:103A6000142523784033396862788DF81430A378B0
:103A7000681E8DF815208DF8163005AA4B1E11FA18
:103A800080F012F8011B03F8011F9842F9D1336846
:103A90001D80E6E40C2274490DF1170000F0B8FB1C
:103AA0000F252378DEE7042270490DF1170000F09E
:103AB000AFFB07252378D5E70A7804258DF8172072
:103AC000D0E70C226A490DF1170000F0A1FB20237A
:103AD0000922684909A88DF82330192500F098FBC0
:103AE0002378BFE7A9F1020212F007091FFA82FA50
:103AF0007FF41FAED8F80830D8F8041053448B4236
:103B00003FF617AE98F80C206378934200F070816E
:103B10007F2273219EE4B9F1030F00F0EE807F2332
:103B200013222B70D9E44FF28412B4F8013058BA42
:103B300080B220F0080191423FF410AD49F2F10249
:103B4000934200F0EE80B9F1070F7FF4DCACD4F8BB
:103B5000031009BAFEF702F903463A683168002BF0
:103B600000F096817F2072250323107020789570D5
:103B700050700B8075E4B9F1030FD0D1002305A874
:103B8000EB70FEF7CDF88046002840F01681059BCB
:103B9000002B00F0908182466D4614E09DF80320D2
:103BA0003B6803F80920BDF8022003F82A20009A98
:103BB0004B44120A9A70009ADA70059B09F10409C5
:103BC000534540F2068150462946FEF765F80AF152
:103BD000010A0028E2D04FF00108EEE76946FEF73F
:103BE000D5F8002869D07F2131203B6832681970F0
:103BF000217898705970A2F8009032E40422494666
:103C000020465A730FB0BDE8F04FFEF75DBFB3F525
:103C10007F4F00F0B0804FF6017293427FF493AD76
:103C2000B9F1040F7FF4AAAD6378012B7FF45BAE8A
:103C30000B78022B00F0B7817E2364E698F80C2005
:103C4000637893427FF464AF013388F80C302378B3
:103C5000002240332B70637805F8013FD8F8083014
:103C600019E000BF0A2A03209005FA0B08F20008A9
:103C7000F0F10008FCF10008D8F800100132CB5C2C
:103C8000B2F57F6F05F8013FD8F8083003F1010362
:103C9000C8F8083004D0D8F804109942ECD892B291
:103CA000D8F8041002329942ACF800203FF6D9ABA4
:103CB000032388F80D30FFF7D4BB237862784033B4
:103CC0008DF81430A37869468DF815200DF1170092
:103CD00004228DF8163000F09BFA3A680DF11301BA
:103CE000531E063211F8010F03F8010F9342F9D168
:103CF000072233681A80FFF7B4BB002305A8EB70D6
:103D0000FEF70EF83B683168002800F0CC807F2277
:103D10001A70722220789A705870A1F80090FFF7FC
:103D2000E2BBB9F1140F7FF4EEABD4F8031001201D
:103D3000FEF714F8D4F8071005464046FEF70EF8D3
:103D40000346D4F80B1003201D43FEF707F8034683
:103D5000D4F80F100420ADB21D43FDF7FFFF03465A
:103D6000E17C0520ADB21D43FDF7F8FFADB245EA99
:103D700000039BB2F1E6B9F1040F7FF4FFAC637866
:103D8000012B7FF4B0AD0B78022B7FF455AF0B7F86
:103D9000022B40F06281FEF787FD00283FF4D1AD91
:103DA0007F223B68D6F800C01A70227872215A70C0
:103DB00003229970ACF80020CFE47F223B681A7090
:103DC000722221789A7059703368A3F80090FFF737
:103DD0008ABBB8F1000F6ED07F213B68722019704A
:103DE0000321257832685D7098701180FFF77BBBE6
:103DF000013388F80C3002F09BFABAF1000F00F0A2
:103E0000E8804D46A146AB4699F8043099F8052064
:103E10001B0403EB026399F8032099F8081003EBE5
:103E2000022399F80920090401EB026199F80220A4
:103E3000D8F8080013441BEB030299F8073009F186
:103E4000080901EB0323D8F80010084419F8021CF4
:103E500000F580200B44FEF79FFD40EA0503DDB22C
:103E6000D8F808300833C8F80830A9EB04039A459D
:103E7000CAD802F071FAD8E901329A4224BF03236A
:103E800088F80D30002D00F0AD807F207225B1E55F
:103E900060782378A57850700320403313709570B4
:103EA0000880FFF7DEBA0620059A5A71120A1A71C5
:103EB0000880FFF718BB32689B0003331380FFF7BD
:103EC00012BBBFF34F8FBFF36F8F631D984767E43B
:103ED0009846D4F802502DBA08EB05012846FEF7A3
:103EE0002DFC3B683168002800F0D5802278ED1A5F
:103EF00040321A7003EB080202E0E85C03F8010F9D
:103F00009342FAD108F101030B80FFF7AABA0B7FA5
:103F1000022B40F0D280D4F802502DBA284605EB8F
:103F20000801FEF7FBFB00283FF462ADB8F1020F79
:103F300000F0BB80B8F1040F00F0BB80B8F1080FAF
:103F400040D06FF00603E21D1B1B02E012F8011FB8
:103F5000297099188845F9D85146204652E6FDF750
:103F6000B9F90A2008F016FB22783B6840321A7033
:103F70006278D6F800C05A70A2789A70E278DA7047
:103F8000ACF80090FFF7E9BB9846FFF7A5BB01220C
:103F9000217840311970A15C9954013291B2894560
:103FA000F9D8FFF7D8BB0B7F022B56D1444B5B7B74
:103FB000042B29D07F232B7023786B702223AB70C6
:103FC000FFF7C7BBA168E0680BBA02BAC5E90023D6
:103FD000C2E702F0C1F9D8E901329A4202D30323C1
:103FE00088F80D30022023783A68647831684033CD
:103FF000137054700880FFF734BA0B7F022B2CD15A
:104000006378012B7FF46FACFEF718FC00287FF477
:10401000C7AE96E449462846FDF7CEFB0825024682
:1040200021783B68403119706178D6F800C059702A
:10403000A178EA409970E178D871D970010E1971B0
:10404000010C59719A71ACF80050FFF786BB0BF068
:104050006FF800287FF4A4AE73E4332353E4194AC5
:104060001370FFF7CABBE379042B7FF46CABA07924
:104070002379000240EA0360637940EA034040F09C
:104080000400FDF725FE00287FF48AAE59E40E4AAD
:104090001370FFF7B2BB7F20312503221870207800
:1040A0009D7058700A80FFF7DCB923895BBA2B80BA
:1040B00052E7A3681BBA2B604EE73323FFF718BB08
:1040C0003C2A03200A2A03207600032070B400242F
:1040D0002D4D039E2B602D4D34802E602C4D8C4633
:1040E0001C4611466860B2B19CF800200F2A1FD907
:1040F000272A23D8103A172A2AD8DFE802F03834C2
:104100002929302929292929292929292929292918
:1041100029292929292C8CF800107F221321032317
:1041200022709CF80020A1706270338070BC7047D0
:104130003346224670BC6046FEF716B8852A1ED06C
:10414000872A18D03E2A03D170BC6046FEF762BDB4
:104150007F221121E3E7604670BCFEF7D5BC6046C4
:1041600070BCFEF7BBBF604670BCFEF719BE604670
:1041700070BCFEF77BBD604670BCFEF797BE604624
:1041800070BCFEF755BE00BF342A0320302A03203E
:10419000102A032038B5049A12884AB11978512997
:1041A00007D0C72904D1012A02D05B78032B08D09D
:1041B00038BD4FF4FA7008F0EDF9BDE8384001F071
:1041C0000BBA4FF4FA7008F0E5F90123084C257892
:1041D0002370FDF73FF94FF47A7008F0DBF9054BD7
:1041E000EDB21878FDF73CF9FDF774F8257038BD8D
:1041F00076000320382A0320014BC0B2185C7047B8
:10420000AC170108704700BF0AB10AF0A1BE7047A1
:104210004AB1013A4B1E0138114413F8012F8B4269
:1042200000F8012FF9D17047421E11F8013B02F846
:10423000013F002BF9D170474FF47A7202FB00F076
:10424000024BA3FB0030800908F0A4B9D34D6210E3
:1042500000220146034B1046C3E903221A7059603D
:104260001A817047542A0320084B1A785AB14EF627
:1042700060215A68821A8A4205D90022C3E90322C2
:1042800058601A701A810020704700BF542A03201A
:1042900038B5D0B20C46FFF7B5FF074DE86002E035
:1042A0000A2008F077F921462846FDF743F900284F
:1042B000F6D1012038BD00BF2C02032040F252523B
:1042C00030B51C46036883B0934202D0002003B08F
:1042D00030BDC0680D46FFF78FFFADF8060000281F
:1042E000F4D04FF0FF33022220680DF1060108F0F0
:1042F00025FE84464FF0FF3320682946BDF806208E
:10430000644608F01BFEBDF8063004440233A342A5
:1043100001D10120DBE7FCF70FFEFAE72DE9F041C0
:10432000069EDFF850814F4C4F4F26607860C8F8EA
:10433000003042B10D46FF2119702978FF290ED0B7
:104340003878012801D0BDE8F081F53909291BD85A
:10435000DFE801F0203C1A1A1A2B1A5A4452012A9B
:1043600001D06A78DAB9002201214FF48074082064
:104370003E4DC7E903223A813970C3F80150A3F8D2
:104380000540D9713080DEE742F2FE010222198039
:104390003280D8E7012A1BD0697807293FD942F239
:1043A000FE21022219803280CDE7012A10D06A78DE
:1043B000002AF4D14FF080600821A3F80520DA71BB
:1043C0002B4AC3F8010031803A61BCE7082A20D0AB
:1043D00042F2FE11022219803280B4E700215970A6
:1043E0003A7A0620013A18BF01221201D9701971D8
:1043F00059719A703080A6E700230122C7E9033380
:104400003B703B8132809EE7FE2102221980328080
:1044100099E701226B681BBA3B61328093E73869E8
:104420000144FEF78BF90128D8F80060246805D014
:1044300042F2FE2202233280238084E7FF2333707E
:10444000697859B100233A6912780133DBB2F2542A
:104450003A6901323A6169789942F5D8013121808F
:1044600071E700BF4C2A0320542A032000000808EB
:10447000BC170108502A032010B50F4B82B0186EEC
:10448000002240F0010018661C6E072104F00104B0
:104490000094009C9C6D6FF0010044F080549C657A
:1044A0009B6D03F080530193019B01F03BF802B038
:1044B000BDE8104003F0D0BE0010024070B50021EE
:1044C0000446ACB0942207A8CDE90211CDE904114D
:1044D00006910AF03DFD324B22689A4201D02CB081
:1044E00070BD03234FF480424FF08051CDE9072384
:1044F0000993182211232791CDE90A2302210822CA
:104500004FF0807307A8CDE90D230C9104F082FDD4
:1045100000283BD1234B0026DA6C02A942F400525A
:10452000DA64DA6C204D02F400520092009ADA6CE0
:1045300042F00102DA64DB6C322203F001030193E2
:10454000032301981948CDE90223049602F0D8F913
:1045500080224FF480730521C5E903626B614FF43B
:1045600080622023C5E9011611492846C5E90623C2
:104570002E62296001F0E4F870B910210A4801F0B8
:104580008FFA30B92565AC622CB070BDFCF7D4FC55
:10459000C0E7FCF7D1FCF5E7FCF7CEFCEDE700BF88
:1045A0000080024200100240202803200000024246
:1045B00008040240094B02689A4200D07047A3F5F4
:1045C00000539A6C82B042F480529A649B6C03F45C
:1045D00080530193019B02B0704700BF003002403E
:1045E00010B500210446ACB0942207A8CDE9021111
:1045F000CDE9041106910AF0ABFC274B22689A42E0
:1046000001D02CB010BD4FF000724FF0807307A89E
:104610000792219304F0FEFC002832D19FED1A6B23
:104620009FED1B7B09241D4B02A9DA6D1C4842F447
:104630000072DA65DA6D02F400720092009ADA6CA8
:1046400042F00202DA64DB6C8DED026B03F00203D0
:1046500001938DED047B019B069402F051F9002239
:104660000521272000F05EFF272000F095FF0022A3
:104670000521282000F056FF282000F08DFF2CB0E7
:1046800010BDFCF759FCC9E7000300000200000060
:10469000000000000000000000A4004000100240E4
:1046A0000004024208B502680A4B9A4200D008BDD5
:1046B000094A4FF44071D36D084823F40073D36561
:1046C00002F024FA272000F075FFBDE808402820FA
:1046D00000F070BF00A4004000100240000402423D
:1046E00010B50446A6B09422002101A80AF030FCBF
:1046F000114B22689A4201D026B010BD4FF480239E
:1047000001A8019304F086FC98B90C4B0022D86CE8
:10471000052140F48020D864DB6C5E2003F4802304
:104720000093009B00F0FEFE5E2000F035FF26B0F7
:1047300010BDFCF701FCE8E700080C420010024045
:1047400000B5036887B0B3F1804F0DD02E4A934275
:1047500038D02E4A934214D02D4A934226D02D4A67
:10476000934244D007B000BD03F504339A6D42F084
:1047700001029A659B6D03F001030193019B07B051
:1047800000BD254B0022986D052140F02000986562
:104790009B6D322003F020030393039B00F0C2FEC5
:1047A000322007B05DF804EB00F0F6BE1A4B1A6E2B
:1047B00042F400321A661B6E03F400330493049B28
:1047C00007B000BD144B0022986D052140F0100089
:1047D00098659B6D312003F010030293029B00F05B
:1047E000A1FE312007B05DF804EB00F0D5BE0A4B06
:1047F0001A6E42F480221A661B6E03F4802305931E
:10480000059B07B000BD00BF001000400014004031
:104810000044014000480140001002400000000038
:1048200010B500210446AEB0942209A8CDE90411C8
:10483000CDE9061108910AF08BFB2D4B22689A42B4
:1048400001D02EB010BD4FF4005309A8099304F015
:10485000E1FB00283FD19FED226B9FED237B0A22D5
:10486000244C2548E36C04A943F00103E364E36CA2
:104870008DED046B03F001030193019B8DED067B2D
:10488000089202F03DF8E36D43F40013E365E36D35
:1048900003F400130293029BA36DDB0018D4A36DF5
:1048A00043F08053A365A36D03F080530393039BF0
:1048B00003F0CAFCA36D23F08053A36500220521F9
:1048C000492000F02FFE492000F066FE2EB010BDFA
:1048D00003F0BAFCF2E7FCF72FFBBCE7AFF3008074
:1048E00000180000020000000000000000000000AE
:1048F00000D40040001002400000024210B5014602
:1049000088B000222A2000F00DFE2A2000F044FE8C
:10491000154B01A91A6E03A842F400621A661B6EB9
:10492000124C03F400630293029B04F06BFA04F050
:1049300051FA0346002140F2E7300D4A2161A2FB03
:104940000323A1609B0C0B49E060013B20462160E2
:10495000636005F055FA10B1012008B010BD204683
:1049600005F05EF808B010BD00100240682A032070
:1049700083DE1B43002C0140FEE700BFFEE700BFC3
:10498000FEE700BFFEE700BFFEE700BF704700BFC5
:10499000014801F013B800BFD0250320014801F001
:1049A0000DB800BF68250320014801F0F9BB00BF26
:1049B00098270320014801F0F3BB00BF982703208C
:1049C000014805F01DB900BF682A0320014805F021
:1049D00017B900BFD0240320014805F011B900BF6A
:1049E00084240320014802F03FB900BF442703207C
:1049F000014802F0D7BA00BF44270320014804F061
:104A0000E5BE00BF38260320014805F0C3BA00BF49
:104A1000B0260320014802F00BBD00BF1021032087
:104A2000014800F0CBBF00BF20280320014804F05C
:104A3000FFBD00BF9C260320034AD2F8883043F410
:104A40007003C2F88830704700ED00E0254B25491F
:104A50001A68120754BFD3F894301B688A6858BF8D
:104A6000C3F3032302F00C0248BFC3F30313082A65
:104A700012D01D480C2A50F823300FD01B49042AAD
:104A800008BF0B46174A1A4892681A49C2F3031224
:104A9000825CD3400B607047174BF3E7C868CA6865
:104AA00000F00301C2F30312022902F1010211D046
:104AB000032913D0B3FBF2F10A4AD368D268C3F3D7
:104AC000062301FB03F3C2F3416201325200B3FB40
:104AD000F2F3D7E70549B1FBF2F1EDE70649B1FB87
:104AE000F2F1E9E700100240C41701080024F400C5
:104AF0000C1801085002032080969800DFF834D08B
:104B0000FFF79AFF002103E00B4B5B584350043141
:104B10000A480B4B42189A42F6D30A4A02E0002395
:104B200042F8043B084B9A42F9D30AF077FAFBF7B4
:104B3000C9FEFEE700000420381801080000032029
:104B4000C0030320C0030320EC570320FEE700004E
:104B5000042010B500F0D4FCFFF778FF0020FFF729
:104B6000CDFE10B10124204610BD0446FFF784FCA1
:104B7000204610BD034A044B11681B780B44136098
:104B8000704700BFB42A032054020320014B186869
:104B9000704700BFB42A0320002330B583B00193CF
:104BA000002800F09E80856D0446002D00F09C805A
:104BB000226893689D0005D5936823F0204323F075
:104BC0003F0393609368D80019D45C4B5C481B6822
:104BD00091689B09A0FB030321F010419B0921F080
:104BE0003F0101335B0041F0805191600193019BD3
:104BF0002BB1019B013B0193019B002BF9D19368E1
:104C0000D90064D40120A36D43F01003A365E36DC4
:104C10000343E365936813F0040FA36D5DD1DB06D6
:104C20005BD4A36D23F4817343F00203A3659368FF
:104C3000DD0708D4434B9B6813F0010F424B9B6880
:104C400001D1D90763D5E568636B94F820102B4335
:104C5000A568012943EA0503657E43EA453343EA33
:104C600001434FD0A16A21B1E56A01F47071294373
:104C70000B43D568354929401943D16093681B0718
:104C800016D494F83030257ED1685B0043EA853332
:104C9000E56C21F4804121F006012B430B43D360E6
:104CA00094F83830012B3AD0136923F001031361D3
:104CB0002369012B1ED0136B23F00F031363A36D25
:104CC00023F0030343F00103A36503B030BD9368F1
:104CD000002013F0040FA36DA1D0A36D43F01003C7
:104CE000A365012003B030BDFFF7E8FBE56584F85C
:104CF00054505DE7116BE36921F00F01013B0B4359
:104D00001363DCE7616A013943EA4143AAE71049CA
:104D100065688B6823F47C132B438B6093E71169E0
:104D2000E36B256C6FF38A012B430B43616C0B43E0
:104D3000A16C0B4343F001031361B9E75002032058
:104D4000632D3E05008002420081024207C0F0FF51
:104D500000830242704700BF704700BF08B5806AF9
:104D6000FFF7FAFF08BD00BF704700BF836A10B5A8
:104D70009A6D12F0500F9A6D1DD1196842F40072AD
:104D80009A650A6812F0080FCA681BD012F4406FC7
:104D90000DD1CA6894040AD49A6D22F480729A657F
:104DA0009A6DD10403D49A6D42F001029A651846B7
:104DB000FFF7D0FF10BDD2060AD4BDE810401B6D2E
:104DC000DB6B18479007E7D51846FFF7C3FFF1E7FD
:104DD0001846FFF7C9FF10BD806A08B5836D43F020
:104DE00040038365C36D43F00403C365FFF7BCFF55
:104DF00008BD00BF0022F0B583B0019290F85420A6
:104E0000012A00F0F380034601201A6883F8540059
:104E10009068400709D501209A6D42F020029A65FA
:104E2000002283F8542003B0F0BD1F24486802F12B
:104E3000300500F01F0C4FEA901E08680EF00C0EB3
:104E4000C0F3846000FA0CF004FA0CFC55F80E4034
:104E500024EA0C0C40EA0C0045F80E00906810F0B3
:104E6000040F906835D1070733D4072408688D688C
:104E7000C0F30456B440C00DB5F1004F6FEA04040E
:104E800000F0040000F0FC8002F11407B5403E5829
:104E900034402C433C50506920F0004050610E6972
:104EA000D468042E086800F0B88002F1600757F853
:104EB00026C0BA4D00F0F8400CEA05050543C4F3DE
:104EC000C10448696400A040284340F0004047F80E
:104ED00026009068C60701D50020A1E7CE680C68BF
:104EE000AF48D2F8B05006F01807F840C4F31207E4
:104EF000204025EA07052843C2F8B000A9488642A9
:104F000026D0A9490C42E7D0A848A94986688D68EF
:104F1000ED076ED4A74DAD68EF073FF57CAFA64D0A
:104F200006F0E077AC4200F05F81A44DAC4200F0A7
:104F30007F81A34DAC42CFD17402CDD48A42CBD174
:104F4000826822F0E0723A4342F480028260C3E752
:104F5000002F51D094FAA4F0002800F0D080B0FACD
:104F600080F0013000F01F00092840F2C88094FA58
:104F7000A4F0002800F07281B0FA80F001308006C1
:104F800000F0F84094FAA4F5002D00F06C810126A1
:104F9000B5FA85F5354405F01F0506FA05F52843F1
:104FA00094FAA4F4002C00F05C81B4FA84F4013487
:104FB00004F01F0404EB44041E3C240544F0007478
:104FC00007272043C50D8E6805F0040502F1140C77
:104FD0005CF80540C0F30450864007FA00F024EA6C
:104FE000000030434CF805000C688AE7022003B04B
:104FF000F0BD704A92680EE70120A40E013404F05F
:105000001F06A40604F0F845B040092E06EB46043E
:1050100040EA0500D0D82405D2E7146E146EC0F320
:105020001205C4F38464002D34D1C0F38466B44205
:1050300000F08B80546E556E02F16004C5F38465F8
:1050400002F1640CB54200F09480A568A56804F1F3
:105050000807C5F38465C0F38466AE4200F0B280F1
:10506000E568E56804F10C06C5F38464C0F3846068
:10507000A0427FF42EAF306820F00040306028E777
:1050800002F1140635582C403450506940F000406D
:10509000506104E790FAA0F51DB1B5FA85F5AC4270
:1050A00053D0546E556E02F16004C5F3846502F16D
:1050B000640C90FAA0F604F10807BE461EB1B6FAD9
:1050C00086F6AE4257D0A568A568C5F3846590FA08
:1050D000A0FC04F10C06B646BCF1000F03D0BCFAEC
:1050E0008CFCAC4570D0E568E468C4F3846490FA45
:1050F000A0F000283FF4EDAEB0FA80F0B8E794FAE3
:10510000A4F0002800F0A480B0FA80F001308006FE
:1051100000F0F84094FAA4F5002D00F097800126E5
:10512000B5FA85F5354405F01F0506FA05F528435F
:1051300094FAA4F4002C00F08E80B4FA84F40134C4
:1051400004F01F0404EB440465E71446106E02F1FA
:10515000640C20F0004044F8600F506E0868556EF3
:10516000C0F31206C5F38465002EA2D1C0F3846695
:1051700068E704F1080EDCF80000774620F00040F4
:10518000CCF80000A0680868A568C0F31206C5F353
:105190008465002E3FF45FAF99E700BF00F0FF0386
:1051A000FFFF070000007F400000088000830242EC
:1051B0000080024200810242000052C7000084CBFE
:1051C0000100008004F10C0E3868764620F00040A3
:1051D0003860E0680868E468C0F31205C4F38464CA
:1051E000002D3FF443AF82E736023FF575AE8A42A9
:1051F0007FF472AE82681D4922F0E0723A4342F4B5
:10520000000282600A681A499209A1FB02129209FF
:10521000013202EB420292000192019A002A3FF40D
:105220005BAE019A013A0192019A002AF9D153E644
:10523000F5013FF551AE8A427FF44EAE826822F00E
:10524000E0723A4342F08072826045E602256EE7E2
:105250004FF080605EE74FF44014B1E64FF080609D
:1052600090E6044CACE6022599E600BF500203200C
:10527000632D3E05000050FE002370B582B00193FF
:1052800003689A68D2072CD49968284A05461142C7
:105290002AD19A68264922F0004222F03F0242F0C9
:1052A00001029A608B681E0229D4FFF76FFC2B68FD
:1052B00006461A68D40714D41E4C9A68D00704D442
:1052C0009A68224042F001029A60FFF75FFC821B5D
:1052D000022A2B6802D91A68D10705D51A68D207A5
:1052E000EBD5002002B070BD0120AB6D43F0100380
:1052F000AB65EB6D43F00103EB6502B070BD0E4B87
:105300000E4A1B689B09A2FB03239B09013303EB95
:1053100043039B000193019B002BC6D0019B013BE3
:105320000193019B002BF9D1BFE700BF3F00008034
:1053300000830242C0FFFF7F50020320632D3E0521
:105340002DE9F041364B05689B68AD6815F0040502
:1053500016D1164690F854200446012A10D040F287
:10536000212C03F01F0801232CFA08FC1CEA030C73
:1053700080F8543007D180F854C00120BDE8F08196
:105380000220BDE8F0810F46FFF776FF002840D1EC
:10539000A36D216823F4706323F0010343F4807349
:1053A000A365204B994237D0A36D23F48013A365E6
:1053B000A36D002513F4805318BFE36D206D18BF53
:1053C00023F00603E36533461C263A46164F403168
:1053D000C762164F0763164FC76341F8406C84F8E5
:1053E000545051F83C5C45F0100541F83C5C51F8D4
:1053F000345C45F0010541F8345C00F017FA22688E
:10540000936823F0004323F03F0343F004039360C9
:10541000B7E784F85450B0E7B8F1000FC8D1C3E73C
:1054200000830242008102426D4D00085D4D00087C
:10543000D94D000890F85420012A46D00346002296
:105440000120F0B42B4D1C689AB0AC42169283F840
:105450005400179208D0996D83F8542041F0200130
:1054600099651AB0F0BC7047234A906840070BD585
:10547000A26801209A6D42F020029A65002283F80A
:1054800054201AB0F0BC7047A0684507F1D40D68ED
:10549000EDB11A4E4F68B06893F830C020F4604008
:1054A000384340EA4C30B060A0689268C0070AD424
:1054B000D70708D4B268896822F471620D4322F0DC
:1054C0000F021543B5600020D8E7022070470B4853
:1054D000816821F460418160A1689268CD07F2D4AF
:1054E000D407F0D4826822F4716222F00F02826045
:1054F000E9E700BF008002420081024200830242CD
:105500004FF6FF0C06490302CA6803F4E06302EA9F
:105510000C02134343F0BF6343F40033CB60704786
:1055200000ED00E01A4B00B5DB68C3F30223C3F1C2
:10553000070EBEF1030F03F1030C28BF4FF0030E5B
:10554000BCF1060F1BD9A3F1040C4FF0FF3303FA93
:105550000CF322EA03024FF0FF3303FA0EF321EAC1
:10556000030303FA0CF313435B010028DBB209DBEE
:1055700000F1604000F5614080F8003300BD00227A
:105580009446E8E7034A00F00F000244137600BD9A
:1055900000ED00E0FCEC00E0002807DB012300F058
:1055A0001F01034A40098B4042F82030704700BF7A
:1055B00000E100E000280CDB01220649430900F06D
:1055C0001F002033824041F82320BFF34F8FBFF3E9
:1055D0006F8F704700E100E0BFF34F8F0549064B26
:1055E000CA6802F4E0621343CB60BFF34F8F00BF81
:1055F000FDE700BF00ED00E00400FA05002836D00A
:1056000038B5437F044603F0FF0263B302222379D7
:105610006277F3B92368174A5A619A6822F0180230
:105620009A6062798AB122691A6101219A68656972
:1056300022F060022A439A609A68A56922F08002EB
:105640002A439A606177002038BD4FF0FF321A611B
:10565000EBE72046D4E9021200F00EF808B92368FF
:10566000DFE7012038BD0277FEF7A4FFCEE7012077
:10567000704700BFB71DC104CB071AD51E2310B455
:1056800001E0013B17D321FA03FC1CF0010FF8D015
:10569000182A11D8DFE802F01610101010101010A0
:1056A00024101010101010102110101010101010D5
:1056B0001400012070472AB101205DF8044B7047A7
:1056C000062BF9D8046800206161A36823F0180351
:1056D0001343A3605DF8044B7047072BF2D9EBE747
:1056E0000F2BEFD9E8E700BF11490368C26C8B426A
:1056F00088BF104922F0030294BF02F1804189184B
:105700004FF0010210B4DBB20B4CA3F10803A4FB71
:1057100003430A4CC3F3041398BF01F5023102FAA4
:1057200003F3C0E9141483655DF8044B704700BFB0
:105730000704024020080240CDCCCCCC80080240B7
:1057400000285ED00268304B70B59A42044646D9B4
:105750002E4B2F491344A1FB03132E481B099B001A
:105760000221C4E91203D4E9025320692B43034305
:10577000606984F825100343A06911680343E06958
:105780006FF310110343206A03430B432046136059
:10579000FFF7AAFFD4E91461B5F5804FA06D27D0BB
:1057A0006368DAB2013B032B3260486024D80121E0
:1057B0000020194B194D1344013A01FA02F218491D
:1057C0009B00E3656266256618604A640023012237
:1057D000636484F8243084F82520184670BD114B8A
:1057E0000B491344A1FB03131B090F489B00B7E7A8
:1057F00000236360336048600023C4E917336366A5
:10580000E4E70120704700BF07040240F8FBFDBF3A
:10581000CDCCCCCC000402403F82001040090240B5
:1058200000090240F8FFFDBF00000240F0B590F80B
:105830002440012C0AD04FF0010C90F8254080F84C
:1058400024C0644504D0002380F824300220F0BD39
:105850000026D0E9157C4FF0020E046880F825E0A0
:1058600046642668C56D26F001062660C7F804C0A8
:1058700015B1D0E9186777600126C76C07F01C0CDA
:10588000876C06FA0CF67E6063608368102B036BEE
:105890000BBFA260A160E160E260B3B1236843F096
:1058A0000E032360036D1A68D20303D51A6842F40D
:1058B00080721A601DB12B6843F480732B602368DB
:1058C000002043F001032360F0BD236823F00403AC
:1058D0002360236843F00A032360E3E790F8252060
:1058E0000346022A06D004225A640022012083F8CB
:1058F00024207047026870B4046D1068D96C20F0E1
:105900000E00106020689E6C20F48070206010688B
:1059100001F01C0120F0010010600122D3E91545BF
:10592000D86D8A407260656030B1D3E9181402689E
:1059300022F4807202604C60012283F8252000224C
:1059400083F82420002070BC704700BF90F8252009
:105950000346022A03D0042201205A6470470268D9
:1059600070B5046D1068D96C20F00E0010601068DE
:105970009E6C20F0010010602268D86D22F48072C5
:1059800022600122D3E9154501F01C018A407260B2
:10599000656030B1D3E91814026822F480720260A5
:1059A0004C60012000211A6C83F8250083F8241034
:1059B0000AB118469047002070BD00BF0421F0B422
:1059C000C26C866C02F01C02356804689140294262
:1059D0000346276812D017F0040F0FD0226817046F
:1059E00039D42268950603D4226822F0040222608A
:1059F0001A6B716092B1F0BC1846104702219140B9
:105A000029420DD0B8070BD5226812F4004F226846
:105A100029D0D4033CD45A6B002AECD1F0BC704797
:105A2000082191402942F9D03907F7D52168002093
:105A300021F00E0121600121DC6B01FA02F272609B
:105A4000596483F8240083F82510002CE6D018460A
:105A50002346F0BC184771602268D60314D4036B48
:105A6000002BF6D1DAE7900606D4226822F00A026B
:105A70002260012283F825200020DA6A716083F811
:105A80002400002AB7D1C9E7836B002BE1D1C5E719
:105A9000DA6A002AAFD1C1E790F82500704700BF4D
:105AA00060B10368C8061A6805D5C9024CBF42F444
:105AB000801222F4801200201A6070470120704783
:105AC000002800F0D78038B590F85C30044603F029
:105AD000FF02002B70D02268936923F010039361BA
