:020000040800F2
:1000000000000420B55200083151000835510008A5
:10001000395100083D5100084151000805530008BE
:10002000000000000000000000000000C103010803
:100030004551000800000000510301087DDB000865
:100040000553000805530008055300080553000830
:100050000553000805530008055300080553000820
:100060000553000805530008055300080553000810
:100070000553000805530008055300080553000800
:1000800005530008055300080553000805530008F0
:1000900005530008055300080553000805530008E0
:1000A00005530008055300080553000805530008D0
:1000B0000553000849510008555100080553000830
:1000C00005530008055300080553000805530008B0
:1000D0000553000805530008055300086151000846
:1000E0006D510008055300087951000805530008B8
:1000F0000553000805530008055300080553000880
:100100000553000885510008915100080553000867
:10011000055300080553000805530008055300085F
:10012000055300089D510008A95100080553000817
:10013000B551000805530008055300080553000891
:100140000553000805530008C15100080553000875
:10015000055300080553000805530008055300081F
:1001600005530008CD510008055300080553000849
:1001700005530008000000000553000800000000BF
:10018000D95100080553000805530008055300081D
:1001900005530008055300080553000805530008DF
:1001A00005530008055300080553000805530008CF
:1001B0000553000800000000E55100080553000841
:1001C000055300080000000005530008055300080F
:1001D000055300080553000805530008055300089F
:1001E000055300080553000805530008055300088F
:0401F000000000000B
:1002000010B5054C237833B9044B13B10448AFF350
:1002100000800123237010BDC003032000000000F4
:100220001809010808B5034B1BB103490348AFF394
:10023000008008BD00000000C40303201809010865
:10024000034613F8012B002AFBD1181A0138704716
:1002500053B94AB9002908BF00281CBF4FF0FF312D
:100260004FF0FF3000F0B2B9ADF1080C6DE904CEEB
:1002700000F006F8DDF804E0DDE9022304B0704781
:100280002DE9F04F8C46099E04460F46002B48D1BD
:100290008A4215465ED9B2FA82F33BB1C3F120021D
:1002A0009F409D409C4020FA02F217434FEA154EB2
:1002B0001FFA85FC220CB7FBFEF10EFB117701FB48
:1002C0000CF042EA0742904207D9AA1801F1FF3721
:1002D00002D2904200F258813946121AA4B2B2FBFF
:1002E000FEF00EFB102200FB0CFC44EA0244A44585
:1002F0000BD92C1900F1FF322CBF01270027A44590
:1003000002D9002F00F04381104640EA0140A4EBDF
:100310000C0400211EB1DC400023C6E90043BDE807
:10032000F08F8B4206D90EB1C6E9000100210846C4
:10033000BDE8F08FB3FA83F1002951D16345C0F0D5
:100340001681824240F213810846002EE7D0C6E9AA
:100350000047E4E7002A00F0AF80B2FA82F3002BF6
:1003600040F0C2808A1A4FEA154EAFB20121200C2C
:10037000B2FBFEFC0EFB1C2240EA024207FB0CF023
:1003800090420ED9AA180CF1FF382CBF4FF001098A
:100390004FF00009904203D9B9F1000F00F0F0804E
:1003A000C446121AA4B2B2FBFEF00EFB102200FBF0
:1003B00007F744EA0244A7420ED92C1900F1FF3294
:1003C0002CBF4FF0010E4FF0000EA74203D9BEF133
:1003D000000F00F0D2801046E41B40EA0C4099E781
:1003E000C1F120058B400CFA01F400FA01F922FA60
:1003F00005F72CFA05FC8A401F4320FA05F3380C58
:1004000023431FFA87FE1C0CBCFBF0F800FB18CC42
:1004100044EA0C4408FB0EFCA4450ED93C1908F133
:10042000FF3A2CBF4FF0010B4FF0000BA44503D94E
:10043000BBF1000F00F0B880D046A4EB0C041FFA0B
:1004400083FCB4FBF0F300FB134403FB0EFE4CEA09
:100450000444A6450ED93C1903F1FF302CBF4FF0E0
:10046000010C4FF0000CA64503D9BCF1000F00F0C1
:100470009F80034643EA0840A4EB0E04A0FB02EC75
:1004800064457346E04602D307D1F14505D2BEEB81
:1004900002036CEB070C0138E0465EB1B9EB0302D6
:1004A00064EB080404FA05F522FA01F3CC401D437D
:1004B000C6E90054002132E742082F464B08AC46FB
:1004C00042EAC172AE46C407110C92B241EA03413E
:1004D00042EA0142B1FBF5F1B3FBF5F01F23A2EBB9
:1004E0000C0241EA004142E79D40C3F120029940DD
:1004F0009C402CFA02FC4FEA154E20FA02F2AFB2F1
:10050000BCFBFEF80A430EFB18CC110C41EA0C416F
:1005100008FB07FC8C4550D9691808F1FF302CBF47
:100520004FF001094FF000098C4502D9B9F1000FD5
:1005300030D0A1EB0C01B1FBFEF808FB07FC0EFB71
:10054000181192B242EA0142624534D2AA1808F167
:10055000FF312CBF4FF001094FF000096245BED2B8
:10056000B9F1000FBBD1A8F102012A44B7E7841A00
:100570006CEB030201201746E7E62C4402382BE718
:10058000ACF1020C2A440CE702392A44A5E62C44BB
:100590000238BAE6A5EB0C0CA8F102006144B1FBED
:1005A000FEF808FB07FCCAE7A8F102083C4444E750
:1005B000023B3C445EE7414691E7A1EB0C0140461B
:1005C000B1FBFEF808FB07FCB9E700BF704700BFAE
:1005D000704700BF10B501220D490E4882B00BF0E4
:1005E00099F90D4C0DF106014FF0FF3302222068FE
:1005F0000EF072F94FF0FF330849BDF8062020686D
:100600000EF06AF90548BDF8061001F029FCE9E78B
:10061000040503202827032030050320549F0120D0
:10062000F0B5274C274E9BB04FF0FF332822694688
:1006300020680EF051F92828F6D1039804F058F9F3
:100640000546002834D1029B9BB929460AAA009886
:1006500001F00EFC0EF046FE0AA90246684601F0C3
:10066000D5FD0EF03FFE0AA90246684601F0CAFB1E
:10067000DAE7B3F1005FF4D140F20172009B9342DC
:10068000EFD1082203990027914228BF11460D4659
:10069000C6E90577B760019F0B490C48C6E90037EA
:1006A000F56004F031F93046084901F04BFAD8E71B
:1006B0004FF0FF332A4620680AA90EF00DF9C2E771
:1006C0006C290320F00303209005FA0BE4030320B8
:1006D0002DE9F0431F4D9BB0DFF8808001AE0AAFDB
:1006E000002404EBC401C4F124024FF0FF33286856
:1006F00006EB81010EF0F0F80444232CF1D90498A4
:1007000004F0F6F8039B8146B3F1005F00D0A0B976
:10071000114806F091F850B13A4631460E4805F0BE
:1007200055FFD8F80C300133C8F80C30D8E74FF03B
:10073000FF3201210FF06AF8EAE70024A9EB040276
:1007400039194FF0FF3328680EF0C6F804444C45C1
:10075000F4D3DDE7682903201028032000000320DC
:1007600000B583B001F07EFB01F0BCF8032218490C
:10077000184805F0C1F902F02FFC00F0E5FE02F088
:1007800087FC0EF0AFFD01F037FB134809F03CFD8C
:10079000124809F001FD124C0EF0A4FD019002F088
:1007A00021FC019802F07AFC019800F0CFFE23783A
:1007B00013B9019801F0B0FC019801F025FB0198F4
:1007C00001F018FD0A2101A80EF0CCFCE4E700BFFF
:1007D0007C2A03200029032048250320B02403207D
:1007E000760003202DE9F0410026214DDFF88C80B2
:1007F000204FA6B012E00FF04FFC98F8003033B154
:100800000B9B23B164200DF071FA01F06BF800220C
:1008100002231146386800960FF07AF84FF0FF3245
:10082000012100200EF0F2FF0FF028FC124806F024
:1008300059F9044606A9104805F0C4FF02A90E485C
:1008400005F0E8FF5422294611A8AC6010F00CF81E
:10085000094B1E66189BB3F5003FCCD9AB689B02D1
:10086000C9D5012385F820300B9301F0FBF8C2E7CE
:1008700000000320D01C032010280320E0030320E5
:1008800000232DE9F04D84B07D4EDFF80082DFF8C3
:1008900004B27C4DDFF800A20DF10E078DF80B308D
:1008A00013E028680DF022FF012808D94FF0FF332C
:1008B0000222286803A90EF00FF8022845D0002173
:1008C0004FF0FF3208460EF0A1FF30680DF00EFF2A
:1008D0000028E6D04FF0FF33012230680DF10B0104
:1008E0000DF0FAFF0128DCD130680DF0FFFE012881
:1008F000D7D94FF0FF330222306803A90DF0ECFF87
:100900000228CED1BDF80C20B2F5805FC9D2002AF2
:1009100040F0A5809DF80B40002C52D10EF0E2FC77
:10092000594B5A49BDF80C20009703F073F8BDF8F5
:100930000E30002B79D10EF0D5FC534B5349BDF846
:100940000C20009703F0A2FFABE7BDF80C20B2F536
:10095000805FB4D272B10024121B08EB04014FF087
:10096000FF3328680DF0B8FFBDF80C20204484B296
:10097000A242F1D10EF0B6FC434B4146BDF80C202B
:10098000009704F053F8BDF80E30002B97D039468D
:100990004FF0FF330222DAF800000DF0B5FEBDF88B
:1009A0000E204FF0FF333849DAF800000DF0ACFEAE
:1009B000002202231146DBF8000000920EF0A8FF8F
:1009C0007DE70EF08FFC304B3049BDF80C200097CE
:1009D00003F0F8FEBDF80E30002BACD02A490A789F
:1009E0007F2A08D1022BA6D98B78A3F11102012A04
:1009F000A1D9312B9FD02648394604464FF0FF330A
:100A0000022200680DF080FEBDF80E204FF0FF338B
:100A10001D4920680DF078FE002202231146DBF804
:100A2000000000920EF074FF85E7194839464FF038
:100A3000FF33022200680DF067FE1548BDF80E2056
:100A40004FF0FF33104900680DF05EFE022322468E
:100A50002146DBF8000000940EF05AFF6BE70024FB
:100A6000121B4FF0FF3308EB040130680DF034FF28
:100A7000BDF80C2023189CB2A242F1D14AE700BF76
:100A80002404032018040320507F0120508F0120EC
:100A900020040320100A0320140403202DE9F04F42
:100AA000DFF8148185B0404E404DDFF810A108F109
:100AB0001C0908F5805B02AF14E028680DF016FEF3
:100AC000012809D94FF0FF33022228680DF10601F1
:100AD0000DF002FF022846D000214FF0FF320846F9
:100AE0000EF094FE30680DF001FE0128E5D94FF0BC
:100AF000FF3302222E4930680DF0EEFE0228DCD1D1
:100B0000B8F81420B2F5805FD7D272B10024121B5E
:100B100009EB04014FF0FF3330680DF0DDFEB8F84B
:100B20001420204484B2A242F1D10EF0DBFB014636
:100B3000204801F017FE0028BFD103E09BF82300F6
:100B40000DF0D4F80EF0CEFB02F0C6FE0128B4D0B2
:100B500030680DF0CBFD0128AFD89AF80030002B9B
:100B6000ECD10A20ECE7BDF80620082AB4D86AB117
:100B70000024121B39194FF0FF3328680DF0ACFE2A
:100B8000BDF80620204484B2A242F2D10EF0AAFBA6
:100B90003946BDF8062003F003FF01289CD00A2047
:100BA0000DF0A4F8F2E700BF200403201404032092
:100BB000E8B40120D4A40120D4B40120760003209D
:100BC00010B50D490D4802F0AFFA0C4C80224FF0E1
:100BD000FF330B4920680DF07FFE02460028F5D058
:100BE000074992B2074809F095FE4FF0FF32012104
:100BF00000200EF00BFEE9E7600503200805032046
:100C0000D49F01202827032001F022B9002001F001
:100C100023B900BF0022024B02481A6009F0F4BA5F
:100C2000DC030320FC240320014B1868704700BF3D
:100C3000DC0303200000000010B59EB04822002114
:100C40000CA80FF085FD00234FF40070CDE90233AE
:100C5000CDE90433CDE90733CDE909330193069398
:100C60000B9307F097FE08B172B6FEE7012302224C
:100C7000169311931993179210231D9207229FED3B
:100C80001E7BCDE91A320324042312900CA81C9376
:100C90008DED0C7B189408F0B9F8034608B172B6D4
:100CA000FEE70F22214601A8CDE903330593029404
:100CB000019207F057FF034608B172B6FEE7104AEB
:100CC0004FF0005C916D4BF67F3441F0807191657F
:100CD000926D069302F080720092089322222023E4
:100CE00006A8CDE90A230099CDF81CC0099409F0A3
:100CF00005F81EB010BD00BF290000000000010073
:100D000000100240F0B595B072B64FF00062A24BF1
:100D10009A60BFF34F8F62B6002404F0F5FAFFF734
:100D20008BFFCDE90E44CDE910449C4D1294EB6C41
:100D30004FF4604143F00403EB64EB6C224603F094
:100D400004030793079BEB6C954843F08003EB6427
:100D5000EB6C012603F080030893089BEB6C43F0D7
:100D60000103EB64EB6C03F001030993099BEB6C4B
:100D700043F00203EB64EB6C03F002030A930A9B5B
:100D800006F048FB224640F20111864806F042FB7D
:100D9000224641F2E401844806F03CFB4FF46043F4
:100DA0007F480EA9CDE90E361094119406F084F90F
:100DB00040F201137B480EA9CDE90E36CDE910446F
:100DC00006F07AF941F2E40377480EA9CDE90E3630
:100DD000CDE9104406F070F94FF4007371480EA984
:100DE000CDE90E34109606F067F908236F480EA976
:100DF000CDE90E34109406F05FF9AB6C052143F099
:100E00000403AB64AB6C224603F004030493049B1D
:100E1000AB6C1D203343AB64AB6C33400593059B37
:100E2000AB6C43F00203AB64AB6C03F002030693BC
:100E3000069B04F053FF1D2004F08AFF2246052183
:100E40001E2004F04BFF1E2004F082FF22460521E5
:100E5000502004F043FF502004F07AFF204606F0B3
:100E600057FE08B172B6FEE706F066FE034640B9CB
:100E70004F48504AC0E9002308F068FF18B172B625
:100E8000FEE772B6FEE74C4A4C4B10704C4A4FF4EA
:100E900040711A60102299609A619A620F211322A0
:100EA0003C2404275860D8609874D8631846C3E976
:100EB0000D661E825E615E62DC61D9621A621F632A
:100EC00005F0DAF9034650BB0BAD0B90CDE90E00EF
:100ED000CDE91000CDE91200C5E901004FF48070A2
:100EE0004FF4301C03214FF48052364CC4E90233D6
:100EF000C4E90A3384F8203084F83830324B208338
:100F00002046C4E90467C4F804C0E161626384F860
:100F10003060236004F01CFA18B172B6FEE772B6B6
:100F2000FEE70B902946204604F060FE08B172B639
:100F3000FEE706230F937F231193244B1090139009
:100F40000EA9204612970E9304F030FB08B172B63A
:100F5000FEE71F4B20460E930C230EA90F9304F0BF
:100F600025FB08B172B6FEE71A4B20460E931223FA
:100F70000EA90F9304F01AFB034608B172B6FEE700
:100F80001548C0E905338380144B0662036004F002
:100F900011FF28B372B6FEE700ED00E0001002403A
:100FA000000802420000024200040242001C024209
:100FB0001427032000080C42E0030320102803201C
:100FC00000A40040002903200080024240002019B4
:100FD0000002B0250004002A7428032000300240DB
:100FE00000234FF4E1310C225F48C0E90113C0E94E
:100FF0000333C0E908338361836243665B4B42611C
:1010000003600AF0BFFB014608B172B6FEE756481E
:101010000AF0E6FC014608B172B6FEE752480AF053
:1010200005FD08B172B6FEE74F480AF0BBFC034667
:1010300008B172B6FEE74E484E4AC37202604FF4E2
:10104000027302228380C0F8072006F07FFD08B1FA
:1010500072B6FEE741F63F76474C484ACDE90E00AE
:10106000C4E901001090A06120462260E66009F00A
:10107000BBFA034608B172B6FEE720460EA90E93EE
:10108000109309F0E3FA034608B172B6FEE73C4C50
:10109000CDE90E331093A360A36142F20F73394A76
:1010A0002046C4E90023E66009F09EFA034608B131
:1010B00072B6FEE720460EA90E93109309F0C6FA09
:1010C000034608B172B6FEE72F48304AC0E9043340
:1010D0008360026083614F224FF6FF734260C360FA
:1010E00009F082FA08B172B6FEE700234F214FF6ED
:1010F000FF722748C0E90113C0E904338361254B1F
:10110000C260036009F070FA08B172B6FEE74FF0F2
:1011100080414FF0FF32204C0B90CDE90E00CDE91D
:101120001000C5E90100C4E901002061A06120466A
:101130002160E26009F058FA08B172B6FEE74FF498
:10114000805320460EA90E9309F09CF8034608B17F
:1011500072B6FEE7204629460B930D9309F076FA06
:101160000446D8B172B6FEE728270320008000406D
:101170008821032000D40040FC24032000140040F8
:101180004825032000100040B02403200044014003
:101190006424032000480140942503206E48224621
:1011A00001216E4B0090CDE901444FF400700DF029
:1011B0000BFA05466A4E6B4A00960121CDE90144BF
:1011C000694B15604FF4007022460DF0FDF905469D
:1011D000664E674A00960121CDE90144654B1560D2
:1011E00046F2060022460DF0EFF90246624D634ECC
:1011F00000950121CDE90144614B326046F20600C1
:1012000022460DF0E1F95F4B5F4A01210092CDE9E2
:101210000144224618605D4B4FF47A600DF0D4F91A
:101220005B4D5C4B224600930121CDE901445A4BB2
:1012300028604FF47A600DF0C7F9584B22460093AE
:10124000574B0121CDE901441860564B4FF4A040A3
:101250000DF0BAF9544B22460093544B0121CDE9CD
:1012600001441860524B4FF4A0400DF0ADF9514BC2
:10127000186001F075F80EF035F832464E4B4F49C4
:10128000009500F09DFF4E4801F03AFF4D4800F0F8
:1012900099FD4D484D4A4E4900F00AFB0EA80E94A8
:1012A00001F054F820B90E9B13B94A4801F026F812
:1012B0000CF072FC0021484A48480CF0BDFC044682
:1012C000474B0021474A48481C600CF0B5FC0446D7
:1012D000464B0021464A47481C600CF0ADFC0446D2
:1012E0003B4B0021444A45481C600CF0A5FC0446D9
:1012F000434B0021434A44481C600CF09DFC0446CB
:10130000324B0021414A42481C600CF095FC0446D7
:101310002A4B00213F4A40481C600CF08DFC0446DB
:101320003E4B00213E4A3F481C600CF085FC0446C1
:101330003D4B00213D4A3E481C600CF07DFC0446BC
:101340003C4B00213C4A3D481C600CF075FC3C4B7A
:1013500018600CF043FCFEE734050320D4A2012002
:101360000C05032030050320D4A00120DC04032059
:1013700008050320481F0120B8040320240403208B
:1013800040BF00202004032094040320A0AF0020CD
:10139000180403207004032000A000204C04032044
:1013A0001404032000500020280403206C2903208B
:1013B00000000020682903201C040320C00E032025
:1013C00014270320742803201028032070130320FF
:1013D000D01C032004006345800B0108D5050008DC
:1013E000842103205C0B01082106000880210320D2
:1013F000380B0108D1060008140B0108610700082A
:1014000020180320F00A0108E5070008CC0A0108AB
:1014100081080008A80A01089D0A0008100A032094
:10142000840A0108C10B000860050320600A010856
:10143000090C00085C0503203C0A01080D0C00089B
:10144000580503200A4B186880B1002100B583B00D
:1014500001AA01910EF07CFB019B2BB14FF0E02320
:101460004FF08052C3F8042D03B000BD704700BF99
:101470006005032070B500251E4C82B022880195BE
:101480007F2A0ED81C4B19780D2904D01B48531CF9
:1014900081549BB206E0013A7F2A02D8184E306888
:1014A00040B9002301221449164823800AF032FA79
:1014B00002B070BD2B46022221460DF0BFF9022872
:1014C000EFD12B46228830680C490DF0B7F92388FC
:1014D0009842E6D10C4B2946186801AA0EF038FB59
:1014E000019B002BDDD04FF0E0234FF08052C3F87A
:1014F000042DD6E7000503200405032054A0012095
:10150000300503202827032084210320094A03688B
:10151000934206D0084A93420AD0084A934205D023
:101520007047074A136801331360704700F088BCA6
:1015300003F0FCBE00140040002C014000100040ED
:10154000DC03032072B6FEE7704700BF10B5094CFC
:101550000949208980B200F099F8208A0749C0B271
:1015600000F014F9208B064980B2BDE8104000F06D
:1015700013B900BF54000320D801032060010320E9
:10158000E80003208446002310B50C4682B00DF11C
:10159000060002226146ADF8063003F0B5F9BDF849
:1015A0000600012C98BFC0B240BA80B202B010BD94
:1015B0008446002310B50C4682B00DF106000222CD
:1015C0006146ADF8063003F09FF9BDF80600012C26
:1015D00098BFC0B240BA80B202B010BD84460023AA
:1015E00010B50C4682B00DF1060002226146ADF83E
:1015F000063003F089F9BDF80600012C98BFC0B28F
:1016000040BA80B202B010BD8446002310B50C462B
:1016100082B00DF1060002226146ADF8063003F0FB
:1016200073F9BDF80600012C98BFC0B240BA80B271
:1016300002B010BD8446002310B50C4682B00DF1F7
:10164000060002226146ADF8063003F05DF9BDF8F0
:101650000600012C98BFC0B240BA80B202B010BDE3
:101660008446002310B50C4682B00DF1060002221C
:101670006146ADF8063003F047F9BDF80600012CCD
:1016800098BFC0B240BA80B202B010BD034600B5E8
:1016900083B008465BBA02220DF10601ADF80630B0
:1016A00003F032F903B000BD8446002310B50C46A8
:1016B00082B00DF1060002226146ADF8063003F05B
:1016C00023F9BDF80600012C98BFC0B240BA80B221
:1016D00002B010BD00787047002300B5012983B027
:1016E000ADF8063002D8184603B000BD014602220C
:1016F0000DF1060003F008F99DF8060003B000BDE7
:10170000002300B5012983B0ADF8063002D8184691
:1017100003B000BD014602220DF1060003F0F4F80B
:10172000BDF80600000A03B000BD00BF0078704796
:10173000007870478446002310B50C4682B00DF146
:10174000060002226146ADF8063003F0DDF8BDF870
:101750000600012C98BFC0B240BA80B202B010BDE2
:101760008446002310B50C4682B00DF1060002221B
:101770006146ADF8063003F0C7F8BDF80600012C4D
:1017800098BFC0B240BA80B202B010BD08707047B6
:101790000078704700787047030A08704B707047F4
:1017A000012994BF00780088704700BF0078704717
:1017B0002DE9F04F3A4B8346984283B007D8394B16
:1017C000984260D94FF028094FF4487609E036492D
:1017D0004FF02509B1FBFBF1C9B2192940F2EE2601
:1017E0005BD90124304B0134A4B2B3FBF4F1B1FB5B
:1017F000FBF1C9B21929F6D8B4F5806F3FD20120A8
:101800002A4BCDF804B01F6823186FF0004C4FF43A
:101810007A759B461FFA83FAA1F1020EBEEB510FB7
:101820004FEA51031ADD01F1FF385FFA88F805FB32
:1018300003F2B2FBF1F2B21A002AB8BF524262457B
:1018400009DA914507DB00209446A8EB0302D2B2E7
:10185000FB617C613A6201337345E8DB124B1FFA8E
:101860008BF4B3FBFAF1019BB4F5806FB1FBF3F19C
:101870000AF1010AC9B203D004F1010BCCE701203F
:1018800003B0BDE8F08F08494FF02B09B1FBFBF125
:10189000C9B2192940F26B36A3D80124AFE700BFC3
:1018A00000350C0020A10700005A6202602A0320C4
:1018B00038B50C46064D0749074B0A6028600749B2
:1018C00001201C600CF020FC054B186038BD00BFE7
:1018D000602A0320582A03205C2A03207029032051
:1018E000C0290320F0B5574E83B0306804F058FE8D
:1018F000306804F0C1FC002840F084800022524D82
:10190000402152482A71EA602A616A61AA61AA608C
:10191000EA6185F8202005F07DFD306804F040FE86
:10192000082201233068C0E90D2304F0A5FC00283B
:1019300040F0858000240222012340F2FF71C5E9B6
:101940000B23434FA9636C6202E00134082C0ED0D4
:1019500037F8023F3F493068AC626B6304F076FDB4
:101960000028F2D00134FFF7EDFD082CF0D102235E
:101970004FF08042002001216B646FF06043C5E9A5
:101980000F20354A3068C5E9121234492B6504F03E
:101990005DFD08B1FFF7D6FD002302223068114635
:1019A000009304F07FFD002846D1306804F09CFDD0
:1019B00000283ED100220121306804F043FFA8BB7B
:1019C00000220621306804F03DFF60BB07224FF47F
:1019D000F051306804F036FF10BB072280213068D8
:1019E00004F030FFC8B900221D49306804F02AFF16
:1019F00080B900224FF46021306804F023FF20B941
:101A000003B0F0BDFFF79EFD78E703B0BDE8F040FE
:101A1000FFF798BDFFF796FDEBE7FFF793FDE2E7D1
:101A2000FFF790FDD9E7FFF78DFDCFE7FFF78AFDC0
:101A3000C6E7FFF787FDBDE7FFF784FDB5E7FFF7D2
:101A400081FD77E7602A03200000032000040242A2
:101A5000A20B010824000320FECA77003C000320EB
:101A600000407100014B186804F09ABD602A032001
:101A7000082824D8DFE800F0080C1014171A1D20DD
:101A800005001448FFF794BE42F21070FFF790BEB5
:101A900044F62060FFF78CBE4CF25030FFF788BE52
:101AA0000D48FFF785BE0D48FFF782BE0C48FFF7D3
:101AB0007FBE0C48FFF77CBE0B48FFF779BE0B4A90
:101AC000A0F51C53103B934201D901207047FFF74A
:101AD0006FBE00BF40420F00A086010048E8010031
:101AE00090D0030020A1070000350C00301B0F0030
:101AF0000346054A1978002051615978D1619978D7
:101B00001162DB7893617047102803200246024B74
:101B100000209A61704700BF10280320034600B5DB
:101B2000064A93F801E093F800C082F810E00449F7
:101B30009B7881F800C05374002000BD102803205A
:101B4000E00303202DE9F047054682B0C0680F4648
:101B500002F0CEFEAB68B3F1005F3ED0064682468F
:101B600000F12409264C4FF0FF3120680CF08AFB6D
:101B70000128F8D1DFF89480D8F800000CF0A2FD1D
:101B8000484517D202251F4A13792B4313710023AE
:101B900020681A4619460CF01BFA1B4A02231268E9
:101BA00010680022114600920DF0B2FE284602B0E5
:101BB000BDE8F08729464FF0FF332422D8F8000013
:101BC0000CF0A2FD054686B94D450CD00D4A012505
:101BD000137943F008031371D9E74FF0000A4FF06F
:101BE00024095646BEE70025D1E7524639464FF054
:101BF000FF33D8F800000CF087FD0544E4E700BF90
:101C0000C0290320000003205C2A03206829032048
:101C10002DE9F04700250C4682B0C907064601951C
:101C200016D4A20707D50221314A137943F00103E4
:101C3000137133681965630738D4019B2BB14FF0DA
:101C4000E0234FF08052C3F8042D02B0BDE8F087C6
:101C5000DFF8A890DFF8988040214A46254B04F031
:101C600017FDD8F81430D9F80C000133C8F8143037
:101C700002F03EFEDFF888A00746DAF800000CF01C
:101C800021FD07F12803984224D349462822DAF897
:101C9000000001AB0CF0D2FD002FC2D03A46DAF8BA
:101CA0000000144901AB0CF0C9FDBAE70424104B45
:101CB00011499A69086801329A611A79002142F043
:101CC00008021A71336800680DEB04021C650DF000
:101CD0003FFFB2E7D8F8183029460133C8F818306A
:101CE000054B01AA1B6818680DF032FF99E700BF89
:101CF00000000320182A0320582A0320F02903207B
:101D00006C290320002110B50A4A0B4C1268236984
:101D100082B01068013301AA236101910DF018FF10
:101D2000019B2BB14FF0E0234FF08052C3F8042DFC
:101D300002B010BD5C2A032000000320002110B572
:101D40000A4A0B4C1268E36982B01068013301AA99
:101D5000E36101910DF0FCFE019B2BB14FF0E023FC
:101D60004FF08052C3F8042D02B010BD582A032052
:101D70000000032038B50C46104D294604F022FD22
:101D8000A10303D5EB68A3B90D4A1360620309D51B
:101D90002B690B4A012B13790CBF43F0040303F0AA
:101DA000FB031371230303D50122054B83F8202085
:101DB00038BD4FF00042024B1A60E7E7C429032008
:101DC00000000320704700BF91B14FF0FF3210B404
:101DD000084C014410F8013B5340DBB254F8233067
:101DE000884283EA1222F5D1D0435DF8044B704754
:101DF00008467047B40B01080022014B1A60704777
:101E0000682A0320704700BF10B5094C094A2368AF
:101E1000094903FB02F2B1EBB20F02D20133236096
:101E200010BD064801F0C2F923680133236010BDDC
:101E3000682A0320295C8FC2285C8F02D009010820
:101E4000024A136801331360704700BF642A0320FD
:101E500000200DF011B900BF00200DF00DB900BF3A
:101E6000704700BF0022014B1A70704776000320B4
:101E700000294AD030B577280C4683B02DD8572892
:101E800000F284801A2800F03981A0F124031F2B6E
:101E900039D81F2B37D8DFE813F00D013600360094
:101EA0003600360036003600360036003600360082
:101EB00006013600360036003600360036003600A1
:101EC00036003600FF003600360036003600360099
:101ED0003600360036003600F800B0F5EA7F12D240
:101EE000B0F5DC7F12D2B0F5A87F00F00D8100F2D2
:101EF000FA80982800F09280A22804D11046FFF7BB
:101F000017FC844BD87503B030BD7047A0F5DC7367
:101F10001B2BF8D801A151F823F000BF292000089D
:101F2000071F0008071F000845200008071F0008BA
:101F3000071F0008071F0008071F0008071F0008E9
:101F4000071F0008071F0008071F0008071F0008D9
:101F5000071F0008071F0008071F0008071F0008C9
:101F600037200008071F0008071F0008071F000888
:101F7000071F0008071F0008071F0008071F0008A9
:101F8000071F0008071F000853200008A0F158038E
:101F90001F2BB8D801A151F823F000BF6120000821
:101FA000071F0008071F0008071F0008071F000879
:101FB000071F0008071F0008071F0008071F000869
:101FC000071F00087D200008071F0008071F0008E2
:101FD000071F0008071F0008071F0008071F000849
:101FE000071F0008071F0008071F0008071F000839
:101FF0006F200008071F0008071F0008071F0008C0
:10200000071F0008071F0008071F0008071F000818
:10201000071F0008071F0008C32000081046FFF72D
:1020200085FB3C4B98756EE721461046FFF7B2FBE7
:10203000384B988367E721461046FFF791FB354BF5
:10204000588260E721461046FFF7B0FB314BD8833A
:1020500059E721461046FFF79BFB2E4B188252E7AB
:1020600021461046FFF7FCFA2A4B58814BE72146E0
:102070001046FFF72FFB274BD88144E72146104637
:10208000FFF712FB234B18813DE721461046FFF76F
:10209000D1FA204B988236E721461046FFF7B4FA72
:1020A0001C4B98802FE721461046FFF797FA194BF3
:1020B000D88028E721461046FFF77AFA154B18809A
:1020C00021E7214610460192FFF706FB114D012C36
:1020D00028733FF418AF019A21461046FFF710FB12
:1020E00085F820000FE740F2A71398427FF40BAF6A
:1020F0001046FFF71FFB074B588304E71046FFF716
:1021000041FA044B5880FEE61046FFF749FB014BAD
:102110001883F8E654000320264B1B7893B92DE969
:10212000F0410646244D82B005F10C0755F8044BEA
:10213000E36E626EF31A934205D2AF42F6D102B05B
:10214000BDE8F0817047B4F9723004EBE300002B76
:1021500000F1240008DBB4F8683002225BBA01A960
:10216000ADF8043002F0D0FBB4F9743004F1240867
:10217000002B4FEAE30111DB4046FFF725FE042266
:102180000190B4F974000DEB02010028B8BF0730CC
:10219000C010243004FA80F002F0B6FB074B414631
:1021A0001B6820462361FFF7CDFCA36EE666013372
:1021B000A366C2E776000320B40F010800000320E5
:1021C00038B50446084B094D1A60094B049A29603A
:1021D0001A6000F04DF8204601F032FB204602F074
:1021E000BFFB002038BD00BF702A0320742A0320E3
:1021F0006C2A032038B5054601F042FB0446284608
:1022000002F0BAFB2043C0B238BD00BF70B5154B19
:1022100082B01B6804460D46164601F067FB012894
:102220000AD0114B3246294620461B6802F0CEFBED
:1022300001280BD002B070BD00220C4B11461B6868
:102240001868022300920DF063FBEAE700220749B9
:10225000022309680868114600920DF059FB02B08C
:1022600070BD00BF702A03206C2A0320742A03204B
:1022700000B583B0102001A900F09EF808B903B0A2
:1022800000BD0021102000F07FF8003818BF0120A9
:1022900003B000BD00B583B0102001A900F08CF898
:1022A00020B90146019820B903B000BD012003B058
:1022B00000BD102000F068F8003818BF012003B0FE
:1022C00000BD00BF70B5002682B004460D46102048
:1022D00001A9019600F070F810B9019BA34202D841
:1022E000012002B070BD04F11100294680B200F057
:1022F00063F8801B18BF012002B070BD002210B52A
:10230000114B82B01B78019213B9184602B010BD70
:10231000044601A9102000F04FF840B9019811308F
:10232000FF2804D8214680B200F02EF818B101230E
:10233000184602B010BD01991020013100F024F8B8
:10234000031E18BF0123E0E777000320014608B50C
:10235000102000F031F8003818BF012008BD00BF80
:1023600010B504F0C1FB00200AF0E6FC044618B9E1
:1023700004F0CEFB204610BD00200AF0ABF804F0BC
:10238000C7FB204610BD00BF38B504460D4604F01B
:10239000ABFB204629460AF077FFC305044603D469
:1023A00004F0B6FB204638BD0AF06EF90443A4B22F
:1023B00004F0AEFB204638BD0AF0C8BA4FF4805294
:1023C00070B500240E4683180470C0F802400473F0
:1023D00084601C74C3F812409C61DC8100F50053DA
:1023E00005462146C3E907445E620D300EF0B0F9A0
:1023F0004FF48052A8182146BDE870401C300EF002
:10240000A7B900BFF0B5044683B0836031B3157837
:1024100094462B09032B21D8DFE803F0253A60020C
:1024200005F00F0500F50056012986F8215000F04F
:10243000AB809CF80130022986F8223000F0A7809A
:102440009CF8023086F82330002D00F0AC80012D7E
:1024500000F09F80032204F580531A74237B012B24
:1024600073D003B0F0BD03780BB1002303706B1E73
:10247000062BF3D801398D42F0D82A460CF1010120
:1024800004F10D0002F040FA022365802370E5E7B5
:1024900003780BB1002303700729DFD99CF80030C3
:1024A0009CF801201B0203F470631343072BA380E5
:1024B000D4DD06220CF1020104F10D0002F024FA31
:1024C00001220021062004F5005622706080B177B9
:1024D00004F58051CA813023F27F3CE00378012B60
:1024E000BCD100F58057FA8905F00F0502F00F0303
:1024F0009D4246D14088A3881B1A9BB2072B5BD90B
:102500000829ABD10132FA814B1EDDB20D302A46CB
:102510000CF10101204402F0F7F96388A2882B44F2
:102520009BB29A4263804FD004F50056F27F002A96
:1025300094D0FB89013B93FBF2F102FB1133002B9A
:102540008CD1B37F43F0300305E004F50056B37F30
:10255000F27F43F03003002196F8200021738DF8BC
:1025600002000320746A8DF800308DF8012002F01B
:10257000C5F903466946706AE360FFF7E3FA03B002
:10258000F0BD0023037069E7002386F822300023A2
:1025900058E704F58052137C013B012B3FF65EAFF8
:1025A000022313745AE704F580531A7C022A7FF43D
:1025B00055AF01221A7451E78B42BFF44FAF01327D
:1025C000072BFA81A1D19FE70223237046E700BFC2
:1025D0002DE9F84300F58056347C012C03D000240B
:1025E0002046BDE8F88300F500580F4698F8231000
:1025F0001D46F12928BF0121B3698446EB1A8B429D
:10260000EDD3718AB38A99B9072B51D81046314658
:1026100000F8013BB28A1C3102F076F90322B38A3A
:1026200001333B70B38A7382A8F81C4032743BE0DC
:1026300010465B1A1FFA83F9B8F81C30B9F1070F7E
:1026400003F00F0343F0200300F8013B738A03F506
:10265000805303F11C030CEB030114D9072202F091
:1026600053F908233B70738A0733738298F822204A
:10267000B8F81C30AAB1B3FBF2F102FB113282B9F7
:10268000022232740DE04A4602F03EF9032309F1BA
:1026900001023A703374738A9944B8F81C30A6F872
:1026A00012900133A8F81C302046B561BDE8F883CC
:1026B000C3F3032343F010031370B38A00F5805172
:1026C0005370901C1C31062202F01EF908230622CA
:1026D0003B7002237282A8F81C403374E4E700BF09
:1026E0000378012B06D18268034B891A9942C4BF33
:1026F0000023037000207047400D030030B500F543
:10270000805514462A7C0B46013A012A93B006D81C
:10271000AA698A1A12498A4284BF03222A7402AA29
:102720000DF10701FFF754FF50B92B7C032B02D0AA
:10273000002013B030BD002301202B7413B030BD36
:102740009DF8070002F0DAF8E06002E0012002F0F4
:10275000FBF8204602A9FFF7F5F90028F6D1E4E7D7
:10276000400D030000F5805CBCF81430B3F5805FC9
:102770000ED800B500224FF0010E00F50053ACF862
:1027800012209A838CF810E01046CCF8181000BD87
:10279000012070472DE9F043144602780646013ABD
:1027A0001D4685B0092A11D8DFE812F01C00100080
:1027B0000A009A01100010000A00100076010A00B9
:1027C000012900F09A817F22122101E07F2211214C
:1027D000032322703278A17062702B80002005B034
:1027E000BDE8F0830229EED1412323704378637062
:1027F000A62BE8D801A252F823F000BFC32C000892
:10280000A52C0008C7270008C72700086F2C000860
:10281000652C0008C7270008C7270008C72700083D
:10282000C7270008C7270008C72700084F2C000843
:102830003F2C0008C7270008C7270008C727000843
:102840000F2C0008C7270008C7270008C727000863
:10285000C7270008C7270008C7270008C7270008A0
:10286000C7270008C7270008C7270008C727000890
:10287000C7270008C7270008792C0008332C000858
:10288000052C0008C7270008C7270008C72700082D
:10289000C7270008C7270008C7270008C727000860
:1028A000C7270008C7270008C7270008C727000850
:1028B000C7270008C7270008C72700080F2C0008F3
:1028C000052C0008C7270008C7270008C7270008ED
:1028D000C7270008C7270008C7270008C727000820
:1028E000C7270008C7270008C7270008C727000810
:1028F000C7270008C7270008C7270008F12C0008D1
:10290000E52C0008D92C0008C7270008C7270008B5
:10291000C7270008CF2C0008C7270008C7270008D2
:10292000C7270008C7270008C7270008C7270008CF
:10293000052C0008052C0008C7270008C727000839
:10294000C7270008C7270008C7270008C7270008AF
:10295000C7270008C7270008C7270008C72700089F
:10296000C7270008C7270008C7270008C72700088F
:10297000C7270008C7270008C7270008192C000828
:10298000C7270008C7270008C7270008C72700086F
:10299000C7270008C7270008C7270008C72700085F
:1029A000C7270008C7270008C7270008C72700084F
:1029B000C7270008C7270008C7270008C72700083F
:1029C000C7270008C7270008C7270008C72700082F
:1029D000C7270008C7270008C7270008C72700081F
:1029E000C7270008C7270008C7270008C72700080F
:1029F000C7270008C7270008C7270008192C0008A8
:102A0000C7270008C7270008C7270008C7270008EE
:102A1000C7270008C7270008C7270008C7270008DE
:102A2000C7270008C7270008C7270008C7270008CE
:102A3000C7270008C7270008C7270008C7270008BE
:102A4000C7270008C7270008C7270008C7270008AE
:102A5000C7270008C7270008C7270008C72700089E
:102A6000C7270008C7270008C7270008C72700088E
:102A7000C7270008C7270008C7270008992C0008A7
:102A8000C7270008C7270008C7270008C72700086E
:102A9000C7270008272C000802297FF494AE492399
:102AA0002370437863700A2B3FF68DAE01A252F873
:102AB00023F000BF532B0008C7270008732B000822
:102AC000C7270008612B0008C7270008F52B00085E
:102AD000C7270008C7270008C7270008D72B00080A
:102AE00001297FF470AE0191FFF7D4FB019968BB17
:102AF000337840332370298070E602A8FFF726FC64
:102B000020BB029B5A1C52002A80327863704032EC
:102B1000DBB22270002B3FF461AE074604F10209DC
:102B200004F103080CE0039B1A0E09F817201B0C94
:102B30009DF8082008F817300137BA427FF64EAEEC
:102B4000384603A9FFF7BEFB0028ECD07F221021F6
:102B50003EE644F254020623C4F802202B803DE6F0
:102B600001236749A370E01C01F0DAFE13232B80D8
:102B700034E614230120E61CA07031462B80FFF7B9
:102B80001BFCE11D05460220FFF716FC034604F17D
:102B90000B0103201D43FFF70FFC034604F10F0157
:102BA0000420ADB21D43FFF707FC034604F11301F7
:102BB0000520ADB245EA0304FFF7FEFBA4B244EAE8
:102BC00000039BB2002B3FF409AE112200213046D6
:102BD00001F096FE02E60123E61CA37014220021F8
:102BE000304601F08DFE3046464901F099FE17232C
:102BF0002B80F3E5782207234349A271C4F8021021
:102C00002B80EBE5042200232A806380E6E5032283
:102C100000232A80A370E1E506224FF080732A800A
:102C2000C4F80230DAE50622384B2A80C4F80230B4
:102C3000D4E50622364B2A80C4F80230CEE50322C2
:102C4000344B2A809B8AC3F30723A370C6E5042371
:102C5000304A2B809388C3F34A13A3709388DB0018
:102C6000E370BBE5032274232A80A370B6E5032238
:102C70004C232A80A370B1E504232B800CF032FB97
:102C8000254DA5FB00239B0BA3700CF02BFBA5FB94
:102C900000539B09E370A1E5062204232A80C4F8AF
:102CA00002309BE503A8FFF751FB38BB039A02F003
:102CB0007F02002306212980A270E37023716371D3
:102CC0008CE50622154B2A80C4F8023086E50322E3
:102CD00051232A80A37081E504224BF635732A80A4
:102CE00063807BE5062200232A80C4F8023075E564
:102CF00006220B4B2A80C4F802306FE50022D8E789
:102D0000E4090108F4090108011234561234567816
:102D10008001800154000320D34D62109818800375
:102D2000A40C0001814204D900F17840B0F5802F55
:102D300001D30020704701F178410139B1F5802FAE
:102D40002CBF002001207047814208D9B0F1005FFC
:102D500005D3044881428CBF002001207047002029
:102D6000704700BF00000420814211D9B0F1005F1C
:102D700010D31A4B994219D9194B984208D91948BE
:102D800081428CBF002001207047B0F1006F15D246
:102D900000207047144B98420AD8144B9842F4D93B
:102DA000134881428CBF00200120704701207047EA
:102DB000104881428CBF0020012070470E4B994281
:102DC000E6D80E4BB3F8E030B3F5007FEED00C48F8
:102DD00081428CBF00200120704700BF000004200A
:102DE0003F20024040210240FFFFF90BFFFFF80B9C
:102DF0000080F90B0002FA0B000008080005FA0B2E
:102E00000000040800B58BB001A804F069F805982B
:102E1000AA3818BF01200BB000BD00BF00B58BB0B1
:102E200072B601A804F05CF804214FF40052079B2D
:102E3000019143F08063CDE9062303F055FE18B1FC
:102E400062B601200BB000BD03F06EFE0028F7D182
:102E500001A803F023FF10B903F088FEF0E703F0A8
:102E600077FE03F055FEEBE710B58AB003F03CFEA9
:102E7000044603F059FE044301A804F031F804218C
:102E80004FF480729DF81E30E4B2C3F3001383F058
:102E900001031B05CDE90623019134B103F058FE6F
:102EA00003F036FE01200AB010BD01A803F0F6FEC3
:102EB0000028F3D103F05AFE044603F049FE044310
:102EC00003F026FEE4B22043C0B2003818BF012050
:102ED0000AB010BD30B58BB003F006FE044601A861
:102EE00003F0FEFF002380220798022110F4801FC8
:102EF000CDE9033200930CBF02230123019101A805
:102F00006946029304F082F8054603F001FE284367
:102F10002043C0B2003818BF01200BB030BD00BF45
:102F200070B503F0E1FD05460F4C104ED4E90023C7
:102F3000B3F1FF3F08BFB2F1FF3F04F5802107D096
:102F4000012003F04FFE002818BF45F00105EDB247
:102F50000834B442EAD103F0DBFD2843C0B20038A4
:102F600018BF012070BD00BF00E003080000040886
:102F7000002330B58FB0009303F0B6FD0223044662
:102F800005A8019303F0ACFF0B9B042213F4801FF0
:102F90004FF07C0014BF02230123694603900DEB20
:102FA00002000492029304F031F8054603F0B0FDEC
:102FB000054344EA0500C0B2003818BF01200FB035
:102FC00030BD00BF014608B5012003F00BFE0038FC
:102FD00018BF012008BD00BF0022014B1A607047D6
:102FE000782A032010B4264C2388002B3FD0B3F559
:102FF0007B6F41D240F6FF71224AC3EB0333A2FB41
:103000000323A1EBD32189B2B4F802C0A388BCF595
:10301000E06F34BF4FF0000C4FF0010C1A4AB3F5CB
:10302000306F118082F802C013D2B3F5E06F21D265
:10303000B3F5407F22D2B3F5807F8CBF00230123FC
:10304000D1789B00994208D1104B18605DF8044B71
:1030500070470123D1789942F6D00C4C2168411A6F
:10306000FA29F3D9D37020605DF8044B704740F61D
:10307000FF71C9E70223EDE70021C5E70323E9E774
:103080007C2A0320BFBF8C8278000320782A03208B
:103090000022014B1A707047822A0320154B164AF2
:1030A0001B78108891787BB16FF4FC63C3183E2BBA
:1030B000124B14D91881188B60F0FF0080B218836E
:1030C00021B9598A89B201E00C4B18811982D27852
:1030D00022B1198B01F47F410A431A837047588942
:1030E00080B21881188BC0B21883588A80B21882B7
:1030F000E6E700BF822A0320780003205400032063
:10310000014B1860704700BF842A0320704700BF3E
:1031100000B5044B83B0186801A906F0FDFE0198C4
:1031200003B000BD842A0320024608B5044B0120E9
:1031300004491A600AF0E8FF034B186008BD00BF9D
:10314000DC2A03208C2A0320882A0320F8B50746AE
:103150000E46144C4FF0FF3120680BF093F8012815
:10316000F8D1114D39462B68324618684FF4FA638E
:103170000BF0CAFA024600232068144619461A4684
:103180000AF026FFA64203D109E00A200AF0AEFDAC
:103190002B6818680BF05CFA0128F6D1F8BD002006
:1031A000F8BD00BF882A0320DC2A032010B504469E
:1031B00001F0BEFB01462046BDE81040FFF7C6BF48
:1031C0000D4B02781B68403201291A700FD900B5E7
:1031D000A1F1020E10FA8EFE024610F801CF7245E0
:1031E00003F801CFF8D1054B1B68198000BD034BD4
:1031F0001B681980704700BF042B0320002B03209D
:1032000070B50129044682B00BD9457805F07F05D9
:10321000012D14D0022D02D07F20122503E00629B3
:103220002CD07F2013250321344B354A1B681268AC
:10323000187020789D705870118002B070BD40F2F7
:103240006713ADF80030FFF763FF2E4A2E4B424064
:10325000C3E903021D7794F9013000BA002BCDF8C1
:103260000200EADB0621254B254A1B680098BDF8C1
:103270000440126818609C801180DEE7224B9A6936
:10328000042A02D97F203625CDE758685969411AAA
:10329000092902D87F203725C5E7197F012902D0E7
:1032A0007F202425BFE7D4F802101E6909BA8E4298
:1032B00015D04FF0000E4FF07F0C586135250320DC
:1032C00001329A610D4A0E49126883F81CE082F8B7
:1032D00000C023780968537095700880ADE71D77AA
:1032E00094F90130002BA8DB40F26721034A044B1C
:1032F00012681B6811801D809FE700BF042B03200C
:10330000002B032078563412E02A0320022910B53E
:1033100010D04FF07F0E4FF0130C03210F4B104ACB
:103320001B68126883F800E0007883F802C05870C8
:10333000118010BD437833B1802BFAD04FF07F0E4F
:103340004FF0120CE9E7054A037812684033137016
:10335000034C407823685070198010BD042B032063
:10336000002B0320022930B510D04FF07F0E4FF014
:10337000130C0321424B434A1B68126883F800E098
:10338000007883F802C05870118030BD437803F094
:103390007F03022B2FD0032B1BD0012B3ED1002209
:1033A000394C3A4D23703A4B2A705A73C4E90322C0
:1033B000C4E90522227790F901304278002BE4DB42
:1033C00050242F4B2F481B6800685A701C700180D6
:1033D00030BD304A928A92B2B2F5805F47D37F25E2
:1033E0008824274A27491268096815700078947064
:1033F00050700B8030BD274A928A92B2B2F5805F3E
:103400001BD37F25222403211D4B1E4A1B681268F3
:103410001D7000789C705870118030BD4FF07F0C8B
:1034200012240321164B174A1B68126883F800C048
:1034300000789C705870118030BD00221249144CE5
:10344000C1E90322C1E90522104D62730A772A708F
:1034500090F901200B70002A417896DB5024084A2D
:1034600008481268006851701470038030BD002253
:10347000054C074D2370054B6A731A7096E700BF21
:10348000042B0320002B0320E02A0320082B032019
:103490000C2B032054000320204B214A022910B595
:1034A0001B6812680CD04FF07F0E4FF0130C0321F5
:1034B00083F800E0007883F802C05870118010BDD6
:1034C000184C94F800C0BCF1010F11D090F801C065
:1034D0000CF07F0CBCF1010F12D04FF07F0C1224C6
:1034E000032183F800C000789C705870118010BDD3
:1034F0007F2103241970007899705870148010BDD2
:10350000047840341C7044785C70118090F901306C
:10351000002BD4DABDE8104002F03ABC042B0320A3
:10352000002B0320E02A0320022910B510D04FF011
:103530007F0E4FF0130C0321184B194A1B681268B9
:1035400083F800E0007883F802C05870118010BD45
:10355000427802F07F03012B13D0022B04D04FF0EE
:103560007F0E4FF0120CE6E71206F0D40B490278FA
:10357000096840320A700A4C40782268487013800B
:1035800010BD1406E3D4054A037812684033137063
:10359000034C407823685070198010BD042B032021
:1035A000002B0320012970B51FD9427802F07F0358
:1035B000012B10D0032B1CD04FF07F0C12240321C1
:1035C000394B3A4A1B68126883F800C000789C7037
:1035D0005870118070BD02292AD08378103B032BCC
:1035E00051D8DFE803F04C4A444E4FF07F0C1324CF
:1035F000E5E72F4C217869B1120626D402212A4A28
:103600000378126840331370284C40782368507058
:10361000198070BD4FF07F0C2224234A2349126881
:10362000096882F800C00078947050700B8070BDFB
:103630007F25132403211C4B1C4A1B6812681D7034
:1036400000789C705870118070BD0123194D2E7840
:103650002B70FEF707FA4FF47A700AF047FBF6B2C8
:103660002078FEF705FAFEF73DF92E7070BD36237F
:103670000F490B701306C1D570BD3523F8E734230D
:10368000F6E73823F4E77F22002631240321064B96
:10369000074D1B682E701A70044A00781268587023
:1036A0009C70118070BD00BF042B0320002B0320F1
:1036B000082B03207600032030B54378044685B0FC
:1036C00013B98378442B0FD07F204FF0310C0321A6
:1036D0003C4B3D4A1B6812681870207883F802C082
:1036E0005870118005B030BD0B2903D07F204FF0FA
:1036F000130CECE7354B1978022903D04FF07F0CFF
:103700007F20E4E71B7F022B11D1314D6B7B13F03F
:10371000FB030FD07F20242503212A4B2A4A1B6854
:103720001268187020789D7058701180DAE74FF099
:10373000330CE5E7D0F80300AB6001232B73D4F81A
:10374000073000BA1BBAC1186B6001922860FFF7FE
:10375000E9FA1C4B19681C4BD3F800C040B36B68E6
:10376000019A13F0070F0AD07F2370200B700323F8
:1037700094F800E0887081F801E0ACF8003023781C
:103780006A734FF20F04202540338DF80C3003AAE2
:103790004B1EC81C8DF80D50ADF80E4012F8011BE1
:1037A00003F8011F8342F9D10423ACF8003099E7F4
:1037B0007F22312003230A70227888704A70ACF887
:1037C00000308FE7042B0320002B0320E02A032086
:1037D0000C2B0320042910B504460ED07F204FF097
:1037E000130C0321144B154A1B68126818702078BB
:1037F00083F802C05870118010BD4378FF2B03D0AE
:103800007F204FF0310CECE78378FF2BF8D1C378A1
:10381000FF2BF5D1FEF73EFD074B084A1B681268E7
:1038200020B17F204FF0720C0321DFE701202178C7
:1038300040311970108010BD042B0320002B032091
:1038400038B500240122094B09490A4D4C735860D0
:1038500009490A48C3E90344C3E905442C701A70B6
:103860001C77FEF7ABFD204638BD00BFE02A0320E1
:103870000C2B0320082B03207C000320D4A4012060
:10388000114B01461A78032A02D01048FEF728BFD0
:1038900041F288305A688A1A8242F6D900224FF0E3
:1038A000010C10B40A480B4C4273227083F800C01C
:1038B0001A7706485DF8044BC3E90322C3E90522E1
:1038C0005960FEF70DBF00BFE02A0320D4A40120F9
:1038D0000C2B0320082B03200146024A0248FEF766
:1038E0000DBF00BFA0000320D4A4012040F2E17C62
:1038F0002DE9F04100260446006882B060450F467D
:1039000098468DF80560ADF8066007D040F2DF7389
:1039100098423BD0002002B0BDE8F081E068154637
:1039200000F0E6FF3A4C01462B4620463A46FEF7A9
:1039300069FD2578022DEDD14FF0FF3301220DF105
:103940000501D8F800008DF805600AF0DDFE2A4672
:103950004FF0FF330546A11CD8F800000AF0D4FE52
:1039600002464FF0FF331544D8F80000628804F196
:103970000D010AF0C9FE638805440333AB4201D050
:10398000FDF7E0FD002323700120C4E7E06800F0AC
:10399000AFFF0028BED03D78002DBBD005F0080356
:1039A00053EA1513B6D1E06800F0A2FF431E9D4212
:1039B000B0D8012217F8014B4FF0FF330DF105018C
:1039C00004F00F04D8F800008DF80520ADF806408B
:1039D0000AF09AFE4FF0FF33022204460DF1060171
:1039E000D8F800000AF090FE02464FF0FF3314446E
:1039F0003946D8F80000BDF806200AF085FEBDF86B
:103A0000063004440333A342BED0FDF79BFDBBE761
:103A1000D4A401202DE9F04F00248FB0DDF860C060
:103A20009E4FACF800409E4E0C469E491D46914666
:103A3000C6F800C048603B60002A00F0838023780D
:103A40000F2B40F29080A3F11002772A00F28880B9
:103A5000DFE812F095009C0086008600A300860037
:103A6000860086008600AA00860086008600860002
:103A70008600860086008600D100D700860086007A
:103A800086000A0186008600860086008600860081
:103A90001101860086003501860086007C01D30175
:103AA000D9012A01860086008600860086009601DC
:103AB0008F018600860086008600860086008600CC
:103AC00086008600860086008600860086008600C6
:103AD00086008600860086008600860086008600B6
:103AE00086008600860086008600860086008600A6
:103AF0008600860086008600860086008600860096
:103B00008600860086008600860086008600860085
:103B10008600860086008600860086008600860075
:103B20008600860086008600860086008600860065
:103B30008600860086008600860086009200EE01E0
:103B4000860003017F2284F80090132103232A704A
:103B50002278A9706A70ACF800300FB0BDE8F08F21
:103B60007F221121F2E763462A46494620460FB0DC
:103B7000BDE8F04FFEF70EBE7F221221E6E7494670
:103B800020460FB0BDE8F04FFFF7ECBB494620469A
:103B90000FB0BDE8F04FFFF77FBC494620460FB09D
:103BA000BDE8F04FFFF716BEB9F1020F27D9592330
:103BB0002B7004236278AB706A70637803F07F0324
:103BC000012B00F02483022B00F051837F2312226B
:103BD0002B7003232178AA706970ACF8003094F937
:103BE0000130002BB9DA3B681B787F2BB5D000225F
:103BF00033681A80B1E7B9F1030F00F057827F22D2
:103C0000A3E7B9F1010FFAD0637803F00F02042A99
:103C1000B2D103F0F002402AAED80A78012A33D09C
:103C20001B099A1D9145EAD1002B00F0CD844FF07D
:103C30000008013BDB00611D11F8012F9A40083B91
:103C400013F1080F48EA0208F6D140F6FE739845D2
:103C500040F2BB847F22312178E7494620460FB0ED
:103C6000BDE8F04FFFF79EBC494620460FB0BDE8C7
:103C7000F04FFFF7C5BAB9F1020FC0D991F8008033
:103C8000B8F1020F00F0CB827F2303222B70217842
:103C9000AB706970ACF800205FE700BF042B032015
:103CA000002B0320E02A0320B9F1010FA7D1B64B66
:103CB0005A7B032A00F01E837F22242146E7B9F1B4
:103CC000030F9CD994F901206378002ABCBF03F04C
:103CD0007F0363706388B8BF4FF001085BBA9BB283
:103CE000A8BF4FF00008B3F5097F80F20C83B3F54D
:103CF000007FC0F2A480A3F50073232B00F29F8005
:103D0000DFE813F0EB00DA00480133013101110163
:103D1000B501A70165015A019D009D009D009D0010
:103D20009D009D00830174019D009D009D009D00EC
:103D30009D009D009D009D009D009D009D009D009B
:103D40009D009D000A010301BF00B4008F4BB3F832
:103D5000E030B3F5007F7FF403AFB9F1020F7FF6D7
:103D60004EAF0122494620460FB0BDE8F04FFFF7A5
:103D7000A3BC494620460FB0BDE8F04FFFF7C6BAD6
:103D8000B9F1010F3FF43BAF637803F00F02042A4F
:103D90007FF4F2AE03F0F002402A3FF6EDAE1B09CD
:103DA0005A1D4A45BFF62BAF002B00F069844FF037
:103DB0000008581EC00004F1050E1EF8012F8240B5
:103DC000083848EA020210F1080F1FFA82F8F4D10D
:103DD00003F1060A0AEB080399457FF410AF0B784C
:103DE000022B00F010847F237F2103222970217889
:103DF000AB706970ACF80020AFE6B9F1020F7FF646
:103E0000FEAE0222AEE7B9F1010F3FF4F8AEDFF8E3
:103E1000788198F80D30012B00F0E081022B7FF4BF
:103E20004BAFB9F1020F00F085827F2271218DE640
:103E3000494620460FB0BDE8F04FFFF775BB7F2322
:103E40002B7023786B703123AB704FF00309ACF803
:103E50000090B8F1000F3FF480AE3B681B787F2BD9
:103E60003FF47BAE0023ACF8003076E6B9F1040FE6
:103E700000F0F1837F232B7023786B701323AB70DA
:103E8000E3E7B9F1070FF5D1201DFDF747FEFDF778
:103E900029FD0A2009F02AFF042122783B684032DC
:103EA000D6F800C01A7062785A70A2789A70E278D8
:103EB000DA70ACF80010CCE7FFF75AF8D6F800C07B
:103EC0003B68002800F0DF837F221A7022784FF0D1
:103ED00003095A7072229A70B9E7B9F1040FC9D177
:103EE0006378012B00F04F84022B78D10022284BFD
:103EF0001A70237840332B7063784FF004096B708D
:103F0000A378AB70E378EB70A1E7B9F1050FB1D1FD
:103F10002079FDF7FBFDBAE7B9F1070FAAD1201D03
:103F2000FDF7E6FDB3E7B9F1060FA3D140F6FB724A
:103F3000A3885BBA9BB2934281D8712229462A702A
:103F40006278181F6A70A278AA70E27801F8032FCD
:103F5000002202E001F8012F01329042FADC043322
:103F60001FFA83F973E77123C5E77123621C2B7075
:103F7000A9F1020312FA83F314F8012FA34205F802
:103F8000012FF9D163E700BF0C2B03200005FA0BCA
:103F900076000320FEF7C4FFD6F800C03B68002877
:103FA00092D10122217840311970A15C99540132DB
:103FB00091B28945F9D84AE70B7F022B00F0FD82C8
:103FC0007F232B7023786B703323AB703DE7B9F1FF
:103FD000080F7FF44FAF6378012B00F0C0837F237D
:103FE0002B7023786B701223AB702EE7B9F1040F9E
:103FF0007FF440AF0B78022B00F07B837F237F227E
:104000002A702278AB706A701FE7B9F1040F7FF451
:1040100031AF0B78022BF1D10B7F022B40F099834B
:104020006378012BDBD1FEF7EDFE002840F08B8397
:10403000FEF7F4FE002840F02F8204212046FFF70F
:10404000BFF8D6F800C0BCF80030002B3FF485ADB7
:10405000FFE6B9F1040F7FF40DAF6378012B00F098
:104060007A83022BBBD10022BC4B1A7041E7B9F115
:104070000B0F7FF6FFAE6568D4F808902DBA99FA59
:1040800089F9284609EB0501FEF76EFE002840F08D
:104090003D837F223B6831211A702278D6F800C018
:1040A0005A7003229970ACF80020D2E60022B4F8CE
:1040B0000100CDE9012240BA80B2A0F5007CBCF538
:1040C000007FCDE903220092C0F00481A0F5714089
:1040D00084380C2808D8DFE800F070076B62070707
:1040E00007075907070712007F20312503213B6886
:1040F0003268187020789D70587011802DE56946DF
:104100000120FEF759F901A980460220FEF754F973
:1041100002A948EA00080320FEF74EF91FFA88F8C2
:1041200048EA000803A90420FEF746F91FFA88F8B8
:1041300048EA000804A90520FEF73EF91FFA88F8AE
:1041400048EA00081FFA88F5694611220DF11700A8
:1041500000F0DAFB002DC7D11425237840333968ED
:1041600062788DF81430A378681E8DF815208DF8CC
:10417000163005AA4B1E11FA80F012F8011B03F845
:10418000011F9842F9D133681D80E6E40C2274497E
:104190000DF1170000F0B8FB0F252378DEE70422AD
:1041A00070490DF1170000F0AFFB07252378D5E724
:1041B0000A7804258DF81720D0E70C226A490DF102
:1041C000170000F0A1FB20230922684909A88DF8F7
:1041D0002330192500F098FB2378BFE7A9F10202EC
:1041E00012F007091FFA82FA7FF41FAED8F80830E0
:1041F000D8F8041053448B423FF617AE98F80C20C1
:104200006378934200F070817F2273219EE4B9F1BC
:10421000030F00F0EE807F2313222B70D9E44FF2BE
:104220008412B4F8013058BA80B220F008019142EB
:104230003FF410AD49F2F102934200F0EE80B9F183
:10424000070F7FF4DCACD4F8031009BAFEF79CF832
:1042500003463A683168002B00F096817F20722572
:10426000032310702078957050700B8075E4B9F1BD
:10427000030FD0D1002305A8EB70FEF767F8804646
:10428000002840F01681059B002B00F090818246AB
:104290006D4614E09DF803203B6803F80920BDF843
:1042A000022003F82A20009A4B44120A9A70009ABE
:1042B000DA70059B09F10409534540F20681504626
:1042C0002946FDF7FFFF0AF1010A0028E2D04FF06E
:1042D0000108EEE76946FEF76FF8002869D07F21F4
:1042E00031203B6832681970217898705970A2F8B3
:1042F000009032E40422494620465A730FB0BDE8CC
:10430000F04FFEF75DBFB3F57F4F00F0B0804FF682
:10431000017293427FF493ADB9F1040F7FF4AAAD1B
:104320006378012B7FF45BAE0B78022B00F0B78132
:104330007E2364E698F80C20637893427FF464AFA0
:10434000013388F80C302378002240332B706378D7
:1043500005F8013FD8F8083019E000BF822A032091
:104360009005FA0B1C0A0108040A0108100A01084A
:10437000D8F800100132CB5CB2F57F6F05F8013F31
:10438000D8F8083003F10103C8F8083004D0D8F891
:1043900004109942ECD892B2D8F804100232994233
:1043A000ACF800203FF6D9AB032388F80D30FFF7B7
:1043B000D4BB2378627840338DF81430A3786946F3
:1043C0008DF815200DF1170004228DF8163000F03D
:1043D0009BFA3A680DF11301531E063211F8010FD2
:1043E00003F8010F9342F9D1072233681A80FFF7CF
:1043F000B4BB002305A8EB70FDF7A8FF3B6831684C
:10440000002800F0CC807F221A70722220789A70E7
:104410005870A1F80090FFF7E2BBB9F1140F7FF4D8
:10442000EEABD4F803100120FDF7AEFFD4F807106F
:1044300005464046FDF7A8FF0346D4F80B100320BD
:104440001D43FDF7A1FF0346D4F80F100420ADB2C1
:104450001D43FDF799FF0346E17C0520ADB21D43E6
:10446000FDF792FFADB245EA00039BB2F1E6B9F168
:10447000040F7FF4FFAC6378012B7FF4B0AD0B78B1
:10448000022B7FF455AF0B7F022B40F06281FEF7C9
:1044900021FD00283FF4D1AD7F223B68D6F800C053
:1044A0001A70227872215A7003229970ACF8002099
:1044B000CFE47F223B681A70722221789A7059707B
:1044C0003368A3F80090FFF78ABBB8F1000F6ED0F5
:1044D0007F213B68722019700321257832685D7056
:1044E00098701180FFF77BBB013388F80C3002F025
:1044F000FBFABAF1000F00F0E8804D46A146AB464A
:1045000099F8043099F805201B0403EB026399F82D
:10451000032099F8081003EB022399F809200904F5
:1045200001EB026199F80220D8F8080013441BEB54
:10453000030299F8073009F1080901EB0323D8F8C1
:104540000010084419F8021C00F580200B44FEF707
:1045500039FD40EA0503DDB2D8F808300833C8F861
:104560000830A9EB04039A45CAD802F0D1FAD8E979
:1045700001329A4224BF032388F80D30002D00F049
:10458000AD807F207225B1E560782378A5785070E2
:1045900003204033137095700880FFF7DEBA0620C1
:1045A000059A5A71120A1A710880FFF718BB32680F
:1045B0009B0003331380FFF712BBBFF34F8FBFF392
:1045C0006F8F631D984767E49846D4F802502DBA60
:1045D00008EB05012846FEF7C7FB3B683168002859
:1045E00000F0D5802278ED1A40321A7003EB0802F1
:1045F00002E0E85C03F8010F9342FAD108F10103ED
:104600000B80FFF7AABA0B7F022B40F0D280D4F8C0
:1046100002502DBA284605EB0801FEF795FB00284D
:104620003FF462ADB8F1020F00F0BB80B8F1040FA7
:1046300000F0BB80B8F1080F40D06FF00603E21D18
:104640001B1B02E012F8011F297099188845F9D840
:104650005146204652E6FDF745F90A2009F046FB8F
:1046600022783B6840321A706278D6F800C05A70DF
:10467000A2789A70E278DA70ACF80090FFF7E9BBA4
:104680009846FFF7A5BB0122217840311970A15C43
:104690009954013291B28945F9D8FFF7D8BB0B7F05
:1046A000022B56D1444B5B7B042B29D07F232B70EC
:1046B00023786B702223AB70FFF7C7BBA168E0685B
:1046C0000BBA02BAC5E90023C2E702F021FAD8E921
:1046D00001329A4202D3032388F80D300220237856
:1046E0003A68647831684033137054700880FFF77B
:1046F00034BA0B7F022B2CD16378012B7FF46FAC83
:10470000FEF7B2FB00287FF4C7AE96E44946284680
:10471000FDF75AFB0825024621783B6840311970A5
:104720006178D6F800C05970A178EA409970E178B4
:10473000D871D970010E1971010C59719A71ACF8C8
:104740000050FFF786BB0CF0F3F800287FF4A4AE0E
:1047500073E4332353E4194A1370FFF7CABBE379B8
:10476000042B7FF46CABA0792379000240EA03604C
:10477000637940EA034040F00400FDF7BFFD0028E4
:104780007FF48AAE59E40E4A1370FFF7B2BB7F2064
:1047900031250322187020789D7058700A80FFF729
:1047A000DCB923895BBA2B8052E7A3681BBA2B6064
:1047B0004EE73323FFF718BB0C2B0320822A03207C
:1047C0007600032070B400242D4D039E2B602D4DE8
:1047D00034802E602C4D8C461C4611466860B2B168
:1047E0009CF800200F2A1FD9272A23D8103A172A0D
:1047F0002AD8DFE802F03834292930292929292943
:10480000292929292929292929292929292C8CF8E3
:1048100000107F221321032322709CF80020A17036
:104820006270338070BC70473346224670BC60466D
:10483000FDF7B0BF852A1ED0872A18D03E2A03D1A3
:1048400070BC6046FEF762BD7F221121E3E760463F
:1048500070BCFEF7D5BC604670BCFEF7BBBF6046BF
:1048600070BCFEF719BE604670BCFEF77BBD6046AB
:1048700070BCFEF797BE604670BCFEF755BE00BF29
:10488000042B0320002B0320E02A032038B5049AD0
:1048900012884AB11978512907D0C72904D1012AB1
:1048A00002D05B78032B08D038BD4FF4FA7009F0C2
:1048B0001DFABDE8384001F06BBA4FF4FA7009F008
:1048C00015FA0123084C25782370FDF7CBF84FF437
:1048D0007A7009F00BFA054BEDB21878FDF7C8F8BD
:1048E000FDF700F8257038BD76000320082B032063
:1048F000014BC0B2185C7047C00F0108704700BF81
:104900000AB10BF025BF70474AB1013A4B1E01387E
:10491000114413F8012F8B4200F8012FF9D1704791
:10492000421E11F8013B02F8013F002BF9D17047FC
:1049300008B503782BB10130FBF782FC013080B25F
:1049400008BD184608BD00BF4FF47A7202FB00F0A4
:10495000024BA3FB0030800909F0C8B9D34D6210A7
:1049600000220146034B1046C3E903221A70596026
:104970001A817047242B0320084B1A785AB14EF63F
:1049800060215A68821A8A4205D90022C3E90322AB
:1049900058601A701A810020704700BF242B032032
:1049A00038B5D0B20C46FFF7A9FF074DE86002E02A
:1049B0000A2009F09BF921462846FDF7C3F8002894
:1049C000F6D1012038BD00BF2C02032040F2525224
:1049D00030B51C46036883B0934202D0002003B078
:1049E00030BDC0680D46FFF783FFADF80600002814
:1049F000F4D04FF0FF33022220680DF1060109F0D8
:104A000083FE84464FF0FF3320682946BDF8062018
:104A1000644609F079FEBDF8063004440233A3422F
:104A200001D10120DBE7FCF78DFDFAE72DE9F0412C
:104A3000069EDFF850814F4C4F4F26607860C8F8D3
:104A4000003042B10D46FF2119702978FF290ED0A0
:104A50003878012801D0BDE8F081F53909291BD843
:104A6000DFE801F0203C1A1A1A2B1A5A4452012A84
:104A700001D06A78DAB9002201214FF4807408204D
:104A80003E4DC7E903223A813970C3F80150A3F8BB
:104A90000540D9713080DEE742F2FE010222198022
:104AA0003280D8E7012A1BD0697807293FD942F222
:104AB000FE21022219803280CDE7012A10D06A78C7
:104AC000002AF4D14FF080600821A3F80520DA71A4
:104AD0002B4AC3F8010031803A61BCE7082A20D094
:104AE00042F2FE11022219803280B4E7002159708F
:104AF0003A7A0620013A18BF01221201D9701971C1
:104B000059719A703080A6E700230122C7E9033368
:104B10003B703B8132809EE7FE2102221980328069
:104B200099E701226B681BBA3B61328093E73869D1
:104B30000144FEF719F90128D8F80060246805D06F
:104B400042F2FE2202233280238084E7FF23337067
:104B5000697859B100233A6912780133DBB2F25413
:104B60003A6901323A6169789942F5D80131218078
:104B700071E700BF1C2B0320242B03200000080832
:104B8000D00F0108202B032010B50F4B82B0186EF8
:104B9000002240F0010018661C6E072104F0010499
:104BA0000094009C9C6D6FF0010044F080549C6563
:104BB0009B6D03F080530193019B01F08FF802B0CD
:104BC000BDE8104003F024BF0010024070B5002182
:104BD0000446ACB0942207A8CDE90211CDE9041136
:104BE00006910BF0B5FD324B22689A4201D02CB0F1
:104BF00070BD03234FF480424FF08051CDE907236D
:104C00000993182211232791CDE90A2302210822B2
:104C10004FF0807307A8CDE90D230C9104F0EEFD51
:104C200000283BD1234B0026DA6C02A942F4005243
:104C3000DA64DA6C204D02F400520092009ADA6CC9
:104C400042F00102DA64DB6C322203F001030193CB
:104C5000032301981948CDE90223049602F02CFAA7
:104C600080224FF480730521C5E903626B614FF424
:104C700080622023C5E9011611492846C5E90623AB
:104C80002E62296001F038F970B910210A4801F04C
:104C9000E3FA30B92565AC622CB070BDFCF752FC6C
:104CA000C0E7FCF74FFCF5E7FCF74CFCEDE700BF75
:104CB00000800242001002409828032000000242B7
:104CC00008040240094B02689A4200D07047A3F5DD
:104CD00000539A6C82B042F480529A649B6C03F445
:104CE00080530193019B02B0704700BF0030024027
:104CF00010B500210446ACB0942207A8CDE90211FA
:104D0000CDE9041106910BF023FD274B22689A424E
:104D100001D02CB010BD4FF000724FF0807307A887
:104D20000792219304F06AFD002832D19FED1A6B9F
:104D30009FED1B7B09241D4B02A9DA6D1C4842F430
:104D40000072DA65DA6D02F400720092009ADA6C91
:104D500042F00202DA64DB6C8DED026B03F00203B9
:104D600001938DED047B019B069402F0A5F90022CE
:104D70000521272000F0B2FF272000F0E9FF0022E4
:104D80000521282000F0AAFF282000F0E1FF2CB028
:104D900010BDFCF7D7FBC9E70003000002000000CC
:104DA000000000000000000000A4004000100240CD
:104DB0000004024208B502680A4B9A4200D008BDBE
:104DC000094A4FF44071D36D084823F40073D3654A
:104DD00002F078FA272000F0C9FFBDE8084028203B
:104DE00000F0C4BF00A400400010024000040242D2
:104DF00010B500210446ACB0942207A8CDE90211F9
:104E0000CDE9041106910BF0A3FC214B22689A42D4
:104E100001D02CB010BD202307A8079304F0EEFCAE
:104E200050BB9FED176B9FED187B0824194B02A90F
:104E3000DA6D194842F00102DA65DA6D02F001021A
:104E40000092009ADA6C42F00102DA64DB6C8DEDBC
:104E5000026B03F0010301938DED047B019B06942B
:104E600002F02AF900220521422000F037FF4220FB
:104E700000F06EFF2CB010BDFCF764FBD1E700BF63
:104E80000C00000002000000000000000000000014
:104E900000800040001002400000024210B50446AD
:104EA000A6B09422002101A80BF052FC114B2268FD
:104EB0009A4201D026B010BD4FF4802301A801937F
:104EC00004F09CFC98B90C4B0022D86C052140F4EE
:104ED0008020D864DB6C5E2003F480230093009B69
:104EE00000F0FCFE5E2000F033FF26B010BDFCF7A2
:104EF00029FBE8E700080C420010024000B50368F7
:104F000087B0B3F1804F0DD02E4A934238D02E4A4D
:104F1000934214D02D4A934226D02D4A934244D036
:104F200007B000BD03F504339A6D42F001029A65A3
:104F30009B6D03F001030193019B07B000BD254B5E
:104F40000022986D052140F0200098659B6D32206D
:104F500003F020030393039B00F0C0FE322007B050
:104F60005DF804EB00F0F4BE1A4B1A6E42F4003206
:104F70001A661B6E03F400330493049B07B000BD54
:104F8000144B0022986D052140F0100098659B6D30
:104F9000312003F010030293029B00F09FFE3120AA
:104FA00007B05DF804EB00F0D3BE0A4B1A6E42F472
:104FB00080221A661B6E03F480230593059B07B0BD
:104FC00000BD00BF0010004000140040004401403C
:104FD000004801400010024010B500210446AEB068
:104FE000942209A8CDE90411CDE9061108910BF02E
:104FF000AFFB2D4B22689A4201D02EB010BD4FF46A
:10500000005309A8099304F0F9FB00283FD19FED54
:10501000226B9FED237B0A22244C2548E36C04A9D4
:1050200043F00103E364E36C8DED046B03F00103D3
:105030000193019B8DED067B089202F03DF8E36D34
:1050400043F40013E365E36D03F400130293029B42
:10505000A36DDB0018D4A36D43F08053A365A36D4B
:1050600003F080530393039B03F0CAFCA36D23F06A
:105070008053A36500220521492000F02FFE49201E
:1050800000F066FE2EB010BD03F0BAFCF2E7FCF7AC
:1050900059FABCE7AFF300800018000002000000DE
:1050A000000000000000000000D40040001002409A
:1050B0000000024210B5014688B000222A2000F00C
:1050C0000DFE2A2000F044FE154B01A91A6E03A81C
:1050D00042F400621A661B6E124C03F400630293E2
:1050E000029B04F083FA04F069FA0346002140F2BF
:1050F000E7300D4A2161A2FB0323A1609B0C0B4901
:10510000E060013B20462160636005F06DFA10B15C
:10511000012008B010BD204605F076F808B010BD9B
:1051200000100240382B032083DE1B43002C01407B
:10513000FEE700BFFEE700BFFEE700BFFEE700BFDF
:10514000FEE700BF704700BF014801F013B800BF81
:1051500048260320014801F00DB800BFE0250320D8
:10516000014801F0F9BB00BF10280320014801F0FD
:10517000F3BB00BF10280320014805F035B900BF7C
:10518000382B0320014805F02FB900BF4825032024
:10519000014805F029B900BFFC240320014802F0B2
:1051A0003FB900BFBC270320014802F0D7BA00BFB7
:1051B000BC270320014804F0FDBE00BFB026032039
:1051C000014805F003BC00BF28270320014802F076
:1051D0000BBD00BF88210320014800F0CBBF00BFFA
:1051E00098280320014804F017BE00BF14270320AD
:1051F000034AD2F8883043F47003C2F8883070470D
:1052000000ED00E0254B25491A68120754BFD3F87A
:1052100094301B688A6858BFC3F3032302F00C0262
:1052200048BFC3F30313082A12D01D480C2A50F8B4
:1052300023300FD01B49042A08BF0B46174A1A48CF
:1052400092681A49C2F30312825CD3400B60704724
:10525000174BF3E7C868CA6800F00301C2F30312F2
:10526000022902F1010211D0032913D0B3FBF2F19C
:105270000A4AD368D268C3F3062301FB03F3C2F3DF
:10528000416201325200B3FBF2F3D7E70549B1FBAB
:10529000F2F1EDE70649B1FBF2F1E9E70010024057
:1052A000D80F01080024F400201001085002032048
:1052B00080969800DFF834D0FFF79AFF002103E0D2
:1052C0000B4B5B58435004310A480B4B42189A422F
:1052D000F6D30A4A02E0002342F8043B084B9A4204
:1052E000F9D30BF09BFAFBF70DFDFEE7000004205D
:1052F0007C10010800000320C0030320C00303202A
:10530000D0580320FEE70000042010B500F0D4FCC4
:10531000FFF778FF0020FFF7CDFE10B101242046F3
:1053200010BD0446FFF730FC204610BD034A044B75
:1053300011681B780B441360704700BF842B032057
:1053400054020320014B1868704700BF842B0320D0
:10535000002330B583B00193002800F09E80856D56
:105360000446002D00F09C80226893689D0005D5BE
:10537000936823F0204323F03F0393609368D800A1
:1053800019D45C4B5C481B6891689B09A0FB030324
:1053900021F010419B0921F03F0101335B0041F0F6
:1053A000805191600193019B2BB1019B013B0193C3
:1053B000019B002BF9D19368D90064D40120A36D1F
:1053C00043F01003A365E36D0343E365936813F0B3
:1053D000040FA36D5DD1DB065BD4A36D23F4817351
:1053E00043F00203A3659368DD0708D4434B9B6831
:1053F00013F0010F424B9B6801D1D90763D5E568D3
:10540000636B94F820102B43A568012943EA050338
:10541000657E43EA453343EA01434FD0A16A21B197
:10542000E56A01F4707129430B43D5683549294079
:105430001943D16093681B0716D494F83030257E49
:10544000D1685B0043EA8533E56C21F4804121F0AB
:1054500006012B430B43D36094F83830012B3AD02C
:10546000136923F0010313612369012B1ED0136B11
:1054700023F00F031363A36D23F0030343F0010331
:10548000A36503B030BD9368002013F0040FA36D33
:10549000A1D0A36D43F01003A365012003B030BD7C
:1054A000FFF794FBE56584F854505DE7116BE36901
:1054B00021F00F01013B0B431363DCE7616A013903
:1054C00043EA4143AAE7104965688B6823F47C13DB
:1054D0002B438B6093E71169E36B256C6FF38A01B3
:1054E0002B430B43616C0B43A16C0B4343F0010353
:1054F0001361B9E750020320632D3E05008002428C
:105500000081024207C0F0FF00830242704700BFE3
:10551000704700BF08B5806AFFF7FAFF08BD00BFFB
:10552000704700BF836A10B59A6D12F0500F9A6DE4
:105530001DD1196842F400729A650A6812F0080FCA
:10554000CA681BD012F4406F0DD1CA6894040AD403
:105550009A6D22F480729A659A6DD10403D49A6D83
:1055600042F001029A651846FFF7D0FF10BDD2063F
:105570000AD4BDE810401B6DDB6B18479007E7D5D8
:105580001846FFF7C3FFF1E71846FFF7C9FF10BD44
:10559000806A08B5836D43F040038365C36D43F0B3
:1055A0000403C365FFF7BCFF08BD00BF0022F0B5D0
:1055B00083B0019290F85420012A00F0F380034652
:1055C00001201A6883F854009068400709D501202B
:1055D0009A6D42F020029A65002283F8542003B0AD
:1055E000F0BD1F24486802F1300500F01F0C4FEA9F
:1055F000901E08680EF00C0EC0F3846000FA0CF0E8
:1056000004FA0CFC55F80E4024EA0C0C40EA0C009D
:1056100045F80E00906810F0040F906835D1070728
:1056200033D4072408688D68C0F30456B440C00D15
:10563000B5F1004F6FEA040400F0040000F0FC80B4
:1056400002F11407B5403E5834402C433C50506999
:1056500020F0004050610E69D468042E086800F004
:10566000B88002F1600757F826C0BA4D00F0F84044
:105670000CEA05050543C4F3C10448696400A04071
:10568000284340F0004047F826009068C60701D53F
:105690000020A1E7CE680C68AF48D2F8B05006F001
:1056A0001807F840C4F31207204025EA07052843ED
:1056B000C2F8B000A948864226D0A9490C42E7D0DA
:1056C000A848A94986688D68ED076ED4A74DAD68D6
:1056D000EF073FF57CAFA64D06F0E077AC4200F057
:1056E0005F81A44DAC4200F07F81A34DAC42CFD18D
:1056F0007402CDD48A42CBD1826822F0E0723A4360
:1057000042F480028260C3E7002F51D094FAA4F0E3
:10571000002800F0D080B0FA80F0013000F01F00C7
:10572000092840F2C88094FAA4F0002800F07281A1
:10573000B0FA80F00130800600F0F84094FAA4F549
:10574000002D00F06C810126B5FA85F5354405F091
:105750001F0506FA05F5284394FAA4F4002C00F07E
:105760005C81B4FA84F4013404F01F0404EB4404B3
:105770001E3C240544F0007407272043C50D8E68A5
:1057800005F0040502F1140C5CF80540C0F3045068
:10579000864007FA00F024EA000030434CF8050088
:1057A0000C688AE7022003B0F0BD704A92680EE7E9
:1057B0000120A40E013404F01F06A40604F0F845ED
:1057C000B040092E06EB460440EA0500D0D8240577
:1057D000D2E7146E146EC0F31205C4F38464002D76
:1057E00034D1C0F38466B44200F08B80546E556EA1
:1057F00002F16004C5F3846502F1640CB54200F067
:105800009480A568A56804F10807C5F38465C0F312
:105810008466AE4200F0B280E568E56804F10C06EB
:10582000C5F38464C0F38460A0427FF42EAF306877
:1058300020F00040306028E702F1140635582C4073
:105840003450506940F00040506104E790FAA0F5F0
:105850001DB1B5FA85F5AC4253D0546E556E02F1C8
:105860006004C5F3846502F1640C90FAA0F604F1BB
:105870000807BE461EB1B6FA86F6AE4257D0A568F6
:10588000A568C5F3846590FAA0FC04F10C06B64641
:10589000BCF1000F03D0BCFA8CFCAC4570D0E568BD
:1058A000E468C4F3846490FAA0F000283FF4EDAEFD
:1058B000B0FA80F0B8E794FAA4F0002800F0A480D1
:1058C000B0FA80F00130800600F0F84094FAA4F5B8
:1058D000002D00F097800126B5FA85F5354405F0D6
:1058E0001F0506FA05F5284394FAA4F4002C00F0ED
:1058F0008E80B4FA84F4013404F01F0404EB4404F1
:1059000065E71446106E02F1640C20F0004044F884
:10591000600F506E0868556EC0F31206C5F38465BB
:10592000002EA2D1C0F3846668E704F1080EDCF80B
:105930000000774620F00040CCF80000A06808681E
:10594000A568C0F31206C5F38465002E3FF45FAF6F
:1059500099E700BF00F0FF03FFFF070000007F4052
:10596000000008800083024200800242008102425F
:10597000000052C7000084CB0100008004F10C0E2F
:105980003868764620F000403860E0680868E468CF
:10599000C0F31205C4F38464002D3FF443AF82E7E3
:1059A00036023FF575AE8A427FF472AE82681D49B9
:1059B00022F0E0723A4342F4000282600A681A4917
:1059C0009209A1FB02129209013202EB42029200FB
:1059D0000192019A002A3FF45BAE019A013A0192CA
:1059E000019A002AF9D153E6F5013FF551AE8A42FA
:1059F0007FF44EAE826822F0E0723A4342F0807249
:105A0000826045E602256EE74FF080605EE74FF466
:105A10004014B1E64FF0806090E6044CACE60225FD
:105A200099E600BF50020320632D3E05000050FEA2
:105A3000002370B582B0019303689A68D2072CD412
:105A40009968284A054611422AD19A68264922F0C7
:105A5000004222F03F0242F001029A608B681E026F
:105A600029D4FFF76FFC2B6806461A68D40714D4B4
:105A70001E4C9A68D00704D49A68224042F0010272
:105A80009A60FFF75FFC821B022A2B6802D91A6812
:105A9000D10705D51A68D207EBD5002002B070BD3A
:105AA0000120AB6D43F01003AB65EB6D43F00103D8
:105AB000EB6502B070BD0E4B0E4A1B689B09A2FB42
:105AC00003239B09013303EB43039B000193019BD9
:105AD000002BC6D0019B013B0193019B002BF9D108
