:020000040800F2
:1000000000000420C554000841530008455300086F
:10001000495300084D530008515300081555000876
:10002000000000000000000000000000D1050108F1
:100030005553000800000000610501088DDD00082F
:1000400015550008155500081555000815550008E8
:1000500015550008155500081555000815550008D8
:1000600015550008155500081555000815550008C8
:1000700015550008155500081555000815550008B8
:1000800015550008155500081555000815550008A8
:100090001555000815550008155500081555000898
:1000A0001555000815550008155500081555000888
:1000B00015550008595300086553000815550008E8
:1000C0001555000815550008155500081555000868
:1000D00015550008155500081555000871530008FE
:1000E0007D53000815550008895300081555000870
:1000F0001555000815550008155500081555000838
:100100001555000895530008A1530008155500081F
:100110001555000815550008155500081555000817
:1001200015550008AD530008B953000815550008CF
:10013000C553000815550008155500081555000849
:100140001555000815550008D1530008155500082D
:1001500015550008155500081555000815550008D7
:1001600015550008DD530008155500081555000801
:10017000155500080000000015550008000000009B
:10018000E9530008155500081555000815550008D5
:100190001555000815550008155500081555000897
:1001A0001555000815550008155500081555000887
:1001B0001555000800000000F5530008155500080B
:1001C00015550008000000001555000815550008D9
:1001D0001555000815550008155500081555000857
:1001E0001555000815550008155500081555000847
:0401F000000000000B
:1002000010B5054C237833B9044B13B10448AFF350
:1002100000800123237010BDC004032000000000F3
:10022000280B010808B5034B1BB103490348AFF382
:10023000008008BD00000000C4040320280B010852
:10024000034613F8012B002AFBD1181A0138704716
:1002500053B94AB9002908BF00281CBF4FF0FF312D
:100260004FF0FF3000F0B2B9ADF1080C6DE904CEEB
:1002700000F006F8DDF804E0DDE9022304B0704781
:100280002DE9F04F8C46099E04460F46002B48D1BD
:100290008A4215465ED9B2FA82F33BB1C3F120021D
:1002A0009F409D409C4020FA02F217434FEA154EB2
:1002B0001FFA85FC220CB7FBFEF10EFB117701FB48
:1002C0000CF042EA0742904207D9AA1801F1FF3721
:1002D00002D2904200F258813946121AA4B2B2FBFF
:1002E000FEF00EFB102200FB0CFC44EA0244A44585
:1002F0000BD92C1900F1FF322CBF01270027A44590
:1003000002D9002F00F04381104640EA0140A4EBDF
:100310000C0400211EB1DC400023C6E90043BDE807
:10032000F08F8B4206D90EB1C6E9000100210846C4
:10033000BDE8F08FB3FA83F1002951D16345C0F0D5
:100340001681824240F213810846002EE7D0C6E9AA
:100350000047E4E7002A00F0AF80B2FA82F3002BF6
:1003600040F0C2808A1A4FEA154EAFB20121200C2C
:10037000B2FBFEFC0EFB1C2240EA024207FB0CF023
:1003800090420ED9AA180CF1FF382CBF4FF001098A
:100390004FF00009904203D9B9F1000F00F0F0804E
:1003A000C446121AA4B2B2FBFEF00EFB102200FBF0
:1003B00007F744EA0244A7420ED92C1900F1FF3294
:1003C0002CBF4FF0010E4FF0000EA74203D9BEF133
:1003D000000F00F0D2801046E41B40EA0C4099E781
:1003E000C1F120058B400CFA01F400FA01F922FA60
:1003F00005F72CFA05FC8A401F4320FA05F3380C58
:1004000023431FFA87FE1C0CBCFBF0F800FB18CC42
:1004100044EA0C4408FB0EFCA4450ED93C1908F133
:10042000FF3A2CBF4FF0010B4FF0000BA44503D94E
:10043000BBF1000F00F0B880D046A4EB0C041FFA0B
:1004400083FCB4FBF0F300FB134403FB0EFE4CEA09
:100450000444A6450ED93C1903F1FF302CBF4FF0E0
:10046000010C4FF0000CA64503D9BCF1000F00F0C1
:100470009F80034643EA0840A4EB0E04A0FB02EC75
:1004800064457346E04602D307D1F14505D2BEEB81
:1004900002036CEB070C0138E0465EB1B9EB0302D6
:1004A00064EB080404FA05F522FA01F3CC401D437D
:1004B000C6E90054002132E742082F464B08AC46FB
:1004C00042EAC172AE46C407110C92B241EA03413E
:1004D00042EA0142B1FBF5F1B3FBF5F01F23A2EBB9
:1004E0000C0241EA004142E79D40C3F120029940DD
:1004F0009C402CFA02FC4FEA154E20FA02F2AFB2F1
:10050000BCFBFEF80A430EFB18CC110C41EA0C416F
:1005100008FB07FC8C4550D9691808F1FF302CBF47
:100520004FF001094FF000098C4502D9B9F1000FD5
:1005300030D0A1EB0C01B1FBFEF808FB07FC0EFB71
:10054000181192B242EA0142624534D2AA1808F167
:10055000FF312CBF4FF001094FF000096245BED2B8
:10056000B9F1000FBBD1A8F102012A44B7E7841A00
:100570006CEB030201201746E7E62C4402382BE718
:10058000ACF1020C2A440CE702392A44A5E62C44BB
:100590000238BAE6A5EB0C0CA8F102006144B1FBED
:1005A000FEF808FB07FCCAE7A8F102083C4444E750
:1005B000023B3C445EE7414691E7A1EB0C0140461B
:1005C000B1FBFEF808FB07FCB9E700BF704700BFAE
:1005D000704700BF10B501220D490E4882B00BF0E4
:1005E000A1FA0D4C0DF106014FF0FF3302222068F5
:1005F0000EF07AFA4FF0FF330849BDF80620206864
:100600000EF072FA0548BDF8061001F065FCE9E746
:10061000040603202828032030060320549F0120CD
:10062000F0B5274C274E9BB04FF0FF332822694688
:1006300020680EF059FA2828F6D1039804F05EFAE3
:100640000546002834D1029B9BB929460AAA009886
:1006500001F04AFC0EF04EFF0AA90246684601F07E
:100660001DFE0EF047FF0AA90246684601F006FC8F
:10067000DAE7B3F1005FF4D140F20272009B9342DB
:10068000EFD1082203990027914228BF11460D4659
:10069000C6E90577B760019F0B490C48C6E90037EA
:1006A000F56004F037FA3046084901F087FAD8E7D8
:1006B0004FF0FF332A4620680AA90EF015FAC2E768
:1006C0006C2A0320F00403209005FA0BE4040320B5
:1006D0002DE9F0431F4D9BB0DFF8808001AE0AAFDB
:1006E000002404EBC401C4F124024FF0FF33286856
:1006F00006EB81010EF0F8F90444232CF1D904989B
:1007000004F0FCF9039B8146B3F1005F00D0A0B96F
:10071000114806F099F950B13A4631460E4806F0B4
:100720005DF8D8F80C300133C8F80C30D8E74FF03A
:10073000FF3201210FF072F9EAE70024A9EB04026D
:1007400039194FF0FF3328680EF0CEF904444C45B8
:10075000F4D3DDE7682A03201029032000000320DA
:1007600000B583B001F0BAFB01F0F8F80322184994
:10077000184805F0C9FA02F0DDFC00F0E5FE02F0D1
:100780008DFD0EF0B7FE01F073FB134809F044FE37
:10079000124809F009FE124C0EF0ACFE019002F076
:1007A000CFFC019802F080FD019800F0CFFE237885
:1007B00013B9019801F0ECFC019801F061FB01987C
:1007C00001F060FD0A2101A80EF0D4FDE4E700BFAE
:1007D0007C2B0320002A032048260320B025032079
:1007E000760003202DE9F0410026214DDFF88C80B2
:1007F000204FA6B012E00FF057FD98F8003033B14B
:100800000B9B23B164200DF079FB01F0A7F80022C7
:1008100002231146386800960FF082F94FF0FF323C
:10082000012100200FF0FAF80FF030FD124806F019
:1008300061FA044606A9104806F0CCF802A90E4851
:1008400006F0F0F85422294611A8AC6010F014F913
:10085000094B1E66189BB3F5003FCCD9AB689B02D1
:10086000C9D5012385F820300B9301F037F9C2E791
:1008700000000320D01D032010290320E0040320E2
:1008800000232DE9F04D84B07D4EDFF80082DFF8C3
:1008900004B27C4DDFF800A20DF10E078DF80B308D
:1008A00013E028680EF02AF8012808D94FF0FF332A
:1008B0000222286803A90EF017F9022845D000216A
:1008C0004FF0FF3208460FF0A9F830680EF016F826
:1008D0000028E6D04FF0FF33012230680DF10B0104
:1008E0000EF002F90128DCD130680EF007F801287B
:1008F000D7D94FF0FF330222306803A90EF0F4F885
:100900000228CED1BDF80C20B2F5805FC9D2002AF2
:1009100040F0A5809DF80B40002C52D10EF0EAFD6E
:10092000594B5A49BDF80C20009703F079F9BDF8EE
:100930000E30002B79D10EF0DDFD534B5349BDF83D
:100940000C20009704F0A8F8ABE7BDF80C20B2F536
:10095000805FB4D272B10024121B08EB04014FF087
:10096000FF3328680EF0C0F8BDF80C20204484B294
:10097000A242F1D10EF0BEFD434B4146BDF80C2022
:10098000009704F059F9BDF80E30002B97D0394686
:100990004FF0FF330222DAF800000DF0BDFFBDF882
:1009A0000E204FF0FF333849DAF800000DF0B4FFA5
:1009B000002202231146DBF8000000920FF0B0F88D
:1009C0007DE70EF097FD304B3049BDF80C200097C5
:1009D00003F0FEFFBDF80E30002BACD02A490A7898
:1009E0007F2A08D1022BA6D98B78A3F11102012A04
:1009F000A1D9312B9FD02648394604464FF0FF330A
:100A0000022200680DF088FFBDF80E204FF0FF3382
:100A10001D4920680DF080FF002202231146DBF8FB
:100A2000000000920FF07CF885E7194839464FF036
:100A3000FF33022200680DF06FFF1548BDF80E204D
:100A40004FF0FF33104900680DF066FF0223224685
:100A50002146DBF8000000940FF062F86BE70024F9
:100A6000121B4FF0FF3308EB040130680EF03CF826
:100A7000BDF80C2023189CB2A242F1D14AE700BF76
:100A80002405032018050320507F0120508F0120EA
:100A900020050320100B0320140503202DE9F04F3F
:100AA000DFF8148185B0404E404DDFF810A108F109
:100AB0001C0908F5805B02AF14E028680DF01EFFEA
:100AC000012809D94FF0FF33022228680DF10601F1
:100AD0000EF00AF8022846D000214FF0FF320846F7
:100AE0000EF09CFF30680DF009FF0128E5D94FF0AA
:100AF000FF3302222E4930680DF0F6FF0228DCD1C8
:100B0000B8F81420B2F5805FD7D272B10024121B5E
:100B100009EB04014FF0FF3330680DF0E5FFB8F842
:100B20001420204484B2A242F1D10EF0E3FC01462D
:100B3000204801F05FFE0028BFD103E09BF82300AE
:100B40000DF0DCF90EF0D6FC02F0CCFF0128B4D099
:100B500030680DF0D3FE0128AFD89AF80030002B92
:100B6000ECD10A20ECE7BDF80620082AB4D86AB117
:100B70000024121B39194FF0FF3328680DF0B4FF21
:100B8000BDF80620204484B2A242F2D10EF0B2FC9D
:100B90003946BDF8062004F009F801289CD00A2047
:100BA0000DF0ACF9F2E700BF200503201405032087
:100BB000E8B40120D4A40120D4B40120760003209D
:100BC00010B50D490D4802F0B5FB0C4C80224FF0DA
:100BD000FF330B4920680DF087FF02460028F5D04F
:100BE000074992B2074809F09DFF4FF0FF320121FB
:100BF00000200EF013FFE9E760060320080603203B
:100C0000D49F01202828032001F05EB9002001F0C4
:100C10005FB900BF0022024B02481A6009F0FCBB1A
:100C2000DC040320FC250320014B1868704700BF3B
:100C3000DC0403200000000010B59EB04822002113
:100C40000CA80FF08DFE00234FF40070CDE90233A5
:100C5000CDE90433CDE90733CDE909330193069398
:100C60000B9307F09FFF08B172B6FEE70123022243
:100C7000169311931993179210231D9207229FED3B
:100C80001E7BCDE91A320324042312900CA81C9376
:100C90008DED0C7B189408F0C1F9034608B172B6CB
:100CA000FEE70F22214601A8CDE903330593029404
:100CB000019208F05FF8034608B172B6FEE7104AE9
:100CC0004FF0005C916D4BF67F3441F0807191657F
:100CD000926D069302F080720092089322222023E4
:100CE00006A8CDE90A230099CDF81CC0099409F0A3
:100CF0000DF91EB010BD00BF29000000000001006A
:100D000000100240F0B595B072B64FF00062A24BF1
:100D10009A60BFF34F8F62B6002404F0FDFBFFF72B
:100D20008BFFCDE90E44CDE910449C4D1294EB6C41
:100D30004FF4604143F00403EB64EB6C224603F094
:100D400004030793079BEB6C954843F08003EB6427
:100D5000EB6C012603F080030893089BEB6C43F0D7
:100D60000103EB64EB6C03F001030993099BEB6C4B
:100D700043F00203EB64EB6C03F002030A930A9B5B
:100D800006F050FC224640F20111864806F04AFC6B
:100D9000224641F2E401844806F044FC4FF46043EB
:100DA0007F480EA9CDE90E361094119406F08CFA06
:100DB00040F201137B480EA9CDE90E36CDE910446F
:100DC00006F082FA41F2E40377480EA9CDE90E3627
:100DD000CDE9104406F078FA4FF4007371480EA97B
:100DE000CDE90E34109606F06FFA08236F480EA96D
:100DF000CDE90E34109406F067FAAB6C052143F090
:100E00000403AB64AB6C224603F004030493049B1D
:100E1000AB6C1D203343AB64AB6C33400593059B37
:100E2000AB6C43F00203AB64AB6C03F002030693BC
:100E3000069B05F05BF81D2005F092F8224605217F
:100E40001E2005F053F81E2005F08AF822460521E1
:100E5000502005F04BF8502005F082F8204606F0AF
:100E60005FFF08B172B6FEE706F06EFF034640B9B9
:100E70004F48504AC0E9002309F070F818B172B623
:100E8000FEE772B6FEE74C4A4C4B10704C4A4FF4EA
:100E900040711A60102299609A619A620F211322A0
:100EA0003C2404275860D8609874D8631846C3E976
:100EB0000D661E825E615E62DC61D9621A621F632A
:100EC00005F0E2FA034650BB0BAD0B90CDE90E00E6
:100ED000CDE91000CDE91200C5E901004FF48070A2
:100EE0004FF4301C03214FF48052364CC4E90233D6
:100EF000C4E90A3384F8203084F83830324B208338
:100F00002046C4E90467C4F804C0E161626384F860
:100F10003060236004F024FB18B172B6FEE772B6AD
:100F2000FEE70B902946204604F068FF08B172B630
:100F3000FEE706230F937F231193244B1090139009
:100F40000EA9204612970E9304F038FC08B172B631
:100F5000FEE71F4B20460E930C230EA90F9304F0BF
:100F60002DFC08B172B6FEE71A4B20460E931223F1
:100F70000EA90F9304F022FC034608B172B6FEE7F7
:100F80001548C0E905338380144B0662036005F001
:100F900019F828B372B6FEE700ED00E00010024039
:100FA000000802420000024200040242001C024209
:100FB0001428032000080C42E00403201029032019
:100FC00000A40040002A03200080024240002019B3
:100FD0000002B0250004002A7429032000300240DA
:100FE00000234FF4E1310C225F48C0E90113C0E94E
:100FF0000333C0E908338361836243665B4B42611C
:1010000003600AF0C7FC014608B172B6FEE7564815
:101010000AF0EEFD014608B172B6FEE752480AF04A
:101020000DFE08B172B6FEE74F480AF0C3FD034655
:1010300008B172B6FEE74E484E4AC37202604FF4E2
:10104000027302228380C0F8072006F087FE08B1F1
:1010500072B6FEE741F63F76474C484ACDE90E00AE
:10106000C4E901001090A06120462260E66009F00A
:10107000C3FB034608B172B6FEE720460EA90E93E5
:10108000109309F0EBFB034608B172B6FEE73C4C47
:10109000CDE90E331093A360A36142F20F73394A76
:1010A0002046C4E90023E66009F0A6FB034608B128
:1010B00072B6FEE720460EA90E93109309F0CEFB00
:1010C000034608B172B6FEE72F48304AC0E9043340
:1010D0008360026083614F224FF6FF734260C360FA
:1010E00009F08AFB08B172B6FEE700234F214FF6E4
:1010F000FF722748C0E90113C0E904338361254B1F
:10110000C260036009F078FB08B172B6FEE74FF0E9
:1011100080414FF0FF32204C0B90CDE90E00CDE91D
:101120001000C5E90100C4E901002061A06120466A
:101130002160E26009F060FB08B172B6FEE74FF48F
:10114000805320460EA90E9309F0A4F9034608B176
:1011500072B6FEE7204629460B930D9309F07EFBFD
:101160000446D8B172B6FEE728280320008000406C
:101170008822032000D40040FC25032000140040F6
:101180004826032000100040B02503200044014001
:101190006425032000480140942603206E4822461F
:1011A00001216E4B0090CDE901444FF400700DF029
:1011B00013FB05466A4E6B4A00960121CDE90144B6
:1011C000694B15604FF4007022460DF005FB054693
:1011D000664E674A00960121CDE90144654B1560D2
:1011E00046F2060022460DF0F7FA0246624D634EC3
:1011F00000950121CDE90144614B326046F20600C1
:1012000022460DF0E9FA5F4B5F4A01210092CDE9D9
:101210000144224618605D4B4FF47A600DF0DCFA11
:101220005B4D5C4B224600930121CDE901445A4BB2
:1012300028604FF47A600DF0CFFA584B22460093A5
:10124000574B0121CDE901441860564B4FF4A040A3
:101250000DF0C2FA544B22460093544B0121CDE9C4
:1012600001441860524B4FF4A0400DF0B5FA514BB9
:10127000186001F0BDF80EF03DF932464E4B4F4973
:10128000009500F0E5FF4E4802F040F84D4800F0B0
:10129000D5FD4D484D4A4E4900F046FB0EA80E9430
:1012A00001F09CF820B90E9B13B94A4801F06EF882
:1012B0000CF07AFD0021484A48480CF0C5FD044670
:1012C000474B0021474A48481C600CF0BDFD0446CE
:1012D000464B0021464A47481C600CF0B5FD0446C9
:1012E0003B4B0021444A45481C600CF0ADFD0446D0
:1012F000434B0021434A44481C600CF0A5FD0446C2
:10130000324B0021414A42481C600CF09DFD0446CE
:101310002A4B00213F4A40481C600CF095FD0446D2
:101320003E4B00213E4A3F481C600CF08DFD0446B8
:101330003D4B00213D4A3E481C600CF085FD0446B3
:101340003C4B00213C4A3D481C600CF07DFD3C4B71
:1013500018600CF04BFDFEE734060320D4A20120F8
:101360000C06032030060320D4A00120DC05032056
:1013700008060320481F0120B80503202405032088
:1013800040BF00202005032094050320A0AF0020CB
:10139000180503207005032000A000204C05032041
:1013A0001405032000500020280503206C2A032088
:1013B00000000020682A03201C050320C00F032022
:1013C00014280320742903201029032070140320FB
:1013D000D01D032004007201900D0108D5050008FE
:1013E000842203206C0D01082106000880220320BE
:1013F000480D0108D1060008240D01086107000806
:1014000020190320000D0108E5070008DC0C010885
:1014100081080008B80C01089D0A0008100B032081
:10142000940C0108C10B000860060320700C010831
:10143000090C00085C0603204C0C01080D0C000888
:10144000580603200A4B186880B1002100B583B00C
:1014500001AA01910EF084FC019B2BB14FF0E02317
:101460004FF08052C3F8042D03B000BD704700BF99
:101470006006032070B500251E4C82B022880195BD
:101480007F2A0ED81C4B19780D2904D01B48531CF9
:1014900081549BB206E0013A7F2A02D8184E306888
:1014A00040B9002301221449164823800AF03AFB70
:1014B00002B070BD2B46022221460DF0C7FA022869
:1014C000EFD12B46228830680C490DF0BFFA2388F3
:1014D0009842E6D10C4B2946186801AA0EF040FC50
:1014E000019B002BDDD04FF0E0234FF08052C3F87A
:1014F000042DD6E7000603200406032054A0012093
:10150000300603202828032084220320094A036888
:10151000934206D0084A93420AD0084A934205D023
:101520007047074A136801331360704700F0C4BC6A
:1015300004F004B800140040002C014000100040EA
:10154000DC04032072B6FEE7704700BF10B50E4CF6
:101550000E49208880B200F039F8A0880C4980B28A
:1015600000F06EF8207B0B4A94F8201000F0D0F8C1
:10157000A07D094900F00CF9608B084980B2BDE8F4
:10158000104000F00BB900BF54000320DC02032020
:1015900064020320EC01032074010320FC000320FB
:1015A0008446002310B50C4682B00DF106000222DD
:1015B0006146ADF8063003F0ADFABDF80600012C27
:1015C00098BFC0B240BA80B202B010BD034600B5A9
:1015D00083B008465BBA02220DF10601ADF8063071
:1015E00003F098FA03B000BD8446002310B50C4602
:1015F00082B00DF1060002226146ADF8063003F01C
:1016000089FABDF80600012C98BFC0B240BA80B27A
:1016100002B010BD8446002310B50C4682B00DF117
:10162000060002226146ADF8063003F073FABDF8F9
:101630000600012C98BFC0B240BA80B202B010BD03
:10164000034600B583B008465BBA02220DF10601DD
:10165000ADF8063003F05EFA03B000BD8446002307
:1016600010B50C4682B00DF1060002226146ADF8BD
:10167000063003F04FFABDF80600012C98BFC0B247
:1016800040BA80B202B010BD8446002310B50C46AB
:1016900082B00DF1060002226146ADF8063003F07B
:1016A00039FABDF80600012C98BFC0B240BA80B22A
:1016B00002B010BD8446002310B50C4682B00DF177
:1016C000060002226146ADF8063003F023FABDF8A9
:1016D0000600012C98BFC0B240BA80B202B010BD63
:1016E0008446002310B50C4682B00DF1060002229C
:1016F0006146ADF8063003F00DFABDF80600012C86
:1017000098BFC0B240BA80B202B010BD0078704736
:1017100070B515460E46044682B028460822FF21C1
:1017200003F0F4F944EA0624022228460DF10601EA
:10173000ADF8064003F0EEF902B070BD002300B52D
:10174000012983B0ADF8063002D8184603B000BDB9
:10175000014602220DF1060003F0DCF99DF80600B7
:1017600003B000BD002300B5012983B0ADF80630F9
:1017700002D8184603B000BD014602220DF1060052
:1017800003F0C8F9BDF80600000A03B000BD00BFB1
:10179000087070470078704700787047034600B5BE
:1017A00083B008465BBA02220DF10601ADF806309F
:1017B00003F0B0F903B000BD8446002310B50C4619
:1017C00082B00DF1060002226146ADF8063003F04A
:1017D000A1F9BDF80600012C98BFC0B240BA80B292
:1017E00002B010BD8446002310B50C4682B00DF146
:1017F000060002226146ADF8063003F08BF9BDF811
:101800000600012C98BFC0B240BA80B202B010BD31
:101810000078704700787047012994BF00780088ED
:10182000704700BF007870472DE9F04F3A4B834670
:10183000984283B007D8394B984260D94FF02809B5
:101840004FF4487609E036494FF02509B1FBFBF12A
:10185000C9B2192940F2EE265BD90124304B01347C
:10186000A4B2B3FBF4F1B1FBFBF1C9B21929F6D86C
:10187000B4F5806F3FD201202A4BCDF804B01F6829
:1018800023186FF0004C4FF47A759B461FFA83FAC9
:10189000A1F1020EBEEB510F4FEA51031ADD01F127
:1018A000FF385FFA88F805FB03F2B2FBF1F2B21AD7
:1018B000002AB8BF5242624509DA914507DB002091
:1018C0009446A8EB0302D2B2FB617C613A62013319
:1018D0007345E8DB124B1FFA8BF4B3FBFAF1019B63
:1018E000B4F5806FB1FBF3F10AF1010AC9B203D07C
:1018F00004F1010BCCE7012003B0BDE8F08F0849EB
:101900004FF02B09B1FBFBF1C9B2192940F26B363C
:10191000A3D80124AFE700BF00350C0020A10700C9
:10192000005A6202602B032038B50C46064D074969
:10193000074B0A602860074901201C600CF0ECFC92
:10194000054B186038BD00BF602B0320582B0320C7
:101950005C2B0320702A0320C02A0320F0B5574EC9
:1019600083B0306804F024FF306804F08DFD002857
:1019700040F084800022524D402152482A71EA6092
:101980002A616A61AA61AA60EA6185F8202005F0EF
:1019900049FE306804F00CFF0B2201233068C0E9D7
:1019A0000D2304F071FD002840F085800024022200
:1019B000012340F2FF71C5E90B23434FA9636C6219
:1019C00002E001340B2C0ED037F8023B3F4930685F
:1019D000AC626B6304F042FE0028F2D00134FFF7E2
:1019E000B1FD0B2CF0D102234FF0804200200121E9
:1019F0006B646FF06043C5E90F20354A3068C5E974
:101A0000121234492B6504F029FE08B1FFF79AFD44
:101A10000023022230681146009304F04BFE002898
:101A200046D1306804F068FE00283ED10022012132
:101A3000306805F00FF8A8BB00220621306805F0D9
:101A400009F860BB07224FF4F051306805F002F846
:101A500010BB07228021306804F0FCFFC8B90022C7
:101A60001D49306804F0F6FF80B900224FF4602170
:101A7000306804F0EFFF20B903B0F0BDFFF762FD5E
:101A800078E703B0BDE8F040FFF75CBDFFF75AFD13
:101A9000EBE7FFF757FDE2E7FFF754FDD9E7FFF764
:101AA00051FDCFE7FFF74EFDC6E7FFF74BFDBDE762
:101AB000FFF748FDB5E7FFF745FD77E7602B03200B
:101AC0000000032000040242B40D0108240003209A
:101AD000FECA77003C00032000407100014B1868EB
:101AE00004F066BE602B0320082824D8DFE800F04D
:101AF000080C1014171A1D2005001448FFF794BE97
:101B000042F21070FFF790BE44F62060FFF78CBEE3
:101B10004CF25030FFF788BE0D48FFF785BE0D48E8
:101B2000FFF782BE0C48FFF77FBE0C48FFF77CBE74
:101B30000B48FFF779BE0B4AA0F51C53103B9342AC
:101B400001D901207047FFF76FBE00BF40420F0070
:101B5000A086010048E8010090D0030020A1070002
:101B600000350C00301B0F000346054A1978002091
:101B700051615978D16199781162DB78936170472E
:101B8000102903200246024B00209A61704700BFD3
:101B900010290320034600B5064A93F801E093F8A4
:101BA00000C082F810E004499B7881F800C05374AB
:101BB000002000BD10290320E00403202DE9F04798
:101BC000054682B0C0680F4602F098FFAB68B3F1DB
:101BD000005F3ED00646824600F12409264C4FF0B5
:101BE000FF3120680CF056FC0128F8D1DFF8948012
:101BF000D8F800000CF06EFE484517D202251F4AA7
:101C000013792B431371002320681A4619460CF0F0
:101C1000E7FA1B4A0223126810680022114600925C
:101C20000DF07EFF284602B0BDE8F08729464FF050
:101C3000FF332422D8F800000CF06EFE054686B96A
:101C40004D450CD00D4A0125137943F0080313715B
:101C5000D9E74FF0000A4FF024095646BEE70025A9
:101C6000D1E7524639464FF0FF33D8F800000CF068
:101C700053FE0544E4E700BFC02A03200000032010
:101C80005C2B0320682A03202DE9F04700250C4631
:101C900082B0C9070646019516D4A20707D50221CE
:101CA000314A137943F001031371336819656307EF
:101CB00038D4019B2BB14FF0E0234FF08052C3F892
:101CC000042D02B0BDE8F087DFF8A890DFF8988017
:101CD00040214A46254B04F0E3FDD8F81430D9F8EA
:101CE0000C000133C8F8143002F008FFDFF888A0B8
:101CF0000746DAF800000CF0EDFD07F128039842E2
:101D000024D349462822DAF8000001AB0CF09EFEED
:101D1000002FC2D03A46DAF80000144901AB0CF0AB
:101D200095FEBAE70424104B11499A6908680132FC
:101D30009A611A79002142F008021A71336800682A
:101D40000DEB04021C650EF00BF8B2E7D8F8183062
:101D500029460133C8F81830054B01AA1B681868DA
:101D60000DF0FEFF99E700BF00000320182B0320B1
:101D7000582B0320F02A03206C2A0320002110B5E1
:101D80000A4A0B4C1268236982B01068013301AA19
:101D9000236101910DF0E4FF019B2BB14FF0E02393
:101DA0004FF08052C3F8042D02B010BD5C2B03200D
:101DB00000000320002110B50A4A0B4C1268E369A9
:101DC00082B01068013301AAE36101910DF0C8FFF0
:101DD000019B2BB14FF0E0234FF08052C3F8042D4C
:101DE00002B010BD582B03200000032038B50C466C
:101DF000104D294604F0EEFDA10303D5EB68A3B90D
:101E00000D4A1360620309D52B690B4A012B137924
:101E10000CBF43F0040303F0FB031371230303D54A
:101E20000122054B83F8202038BD4FF00042024BC1
:101E30001A60E7E7C42A032000000320704700BFB0
:101E400091B14FF0FF3210B4084C014410F8013B3F
:101E50005340DBB254F82330884283EA1222F5D192
:101E6000D0435DF8044B704708467047CC0D01081D
:101E70000022014B1A607047682B0320704700BF97
:101E800010B5094C094A2368094903FB02F2B1EB7A
:101E9000B20F02D20133236010BD064801F08CFA64
:101EA00023680133236010BD682B0320295C8FC297
:101EB000285C8F02E00B0108024A136801331360AB
:101EC000704700BF642B032000200DF0DDB900BF78
:101ED00000200DF0D9B900BF704700BF0022014BB0
:101EE0001A7070477600032000294AD030B5772851
:101EF0000C4683B02DD8572800F284801A2800F0B1
:101F00003981A0F124031F2B39D81F2B37D8DFE8E4
:101F100013F00D013600360036003600360036006C
:101F20003600360036003600060136003600360030
:101F3000360036003600360036003600FF00360028
:101F400036003600360036003600360036003600E1
:101F5000F800B0F5EA7F12D2B0F5DC7F12D2B0F50E
:101F6000A87F00F00D8100F2FA80982800F092809E
:101F7000A22804D11046FFF70FFC844BD87503B09C
:101F800030BD7047A0F5DC731B2BF8D801A151F8C8
:101F900023F000BFA12000087F1F00087F1F00085A
:101FA000BD2000087F1F00087F1F00087F1F00085A
:101FB0007F1F00087F1F00087F1F00087F1F000889
:101FC0007F1F00087F1F00087F1F00087F1F000879
:101FD0007F1F00087F1F0008AF2000087F1F000838
:101FE0007F1F00087F1F00087F1F00087F1F000859
:101FF0007F1F00087F1F00087F1F00087F1F000849
:10200000CB200008A0F158031F2BB8D801A151F82C
:1020100023F000BFD92000087F1F00087F1F0008A1
:102020007F1F00087F1F00087F1F00087F1F000818
:102030007F1F00087F1F00087F1F0008F520000891
:102040007F1F00087F1F00087F1F00087F1F0008F8
:102050007F1F00087F1F00087F1F00087F1F0008E8
:102060007F1F00087F1F0008E72000087F1F00086F
:102070007F1F00087F1F00087F1F00087F1F0008C8
:102080007F1F00087F1F00087F1F00087F1F0008B8
:102090003B2100081046FFF77DFB3C4B98756EE72F
:1020A00021461046FFF7B6FB384B988367E7214679
:1020B0001046FFF797FB354B588260E721461046E4
:1020C000FFF7B0FB314BD88359E721461046FFF7A5
:1020D0009FFB2E4B188252E721461046FFF7EAFA83
:1020E0002A4B58814BE721461046FFF70FFB274B41
:1020F000D88144E721461046FFF7F2FA234B1881B6
:102100003DE721461046FFF7BFFA204B988236E79D
:1021100021461046FFF7A2FA1C4B98802FE7214674
:102120001046FFF777FA194BD88028E7214610466A
:10213000FFF75AFA154B188021E721461046019205
:10214000FFF7FCFA114D012C28733FF418AF019AE8
:1021500021461046FFF706FB85F820000FE740F206
:10216000A71398427FF40BAF1046FFF725FB074BF0
:10217000588304E71046FFF713FA044B5880FEE635
:102180001046FFF749FB014B1883F8E65400032083
:102190002C4B1B7883BB2DE9F04306462A4DDFF814
:1021A000AC8083B005F1140755F8044BE36E626E02
:1021B000F31A934204D2AF42F6D103B0BDE8F083E4
:1021C000B4F9723004EBE300002B00F1240026DAAE
:1021D000B4F9741004F1240900294FEAE1010CDA82
:1021E000D8F80030494623612046FFF7E7FCA36E8C
:1021F000E6660133A366DEE770474846FFF720FE38
:102200000190B4F9740004220028B8BF0730C01050
:10221000243001A904FA80F002F07CFCE0E7B4F875
:10222000683001A95BBA0222ADF8043002F072FCFA
:10223000B4F9741004F1240900294FEAE101CFDB5D
:10224000DBE700BF76000320CC110108000003206B
:1022500038B50446084B094D1A60094B049A2960A9
:102260001A6000F04DF8204601F0F0FB204602F025
:102270007DFC002038BD00BF702B0320742B032091
:102280006C2B032038B5054601F000FC04462846B7
:1022900002F078FC2043C0B238BD00BF70B5154BCA
:1022A00082B01B6804460D46164601F025FC012845
:1022B0000AD0114B3246294620461B6802F08CFC9E
:1022C00001280BD002B070BD00220C4B11461B68D8
:1022D0001868022300920DF023FCEAE70022074968
:1022E000022309680868114600920DF019FC02B03B
:1022F00070BD00BF702B03206C2B0320742B0320B8
:1023000000B583B0102001A900F09EF808B903B011
:1023100000BD0021102000F07FF8003818BF012018
:1023200003B000BD00B583B0102001A900F08CF807
:1023300020B90146019820B903B000BD012003B0C7
:1023400000BD102000F068F8003818BF012003B06D
:1023500000BD00BF70B5002682B004460D461020B7
:1023600001A9019600F070F810B9019BA34202D8B0
:10237000012002B070BD04F11100294680B200F0C6
:1023800063F8801B18BF012002B070BD002210B599
:10239000114B82B01B78019213B9184602B010BDE0
:1023A000044601A9102000F04FF840B901981130FF
:1023B000FF2804D8214680B200F02EF818B101237E
:1023C000184602B010BD01991020013100F024F828
:1023D000031E18BF0123E0E777000320014608B57C
:1023E000102000F031F8003818BF012008BD00BFF0
:1023F00010B504F081FC00200AF0A6FD044618B9CF
:1024000004F08EFC204610BD00200AF06BF904F0A9
:1024100087FC204610BD00BF38B504460D4604F0C9
:102420006BFC204629460BF037F8C305044603D45D
:1024300004F076FC204638BD0AF02EFA0443A4B21C
:1024400004F06EFC204638BD0AF088BB4FF4805281
:1024500070B500240E4683180470C0F8024004735F
:1024600084601C74C3F812409C61DC8100F5005349
:1024700005462146C3E907445E620D300EF070FA4E
:102480004FF48052A8182146BDE870401C300EF071
:1024900067BA00BFF0B5044683B0836031B31578E6
:1024A00094462B09032B21D8DFE803F0253A60027C
:1024B00005F00F0500F50056012986F8215000F0BF
:1024C000AB809CF80130022986F8223000F0A7800A
:1024D0009CF8023086F82330002D00F0AC80012DEE
:1024E00000F09F80032204F580531A74237B012B94
:1024F00073D003B0F0BD03780BB1002303706B1EE3
:10250000062BF3D801398D42F0D82A460CF101018F
:1025100004F10D0002F0FEFA022365802370E5E766
:1025200003780BB1002303700729DFD99CF8003032
:102530009CF801201B0203F470631343072BA38054
:10254000D4DD06220CF1020104F10D0002F0E2FAE2
:1025500001220021062004F5005622706080B17728
:1025600004F58051CA813023F27F3CE00378012BCF
:10257000BCD100F58057FA8905F00F0502F00F0372
:102580009D4246D14088A3881B1A9BB2072B5BD97A
:102590000829ABD10132FA814B1EDDB20D302A463B
:1025A0000CF10101204402F0B5FA6388A2882B44A3
:1025B0009BB29A4263804FD004F50056F27F002A06
:1025C00094D0FB89013B93FBF2F102FB1133002B0A
:1025D0008CD1B37F43F0300305E004F50056B37FA0
:1025E000F27F43F03003002196F8200021738DF82C
:1025F00002000320746A8DF800308DF8012002F08B
:1026000083FA03466946706AE360FFF7D7FA03B0BE
:10261000F0BD0023037069E7002386F82230002311
:1026200058E704F58052137C013B012B3FF65EAF67
:10263000022313745AE704F580531A7C022A7FF4AC
:1026400055AF01221A7451E78B42BFF44FAF0132EC
:10265000072BFA81A1D19FE70223237046E700BF31
:102660002DE9F84300F58056347C012C03D000247A
:102670002046BDE8F88300F500580F4698F823106F
:102680001D46F12928BF0121B3698446EB1A8B420C
:10269000EDD3718AB38A99B9072B51D810463146C8
:1026A00000F8013BB28A1C3102F034FA0322B38AEB
:1026B00001333B70B38A7382A8F81C4032743BE04C
:1026C00010465B1A1FFA83F9B8F81C30B9F1070FEE
:1026D00003F00F0343F0200300F8013B738A03F576
:1026E000805303F11C030CEB030114D9072202F001
:1026F00011FA08233B70738A0733738298F82220FB
:10270000B8F81C30AAB1B3FBF2F102FB113282B966
:10271000022232740DE04A4602F0FCF9032309F16B
:1027200001023A703374738A9944B8F81C30A6F8E1
:1027300012900133A8F81C302046B561BDE8F8833B
:10274000C3F3032343F010031370B38A00F58051E1
:102750005370901C1C31062202F0DCF9082306227B
:102760003B7002237282A8F81C403374E4E700BF78
:102770000378012B06D18268034B891A9942C4BFA2
:102780000023037000207047400D030030B500F5B2
:10279000805514462A7C0B46013A012A93B006D88C
:1027A000AA698A1A12498A4284BF03222A7402AA99
:1027B0000DF10701FFF754FF50B92B7C032B02D01A
:1027C000002013B030BD002301202B7413B030BDA6
:1027D0009DF8070002F098F9E06002E0012002F0A5
:1027E000B9F9204602A9FFF7E9F90028F6D1E4E794
:1027F000400D030000F5805CBCF81430B3F5805F39
:102800000ED800B500224FF0010E00F50053ACF8D1
:1028100012209A838CF810E01046CCF8181000BDF6
:10282000012070472DE9F043144602780646013A2C
:102830001D4685B0092A11D8DFE812F01C001000EF
:102840000A008A01100010000A00100066010A0048
:10285000012900F08A817F22122101E07F221121CB
:10286000032322703278A17062702B80002005B0A3
:10287000BDE8F0830229EED14123237043786370D1
:102880009E2BE8D801A252F823F000BFE32D0008E8
:10289000C12D000857280008F92C0008EF2C00086B
:1028A000E52C0008DB2C0008D12C00085728000874
:1028B000572800085728000857280008BB2C000894
:1028C000AB2C0008A12C0008A12C0008812D0008C9
:1028D0007F2C000857280008992D00085728000869
:1028E0008D2D000857280008572800085728000891
:1028F000572800085728000857280008552D0008B9
:102900005728000857280008352D0008752D0008A5
:10291000752C000857280008572800085728000879
:10292000572800085728000857280008572800088B
:10293000572800085728000857280008572800087B
:10294000572800087F2C0008572800087F2C000813
:10295000752C000857280008412E0008352E000865
:10296000572800085728000857280008572800084B
:10297000572800085728000857280008292E000863
:10298000572800081D2E000857280008112E00089F
:1029900057280008052E0008752C0008F92D00089E
:1029A0007F2C0008EF2D00087F2C00085728000816
:1029B000932C0008932C000857280008932C00083B
:1029C000752C0008752C00085728000857280008A7
:1029D0000F2D00085728000857280008572800081E
:1029E000892C0008892C000857280008572800085F
:1029F00057280008572800085728000857280008BB
:102A0000572800085728000857280008032D0008F9
:102A1000572800086B2D00085F2D00085728000874
:102A2000572800085728000857280008572800088A
:102A3000AD2D00085728000857280008572800081F
:102A4000572800085728000857280008572800086A
:102A5000572800085728000857280008572800085A
:102A6000572800085728000857280008572800084A
:102A7000572800085728000857280008572800083A
:102A8000572800085728000857280008A12D0008DB
:102A9000572800085728000857280008572800081A
:102AA0005728000857280008192D00085728000843
:102AB00057280008572800085728000857280008FA
:102AC00057280008892C00085728000857280008B4
:102AD00057280008572800085728000857280008DA
:102AE00057280008572800085728000857280008CA
:102AF00057280008572800085728000857280008BA
:102B0000292D0008752C000802297FF4A4AE492362
:102B10002370437863700A2B3FF69DAE01A252F8F2
:102B200023F000BFC32B000857280008E32B000840
:102B300057280008D12B000857280008652C0008EA
:102B4000572800085728000857280008472C000875
:102B500001297FF480AE0191FFF7E4FB019968BB86
:102B6000337840332370298080E602A8FFF736FCD3
:102B700020BB029B5A1C52002A803278637040327C
:102B8000DBB22270002B3FF471AE074604F102095C
:102B900004F103080CE0039B1A0E09F817201B0C24
:102BA0009DF8082008F817300137BA427FF65EAE6C
:102BB000384603A9FFF7CEFB0028ECD07F22102176
:102BC0004EE644F254020623C4F802202B804DE660
:102BD00001239E49A370E01C01F0A8FF13232B8062
:102BE00044E614230120E61CA07031462B80FFF739
:102BF0002BFCE11D05460220FFF726FC034604F1ED
:102C00000B0103201D43FFF71FFC034604F10F01D6
:102C10000420ADB21D43FFF717FC034604F1130176
:102C20000520ADB245EA0304FFF70EFCA4B244EA66
:102C300000039BB2002B3FF419AE11220021304655
:102C400001F064FF12E60123E61CA37014220021A8
:102C5000304601F05BFF30467D4901F067FF1723E6
:102C60002B8003E6782207237A49A271C4F8021068
:102C70002B80FBE5042200232A806380F6E50322F3
:102C800000232A80A370F1E5032280232A80A37009
:102C9000ECE50322704B2A805B881B09A370E5E5F5
:102CA00003228A232A80A370E0E503226B4B2A804B
:102CB0009B8AC3F30723A370D8E50423674A2B80BC
:102CC0009388C3F34A13A3709388DB00E370CDE5C8
:102CD000032288232A80A370C8E503227E232A804A
:102CE000A370C3E5032274232A80A370BEE50322E8
:102CF0004C232A80A370B9E5042202232A80638032
:102D0000B4E50622564B2A80C4F80230AEE5032211
:102D100001232A80A370A9E507210023514A2980B5
:102D2000C4F80220A371A1E5062200232A80C4F87A
:102D300002309BE504232B800CF0DCFB4A4DA5FB05
:102D400000239B0BA3700CF0D5FBA5FB00539B0944
:102D5000E3708BE503220A232A80A37086E5042210
:102D60004FF413432A80638080E503227D232A8069
:102D7000A3707BE506223D4B2A80C4F8023075E53E
:102D800004224FF41C532A8063806FE504224FF421
:102D90007F432A80638069E503232B80A37065E568
:102DA0000622334B2A80C4F802305FE50023092154
:102DB00040F269122980C4F80220E380237255E5AD
:102DC00003A8FFF70BFB08B10023039300230621A0
:102DD000039A298002F07F02A270E370237163716D
:102DE00044E50622234B2A80C4F802303EE5032244
:102DF00051232A80A37039E504224FF49C532A8082
:102E0000638033E504224BF635732A8063802DE519
:102E10000622194B2A80C4F8023027E5042243F623
:102E20000B132A80638021E5042248F613232A80AD
:102E300063801BE50622114B2A80C4F8023015E599
:102E4000032264232A80A37010E500BFF40B01085D
:102E5000040C0108011234567800032054000320AA
:102E600060800001010C9500D34D62108005B01503
:102E70000204000CBE1FA8137EDC8C018C92802300
:102E8000814204D900F17840B0F5802F01D30020B1
:102E9000704701F178410139B1F5802F2CBF002036
:102EA00001207047814208D9B0F1005F05D3044882
:102EB00081428CBF0020012070470020704700BF76
:102EC00000000420814211D9B0F1005F10D31A4BE9
:102ED000994219D9194B984208D9194881428CBF97
:102EE000002001207047B0F1006F15D2002070471C
:102EF000144B98420AD8144B9842F4D91348814293
:102F00008CBF00200120704701207047104881428B
:102F10008CBF0020012070470E4B9942E6D80E4B23
:102F2000B3F8E030B3F5007FEED00C4881428CBF9F
:102F300000200120704700BF000004203F20024015
:102F400040210240FFFFF90BFFFFF80B0080F90B57
:102F50000002FA0B000008080005FA0B0000040844
:102F600000B58BB001A804F0C3F80598AA3818BFC3
:102F700001200BB000BD00BF00B58BB072B601A838
:102F800004F0B6F804214FF40052079B019143F07E
:102F90008063CDE9062303F0AFFE18B162B60120CD
:102FA0000BB000BD03F0C8FE0028F7D101A803F064
:102FB0007DFF10B903F0E2FEF0E703F0D1FE03F06D
:102FC000AFFEEBE710B58AB003F096FE044603F0BF
:102FD000B3FE044301A804F08BF804214FF480727F
:102FE0009DF81E30E4B2C3F3001383F001031B0508
:102FF000CDE90623019134B103F0B2FE03F090FE57
:1030000001200AB010BD01A803F050FF0028F3D141
:1030100003F0B4FE044603F0A3FE044303F080FE75
:10302000E4B22043C0B2003818BF01200AB010BD7E
:1030300030B58BB003F060FE044601A804F058F8E8
:10304000002380220798022110F4801FCDE903326B
:1030500000930CBF02230123019101A8694602934A
:1030600004F0DCF8054603F05BFE28432043C0B2C1
:10307000003818BF01200BB030BD00BF70B503F0A1
:103080003BFE05460F4C104ED4E90023B3F1FF3F41
:1030900008BFB2F1FF3F04F5802107D0012003F003
:1030A000A9FE002818BF45F00105EDB20834B4426E
:1030B000EAD103F035FE2843C0B2003818BF012022
:1030C00070BD00BF00E0030800000408002330B515
:1030D0008FB0009303F010FE0223044605A801936D
:1030E00004F006F80B9B042213F4801F4FF07C00C1
:1030F00014BF02230123694603900DEB02000492E2
:10310000029304F08BF8054603F00AFE054344EAF7
:103110000500C0B2003818BF01200FB030BD00BF9D
:10312000014608B5012003F065FE003818BF0120F4
:1031300008BD00BF0022014B1A607047782B0320A6
:10314000514930B40A884AB1B2F57B6F68D24F4B0F
:10315000C2EB0232A3FB0232C2F3CF224C4C4B88AB
:1031600022804BB1B3F57B6F5DD2484AC3EB03338A
:10317000A2FB0323C3F3CF23464D8A8863802B68C9
:10318000B2F5506FA0EB03030FD30122642B227121
:1031900020D928604FF0000C94E807003E4B84F8DB
:1031A00008C003C330BC1A807047B2F5406F17D215
:1031B000B2F5306F3AD2B2F5206F21D2B2F5E06F9E
:1031C00048D2B2F5807F4DD94FF0000C642B84F8C3
:1031D00004C039D84FF0000C84F808C030BC7047E8
:1031E0000322642B2271F5D92B4B28601B79012B0C
:1031F000D0D16379062B01D8013BDBB26371C9E7FB
:103200000522642B2271E5D9234B28601B79012B01
:10321000C0D1E38883F4807323F0FF03E380B9E730
:1032200040F6FF729AE740F6FF73A5E70422642B8D
:103230002271CFD9184B28601B79012BAAD1A37911
:1032400083F00103E380A5E7134B28601B79012B72
:10325000A0D1A1E70622642B4FF0010C2271BBD94B
:10326000286099E70222642B2271B3D90A4B2860A7
:103270001B79012B8ED163799A1FD2B2F82A84BFB1
:103280000133DBB2637185E77C2B0320BFBF8C82E7
:1032900078000320782B0320840003200022014BB8
:1032A0001A707047822B0320154B164A1B78118821
:1032B000B2F802C0507963B9134B1980A3F804C067
:1032C0001873107A1179D288987583F820105A8370
:1032D00070471F290C4B08D91980A3F804C0002897
:1032E000EED1D989C9B21973EBE7BCF11F0FF3D83E
:1032F000598889B21980D98889B29980EFE700BFCF
:10330000822B03207800032054000320014B186017
:10331000704700BF842B0320704700BF00B5044BEB
:1033200083B0186801A906F0FFFE019803B000BD44
:10333000842B0320024608B5044B012004491A607F
:103340000AF0EAFF034B186008BD00BFDC2B032026
:103350008C2B0320882B0320F8B507460E46144C0F
:103360004FF0FF3120680BF095F80128F8D1114D8E
:1033700039462B68324618684FF4FA630BF0CCFAE2
:10338000024600232068144619461A460AF028FF10
:10339000A64203D109E00A200AF0B0FD2B681868A4
:1033A0000BF05EFA0128F6D1F8BD0020F8BD00BF91
:1033B000882B0320DC2B032010B5044601F0BEFB54
:1033C00001462046BDE81040FFF7C6BF0D4B02780E
:1033D0001B68403201291A700FD900B5A1F1020E05
:1033E00010FA8EFE024610F801CF724503F801CFA5
:1033F000F8D1054B1B68198000BD034B1B68198071
:10340000704700BF042C0320002C032070B5012955
:10341000044682B00BD9457805F07F05012D14D004
:10342000022D02D07F20122503E006292CD07F2018
:1034300013250321344B354A1B6812681870207815
:103440009D705870118002B070BD40F26713ADF8E6
:103450000030FFF763FF2E4A2E4B4240C3E90302C0
:103460001D7794F9013000BA002BCDF80200EADB99
:103470000621254B254A1B680098BDF804401268B8
:1034800018609C801180DEE7224B9A69042A02D9D9
:103490007F203625CDE758685969411A092902D895
:1034A0007F203725C5E7197F012902D07F202425F9
:1034B000BFE7D4F802101E6909BA8E4215D04FF04A
:1034C000000E4FF07F0C58613525032001329A61C0
:1034D0000D4A0E49126883F81CE082F800C0237878
:1034E0000968537095700880ADE71D7794F9013035
:1034F000002BA8DB40F26721034A044B12681B68CB
:1035000011801D809FE700BF042C0320002C0320A6
:1035100078563412E02B0320022910B510D04FF05A
:103520007F0E4FF0130C03210F4B104A1B681268DB
:1035300083F800E0007883F802C05870118010BD55
:10354000437833B1802BFAD04FF07F0E4FF0120C3E
:10355000E9E7054A0378126840331370034C40785A
:1035600023685070198010BD042C0320002C032008
:10357000022930B510D04FF07F0E4FF0130C03210D
:10358000424B434A1B68126883F800E0007883F8D6
:1035900002C05870118030BD437803F07F03022BC6
:1035A0002FD0032B1BD0012B3ED10022394C3A4D9A
:1035B00023703A4B2A705A73C4E90322C4E90522E6
:1035C000227790F901304278002BE4DB50242F4B16
:1035D0002F481B6800685A701C70018030BD304A4B
:1035E000928A92B2B2F5805F47D37F258824274A1A
:1035F00027491268096815700078947050700B8024
:1036000030BD274A928A92B2B2F5805F1BD37F25E4
:10361000222403211D4B1E4A1B6812681D7000786E
:103620009C705870118030BD4FF07F0C1224032124
:10363000164B174A1B68126883F800C000789C700C
:103640005870118030BD00221249144CC1E9032288
:10365000C1E90522104D62730A772A7090F90120A2
:103660000B70002A417896DB5024084A08481268FB
:10367000006851701470038030BD0022054C074D66
:103680002370054B6A731A7096E700BF042C032061
:10369000002C0320E02B0320082C03200C2C0320FB
:1036A00054000320204B214A022910B51B681268E0
:1036B0000CD04FF07F0E4FF0130C032183F800E085
:1036C000007883F802C05870118010BD184C94F82F
:1036D00000C0BCF1010F11D090F801C00CF07F0CBC
:1036E000BCF1010F12D04FF07F0C1224032183F89C
:1036F00000C000789C705870118010BD7F21032499
:103700001970007899705870148010BD0478403496
:103710001C7044785C70118090F90130002BD4DA71
:10372000BDE8104002F03CBC042C0320002C032018
:10373000E02B0320022910B510D04FF07F0E4FF080
:10374000130C0321184B194A1B68126883F800E018
:10375000007883F802C05870118010BD427802F0E2
:103760007F03012B13D0022B04D04FF07F0E4FF0BC
:10377000120CE6E71206F0D40B49027809684032D1
:103780000A700A4C407822684870138010BD1406F5
:10379000E3D4054A0378126840331370034C407831
:1037A00023685070198010BD042C0320002C0320C6
:1037B000012970B51FD9427802F07F03012B10D088
:1037C000032B1CD04FF07F0C12240321394B3A4AB3
:1037D0001B68126883F800C000789C7058701180D4
:1037E00070BD02292AD08378103B032B51D8DFE823
:1037F00003F04C4A444E4FF07F0C1324E5E72F4C66
:10380000217869B1120626D402212A4A0378126867
:1038100040331370284C407823685070198070BD75
:103820004FF07F0C2224234A23491268096882F84A
:1038300000C00078947050700B8070BD7F251324F9
:1038400003211C4B1C4A1B6812681D7000789C7079
:103850005870118070BD0123194D2E782B70FEF722
:103860003DF94FF47A700AF049FBF6B22078FEF782
:103870003BF9FEF773F82E7070BD36230F490B70BD
:103880001306C1D570BD3523F8E73423F6E7382396
:10389000F4E77F22002631240321064B074D1B68E5
:1038A0002E701A70044A0078126858709C7011804B
:1038B00070BD00BF042C0320002C0320082C032023
:1038C0007600032030B54378044685B013B9837879
:1038D000442B0FD07F204FF0310C03213C4B3D4A4D
:1038E0001B6812681870207883F802C05870118025
:1038F00005B030BD0B2903D07F204FF0130CECE74F
:10390000354B1978022903D04FF07F0C7F20E4E774
:103910001B7F022B11D1314D6B7B13F0FB030FD0BA
:103920007F20242503212A4B2A4A1B68126818701D
:1039300020789D7058701180DAE74FF0330CE5E77E
:10394000D0F80300AB6001232B73D4F8073000BA22
:103950001BBAC1186B6001922860FFF791FA1C4BEB
:1039600019681C4BD3F800C040B36B68019A13F080
:10397000070F0AD07F2370200B70032394F800E018
:10398000887081F801E0ACF8003023786A734FF258
:103990000F04202540338DF80C3003AA4B1EC81CA1
:1039A0008DF80D50ADF80E4012F8011B03F8011F01
:1039B0008342F9D10423ACF8003099E77F2231200B
:1039C00003230A70227888704A70ACF800308FE7C1
:1039D000042C0320002C0320E02B03200C2C0320BC
:1039E000042910B504460ED07F204FF0130C03219C
:1039F000144B154A1B6812681870207883F802C0AF
:103A00005870118010BD4378FF2B03D07F204FF0FA
:103A1000310CECE78378FF2BF8D1C378FF2BF5D17D
:103A2000FEF780FC074B084A1B68126820B17F2014
:103A30004FF0720C0321DFE701202178403119702B
:103A4000108010BD042C0320002C032038B5002466
:103A50000122094B09490A4D4C73586009490A482B
:103A6000C3E90344C3E905442C701A701C77FEF7C0
:103A7000EDFC204638BD00BFE02B03200C2C0320BA
:103A8000082C032090000320D4A40120114B0146F0
:103A90001A78032A02D01048FEF76ABE41F2883035
:103AA0005A688A1A8242F6D900224FF0010C10B4EB
:103AB0000A480B4C4273227083F800C01A770648FC
:103AC0005DF8044BC3E90322C3E905225960FEF700
:103AD0004FBE00BFE02B0320D4A401200C2C0320F8
:103AE000082C03200146024A0248FEF74FBE00BFE1
:103AF000B4000320D4A4012040F2E27C2DE9F0417F
:103B000000260446006882B060450F4698468DF84E
:103B10000560ADF8066007D040F2DF7398423BD0F5
:103B2000002002B0BDE8F081E068154600F0E6FF35
:103B30003A4C01462B4620463A46FEF7ABFC257828
:103B4000022DEDD14FF0FF3301220DF10501D8F820
:103B500000008DF805600AF0DFFE2A464FF0FF33C3
:103B60000546A11CD8F800000AF0D6FE02464FF028
:103B7000FF331544D8F80000628804F10D010AF003
:103B8000CBFE638805440333AB4201D0FDF7DAFC7A
:103B9000002323700120C4E7E06800F0AFFF002895
:103BA000BED03D78002DBBD005F0080353EA1513B5
:103BB000B6D1E06800F0A2FF431E9D42B0D80122BA
:103BC00017F8014B4FF0FF330DF1050104F00F041E
:103BD000D8F800008DF80520ADF806400AF09CFEEC
:103BE0004FF0FF33022204460DF10601D8F8000021
:103BF0000AF092FE02464FF0FF3314443946D8F8DB
:103C00000000BDF806200AF087FEBDF80630044427
:103C10000333A342BED0FDF795FCBBE7D4A401203B
:103C20002DE9F04F00248FB0DDF860C09E4FACF856
:103C300000409E4E0C469E491D469146C6F800C067
:103C400048603B60002A00F0838023780F2B40F20D
:103C50009080A3F11002772A00F28880DFE812F04A
:103C600095009C0086008600A300860086008600E2
:103C70008600AA00860086008600860086008600F0
:103C800086008600D100D7008600860086000A01E3
:103C90008600860086008600860086001101860068
:103CA00086003501860086007C01D301D9012A01F6
:103CB0008600860086008600860096018F018600B9
:103CC00086008600860086008600860086008600C4
:103CD00086008600860086008600860086008600B4
:103CE00086008600860086008600860086008600A4
:103CF0008600860086008600860086008600860094
:103D00008600860086008600860086008600860083
:103D10008600860086008600860086008600860073
:103D20008600860086008600860086008600860063
:103D30008600860086008600860086008600860053
:103D400086008600860086009200EE018600030150
:103D50007F2284F80090132103232A702278A9700F
:103D60006A70ACF800300FB0BDE8F08F7F221121EF
:103D7000F2E763462A46494620460FB0BDE8F04FB9
:103D8000FEF750BD7F221221E6E7494620460FB0DC
:103D9000BDE8F04FFFF7ECBB494620460FB0BDE849
:103DA000F04FFFF77FBC494620460FB0BDE8F04F0B
:103DB000FFF716BEB9F1020F27D959232B70042340
:103DC0006278AB706A70637803F07F03012B00F0B8
:103DD0002483022B00F051837F2312222B700323B4
:103DE0002178AA706970ACF8003094F90130002B8A
:103DF000B9DA3B681B787F2BB5D0002233681A8074
:103E0000B1E7B9F1030F00F057827F22A3E7B9F1C0
:103E1000010FFAD0637803F00F02042AB2D103F045
:103E2000F002402AAED80A78012A33D01B099A1D25
:103E30009145EAD1002B00F0CD844FF00008013B02
:103E4000DB00611D11F8012F9A40083B13F1080FA8
:103E500048EA0208F6D140F6FE73984540F2BB846A
:103E60007F22312178E7494620460FB0BDE8F04F68
:103E7000FFF79EBC494620460FB0BDE8F04FFFF764
:103E8000C5BAB9F1020FC0D991F80080B8F1020F9C
:103E900000F0CB827F2303222B702178AB706970F6
:103EA000ACF800205FE700BF042C0320002C0320A7
:103EB000E02B0320B9F1010FA7D1B64B5A7B032A9F
:103EC00000F01E837F22242146E7B9F1030F9CD91D
:103ED00094F901206378002ABCBF03F07F0363706C
:103EE0006388B8BF4FF001085BBA9BB2A8BF4FF020
:103EF0000008B3F5097F80F20C83B3F5007FC0F2B0
:103F0000A480A3F50073232B00F29F80DFE813F059
:103F1000EB00DA004801330131011101B501A701BD
:103F200065015A019D009D009D009D009D009D0022
:103F3000830174019D009D009D009D009D009D00DA
:103F40009D009D009D009D009D009D009D009D0089
:103F50000A010301BF00B4008F4BB3F8E030B3F5A2
:103F6000007F7FF403AFB9F1020F7FF64EAF01225D
:103F7000494620460FB0BDE8F04FFFF7A3BC4946C5
:103F800020460FB0BDE8F04FFFF7C6BAB9F1010FF8
:103F90003FF43BAF637803F00F02042A7FF4F2AEE4
:103FA00003F0F002402A3FF6EDAE1B095A1D4A45C8
:103FB000BFF62BAF002B00F069844FF00008581EAD
:103FC000C00004F1050E1EF8012F8240083848EAAF
:103FD000020210F1080F1FFA82F8F4D103F1060A69
:103FE0000AEB080399457FF410AF0B78022B00F021
:103FF00010847F237F21032229702178AB706970A0
:10400000ACF80020AFE6B9F1020F7FF6FEAE022257
:10401000AEE7B9F1010F3FF4F8AEDFF8788198F818
:104020000D30012B00F0E081022B7FF44BAFB9F192
:10403000020F00F085827F2271218DE649462046DD
:104040000FB0BDE8F04FFFF775BB7F232B702378CF
:104050006B703123AB704FF00309ACF80090B8F1EE
:10406000000F3FF480AE3B681B787F2B3FF47BAEA4
:104070000023ACF8003076E6B9F1040F00F0F183CC
:104080007F232B7023786B701323AB70E3E7B9F1B8
:10409000070FF5D1201DFDF77DFDFDF75FFC0A2020
:1040A00009F02CFF042122783B684032D6F800C08A
:1040B0001A7062785A70A2789A70E278DA70ACF866
:1040C0000010CCE7FFF702F8D6F800C03B680028E4
:1040D00000F0DF837F221A7022784FF003095A70B4
:1040E00072229A70B9E7B9F1040FC9D16378012B34
:1040F00000F04F84022B78D10022284B1A702378CD
:1041000040332B7063784FF004096B70A378AB7069
:10411000E378EB70A1E7B9F1050FB1D12079FDF794
:1041200031FDBAE7B9F1070FAAD1201DFDF71CFD3B
:10413000B3E7B9F1060FA3D140F6FB72A3885BBACF
:104140009BB2934281D8712229462A706278181F47
:104150006A70A278AA70E27801F8032F002202E0C8
:1041600001F8012F01329042FADC04331FFA83F97F
:1041700073E77123C5E77123621C2B70A9F1020359
:1041800012FA83F314F8012FA34205F8012FF9D195
:1041900063E700BF0C2C03200005FA0B7600032018
:1041A000FEF76CFFD6F800C03B68002892D10122D0
:1041B000217840311970A15C9954013291B289453E
:1041C000F9D84AE70B7F022B00F0FD827F232B708A
:1041D00023786B703323AB703DE7B9F1080F7FF4A0
:1041E0004FAF6378012B00F0C0837F232B702378BF
:1041F0006B701223AB702EE7B9F1040F7FF440AF60
:104200000B78022B00F07B837F237F222A70227899
:10421000AB706A701FE7B9F1040F7FF431AF0B7810
:10422000022BF1D10B7F022B40F099836378012B95
:10423000DBD1FEF795FE002840F08B83FEF79CFE55
:10424000002840F02F8204212046FFF7BFF8D6F85F
:1042500000C0BCF80030002B3FF485ADFFE6B9F19B
:10426000040F7FF40DAF6378012B00F07A83022BEB
:10427000BBD10022BC4B1A7041E7B9F10B0F7FF69E
:10428000FFAE6568D4F808902DBA99FA89F92846E6
:1042900009EB0501FEF716FE002840F03D837F2262
:1042A0003B6831211A702278D6F800C05A70032278
:1042B0009970ACF80020D2E60022B4F80100CDE9F4
:1042C000012240BA80B2A0F5007CBCF5007FCDE9A8
:1042D00003220092C0F00481A0F5714084380C28BC
:1042E00008D8DFE800F070076B6207070707590777
:1042F000070712007F20312503213B6832681870C0
:1043000020789D70587011802DE569460120FEF7D8
:104310009BF801A980460220FEF796F802A948EA18
:1043200000080320FEF790F81FFA88F848EA000812
:1043300003A90420FEF788F81FFA88F848EA000865
:1043400004A90520FEF780F81FFA88F848EA00085B
:104350001FFA88F5694611220DF1170000F0DAFB0B
:10436000002DC7D1142523784033396862788DF841
:104370001430A378681E8DF815208DF8163005AA24
:104380004B1E11FA80F012F8011B03F8011F98422E
:10439000F9D133681D80E6E40C2274490DF1170051
:1043A00000F0B8FB0F252378DEE7042270490DF1F9
:1043B000170000F0AFFB07252378D5E70A7804251E
:1043C0008DF81720D0E70C226A490DF1170000F094
:1043D000A1FB20230922684909A88DF8233019255B
:1043E00000F098FB2378BFE7A9F1020212F0070959
:1043F0001FFA82FA7FF41FAED8F80830D8F80410FC
:1044000053448B423FF617AE98F80C2063789342E2
:1044100000F070817F2273219EE4B9F1030F00F058
:10442000EE807F2313222B70D9E44FF28412B4F86C
:10443000013058BA80B220F0080191423FF410AD2B
:1044400049F2F102934200F0EE80B9F1070F7FF4D8
:10445000DCACD4F8031009BAFDF7DEFF03463A6876
:104460003168002B00F096817F20722503231070A5
:104470002078957050700B8075E4B9F1030FD0D19E
:10448000002305A8EB70FDF7A9FF8046002840F047
:104490001681059B002B00F0908182466D4614E04A
:1044A0009DF803203B6803F80920BDF8022003F8BB
:1044B0002A20009A4B44120A9A70009ADA70059BDF
:1044C00009F10409534540F2068150462946FDF79B
:1044D00041FF0AF1010A0028E2D04FF00108EEE79F
:1044E0006946FDF7B1FF002869D07F2131203B6884
:1044F00032681970217898705970A2F8009032E4EF
:104500000422494620465A730FB0BDE8F04FFEF72B
:104510005DBFB3F57F4F00F0B0804FF6017293425C
:104520007FF493ADB9F1040F7FF4AAAD6378012B4A
:104530007FF45BAE0B78022B00F0B7817E2364E63C
:1045400098F80C20637893427FF464AF013388F8C5
:104550000C302378002240332B70637805F8013F3C
:10456000D8F8083019E000BF822B03209005FA0B21
:104570002C0C0108140C0108200C0108D8F80010BC
:104580000132CB5CB2F57F6F05F8013FD8F80830F7
:1045900003F10103C8F8083004D0D8F80410994298
:1045A000ECD892B2D8F8041002329942ACF800204C
:1045B0003FF6D9AB032388F80D30FFF7D4BB23783F
:1045C000627840338DF81430A37869468DF8152051
:1045D0000DF1170004228DF8163000F09BFA3A68AE
:1045E0000DF11301531E063211F8010F03F8010FEC
:1045F0009342F9D1072233681A80FFF7B4BB002336
:1046000005A8EB70FDF7EAFE3B683168002800F072
:10461000CC807F221A70722220789A705870A1F88C
:104620000090FFF7E2BBB9F1140F7FF4EEABD4F8C2
:1046300003100120FDF7F0FED4F8071005464046B0
:10464000FDF7EAFE0346D4F80B1003201D43FDF7E7
:10465000E3FE0346D4F80F100420ADB21D43FDF76E
:10466000DBFE0346E17C0520ADB21D43FDF7D4FE21
:10467000ADB245EA00039BB2F1E6B9F1040F7FF455
:10468000FFAC6378012B7FF4B0AD0B78022B7FF485
:1046900055AF0B7F022B40F06281FEF7C9FC00286A
:1046A0003FF4D1AD7F223B68D6F800C01A70227863
:1046B00072215A7003229970ACF80020CFE47F2257
:1046C0003B681A70722221789A7059703368A3F887
:1046D0000090FFF78ABBB8F1000F6ED07F213B68D6
:1046E000722019700321257832685D7098701180EE
:1046F000FFF77BBB013388F80C3002F0FDFABAF10A
:10470000000F00F0E8804D46A146AB4699F8043012
:1047100099F805201B0403EB026399F8032099F82C
:10472000081003EB022399F80920090401EB026148
:1047300099F80220D8F8080013441BEB030299F8FB
:10474000073009F1080901EB0323D8F800100844E9
:1047500019F8021C00F580200B44FEF7E1FC40EA4A
:104760000503DDB2D8F808300833C8F80830A9EBE3
:1047700004039A45CAD802F0D3FAD8E901329A4222
:1047800024BF032388F80D30002D00F0AD807F207A
:104790007225B1E560782378A57850700320403306
:1047A000137095700880FFF7DEBA0620059A5A71DB
:1047B000120A1A710880FFF718BB32689B00033396
:1047C0001380FFF712BBBFF34F8FBFF36F8F631DD3
:1047D000984767E49846D4F802502DBA08EB0501D3
:1047E0002846FEF76FFB3B683168002800F0D58053
:1047F0002278ED1A40321A7003EB080202E0E85CFE
:1048000003F8010F9342FAD108F101030B80FFF77F
:10481000AABA0B7F022B40F0D280D4F802502DBAF6
:10482000284605EB0801FEF73DFB00283FF462AD8A
:10483000B8F1020F00F0BB80B8F1040F00F0BB80AC
:10484000B8F1080F40D06FF00603E21D1B1B02E019
:1048500012F8011F297099188845F9D85146204649
:1048600052E6FDF77BF80A2009F048FB22783B6806
:1048700040321A706278D6F800C05A70A2789A70E6
:10488000E278DA70ACF80090FFF7E9BB9846FFF7E2
:10489000A5BB0122217840311970A15C99540132E5
:1048A00091B28945F9D8FFF7D8BB0B7F022B56D1BF
:1048B000444B5B7B042B29D07F232B7023786B70B8
:1048C0002223AB70FFF7C7BBA168E0680BBA02BA3E
:1048D000C5E90023C2E702F023FAD8E901329A427F
:1048E00002D3032388F80D30022023783A686478D5
:1048F00031684033137054700880FFF734BA0B7F6F
:10490000022B2CD16378012B7FF46FACFEF75AFB9E
:1049100000287FF4C7AE96E449462846FDF790FA92
:104920000825024621783B68403119706178D6F835
:1049300000C05970A178EA409970E178D871D970B7
:10494000010E1971010C59719A71ACF80050FFF702
:1049500086BB0CF0F5F800287FF4A4AE73E4332393
:1049600053E4194A1370FFF7CABBE379042B7FF4B1
:104970006CABA0792379000240EA0360637940EAD6
:10498000034040F00400FDF701FD00287FF48AAEEB
:1049900059E40E4A1370FFF7B2BB7F203125032282
:1049A000187020789D7058700A80FFF7DCB9238951
:1049B0005BBA2B8052E7A3681BBA2B604EE7332308
:1049C000FFF718BB0C2C0320822B0320760003205A
:1049D00070B400242D4D039E2B602D4D34802E602D
:1049E0002C4D8C461C4611466860B2B19CF80020E4
:1049F0000F2A1FD9272A23D8103A172A2AD8DFE8E6
:104A000002F0383429293029292929292929292955
:104A10002929292929292929292C8CF800107F22C4
:104A20001321032322709CF80020A1706270338050
:104A300070BC70473346224670BC6046FDF7F2BE3C
:104A4000852A1ED0872A18D03E2A03D170BC604622
:104A5000FEF762BD7F221121E3E7604670BCFEF7DE
:104A6000D5BC604670BCFEF7BBBF604670BCFEF7AD
:104A700019BE604670BCFEF77BBD604670BCFEF799
:104A800097BE604670BCFEF755BE00BF042C0320E5
:104A9000002C0320E02B032038B5049A12884AB179
:104AA0001978512907D0C72904D1012A02D05B788F
:104AB000032B08D038BD4FF4FA7009F01FFABDE897
:104AC000384001F06DBA4FF4FA7009F017FA01237B
:104AD000084C25782370FDF701F84FF47A7009F03F
:104AE0000DFA054BEDB21878FCF7FEFFFCF736FF28
:104AF000257038BD76000320082C0320014BC0B27E
:104B0000185C7047E0110108704700BF0AB10BF054
:104B100027BF70474AB1013A4B1E0138114413F8C0
:104B2000012F8B4200F8012FF9D17047421E11F876
:104B3000013B02F8013F002BF9D1704708B503781B
:104B40002BB10130FBF77CFB013080B208BD184669
:104B500008BD00BF4FF47A7202FB00F0024BA3FBCA
:104B60000030800909F0CAB9D34D62100022014615
:104B7000034B1046C3E903221A7059601A8170472B
:104B8000242C0320084B1A785AB14EF660215A683B
:104B9000821A8A4205D90022C3E9032258601A709A
:104BA0001A810020704700BF242C032038B5D0B2F2
:104BB0000C46FFF7A9FF074DE86002E00A2009F064
:104BC0009DF921462846FCF7F9FF0028F6D101207F
:104BD00038BD00BF3003032040F2545230B51C46AC
:104BE000036883B0934202D0002003B030BDC06898
:104BF0000D46FFF783FFADF806000028F4D04FF014
:104C0000FF33022220680DF1060109F085FE84467B
:104C10004FF0FF3320682946BDF80620644609F0AE
:104C20007BFEBDF8063004440233A34201D10120CB
:104C3000DBE7FCF787FCFAE72DE9F041069EDFF899
:104C400050814F4C4F4F26607860C8F8003042B119
:104C50000D46FF2119702978FF290ED038780128D8
:104C600001D0BDE8F081F53909291BD8DFE801F052
:104C7000203C1A1A1A2B1A5A4452012A01D06A7877
:104C8000DAB9002201214FF4807408203E4DC7E9B3
:104C900003223A813970C3F80150A3F80540D97155
:104CA0003080DEE742F2FE01022219803280D8E72E
:104CB000012A1BD0697807293FD942F2FE2102223E
:104CC00019803280CDE7012A10D06A78002AF4D109
:104CD0004FF080600821A3F80520DA712B4AC3F851
:104CE000010031803A61BCE7082A20D042F2FE116F
:104CF000022219803280B4E7002159703A7A0620E6
:104D0000013A18BF01221201D970197159719A70B4
:104D10003080A6E700230122C7E903333B703B81C3
:104D200032809EE7FE2102221980328099E701221B
:104D30006B681BBA3B61328093E738690144FEF728
:104D4000C1F80128D8F80060246805D042F2FE229C
:104D500002233280238084E7FF233370697859B1BE
:104D600000233A6912780133DBB2F2543A69013216
:104D70003A6169789942F5D80131218071E700BF25
:104D80001C2C0320242C032000000808F01101082B
:104D9000202C032010B50F4B82B0186E002240F07B
:104DA000010018661C6E072104F001040094009CA9
:104DB0009C6D6FF0010044F080549C659B6D03F086
:104DC00080530193019B01F091F802B0BDE81040BF
:104DD00003F026BF0010024070B500210446ACB0BD
:104DE000942207A8CDE90211CDE9041106910BF038
:104DF000B7FD324B22689A4201D02CB070BD03231C
:104E00004FF480424FF08051CDE9072309931822D7
:104E100011232791CDE90A23022108224FF0807344
:104E200007A8CDE90D230C9104F0F0FD00283BD13B
:104E3000234B0026DA6C02A942F40052DA64DA6CE1
:104E4000204D02F400520092009ADA6C42F0010206
:104E5000DA64DB6C322203F001030193032301982F
:104E60001948CDE90223049602F02EFA80224FF46D
:104E700080730521C5E903626B614FF480622023D2
:104E8000C5E9011611492846C5E906232E622960A5
:104E900001F03AF970B910210A4801F0E5FA30B989
:104EA0002565AC622CB070BDFCF74CFBC0E7FCF78D
:104EB00049FBF5E7FCF746FBEDE700BF0080024247
:104EC000001002409829032000000242080402401A
:104ED000094B02689A4200D07047A3F500539A6CC0
:104EE00082B042F480529A649B6C03F48053019325
:104EF000019B02B0704700BF00300240000000007C
:104F000010B500210446ACB0942207A8CDE90211E7
:104F1000CDE9041106910BF023FD274B22689A423C
:104F200001D02CB010BD4FF000724FF0807307A875
:104F30000792219304F06AFD002832D19FED1A6B8D
:104F40009FED1B7B09241D4B02A9DA6D1C4842F41E
:104F50000072DA65DA6D02F400720092009ADA6C7F
:104F600042F00202DA64DB6C8DED026B03F00203A7
:104F700001938DED047B019B069402F0A5F90022BC
:104F80000521272000F0B2FF272000F0E9FF0022D2
:104F90000521282000F0AAFF282000F0E1FF2CB016
:104FA00010BDFCF7CFFAC9E70003000002000000C3
:104FB000000000000000000000A4004000100240BB
:104FC0000004024208B502680A4B9A4200D008BDAC
:104FD000094A4FF44071D36D084823F40073D36538
:104FE00002F078FA272000F0C9FFBDE80840282029
:104FF00000F0C4BF00A400400010024000040242C0
:1050000010B500210446ACB0942207A8CDE90211E6
:10501000CDE9041106910BF0A3FC214B22689A42C2
:1050200001D02CB010BD202307A8079304F0EEFC9C
:1050300050BB9FED176B9FED187B0824194B02A9FD
:10504000DA6D194842F00102DA65DA6D02F0010208
:105050000092009ADA6C42F00102DA64DB6C8DEDAA
:10506000026B03F0010301938DED047B019B069419
:1050700002F02AF900220521422000F037FF4220E9
:1050800000F06EFF2CB010BDFCF75CFAD1E700BF5A
:105090000C00000002000000000000000000000002
:1050A00000800040001002400000024210B504469B
:1050B000A6B09422002101A80BF052FC114B2268EB
:1050C0009A4201D026B010BD4FF4802301A801936D
:1050D00004F09CFC98B90C4B0022D86C052140F4DC
:1050E0008020D864DB6C5E2003F480230093009B57
:1050F00000F0FCFE5E2000F033FF26B010BDFCF790
:1051000021FAE8E700080C420010024000B50368ED
:1051100087B0B3F1804F0DD02E4A934238D02E4A3B
:10512000934214D02D4A934226D02D4A934244D024
:1051300007B000BD03F504339A6D42F001029A6591
:105140009B6D03F001030193019B07B000BD254B4C
:105150000022986D052140F0200098659B6D32205B
:1051600003F020030393039B00F0C0FE322007B03E
:105170005DF804EB00F0F4BE1A4B1A6E42F40032F4
:105180001A661B6E03F400330493049B07B000BD42
:10519000144B0022986D052140F0100098659B6D1E
:1051A000312003F010030293029B00F09FFE312098
:1051B00007B05DF804EB00F0D3BE0A4B1A6E42F460
:1051C00080221A661B6E03F480230593059B07B0AB
:1051D00000BD00BF0010004000140040004401402A
:1051E000004801400010024010B500210446AEB056
:1051F000942209A8CDE90411CDE9061108910BF01C
:10520000AFFB2D4B22689A4201D02EB010BD4FF457
:10521000005309A8099304F0F9FB00283FD19FED42
:10522000226B9FED237B0A22244C2548E36C04A9C2
:1052300043F00103E364E36C8DED046B03F00103C1
:105240000193019B8DED067B089202F03DF8E36D22
:1052500043F40013E365E36D03F400130293029B30
:10526000A36DDB0018D4A36D43F08053A365A36D39
:1052700003F080530393039B03F0CAFCA36D23F058
:105280008053A36500220521492000F02FFE49200C
:1052900000F066FE2EB010BD03F0BAFCF2E7FCF79A
:1052A00051F9BCE7AFF300800018000002000000D5
:1052B000000000000000000000D400400010024088
:1052C0000000024210B5014688B000222A2000F0FA
:1052D0000DFE2A2000F044FE154B01A91A6E03A80A
:1052E00042F400621A661B6E124C03F400630293D0
:1052F000029B04F083FA04F069FA0346002140F2AD
:10530000E7300D4A2161A2FB0323A1609B0C0B49EE
:10531000E060013B20462160636005F06DFA10B14A
:10532000012008B010BD204605F076F808B010BD89
:1053300000100240382C032083DE1B43002C014068
:10534000FEE700BFFEE700BFFEE700BFFEE700BFCD
:10535000FEE700BF704700BF014801F013B800BF6F
:1053600048270320014801F00DB800BFE0260320C4
:10537000014801F0F9BB00BF10290320014801F0EA
:10538000F3BB00BF10290320014805F035B900BF69
:10539000382C0320014805F02FB900BF4826032010
:1053A000014805F029B900BFFC250320014802F09F
:1053B0003FB900BFBC280320014802F0D7BA00BFA4
:1053C000BC280320014804F0FDBE00BFB027032025
:1053D000014805F003BC00BF28280320014802F063
:1053E0000BBD00BF88220320014800F0CBBF00BFE7
:1053F00098290320014804F017BE00BF1428032099
:10540000034AD2F8883043F47003C2F888307047FA
:1054100000ED00E0254B25491A68120754BFD3F868
:1054200094301B688A6858BFC3F3032302F00C0250
:1054300048BFC3F30313082A12D01D480C2A50F8A2
:1054400023300FD01B49042A08BF0B46174A1A48BD
:1054500092681A49C2F30312825CD3400B60704712
:10546000174BF3E7C868CA6800F00301C2F30312E0
:10547000022902F1010211D0032913D0B3FBF2F18A
:105480000A4AD368D268C3F3062301FB03F3C2F3CD
:10549000416201325200B3FBF2F3D7E70549B1FB99
:1054A000F2F1EDE70649B1FBF2F1E9E70010024045
:1054B000F81101080024F4004012010854030320ED
:1054C00080969800DFF834D0FFF79AFF002103E0C0
:1054D0000B4B5B58435004310A480B4B42189A421D
:1054E000F6D30A4A02E0002342F8043B084B9A42F2
:1054F000F9D30BF09BFAFBF705FCFEE70000042054
:105500009C12010800000320C0040320C0040320F3
:10551000D0590320FEE70000042010B500F0D4FCB1
:10552000FFF778FF0020FFF7CDFE10B101242046E1
:1055300010BD0446FFF72EFC204610BD034A044B65
:1055400011681B780B441360704700BF842C032044
:1055500058030320014B1868704700BF842C0320B8
:10556000002330B583B00193002800F09E80856D44
:105570000446002D00F09C80226893689D0005D5AC
:10558000936823F0204323F03F0393609368D8008F
:1055900019D45C4B5C481B6891689B09A0FB030312
:1055A00021F010419B0921F03F0101335B0041F0E4
:1055B000805191600193019B2BB1019B013B0193B1
:1055C000019B002BF9D19368D90064D40120A36D0D
:1055D00043F01003A365E36D0343E365936813F0A1
:1055E000040FA36D5DD1DB065BD4A36D23F481733F
:1055F00043F00203A3659368DD0708D4434B9B681F
:1056000013F0010F424B9B6801D1D90763D5E568C0
:10561000636B94F820102B43A568012943EA050326
:10562000657E43EA453343EA01434FD0A16A21B185
:10563000E56A01F4707129430B43D5683549294067
:105640001943D16093681B0716D494F83030257E37
:10565000D1685B0043EA8533E56C21F4804121F099
:1056600006012B430B43D36094F83830012B3AD01A
:10567000136923F0010313612369012B1ED0136BFF
:1056800023F00F031363A36D23F0030343F001031F
:10569000A36503B030BD9368002013F0040FA36D21
:1056A000A1D0A36D43F01003A365012003B030BD6A
:1056B000FFF792FBE56584F854505DE7116BE369F1
:1056C00021F00F01013B0B431363DCE7616A0139F1
:1056D00043EA4143AAE7104965688B6823F47C13C9
:1056E0002B438B6093E71169E36B256C6FF38A01A1
:1056F0002B430B43616C0B43A16C0B4343F0010341
:105700001361B9E754030320632D3E050080024274
:105710000081024207C0F0FF00830242704700BFD1
:10572000704700BF08B5806AFFF7FAFF08BD00BFE9
:10573000704700BF836A10B59A6D12F0500F9A6DD2
:105740001DD1196842F400729A650A6812F0080FB8
:10575000CA681BD012F4406F0DD1CA6894040AD4F1
:105760009A6D22F480729A659A6DD10403D49A6D71
:1057700042F001029A651846FFF7D0FF10BDD2062D
:105780000AD4BDE810401B6DDB6B18479007E7D5C6
:105790001846FFF7C3FFF1E71846FFF7C9FF10BD32
:1057A000806A08B5836D43F040038365C36D43F0A1
:1057B0000403C365FFF7BCFF08BD00BF0022F0B5BE
:1057C00083B0019290F85420012A00F0F380034640
:1057D00001201A6883F854009068400709D5012019
:1057E0009A6D42F020029A65002283F8542003B09B
:1057F000F0BD1F24486802F1300500F01F0C4FEA8D
:10580000901E08680EF00C0EC0F3846000FA0CF0D5
:1058100004FA0CFC55F80E4024EA0C0C40EA0C008B
:1058200045F80E00906810F0040F906835D1070716
:1058300033D4072408688D68C0F30456B440C00D03
:10584000B5F1004F6FEA040400F0040000F0FC80A2
:1058500002F11407B5403E5834402C433C50506987
:1058600020F0004050610E69D468042E086800F0F2
:10587000B88002F1600757F826C0BA4D00F0F84032
:105880000CEA05050543C4F3C10448696400A0405F
:10589000284340F0004047F826009068C60701D52D
:1058A0000020A1E7CE680C68AF48D2F8B05006F0EF
:1058B0001807F840C4F31207204025EA07052843DB
:1058C000C2F8B000A948864226D0A9490C42E7D0C8
:1058D000A848A94986688D68ED076ED4A74DAD68C4
:1058E000EF073FF57CAFA64D06F0E077AC4200F045
:1058F0005F81A44DAC4200F07F81A34DAC42CFD17B
:105900007402CDD48A42CBD1826822F0E0723A434D
:1059100042F480028260C3E7002F51D094FAA4F0D1
:10592000002800F0D080B0FA80F0013000F01F00B5
:10593000092840F2C88094FAA4F0002800F072818F
:10594000B0FA80F00130800600F0F84094FAA4F537
:10595000002D00F06C810126B5FA85F5354405F07F
:105960001F0506FA05F5284394FAA4F4002C00F06C
:105970005C81B4FA84F4013404F01F0404EB4404A1
:105980001E3C240544F0007407272043C50D8E6893
:1059900005F0040502F1140C5CF80540C0F3045056
:1059A000864007FA00F024EA000030434CF8050076
:1059B0000C688AE7022003B0F0BD704A92680EE7D7
:1059C0000120A40E013404F01F06A40604F0F845DB
:1059D000B040092E06EB460440EA0500D0D8240565
:1059E000D2E7146E146EC0F31205C4F38464002D64
:1059F00034D1C0F38466B44200F08B80546E556E8F
:105A000002F16004C5F3846502F1640CB54200F054
:105A10009480A568A56804F10807C5F38465C0F300
:105A20008466AE4200F0B280E568E56804F10C06D9
:105A3000C5F38464C0F38460A0427FF42EAF306865
:105A400020F00040306028E702F1140635582C4061
:105A50003450506940F00040506104E790FAA0F5DE
:105A60001DB1B5FA85F5AC4253D0546E556E02F1B6
:105A70006004C5F3846502F1640C90FAA0F604F1A9
:105A80000807BE461EB1B6FA86F6AE4257D0A568E4
:105A9000A568C5F3846590FAA0FC04F10C06B6462F
:105AA000BCF1000F03D0BCFA8CFCAC4570D0E568AB
:105AB000E468C4F3846490FAA0F000283FF4EDAEEB
:105AC000B0FA80F0B8E794FAA4F0002800F0A480BF
:105AD000B0FA80F00130800600F0F84094FAA4F5A6
