:020000040800F2
:1000000000000420354B0008B1490008B54900083C
:10001000B9490008BD490008C1490008854B0008DE
:1000200000000000000000000000000021EA0008BD
:10003000C549000800000000B1E9000849C60008F1
:10004000854B0008854B0008854B0008854B000850
:10005000854B0008854B0008854B0008854B000840
:10006000854B0008854B0008854B0008854B000830
:10007000854B0008854B0008854B0008854B000820
:10008000854B0008854B0008854B0008854B000810
:10009000854B0008854B0008854B0008854B000800
:1000A000854B0008854B0008854B0008854B0008F0
:1000B000854B0008C9490008D5490008854B000850
:1000C000854B0008854B0008854B0008854B0008D0
:1000D000854B0008854B0008854B0008E149000866
:1000E000ED490008854B0008F9490008854B0008D8
:1000F000854B0008854B0008854B0008854B0008A0
:10010000854B0008054A0008114A0008854B000885
:10011000854B0008854B0008854B0008854B00087F
:10012000854B00081D4A0008294A0008854B000835
:10013000354A0008854B0008854B0008854B0008B0
:10014000854B0008854B0008414A0008854B000894
:10015000854B0008854B0008854B0008854B00083F
:10016000854B00084D4A0008854B0008854B000868
:10017000854B000800000000854B000800000000CF
:10018000594A0008854B0008854B0008854B00083C
:10019000854B0008854B0008854B0008854B0008FF
:1001A000854B0008854B0008854B0008854B0008EF
:1001B000854B000800000000654A0008854B0008D8
:1001C000854B000800000000854B0008854B0008A7
:1001D000854B0008854B0008854B0008854B0008BF
:1001E000854B0008854B0008854B0008854B0008AF
:0401F000000000000B
:1002000010B5054C237833B9044B13B10448AFF350
:1002100000800123237010BDB803032000000000FC
:1002200084EF000808B5034B1BB103490348AFF343
:10023000008008BD00000000BC03032084EF00081C
:10024000704700BF01F048BB2DE9F0412A4C2B4E0E
:10025000DFF8B0802A4F9AB04FF0FF33282269466A
:1002600020680DF01BF82828F6D1039803F0F8FF5A
:100270000546002838D1029B9BB929460AAA009856
:1002800001F040FB0DF002FB0AA90246684601F0AE
:10029000FBFC0DF0FBFA0AA90246684601F00AFBD6
:1002A000DAE7B3F1005FF4D140F20173009D9D42A3
:1002B000EFD1082203994FF0000E91420B4628BF60
:1002C00013469C46019B41463846C6E905EEC6E901
:1002D0000053C6F808E0C6F80CC003F0CDFF39465D
:1002E000304601F093F9D4E74FF0FF332A462068F7
:1002F0000AA90CF0D3FFBEE71C290320E803032062
:10030000DC0303209005FA0B2DE9F0411F4DDFF8C7
:1003100084801F4F9AB0002404EBC40101AEC4F1E5
:1003200024024FF0FF33286806EB81010CF0B6FF82
:100330000444232CF0D9049803F092FF039B064653
:10034000B3F1005F00D0A0B9384605F0D1FE50B13E
:1003500038460AAA01A905F08FFDD8F80C30013300
:10036000C8F80C30D7E74FF0FF3101200DF048FE00
:10037000EAE700240AA9321B21444FF0FF33286822
:100380000CF08CFF0444A642F4D8DDE718290320C2
:10039000C02703200000032000B583B001F0ACFAB1
:1003A00000F0FEFF03221B491B4804F0F3FF02F09C
:1003B00061FB00F005FE02F0A7FB0DF067FA01F00B
:1003C00073FA164809F094FB154809F059FB154DCE
:1003D000154C0DF05BFA03462046019307F046F8F2
:1003E000019802F04DFB019802F094FB019800F097
:1003F000E9FD2B7813B9019801F0CCFB019801F0CD
:100400005BFA019801F034FC0A2101A80DF0A0FB71
:10041000DFE700BF2C2A0320B0280320E8240320B4
:1004200050240320760003205C2703202DE9F043AD
:100430004FF00008204C214EDFF88890204FA5B0E7
:1004400011E00EF0CBF999F8003033B1099B23B1DC
:1004500064200CF07BF900F0A3FF00230222194670
:1004600038680DF043FE4FF0FF3101200DF0C8FD5C
:100470000EF0A6F9204605F091FF054604A9204696
:1004800005F0FCFD6946204605F020FE5422314669
:100490000FA8B5600EF01EFDC4F86080169BB3F582
:1004A000003FCED9B3689B02CBD5012386F820301C
:1004B000099301F039F8C4E7C027032000000320A6
:1004C000701C0320D803032000232DE9F04F85B0D2
:1004D0007D4E7E4FDFF8FC91DFF800B27C4DDFF8F7
:1004E00000A20DF10E088DF80B3012E028680CF018
:1004F000FDFD012808D94FF0FF330222286803A927
:100500000CF0CCFE022846D04FF0FF3100200DF059
:1005100077FD30680CF0EAFD0028E7D04FF0FF339C
:10052000012230680DF10B010CF0B8FE0128DDD17D
:1005300030680CF0DBFD0128D8D94FF0FF330222E0
:10054000306803A90CF0AAFE0228CFD1BDF80C2018
:10055000B2F5805FCAD2002A40F0A6809DF80B4019
:10056000002C53D10DF092F95A4B5849BDF80C208C
:10057000CDF8008002F02CFFBDF80E30002B7AD1B0
:100580000DF084F9534B5149BDF80C20CDF8008093
:1005900003F034FEAAE7BDF80C20B2F5805FB3D2B9
:1005A0006AB10024121B39194FF0FF3328680CF090
:1005B00075FEBDF80C20204484B2A242F2D10DF0A9
:1005C00065F94B463946BDF80C20CDF8008003F0A4
:1005D000D1FEBDF80E30002B96D041464FF0FF33D0
:1005E0000222DAF800000CF08FFD4946BDF80E201B
:1005F0004FF0FF33DAF800000CF086FD00230222F2
:100600001946DBF800000DF071FD7DE70DF03EF9B5
:10061000304B2E49BDF80C20CDF8008003F08AFD48
:10062000BDF80E30002BABD099F800207F2A09D1FD
:10063000022BA5D999F80230A3F11102012A9FD902
:10064000312B9DD02448414604464FF0FF3302220F
:1006500000680CF059FDBDF80E204FF0FF331D4926
:1006600020680CF051FD002302221946DBF800003F
:100670000DF03CFD84E7184841464FF0FF3302225D
:1006800000680CF041FD1448BDF80E204FF0FF3318
:10069000104900680CF038FD234602222146DBF8A1
:1006A00000000DF023FD6BE70024121B4FF0FF3319
:1006B000391930680CF0F2FDBDF80C2023189CB2FB
:1006C000A242F2D14AE700BF1C040320508F012050
:1006D00010040320507F012018040320B0090320D8
:1006E0000C0403202DE9F04F404F414E414DDFF8FF
:1006F0000CA185B007F11C0907F5805B07F1140810
:1007000013E028680CF0F2FC012809D94FF0FF3300
:10071000022228680DF106010CF0C0FD022843D02A
:100720004FF0FF3100200DF06BFC30680CF0DEFC68
:100730000128E6D94FF0FF330222414630680CF021
:10074000ADFD0228DDD1BA8AB2F5805FD9D26AB197
:100750000024121B09EB04014FF0FF3330680CF04A
:100760009DFDBA8A204484B2A242F2D10DF08EF8E7
:100770000146214801F032FD0028C2D103E09BF878
:1007800023000BF0E3FF0DF081F802F083FD012858
:10079000B7D030680CF0AAFC0128B2D89AF8003023
:1007A000002BECD10A20ECE7BDF80620082AB7D8C8
:1007B00072B1002402A9121B21444FF0FF332868B4
:1007C0000CF06CFDBDF80620204484B2A242F1D1A9
:1007D0000DF05CF8BDF8062002A903F085FD0128A4
:1007E0009ED00A200BF0B2FFF2E700BF54AF012009
:1007F000180403200C040320549F012076000320DA
:1008000001F06EB801F070B8002001F071B800BFBF
:100810000022024B02481A6009F06AB9D40303208F
:100820009C240320014B1868704700BFD4030320A9
:1008300030B59FB0482200210CA80EF0BFFA00236B
:100840004FF40070CDE90233CDE90433CDE907332D
:10085000CDE90933019306930B9307F067FD08B1C7
:1008600072B6FEE701230222169311931993179291
:1008700010231D9207229FED1E7BCDE91A3203241F
:10088000042312900CA81C938DED0C7B189407F098
:1008900087FF034608B172B6FEE70F22214601A882
:1008A000CDE9033305930294019207F027FE034636
:1008B00008B172B6FEE7104A4FF00055916D4BF645
:1008C0007F3441F080719165926D069302F08072E1
:1008D000009208932222202306A8CDE90A2300993A
:1008E0000795099408F0BAFE1FB030BDAFF3008041
:1008F000290000000000010000100240F0B593B094
:1009000072B64FF00062A54B9A60BFF34F8F62B68C
:10091000002504F039F9FFF78BFFCDE90C55CDE93F
:100920000E559F4C1095E36C4FF4604143F0040367
:10093000E364E36C2A4603F004030593059BE36C30
:10094000984843F08003E364E36C012603F08003DE
:100950000693069BE36C43F00103E364E36C03F04E
:1009600001030793079BE36C43F00203E364E36C2A
:1009700003F002030893089B06F0AEF92A4640F202
:100980000111894806F0A8F92A4641F2E401874896
:1009900006F0A2F94FF4604382480CA9CDE90C3669
:1009A0000E950F9505F0E0FF40F201137E480CA96B
:1009B000CDE90C36CDE90E5505F0D6FF41F2E40342
:1009C0007A480CA9CDE90C36CDE90E5505F0CCFFDF
:1009D000082377480CA9CDE90C350E9505F0C4FF26
:1009E000A36C052143F00403A364A36C2A4603F01F
:1009F00004030293029BA36C1D203343A364A36CE6
:100A000033400393039BA36C43F00203A364A36CE2
:100A100003F002030493049B04F0B2FD1D2004F0D4
:100A2000EBFD2A4605211E2004F0AAFD1E2004F03D
:100A3000E3FD2A460521502004F0A2FD502004F0D9
:100A4000DBFD284606F0C6FC08B172B6FEE706F0EC
:100A5000D5FC034640B95748574AC0E9002308F07F
:100A600025FE18B172B6FEE772B6FEE7534A544B44
:100A70001070544A4FF440711A60102299609A61C4
:100A80009A620F2113223C2404255860D860987480
:100A9000D8631846C3E90D661E825E615E62DC6142
:100AA000D9621A621D6305F03DF8034640BBCDE9EB
:100AB0000C00CDE90E00CDE91000CDE90A00099047
:100AC0004FF430104FF4807103274FF480523E4CA6
:100AD000C4E9023384F82030A362E36284F838303A
:100AE0003A4B60602046266184F83060656121835E
:100AF0006263E761236004F06BF818B172B6FEE739
:100B000072B6FEE7099009A9204604F0C1FC08B1BD
:100B100072B6FEE706230D937F230F932C4B0E90A6
:100B200011900CA9204610950C9304F07BF908B1A4
:100B300072B6FEE7274B20460C930C230CA90D93AD
:100B400004F070F908B172B6FEE7234B20460C930F
:100B500012230CA90D9304F065F908B172B6FEE7F3
:100B60001E481F4B40F6FF7203604FF47A734760D4
:100B7000C0E9023206F04CFC08B172B6FEE7002371
:100B800001221848C0E905338380174B02620360D5
:100B900004F064FD034648B372B6FEE700ED00E0E2
:100BA000001002400008024200000242000402421B
:100BB000001C0242B426032000080C42D803032084
:100BC000C027032000A40040B02803200080024278
:100BD000400020190002B0250004002A5C270320F1
:100BE0000030004024280320003002404A484B4A8D
:100BF000C37202604FF4027302228380C0F80720A0
:100C000006F03CFC08B172B6FEE741F63F75444C75
:100C1000444ACDE90C00C4E901000E90A0612046D1
:100C20002260E56009F078F9034608B172B6FEE784
:100C300020460CA90C930E9309F0A0F9034608B1C5
:100C400072B6FEE7384CCDE90C330E93A360A36176
:100C500042F20F73354A2046C4E90023E56009F0EB
:100C60005BF9034608B172B6FEE720460CA90C9367
:100C70000E9309F083F9034608B172B6FEE74F25DB
:100C80004FF6FF742A482B4AC0E90433836083611E
:100C900002604560C46009F03FF9034608B172B6CE
:100CA000FEE72548C0E90153C0E90343C0E9053325
:100CB000224B036009F030F908B172B6FEE74FF03D
:100CC00080414FF0FF321E4CCDE90C00CDE90E0003
:100CD000CDE90900C4E901000B902061A061204624
:100CE0002160E26009F018F908B172B6FEE74FF42E
:100CF000805320460CA90C9308F038FF08B172B657
:100D0000FEE700230E4809A909930B9309F036F971
:100D10000446B8B172B6FEE72821032000D4004093
:100D20009C24032000140040E8240320001000400D
:100D300050240320004401400424032000480140C3
:100D4000342503205A48224601215A4B009046F28E
:100D500006000CF077F90246574D584E00950121D8
:100D6000574B326046F2060022460CF06BF9554BA9
:100D7000554A0121009218602246544B4FF47A6084
:100D80000CF060F9524D534B224600930121524B17
:100D900028604FF47A600CF055F9504B22460093CE
:100DA0004F4B012118604F4B4FF4A0400CF04AF913
:100DB0004D4B224600934D4B012118604C4B4FF494
:100DC000A0400CF03FF94B4B186001F007F80CF015
:100DD0005DFD3246484B4949009500F02FFF4848D9
:100DE00001F0C4FE474800F045FD4748474A4849DE
:100DF00000F0BCFA0CA80C9400F0E6FF20B90C9BA4
:100E000013B9444800F0B8FF0BF02CFC0021424A13
:100E100042480BF053FC0446414B0021414A4248F2
:100E20001C600BF04BFC0446404B0021404A4148FB
:100E30001C600BF043FC0446354B00213E4A3F4802
:100E40001C600BF03BFC04463D4B00213D4A3E48F4
:100E50001C600BF033FC04462C4B00213B4A3C4801
:100E60001C600BF02BFC0446244B0021394A3A4805
:100E70001C600BF023FC0446384B0021384A3948EB
:100E80001C600BF01BFC0446374B0021374A3848E6
:100E90001C600BF013FC0446364B0021364A3748E1
:100EA0001C600BF00BFC364B18600BF0EDFBFEE703
:100EB000D4040320481F0120B00403201C04032095
:100EC00040BF0020180403208C040320A0AF0020A2
:100ED000100403206804032000A000204404032021
:100EE0000C04032000500020200403201C290320B0
:100EF000000000201829032014040320600E0320A2
:100F0000B426032024280320C02703201013032025
:100F1000701C032004006345DCF100084502000852
:100F200024210320B8F100084902000820210320F1
:100F300094F100080903000870F100089903000803
:100F4000C01703204CF100082D04000828F1000808
:100F5000C904000804F10008E5060008B0090320F0
:100F6000E0F000080108000800050320BCF00008BC
:100F700005080008FC04032098F000080908000890
:100F8000F8040320094A0368934206D0084A9342B2
:100F90000AD0084A934205D07047074A13680133C4
:100FA0001360704700F090BC03F000BE00140040D6
:100FB000002C014000100040D403032072B6FEE76D
:100FC000704700BF10B5094C0949208980B200F074
:100FD000A5F8208A0749C0B200F014F9208B064911
:100FE00080B2BDE8104000F013B900BF54000320E8
:100FF000D801032060010320E80003208446002379
:1010000010B50C4682B00DF1060002226146ADF823
:10101000063003F031F9012C8CBFBDF806009DF8B5
:10102000060040BA80B202B010BD00BF8446002363
:1010300010B50C4682B00DF1060002226146ADF8F3
:10104000063003F019F9012C8CBFBDF806009DF89D
:10105000060040BA80B202B010BD00BF8446002333
:1010600010B50C4682B00DF1060002226146ADF8C3
:10107000063003F001F9012C8CBFBDF806009DF885
:10108000060040BA80B202B010BD00BF8446002303
:1010900010B50C4682B00DF1060002226146ADF893
:1010A000063003F0E9F8012C8CBFBDF806009DF86E
:1010B000060040BA80B202B010BD00BF84460023D3
:1010C00010B50C4682B00DF1060002226146ADF863
:1010D000063003F0D1F8012C8CBFBDF806009DF856
:1010E000060040BA80B202B010BD00BF84460023A3
:1010F00010B50C4682B00DF1060002226146ADF833
:10110000063003F0B9F8012C8CBFBDF806009DF83D
:10111000060040BA80B202B010BD00BF034600B561
:1011200083B008465BBA02220DF10601ADF8063025
:1011300003F0A2F803B05DF804FB00BF844600236F
:1011400010B50C4682B00DF1060002226146ADF8E2
:10115000063003F091F8012C8CBFBDF806009DF815
:10116000060040BA80B202B010BD00BF00787047E0
:10117000002300B5012983B0ADF8063003D8184626
:1011800003B05DF804FB014602220DF1060003F0F6
:1011900073F89DF8060003B05DF804FB0078704713
:1011A000007870478446002310B50C4682B00DF1DC
:1011B000060002226146ADF8063003F05DF8012C0E
:1011C0008CBFBDF806009DF8060040BA80B202B0A0
:1011D00010BD00BF8446002310B50C4682B00DF14F
:1011E000060002226146ADF8063003F045F8012CF6
:1011F0008CBFBDF806009DF8060040BA80B202B070
:1012000010BD00BF087070470078704700787047C5
:10121000034600B583B008465BBA02220DF1060111
:10122000ADF8063003F028F803B05DF804FB00BF0A
:101230008446002310B50C4682B00DF10600022250
:101240006146ADF8063003F017F8012C8CBFBDF8ED
:1012500006009DF8060040BA80B202B010BD00BF83
:10126000007870472DE9F04F3C4B8346984283B09D
:1012700007D83B4B984269D94FF028094FF4487E74
:101280000BE04FF0250940F2EE2E364BB3FBFBFC92
:101290005FFA8CFCBCF1190F5DD90120314B013094
:1012A00080B2B3FBF0FCBCFBFBFC5FFA8CFCBCF136
:1012B000190FF4D8B0F5806F42D201236FF00044CB
:1012C0004FF47A765A460093274B1F68431C1FFA47
:1012D00083FAACF10208B8EB5C0F4FEA5C0120DD49
:1012E0000CF1FF3B5FFA8BFBCDF804A006FB01F588
:1012F000B5FBFCF5BEEB050A48BFA5EB0E0AA245FF
:101300000ADAD14508DB002554460095ABEB010510
:10131000EDB2F96178613D6201314145E6DBDDF80E
:1013200004A0104998B2B1FBFAFCBCFBF2FCB0F58A
:10133000806F0AF1010A5FFA8CFC03D0431CC8E7F6
:1013400001230093009803B0BDE8F08F4FF02B0904
:1013500040F26B3E99E70120AFE700BF00350C007B
:1013600020A10700005A6202102A032038B50C465B
:10137000064D0749074B0A602860074901201C6099
:101380000BF0E4FB054B186038BD00BF102A0320AA
:10139000082A03200C2A0320202903207029032077
:1013A0002DE9F041584E82B0306804F04FFD3068AE
:1013B00004F0B8FB002840F087800022534D402104
:1013C00053482A71EA602A616A61AA61AA60EA61E7
:1013D00085F8202005F080FC306804F037FD0822F5
:1013E00001233068C0E90D2304F09CFB002840F085
:1013F000888000240222012340F2FF71C5E90B23FB
:10140000444FDFF82081A9636C6202E00134082CAC
:101410000ED037F8023F41463068AC626B6304F08F
:101420006BFC0028F2D00134FFF7C8FD082CF0D186
:1014300002234FF08042002001216B646FF0604373
:10144000C5E90F20344A3068C5E9121233492B65CB
:1014500004F052FC08B1FFF7B1FD0023022230680E
:101460001146009304F074FC002847D1306804F062
:1014700091FC00283FD100220121306804F03EFE9B
:10148000B0BB00220621306804F038FE68BB07229A
:101490004FF4F051306804F031FE18BB0722802170
:1014A000306804F02BFED0B900221D49306804F0EA
:1014B00025FE88B900224FF46021306804F01EFE3A
:1014C00028B902B0BDE8F081FFF778FD75E702B0FA
:1014D000BDE8F041FFF772BDFFF770FDEAE7FFF7E7
:1014E0006DFDE1E7FFF76AFDD8E7FFF767FDCEE79F
:1014F000FFF764FDC5E7FFF761FDBCE7FFF75EFDA1
:10150000B4E7FFF75BFD74E7102A03200000032017
:1015100000040242FEF10008FECA77003C000320EE
:101520000040710024000320014B186804F08EBCB9
:10153000102A0320082824D8DFE800F0080C101433
:10154000171A1D2005001448FFF78CBE42F21070D8
:10155000FFF788BE44F62060FFF784BE4CF250309F
:10156000FFF780BE0D48FFF77DBE0D48FFF77ABE3E
:101570000C48FFF777BE0C48FFF774BE0B48FFF727
:1015800071BE0B4AA0F51C53103B934201D90120B8
:101590007047FFF767BE00BF40420F00A086010002
:1015A00048E8010090D0030020A1070000350C009E
:1015B000301B0F000346054A197800205161597805
:1015C000D16199781162DB7893617047C02703205D
:1015D0000246024B00209A61704700BFC0270320DB
:1015E000034600B5074A93F801E093F800C082F87B
:1015F00010E005499B7881F800C0537400205DF825
:1016000004FB00BFC0270320D80303202DE9F047C7
:101610000546C0680F4602F023FEAB68B3F1005FD9
:101620003CD00646824600F12409254C4FF0FF319C
:1016300020680BF095FB0128F8D1DFF89080D8F8EE
:1016400000000BF043FD484515D202251D4A1379D1
:101650002B431371002320681A4619460BF0DAF960
:101660000023194902220968086819460CF03EFD5A
:101670002846BDE8F08729464FF0FF332422D8F8EA
:1016800000000BF041FD054686B94D450CD00D4AD2
:101690000125137943F008031371DBE74FF0000ACB
:1016A0004FF024095646C0E70025D3E75246394695
:1016B0004FF0FF33D8F800000BF026FD0544E4E7B7
:1016C00070290320000003200C2A0320182903207E
:1016D00000232DE9F0430C4683B0C907054601936A
:1016E00016D4A20707D502212D4A137943F001032E
:1016F00013712B681965630735D4019B2BB14FF02B
:10170000E0234FF08052C3F8042D03B0BDE8F0830E
:10171000DFF89880224F42464021224B04F00EFC15
:101720007B69D8F80C0001337B6102F099FDDFF88A
:1017300080900646D9F800000BF0C8FC06F128039B
:10174000984223D341462822D9F8000001AB0BF080
:101750005FFD002EC5D03246D9F80000114901AB1B
:101760000BF056FDBDE704240D4B0F499A6909683B
:1017700001329A611A7942F008021A712B680868DE
:101780000DEB04011C650CF09BFDB6E7064ABB6936
:1017900012680133106801A9BB610CF091FDA0E74C
:1017A00000000320C8290320082A0320A0290320C1
:1017B0001C29032010B500240A4A0B491369096843
:1017C00082B00868013301A9136101940CF078FD1F
:1017D000019B2BB14FF0E0234FF08052C3F8042D52
:1017E00002B010BD000003200C2A032010B5002415
:1017F0000A4A0B49D369096882B00868013301A914
:10180000D36101940CF05CFD019B2BB14FF0E02300
:101810004FF08052C3F8042D02B010BD0000032029
:10182000082A032038B50C46104D294604F026FC42
:10183000A10303D5EB68A3B90D4A1360620309D570
:101840002B690B4A012B13790CBF43F0040303F0FF
:10185000FB031371230303D50122054B83F82020DA
:1018600038BD4FF00042024B1A60E7E774290320AD
:1018700000000320704700BF91B14FF0FF3210B459
:10188000084C014410F8013B5340DBB254F82330BC
:10189000884283EA1222F5D1D0435DF8044B7047A9
:1018A0000846704710F200080022014B1A6070478A
:1018B000182A0320704700BF024A136801331360DF
:1018C000704700BF182A0320024A136801331360CF
:1018D000704700BF142A032000200BF015BF00BF83
:1018E00000200BF011BF00BF00200BF00DBF00BFA8
:1018F00000200BF009BF00BF0022014B1A70704797
:1019000076000320002949D0772808B58C46034685
:101910002DD8572800F282801A2800F02C81A0F1DF
:1019200024031F2B39D81F2B37D8DFE813F00B0106
:1019300036003600360036003600360036003600F7
:101940003600360004013600360036003600360018
:101950003600360036003600FD0036003600360010
:10196000360036003600360036003600F600B0F598
:10197000EA7F12D2B0F5DC7F11D2B0F5A87F00F07B
:10198000008100F2ED80982800F09080A22804D118
:101990001046FFF705FC7E4BD87508BD7047A3F5D0
:1019A000DC731B2BF9D801A151F823F0B91A0008F8
:1019B0009B1900089B190008D51A00089B190008FC
:1019C0009B1900089B1900089B1900089B19000827
:1019D0009B1900089B1900089B1900089B19000817
:1019E0009B1900089B1900089B1900089B19000807
:1019F000C71A00089B1900089B1900089B190008CA
:101A00009B1900089B1900089B1900089B190008E6
:101A10009B1900089B190008E31A0008A0F158035D
:101A20001F2BBAD801A151F823F000BFF11A00080A
:101A30009B1900089B1900089B1900089B190008B6
:101A40009B1900089B1900089B1900089B190008A6
:101A50009B1900080D1B00089B1900089B19000822
:101A60009B1900089B1900089B1900089B19000886
:101A70009B1900089B1900089B1900089B19000876
:101A8000FF1A00089B1900089B1900089B19000801
:101A90009B1900089B1900089B1900089B19000856
:101AA0009B1900089B190008531B00081046FFF7FC
:101AB00075FB374B987508BD61461046FFF7A6FBCE
:101AC000334B988308BD61461046FFF783FB304BCC
:101AD000588208BD61461046FFF7C2FB2C4BD883E5
:101AE00008BD61461046FFF78FFB294B188208BDE1
:101AF00061461046FFF7FAFA254B588108BD61464A
:101B00001046FFF733FB224BD88108BD61461046D3
:101B1000FFF714FB1E4B188108BD61461046FFF706
:101B2000CDFA1B4B988208BD61461046FFF7AEFA0E
:101B3000174B988008BD61461046FFF78FFA144B8B
:101B4000D88008BD61461046FFF770FA104B188028
:101B500008BD61461046FFF70BFB0D4B187308BD1F
:101B600040F2A71083427FF418AF1046FFF71AFB2C
:101B7000074B588308BD1046FFF740FA044B5880C6
:101B800008BD1046FFF754FB014B188308BD00BF8A
:101B900054000320264B1B7893B92DE9F0410646EB
:101BA000244D82B005F10C0755F8044BE36E626ECC
:101BB000F31A934205D2AF42F6D102B0BDE8F081EC
:101BC0007047B4F9723004EBE300002B00F12400FD
:101BD00008DBB4F8683002225BBA01A9ADF8043022
:101BE00002F04AFBB4F9743004F12408002B4FEAE8
:101BF000E30111DB4046FFF73FFE04220190B4F9F8
:101C000074000DEB02010028B8BF0730C01024306B
:101C100004FA80F002F030FB074B41461B68204677
:101C20002361FFF7F3FCA36EE6660133A366C2E708
:101C30007600032010F600080000032038B50446A3
:101C4000084B094D1A60094B049A29601A6000F08C
:101C500049F8204601F0D2FA204602F025FB002088
:101C600038BD00BF202A0320242A03201C2A032079
:101C700038B5054601F0E2FA0446284602F020FB9A
:101C80002043C0B238BD00BF134B70B51B6804467B
:101C90000D46164601F008FB012809D00F4B3246CD
:101CA000294620461B6802F035FB012809D070BD8B
:101CB00000230B4A19461268106802220CF016FA2B
:101CC000ECE70023BDE87040054902220968086876
:101CD00019460CF00BBA00BF202A03201C2A03204F
:101CE000242A032000B583B0102001A900F0A2F837
:101CF00010B903B05DF804FB0021102000F082F859
:101D0000003818BF012003B05DF804FB00B583B0B4
:101D1000102001A900F08EF828B90146019830B9C9
:101D200003B05DF804FB012003B05DF804FB102054
:101D300000F068F8003818BF012003B05DF804FB1C
:101D400070B5002682B004460D46102001A9019608
:101D500000F070F810B9019BA34202D8012002B034
:101D600070BD04F11100294680B200F063F8801BB9
:101D700018BF012002B070BD002210B5114B82B017
:101D80001B78019213B9184602B010BD044601A990
:101D9000102000F04FF840B901981130FF2804D806
:101DA000214680B200F02EF818B10123184602B087
:101DB00010BD01991020013100F024F8031E18BF56
:101DC0000123E0E777000320014608B5102000F06A
:101DD00031F8003818BF012008BD00BF10B504F06D
:101DE000DFFA002009F0F4FC044618B904F0ECFA1C
:101DF000204610BD002009F0BDF804F0E5FA2046A9
:101E000010BD00BF38B504460D4604F0C9FA20469F
:101E1000294609F097FFC305044603D404F0D4FA19
:101E2000204638BD09F080F90443A4B204F0CCFA8E
:101E3000204638BD09F0D8BAF8B54FF480560024D2
:101E40000F46054683190470C0F80240047384608D
:101E50001C74C3F812409C61DC8100F500533246CB
:101E60002146C3E907445F620D300CF0A7FFA819B3
:101E700032462146BDE8F8401C300CF09FBF00BF41
:101E8000F0B5044683B0836031B3157894462B09CE
:101E9000032B21D8DFE803F0253A600205F00F0597
:101EA00000F50056012986F8215000F0AB809CF81F
:101EB0000130022986F8223000F0A7809CF8023019
:101EC00086F82330002D00F0AC80012D00F09F80BB
:101ED000032204F580531A74237B012B73D003B0C3
:101EE000F0BD03780BB1002303706B1E062BF3D8F3
:101EF00001398D42F0D82A460CF1010104F10D00A0
:101F000002F0BAF9022365802370E5E703780BB18C
:101F1000002303700729DFD99CF800309CF80120CA
:101F20001B0203F470631343072BA380D4DD062246
:101F30000CF1020104F10D0002F09EF901220021D2
:101F4000062004F5005622706080B17704F58051B8
:101F5000CA813023F27F3CE00378012BBCD100F52D
:101F60008057FA8905F00F0502F00F039D4246D114
:101F70004088A3881B1A9BB2072B5BD90829ABD1D9
:101F80000132FA814B1EDDB20D302A460CF10101FF
:101F9000204402F071F96388A2882B449BB29A42D4
:101FA00063804FD004F50056F27F002A94D0FB895D
:101FB000013B93FBF2F102FB1133002B8CD1B37F79
:101FC00043F0300305E004F50056B37FF27F43F0A1
:101FD0003003002196F8200021738DF802000320C1
:101FE000746A8DF800308DF8012002F03FF9034645
:101FF0006946706AE360FFF709FB03B0F0BD002398
:10200000037069E7002386F82230002358E704F5BF
:102010008052137C013B012B3FF65EAF0223137409
:102020005AE704F580531A7C022A7FF455AF012247
:102030001A7451E78B42BFF44FAF0132072BFA817C
:10204000A1D19FE70223237046E700BF2DE9F843A3
:1020500000F58056347C012C03D000242046BDE8D6
:10206000F88300F500581D4698F823300F46F12BF1
:1020700028BF0123B1698446691A9942EDD3718A58
:10208000B38A99B9072B50D81046314600F8013B66
:10209000B28A1C3102F0F0F80322B38A01333B709C
:1020A000B38A7382A8F81C4032743AE010465B1A77
:1020B0001FFA83F9B8F81C30B9F1070F03F00F03CA
:1020C00043F0200300F8013B718A01F5805101F1D2
:1020D0001C01614414D9072202F0CEF808233B709A
:1020E000738A0733738298F82220B8F81C30AAB19B
:1020F000B3FBF2F102FB113282B9022232740DE01D
:102100004A4602F0B9F8032309F101023A70337428
:10211000738A9944B8F81C30A6F812900133A8F8D5
:102120001C302046B561BDE8F883C3F3032343F0B8
:1021300010031370B38A00F580515370901C1C314A
:10214000062202F099F8082306223B7002237282CD
:10215000A8F81C403374E4E70378012B06D18268A9
:10216000034B891A9942C4BF0023037000207047B3
:10217000400D030030B500F5805514462A7C0B460F
:10218000013A012A93B006D8AA698A1A12498A42EA
:1021900084BF03222A7402AA0DF10701FFF756FF3C
:1021A00050B92B7C032B02D0002013B030BD00238C
:1021B00001202B7413B030BD9DF8070002F056F8D3
:1021C000E06002E0012002F063F8204602A9FFF778
:1021D0001DFA0028F6D1E4E7400D030000F5805C0D
:1021E000BCF81430B3F5805F0FD800B500224FF073
:1021F000010E00F50053ACF812209A838CF810E021
:102200001046CCF818105DF804FB0120704700BFA1
:102210002DE9F043144602780646013A1D4685B082
:10222000092A11D8DFE812F01C0010000A009A01F8
:10223000100010000A00100076010A00012900F0C9
:102240009A817F22122101E07F2211210323227033
:102250003278A17062702B80002005B0BDE8F08359
:102260000229EED14123237043786370A62BE8D86E
:1022700001A252F823F000BF5F27000841270008A1
:1022800043220008432200080B270008012700080A
:10229000432200084322000843220008432200088A
:1022A0004322000843220008EB260008DB26000832
:1022B000432200084322000843220008AB260008FE
:1022C000432200084322000843220008432200085A
:1022D000432200084322000843220008432200084A
:1022E000432200084322000843220008432200083A
:1022F0004322000815270008CF260008A126000861
:102300004322000843220008432200084322000819
:102310004322000843220008432200084322000809
:1023200043220008432200084322000843220008F9
:102330004322000843220008AB260008A12600081B
:1023400043220008432200084322000843220008D9
:1023500043220008432200084322000843220008C9
:1023600043220008432200084322000843220008B9
:1023700043220008432200088D2700088127000817
:102380007527000843220008432200084322000862
:102390006B2700084322000843220008432200085C
:1023A000432200084322000843220008A126000817
:1023B000A126000843220008432200084322000807
:1023C0004322000843220008432200084322000859
:1023D0004322000843220008432200084322000849
:1023E0004322000843220008432200084322000839
:1023F0004322000843220008B526000843220008B3
:102400004322000843220008432200084322000818
:102410004322000843220008432200084322000808
:1024200043220008432200084322000843220008F8
:1024300043220008432200084322000843220008E8
:1024400043220008432200084322000843220008D8
:1024500043220008432200084322000843220008C8
:1024600043220008432200084322000843220008B8
:102470004322000843220008B52600084322000832
:102480004322000843220008432200084322000898
:102490004322000843220008432200084322000888
:1024A0004322000843220008432200084322000878
:1024B0004322000843220008432200084322000868
:1024C0004322000843220008432200084322000858
:1024D0004322000843220008432200084322000848
:1024E0004322000843220008432200084322000838
:1024F0004322000843220008352700084322000831
:102500004322000843220008432200084322000817
:10251000C326000802297FF494AE49232370437830
:1025200063700A2B3FF68DAE01A252F823F000BF74
:10253000CF25000843220008FB250008432200089D
:10254000DD250008432200089126000843220008E8
:1025500043220008432200086726000801297FF46F
:1025600070AE0191FFF7D2FB019968BB337840331D
:102570002370298070E602A8FFF726FC20BB029B8F
:102580005A1C52002A80327863704032DBB22270CB
:10259000002B3FF461AE074604F1020904F1030881
:1025A0000CE0039B1A0E09F817201B0C9DF808205D
:1025B00008F817300137BA427FF64EAE384603A905
:1025C000FFF7BEFB0028ECD07F2210213EE644F24C
:1025D00054020623C4F802202B803DE60123132772
:1025E0006E4EA3700FCEC4F80300C4F80710C4F8F1
:1025F0000B20C4F80F302F802EE614230120E61C98
:102600003146A0702B80FFF715FCE11D0546022026
:10261000FFF710FC034604F10B0103201D43FFF7F5
:1026200009FC034604F10F010420ADB21D43FFF77E
:1026300001FC0346ADB2052004F113011D43FFF771
:10264000F9FBADB245EA00039BB2002B3FF404AEA8
:102650000023C4F80330C4F80730C4F80B30C4F8C2
:102660000F30E374F8E501231727E61C142200213C
:102670003046A37001F0FCFD494B07CB1B78C4F832
:102680000300C4F80710C4F80B20E3732F80E3E5C0
:10269000782207234349A271C4F802102B80DBE59E
:1026A000042200232A806380D6E5032200232A80A7
:1026B000A370D1E506224FF080732A80C4F802305F
:1026C000CAE50622384B2A80C4F80230C4E5062247
:1026D000364B2A80C4F80230BEE50322344B2A80F0
:1026E0009B8AC3F30723A370B6E50423304A2B80EB
:1026F0009388C3F34A13A3709388DB00E370ABE5C0
:10270000032274232A80A370A6E503224C232A8087
:10271000A370A1E504232B800BF0B8F8254DA5FB91
:1027200000239B0BA3700BF0B1F8A5FB00539B0992
:10273000E37091E5062204232A80C4F802308BE579
:1027400003A8FFF741FB38BB039A02F07F02002386
:1027500006212980A270E370237163717CE5062253
:10276000154B2A80C4F8023076E5032251232A80D3
:10277000A37071E504224BF635732A8063806BE504
:10278000062200232A80C4F8023065E506220B4B9E
:102790002A80C4F802305FE50022D8E740F0000844
:1027A00050F000080112345612345678800180012E
:1027B00054000320D34D621098188003A40C00012C
:1027C000814204D900F17840B0F5802F01D3002078
:1027D000704701F178410139B1F5802F2CBF0020FD
:1027E00001207047814208D9B0F1005F05D3044849
:1027F00081428CBF0020012070470020704700BF3D
:1028000000000420814211D9B0F1005F10D21A4BB0
:1028100098422AD8194B984205D9194881428CBF51
:10282000002001207047B0F1006F0FD200207047E8
:10283000144B994201D801207047134B9842F5D9A7
:10284000124881428CBF002001207047104B9942F2
:10285000ECD8104BB3F8E030B3F5007FEBD00E4866
:1028600081428CBF0020012070470C4881428CBF00
:1028700000200120704700BFFFFFF90BFFFFF80B9E
:102880000080F90B000004203F200240402102405C
:10289000000008080005FA0B000004080002FA0B0B
:1028A00000B58BB001A803F073FF0598AA3818BFD4
:1028B00001200BB05DF804FB00B58BB072B601A827
:1028C00003F066FF04214FF40052079B019143F08F
:1028D0008063CDE9062303F063FD20B162B60120D9
:1028E0000BB05DF804FB03F07BFD0028F6D101A8D6
:1028F00003F02CFE10B903F095FDEFE703F084FD23
:1029000003F062FDEAE700BF10B58AB003F048FDAE
:10291000044603F065FD044301A803F039FF0421D8
:102920004FF48072079BE4B283F4801303F48013A6
:10293000CDE90623019134B103F066FD03F044FDB7
:1029400001200AB010BD01A803F000FE0028F3D159
:1029500003F068FD044603F057FD044303F034FD23
:10296000E4B22043C0B2003818BF01200AB010BD45
:1029700030B58BB003F014FD044601A803F008FF46
:10298000002380220798022110F4801FCDE9033232
:1029900000930CBF02230123019101A86946029311
:1029A00003F08CFF054603F00FFD28432043C0B21F
:1029B000003818BF01200BB030BD00BF70B503F068
:1029C000EFFC05460F4C104ED4E90023B3F1FF3F56
:1029D00008BFB2F1FF3F04F5802107D0012003F0CA
:1029E00059FD002818BF45F00105EDB20834B44286
:1029F000EAD103F0E9FC2843C0B2003818BF012037
:102A000070BD00BF00E0030800000408002330B5DB
:102A10008FB0009303F0C4FC0223044605A8019381
:102A200003F0B6FE0B9B042213F4801F4FF07C00D2
:102A300014BF02230123694603900DEB02000492A8
:102A4000029303F03BFF054603F0BEFC054344EA56
:102A50000500C0B2003818BF01200FB030BD00BF64
:102A6000014608B5012003F015FD003818BF01200C
:102A700008BD00BF0022014B1A607047282A0320BE
:102A80001D4B10B45988B3F800C0B1F5E06F34BFE6
:102A900000210121194C9B88194A34F81CC0B3F558
:102AA000306FA2F800C0917013D2B3F5E06F1ED260
:102AB000B3F5407F1DD2B3F5807F8CBF0023012387
:102AC000D1789B00994208D10E4B18605DF8044BF9
:102AD00070470123D1789942F6D00A4C2168411AF7
:102AE000FA29F3D9D37020605DF8044B70470223B4
:102AF000F0E70323EEE700BF2C2A03201CF60008B2
:102B000078000320282A03200022014B1A70704706
:102B1000322A0320124B134A1B781088917873B124
:102B20006FF4FC63C3183E2B11D94FF47F4C0E4B4E
:102B30001881A3F818C021B9598A89B201E00A4B5B
:102B400018811982D278012A18BF1A837047064B60
:102B5000588980B21881588A80B21882EBE700BF8A
:102B6000322A03207800032054000320014B186010
:102B7000704700BF342A0320704700BF00B5054BE3
:102B800083B0186801A906F07DFE019803B05DF8D6
:102B900004FB00BF342A03200D4B02781B6840322F
:102BA00001291A7010D900B5A1F1020E10FA8EFE9B
:102BB000024610F801CF724503F801CFF8D1054B5A
:102BC0001B6819805DF804FB024B1B681980704775
:102BD0005C2A0320582A032070B50129044682B0DC
:102BE0000BD9457805F07F05012D14D0022D02D0B8
:102BF0007F20122503E006292CD07F2013250321F6
:102C0000344B354A1B681268187020789D705870D4
:102C1000118002B070BD40F26713ADF80030FFF7CD
:102C2000ADFF2E4A2E4B4240C3E903021D7794F9B3
:102C3000013000BA002BCDF80200EADB0621254B5B
:102C4000254A1B680098BDF80440126818609C80F3
:102C50001180DEE7224BD0F802009A69042A02D9DB
:102C60007F203625CBE75E685969711A092902D899
:102C70007F203725C3E7197F012902D07F20242533
:102C8000BDE7196900BA814215D04FF0000E4FF030
:102C90007F0C3525032001329A610E4A0E491268D5
:102CA0005E6183F81CE082F800C0237809685370E5
:102CB00095700880ADE71D7794F90130002BA8DBF3
:102CC00040F26721034A044B12681B6811801D8083
:102CD0009FE700BF5C2A0320582A0320785634124D
:102CE000382A0320022910B510D04FF07F0E4FF084
:102CF000130C03210F4B104A1B68126883F800E085
:102D0000007883F802C05870118010BD437833B149
:102D1000802BFAD04FF07F0E4FF0120CE9E7054AF6
:102D20000378126840331370034C40782368507066
:102D3000198010BD5C2A0320582A0320022930B5CF
:102D400010D04FF07F0E4FF0130C0321424B434A3B
:102D50001B68126883F800E0007883F802C058709E
:102D6000118030BD437803F07F03022B2FD0032B5B
:102D70001BD0012B3ED10022394C3A4D23703A4BE7
:102D80002A705A73C4E90322C4E90522227790F914
:102D900001304278002BE4DB50242F4B2F481B6876
:102DA00000685A701C70018030BD304A928A92B21D
:102DB000B2F5805F47D37F258824274A27491268C8
:102DC000096815700078947050700B8030BD274AE8
:102DD000928A92B2B2F5805F1BD37F252224032111
:102DE0001D4B1E4A1B6812681D7000789C7058703D
:102DF000118030BD4FF07F0C12240321164B174A6F
:102E00001B68126883F800C000789C7058701180AD
:102E100030BD00221249144CC1E90322C1E9052248
:102E2000104D62730A772A7090F901200B70002A06
:102E3000417896DB5024084A0848126800685170AF
:102E40001470038030BD0022054C074D2370054BE4
:102E50006A731A7096E700BF5C2A0320582A032081
:102E6000382A0320602A0320642A03205400032008
:102E7000204B214A022910B51B6812680CD04FF074
:102E80007F0E4FF0130C032183F800E0007883F8E5
:102E900002C05870118010BD184C94F800C0BCF1ED
:102EA000010F11D090F801C00CF07F0CBCF1010FA4
:102EB00012D04FF07F0C1224032183F800C0007859
:102EC0009C705870118010BD7F2103241970007808
:102ED00099705870148010BD047840341C70447888
:102EE0005C70118090F90130002BD4DABDE81040FD
:102EF00002F0A2BB5C2A0320582A0320382A0320B0
:102F0000022910B510D04FF07F0E4FF0130C0321A3
:102F1000184B194A1B68126883F800E0007883F8A0
:102F200002C05870118010BD427802F07F03012B5F
:102F300013D0022B04D04FF07F0E4FF0120CE6E7B7
:102F40001206F0D40B490278096840320A700A4C24
:102F5000407822684870138010BD1406E3D4054AF7
:102F60000378126840331370034C40782368507024
:102F7000198010BD5C2A0320582A0320012970B54E
:102F80001FD9427802F07F03012B10D0032B1CD0F5
:102F90004FF07F0C12240321394B3A4A1B68126808
:102FA00083F800C000789C705870118070BD0229B1
:102FB0002AD08378103B032B51D8DFE803F04C4A2A
:102FC000444E4FF07F0C1324E5E72F4C217869B174
:102FD000120626D402212A4A03781268403313705D
:102FE000284C407823685070198070BD4FF07F0CDA
:102FF0002224234A23491268096882F800C0007815
:10300000947050700B8070BD7F25132403211C4BDE
:103010001C4A1B6812681D7000789C7058701180E3
:1030200070BD0123194D2E782B70FEF77DFA4FF4F9
:103030007A7009F08BFBF6B22078FEF77BFAFEF788
:10304000AFF92E7070BD36230F490B701306C1D532
:1030500070BD3523F8E73423F6E73823F4E77F2201
:10306000002631240321064B074D1B682E701A7071
:10307000044A0078126858709C70118070BD00BFBF
:103080005C2A0320582A0320602A032076000320AC
:1030900030B54378044685B013B98378442B0FD0FC
:1030A0007F204FF0310C0321354B364A1B681268E4
:1030B0001870207883F802C05870118005B030BDB8
:1030C0000B2903D07F204FF0130CECE72E4B19781F
:1030D000022903D04FF07F0C7F20E4E71B7F022BF7
:1030E00011D12A4D6B7B13F0FB030FD07F202425D9
:1030F0000321234B234A1B681268187020789D70A7
:1031000058701180DAE74FF0330CE5E7D0F8030090
:10311000AB6001232B73D4F8073000BA1BBA19181F
:10312000019228606B60FFF74BFB28B3154B1449E5
:1031300018686B68096813F0070F019A0BD07F239A
:103140004FF0700C0B70032394F800E081F802C07C
:1031500081F801E003802378202440338DF80C307F
:103160004FF20F036A7304228DF80D40ADF80E3054
:10317000039B0B600280A1E77F203125B8E700BFE9
:103180005C2A0320582A0320382A0320642A0320BB
:10319000042910B504460ED07F204FF0130C0321F4
:1031A000144B154A1B6812681870207883F802C007
:1031B0005870118010BD4378FF2B03D07F204FF053
:1031C000310CECE78378FF2BF8D1C378FF2BF5D1D6
:1031D000FEF79CFD18B17F204FF0720CDFE7012154
:1031E00004482378044A0068126840330370118051
:1031F00010BD00BF5C2A0320582A032038B50024E4
:103200000122094B09490A4D4C73586009490A4883
:10321000C3E90344C3E905442C701A701C77FEF718
:103220000BFE204638BD00BF382A0320642A032045
:10323000602A03207C000320549F0120114B01468B
:103240001A78032A02D01048FEF786BF41F2883070
:103250005A688A1A8242F6D900224FF0010C10B443
:103260000A480B4C4273227083F800C01A77064854
:103270005DF8044BC3E90322C3E905225960FEF758
:103280006BBF00BF382A0320549F0120642A03200B
:10329000602A03200146024A0248FEF76BBF00BFC6
:1032A000A0000320549F012040F2E17C2DE9F04171
:1032B00000260446006882B060450F4698468DF8A7
:1032C0000560ADF8066007D040F2DF7398423BD04E
:1032D000002002B0BDE8F081E068154600F0C0FFB4
:1032E0003A4C01462B4620463A46FEF7C9FD257862
:1032F000022DEDD14FF0FF3301220DF10501D8F879
:1033000000008DF8056009F0FFFE2A464FF0FF33FC
:103310000546A11CD8F8000009F0F6FE02464FF061
:10332000FF331544D8F80000628804F10D0109F05C
:10333000EBFE638805440333AB4201D0FDF73EFE4C
:10334000002323700120C4E7E06800F089FF002813
:10335000BED03D78002DBBD005F0080353EA15130D
:10336000B6D1E06800F07CFF431E9D42B0D8012238
:1033700017F8014B4FF0FF330DF1050104F00F0476
:10338000D8F800008DF80520ADF8064009F0BCFE25
:103390004FF0FF33022204460DF10601D8F8000079
:1033A00009F0B2FE02464FF0FF3314443946D8F814
:1033B0000000BDF8062009F0A7FEBDF80630044461
:1033C0000333A342BED0FDF7F9FDBBE7549F0120B4
:1033D0002DE9F04F00241D468FB0189B9B4F1C8099
:1033E0009B4E0C469B499146336048603D60002AE5
:1033F00000F0828022780F2A40F28D80103A772ADE
:1034000000F28680DFE812F09200990084008400C8
:10341000A0008400840084008400A700840084004D
:10342000840084008400840084008400CD00D300E4
:1034300084008400840008018400840084008400E7
:10344000840084000F018400840033018400840020
:103450007A01D601DC012801840084008400840004
:10346000840094018D018400840084008400840021
:10347000840084008400840084008400840084002C
:10348000840084008400840084008400840084001C
:10349000840084008400840084008400840084000C
:1034A00084008400840084008400840084008400FC
:1034B00084008400840084008400840084008400EC
:1034C00084008400840084008400840084008400DC
:1034D00084008400840084008400840084008400CC
:1034E00084008400840084008400840084008400BC
:1034F0008F00F101840001017F212270132003223B
:1035000029702178A87069701A800FB0BDE8F08F1B
:103510007F211120F3E72A46494620460FB0BDE837
:10352000F04FFEF775BE7F211220E8E7494620469E
:103530000FB0BDE8F04FFFF701BC494620460FB081
:10354000BDE8F04FFFF794BC494620460FB0BDE8F8
:10355000F04FFFF71DBEB9F1020F26D959222A708C
:1035600004226178AA706970627802F07F02012AF1
:1035700000F03683022A00F061837F2212212A7034
:1035800003222078A97068701A8094F90130002B0A
:10359000BBDA3B681B787F2BB7D0002233681A80D8
:1035A000B3E7B9F1030F00F067827F21A6E7B9F115
:1035B000010FFAD0627802F00F000428B3D102F0B4
:1035C000F0004028AFD80978012937D01209911DA1
:1035D0008945EAD1D4F802C0002A00F0CD844FF02A
:1035E0000008013AD200601D10F8011F9140083A0E
:1035F00012F1080F48EA0108F6D140F6FE72904534
:1036000040F2BB847F21312079E7494620460FB044
:10361000BDE8F04FFFF7B2BC494620460FB0BDE809
:10362000F04FFFF7D9BAB9F1020FBED991F8008077
:10363000B4F80120B8F1020F00F0DA827F220321F2
:103640002A702078AA70687019805EE75C2A0320CF
:10365000582A0320382A0320B9F1010FA5D1B04A16
:10366000517B032900F036837F21242047E7B9F1FD
:10367000030F9AD994F9010062780028BCBF02F0C8
:103680007F0262706288B8BF4FF0010852BA92B2EE
:10369000A8BF4FF00008B2F5097F80F22483B2F58D
:1036A000007FC0F2A980A2F50072232A00F2A48054
:1036B000DFE812F0ED00DD004C013C0133011401A4
:1036C000C5017B01A1015D01A200A200A200A20030
:1036D000A200A20089016A01A200A200A200A20029
:1036E000A200A200A200A200A200A200A200A200CA
:1036F000A200A2000D010601C400B700894AB2F879
:10370000E020B2F5007F7FF403AFB9F1020F7FF63E
:103710004CAF0122494620460FB0BDE8F04FFFF7FD
:10372000B7BC494620460FB0BDE8F04FFFF7DABA04
:10373000B9F1010F3FF439AF627802F00F000428AD
:103740007FF4F1AE02F0F00040283FF6ECAE120933
:10375000501D4845BFF629AF002A00F0FF834FF007
:10376000000802F1FF3C4FEACC0C04F1050E1EF8F4
:10377000010F00FA0CF0ACF1080C48EA00001CF153
:10378000080F1FFA80F8F2D102F1060A0AEB0802CC
:1037900091457FF40AAF0878D4F80220022800F09F
:1037A00010847F227F20032128702078AA706870FF
:1037B0001980AAE6B9F1020F7FF6F7AE0222A9E757
:1037C000B9F1010F3FF4F1AEDFF8548198F80D2004
:1037D000012A00F0EC81022A7FF446AFB9F1020F12
:1037E00000F0A3827F21712089E6494620460FB070
:1037F000BDE8F04FFFF784BB7F222A7022786A7001
:103800003122AA7003221A803368B8F1000F3FF406
:103810007CAE3A6812787F2A3FF477AE00221A8095
:1038200073E6B9F1040F00F0EF837F222A7022784B
:103830006A701322AA7003221A80E5E7B9F1070F14
:10384000F3D1201DFDF7CCFEFDF7AAFD0A2008F0FC
:103850007DFF042122783B6840321A7062785A70EA
:10386000A2789A70E278DA7033681980CCE7FFF7B3
:10387000CDF8002800F074837F22722003213B687A
:103880001A7022785A70326898701180BCE7B9F1CA
:10389000040FCAD16278012A00F01584022A40F090
:1038A000A1800021204A1170227840322A7062786B
:1038B0006A70A278AA70E278EA7004221A80A3E7FC
:1038C000B9F1050FB1D12079FDF782FEBCE7B9F15E
:1038D000070FAAD1201DFDF76DFEB5E7B9F1060F60
:1038E000A3D140F6FB71A28852BA92B28A4283D821
:1038F00071212846297061786970A178A970E178F2
:10390000141F00F8031F002102E000F8011F01311D
:103910008C42FADC04321A8076E77122C6E700BFD7
:10392000642A03200005FA0B760003207122611C33
:103930002A70A9F1020211FA82F214F8011FA242C0
:1039400005F8011FF9D1A3F800905DE7FFF736F8FD
:10395000002891D101232278396840320A70E25C54
:10396000CA5401339AB29145F9D83368EBE70A7F1C
:10397000022A00F01F837F222A7022786A70332285
:10398000AA7003221A803FE7B9F1040F7FF44DAF0C
:103990000A78022A00F053837F227F212970217840
:1039A000AA70032269701A802EE7B9F1040F7FF420
:1039B0003CAF6278012A00F07A83022A12D10021FA
:1039C000B74A117070E7B9F1040F7FF42EAF0A788F
:1039D000022AE1D10A7F022A40F064836278012A38
:1039E00000F04C837F222A7022786A701222AA701B
:1039F00003221A8008E7B9F1080F7FF416AF627846
:103A0000012AEFD1E279042A7FF4F6AEA079237976
:103A1000000240EA0360637940EA034040F004009A
:103A2000FEF7AAF900287FF427AF04212046FFF70C
:103A3000B3F833681A88002A3FF467ADE5E6B9F1B8
:103A40000B0F7FF6F2AE6568D4F808902DBA99FA9C
:103A500089F9284609EB0501FEF7D4FE002840F05D
:103A600036837F22312003213B681A7022785A70F6
:103A7000326898701180C7E600236D46B4F80100E3
:103A8000009340BA80B2A0F5007CBCF5007FC5E988
:103A90000133C5E9033394F801E0A278C0F00A814C
:103AA000A0F5714084380C2808D8DFE800F07007D2
:103AB000665E070707075607070712007F203125B4
:103AC0003B6832680321187020789D70587011800F
:103AD0001BE529460120FEF7ADF901A98046022029
:103AE000FEF7A8F902A948EA00080320FEF7A2F9A8
:103AF0001FFA88F848EA000803A90420FEF79AF99B
:103B00001FFA88F848EA000804A90520FEF792F990
:103B10001FFA88F848EA0008294611221FFA88F59A
:103B20000DF1170000F0A8FB002DC7D11425237854
:103B3000A27840338DF8143063788DF815303B68E7
:103B40008DF81620E81805AA12F8011B03F8011BCE
:103B50008342F9D133681D80D7E40C2251490DF11D
:103B6000170000F089FB0F25E1E704224E490DF113
:103B7000170000F081FB0725D9E70B7804258DF8A5
:103B8000173062238DF815E08DF81430D7E70C223A
:103B900046490DF1170000F06FFB2023092244492C
:103BA00009A88DF82330192500F066FBBFE7A9F1BD
:103BB00002091FFA89FA19F007097FF413AED8F841
:103BC0000820D8F8041052448A423FF60BAE98F809
:103BD0000C1062788A4200F06A817F2173208EE4A3
:103BE000B9F1030F00F0F4807F2213212A70C7E49B
:103BF0004FF2841150BA80B220F0080C8C453FF48B
:103C000001AD49F2F1018A4200F00881B9F1070FD4
:103C10007FF4CBACD4F8031009BAFEF7F3F80346EF
:103C20003A683168002B00F032817F20722503232F
:103C300010702078957050700B8066E4B9F1030F16
:103C4000D2D1002305A8EB70FEF7BEF8804600280D
:103C500060D1059B002B00F07B8182466D4614E00D
:103C60009DF803203B6803F80920BDF8022003F803
:103C70002A20009A4B44120A9A70009ADA70059B27
:103C800009F10409534540F2F38050462946FEF7F6
:103C900057F80AF1010A0028E2D04FF00108EEE7D8
:103CA000322A03209005FA0B78F0000860F0000833
:103CB0006CF000082946FEF7BDF8002868D07F2187
:103CC00031203B6832681970217898705970A2F8D9
:103CD00000901AE404234946204653730FB0BDE810
:103CE000F04FFEF759BFB2F57F4F00F082804FF6DC
:103CF000017082427FF480ADB9F1040F7FF495AD7D
:103D00006278012A7FF46EAE0A78022A00F0FA8106
:103D10007E2242E67F223B681A70722221789A70D6
:103D200059703368A3F800902FE498F80C1062786B
:103D30008A427FF452AF013288F80C202278403258
:103D40002A706178002205F8011FD8F808100EE0EB
:103D5000D8F800000132415CB2F57F6F05F8011F11
:103D6000D8F8081001F10101C8F8081004D0D8F8FB
:103D700004008842ECD892B2D8E90110023288429D
:103D80001A80FFF4C2AB032388F80D30FFF7BDBBE8
:103D90002378627840338DF81430A37829468DF863
:103DA00015200DF1170004228DF8163000F064FA8A
:103DB0003A680DF11301531E063211F8010F03F892
:103DC000010F9A42F9D1072233681A80FFF79DBB91
:103DD000002305A8EB70FDF7F7FF00289AD1059B9B
:103DE0003A6853711B0A1371062233681A80FFF771
:103DF000CCBBB9F1040F7FF418AD6278012A7FF4CF
:103E0000F1AD0A78022A83D10A7F022A40F04A8162
:103E1000FEF7AEFD00287FF42FAD06E6B9F1140FD2
:103E20007FF4C3ABD4F803100120FDF7EBFFD4F807
:103E3000071005464046FDF7E5FF0346D4F80B1092
:103E400003201D43FDF7DEFF0346D4F80F100420C6
:103E5000ADB21D43FDF7D6FF0346E17C0520ADB2B0
:103E60001D43FDF7CFFFADB245EA00039BB2D7E695
:103E70003268B8F1000F6BD07F213B687220197057
:103E80000321257898705D701180FFF77EBB237841
:103E9000607840338DF8143003238DF81500BDF899
:103EA0001450A078158090700B80FFF72EBB013264
:103EB00088F80C2002F074FABAF1000F00F0FB80D1
:103EC0004D46A146AB4699F8043099F805201B04ED
:103ED00003EB026399F8032099F8081003EB02231F
:103EE00099F80920090401EB026199F80220D8F839
:103EF000080013441BEB030299F8073009F1080985
:103F000001EB0323D8F80010084419F8021C00F54F
:103F100080200B44FEF7A4FD40EA0503DDB2D8F88B
:103F200008300833C8F80830A9EB04035345CAD356
:103F300002F04AFAD8E901329A4202D3032388F800
:103F40000D303B683268002D6ED07F207225B9E5B8
:103F500032689B0003331380FFF717BB904613E4CE
:103F600001232278396840320A70E25CCA54013376
:103F70009AB29145F9D8F8E490469CFA8CF5284617
:103F800008EB0501FEF73EFC00283FF497AD2378CF
:103F90003A6840331370AD1A02EB080302E0A95CE3
:103FA00002F8011F9A42FAD1326808F10103138026
:103FB000FFF7ABBABFF34F8FBFF36F8F631D984707
:103FC00047E4097F022956D115BA284605EB0801B6
:103FD000FEF708FC00283FF471ADB8F1020F46D09F
:103FE000B8F1040F3FD0B8F1080F35D06FF00603D9
:103FF000E21D1B1B02E012F8011F297099184145B0
:10400000F9D35146204669E6FDF7CAF90A2008F0BF
:104010009DFB22783B6840321A7062785A70A27811
:104020009A70E278DA70A0E4022023783A68647823
:1040300031684033137054700880FFF766BA0A7F06
:10404000022A2FD16278012A7FF4CCACFEF75CFC07
:1040500000287FF411ACE8E4A168E0680BBA02BA6A
:10406000C5E90023CDE7A3681BBA2B60C9E7238904
:104070005BBA2B80C5E73322FFF794BBFEF710FC39
:1040800090B9FEF719FC326800283FF4CEAC7F20CF
:10409000722503213B68187020789D70587011803C
:1040A000FFF7B2BB332278E40AF07AFFEBE71E4950
:1040B0000A70FFF7F9BB02F087F9D8E901329A429A
:1040C000B2D355463AE719490A70FFF7EDBB4946A6
:1040D0002846FDF7D1FB082503462278396840328F
:1040E0000A7062784A70A2788A70E278C871CA70E1
:1040F000000E32680871180CEB4048718B71158006
:10410000FFF782BB0A7F022ACCD1094A527B042ADC
:104110009CD07F222A7022786A702222AA70032201
:104120001A80FFF771BB00BF322A032076000320FC
:10413000642A032070B400242D4D039E2B602D4D66
:1041400034802E602C4D8C461C4611466860B2B1FE
:104150009CF800200F2A1FD9272A23D8103A172AA3
:104160002AD8DFE802F038342929302929292929D9
:10417000292929292929292929292929292C8CF87A
:1041800000107F221321032322709CF80020A170CD
:104190006270338070BC70473346224670BC604604
:1041A000FEF736B8852A1ED0872A18D03E2A03D1BA
:1041B00070BC6046FEF796BD7F221121E3E76046A2
:1041C00070BCFEF709BD604670BCFEF7E1BF6046FB
:1041D00070BCFEF74DBE604670BCFEF7AFBD6046DA
:1041E00070BCFEF7CBBE604670BCFEF789BE00BF58
:1041F0005C2A0320582A0320382A032038B5049A61
:1042000012884AB11978512907D0C72904D1012A47
:1042100002D05B78032B08D038BD4FF4FA7008F059
:1042200095FABDE8384001F007BA4FF4FA7008F08B
:104230008DFA0123084C25782370FDF775F94FF4AA
:104240007A7008F083FA054BEDB21878FDF772F931
:10425000FDF7A6F8257038BD76000320602A0320FC
:10426000014BC0B2185C70471C160108704700BFB4
:104270000AB10AF0A3BD70474AB1013A4B1E01389A
:10428000114413F8012F8B4200F8012FF9D1704728
:104290004FF47A7202FB00F0024BA3FB003080095E
:1042A00008F054BAD34D621000220146034B104669
:1042B000C3E903221A7059601A8170477C2A0320CF
:1042C000084B1A785AB14EF660215A68821A8A420F
:1042D00005D90022C3E9032258601A701A81002010
:1042E000704700BF7C2A032038B5D0B20C46FFF7D8
:1042F000BDFF074DE86002E00A2008F027FA2146DA
:104300002846FDF783F90028F6D1012038BD00BF0B
:104310002C02032040F2525230B51C46036883B091
:10432000934202D0002003B030BDC0680D46FFF7B5
:1043300097FFADF806000028F4D04FF0FF330222BB
:1043400020680DF1060108F0DFFE84464FF0FF33D0
:1043500020682946BDF80620644608F0D5FEBDF861
:10436000063004440233A34201D10120DBE7FCF70D
:1043700025FEFAE72DE9F041069EDFF85481504F03
:10438000504D3E606860C8F8003042B10C46FF21D5
:1043900019702178FF290ED02878012801D0BDE8B6
:1043A000F081F53909291BD8DFE801F0203C1A1A01
:1043B0001A2B1A5A4452012A01D06278DAB9002223
:1043C00001214FF4807408203F4FC5E903222A8160
:1043D0002970C3F80170A3F80540D9713080DEE779
:1043E00042F2FE01022219803280D8E7012A1BD056
:1043F000617807293FD942F2FE21022219803280DA
:10440000CDE7012A10D06278002AF4D14FF0806005
:104410000821A3F80520DA712C4AC3F80100318085
:104420002A61BCE7082A20D042F2FE11022219803C
:104430003280B4E7002159702A7A0620013A18BF69
:1044400001221201D970197159719A703080A6E752
:1044500000230122C5E903332B702B8132809EE7B4
:10446000FE2102221980328099E7012263681BBA7B
:104470002B61328093E728690144FEF7C3F90128D4
:1044800008D042F2FE200222D8F800103B680880D3
:104490001A8084E7FF23D8F800000370617859B1CF
:1044A00000232A6912780133DBB2C2542A6901322F
:1044B0002A6161789942F5D83B68013119806EE72D
:1044C000742A03207C2A0320000008082C16010807
:1044D000782A032010B50F4B82B0186E002240F0EE
:1044E000010018661C6E072104F001040094009C72
:1044F0009C6D6FF0010044F080549C659B6D03F04F
:1045000080530193019B01F03BF802B0BDE81040DD
:1045100003F04CBF0010024070B500210446ACB05F
:10452000942207A8CDE90211CDE9041106910AF001
:1045300045FC324B22689A4201D02CB070BD032357
:104540004FF480424FF08051CDE9072309931822A0
:1045500011232791CDE90A23022108224FF080730D
:1045600007A8CDE90D230C9104F0FCFD00283BD1F8
:10457000234B0026DA6C02A942F40052DA64DA6CAA
:10458000204D02F400520092009ADA6C42F00102CF
:10459000DA64DB6C322203F00103019303230198F8
:1045A0001948CDE90223049602F0DEF980224FF487
:1045B00080730521C5E903626B614FF4806220239B
:1045C000C5E9011611492846C5E906232E6229606E
:1045D00001F0E6F870B910210A4801F093FA30B9F9
:1045E0002565AC622CB070BDFCF7E8FCC0E7FCF7B9
:1045F000E5FCF5E7FCF7E2FCEDE700BF00800242D6
:104600000010024048280320000002420804024033
:10461000094B02689A4200D07047A3F500539A6C88
:1046200082B042F480529A649B6C03F480530193ED
:10463000019B02B0704700BF003002400000000044
:1046400010B500210446ACB0942207A8CDE90211B0
:10465000CDE9041106910AF0B1FB274B22689A427A
:1046600001D02CB010BD4FF000724FF0807307A83E
:104670000792219304F076FD002832D19FED1A6B4A
:104680009FED1B7B09241D4B02A9DA6D1C4842F4E7
:104690000072DA65DA6D02F400720092009ADA6C48
:1046A00042F00202DA64DB6C8DED026B03F0020370
:1046B00001938DED047B019B069402F055F90022D5
:1046C0000521272000F05CFF272000F095FF002245
:1046D0000521282000F054FF282000F08DFF2CB089
:1046E00010BDFCF76BFCC9E70003000002000000EE
:1046F000000000000000000000A400400010024084
:104700000004024208B502680A4B9A4200D008BD74
:10471000094A4FF44071D36D084823F40073D36500
:1047200002F032FA272000F075FFBDE8084028208B
:1047300000F070BF00A400400010024000040242DC
:1047400010B50446A6B09422002101A80AF036FB59
:10475000114B22689A4201D026B010BD4FF480233D
:1047600001A8019304F0FEFC98B90C4B0022D86C10
:10477000052140F48020D864DB6C5E2003F48023A4
:104780000093009B00F0FCFE5E2000F035FF26B099
:1047900010BDFCF713FCE8E700080C4200100240D3
:1047A00000B5036887B0B3F1804F0ED0304A934212
:1047B0003BD0304A934216D02F4A934228D02F4AFA
:1047C000934247D007B05DF804FB03F504339A6DBC
:1047D00042F001029A659B6D03F001030193019B76
:1047E00007B05DF804FB264B0022986D052140F0D0
:1047F000200098659B6D322003F020030393039BF8
:1048000000F0BEFE322007B05DF804EB00F0F4BE0D
:104810001B4B1A6E42F400321A661B6E03F400330F
:104820000493049B07B05DF804FB154B0022986DC0
:10483000052140F0100098659B6D312003F01003B6
:104840000293029B00F09CFE312007B05DF804EB60
:1048500000F0D2BE0A4B1A6E42F480221A661B6E1A
:1048600003F480230593059B07B05DF804FB00BFAC
:104870000010004000140040004401400048014086
:10488000001002400000000010B500210446ACB04A
:10489000942207A8CDE90211CDE9041106910AF08E
:1048A0008DFA214B22689A4201D02CB010BD4FF4F2
:1048B000005307A8079304F055FC50BB9FED166BFF
:1048C0009FED177B0A22194C02A9E36C184843F0AC
:1048D0000103E364E36C8DED026B03F001030093CD
:1048E0008DED047B009B069202F03EF8E36D002202
:1048F00043F40013E365E36D052103F40013019312
:104900004920019B00F03CFE492000F075FE2CB0D0
:1049100010BDFCF753FBD1E70018000002000000B7
:10492000000000000000000000D400400010024021
:104930000000024210B5014688B000222A2000F093
:104940001FFE2A2000F058FE154B01A91A6E03A87D
:1049500042F400621A661B6E124C03F40063029369
:10496000029B04F0F7FA04F0DDFA0346002140F25E
:10497000E7300D4A2161A2FB0323A1609B0C0B4988
:10498000E060013B20462160636005F0C5FA10B18C
:10499000012008B010BD204605F0AAF808B010BDEF
:1049A00000100240902A032083DE1B43002C0140AC
:1049B000FEE700BFFEE700BFFEE700BFFEE700BF67
:1049C000FEE700BF704700BF014801F029B800BFF3
:1049D000E8250320014801F023B800BF802503200B
:1049E000014801F015BC00BFC0270320014801F0B9
:1049F0000FBC00BFC0270320014805F071B900BFFC
:104A0000902A0320014805F06BB900BFE824032079
:104A1000014805F065B900BF9C240320014802F05D
:104A200061B900BF6C270320014802F005BB00BF3D
:104A30006C270320014804F071BF00BF50260320FB
:104A4000014805F037BB00BFC8260320014802F02B
:104A500063BD00BF28210320014800F0E1BF00BF73
:104A600048280320014804F08BBE00BFB426032071
:104A7000034AD2F8883043F47003C2F88830704794
:104A800000ED00E0254B25491A682548120754BF60
:104A9000D3F894301B688A6858BFC3F3032302F02D
:104AA0000C0248BFC3F30313082A50F823300FD079
:104AB0000C2A0FD01B49042A08BF0B46174A1A4874
:104AC00092681A49C2F30312825CD3400B607047AC
:104AD000174BF3E7C868CA6800F00301C2F303127A
:104AE000022902F1010211D0032913D0B3FBF2F124
:104AF0000A4AD368D268C3F3062301FB03F3C2F367
:104B0000416201325200B3FBF2F3D7E70549B1FB32
:104B1000F2F1EDE70649B1FBF2F1E9E700100240DE
:104B2000341601080024F4007C160108500203200A
:104B300080969800DFF834D0FFF79AFF002103E059
:104B40000B4B5B58435004310A480B4B42189A42B6
:104B5000F6D30A4A02E0002342F8043B084B9A428B
:104B6000F9D30AF091F9FBF7C9FEFEE70000042033
:104B7000A416010800000320B8030320B803032093
:104B800020580320FEE70000042010B500F0E6FCEA
:104B9000FFF778FF0020FFF7CDFE10B1012420467B
:104BA00010BD0446FFF796FC204610BD034A044B97
:104BB00011681B780B441360704700BFDC2A032088
:104BC00054020320014B1868704700BFDC2A032001
:104BD000002330B583B00193002800F09880856DE4
:104BE0000446002D00F09880226893689D0005D54A
:104BF000936823F0204323F03F0393609368D80029
:104C000019D45A4B5A481B6891689B09A0FB0303AF
:104C100021F010419B0921F03F0101335B0041F07D
:104C2000805191600193019B2BB1019B013B01934A
:104C3000019B002BF9D19368D9006BD40120A36D9F
:104C400043F01003A365E36D0343E365936813F03A
:104C5000040FA36D57D1DB0655D4A36D23F48173E4
:104C600043F00203A3659368DD0708D4414B9B68BA
:104C700013F0010F404B9B6801D1D9075FD5E56860
:104C8000636B94F820102B43A568012943EA0503C0
:104C9000657E43EA453343EA01434BD0A16A21B123
:104CA000E56A01F4707129430B43D5683349294003
:104CB0001943D16093681B0716D494F83030257ED1
:104CC000D1685B0043EA8533E56C21F4804121F033
:104CD00006012B430B43D36094F83830012B36D0B8
:104CE000136923F0010313612369012B1AD0136B9D
:104CF00023F00F031363A36D23F0030343F00103B9
:104D0000A36503B030BDA36D43F01003A36501207C
:104D100003B030BD002099E7FFF7FEFBE56584F89E
:104D2000545061E7116BE36921F00F01013B0B4324
:104D30001363E0E7616A013943EA4143AEE7104992
:104D400065688B6823F47C132B438B6097E71169AC
:104D5000E36B256C6FF38A012B430B43616C0B43B0
:104D6000A16C0B4343F001031361BDE75002032024
:104D7000632D3E05008002420081024207C0F0FF21
:104D800000830242704700BF704700BF08B5806AC9
:104D9000FFF7FAFF08BD00BF704700BF836A10B578
:104DA0009A6D12F0500F9A6D1DD1196842F400727D
:104DB0009A650A6812F0080FCA681BD012F4406F97
:104DC0000DD1CA6894040AD49A6D22F480729A654F
:104DD0009A6DD10403D49A6D42F001029A65184687
:104DE000FFF7D0FF10BDD2060AD4BDE810401B6DFE
:104DF000DB6B18479007E7D51846FFF7C3FFF1E7CD
:104E00001846FFF7C9FF10BD806A08B5836D43F0EF
:104E100040038365C36D43F00403C365FFF7BCFF24
:104E200008BD00BF0022F0B583B0019290F8542075
:104E3000012A00F0F480034601201A6883F8540028
:104E40009068400709D501209A6D42F020029A65CA
:104E5000002283F8542003B0F0BD1F24486802F1FB
:104E6000300500F01F0C4FEA901E08680EF00C0E83
:104E7000C0F3846000FA0CF004FA0CFC55F80E4004
:104E800024EA0C0C40EA0C0045F80E00906810F083
:104E9000040F906835D1070733D4072408688D685C
:104EA000C0F30456B440C00DB5F1004F6FEA0404DE
:104EB00000F0040000F0008102F11407B5403E58F4
:104EC00034402C433C50506920F000405061D1E9FF
:104ED0000464042ED568086800F0BB80C5F3C105E2
:104EE0006D0002F1600757F826C0AC40BA4D00F0E3
:104EF000F8400CEA050505432C4344F0004447F80C
:104F000026409068C60738D4CE680C68B348D2F8FB
:104F1000B05006F01807F840C4F31207204025EA05
:104F200007052843C2F8B000AD48864227D0AD49F6
:104F30000C4222D0AC48AD4986688D68ED0771D42B
:104F4000AB4DAD68EF073FF57EAFAA4D06F0E077B9
:104F5000AC4200F06981A84DAC4200F08981A74DB8
:104F6000AC420AD1740208D48A4206D1826822F087
:104F7000E0723A4342F480028260002068E7002F2A
:104F800053D094FAA4F0002800F0A080B0FA80F08A
:104F9000013000F01F00092840F2988094FAA4F034
:104FA000002800F08181B0FA80F00130800600F026
:104FB000F84094FAA4F5002D00F06A810126B5FAB4
:104FC00085F5354405F01F0506FA05F5284394FAE2
:104FD000A4F4002C00F05A81B4FA84F56FF01D0699
:104FE0000324013505F01F0514FB0564240544F076
:104FF000007407272043C50D8E6805F0040502F1F3
:10500000140C5CF80540C0F30450864007FA00F029
:1050100024EA000030434CF805000C6887E70220C2
:1050200003B0F0BD724A92680DE70120A40E01346E
:1050300004F01F06A40604F0F845B040092E06EB64
:10504000460440EA050066D91E3C240544F000747D
:10505000CFE7146E146EC0F31205C4F38464002D00
:105060005BD1C0F38466B44200F08F80546E556EFD
:1050700002F16004C5F3846502F1640CB54200F0EE
:10508000BF80A568A56804F10807C5F38465C0F36F
:105090008466AE4200F08D80E568E56804F10C0698
:1050A000C5F38464C0F38460A0427FF42AAF306803
:1050B00020F00040306024E702F1140635582C40FF
:1050C0003450506940F00040506100E794FAA4F079
:1050D000002800F0F180B0FA80F00130800600F086
:1050E000F84094FAA4F5002D00F0E4800126B5FA0A
:1050F00085F5354405F01F0506FA05F5284394FAB1
:10510000A4F4002C00F0D380B4FA84F4013404F049
:105110001F0404EB440424056BE790FAA0F51DB1CD
:10512000B5FA85F5AC4230D0546E556E02F160048C
:10513000C5F3846502F1640C90FAA0F604F1080747
:10514000BE46002E00F0AB80B6FA86F6AE4259D0CD
:105150003D683D68C5F3846590FAA0FC04F10C0637
:10516000B646BCF1000F00F09580BCFA8CFCAC4553
:1051700021D034683468C4F3846490FAA0F0002825
:105180003FF4BFAEB0FA80F08EE71446106E02F125
:10519000640C20F0004044F8600F506E0868556EB3
:1051A000C0F31206C5F38465002EC5D1C0F3846632
:1051B00064E704F10C0E3868764620F00040386051
:1051C000E0680868E468C0F31205C4F38464002D45
:1051D0003FF468AFD1E700BF00F0FF03FFFF070017
:1051E00000007F40000008800083024200800242ED
:1051F00000810242000052C7000084CB0100008001
:1052000004F1080EDCF80000774620F00040CCF8EE
:105210000000A0680868A568C0F31206C5F384659D
:10522000002E3FF434AF97E736023FF5A6AE8A4230
:105230007FF4A3AE8268224922F0E0723A4342F43E
:10524000000282600A681F499209A1FB02129209BA
:10525000013202EB420292000192019A002A3FF4CD
:105260008CAE019A013A0192019A002AF9D184E6A2
:10527000F5013FF582AE8A427FF47FAE826822F06C
:10528000E0723A4342F08072826076E60E4CB0E6FD
:1052900002259BE6E568E468C4F384646DE7A568CD
:1052A000A568C5F3846557E74FF0806081E64FF449
:1052B00040149EE6022521E74FF0806011E700BF11
:1052C00050020320632D3E05000050FE002370B500
:1052D00082B0019303689A68D2072CD49968284A4F
:1052E000044611422AD19A68264922F0004222F04F
:1052F0003F0242F001029A608B681B0229D4FFF73B
:1053000061FC236805461A68D60714D41E4E9A68B5
:10531000D00704D49A68324042F001029A60FFF745
:1053200051FC431B022B236802D91A68D10705D50B
:105330001A68D207EBD5002002B070BD0120A36D22
:1053400043F01003A365E36D43F00103E36502B08E
:1053500070BD0E4B0E4A1B689B09A2FB03239B09E1
:10536000013303EB43039B000193019B002BC6D049
:10537000019B013B0193019B002BF9D1BFE700BFCB
:105380003F00008000830242C0FFFF7F50020320E5
:10539000632D3E05394B2DE9F041D3F808800368B1
:1053A0009D6815F0040516D190F854300446012B81
:1053B00011D040F221234FF0010C08F01F0823FA0E
:1053C00008F313EA0C0380F854C007D184F8543072
:1053D0006046BDE8F0810220BDE8F0810E46174628
:1053E000FFF774FF002841D1A36D216823F4706397
:1053F00023F0010343F48073A365214B994238D015
:10540000A36D23F48013A365324600251C26A36DEB
:10541000206D13F4805318BFE36D01F1400118BFF4
:1054200023F00603E3653B46164FC762164F07633A
:10543000164FC76341F8406C84F8545051F83C5CF7
:1054400045F0100541F83C5C51F8345C45F001052D
:1054500041F8345C00F01CFA2268936823F00043A2
:1054600023F03F0343F004039360B5E784F85450FE
:10547000B2E7B8F1000FC7D1C2E700BF0083024214
:10548000008102429D4D00088D4D0008094E000824
:1054900090F85420012A45D0034600220120F0B4A0
:1054A0002B4D1C689AB0AC42169283F854001792A8
:1054B00008D0996D83F8542041F0200199651AB005
:1054C000F0BC7047234A906840070BD5A2680120C2
:1054D0009A6D42F020029A65002283F854201AB097
:1054E000F0BC7047A0684507F1D40D68E5B11A4ECD
:1054F0004F68B06893F830C020F46040384340EA09
:105500004C30B060A0689268C0071ED4D7071CD486
:10551000B268896822F471620D4322F00F021543CC
:10552000B56012E0022070470B48816821F46041A9
:105530008160A1689268CD0707D4D40705D482683A
:1055400022F4716222F00F0282600020C4E700BFE3
:105550000080024200810242008302424FF6FF0CAB
:1055600006490302CA6803F4E06302EA0C0213432B
:1055700043F0BF6343F40033CB60704700ED00E0BD
:105580001B4B00B5DB68C3F30223C3F1070EBEF16A
:10559000030F03F1030C28BF4FF0030EBCF1060FFD
:1055A0001CD9A3F1040C4FF0FF3303FA0CF322EAE9
:1055B00003024FF0FF3303FA0EF321EA030303FA69
:1055C0000CF313435B010028DBB20ADB00F16040FF
:1055D00000F5614080F800335DF804FB002294463A
:1055E000E7E7044A00F00F00024413765DF804FB7D
:1055F00000ED00E0FCEC00E0002807DB012300F0F8
:105600001F01034A40098B4042F82030704700BF19
:1056100000E100E000280CDB01220649430900F00C
:105620001F002033824041F82320BFF34F8FBFF388
:105630006F8F704700E100E0BFF34F8F0549064BC5
:10564000CA6802F4E0621343CB60BFF34F8F00BF20
:10565000FDE700BF00ED00E00400FA05002836D0A9
:1056600038B5437F044603F0FF0263B30222237977
:105670006277F3B92368174A5A619A6822F01802D0
:105680009A6062798AB122691A6101219A68656912
:1056900022F060022A439A609A68A56922F080028B
:1056A0002A439A606177002038BD4FF0FF321A61BB
:1056B000EBE72046D4E9021200F00EF808B923689F
:1056C000DFE7012038BD0277FEF7A2FFCEE7012019
:1056D000704700BFB71DC104CB071AD51F2310B4F4
:1056E000013B5C1C21FA03FC15D01CF0010FF7D024
:1056F000182A11D8DFE802F0161010101010101040
:105700002410101010101010211010101010101074
:105710001400012070472AB101205DF8044B704746
:10572000062BF9D8046800206161A36823F01803F0
:105730001343A3605DF8044B7047072BF2D9EBE7E6
:105740000F2BEFD9E8E700BF11490368C26C8B4209
:1057500088BF104922F0030294BF02F180418918EA
:105760004FF0010210B4DBB20B4CA3F10803A4FB11
:1057700003430A4CC3F3041398BF01F5023102FA44
:1057800003F3C0E9141483655DF8044B704700BF50
:105790000704024020080240CDCCCCCC8008024057
:1057A000002861D038B50268304B04469A4246D989
:1057B0002F4B30491344A1FB03132F481B099B00B7
:1057C0000221C4E91203D4E9025320692B430343A5
:1057D000606984F825100343A06911680343E069F8
:1057E0006FF310110343206A03430B4320461360F9
:1057F000FFF7AAFFB5F5804F2AD0D4E914516368AA
:10580000A06DDAB2013B032B2A60486027D8012142
:1058100000201A4B1A4D1344013A01FA02F21949B9
:105820009B00E3656266256618604A6400230122D6
:10583000636484F8243084F82520184638BD124B60
:105840000C491344A1FB03131B0910489B00B7E745
:105850000023D4E91402A16D63600360516000234A
:10586000C4E917336366E1E701207047070402408B
:10587000F8FBFDBFCDCCCCCC000402403F82001031
:105880004009024000090240F8FFFDBF000002404D
:10589000F0B590F82440012C0AD04FF0010C90F89C
:1058A000254080F824C0644504D0002380F82430CB
:1058B0000220F0BD0026D0E9157C4FF0020E0468EE
:1058C00080F825E046642668C56D26F0010626604E
:1058D000C7F804C015B1D0E9186777600126C76C16
:1058E00007F01C0C876C06FA0CF67E606360836818
:1058F000102B036B0BBFA260A160E160E260B3B14B
:10590000236843F00E032360036D1A68D20303D5A6
:105910001A6842F480721A601DB12B6843F48073D8
:105920002B602368002043F001032360F0BD23684F
:1059300023F004032360236843F00A032360E3E7B2
:1059400090F825200346022A06D004225A64002239
:10595000012083F824207047026870B4046D106839
:10596000D96C20F00E00106020689E6C20F48070CE
:105970002060106801F01C0120F00100106001227D
:10598000D3E91545D86D8A407260656030B1D3E9BE
:105990001814026822F4807202604C60012283F8BD
:1059A0002520002283F82420002070BC704700BF0F
:1059B00090F825200346022A03D0042201205A64CD
:1059C0007047026870B5046D1068D96C20F00E0045
:1059D000106010689E6C20F0010010602268D86D85
:1059E00022F4807222600122D3E9154501F01C01E6
:1059F0008A407260656030B1D3E91814026822F4FD
:105A0000807202604C60012000211A6C83F825002E
:105A100083F824100AB118469047002070BD00BFDB
:105A20000421F0B4C26C866C02F01C023568046874
:105A3000914029420346276812D017F0040F0FD077
:105A40002268170439D42268950603D4226822F00C
:105A5000040222601A6B716092B1F0BC18461047C4
:105A60000221914029420DD0B8070BD5226812F4CB
:105A7000004F226829D0D4033CD45A6B002AECD1C1
:105A8000F0BC7047082191402942F9D03907F7D579
:105A90002168002021F00E0121600121DC6B01FA58
:105AA00002F27260596483F8240083F82510002CF8
:105AB000E6D018462346F0BC184771602268D6032A
:105AC00014D4036B002BF6D1DAE7900606D42268D3
:105AD00022F00A022260012283F825200020DA6ADF
