:020000040800F2
:1000000000000420FD500008794F00087D4F0008D3
:10001000814F0008854F0008894F00084D510008A6
:10002000000000000000000000000000F1F10008E6
:100030008D4F00080000000081F1000825CA00086B
:100040004D5100084D5100084D5100084D51000818
:100050004D5100084D5100084D5100084D51000808
:100060004D5100084D5100084D5100084D510008F8
:100070004D5100084D5100084D5100084D510008E8
:100080004D5100084D5100084D5100084D510008D8
:100090004D5100084D5100084D5100084D510008C8
:1000A0004D5100084D5100084D5100084D510008B8
:1000B0004D510008914F00089D4F00084D51000818
:1000C0004D5100084D5100084D5100084D51000898
:1000D0004D5100084D5100084D510008A94F00082E
:1000E000B54F00084D510008C14F00084D510008A0
:1000F0004D5100084D5100084D5100084D51000868
:100100004D510008CD4F0008D94F00084D5100084F
:100110004D5100084D5100084D5100084D51000847
:100120004D510008E54F0008F14F00084D510008FF
:10013000FD4F00084D5100084D5100084D51000879
:100140004D5100084D510008095000084D5100085C
:100150004D5100084D5100084D5100084D51000807
:100160004D510008155000084D5100084D51000830
:100170004D510008000000004D5100080000000033
:10018000215000084D5100084D5100084D51000804
:100190004D5100084D5100084D5100084D510008C7
:1001A0004D5100084D5100084D5100084D510008B7
:1001B0004D510008000000002D5000084D5100086E
:1001C0004D510008000000004D5100084D5100083D
:1001D0004D5100084D5100084D5100084D51000887
:1001E0004D5100084D5100084D5100084D51000877
:0401F000000000000B
:1002000010B5054C237833B9044B13B10448AFF350
:1002100000800123237010BDC003032000000000F4
:1002200048F7000808B5034B1BB103490348AFF377
:10023000008008BD00000000C403032048F7000848
:10024000034613F8012B002AFBD1181A0138704716
:10025000704700BF01F082BBF0B5274C274E9BB022
:100260004FF0FF332822694620680DF04FFA282806
:10027000F6D1039804F096FA0546002834D1029B83
:100280009BB929460AAA009801F07EFB0DF044FFB5
:100290000AA90246684601F00DFD0DF03DFF0AA9CE
:1002A0000246684601F048FBDAE7B3F1005FF4D19B
:1002B00040F20172009B9342EFD10822039900277C
:1002C000914228BF11460D46C6E90577B760019FE8
:1002D0000B490C48C6E90037F56004F06FFA304668
:1002E000084901F0C9F9D8E74FF0FF332A462068E2
:1002F0000AA90DF00BFAC2E714290320F00303202A
:100300009005FA0BE40303202DE9F0431F4D9BB049
:10031000DFF8808001AE0AAF002404EBC401C4F111
:1003200024024FF0FF33286806EB81010DF0EEF94F
:100330000444232CF1D9049804F034FA039B814639
:10034000B3F1005F00D0A0B9114806F099F950B19F
:100350003A4631460E4806F05DF8D8F80C300133C5
:10036000C8F80C30D8E74FF0FF3201210EF068F9E1
:10037000EAE70024A9EB040239194FF0FF3328689B
:100380000DF0C4F904444C45F4D3DDE710290320F3
:10039000B82703200000032000B583B001F0EEFA77
:1003A00001F034F803221849184805F0C9FA02F0A0
:1003B0009FFD00F005FE02F0E3FD0DF0ADFE01F043
:1003C000B5FA134809F02CFE124809F0F1FD124C61
:1003D0000DF0A2FE019002F091FD019802F0D6FD11
:1003E000019800F0EFFD237813B9019801F0E8FBC4
:1003F000019801F0A3FA019801F050FC0A2101A82C
:100400000DF0CAFDE4E700BF242A0320A82803203A
:10041000F024032058240320760003202DE9F04126
:100420000026214DDFF88C80204FA6B012E00EF0A0
:100430004DFD98F8003033B10B9B23B164200CF0D4
:10044000A9FB00F0E3FF0022022311463868009662
:100450000EF078F94FF0FF32012100200EF0F0F895
:100460000EF026FD124806F061FA044606A910486F
:1004700006F0CCF802A90E4806F0F0F854222946FE
:1004800011A8AC600FF008F9094B1E66189BB3F574
:10049000003FCCD9AB689B02C9D5012385F8203039
:1004A0000B9301F079F8C2E700000320781C0320C9
:1004B000B8270320E003032000232DE9F04D84B08A
:1004C0007D4EDFF80082DFF804B27C4DDFF800A239
:1004D0000DF10E078DF80B3013E028680DF020F8B1
:1004E000012808D94FF0FF330222286803A90DF034
:1004F0000DF9022845D000214FF0FF3208460EF0DA
:100500009FF830680DF00CF80028E6D04FF0FF336C
:10051000012230680DF10B010DF0F8F80128DCD153
:1005200030680CF0FDFF0128D7D94FF0FF330222CD
:10053000306803A90DF0EAF80228CED1BDF80C20EE
:10054000B2F5805FC9D2002A40F0A5809DF80B402B
:10055000002C52D10DF0E0FD594B5A49BDF80C204A
:10056000009703F0B1F9BDF80E30002B79D10DF0F2
:10057000D3FD534B5349BDF80C20009704F0E0F82D
:10058000ABE7BDF80C20B2F5805FB4D272B10024A5
:10059000121B08EB04014FF0FF3328680DF0B6F88A
:1005A000BDF80C20204484B2A242F1D10DF0B4FD7C
:1005B000434B4146BDF80C20009704F0AFF9BDF85D
:1005C0000E30002B97D039464FF0FF330222DAF875
:1005D00000000CF0B3FFBDF80E204FF0FF33384998
:1005E000DAF800000CF0AAFF002202231146DBF823
:1005F000000000920EF0A6F87DE70DF08DFD304B67
:100600003049BDF80C20009704F036F8BDF80E30E4
:10061000002BACD02A490A787F2A08D1022BA6D910
:100620008B78A3F11102012AA1D9312B9FD0264842
:10063000394604464FF0FF33022200680CF07EFF7B
:10064000BDF80E204FF0FF331D4920680CF076FFF7
:10065000002202231146DBF8000000920EF072F82F
:1006600085E7194839464FF0FF33022200680CF045
:1006700065FF1548BDF80E204FF0FF3310490068A4
:100680000CF05CFF022322462146DBF800000094B8
:100690000EF058F86BE70024121B4FF0FF3308EB05
:1006A000040130680DF032F8BDF80C2023189CB21C
:1006B000A242F1D14AE700BF24040320180403201A
:1006C000507F0120508F012020040320B80903200F
:1006D000140403202DE9F04FDFF8148185B0404E5B
:1006E000404DDFF810A108F11C0908F5805B02AF4E
:1006F00014E028680CF014FF012809D94FF0FF33EB
:10070000022228680DF106010DF000F8022846D0FB
:1007100000214FF0FF3208460DF092FF30680CF0D8
:10072000FFFE0128E5D94FF0FF3302222E49306841
:100730000CF0ECFF0228DCD1B8F81420B2F5805F91
:10074000D7D272B10024121B09EB04014FF0FF3322
:1007500030680CF0DBFFB8F81420204484B2A242C9
:10076000F1D10DF0D9FC0146204801F04FFD0028E1
:10077000BFD103E09BF823000CF00CFA0DF0CCFC89
:1007800002F0CEFF0128B4D030680CF0C9FE012879
:10079000AFD89AF80030002BECD10A20ECE7BDF876
:1007A0000620082AB4D86AB10024121B39194FF068
:1007B000FF3328680CF0AAFFBDF80620204484B25D
:1007C000A242F2D10DF0A8FC3946BDF8062004F093
:1007D00039F801289CD00A200CF0DCF9F2E700BFC0
:1007E000200403201404032068AF0120549F01203B
:1007F00054AF01207600032001F0B4B801F0B6B880
:10080000002001F0B7B800BF0022024B02481A6076
:1008100009F006BCDC030320A4240320014B186864
:10082000704700BFDC03032010B59EB048220021B2
:100830000CA80EF0A5FE00234FF40070CDE90233A2
:10084000CDE90433CDE90733CDE9093301930693AC
:100850000B9307F0C3FF08B172B6FEE70123022233
:10086000169311931993179210231D9207229FED4F
:100870001E7BCDE91A320324042312900CA81C938A
:100880008DED0C7B189408F0E5F9034608B172B6BB
:10089000FEE70F22214601A8CDE903330593029418
:1008A000019208F083F8034608B172B6FEE7104AD9
:1008B0004FF0005C916D4BF67F3441F08071916593
:1008C000926D069302F080720092089322222023F8
:1008D00006A8CDE90A230099CDF81CC0099409F0B7
:1008E00019F91EB010BD00BF290000000000010072
:1008F00000100240F0B595B072B64FF00062AA4BFE
:100900009A60BFF34F8F62B6002404F021FCFFF71A
:100910008BFFCDE90E44CDE91044A44D1294EB6C4D
:100920004FF4604143F00403EB64EB6C224603F0A8
:1009300004030793079BEB6C9D4843F08003EB6433
:10094000EB6C012603F080030893089BEB6C43F0EB
:100950000103EB64EB6C03F001030993099BEB6C5F
:1009600043F00203EB64EB6C03F002030A930A9B6F
:1009700006F074FC224640F201118E4806F06EFC2F
:10098000224641F2E4018C4806F068FC4FF46043D3
:1009900087480EA9CDE90E361094119406F0B0FAEE
:1009A00040F2011383480EA9CDE90E36CDE910447B
:1009B00006F0A6FA41F2E4037F480EA9CDE90E360F
:1009C000CDE9104406F09CFA4FF4007379480EA963
:1009D000CDE90E34109606F093FA082377480EA955
:1009E000CDE90E34109406F08BFAAB6C052143F080
:1009F0000403AB64AB6C224603F004030493049B32
:100A0000AB6C1D203343AB64AB6C33400593059B4B
:100A1000AB6C43F00203AB64AB6C03F002030693D0
:100A2000069B05F07FF81D2005F0B6F8224605214B
:100A30001E2005F077F81E2005F0AEF822460521AD
:100A4000502005F06FF8502005F0A6F8204606F07B
:100A500083FF08B172B6FEE706F092FF034640B985
:100A60005748584AC0E9002309F07CF818B172B61B
:100A7000FEE772B6FEE7544A544B1070544A4FF4E6
:100A800040711A60102299609A619A620F211322B4
:100A90003C2404275860D8609874D8631846C3E98A
:100AA0000D661E825E615E62DC61D9621A621F633E
:100AB00005F006FB034650BB0BAD0B90CDE90E00D5
:100AC000CDE91000CDE91200C5E901004FF48070B6
:100AD0004FF4301C03214FF480523E4CC4E90233E2
:100AE000C4E90A3384F8203084F838303A4B208344
:100AF0002046C4E90467C4F804C0E161626384F875
:100B00003060236004F048FB18B172B6FEE772B69D
:100B1000FEE70B902946204604F08CFF08B172B620
:100B2000FEE706230F937F2311932C4B1090139015
:100B30000EA9204612970E9304F05CFC08B172B621
:100B4000FEE7274B20460E930C230EA90F9304F0CB
:100B500051FC08B172B6FEE7224B20460E931223D9
:100B60000EA90F9304F046FC034608B172B6FEE7E7
:100B70001D48C0E9053383801C4B0662036005F005
:100B80003DF808B172B6FEE700234FF4027102226D
:100B90001748C372174B8180C0F80720036006F026
:100BA000F9FE48B372B6FEE700ED00E00010024027
:100BB000000802420000024200040242001C0242FD
:100BC000BC26032000080C42E0030320B8270320C2
:100BD00000A40040A8280320008002424000201901
:100BE0000002B0250004002A1C2803200030024027
:100BF0003021032000D4004041F63F76A34CA44AA4
:100C0000CDE90E00C4E901001090A06120462260E9
:100C1000E66009F0F5FB034608B172B6FEE7204630
:100C20000EA90E93109309F01DFC034608B172B68D
:100C3000FEE7984CCDE90E331093A360A36142F216
:100C40000F73954A2046C4E90023E66009F0D8FBFB
:100C5000034608B172B6FEE720460EA90E93109324
:100C600009F000FC034608B172B6FEE74F264FF6C6
:100C7000FF748A488A4AC0E9043383608361026052
:100C80004660C46009F0BCFB034608B172B6FEE7DB
:100C90008448C0E90163C0E90343C0E90533824BDE
:100CA000036009F0ADFB08B172B6FEE74FF080417A
:100CB0004FF0FF327D4C0B90CDE90E00CDE91000D6
:100CC000C5E90100C4E901002061A061204621605E
:100CD000E26009F095FB08B172B6FEE74FF480536D
:100CE00020460EA90E9309F0D9F9034608B172B651
:100CF000FEE7294620460B930D9309F0B3FB08B19C
:100D000072B6FEE700246A4A01216A4B009246F25D
:100D100006002246CDE901440CF0AAFB0246664DCE
:100D2000664E00950121CDE90144654B326046F2E3
:100D3000060022460CF09CFB624B634A01210092A4
:100D4000CDE9014422461860604B4FF47A600CF004
:100D50008FFB5F4D5F4B224600930121CDE901449B
:100D60005D4B28604FF47A600CF082FB5B4B2246AF
:100D700000935B4B0121CDE901441860594B4FF4BE
:100D8000A0400CF075FB584B22460093574B0121B5
:100D9000CDE901441860564B4FF4A0400CF068FBBD
:100DA000544B186001F030F80DF0B6F93246524B52
:100DB0005249009500F058FF514802F011F951488E
:100DC00000F09AFD5048514A514900F005FB0EA829
:100DD0000E9401F00FF820B90E9B13B94D4800F0A6
:100DE000E1FF0BF02DFE00214B4A4C480BF078FE42
:100DF00004464B4B00214B4A4B481C600BF070FEE5
:100E000004464A4B00214A4A4A481C600BF068FEDF
:100E100004463F4B0021484A48481C600BF060FEE6
:100E20000446474B0021474A47481C600BF058FED8
:100E30000446364B0021454A45481C600BF050FEE5
:100E400004462E4B0021434A43481C600BF048FEE9
:100E50000446424B0021424A42481C600BF040FECF
:100E60000446414B0021414A41481C600BF038FECA
:100E70000446404B0021404A40481C600BF030FEC5
:100E80003F4B18600BF0FEFDFEE700BFA4240320DB
:100E900000140040F02403200010004058240320D8
:100EA000004401400C240320004801403C2503205D
:100EB000DC040320481F0120B8040320240403207D
:100EC00040BF00202004032094040320A0AF002092
:100ED000180403207004032000A000204C04032009
:100EE00014040320005000202804032014290320A8
:100EF00000000020102903201C040320680E03209A
:100F0000BC2603201C280320B82703201813032025
:100F1000781C0320040063459CF900085502000872
:100F20002C21032078F90008590200082821032009
:100F300054F900080903000830F900089903000873
:100F4000C81703200CF900081D040008E8F8000881
:100F5000B9040008C4F80008D5060008B809032041
:100F6000A0F80008F9070008080503207CF800082D
:100F7000FD0700080405032058F8000801080008D0
:100F800000050320094A0368934206D0084A9342A9
:100F90000AD0084A934205D07047074A13680133C4
:100FA0001360704700F0D2BC04F0E4B800140040B5
:100FB000002C014000100040DC03032072B6FEE765
:100FC000704700BF10B5094C0949208980B200F074
:100FD00077F8208A0749C0B200F0FEF8208B064956
:100FE00080B2BDE8104000F01DB900BF54000320DE
:100FF000D801032060010320E8000320012908D95B
:101000004FF6FE2302889A4203D8981AC0F34F0085
:1010100070470020704700BF012911D94378FA2B8F
:1010200007D8084AC3EB0330A2FB0020C0F30F101F
:10103000704740F6FF72FF2B0CBF00201046704730
:1010400000207047D34D6210022907D94FF6FF7375
:10105000B0F80100984208BF002070470020704798
:10106000012911D94378FA2B07D8084AC3EB03307A
:10107000A2FB0020C0F30F10704740F6FF72FF2B59
:101080000CBF00201046704700207047D34D6210FF
:10109000042907D94FF6FF73B0F80300984208BF40
:1010A0000020704700207047012907D94FF6FF73D1
:1010B0000088984208BF4FF40060704700207047D6
:1010C00048F6802C47F27F53604594BF1B18634459
:1010D0004FF0FF329BB2180AC1F801200B704A6032
:1010E0004870704701290ED94FF6FF730088984267
:1010F00009D047F27F53984238BF1846A0F5EA401E
:101100007F3880B270474FF400607047022906D9DB
:1011100080787D38C0B2822828BF00207047002028
:10112000704700BF032906D9C0787D38C0B2822835
:1011300028BF002070470020704700BF012918D940
:10114000037803F00302012A17D003F00C02042AEB
:1011500015D003F03002102A0DD003F0C003402B4D
:101160000FD0437803F00303012B0CBF06200120AE
:101170007047002070470520704702207047032009
:1011800070470420704700BF032986BFC078C0F3B2
:1011900081000020704700BF09B100787047084601
:1011A000704700BF012906D9437803F00F03013BC4
:1011B000DBB2022B01D900207047024A32F813003B
:1011C000704700BFC4F9000819B10178C1F381006C
:1011D00070470846704700BF4FF0FF3360F00300D0
:1011E0000B604B60C8707047032986BFC07800F061
:1011F00003000020704700BF02290FD9837803F055
:101200000C02042A01D001207047C3F30113012B03
:1012100006D0002B0CBF0220012070470020704731
:10122000032070474FF0FF33184480B20328C1F801
:1012300001304B608EBFFF23014B1B5C0B7070476E
:10124000C0F9000871B103789A09012A03F003017B
:101250000AD003F03003102B08D001290CBF022064
:1012600001207047084670470420704703207047EC
:10127000072903462DD900785A78A0F1FA00B0FA70
:1012800080F0FA2A4FEA50109A784FEAC00008BF5F
:1012900040F01000FA2ADA7808BF40F02000FA2A5D
:1012A0001A7908BF40F04000FA2A5A7908BF40F086
:1012B0008000FA2A9A79DB7908BF40F00100FA2A07
:1012C00008BF40F00200FA2B00D0704740F0040045
:1012D00070470020704700BF2DE9F04F3A4B83461E
:1012E000984283B007D8394B984260D94FF028090B
:1012F0004FF4487609E036494FF02509B1FBFBF180
:10130000C9B2192940F2EE265BD90124304B0134D1
:10131000A4B2B3FBF4F1B1FBFBF1C9B21929F6D8C1
:10132000B4F5806F3FD201202A4BCDF804B01F687E
:1013300023186FF0004C4FF47A759B461FFA83FA1E
:10134000A1F1020EBEEB510F4FEA51031ADD01F17C
:10135000FF385FFA88F805FB03F2B2FBF1F2B21A2C
:10136000002AB8BF5242624509DA914507DB0020E6
:101370009446A8EB0302D2B2FB617C613A6201336E
:101380007345E8DB124B1FFA8BF4B3FBFAF1019BB8
:10139000B4F5806FB1FBF3F10AF1010AC9B203D0D1
:1013A00004F1010BCCE7012003B0BDE8F08F084940
:1013B0004FF02B09B1FBFBF1C9B2192940F26B3692
:1013C000A3D80124AFE700BF00350C0020A107001F
:1013D000005A6202082A032038B50C46064D074918
:1013E000074B0A602860074901201C600BF0E0FDF4
:1013F000054B186038BD00BF082A0320002A0320CF
:10140000042A0320182903206829032030B55B4DE6
:1014100083B0286804F0E8FF286804F051FE002833
:1014200040F085800022564C402156482271E260EF
:1014300022616261A261A260E26184F8202005F06D
:101440000DFF286804F0D0FF012202232868C0E9BC
:101450000D2304F035FE002840F08C80022101228B
:1014600040F2FF700023C4E90B1240F20172A06346
:10147000454928686362A362626304F00BFF08B108
:10148000FFF79CFD4FF0804202230121E263636479
:1014900000226FF06043A1643C492868E1643C4944
:1014A0002264236504F0F6FE002860D100230122A7
:1014B00037492868E3642264236504F0EBFE0028C2
:1014C00052D10023022228681146009304F00EFF37
:1014D000002846D1286804F02BFF00283ED10022C6
:1014E0000121286805F0D2F8A8BB0022062128684F
:1014F00005F0CCF860BB07224FF4F051286805F0E6
:10150000C5F810BB07228021286805F0BFF8C8B9CC
:1015100000222049286805F0B9F880B900224FF46C
:101520006021286805F0B2F820B903B030BDFFF79C
:1015300045FD77E703B0BDE83040FFF73FBDFFF75B
:101540003DFDEBE7FFF73AFDE2E7FFF737FDD9E7AF
:10155000FFF734FDCFE7FFF731FDC6E7FFF72EFDBC
:10156000BDE7FFF72BFDB5E7FFF728FDA9E7FFF77C
:1015700025FD9BE7FFF722FD70E700BF082A032047
:10158000000003200004024224000320FECA77006A
:101590003C00032000407100014B186804F024BF98
:1015A000082A0320082824D8DFE800F0080C1014CB
:1015B000171A1D2005001448FFF78EBE42F2107066
:1015C000FFF78ABE44F62060FFF786BE4CF250302B
:1015D000FFF782BE0D48FFF77FBE0D48FFF77CBEC8
:1015E0000C48FFF779BE0C48FFF776BE0B48FFF7B3
:1015F00073BE0B4AA0F51C53103B934201D9012046
:101600007047FFF769BE00BF40420F00A08601008F
:1016100048E8010090D0030020A1070000350C002D
:10162000301B0F000346054A197800205161597894
:10163000D16199781162DB7893617047B8270320F4
:101640000246024B00209A61704700BFB827032072
:10165000034600B5064A93F801E093F800C082F80B
:1016600010E004499B7881F800C05374002000BD4D
:10167000B8270320E00303202DE9F047054682B098
:10168000C0680F4603F08EF8AB68B3F1005F3ED040
:101690000646824600F12409264C4FF0FF312068AF
:1016A0000BF044FD0128F8D1DFF89480D8F8000051
:1016B0000BF022FF484517D202251F4A13792B430E
:1016C0001371002320681A4619460BF0D5FB1B4AFC
:1016D0000223126810680022114600920DF032F8C1
:1016E000284602B0BDE8F08729464FF0FF33242298
:1016F000D8F800000BF022FF054686B94D450CD006
:101700000D4A0125137943F008031371D9E74FF00F
:10171000000A4FF024095646BEE70025D1E752469D
:1017200039464FF0FF33D8F800000BF007FF0544AF
:10173000E4E700BF6829032000000320042A0320F7
:10174000102903202DE9F04700250C4682B0C90777
:101750000646019516D4A20707D50221314A13790E
:1017600043F00103137133681965630738D4019B93
:101770002BB14FF0E0234FF08052C3F8042D02B09C
:10178000BDE8F087DFF8A890DFF8988040214A464E
:10179000254B04F0A1FED8F81430D9F80C00013321
:1017A000C8F8143002F0FEFFDFF888A00746DAF828
:1017B00000000BF0A1FE07F12803984224D349460C
:1017C0002822DAF8000001AB0BF052FF002FC2D044
:1017D0003A46DAF80000144901AB0BF049FFBAE7CA
:1017E0000424104B11499A69086801329A611A79E8
:1017F000002142F008021A71336800680DEB040200
:101800001C650DF0BFF8B2E7D8F81830294601334F
:10181000C8F81830054B01AA1B6818680DF0B2F81B
:1018200099E700BF00000320C0290320002A0320FD
:101830009829032014290320002110B50A4A0B4CD3
:101840001268236982B01068013301AA23610191F3
:101850000DF098F8019B2BB14FF0E0234FF0805230
:10186000C3F8042D02B010BD042A03200000032099
:10187000002110B50A4A0B4C1268E36982B0106867
:10188000013301AAE36101910DF07CF8019B2BB1BA
:101890004FF0E0234FF08052C3F8042D02B010BD8A
:1018A000002A03200000032038B50C46104D2946BD
:1018B00004F0ACFEA10303D5EB68A3B90D4A136095
:1018C000620309D52B690B4A012B13790CBF43F036
:1018D000040303F0FB031371230303D50122054B1B
:1018E00083F8202038BD4FF00042024B1A60E7E732
:1018F0006C29032000000320704700BF91B14FF016
:10190000FF3210B4084C014410F8013B5340DBB2E5
:1019100054F82330884283EA1222F5D1D0435DF88F
:10192000044B704708467047CCF900080022014B71
:101930001A607047102A032000F0B2BC024A1368F4
:1019400001331360704700BF102A0320024A136856
:1019500001331360704700BF0C2A032000200CF0F5
:10196000A5BA00BF00200CF0A1BA00BF00200CF007
:101970009DBA00BF00200CF099BA00BF0022014BB5
:101980001A7070477600032051B310B5C0F3074CAE
:10199000BCF1EF0F0C4682B04FEA102EC0F31123BA
:1019A00015D84FF20900844B0EEA030383424DD849
:1019B000B3F5704F53D9A3F57043013B082B0DD8F5
:1019C000DFE803F0670C756E830C0C0C7C004FF2A3
:1019D000090C634505D8B3F5704FECD102B010BDCA
:1019E00070474FF6027C6345F8D84FF6F06C6345BC
:1019F00040F28F80A3F57E43F13B112BEED801A17D
:101A000051F823F0D91A0008DD190008DD19000883
:101A1000DD190008DD190008DD190008DD190008CE
:101A2000DD190008DD190008051B0008DD19000894
:101A3000DD190008DD190008DD190008DD190008AE
:101A4000F71A0008DD190008E71A00084FF60271BE
:101A50008B42C3D84FF6F0618B42CBD8BEE7B3F5CB
:101A6000806F0AD077D873B1B3F5807FB6D11046B6
:101A7000FFF74CFB514BD881B0E71046FFF7BEFA99
:101A80004E4B5880AAE71046FFF7DEFA4B4BD88042
:101A9000A4E721461046FFF7BFFA484B18809DE7A0
:101AA00021461046FFF7F4FA444B988296E7214608
:101AB0001046FFF7D5FA414B98808FE72146104634
:101AC000FFF710FB3D4B188188E721461046FFF7D2
:101AD00029FB3A4B187381E721461046FFF774FB48
:101AE000364B58827AE721461046FFF727FB334BE7
:101AF00083F8200072E721461046FFF7B9FB2F4B11
:101B0000D8836BE721461046FFF76EFB2B4B1882FC
:101B100064E74FF6D454A3420ED1C3B2212B3BD07D
:101B20005A2B7FF45BAF1046FFF72EFB03283FF4E0
:101B300055AF224B987551E74FF6416083421DD057
:101B40004FF6CC5083427FF449AF1046FFF72AFB93
:101B50001A4B588342E7B3F56F4F7FF43FAF5FFAFC
:101B60008EFEBEF1130F20D0BEF15A0F7FF436AFB8
:101B70001046FFF711FB114BD8752FE71046019265
:101B8000FFF760FB019A137803F00303032B3FF484
:101B900025AF0A4B188321E71046FFF72DFB0328DA
:101BA0003FF41CAF054B988318E71046FFF77CFA0B
:101BB000024B588112E700BF00FF030054000320CE
:101BC000264B1B7893B92DE9F0410646244D82B08F
:101BD00005F10C0755F8044BE36E626EF31A93425D
:101BE00005D2AF42F6D102B0BDE8F0817047B4F93A
:101BF000723004EBE300002B00F1240008DBB4F8A2
:101C0000683002225BBA01A9ADF8043002F0D6FDBB
:101C1000B4F9743004F12408002B4FEAE30111DB1E
:101C20004046FFF76BFE04220190B4F974000DEBFF
:101C300002010028B8BF0730C010243004FA80F039
:101C400002F0BCFD074B41461B6820462361FFF7AD
:101C500013FDA36EE6660133A366C2E77600032098
:101C6000CCFD00080000032038B50446084B094DA0
:101C70001A60094B049A29601A6000F04DF820465A
:101C800001F002FD204602F0BDFD002038BD00BF7E
:101C9000182A03201C2A0320142A032038B50546DD
:101CA00001F012FD0446284602F0B8FD2043C0B200
:101CB00038BD00BF70B5154B82B01B6804460D4699
:101CC000164601F037FD01280AD0114B324629464D
:101CD00020461B6802F0CCFD01280BD002B070BD7D
:101CE00000220C4B11461B681868022300920CF06E
:101CF00029FDEAE70022074902230968086811461E
:101D000000920CF01FFD02B070BD00BF182A032026
:101D1000142A03201C2A032000B583B0102001A937
:101D200000F09EF808B903B000BD0021102000F0BB
:101D30007FF8003818BF012003B000BD00B583B0A4
:101D4000102001A900F08CF820B90146019820B9B3
:101D500003B000BD012003B000BD102000F068F802
:101D6000003818BF012003B000BD00BF70B50026C9
:101D700082B004460D46102001A9019600F070F8CB
:101D800010B9019BA34202D8012002B070BD04F13A
:101D90001100294680B200F063F8801B18BF0120B3
:101DA00002B070BD002210B5114B82B01B780192B9
:101DB00013B9184602B010BD044601A9102000F066
:101DC0004FF840B901981130FF2804D8214680B25D
:101DD00000F02EF818B10123184602B010BD019989
:101DE0001020013100F024F8031E18BF0123E0E7A2
:101DF00077000320014608B5102000F031F80038C4
:101E000018BF012008BD00BF10B504F091FD0020EF
:101E100009F0E6FE044618B904F09EFD204610BD08
:101E2000002009F0ABFA04F097FD204610BD00BF7A
:101E300038B504460D4604F07BFD204629460AF0DD
:101E400077F9C305044603D404F086FD204638BD67
:101E500009F06EFB0443A4B204F07EFD204638BDB9
:101E600009F0C8BC4FF4805270B500240E468318A8
:101E70000470C0F80240047384601C74C3F81240FC
:101E80009C61DC8100F5005305462146C3E9074407
:101E90005E620D300DF074FB4FF48052A81821469D
:101EA000BDE870401C300DF06BBB00BFF0B50446C0
:101EB00083B0836031B3157894462B09032B21D866
:101EC000DFE803F0253A600205F00F0500F5005643
:101ED000012986F8215000F0AB809CF801300229DE
:101EE00086F8223000F0A7809CF8023086F8233074
:101EF000002D00F0AC80012D00F09F80032204F53E
:101F000080531A74237B012B73D003B0F0BD037888
:101F10000BB1002303706B1E062BF3D801398D42E1
:101F2000F0D82A460CF1010104F10D0002F046FC44
:101F3000022365802370E5E703780BB1002303706B
:101F40000729DFD99CF800309CF801201B0203F41C
:101F500070631343072BA380D4DD06220CF102012A
:101F600004F10D0002F02AFC01220021062004F5F4
:101F7000005622706080B17704F58051CA81302309
:101F8000F27F3CE00378012BBCD100F58057FA8941
:101F900005F00F0502F00F039D4246D14088A3884B
:101FA0001B1A9BB2072B5BD90829ABD10132FA81EE
:101FB0004B1EDDB20D302A460CF10101204402F027
:101FC000FDFB6388A2882B449BB29A4263804FD06A
:101FD00004F50056F27F002A94D0FB89013B93FB65
:101FE000F2F102FB1133002B8CD1B37F43F03003AD
:101FF00005E004F50056B37FF27F43F03003002183
:1020000096F8200021738DF802000320746A8DF881
:1020100000308DF8012002F0CBFB03466946706A60
:10202000E360FFF729FB03B0F0BD0023037069E70D
:10203000002386F82230002358E704F58052137CF1
:10204000013B012B3FF65EAF022313745AE704F500
:1020500080531A7C022A7FF455AF01221A7451E78B
:102060008B42BFF44FAF0132072BFA81A1D19FE71A
:102070000223237046E700BF2DE9F84300F58056A0
:10208000347C012C03D000242046BDE8F88300F501
:1020900000580F4698F823101D46F12928BF01214A
:1020A000B3698446EB1A8B42EDD3718AB38A99B92E
:1020B000072B51D81046314600F8013BB28A1C313B
:1020C00002F07CFB0322B38A01333B70B38A738234
:1020D000A8F81C4032743BE010465B1A1FFA83F9E3
:1020E000B8F81C30B9F1070F03F00F0343F02003D9
:1020F00000F8013B738A03F5805303F11C030CEBDA
:10210000030114D9072202F059FB08233B70738A9C
:102110000733738298F82220B8F81C30AAB1B3FBB9
:10212000F2F102FB113282B9022232740DE04A460A
:1021300002F044FB032309F101023A703374738AFD
:102140009944B8F81C30A6F812900133A8F81C3056
:102150002046B561BDE8F883C3F3032343F01003C1
:102160001370B38A00F580515370901C1C31062205
:1021700002F024FB082306223B7002237282A8F897
:102180001C403374E4E700BF0378012B06D182685A
:10219000034B891A9942C4BF002303700020704783
:1021A000400D030030B500F5805514462A7C0B46DF
:1021B000013A012A93B006D8AA698A1A12498A42BA
:1021C00084BF03222A7402AA0DF10701FFF754FF0E
:1021D00050B92B7C032B02D0002013B030BD00235C
:1021E00001202B7413B030BD9DF8070002F0E0FA17
:1021F000E06002E0012002F0F9FA204602A9FFF7B0
:102200003BFA0028F6D1E4E7400D030000F5805CBE
:10221000BCF81430B3F5805F0ED800B500224FF043
:10222000010E00F50053ACF812209A838CF810E0F0
:102230001046CCF8181000BD01207047830F032B07
:10224000C0F30D4020D0012B0ED0B3B9B0F5B97F4B
:1022500021D01F235FFA80FC000A012281F800C010
:1022600048708B70CA70704740F263539842F0D147
:1022700002204FF0740C0D23EFE79128E9D10B20D9
:102280004FF0380C0223E8E72928E2D102204FF072
:102290007F0C0923E1E70B204FF0EF0CDDE700BFD7
:1022A0002DE9F04F456893B0B5F1804F02D013B0DF
:1022B000BDE8F08F0668C068C6F307470C4602F019
:1022C00071FAEA2FC6F3072832D0EC2FEFD1B8F11C
:1022D000130FECD10728EAD92378102BE7D1E37943
:1022E0003002C549A27980B20143647908201B04F9
:1022F00043EA0223234300224FF0FF34099123FADB
:1023000000F18DF821308DF822101B0C0C9007A9DC
:1023100009A8CDE90D22CDE90F220A958DF82330C9
:102320000B92119207948DF82040FFF7A5F9BEE7B4
:102330000228BCD9B8F1FF0F23D0B8F1130FB6D1E2
:10234000A378617822781B0443EA01231343B3F591
:102350006E4F40F0C480A94A33029BB21A43002357
:102360004FF080450824A64909A8CDE90A53CDE9D4
:102370000C43CDE90E33CDE910330992FFF77CF918
:1023800095E7A378617822781B0443EA012313437D
:10239000B3F56E4F00F02E814FF6C552934200F018
:1023A000CB804FF6CA62934281D14FF0000904A856
:1023B000CDF81090FFF71EFD924B049AB3F81EA0C3
:1023C000012ACAF3400A4FEA8A1A4AF03F0A5FFA22
:1023D0008AF440F22981920002321FFA82FA8A4B73
:1023E0000AF10601A3FB0103C91A03EB5103C3F36E
:1023F00087074FF0804385490A93099108212023DC
:102400000C91834907AA08910DF1240B4FEA1A2178
:102410008DF81E10584611468DF81C301546CDE932
:102420000D99CDE90F99CDF82C90CDF844908DF809
:102430001DA08DF81F70FFF71FF9764B0993002F31
:102440003FF435AFCDE9027B4FF00108A3460DF113
:1024500023060822FF21284602F0ACF933465646EF
:102460009A4608F1FF34C4EBC4048DF81C80A4B272
:102470000195A6421ADDA3B243B3012B2DD0A7B21A
:10248000023F05A9B810CDF8149007F00307FFF735
:102490006DFC059806A9FFF7D1FE0DEB07031B7E27
:1024A00005F8013FAA4504F10104E2D15346019D1C
:1024B00003982946B24608F101081E46FFF7DCF8EA
:1024C000029B5FFA88F84345C3D2F0E605F801BFE6
:1024D000AA4504F10104CED1E8E7FF23E0E74FF677
:1024E000C552934228D04FF6CA6293423FF45DAF83
:1024F00008270022FF240A956FF0FE0506FA07F070
:10250000454980B20143099123FA07F18DF8213042
:102510008DF822101B0C07A909A8CDE90B27CDE9DE
:102520000D22CDE90F228DF82330119207958DF8F9
:102530002040FFF7A1F8BAE6384802F04BF9002234
:102540004FF080410824314DCDE90A120995054626
:102550002021CDE90C42CDE90E22CDE91022304AEE
:10256000294B0892AA1D8DF81C10A3FB0213D21A46
:1025700007A803EB520325FA04F10DF1240BC3F372
:1025800087088DF81E100746014658468DF81D50E5
:102590008DF81F80FFF770F81E4B0993B8F1000FFC
:1025A0003FF485AE0124DFF874900DF12306A4EB0F
:1025B000090A0822FF21384602F0FCF83A46631E59
:1025C000C3EBC3039BB2013B8DF81C404B440AEBA9
:1025D00003018D4205DD13F8011F02F8011F964229
:1025E000F5D1013439465846E4B2FFF745F8A04525
:1025F000DFD25CE60B4AB2E61300EC1C1300EE18C7
:10260000F0FD0008540003202549922413FFEC1C20
:10261000FFCAFE0013FFEB1C1300E818D8FD0008EA
:10262000FFC5FD0013FFEE1808224FF08043164946
:102630000C92099107A908460D46FF210A93CDE99E
:102640000D99CDE90F99CDF82C90CDF8449002F07A
:10265000B1F8FF22049B8DF81C40012B8DF81D2042
:1026600006D0CDF81E90294609A8FFF705F81EE60A
:1026700006A94846CDF81890FFF778FB06980DF1AB
:102680001E01FFF7DBFDEEE713CAFE182DE9F0434C
:10269000144602780646013A1D4685B0092A11D82B
:1026A000DFE812F01C0010000A009A011000100070
:1026B0000A00100076010A00012900F09A817F22A9
:1026C000122101E07F221121032322703278A170B0
:1026D00062702B80002005B0BDE8F0830229EED1A6
:1026E0004123237043786370A62BE8D801A252F8E7
:1026F00023F000BFDB2B0008BD2B0008BF2600081D
:10270000BF260008872B00087D2B0008BF26000885
:10271000BF260008BF260008BF260008BF26000805
:10272000BF260008672B0008572B0008BF260008AB
:10273000BF260008BF260008272B0008BF26000878
:10274000BF260008BF260008BF260008BF260008D5
:10275000BF260008BF260008BF260008BF260008C5
:10276000BF260008BF260008BF260008BF260008B5
:10277000912B00084B2B00081D2B0008BF260008DA
:10278000BF260008BF260008BF260008BF26000895
:10279000BF260008BF260008BF260008BF26000885
:1027A000BF260008BF260008BF260008BF26000875
:1027B000BF260008272B00081D2B0008BF26000895
:1027C000BF260008BF260008BF260008BF26000855
:1027D000BF260008BF260008BF260008BF26000845
:1027E000BF260008BF260008BF260008BF26000835
:1027F000BF260008092C0008FD2B0008F12B00085B
:10280000BF260008BF260008BF260008E72B0008E7
:10281000BF260008BF260008BF260008BF26000804
:10282000BF260008BF2600081D2B00081D2B00082E
:10283000BF260008BF260008BF260008BF260008E4
:10284000BF260008BF260008BF260008BF260008D4
:10285000BF260008BF260008BF260008BF260008C4
:10286000BF260008BF260008BF260008BF260008B4
:10287000BF260008312B0008BF260008BF2600082D
:10288000BF260008BF260008BF260008BF26000894
:10289000BF260008BF260008BF260008BF26000884
:1028A000BF260008BF260008BF260008BF26000874
:1028B000BF260008BF260008BF260008BF26000864
:1028C000BF260008BF260008BF260008BF26000854
:1028D000BF260008BF260008BF260008BF26000844
:1028E000BF260008BF260008BF260008BF26000834
:1028F000BF260008312B0008BF260008BF260008AD
:10290000BF260008BF260008BF260008BF26000813
:10291000BF260008BF260008BF260008BF26000803
:10292000BF260008BF260008BF260008BF260008F3
:10293000BF260008BF260008BF260008BF260008E3
:10294000BF260008BF260008BF260008BF260008D3
:10295000BF260008BF260008BF260008BF260008C3
:10296000BF260008BF260008BF260008BF260008B3
:10297000BF260008B12B0008BF260008BF260008AC
:10298000BF260008BF260008BF2600083F2B00080E
:1029900002297FF494AE49232370437863700A2B95
:1029A0003FF68DAE01A252F823F000BF4B2A00087B
:1029B000BF260008772A0008BF260008592A000809
:1029C000BF2600080D2B0008BF260008BF26000800
:1029D000BF260008E32A000801297FF470AE0191A8
:1029E000FFF7ACF9019968BB337840332370298035
:1029F00070E602A8FFF7FEF920BB029B5A1C5200AA
:102A00002A80327863704032DBB22270002B3FF4B0
:102A100061AE074604F1020904F103080CE0039BD0
:102A20001A0E09F817201B0C9DF8082008F817301B
:102A30000137BA427FF64EAE384603A9FFF796F942
:102A40000028ECD07F2210213EE644F254020623F7
:102A5000C4F802202B803DE6012313276E4EA3709D
:102A60000FCEC4F80300C4F80710C4F80B20C4F854
:102A70000F302F802EE614230120E61C3146A07073
:102A80002B80FFF7EDF9E11D05460220FFF7E8F97D
:102A9000034604F10B0103201D43FFF7E1F9034650
:102AA00004F10F010420ADB21D43FFF7D9F903462D
:102AB000ADB2052004F113011D43FFF7D1F9ADB20A
:102AC00045EA00039BB2002B3FF404AE0023C4F898
:102AD0000330C4F80730C4F80B30C4F80F30E37487
:102AE000F8E501231727E61C142200213046A370C5
:102AF00001F060FE494B07CB1B78C4F80300C4F813
:102B00000710C4F80B20E3732F80E3E57822072336
:102B10004349A271C4F802102B80DBE50422002394
:102B20002A806380D6E5032200232A80A370D1E5A2
:102B300006224FF080732A80C4F80230CAE50622CC
:102B4000384B2A80C4F80230C4E50622364B2A806E
:102B5000C4F80230BEE50322344B2A809B8AC3F3BB
:102B60000723A370B6E50423304A2B809388C3F370
:102B70004A13A3709388DB00E370ABE50322742350
:102B80002A80A370A6E503224C232A80A370A1E526
:102B900004232B800BF0C0FA254DA5FB00239B0BD3
:102BA000A3700BF0B9FAA5FB00539B09E37091E504
:102BB000062204232A80C4F802308BE503A8FFF71D
:102BC00019F938BB039A02F07F02002306212980FD
:102BD000A270E370237163717CE50622154B2A8095
:102BE000C4F8023076E5032251232A80A37071E5F0
:102BF00004224BF635732A8063806BE5062200239E
:102C00002A80C4F8023065E506220B4B2A80C4F8FE
:102C100002305FE50022D8E700F8000810F800084D
:102C2000011234561234567880018001540003207A
:102C3000D34D621098188003A40C0001814204D97E
:102C400000F17840B0F5802F01D30020704701F1EA
:102C500078410139B1F5802F2CBF00200120704749
:102C6000814208D9B0F1005F05D3044881428CBF8E
:102C70000020012070470020704700BF00000420A2
:102C8000814211D9B0F1005F10D31A4B994219D982
:102C9000194B984208D9194881428CBF0020012065
:102CA0007047B0F1006F15D200207047144B984266
:102CB0000AD8144B9842F4D9134881428CBF0020A3
:102CC0000120704701207047104881428CBF0020CE
:102CD000012070470E4B9942E6D80E4BB3F8E03016
:102CE000B3F5007FEED00C4881428CBF002001205C
:102CF000704700BF000004203F20024040210240F6
:102D0000FFFFF90BFFFFF80B0080F90B0002FA0B35
:102D1000000008080005FA0B0000040800B58BB09D
:102D200001A804F001F80598AA3818BF01200BB0DB
:102D300000BD00BF00B58BB072B601A803F0F4FF70
:102D400004214FF40052079B019143F08063CDE9C9
:102D5000062303F0EDFD18B162B601200BB000BDF3
:102D600003F006FE0028F7D101A803F0BBFE10B95E
:102D700003F020FEF0E703F00FFE03F0EDFDEBE7BC
:102D800010B58AB003F0D4FD044603F0F1FD04430E
:102D900001A803F0C9FF04214FF480729DF81E3092
:102DA000E4B2C3F3001383F001031B05CDE906234E
:102DB000019134B103F0F0FD03F0CEFD01200AB023
:102DC00010BD01A803F08EFE0028F3D103F0F2FD40
:102DD000044603F0E1FD044303F0BEFDE4B22043EA
:102DE000C0B2003818BF01200AB010BD30B58BB09A
:102DF00003F09EFD044601A803F096FF0023802205
:102E00000798022110F4801FCDE9033200930CBF14
:102E100002230123019101A86946029304F01AF8E4
:102E2000054603F099FD28432043C0B2003818BF7F
:102E300001200BB030BD00BF70B503F079FD054631
:102E40000F4C104ED4E90023B3F1FF3F08BFB2F19D
:102E5000FF3F04F5802107D0012003F0E7FD0028A3
:102E600018BF45F00105EDB20834B442EAD103F0D1
:102E700073FD2843C0B2003818BF012070BD00BFE9
:102E800000E0030800000408002330B58FB0009371
:102E900003F04EFD0223044605A8019303F044FF0E
:102EA0000B9B042213F4801F4FF07C0014BF0223FD
:102EB0000123694603900DEB02000492029303F094
:102EC000C9FF054603F048FD054344EA0500C0B2CA
:102ED000003818BF01200FB030BD00BF014608B553
:102EE000012003F0A3FD003818BF012008BD00BF7A
:102EF0000022014B1A607047202A03201D4A1E49F8
:102F0000B2F802C01388BCF5E06F34BF4FF0000C7C
:102F10004FF0010C9288C3F57F630F33B2F5306F29
:102F20000B8081F802C011D2B2F5E06F1DD2B2F56C
:102F3000407F1CD2B2F5807F8CBF00220122CB786B
:102F40009200934206D10D4B186070470122CB7856
:102F50009342F8D010B4094C2368C31AFA2B01D954
:102F60002060CA705DF8044B70470222EFE703222D
:102F7000EDE700BF242A032078000320202A032045
:102F80000022014B1A7070472A2A0320114B124A63
:102F90001B781088917873B16FF4FC63C3183E2BD3
:102FA00010D94FF47F4C0D4B1881A3F818C021B9EC
:102FB000598A89B201E0094B18811982D27802B18D
:102FC0001A837047054B588980B21881588A80B29D
:102FD0001882ECE72A2A03207800032054000320FB
:102FE000014B1860704700BF2C2A0320704700BFB8
:102FF00000B5044B83B0186801A906F099FE01984A
:1030000003B000BD2C2A03200D4B02781B68403210
:1030100001291A700FD900B5A1F1020E10FA8EFE27
:10302000024610F801CF724503F801CFF8D1054BE5
:103030001B68198000BD034B1B681980704700BFD7
:10304000542A0320502A032070B50129044682B077
:103050000BD9457805F07F05012D14D0022D02D043
:103060007F20122503E006292CD07F201325032181
:10307000344B354A1B681268187020789D70587060
:10308000118002B070BD40F26713ADF80030FFF759
:10309000AFFF2E4A2E4B4240C3E903021D7794F93D
:1030A000013000BA002BCDF80200EADB0621254BE7
:1030B000254A1B680098BDF80440126818609C807F
:1030C0001180DEE7224B9A69042A02D97F20362537
:1030D000CDE758685969411A092902D87F20372558
:1030E000C5E7197F012902D07F202425BFE7D4F846
:1030F00002101E6909BA8E4215D04FF0000E4FF033
:103100007F0C58613525032001329A610D4A0E4922
:10311000126883F81CE082F800C0237809685370B5
:1031200095700880ADE71D7794F90130002BA8DB7E
:1031300040F26721034A044B12681B6811801D800E
:103140009FE700BF542A0320502A032078563412E8
:10315000302A0320022910B510D04FF07F0E4FF017
:10316000130C03210F4B104A1B68126883F800E010
:10317000007883F802C05870118010BD437833B1D5
:10318000802BFAD04FF07F0E4FF0120CE9E7054A82
:103190000378126840331370034C407823685070F2
:1031A000198010BD542A0320502A0320022930B56B
:1031B00010D04FF07F0E4FF0130C0321424B434AC7
:1031C0001B68126883F800E0007883F802C058702A
:1031D000118030BD437803F07F03022B2FD0032BE7
:1031E0001BD0012B3ED10022394C3A4D23703A4B73
:1031F0002A705A73C4E90322C4E90522227790F9A0
:1032000001304278002BE4DB50242F4B2F481B6801
:1032100000685A701C70018030BD304A928A92B2A8
:10322000B2F5805F47D37F258824274A2749126853
:10323000096815700078947050700B8030BD274A73
:10324000928A92B2B2F5805F1BD37F25222403219C
:103250001D4B1E4A1B6812681D7000789C705870C8
:10326000118030BD4FF07F0C12240321164B174AFA
:103270001B68126883F800C000789C705870118039
:1032800030BD00221249144CC1E90322C1E90522D4
:10329000104D62730A772A7090F901200B70002A92
:1032A000417896DB5024084A08481268006851703B
:1032B0001470038030BD0022054C074D2370054B70
:1032C0006A731A7096E700BF542A0320502A03201D
:1032D000302A0320582A03205C2A032054000320AC
:1032E000204B214A022910B51B6812680CD04FF000
:1032F0007F0E4FF0130C032183F800E0007883F871
:1033000002C05870118010BD184C94F800C0BCF178
:10331000010F11D090F801C00CF07F0CBCF1010F2F
:1033200012D04FF07F0C1224032183F800C00078E4
:103330009C705870118010BD7F2103241970007893
:1033400099705870148010BD047840341C70447813
:103350005C70118090F90130002BD4DABDE8104088
:1033600002F03ABC542A0320502A0320302A0320BA
:10337000022910B510D04FF07F0E4FF0130C03212F
:10338000184B194A1B68126883F800E0007883F82C
:1033900002C05870118010BD427802F07F03012BEB
:1033A00013D0022B04D04FF07F0E4FF0120CE6E743
:1033B0001206F0D40B490278096840320A700A4CB0
:1033C000407822684870138010BD1406E3D4054A83
:1033D0000378126840331370034C407823685070B0
:1033E000198010BD542A0320502A0320012970B5EA
:1033F0001FD9427802F07F03012B10D0032B1CD081
:103400004FF07F0C12240321394B3A4A1B68126893
:1034100083F800C000789C705870118070BD02293C
:103420002AD08378103B032B51D8DFE803F04C4AB5
:10343000444E4FF07F0C1324E5E72F4C217869B1FF
:10344000120626D402212A4A0378126840331370E8
:10345000284C407823685070198070BD4FF07F0C65
:103460002224234A23491268096882F800C00078A0
:10347000947050700B8070BD7F25132403211C4B6A
:103480001C4A1B6812681D7000789C70587011806F
:1034900070BD0123194D2E782B70FEF77DF84FF487
:1034A0007A7009F077FBF6B22078FEF77BF8FDF72B
:1034B000ADFF2E7070BD36230F490B701306C1D5BA
:1034C00070BD3523F8E73423F6E73823F4E77F228D
:1034D000002631240321064B074D1B682E701A70FD
:1034E000044A0078126858709C70118070BD00BF4B
:1034F000542A0320502A0320582A03207600032050
:1035000030B54378044685B013B98378442B0FD087
:103510007F204FF0310C03213C4B3D4A1B68126861
:103520001870207883F802C05870118005B030BD43
:103530000B2903D07F204FF0130CECE7354B1978A3
:10354000022903D04FF07F0C7F20E4E71B7F022B82
:1035500011D1314D6B7B13F0FB030FD07F2024255D
:1035600003212A4B2A4A1B681268187020789D7024
:1035700058701180DAE74FF0330CE5E7D0F803001C
:10358000AB6001232B73D4F8073000BA1BBAC11803
:103590006B6001922860FFF751FB1C4B19681C4BB4
:1035A000D3F800C040B36B68019A13F0070F0AD03C
:1035B0007F2370200B70032394F800E0887081F85B
:1035C00001E0ACF8003023786A734FF20F04202535
:1035D00040338DF80C3003AA4B1EC81C8DF80D50DB
:1035E000ADF80E4012F8011B03F8011F8342F9D118
:1035F0000423ACF8003099E77F22312003230A70BE
:10360000227888704A70ACF800308FE7542A032083
:10361000502A0320302A03205C2A0320042910B5F5
:1036200004460ED07F204FF0130C0321144B154A93
:103630001B6812681870207883F802C058701180D7
:1036400010BD4378FF2B03D07F204FF0310CECE707
:103650008378FF2BF8D1C378FF2BF5D1FEF76EFBF3
:10366000074B084A1B68126820B17F204FF0720C8C
:103670000321DFE70120217840311970108010BD4F
:10368000542A0320502A032038B500240122094B74
:1036900009490A4D4C73586009490A48C3E9034473
:1036A000C3E905442C701A701C77FEF7DBFB20463B
:1036B00038BD00BF302A03205C2A0320582A03208B
:1036C0007C000320549F0120114B01461A78032AE5
:1036D00002D01048FEF758BD41F288305A688A1A65
:1036E0008242F6D900224FF0010C10B40A480B4C6C
:1036F0004273227083F800C01A7706485DF8044BC5
:10370000C3E90322C3E905225960FEF73DBD00BFAE
:10371000302A0320549F01205C2A0320582A0320CA
:103720000146024A0248FEF73DBD00BFA00003204B
:10373000549F01202DE9F0410025476884B0B7F17E
:10374000804F8DF80D50ADF80E5003D0002004B01E
:10375000BDE8F0811E4603680446C3F30740DA283B
:10376000C3F38268C3F3072C5CD0DB28EED1BCF135
:10377000FF0FEBD1E068CDE9001301F013F800284A
:10378000E4D000990D78002DE0D005F0080252EA4F
:103790001512019BDAD1E068CDE9003101F002F8A1
:1037A000DDE90031421E9542D0D80C4601221D02AF
:1037B000ADB245EA886514F801CBDFF804E1DFF823
:1037C000FC8045F45A0545F0130530684FF0FF338F
:1037D000CEE90057C8E900570DF10D010CF00F05B7
:1037E0008DF80D20ADF80E5009F0A8FE4FF0FF3314
:1037F000022205460DF10E01306809F09FFE0246D7
:103800004FF0FF3321463068AC18BDF80E2009F0A8
:1038100095FEBDF80E3004440333A3424BD0FDF7B0
:10382000CDFB48E0BCF1130F90D11B029BB243EAE1
:103830008863E06843F45A03204C43F01303C4E95F
:1038400000371F4CCDE90012C4E9003700F0AAFF91
:103850000746019A00991B4C134620460A463946F2
:10386000FEF724FB2778022F7FF470AF4FF0FF3371
:1038700001220DF10D0130688DF80D5009F05EFE4A
:103880004FF0FF333A460546A11C306809F056FE5A
:1038900002464FF0FF3315443068628804F10D0191
:1038A00009F04CFE638805440333AB4201D0FDF7B9
:1038B00085FB00232370012049E700BFA0000320FF
:1038C0007C000320549F01202DE9F04F00248FB08D
:1038D000DDF860C09E4FACF800409E4E0C469E49FD
:1038E0001D469146C6F800C048603B60002A00F0C3
:1038F000838023780F2B40F29080A3F11002772A67
:1039000000F28880DFE812F095009C0086008600B7
:10391000A3008600860086008600AA008600860036
:10392000860086008600860086008600D100D700CB
:103930008600860086000A018600860086008600D2
:10394000860086001101860086003501860086000B
:103950007C01D301D9012A018600860086008600F9
:10396000860096018F01860086008600860086000C
:103970008600860086008600860086008600860017
:103980008600860086008600860086008600860007
:1039900086008600860086008600860086008600F7
:1039A00086008600860086008600860086008600E7
:1039B00086008600860086008600860086008600D7
:1039C00086008600860086008600860086008600C7
:1039D00086008600860086008600860086008600B7
:1039E00086008600860086008600860086008600A7
:1039F0009200EE01860003017F2284F800901321DB
:103A000003232A702278A9706A70ACF800300FB0D6
:103A1000BDE8F08F7F221121F2E763462A4649462E
:103A200020460FB0BDE8F04FFEF730BE7F221221D6
:103A3000E6E7494620460FB0BDE8F04FFFF7B6BBBA
:103A4000494620460FB0BDE8F04FFFF749BC494654
:103A500020460FB0BDE8F04FFFF7E0BDB9F1020F0F
:103A600027D959232B7004236278AB706A7063786E
:103A700003F07F03012B00F02483022B00F051831D
:103A80007F2312222B7003232178AA706970ACF86F
:103A9000003094F90130002BB9DA3B681B787F2B9A
:103AA000B5D0002233681A80B1E7B9F1030F00F0F6
:103AB00057827F22A3E7B9F1010FFAD0637803F0B0
:103AC0000F02042AB2D103F0F002402AAED80A78DD
:103AD000012A33D01B099A1D9145EAD1002B00F031
:103AE000CD844FF00008013BDB00611D11F8012F70
:103AF0009A40083B13F1080F48EA0208F6D140F655
:103B0000FE73984540F2BB847F22312178E7494615
:103B100020460FB0BDE8F04FFFF768BC494620468D
:103B20000FB0BDE8F04FFFF78FBAB9F1020FC0D95F
:103B300091F80080B8F1020F00F0CB827F230322BE
:103B40002B702178AB706970ACF800205FE700BF84
:103B5000542A0320502A0320302A0320B9F1010FF0
:103B6000A7D1B64B5A7B032A00F01E837F22242163
:103B700046E7B9F1030F9CD994F901206378002A34
:103B8000BCBF03F07F0363706388B8BF4FF00108C8
:103B90005BBA9BB2A8BF4FF00008B3F5097F80F273
:103BA0000C83B3F5007FC0F2A480A3F50073232B30
:103BB00000F29F80DFE813F0EB00DA0048013301E8
:103BC00031011101B501A70165015A019D009D0058
:103BD0009D009D009D009D00830174019D009D003E
:103BE0009D009D009D009D009D009D009D009D00ED
:103BF0009D009D009D009D000A010301BF00B400CF
:103C00008F4BB3F8E030B3F5007F7FF403AFB9F129
:103C1000020F7FF64EAF0122494620460FB0BDE8A5
:103C2000F04FFFF76DBC494620460FB0BDE8F04F9E
:103C3000FFF790BAB9F1010F3FF43BAF637803F09F
:103C40000F02042A7FF4F2AE03F0F002402A3FF69E
:103C5000EDAE1B095A1D4A45BFF62BAF002B00F0F5
:103C600069844FF00008581EC00004F1050E1EF8CC
:103C7000012F8240083848EA020210F1080F1FFAAB
:103C800082F8F4D103F1060A0AEB080399457FF4A0
:103C900010AF0B78022B00F010847F237F210322CA
:103CA00029702178AB706970ACF80020AFE6B9F1EB
:103CB000020F7FF6FEAE0222AEE7B9F1010F3FF42C
:103CC000F8AEDFF8788198F80D30012B00F0E08134
:103CD000022B7FF44BAFB9F1020F00F085827F22F7
:103CE00071218DE6494620460FB0BDE8F04FFFF741
:103CF0003FBB7F232B7023786B703123AB704FF069
:103D00000309ACF80090B8F1000F3FF480AE3B68B7
:103D10001B787F2B3FF47BAE0023ACF8003076E6B7
:103D2000B9F1040F00F0F1837F232B7023786B70BF
:103D30001323AB70E3E7B9F1070FF5D1201DFDF7B1
:103D400087FCFDF763FB0A2008F024FF042122789A
:103D50003B684032D6F800C01A7062785A70A27878
:103D60009A70E278DA70ACF80010CCE7FFF78CF8C4
:103D7000D6F800C03B68002800F0DF837F221A706D
:103D800022784FF003095A7072229A70B9E7B9F19C
:103D9000040FC9D16378012B00F04F84022B78D136
:103DA0000022284B1A70237840332B7063784FF031
:103DB00004096B70A378AB70E378EB70A1E7B9F1FD
:103DC000050FB1D12079FDF73BFCBAE7B9F1070F38
:103DD000AAD1201DFDF726FCB3E7B9F1060FA3D148
:103DE00040F6FB72A3885BBA9BB2934281D87122E2
:103DF00029462A706278181F6A70A278AA70E27841
:103E000001F8032F002202E001F8012F0132904255
:103E1000FADC04331FFA83F973E77123C5E77123D2
:103E2000621C2B70A9F1020312FA83F314F8012F1C
:103E3000A34205F8012FF9D163E700BF5C2A0320F4
:103E40000005FA0B76000320FEF7F6FFD6F800C057
:103E50003B68002892D10122217840311970A15C81
:103E60009954013291B28945F9D84AE70B7F022B68
:103E700000F0FD827F232B7023786B703323AB70AF
:103E80003DE7B9F1080F7FF44FAF6378012B00F0E5
:103E9000C0837F232B7023786B701223AB702EE7C7
:103EA000B9F1040F7FF440AF0B78022B00F07B8355
:103EB0007F237F222A702278AB706A701FE7B9F1E6
:103EC000040F7FF431AF0B78022BF1D10B7F022B63
:103ED00040F099836378012BDBD1FEF71FFF0028A8
:103EE00040F08B83FEF726FF002840F02F8204214C
:103EF0002046FFF789F8D6F800C0BCF80030002B48
:103F00003FF485ADFFE6B9F1040F7FF40DAF6378A0
:103F1000012B00F07A83022BBBD10022BC4B1A701C
:103F200041E7B9F10B0F7FF6FFAE6568D4F8089052
:103F30002DBA99FA89F9284609EB0501FEF7A0FE8A
:103F4000002840F03D837F223B6831211A7022789F
:103F5000D6F800C05A7003229970ACF80020D2E65F
:103F60000022B4F80100CDE9012240BA80B2A0F5E8
:103F7000007CBCF5007FCDE903220092C0F00481F3
:103F8000A0F5714084380C2808D8DFE800F07007ED
:103F90006B62070707075907070712007F203125C3
:103FA00003213B683268187020789D70587011802A
:103FB0002DE569460120FDF753FF01A98046022047
:103FC000FDF74EFF02A948EA00080320FDF748FF6D
:103FD0001FFA88F848EA000803A90420FDF740FF0B
:103FE0001FFA88F848EA000804A90520FDF738FF01
:103FF0001FFA88F848EA00081FFA88F56946112276
:104000000DF1170000F0DAFB002DC7D1142523783D
:104010004033396862788DF81430A378681E8DF8C3
:1040200015208DF8163005AA4B1E11FA80F012F8F3
:10403000011B03F8011F9842F9D133681D80E6E4A3
:104040000C2274490DF1170000F0B8FB0F252378FE
:10405000DEE7042270490DF1170000F0AFFB0725E1
:104060002378D5E70A7804258DF81720D0E70C22AD
:104070006A490DF1170000F0A1FB202309226849CD
:1040800009A88DF82330192500F098FB2378BFE7A5
:10409000A9F1020212F007091FFA82FA7FF41FAE9B
:1040A000D8F80830D8F8041053448B423FF617AEC6
:1040B00098F80C206378934200F070817F2273217E
:1040C0009EE4B9F1030F00F0EE807F2313222B70E2
:1040D000D9E44FF28412B4F8013058BA80B220F01B
:1040E000080191423FF410AD49F2F102934200F011
:1040F000EE80B9F1070F7FF4DCACD4F8031009BAF5
:10410000FDF796FE03463A683168002B00F0968171
:104110007F207225032310702078957050700B80DB
:1041200075E4B9F1030FD0D1002305A8EB70FDF7BA
:1041300061FE8046002840F01681059B002B00F0B0
:10414000908182466D4614E09DF803203B6803F899
:104150000920BDF8022003F82A20009A4B44120AD5
:104160009A70009ADA70059B09F10409534540F2F0
:10417000068150462946FDF7F9FD0AF1010A00289B
:10418000E2D04FF00108EEE76946FDF769FE00282E
:1041900069D07F2131203B6832681970217898708E
:1041A0005970A2F8009032E40422494620465A731E
:1041B0000FB0BDE8F04FFEF727BFB3F57F4F00F01B
:1041C000B0804FF6017293427FF493ADB9F1040FC2
:1041D0007FF4AAAD6378012B7FF45BAE0B78022BE2
:1041E00000F0B7817E2364E698F80C206378934250
:1041F0007FF464AF013388F80C3023780022403319
:104200002B70637805F8013FD8F8083019E000BF3B
:104210002A2A03209005FA0B38F8000820F8000835
:104220002CF80008D8F800100132CB5CB2F57F6F93
:1042300005F8013FD8F8083003F10103C8F8083049
:1042400004D0D8F804109942ECD892B2D8F80410EF
:1042500002329942ACF800203FF6D9AB032388F82C
:104260000D30FFF7D4BB2378627840338DF81430DB
:10427000A37869468DF815200DF1170004228DF8FA
:10428000163000F09BFA3A680DF11301531E063206
:1042900011F8010F03F8010F9342F9D10722336897
:1042A0001A80FFF7B4BB002305A8EB70FDF7A2FD51
:1042B0003B683168002800F0CC807F221A7072229F
:1042C00020789A705870A1F80090FFF7E2BBB9F11E
:1042D000140F7FF4EEABD4F803100120FDF7A8FD16
:1042E000D4F8071005464046FDF7A2FD0346D4F872
:1042F0000B1003201D43FDF79BFD0346D4F80F1060
:104300000420ADB21D43FDF793FD0346E17C05207B
:10431000ADB21D43FDF78CFDADB245EA00039BB283
:10432000F1E6B9F1040F7FF4FFAC6378012B7FF461
:10433000B0AD0B78022B7FF455AF0B7F022B40F012
:104340006281FEF753FD00283FF4D1AD7F223B6828
:10435000D6F800C01A70227872215A700322997020
:10436000ACF80020CFE47F223B681A7072222178DB
:104370009A7059703368A3F80090FFF78ABBB8F1C0
:10438000000F6ED07F213B687220197003212578C1
:1043900032685D7098701180FFF77BBB013388F83D
:1043A0000C3002F0C5FABAF1000F00F0E8804D467B
:1043B000A146AB4699F8043099F805201B0403EB9D
:1043C000026399F8032099F8081003EB022399F887
:1043D0000920090401EB026199F80220D8F80800CD
:1043E00013441BEB030299F8073009F1080901EBAC
:1043F0000323D8F80010084419F8021C00F58020A7
:104400000B44FEF76BFD40EA0503DDB2D8F8083037
:104410000833C8F80830A9EB04039A45CAD802F05B
:104420009BFAD8E901329A4224BF032388F80D3061
:10443000002D00F0AD807F207225B1E560782378F3
:10444000A578507003204033137095700880FFF7F3
:10445000DEBA0620059A5A71120A1A710880FFF70F
:1044600018BB32689B0003331380FFF712BBBFF306
:104470004F8FBFF36F8F631D984767E49846D4F85A
:1044800002502DBA08EB05012846FEF7F9FB3B6800
:104490003168002800F0D5802278ED1A40321A7079
:1044A00003EB080202E0E85C03F8010F9342FAD143
:1044B00008F101030B80FFF7AABA0B7F022B40F033
:1044C000D280D4F802502DBA284605EB0801FEF739
:1044D000C7FB00283FF462ADB8F1020F00F0BB80CB
:1044E000B8F1040F00F0BB80B8F1080F40D06FF0B6
:1044F0000603E21D1B1B02E012F8011F2970991828
:104500008845F9D85146204652E6FCF77FFF0A203D
:1045100008F040FB22783B6840321A706278D6F887
:1045200000C05A70A2789A70E278DA70ACF8009005
:10453000FFF7E9BB9846FFF7A5BB01222178403180
:104540001970A15C9954013291B28945F9D8FFF7ED
:10455000D8BB0B7F022B56D1444B5B7B042B29D05D
:104560007F232B7023786B702223AB70FFF7C7BBC0
:10457000A168E0680BBA02BAC5E90023C2E702F0FD
:10458000EBF9D8E901329A4202D3032388F80D30BF
:10459000022023783A68647831684033137054708D
:1045A0000880FFF734BA0B7F022B2CD16378012BE4
:1045B0007FF46FACFEF7E4FB00287FF4C7AE96E40F
:1045C00049462846FDF79AF90825024621783B68B6
:1045D000403119706178D6F800C05970A178EA406E
:1045E0009970E178D871D970010E1971010C597167
:1045F0009A71ACF80050FFF786BB0BF0B1F80028B9
:104600007FF4A4AE73E4332353E4194A1370FFF725
:10461000CABBE379042B7FF46CABA0792379000249
:1046200040EA0360637940EA034040F00400FDF78C
:10463000B9FB00287FF48AAE59E40E4A1370FFF7E5
:10464000B2BB7F2031250322187020789D705870EE
:104650000A80FFF7DCB923895BBA2B8052E7A36895
:104660001BBA2B604EE73323FFF718BB5C2A0320ED
:104670002A2A03207600032070B400242D4D039EC7
:104680002B602D4D34802E602C4D8C461C461146DF
:104690006860B2B19CF800200F2A1FD9272A23D8BE
:1046A000103A172A2AD8DFE802F0383429293029AD
:1046B000292929292929292929292929292929296A
:1046C000292C8CF800107F221321032322709CF8E0
:1046D0000020A1706270338070BC70473346224660
:1046E00070BC6046FDF7D2BF852A1ED0872A18D03D
:1046F0003E2A03D170BC6046FEF72CBD7F221121FB
:10470000E3E7604670BCFEF79FBC604670BCFEF7F6
:1047100085BF604670BCFEF7E3BD604670BCFEF727
:1047200045BD604670BCFEF761BE604670BCFEF7DA
:104730001FBE00BF542A0320502A0320302A032022
:1047400038B5049A12884AB11978512907D0C72977
:1047500004D1012A02D05B78032B08D038BD4FF476
:10476000FA7008F017FABDE8384001F035BA4FF496
:10477000FA7008F00FFA0123084C25782370FCF733
:104780000BFF4FF47A7008F005FA054BEDB218787C
:10479000FCF708FFFCF73AFE257038BD76000320D1
:1047A000582A0320014BC0B2185C7047F8FD00087E
:1047B000704700BF0AB10AF0E3BE70474AB1013A40
:1047C0004B1E0138114413F8012F8B4200F8012FC2
:1047D000F9D1704708B503782BB10130FBF730FDF4
:1047E000013080B208BD184608BD00BF4FF47A7290
:1047F00002FB00F0024BA3FB0030800908F0CAB9AD
:10480000D34D621000220146034B1046C3E9032238
:104810001A7059601A817047742A0320084B1A785D
:104820005AB14EF660215A68821A8A4205D900228E
:10483000C3E9032258601A701A810020704700BF34
:10484000742A032038B5D0B20C46FFF7B1FF074DEC
:10485000E86002E00A2008F09DF921462846FCF7AE
:104860000BFF0028F6D1012038BD00BF3002032025
:104870004268B2F1804F01D00020704730B51C462D
:10488000036883B0C3F30742EF2A02D0002003B0CD
:1048900030BDC3F30722132AF8D1DAB23F2A0D46FE
:1048A00008D05A2A06D040F2535000211A4BC3E9CF
:1048B0000001EBE74FF080421749C0684A601A02D6
:1048C00092B203F0E053134343F46F0343F0130336
:1048D0000B60FFF767FFADF806000028D6D04FF059
:1048E000FF33022220680DF1060108F027FE8446FE
:1048F0004FF0FF3320682946BDF80620644608F0D3
:104900001DFEBDF8063004440233A34201D0FCF77B
:1049100055FB0120BBE700BF300203202DE9F04129
:10492000069EDFF850814F4C4F4F26607860C8F8E4
:10493000003042B10D46FF2119702978FF290ED0B1
:104940003878012801D0BDE8F081F53909291BD854
:10495000DFE801F0203C1A1A1A2B1A5A4452012A95
:1049600001D06A78DAB9002201214FF4807408205E
:104970003E4DC7E903223A813970C3F80150A3F8CC
:104980000540D9713080DEE742F2FE010222198033
:104990003280D8E7012A1BD0697807293FD942F233
:1049A000FE21022219803280CDE7012A10D06A78D8
:1049B000002AF4D14FF080600821A3F80520DA71B5
:1049C0002B4AC3F8010031803A61BCE7082A20D0A5
:1049D00042F2FE11022219803280B4E700215970A0
:1049E0003A7A0620013A18BF01221201D9701971D2
:1049F00059719A703080A6E700230122C7E903337A
:104A00003B703B8132809EE7FE210222198032807A
:104A100099E701226B681BBA3B61328093E73869E2
:104A20000144FEF72DF90128D8F80060246805D06C
:104A300042F2FE2202233280238084E7FF23337078
:104A4000697859B100233A6912780133DBB2F25424
:104A50003A6901323A6169789942F5D80131218089
:104A600071E700BF6C2A0320742A032000000808A5
:104A700008FE0008702A032010B50F4B82B0186E94
:104A8000002240F0010018661C6E072104F00104AA
:104A90000094009C9C6D6FF0010044F080549C6574
:104AA0009B6D03F080530193019B01F03BF802B032
:104AB000BDE8104003F0D0BE0010024070B50021E8
:104AC0000446ACB0942207A8CDE90211CDE9041147
:104AD00006910AF055FD324B22689A4201D02CB063
:104AE00070BD03234FF480424FF08051CDE907237E
:104AF0000993182211232791CDE90A2302210822C4
:104B00004FF0807307A8CDE90D230C9104F082FDCE
:104B100000283BD1234B0026DA6C02A942F4005254
:104B2000DA64DA6C204D02F400520092009ADA6CDA
:104B300042F00102DA64DB6C322203F001030193DC
:104B4000032301981948CDE90223049602F0D8F90D
:104B500080224FF480730521C5E903626B614FF435
:104B600080622023C5E9011611492846C5E90623BC
:104B70002E62296001F0E4F870B910210A4801F0B2
:104B80008FFA30B92565AC622CB070BDFCF716FA0F
:104B9000C0E7FCF713FAF5E7FCF710FAEDE700BF02
:104BA0000080024200100240402803200000024220
:104BB00008040240094B02689A4200D07047A3F5EE
:104BC00000539A6C82B042F480529A649B6C03F456
:104BD00080530193019B02B0704700BF0030024038
:104BE00010B500210446ACB0942207A8CDE902110B
:104BF000CDE9041106910AF0C3FC274B22689A42C2
:104C000001D02CB010BD4FF000724FF0807307A898
:104C10000792219304F0FEFC002832D19FED1A6B1D
:104C20009FED1B7B09241D4B02A9DA6D1C4842F441
:104C30000072DA65DA6D02F400720092009ADA6CA2
:104C400042F00202DA64DB6C8DED026B03F00203CA
:104C500001938DED047B019B069402F051F9002233
:104C60000521272000F05EFF272000F095FF00229D
:104C70000521282000F056FF282000F08DFF2CB0E1
:104C800010BDFCF79BF9C9E700030000020000001B
:104C9000000000000000000000A4004000100240DE
:104CA0000004024208B502680A4B9A4200D008BDCF
:104CB000094A4FF44071D36D084823F40073D3655B
:104CC00002F024FA272000F075FFBDE808402820F4
:104CD00000F070BF00A40040001002400004024237
:104CE00010B50446A6B09422002101A80AF048FCA1
:104CF000114B22689A4201D026B010BD4FF4802398
:104D000001A8019304F086FC98B90C4B0022D86CE2
:104D1000052140F48020D864DB6C5E2003F48023FE
:104D20000093009B00F0FEFE5E2000F035FF26B0F1
:104D300010BDFCF743F9E8E700080C420010024000
:104D400000B5036887B0B3F1804F0DD02E4A93426F
:104D500038D02E4A934214D02D4A934226D02D4A61
:104D6000934244D007B000BD03F504339A6D42F07E
:104D700001029A659B6D03F001030193019B07B04B
:104D800000BD254B0022986D052140F0200098655C
:104D90009B6D322003F020030393039B00F0C2FEBF
:104DA000322007B05DF804EB00F0F6BE1A4B1A6E25
:104DB00042F400321A661B6E03F400330493049B22
:104DC00007B000BD144B0022986D052140F0100083
:104DD00098659B6D312003F010030293029B00F055
:104DE000A1FE312007B05DF804EB00F0D5BE0A4B00
:104DF0001A6E42F480221A661B6E03F48023059318
:104E0000059B07B000BD00BF00100040001400402B
:104E10000044014000480140001002400000000032
:104E200010B500210446AEB0942209A8CDE90411C2
:104E3000CDE9061108910AF0A3FB2D4B22689A4296
:104E400001D02EB010BD4FF4005309A8099304F00F
:104E5000E1FB00283FD19FED226B9FED237B0A22CF
:104E6000244C2548E36C04A943F00103E364E36C9C
:104E70008DED046B03F001030193019B8DED067B27
:104E8000089202F03DF8E36D43F40013E365E36D2F
:104E900003F400130293029BA36DDB0018D4A36DEF
:104EA00043F08053A365A36D03F080530393039BEA
:104EB00003F0CAFCA36D23F08053A36500220521F3
:104EC000492000F02FFE492000F066FE2EB010BDF4
:104ED00003F0BAFCF2E7FCF771F8BCE7AFF300802F
:104EE00000180000020000000000000000000000A8
:104EF00000D40040001002400000024210B50146FC
:104F000088B000222A2000F00DFE2A2000F044FE86
:104F1000154B01A91A6E03A842F400621A661B6EB3
:104F2000124C03F400630293029B04F06BFA04F04A
:104F300051FA0346002140F2E7300D4A2161A2FBFD
:104F40000323A1609B0C0B49E060013B20462160DC
:104F5000636005F055FA10B1012008B010BD20467D
:104F600005F05EF808B010BD00100240882A03204A
:104F700083DE1B43002C0140FEE700BFFEE700BFBD
:104F8000FEE700BFFEE700BFFEE700BF704700BFBF
:104F9000014801F013B800BFF0250320014801F0DB
:104FA0000DB800BF88250320014801F0F9BB00BF00
:104FB000B8270320014801F0F3BB00BFB827032046
:104FC000014805F01DB900BF882A0320014805F0FB
:104FD00017B900BFF0240320014805F011B900BF44
:104FE000A4240320014802F03FB900BF6427032036
:104FF000014802F0D7BA00BF64270320014804F03B
:10500000E5BE00BF58260320014805F0C3BA00BF23
:10501000D0260320014802F00BBD00BF3021032041
:10502000014800F0CBBF00BF40280320014804F036
:10503000FFBD00BFBC260320034AD2F8883043F4EA
:105040007003C2F88830704700ED00E0254B254919
:105050001A68120754BFD3F894301B688A6858BF87
:10506000C3F3032302F00C0248BFC3F30313082A5F
:1050700012D01D480C2A50F823300FD01B49042AA7
:1050800008BF0B46174A1A4892681A49C2F303121E
:10509000825CD3400B607047174BF3E7C868CA685F
:1050A00000F00301C2F30312022902F1010211D040
:1050B000032913D0B3FBF2F10A4AD368D268C3F3D1
:1050C000062301FB03F3C2F3416201325200B3FB3A
:1050D000F2F3D7E70549B1FBF2F1EDE70649B1FB81
:1050E000F2F1E9E70010024010FE00080024F4008D
:1050F00058FE00085402032080969800DFF834D050
:10510000FFF79AFF002103E00B4B5B58435004313B
:105110000A480B4B42189A42F6D30A4A02E000238F
:1051200042F8043B084B9A42F9D30AF08FFAFBF796
:10513000E1FBFEE7000004208CFE000800000320D5
:10514000C0030320C003032020580320FEE7000013
:10515000042010B500F0D4FCFFF778FF0020FFF723
:10516000CDFE10B10124204610BD0446FFF784FC9B
:10517000204610BD034A044B11681B780B44136092
:10518000704700BFD42A032058020320014B18683F
:10519000704700BFD42A0320002330B583B00193A9
:1051A000002800F09E80856D0446002D00F09C8054
:1051B000226893689D0005D5936823F0204323F06F
:1051C0003F0393609368D80019D45C4B5C481B681C
:1051D00091689B09A0FB030321F010419B0921F07A
:1051E0003F0101335B0041F0805191600193019BCD
:1051F0002BB1019B013B0193019B002BF9D19368DB
:10520000D90064D40120A36D43F01003A365E36DBE
:105210000343E365936813F0040FA36D5DD1DB06D0
:105220005BD4A36D23F4817343F00203A3659368F9
:10523000DD0708D4434B9B6813F0010F424B9B687A
:1052400001D1D90763D5E568636B94F820102B432F
:10525000A568012943EA0503657E43EA453343EA2D
:1052600001434FD0A16A21B1E56A01F4707129436D
:105270000B43D568354929401943D16093681B0712
:1052800016D494F83030257ED1685B0043EA85332C
:10529000E56C21F4804121F006012B430B43D360E0
:1052A00094F83830012B3AD0136923F001031361CD
:1052B0002369012B1ED0136B23F00F031363A36D1F
:1052C00023F0030343F00103A36503B030BD9368EB
:1052D000002013F0040FA36DA1D0A36D43F01003C1
:1052E000A365012003B030BDFFF7E8FBE56584F856
:1052F00054505DE7116BE36921F00F01013B0B4353
:105300001363DCE7616A013943EA4143AAE71049C4
:1053100065688B6823F47C132B438B6093E71169DA
:10532000E36B256C6FF38A012B430B43616C0B43DA
:10533000A16C0B4343F001031361B9E7540203204E
:10534000632D3E05008002420081024207C0F0FF4B
:1053500000830242704700BF704700BF08B5806AF3
:10536000FFF7FAFF08BD00BF704700BF836A10B5A2
:105370009A6D12F0500F9A6D1DD1196842F40072A7
:105380009A650A6812F0080FCA681BD012F4406FC1
:105390000DD1CA6894040AD49A6D22F480729A6579
:1053A0009A6DD10403D49A6D42F001029A651846B1
:1053B000FFF7D0FF10BDD2060AD4BDE810401B6D28
:1053C000DB6B18479007E7D51846FFF7C3FFF1E7F7
:1053D0001846FFF7C9FF10BD806A08B5836D43F01A
:1053E00040038365C36D43F00403C365FFF7BCFF4F
:1053F00008BD00BF0022F0B583B0019290F85420A0
:10540000012A00F0F380034601201A6883F8540053
:105410009068400709D501209A6D42F020029A65F4
:10542000002283F8542003B0F0BD1F24486802F125
:10543000300500F01F0C4FEA901E08680EF00C0EAD
:10544000C0F3846000FA0CF004FA0CFC55F80E402E
:1054500024EA0C0C40EA0C0045F80E00906810F0AD
:10546000040F906835D1070733D4072408688D6886
:10547000C0F30456B440C00DB5F1004F6FEA040408
:1054800000F0040000F0FC8002F11407B5403E5823
:1054900034402C433C50506920F0004050610E696C
:1054A000D468042E086800F0B88002F1600757F84D
:1054B00026C0BA4D00F0F8400CEA05050543C4F3D8
:1054C000C10448696400A040284340F0004047F808
:1054D00026009068C60701D50020A1E7CE680C68B9
:1054E000AF48D2F8B05006F01807F840C4F31207DE
:1054F000204025EA07052843C2F8B000A9488642A3
:1055000026D0A9490C42E7D0A848A94986688D68E9
:10551000ED076ED4A74DAD68EF073FF57CAFA64D04
:1055200006F0E077AC4200F05F81A44DAC4200F0A1
:105530007F81A34DAC42CFD17402CDD48A42CBD16E
:10554000826822F0E0723A4342F480028260C3E74C
:10555000002F51D094FAA4F0002800F0D080B0FAC7
:1055600080F0013000F01F00092840F2C88094FA52
:10557000A4F0002800F07281B0FA80F001308006BB
:1055800000F0F84094FAA4F5002D00F06C8101269B
:10559000B5FA85F5354405F01F0506FA05F52843EB
:1055A00094FAA4F4002C00F05C81B4FA84F4013481
:1055B00004F01F0404EB44041E3C240544F0007472
:1055C00007272043C50D8E6805F0040502F1140C71
:1055D0005CF80540C0F30450864007FA00F024EA66
:1055E000000030434CF805000C688AE7022003B045
:1055F000F0BD704A92680EE70120A40E013404F059
:105600001F06A40604F0F845B040092E06EB460438
:1056100040EA0500D0D82405D2E7146E146EC0F31A
:105620001205C4F38464002D34D1C0F38466B442FF
:1056300000F08B80546E556E02F16004C5F38465F2
:1056400002F1640CB54200F09480A568A56804F1ED
:105650000807C5F38465C0F38466AE4200F0B280EB
:10566000E568E56804F10C06C5F38464C0F3846062
:10567000A0427FF42EAF306820F00040306028E771
:1056800002F1140635582C403450506940F0004067
:10569000506104E790FAA0F51DB1B5FA85F5AC426A
:1056A00053D0546E556E02F16004C5F3846502F167
:1056B000640C90FAA0F604F10807BE461EB1B6FAD3
:1056C00086F6AE4257D0A568A568C5F3846590FA02
:1056D000A0FC04F10C06B646BCF1000F03D0BCFAE6
:1056E0008CFCAC4570D0E568E468C4F3846490FA3F
:1056F000A0F000283FF4EDAEB0FA80F0B8E794FADD
:10570000A4F0002800F0A480B0FA80F001308006F8
:1057100000F0F84094FAA4F5002D00F097800126DF
:10572000B5FA85F5354405F01F0506FA05F5284359
:1057300094FAA4F4002C00F08E80B4FA84F40134BE
:1057400004F01F0404EB440465E71446106E02F1F4
:10575000640C20F0004044F8600F506E0868556EED
:10576000C0F31206C5F38465002EA2D1C0F384668F
:1057700068E704F1080EDCF80000774620F00040EE
:10578000CCF80000A0680868A568C0F31206C5F34D
:105790008465002E3FF45FAF99E700BF00F0FF0380
:1057A000FFFF070000007F400000088000830242E6
:1057B0000080024200810242000052C7000084CBF8
:1057C0000100008004F10C0E3868764620F000409D
:1057D0003860E0680868E468C0F31205C4F38464C4
:1057E000002D3FF443AF82E736023FF575AE8A42A3
:1057F0007FF472AE82681D4922F0E0723A4342F4AF
:10580000000282600A681A499209A1FB02129209F9
:10581000013202EB420292000192019A002A3FF407
:105820005BAE019A013A0192019A002AF9D153E63E
:10583000F5013FF551AE8A427FF44EAE826822F008
:10584000E0723A4342F08072826045E602256EE7DC
:105850004FF080605EE74FF44014B1E64FF0806097
:1058600090E6044CACE6022599E600BF5402032002
:10587000632D3E05000050FE002370B582B00193F9
:1058800003689A68D2072CD49968284A05461142C1
:105890002AD19A68264922F0004222F03F0242F0C3
:1058A00001029A608B681E0229D4FFF76FFC2B68F7
:1058B00006461A68D40714D41E4C9A68D00704D43C
:1058C0009A68224042F001029A60FFF75FFC821B57
:1058D000022A2B6802D91A68D10705D51A68D2079F
:1058E000EBD5002002B070BD0120AB6D43F010037A
:1058F000AB65EB6D43F00103EB6502B070BD0E4B81
:105900000E4A1B689B09A2FB03239B09013303EB8F
:1059100043039B000193019B002BC6D0019B013BDD
:105920000193019B002BF9D1BFE700BF3F0000802E
:1059300000830242C0FFFF7F54020320632D3E0517
:105940002DE9F041364B05689B68AD6815F00405FC
:1059500016D1164690F854200446012A10D040F281
:10596000212C03F01F0801232CFA08FC1CEA030C6D
:1059700080F8543007D180F854C00120BDE8F08190
:105980000220BDE8F0810F46FFF776FF002840D1E6
:10599000A36D216823F4706323F0010343F4807343
:1059A000A365204B994237D0A36D23F48013A365E0
:1059B000A36D002513F4805318BFE36D206D18BF4D
:1059C00023F00603E36533461C263A46164F403162
:1059D000C762164F0763164FC76341F8406C84F8DF
:1059E000545051F83C5C45F0100541F83C5C51F8CE
:1059F000345C45F0010541F8345C00F017FA226888
:105A0000936823F0004323F03F0343F004039360C3
:105A1000B7E784F85450B0E7B8F1000FC8D1C3E736
:105A200000830242008102426D5300085D5300086A
:105A3000D953000890F85420012A46D0034600228A
:105A40000120F0B42B4D1C689AB0AC42169283F83A
:105A50005400179208D0996D83F8542041F020012A
:105A600099651AB0F0BC7047234A906840070BD57F
:105A7000A26801209A6D42F020029A65002283F804
:105A800054201AB0F0BC7047A0684507F1D40D68E7
:105A9000EDB11A4E4F68B06893F830C020F4604002
:105AA000384340EA4C30B060A0689268C0070AD41E
:105AB000D70708D4B268896822F471620D4322F0D6
:105AC0000F021543B5600020D8E7022070470B484D
:105AD000816821F460418160A1689268CD07F2D4A9
