:020000040800F2
:100000000000042025BB000841B7000849B70008DC
:1000100051B7000859B7000861B7000875BB000860
:10002000000000000000000000000000D1D4010822
:1000300069B700080000000061D40108E59E0108CE
:1000400075BB000875BB000875BB000875BB0008D0
:1000500075BB000875BB000875BB000875BB0008C0
:1000600075BB000875BB000875BB000875BB0008B0
:1000700075BB000875BB000875BB000875BB0008A0
:1000800075BB000875BB000875BB000875BB000890
:1000900075BB000875BB000875BB000875BB000880
:1000A00075BB000875BB000875BB000875BB000870
:1000B00075BB000879B7000875BB000875BB000860
:1000C00075BB000875BB000875BB000875BB000850
:1000D00075BB000875BB000875BB00088DB700082C
:1000E000A1B7000875BB0008B5B7000875BB0008CC
:1000F00075BB000875BB000875BB000875BB000820
:1001000075BB000875BB000875BB000875BB00080F
:1001100075BB000875BB000875BB000875BB0008FF
:1001200075BB000875BB000875BB000875BB0008EF
:10013000C9B7000875BB000875BB000875BB00088F
:1001400075BB000875BB000875BB000875BB0008CF
:1001500075BB000875BB000875BB000875BB0008BF
:1001600075BB0008DDB7000875BB000875BB00084B
:1001700075BB00080000000075BB0008000000000F
:10018000F1B7000875BB000875BB000875BB000817
:1001900075BB000875BB000875BB000875BB00087F
:1001A00075BB000875BB000875BB000875BB00086F
:1001B00075BB00080000000005B8000875BB00080A
:1001C00075BB00080000000075BB000875BB000887
:1001D00075BB000875BB000875BB000875BB00083F
:1001E00075BB000875BB000875BB000875BB00082F
:0401F000000000000B
:1002000010B5054C237833B9044B13B10448AFF350
:1002100000800123237010BD08C8002000000000EA
:1002200024F5010808B5034B1BB103490348AFF39C
:10023000008008BD000000000CC8002024F5010863
:1002400010F8012B11F8013B012A28BF9A42F7D080
:10025000D01A7047034613F8012B002AFBD1181A55
:100260000138704753B94AB9002908BF00281CBF9C
:100270004FF0FF314FF0FF3000F07EB9ADF1080CC8
:100280006DE904CE00F006F8DDF804E0DDE90223B4
:1002900004B070472DE9F04F099D0C46002B4DD15D
:1002A0008A420F4684469646B2FA82F360D94BB131
:1002B00002FA03FEC3F120029F4000FA03FC20FA79
:1002C00002F217434FEA1E461FFA8EF44FEA1C4211
:1002D000B7FBF6F106FB117701FB04F042EA074297
:1002E000904208D91EEB020201F1FF3702D2904280
:1002F00000F22D813946121A1FFA8CFCB2FBF6F07F
:1003000006FB102200FB04F44CEA024C644508D9B9
:100310001EEB0C0C00F1FF3202D2644500F21A8190
:10032000104640EA0140ACEB040C002125B12CFA48
:1003300003F30022C5E90032BDE8F08F8B4205D9F6
:100340000DB1C5E9000100210846F5E7B3FA83F1D4
:1003500000294DD1A342C0F0F280904280F0EF809E
:10036000064623460846002DE6D0C5E90063E3E7CC
:10037000002B40F0A2808A1A4FEA1E471FFA8EF621
:100380000121B2FBF7F407FB14204FEA1C4242EABA
:10039000004206FB04F090420FD91EEB020204F16A
:1003A000FF382CBF4FF001094FF00009904203D9EC
:1003B000B9F1000F00F0C8804446121A1FFA8CFCF5
:1003C000B2FBF7F007FB102200FB06F64CEA024CEA
:1003D000664508D91EEB0C0C00F1FF3202D26645CF
:1003E00000F2BB801046ACEB060C40EA04409DE7EF
:1003F000C1F120068B4004FA01FE22FA06F720FA2A
:1004000006FCF4408A401F434EEA0C0300FA01FE4A
:100410004FEA17484FEA13491FFA87FCB4FBF8F07C
:1004200008FB104449EA044400FB0CF9A1450ED92D
:100430003C1900F1FF3A2CBF4FF0010B4FF0000BBD
:10044000A14503D9BBF1000F00F093805046A4EB07
:1004500009041FFA83F9B4FBF8F308FB134403FB08
:100460000CFC49EA0444A44506D93C1903F1FF38C1
:1004700001D2A4457AD8434643EA0040A4EB0C04D9
:10048000A0FB02984445CC46434602D306D1CE4554
:1004900004D20138B9EB020C68EB07035DB1BEEB87
:1004A0000C0264EB030404FA06F622FA01F3CC40D2
:1004B0001E43C5E9006400213EE702FA03FEC3F1D2
:1004C000200104FA03F200FA03FCCC404FEA1E4775
:1004D00020FA01F11FFA8EF6B4FBF7F00A4307FB8E
:1004E0001044110C41EA044100FB06F48C420ED981
:1004F0001EEB010100F1FF382CBF4FF001094FF056
:1005000000098C4202D9B9F1000F2CD04046091BDA
:1005100092B2B1FBF7F407FB141142EA014204FB6B
:1005200006F1914207D91EEB020204F1FF3801D215
:10053000914215D84446521A44EA004121E7861AEE
:1005400064EB030301200EE7023C724435E70239F5
:100550007244D0E6F4440238E3E6F444023842E759
:10056000023C7244E7E702387144D0E7023B3C4466
:1005700082E702383C446AE7704700BF80B483B02A
:1005800000AF7860396000BF0C37BD465DF8047B72
:100590007047000080B584B000AF78600023FB8115
:1005A000FB895A1CFA811A467B68134471221A701F
:1005B000402134480CF027FDFB897A681344194622
:1005C0000AF0B0FC03469AB2FB891344FB812D4824
:1005D0000CF037FDFB897A68134419460AF0A2FC37
:1005E00003469AB2FB891344FB81274B1B681846CC
:1005F0001AF06CFCFB897A68134419460AF092FCE5
:1006000003469AB2FB891344FB811F4B1B681846B3
:100610001AF086FCFB897A68134419460AF082FCBA
:1006200003469AB2FB891344FB81184B1B6818469A
:100630001AF04CFCFB897A68134419460AF072FCE4
:1006400003469AB2FB891344FB81104B1B68184682
:100650001AF066FCFB897A68134419460AF062FCBA
:1006600003469AB2FB891344FB81FB895A1CFA8129
:100670001A467B6813440D221A70FB8918461037FE
:10068000BD4680BDB0C8002000CA022004CA0220B6
:1006900080B584B002AF72B600BF774B4FF00062F6
:1006A0009A60BFF34F8F00BF62B600BF0BF063FAD2
:1006B00006F02BF900F040F900F0BEF900F00CFB59
:1006C00000F0CCFA00F05CFA00F074FA00F010FAD6
:1006D00000F086FA00F0E2F900F065FA00F0E6F9C1
:1006E000664B0093664B0022012144F620601AF00D
:1006F0005DFB0346634A1360634B0093634B002228
:10070000012144F620601AF051FB0346604A136051
:10071000604B0093604B0022012141F201001AF06E
:1007200045FB03465D4A13605D4B00935D4B002221
:10073000012141F201001AF039FB03465A4A1360C5
:100740005A4B00935A4B0022012144F620601AF0C4
:100750002DFB0346574A1360574B0093574B00221B
:10076000012144F620601AF021FB0346544A13602D
:10077000002005F083FB002005F098FB05F0BBFB93
:100780001BF0E8F94F4B00934F4B444A4F4905F09B
:1007900015FA4F4807F050FF4E4804F089FB4E4AC7
:1007A0004E494F4802F09CFB494811F01FFB03469D
:1007B000002B01D002F0F0FA00233B603B461846C4
:1007C00005F0E8FA0346002B10D13B68002B0DD151
:1007D0004FF040437B607B6843F424137B607B686D
:1007E00043F004037B60786805F09AFA19F094FBF3
:1007F0003C4A00213C4819F0D9FB03463B4A1360B0
:100800003B4A00213B4819F0D1FB03463A4A1360AA
:100810003A4A00213A4819F0C9FB03462F4A1360AF
:10082000384A0021384819F0C1FB0346374A1360A3
:10083000374A0021374819F0B9FB0346264A1360AE
:10084000354A0021354819F0B1FB03461F4A1360B1
:10085000334A0021334819F0A9FB0346324A13609A
:10086000324A0021324819F0A1FB0346314A136095
:1008700019F076FB00BFFDE700ED00E05403012016
:1008800078030120985101209C510120C051012082
:10089000E09F0120F80B02201C0C0220D0C802208F
:1008A000201C0220441C0220D4C80220482C022014
:1008B0006C2C022000CA02208C7A0220B07A02201E
:1008C00004CA0220DCC80220D8C8022050E500205B
:1008D00014C900208CC80020A4E000204CD30020C4
:1008E000B0C80020EC1602083D0E0008F4C9002034
:1008F0001017020821260008A0CE00203417020895
:100900004529000858170208292A0008F8D70020AE
:100910007C170208A92A0008A0170208352B000836
:10092000C4170208392C0008FCF50020E81702085B
:10093000212D0008A8FE002080B59EB000AF07F171
:1009400030034822002118461DF081FE07F11C03E8
:1009500000221A605A609A60DA601A613B1D002218
:100960001A605A609A60DA601A615A614FF4007036
:100970000FF0C8FB0346002B01D002F00DFA29232B
:100980003B634FF480337B630123BB650023BB646F
:1009900001237B640223FB6503233B6601237B6603
:1009A0001023BB660723FB6608233B6702237B6794
:1009B00007F1300318460FF045FC0346002B01D029
:1009C00002F0EAF90F23FB6103233B6200237B6201
:1009D0000023BB620023FB6207F11C0303211846BE
:1009E00010F006F90346002B01D002F0D5F9114BA7
:1009F0009B6D104A43F0807393650E4B9B6D03F023
:100A000080733B603B6800237B604FF00053BB600A
:100A10000023FB604BF67F333B6122237B61202365
:100A2000BB613B1D184610F069FF00BF7837BD461B
:100A300080BD00BF0010024080B5A6B000AF3B1DD6
:100A40009422002118461DF002FE124B7B604FF0ED
:100A50000073FB664FF08053C7F884300323BB60FC
:100A60000223FB6038233B6107237B610223BB61C8
:100A70000823FB61084B3B623B1D184610F0BAFB94
:100A80000346002B01D002F087F900BF9837BD461E
:100A900080BD00BF004000020000010180B400AF33
:100AA00000BFBD465DF8047B7047000080B500AF15
:100AB0000D4B0E4A1A600C4B00221A710A4B002291
:100AC0005A71094B00225A61074B00229A61064B6A
:100AD00001221A6204480BF0B7F90346002B01D03B
:100AE00002F05AF900BF80BD8CC8002000300240DF
:100AF00080B500AF204B214A1A601F4B00225A607C
:100B00001D4B4FF440729A601B4B0022DA601A4B67
:100B100001221A74184B00225A74174B00229A743F
:100B2000154B01225A61144B01229A61124B3C224F
:100B3000DA61114B13221A620F4B01225A620E4BDB
:100B400001229A620C4B0F22DA620B4B02221A63CB
:100B5000094B01225A63084B01229A63064B00227B
:100B6000DA6305480BF0B4FD0346002B01D002F018
:100B700013F900BF80BD00BFB0C8002000A4004032
:100B800080B500AF00200DF03FFD0346002B01D0E3
:100B900002F002F90DF058FD0346002B01D002F0DF
:100BA000FBF800BF80BD80B400AF00BFBD465DF85C
:100BB000047B704780B500AF074B084A1A60064BAC
:100BC00000225A60044811F06DF80346002B01D052
:100BD00002F0E2F800BF80BD14C9002000080C42FA
:100BE00080B500AF1B4B1C4A1A601A4B4FF482723F
:100BF0005A60184B00229A60164B4FF4E062DA609C
:100C0000144B00221A61134B00225A61114B4FF40E
:100C100000729A610F4B1022DA610E4B00221A62A9
:100C20000C4B00225A620B4B00229A62094B07229E
:100C3000DA62084B00221A63064B08225A63054801
:100C400011F079F90346002B01D002F0A5F800BF9E
:100C500080BD00BF28C900200038004080B584B0A6
:100C600000AF1C4B9B6C1B4A43F004039364194B6D
:100C70009B6C03F00403FB60FB68164B9B6C154AEE
:100C800043F001039364134B9B6C03F00103BB60BF
:100C9000BB68104B9B6C0F4A43F0020393640D4BEF
:100CA0009B6C03F002037B607B68002205211D2002
:100CB0000BF08FF81D200BF0A6F800220521502024
:100CC0000BF087F850200BF09EF800BF1037BD46A0
:100CD00080BD00BF0010024080B58AB000AF07F1B0
:100CE000140300221A605A609A60DA601A61394B64
:100CF000DB6C384A43F00403D364364BDB6C03F0FF
:100D000004033B613B69334BDB6C324A43F08003A5
:100D1000D364304BDB6C03F08003FB60FB682D4B2E
:100D2000DB6C2C4A43F00103D3642A4BDB6C03F0E9
:100D30000103BB60BB68274BDB6C264A43F0020310
:100D4000D364244BDB6C03F002037B607B680022DE
:100D50004FF4604120480DF03FFC002240F20111A9
:100D60001E480DF039FC002241F2E4011C480DF050
:100D700033FC4FF460437B610123BB610023FB61C3
:100D800000233B6207F11403194613480DF0B6F92E
:100D900040F201137B610123BB610023FB6100234F
:100DA0003B6207F1140319460C480DF0A7F941F214
:100DB000E4037B610123BB610023FB6100233B62F1
:100DC00007F11403194606480DF098F900BF2837BB
:100DD000BD4680BD001002400008024200000242F1
:100DE0000004024280B487B000AF7860396000230D
:100DF0007B6100233B610023FB6013E0FB687A68A2
:100E000013441B78202B02D100233B6107E03B6990
:100E1000002B04D101233B617B6901337B61FB68BB
:100E20000133FB60FA683B689A42E7DB7B6918464E
:100E30001C37BD465DF8047B7047000090B5C3B019
:100E400002AF78601CF01EFD002387F8FE30B44B23
:100E5000186807F13E014FF0FF3302221AF0A1F9A2
:100E6000C7F8EC00D7F8EC30022B01D001F094FF6A
:100E7000AB4B1868FB8F1A464FF0FF33A9491AF0A5
:100E800090F9C7F8EC00FB8F1A46D7F8EC30934284
:100E900001D001F081FFA44B1B78002B00F07A8475
:100EA000FB8F1A469F4B00219954FB8FB3F5007FAF
:100EB00004D39E4809F0DAFF00F062BC0023C7F8B3
:100EC000F8309B4B00221A700023C7F8F43032E050
:100ED000944AD7F8F43013441B78082B0FD1D7F875
:100EE000F830002B22D0D7F8F830013BC7F8F830A3
:100EF0008F4AD7F8F830134400221A7016E0894A56
:100F0000D7F8F43013441B780A2B0FD0854AD7F852
:100F1000F43013441978864AD7F8F83013440A4657
:100F20001A70D7F8F8300133C7F8F830D7F8F43032
:100F30000133C7F8F430FB8F1A46D7F8F4309342E8
:100F4000C6D3D7F8F8309BB2FB87FB8F1A46784B95
:100F500000219954FB8F19467548FFF743FF03465C
:100F6000C7F8E430D7F8E430002B07D1FB8F002B13
:100F700004D1704809F07AFF00F002BC6E496C4859
:100F80001DF06EFBC7F8E000D7F8E030002B03D16E
:100F90006A4809F06BFFF3E36949D7F8E000FFF70F
:100FA0004FF90346002B18D06649D7F8E000FFF749
:100FB00047F90346002B10D06349D7F8E000FFF74C
:100FC0003FF90346002B08D06049D7F8E000FFF74F
:100FD00037F90346002B40F08881D7F8E430012B25
:100FE00040F24081544900201DF03AFBC7F8E00070
:100FF0005749D7F8E000FFF723F90346002B3CD10F
:10100000544809F033FF544809F030FF514809F0C3
:101010002DFF524809F02AFF514809F027FF4F4899
:1010200009F024FF4F4809F021FF4F4809F01EFF47
:101030004A4809F01BFF4D4809F018FF4C4809F0D9
:1010400015FF464809F012FF4A4809F00FFF4A48C9
:1010500009F00CFF414809F009FF484809F006FF74
:10106000474809F003FF474809F000FF3B4809F0F3
:10107000FDFE384809F0FAFEF0E04349D7F8E000F9
:10108000FFF7DEF80346002B40F09480314809F06A
:10109000EDFE314809F0EAFE2E4809F0E7FE2F4840
:1010A00009F0E4FE394809F0E1FE2C4809F0DEFEC3
:1010B0002C4809F0DBFE364809F0D8FE274809F035
:1010C000D5FE2A4809F0D2FE324809F0CFFE234867
:1010D00009F0CCFE274809F0C9FE2F4809F0C6FEEA
:1010E0001E4809F0C3FE254809F0C0FE2B4809F050
:1010F000BDFE2B4809F0BAFE2A4809F0B7FE2A487F
:1011000009F0B4FE294809F0B1FE294809F0AEFE05
:10111000124809F0ABFE0F4809F0A8FE9EE000BFA0
:1011200098510120E49F0120F5090220B4F501083F
:10113000F8090220C8F50108CCF50108D0F501082E
:10114000FCF5010804F601080CF6010814F6010884
:1011500018F6010820F6010860F601088CF601086F
:1011600090F60108A0F60108B0F60108E4F60108BF
:10117000ECF6010808F7010814F701085CF701080C
:1011800068F70108ACF70108BCF70108C4F70108CB
:10119000D8F7010814F8010828F8010874F80108C4
:1011A00094F80108A4F80108C4F80108D4F801086B
:1011B000F4F80108B649D7F8E000FFF741F8034614
:1011C000002B48D1B34809F051FEB34809F04EFE58
:1011D000B04809F04BFEB14809F048FEB04809F0AC
:1011E00045FEAE4809F042FEAE4809F03FFEAE486B
:1011F00009F03CFEA94809F039FEAC4809F036FE7A
:10120000AB4809F033FEA54809F030FEA94809F0C3
:101210002DFEA94809F02AFEA04809F027FEA7489C
:1012200009F024FEA64809F021FEA64809F01EFE9A
:10123000A54809F01BFEA54809F018FEA44809F0CE
:1012400015FEA44809F012FE944809F00FFE9148DB
:1012500009F00CFE02E0A04809F008FE9F4809F0E2
:1012600005FE8DE28B4809F001FE8B4809F0FEFD7A
:10127000884809F0FBFD894809F0F8FD984809F015
:10128000F5FD864809F0F2FD964809F0EFFD964815
:1012900009F0ECFD954809F0E9FD954809F0E6FDF7
:1012A000944809F0E3FD944809F0E0FD934809F003
:1012B000DDFD934809F0DAFD924809F0D7FD924828
:1012C00009F0D4FD914809F0D1FD914809F0CEFD17
:1012D000904809F0CBFD714809F0C8FD8E4809F02F
:1012E000C5FD6C4809F0C2FD4AE26949D7F8E00043
:1012F000FEF7A6FF0346002B4DD1D7F8E430022BB2
:1013000003D0864809F0B2FD3AE2854900201DF07D
:10131000A7F9C7F8E0008349D7F8E000FEF790FF8F
:101320000346002B03D1804809F0A0FD28E27F4945
:10133000D7F8E000FEF784FF0346002B07D17C4876
:1013400009F094FD0021422004F038FD18E27949AB
:10135000D7F8E000FEF774FF0346002B07D176486C
:1013600009F084FD0021432004F028FD08E27349C0
:10137000D7F8E000FEF764FF0346002B07D1704862
:1013800009F074FD0021442004F018FDF8E16D48D7
:1013900009F06CFDF4E16C49D7F8E000FEF750FF6E
:1013A0000346002B4DD1D7F8E430022B03D0674819
:1013B00009F05CFDE4E15A4900201DF051F9C7F83D
:1013C000E0005849D7F8E000FEF73AFF0346002B4B
:1013D00003D15F4809F04AFDD2E15449D7F8E00053
:1013E000FEF72EFF0346002B07D15A4809F03EFDB9
:1013F0000121422004F0E2FCC2E14E49D7F8E000AE
:10140000FEF71EFF0346002B07D1534809F02EFDBF
:101410000121432004F0D2FCB2E14849D7F8E000B2
:10142000FEF70EFF0346002B07D14C4809F01EFDC6
:101430000121442004F0C2FCA2E1424809F016FD5B
:101440009EE14749D7F8E000FEF7FAFE0346002B7D
:1014500040F0EC80D7F8E430022B03D0414809F08B
:1014600005FD8DE12E4900201DF0FAF8C7F8E000D7
:101470003D49D7F8E000FEF7E3FE0346002B77D1A5
:10148000012005F065FE394809F0F0FC78E100BF65
:1014900004F9010820F6010860F601088CF601083D
:1014A0000CF90108A0F6010820F90108E4F601088A
:1014B0005CF9010808F7010870F901085CF70108F8
:1014C000BCF90108DCF90108F0F9010810FA01087B
:1014D00024FA010844FA010858FA010880FA0108C0
:1014E000D4FA010878FB01088CFB0108B8FB01085D
:1014F00008FC010858FC0108A8FC010814FD0108BB
:101500003CFD010868FD010898FD0108C4FD0108C3
:101510001CFE010868FE01089CFE0108BCFE0108D3
:10152000CCF501080CFF010810FF010844FF010879
:1015300048FF01086CFF010870FF010894FF0108D3
:1015400098FF0108BCFF0108BCF70108E0FF010893
:10155000300002084C0002087000020894000208E3
:1015600018F60108B8000208080102080C01020878
:10157000B249D7F8E000FEF763FE0346002B06D120
:10158000022005F0E5FDAE4809F070FCF8E0AD4939
:10159000D7F8E000FEF754FE0346002B06D10320E7
:1015A00005F0D6FDA64809F061FCE9E0A649D7F8A8
:1015B000E000FEF745FE0346002B06D1042005F0AF
:1015C000C7FD9F4809F052FCDAE0A049D7F8E000D7
:1015D000FEF736FE0346002B06D1052005F0B8FDC8
:1015E000974809F043FCCBE09949D7F8E000FEF7B3
:1015F00027FE0346002B06D1062005F0A9FD9048E2
:1016000009F034FCBCE09349D7F8E000FEF718FE7F
:101610000346002B06D1072005F09AFD884809F003
:1016200025FCADE08C4809F021FCA9E08B49D7F8F6
:10163000E000FEF705FE0346002B17D08849D7F8D7
:10164000E000FEF7FDFD0346002B0FD08549D7F8DB
:10165000E000FEF7F5FD0346002B07D08249D7F8DE
:10166000E000FEF7EDFD0346002B03D17F4B002287
:101670001A7085E07E49D7F8E000FEF7E1FD0346E9
:10168000002B08D17B4809F0F1FBC82018F021FDA0
:101690000AF0D5FB74E07849D7F8E000FEF7D0FDFA
:1016A0000346002B03D1754809F0E0FB68E074495C
:1016B000D7F8E000FEF7C4FD0346002B3ED1D7F873
:1016C000E430022B03D06F4809F0D0FB58E06E499C
:1016D00000201CF0C5FFC7F8E0006C49D7F8E00017
:1016E000FEF7AEFD0346002B06D1012006F094F96B
:1016F000674809F0BBFB43E05049D7F8E000FEF72C
:101700009FFD0346002B06D1022006F085F96148B3
:1017100009F0ACFB34E04B49D7F8E000FEF790FD50
:101720000346002B06D1032006F076F95A4809F04B
:101730009DFB25E0594809F099FB21E05849D7F86D
:10174000E000FEF77DFD0346002B0FD102F0CAF941
:101750000346002B06D0534809F088FB012002F015
:10176000E1F90DE0504809F081FB09E04F4809F02C
:101770007DFBD7F8E00009F079FB4D4809F076FBD6
:101780003A4B1B78002B3FF45FAB4A4809F06EFBE5
:10179000FFF75ABB484B1B78302B03D0464B1B78C6
:1017A000312B13D14FF40013C7F8D430424B5B7880
:1017B000302B03D10023C7F8D03003E04FF480135F
:1017C000C7F8D030012387F8FE3008E00023C7F8BF
:1017D000D4300023C7F8D030002387F8FE30374BD1
:1017E0005B79DBB2012B12D1FB8F013B324AD35C18
:1017F000692B08D14FF00043C7F8CC30FB8F013B79
:101800009BB2FB8707E00023C7F8CC3003E02C4BEA
:101810001B68C7F8CC300023C7F8D8300023C7F8BE
:10182000DC30254B1B78752B4CD1FB8F132B7FF4B1
:101830000BAB214803F0F8FCFFF706BB18010208C8
:101840000C0102081C010208200102082401020800
:10185000280102082C010208300102086001020878
:10186000640102086C01020874010208F5090220F3
:101870007C01020884010208D4010208DC0102088C
:101880005802020860020208CCF5010808010208AB
:101890008002020894020208A8020208BC020208A0
:1018A000EC020208F402020804030208180302080A
:1018B0002C03020870030208E49F01206C01002041
:1018C0000800002097F8FE30984AD35C742B06D0AD
:1018D00097F8FE30954AD35C722B40F08C80FB8FDA
:1018E0001A4697F8FE30D31A042B40F38480002365
:1018F000C7F8C0300023C7F8C43097F8FE30013372
:101900008A4A1344184609F083FC0346C7F8BC30E2
:1019100097F8FE300433854A1344184609F01AFC40
:10192000034687F8FF3097F8FF30C7F8C83097F8BC
:10193000FE307E4AD35C722B06D14FF00053C7F8BD
:10194000C430002387F8FF30FB8F1A4697F8FE302B
:10195000D21A97F8FF305B0005339A4245D197F8C9
:10196000FE30053387F8FE30002387F8F33018E0A7
:1019700097F8FE306D4A1A4497F8F330591C87F8EF
:10198000F3101C46104609F0F7FB03461A4604F50F
:1019900080733B4403F8842C97F8FE30023387F8B9
:1019A000FE3097F8FE20FB8F013B9A42E0DB02E01D
:1019B0000A2018F08EFB07F17C0207F1BC031146E8
:1019C000184601F0A5FB0346022BF1D0012158482F
:1019D00009F004FAD7F8BC3097F8FF1007F17C0241
:1019E000184603F0CDFA00F001BE0121514809F07C
:1019F000F5F900F0FBBD97F8FE304C4AD35C522B52
:101A000006D097F8FE30494AD35C542B40F09480BE
:101A1000FB8F1A4697F8FE30D31A092B40F38C80BF
:101A20004FF08043C7F8C0300023C7F8C43097F8A0
:101A3000FE3001333D4A1344184609F00FFC0346BB
:101A4000C7F8BC3097F8FE300933384A13441846BB
:101A500009F080FB034687F8FF3097F8FF30C7F89E
:101A6000C83097F8FE30314AD35C522B06D14FF084
:101A70000053C7F8C430002387F8FF30FB8F1A46A5
:101A800097F8FE30D21A97F8FF3005335B009A4280
:101A900045D197F8FE300A3387F8FE30002387F8E7
:101AA000F23018E097F8FE30204A1A4497F8F230E6
:101AB000591C87F8F2101C46104609F05DFB0346DE
:101AC0001A4604F580733B4403F8842C97F8FE30E3
:101AD000023387F8FE3097F8FE20FB8F013B9A42D5
:101AE000E0DB02E00A2018F0F4FA07F17C0207F1CB
:101AF000BC031146184601F00BFB0346022BF1D044
:101B000001210B4809F06AF9D7F8BC3097F8FF10AB
:101B100007F17C02184603F033FA00F067BD01219B
:101B2000034809F05BF900F061BD00BFE49F0120AC
:101B30008CF6010874030208D14B1B78233B562B0B
:101B400000F24F8501A252F823F000BF05210008E2
:101B5000E32500082D250008E3250008E3250008FB
:101B6000E3250008E3250008E3250008E325000835
:101B7000E3250008E3250008E3250008E325000825
:101B8000E3250008E3250008E3250008E325000815
:101B9000E3250008E3250008E3250008E325000805
:101BA000E3250008E3250008E3250008E3250008F5
:101BB000E3250008E3250008E32500085522000876
:101BC000CD200008E3250008E3250008C51C000817
:101BD000CD22000879220008EB1D0008E71F00084D
:101BE00055220008C522000829220008B721000854
:101BF000D71C0008E51E00081F1D0008A91C0008CE
:101C0000E3250008E3250008E3250008731D00080C
:101C1000E3250008E3250008F31C0008171E000850
:101C2000E325000801240008791F0008E3250008C7
:101C3000E3250008E3250008E3250008E325000864
:101C4000E325000829200008D3250008E124000826
:101C500013210008E325000859200008E3250008A7
:101C600055220008B71F0008FB2100087321000857
:101C70005F2200082F1F0008BB240008E32500088E
:101C8000F1220008A3220008E3250008AD1D00088A
:101C9000E3250008E32500089D200008A91F00088F
:101CA000E32500085D2400080121764809F096F834
:101CB000754B0022DA60754B01221A7001F034F97D
:101CC00000F094BC714B00221A7001216D4809F09C
:101CD00085F800F08BBC01216A4809F07FF86A4B57
:101CE0000222DA60694B01221A7001F01DF900F03E
:101CF0007DBC0F21664809F071F80C21654809F098
:101D00006DF80121644809F069F80921634809F078
:101D100065F80221624809F061F800F067BC4E23C3
:101D20003B72002387F8F13013E097F8F1205D4B08
:101D30001344187897F8F1305B00013307F108027B
:101D40001344194609F09EF997F8F130013387F8EA
:101D5000F13097F8F1300B2BE7D907F1080319217F
:101D6000184609F03BF80121464809F037F800F021
:101D70003DBCFB8F022B13D1414B5B78184601F021
:101D8000F9F80346002B05D101213E4809F026F859
:101D900000F02CBC0121444809F020F800F026BCDA
:101DA0000121414809F01AF800F020BCFB8F052BF7
:101DB00015D13E4809F0E0F903461A46324BDA6184
:101DC0003B4809F0D9F903461A462F4B1A6201F035
:101DD000ABF801212B4809F001F800F007BC012104
:101DE000314808F0FBFF00F001BC254B1B783B722B
:101DF000304B1B79DAB207F108030133194610465C
:101E000009F040F90D23FB7207F10803042118467D
:101E100008F0E4FFEAE3FB8F022B5DD1184B5B78FF
:101E2000303B032B53D801A252F823F03D1E00088B
:101E3000531E0008691E0008B91E00081D4B002231
:101E4000DA621C4B00225A6401210E4808F0C6FFDA
:101E500047E0184B0122DA62164B01225A64012135
:101E6000084808F0BBFF3CE0124B0222DA62114B3B
:101E700002225A640121034808F0B0FF31E000BF9C
:101E8000E49F01208CF60108B0C800206C010020FE
:101E90007803020888030208CCF5010894030208BD
:101EA000A00302089005FA0B74030208E59F0120C5
:101EB000E79F012008000020A14B0322DA62A04B1B
:101EC00003225A6401219F4808F088FF09E001219C
:101ED0009D4808F083FF04E001219B4808F07EFF45
:101EE00084E383E3FB8F042B0CD1984809F090F92D
:101EF0000346C3F30A03924A53630121914808F051
:101F00006DFF73E3FB8F092B0CD1904809F0A6F904
:101F1000034623F000438A4AD3640121894808F02C
:101F20005DFF63E30121884808F058FF5EE3FB8F03
:101F3000042B0CD1854809F06BF90346C3F30A035F
:101F40007F4A936301217F4808F048FF4EE3FB8FEF
:101F5000092B0CD17D4809F081F9034623F0004399
:101F6000774A13650121774808F038FF3EE30121E5
:101F7000754808F033FF39E3FB8F022B0FD1744B08
:101F80005B78302B03D1734B0022DA7002E0714B87
:101F90000122DA7001216B4808F020FF26E30121BD
:101FA000694808F01BFF21E300F0BEFF01216548EE
:101FB00008F014FF1AE3FB8F022B0FD1644B5B7800
:101FC000302B03D164480AF0A4FD02E062480AF015
:101FD0007FFD01215B4808F001FF07E301215A481A
:101FE00008F0FCFE02E3FB8F032B02D0FB8F052BD6
:101FF00015D1564809F0C0F803461A46564B9A6167
:10200000FB8F052B06D1554809F0B6F803461A4652
:10201000514B9A6201214B4808F0E0FEE6E20121B3
:10202000494808F0DBFEE1E2FB8F022B0FD1484B61
:102030005B78302B03D1484B00221A7402E0464BE8
:1020400001221A7401213F4808F0C8FECEE20121A6
:102050003D4808F0C3FEC9E2FB8F022B19D13C4B6F
:102060005B78302B03D13C4B00229A600CE0384B5C
:102070005B78312B04D1384B4FF480729A6003E0C7
:10208000354B4FF440729A6001212E4808F0A6FEAD
:10209000ACE201212C4808F0A1FEA7E2FB8F022B45
:1020A0000FD12B4B5B78302B03D12A4B00225A7176
:1020B00002E0284B01225A710121224808F08EFECD
:1020C00094E20121204808F089FE8FE2FB8F022B69
:1020D00013D11F4B5B78302B03D11E4B00221A719A
:1020E00006E01B4B5B78312B02D11A4B01221A718F
:1020F0000121144808F072FE78E20121124808F02C
:102100006DFE73E2164B01221A70164808F0AEFEFF
:102110006CE2FB8F022B27D10D4B5B78302B03D168
:10212000002003F0E7F806E0094B5B78312B02D181
:10213000012003F0DFF80121024808F04FFE55E2CC
:10214000080000208CF6010874030208E59F0120B6
:10215000E49F01206C010020B0C80020E79F01200F
:10216000F5090220A40302080121B14808F036FE57
:102170003CE2FB8F092B19D1AE4809F019F8034650
:102180001A46AD4B5A61AD4808F0F6FF03461A46B1
:10219000A94BDA61AA4808F0EFFF03461A46A64B9E
:1021A0001A620121A74808F019FE1FE20121A04888
:1021B00008F014FE1AE2FB8F072B19D19D4808F096
:1021C000DBFF03461A469C4B5A629F4808F0D4FF37
:1021D00003461A46984BDA62984808F0CDFF03464A
:1021E0001A46954B1A630121964808F0F7FDFDE168
:1021F00001218F4808F0F2FDF8E1944B1B783B7207
:1022000006F06EFA03461A4607F108030133194631
:10221000104608F037FF0D23FB7207F10803042175
:10222000184608F0DBFDE1E1884B1B783B7206F0B5
:102230007FFA024607F1080301331946104608F0F9
:1022400071FE0D237B7407F108030A21184608F07C
:10225000C5FDCBE116217E4808F0C0FDC6E1012195
:10226000784808F0BBFD744B0122DA60794B0122FB
:102270001A7000F059FEB9E107F1500319466E4893
:102280000AF04CFE07F1400319466B480AF096FE2F
:1022900007F1500207F140031146184603F0E0F839
:1022A000A4E107F108031846FEF774F9034687F81E
:1022B000FE3097F8FE2007F108031146184608F093
:1022C0008DFD93E1644803F025F88FE1FB8F032B2C
:1022D00009D15E4B5B787A2B05D15C4B9B785A2BEE
:1022E00001D104F07BFB0121514808F077FD7DE12D
:1022F000FB8F022B7ED1554B5B78422B07D0534B83
:102300005B78432B03D0514B5B78442B6DD1514B01
:1023100000229A704F4B00221A704FF48013C7F8B6
:10232000D0300023C7F8C8304FF40013C7F8D430BA
:102330000023C7F8C03040F28113C7F8BC30002337
:1023400087F8F0303AE0002003F098FD00F05AFFE3
:1023500000F0EAFD642017F0BCFE3C4B5B780121E5
:10236000184603F05BFD394B5B780121184603F0FA
:1023700025FD97F8F0305A1C13469B0013449B0030
:10238000184617F0A6FE02E00A2017F0A2FE07F199
:102390007C0207F1BC031146184600F0B9FE034663
:1023A000022BF1D0322017F094FE2B4B5B69002BEF
:1023B00009D197F8F030013387F8F03097F8F03012
:1023C000132BC0D900E000BF234B5B69002B04D165
:1023D0000121174808F002FD11E01E4B01221A707E
:1023E0000121184808F0FAFC09E00121104808F022
:1023F000F5FCFBE001210E4808F0F0FCF6E0F5E00A
:10240000FB8F022B0FD1114B5B78302B03D10020B7
:1024100003F034FD02E0012003F030FD0121094802
:1024200008F0DCFCE2E00121014808F0D7FCDDE027
:1024300074030208E59F0120B0C80020E99F012035
:10244000EB9F01208CF60108E79F0120E49F01200B
:10245000D40302086C01002008000020FB8F032B2E
:1024600026D1634B5B78422B07D0614B5B78432BC3
:1024700003D05F4B5B78442B15D15D4B9B78302BA1
:1024800006D15B4B5B780021184603F097FC05E012
:10249000574B5B780121184603F090FC0121554809
:1024A00008F09CFCA2E00121534808F097FC9DE055
:1024B0000121514808F092FC98E001214D4808F0B4
:1024C0008DFC4E4802F0B6FF002003F0D7FC002040
:1024D00003F0ECFC642017F0FCFD09F0B0FC85E093
:1024E000FB8F022B1DD1424B5B78302B06D1444B26
:1024F00001221A70434B00229A700DE0424B0022D9
:10250000DA60404B00221A7000F00EFD3D4B0122B4
:102510009A703B4B00221A700121364808F05EFC8D
:1025200064E00121344808F059FC5FE0FB8F032B85
:102530004AD9FB8F043BDA0F13445B10A7F8EA304B
:10254000324808F065FE03461A46B7F8EA3093426F
:1025500035D1B7F8EA301A462D492E4808F0C8FDA3
:1025600019F0F8FAB7F8EA2007F13C0300932A4B78
:10257000284908F0DDF9BB8F2449184608F024FDEE
:10258000BB8F1A462449224808F094FCBB8F0233C3
:102590005B00174A0D21D154BB8F5B0005331946F0
:1025A000134808F01BFC19F0D5FAB7F8EA2007F138
:1025B0003C030093184B174908F096FB16E00121E5
:1025C0000D4808F00BFC11E001210B4808F006FC57
:1025D0000CE0124B00221A700121064808F0FEFBA5
:1025E00004E00121044808F0F9FB00BFFEF72CBC11
:1025F000E49F01208CF6010874030208EC03020832
:10260000640000206C010020B0C80020E59F01207C
:10261000E89F0120F0E90120F4F90120F5090220EA
:1026200080B59EB000AF7860BD4B186807F14C01D3
:102630004FF0FF33282218F0B4FD0346282B40F05A
:102640007D81BB6D184608F053FE034687F877304E
:1026500097F87730002B10D0B14B186897F8772097
:1026600007F10C014FF0FF3318F09BFD024697F87D
:1026700077309A4201D000F08FFB7B6D002B12D196
:10268000FB6C97F8771007F10C02184602F078FC03
:1026900019F060FA024607F10C0107F14C031846E5
:1026A00003F0C6FA29E07B6DB3F1005F25D1FB6C26
:1026B000B3F5E06F21D19B4B00225A61994B002268
:1026C0009A61984B00229A603B6D964A5360FB6C6E
:1026D000944A1360BB6D934AD360924BDB68082B1E
:1026E00002D9904B0822DA6008228F498F4808F0FF
:1026F0001DFE8E498B4800F00BFD8D4B1B78DBB225
:10270000002B91D0002387F876307B6EB3F5001F45
:1027100017D13B6EB3F5801F09D197F876305A1C5C
:1027200087F876201A46834B3121995410E097F8A8
:1027300076305A1C87F876201A467E4B3021995401
:1027400006E097F87730082B02D9082387F877300E
:102750007B6D002B0ED13B6D002B01D1742100E06D
:10276000542197F876305A1C87F876201A46714B18
:10277000995410E03B6D002B01D1722100E05221F1
:1027800097F876305A1C87F876201A46694B995488
:10279000002387F877303B6D002B11D1FB6C9AB288
:1027A00097F8763063490B441946104608F00CFC44
:1027B0000346DAB297F87630134487F876300FE0A4
:1027C000FA6C97F876305B490B441946104608F0CE
:1027D000A9FB0346DAB297F87630134487F87630CF
:1027E0007B6EB3F5001F14D1BB6DDBB203F00F039A
:1027F000DAB297F876304F490B441946104608F084
:1028000061FC0346DAB297F87630134487F87630E5
:1028100013E097F8773003F00F03DAB297F87630C9
:1028200044490B441946104608F04CFC0346DAB202
:1028300097F87630134487F87630002387F87530A0
:1028400019E097F8753078333B4413F86C2C97F8FF
:10285000763038490B441946104608F013FC0346FD
:10286000DAB297F87630134487F8763097F87530F7
:10287000013387F8753097F8752097F877309A42CA
:10288000DFD32B4BDB78DBB2002B1BD019F062F9C6
:102890000246294BA3FB02139B0B4EF6602101FB62
:1028A00003F3D31A9AB297F8763022490B441946AB
:1028B000104608F0B3FB0346DAB297F876301344BB
:1028C00087F876301A4B5B79DBB2002B10D07B6E29
:1028D000B3F5001F0CD1FB6DB3F1004F08D197F891
:1028E00076305A1C87F876201A46124B6921995483
:1028F00097F876305A1C87F876201A460D4B0D2132
:10290000995497F8763019460A4808F067FA034652
:10291000002B3FF489AE064B00221A7084E600BFFC
:1029200000CA0220E0C802209005FA0B04C9022068
:102930006C010020ECBF012073B2E74500F02CFAD7
:1029400072E600BF80B59EB000AF786000233B67A1
:1029500015E0324B18683A6F1346DB0013449B00B6
:102960001A4607F14C0399183B6FC3F124024FF04C
:10297000FF3318F016FC02463B6F13443B673B6F76
:10298000232BE6D9BB6D184608F0B2FC034687F846
:1029900077307B6DB3F1005F02D1002387F8773089
:1029A00097F87730002B1FD000233B6711E01B4BBB
:1029B000186807F10C023B6FD11897F877203B6F2E
:1029C000D21A4FF0FF3318F0ECFB02463B6F134472
:1029D0003B6797F877303A6F9A42E8D304E04FF0BC
:1029E000FF31012019F078FD0D480AF02AFB03465B
:1029F000002BF4D007F10C0207F14C0319460848EC
:102A00000AF040F90346002B01D000F0C5F9054B50
:102A1000DB680133034AD36098E700BF04CA022091
:102A2000B0C800200800002080B584B000AF7860F6
:102A300002F09AFA00F078FA03F050FA00F0B2F9D6
:102A400005F0B4F91549164804F044FF19F082F86E
:102A50000346FB60134B1B78DBB2002B0FD1FB68E6
:102A6000184605F099F9FB68184605F0ABF9FB68C4
:102A7000184600F09EF9FB68184602F091FBFB68CF
:102A8000184605F00BF8FB68184603F0BDF807F18F
:102A90000C030A21184618F0DBFED7E7F8D7002010
:102AA00028C900206400002080B5A8B000AF78607D
:102AB0004FF0FF31012019F00FFD1AF07BFB1A488F
:102AC0000AF025FDC7F89C0007F160031946164877
:102AD0000AF024FA07F18C03194613480AF06EFA3B
:102AE000124AD7F89C309360104A07F10C03114644
:102AF000542218461BF0D9FE0B4B00221A661AF01E
:102B00006BFB07F10C0207F1600107F18C00D7F8AD
:102B10009C3002F015FE064B1868002302220021AB
:102B200019F076FD00BFC3E7B0C800200800002000
:102B30004CD3002080B588B002AF7860394B1B6859
:102B4000184618F0EDF90346012B65D9354B186886
:102B500007F10E014FF0FF33022218F022FB03466B
:102B6000022B59D1FB89B3F5805F55D20023FB823C
:102B700012E02C4B1868FB8A2B4A9918FB891A46DD
:102B8000FB8AD31A1A464FF0FF3318F00AFB0346AC
:102B90009AB2FB8A1344FB82FB89FA8A9A42E8D1F3
:102BA00018F0D8FFFA8907F10C0300931F4B1E4958
:102BB00007F0BEFEBB89002B24D01D4B186807F11F
:102BC0000C014FF0FF33022218F0C0F93861184BA6
:102BD0001868BB891A464FF0FF33144918F0B6F94C
:102BE00002463B6913443B61BB8902333A699A420E
:102BF00001D000F0D1F80F4B186800230222002109
:102C000019F006FD18F0A6FFFA8907F10C030093EE
:102C1000064B054908F068F84FF0FF31002019F025
:102C20005BFC8BE7D0C80220ECC90120F0D9012061
:102C3000D4C80220FCF5002080B584B000AF7860D5
:102C40000023FB81314B1B68184618F069F90346D5
:102C5000012B54D92D4B18684FF0FF3302222C4919
:102C600018F09FFA0346022B49D12A4B03F58053F3
:102C70009B8AB3F5805F42D20023FB8115E0234B92
:102C80001868FB89244A9918224B03F580539B8AC4
:102C90001A46FB89D31A1A464FF0FF3318F081FA0F
:102CA00003469AB2FB891344FB811A4B03F5805308
:102CB0009B8AFA899A42E2D118F04CFF03461946E2
:102CC000144803F09AFD0346002B18D10EE0134B75
:102CD0001B78DBB2002B05D00E4B03F5005393F8A5
:102CE000233000E00A23184617F0F3F918F032FFFA
:102CF0000346184607F0BCFD0346012BE7D14FF011
:102D0000FF31002019F0E8FB9CE700BFD4C8022087
:102D1000E4000320D0F00220EC0003206400002037
:102D200080B584B000AF78600D490E4808F00AF80D
:102D30000B4A0D490D481AF0D5FD0A4B18684FF0A3
:102D4000FF334FF400620A4918F02BFAF860FB6871
:102D5000002BF2D0F968064808F01AF8EDE700BF3A
:102D6000A8FE0020E09F0120F4C900209851012016
:102D7000ECC1012080B582B000AF78607B681B6831
:102D8000044A934201D108F011FF00BF0837BD4645
:102D900080BD00BF002C014080B400AF72B600BF00
:102DA00000BFFDE780B400AF00BFBD465DF8047B07
:102DB000704780B483B000AF786000BF0C37BD4669
:102DC0005DF8047B704780B400AF00BFBD465DF87E
:102DD000047B704780B582B002AF3D4B1B683D4914
:102DE000184609F0EAFD0346002B01D0FFF7D4FF97
:102DF000374B1B683849184609F0DFFD0346002BA6
:102E000001D0FFF7C9FF324B18680023009300235D
:102E10000222022109F02BFE0346002B01D0FFF70E
:102E2000BBFF2B4B1B68184609F094FE0346002B92
:102E300001D0FFF7B1FF264B1B6800220121184685
:102E40000AF011F90346002B01D0FFF7A5FF204B34
:102E50001B680022062118460AF005F90346002BDC
:102E600001D0FFF799FF1A4B1B6807224FF4F0516E
:102E700018460AF0F8F80346002B01D0FFF78CFF44
:102E8000134B1B680722802118460AF0ECF8034612
:102E9000002B01D0FFF780FF0D4B1B6800220F496C
:102EA00018460AF0E0F80346002B01D0FFF774FF44
:102EB000074B1B6800224FF4602118460AF0D3F834
:102EC0000346002B01D0FFF767FF00BFBD4680BD62
:102ED0000CC902202C00002044000020004071009A
:102EE00080B584B000AFF860B9607A60094AFB68C9
:102EF0001360094ABB681360084A7B68136008497D
:102F0000012017F0D4FA0346064A136000BF1037B9
:102F1000BD4680BD0CC9022010C9022014C9022080
:102F2000B0C90220ACC9022080B500AF0A4B1B68B3
:102F3000184609F01FFD084B1B68184609F0C8FB2E
:102F40000346002B01D0FFF727FF00F0C3F8FFF77F
:102F500041FF00BF80BD00BF0CC9022080B500AF9B
:102F6000034B1B68184609F005FD00BF80BD00BF7C
:102F70000CC9022080B485B000AF0346FB7100236A
:102F8000FB73FB79303B082B00F28B8001A252F8D7
:102F900023F000BFB92F0008D32F0008ED2F000841
:102FA00007300008213000083B3000085530000889
:102FB0006F30000889300008454B1B6832225A6187
:102FC000434B1B681422DA61414B1B6813221A62BF
:102FD00076E03F4B1B6819225A613D4B1B68142257
:102FE000DA613B4B1B6813221A6269E0384B1B689D
:102FF0000A225A61364B1B681422DA61344B1B6873
:1030000013221A625CE0324B1B6805225A61304B76
:103010001B681422DA612E4B1B6813221A624FE0E0
:103020002B4B1B6804225A61294B1B681422DA615E
:10303000274B1B6813221A6242E0254B1B680222B1
:103040005A61234B1B681422DA61214B1B6813223F
:103050001A6235E01E4B1B6801225A611C4B1B682B
:103060003F22DA611A4B1B6810221A6228E0184BC3
:103070001B6801225A61164B1B680C22DA61144B43
:103080001B680C221A621BE0114B1B6801225A615B
:103090000F4B1B681422DA610D4B1B6813221A6256
:1030A0000EE00B4B1B6801225A61094B1B683F2243
:1030B000DA61074B1B6810221A620123FB7300BF01
:1030C000FB7B18461437BD465DF8047B704700BF94
:1030D0000CC9022080B400AF0C4B00221A710B4BBC
:1030E0000022DA60094B00221A61084B00225A6163
:1030F000064B00229A61054B00229A60034B002286
:10310000DA6100BFBD465DF8047B7047080000200F
:1031100080B586B000AF786039600023BB747B68EF
:10312000DB68184608F0E4F80346FB747B689B688C
:10313000B3F1005F01D10023FB74FB7C2433FB60FF
:1031400000BF2C4B1B684FF0FF31184617F0C7FB30
:103150000346012BF5D1284B1B68184617F0B6FE25
:103160000246FB6893420AD9244B1B79DBB243F039
:103170000203DAB2214B1A710223BB7425E01E4B05
:1031800018684FF0FF332422796817F0DFFE78616A
:10319000FB7C002B0BD0184B1868FA7C4FF0FF33E8
:1031A000396817F0D3FE02467B6913447B617A6964
:1031B000FB689A4209D0114B1B79DBB243F008033C
:1031C000DAB20E4B1A710123BB740A4B1868002344
:1031D0000022002117F086F9094B1B6818680023AC
:1031E0000222002119F014FABB7C18461837BD469C
:1031F00080BD00BFACC9022004CA02200800002024
:1032000010C9022080B400AF1E4B1B6801225A6017
:103210001C4B1B684FF440729A601A4B1B680022CB
:10322000DA60184B1B6800221A74164B1B680022C8
:103230005A74144B1B6801229A74124B1B680122AA
:103240005A61104B1B6810229A610E4B1B683F227B
:10325000DA610C4B1B6810221A620A4B1B680122B0
:103260005A62084B1B6804229A62064B1B680F22A5
:10327000DA62044B1B6804221A6300BFBD465DF886
:10328000047B70470CC9022080B586B000AF78601F
:1032900039600023BB603B6803F00103002B4FD073
:1032A000454B464A4021786809F030FD0346002B23
:1032B00001D0FFF788FD424B5B690133404A5361FF
:1032C0003E4BDB68184608F013F80346FB74FB7CA2
:1032D0002833FB603B4B1B68184617F0F7FD02468E
:1032E000FB6893420ED9364B9B690133344A936194
:1032F000354B1B681B6807F108021146184619F088
:10330000E5FA1DE02F4B186807F1080328222B4926
:1033100017F0B5FE7861FB7C002B0BD0294B1868A9
:10332000FA7C07F10803244917F0A9FE02467B69DD
:1033300013447B617A69FB689A4201D0FFF743FD31
:103340003B6803F00203002B0BD01D4B1B79DBB253
:1033500043F00103DAB21A4B1A717B681B68022230
:103360001A653B6803F00403002B19D0144B9B69CA
:103370000133134A9361124B1B79DBB243F008030C
:10338000DAB20F4B1A717B681B6804221A650E4B68
:103390001B681B6807F108021146184619F096FAD7
:1033A000BB68002B03D0094B4FF080521A6000BF5E
:1033B0001837BD4680BD00BF18C9022058C9022079
:1033C0000800002000CA022014C9022004ED00E019
:1033D00080B584B000AF786039600023FB600C4B8F
:1033E0001B6901330A4A13610A4B1B681B6807F10A
:1033F0000C021146184619F069FAFB68002B03D03D
:10340000054B4FF080521A6000BF1037BD4680BD9B
:103410000800002010C9022004ED00E080B584B04F
:1034200000AF78600023FB600C4BDB6901330B4A73
:10343000D3610B4B1B681B6807F10C021146184641
:1034400019F044FAFB68002B03D0064B4FF0805272
:103450001A6000BF1037BD4680BD00BF08000020C5
:1034600014C9022004ED00E080B582B000AF78609E
:1034700039601E49786809F051FD3B6803F4003358
:10348000002B0BD0194BDB68002B03D1184B00220B
:103490001A6003E0164B4FF000421A603B6803F4D9
:1034A0008023002B14D0114B1B69012B08D1104B2A
:1034B0001B79DBB243F00403DAB20D4B1A7107E05B
:1034C0000B4B1B79DBB223F00403DAB2084B1A7101
:1034D0003B6803F40023002B03D0054B012283F843
:1034E000202000BF0837BD4680BD00BF80C9022034
:1034F0000800002090B585B002AF0023FB8051E0AA
:103500000023BB8045E0FA88BB883949097801FB74
:1035100003F31344374AD35C002B02D1364B1B888C
:1035200001E0364B1B883B800023FB7029E0002321
:10353000BB701EE0FB88324A127803FB02F2FB7874
:103540001A44BB882E49097803FB01F1BB780B4470
:103550002749097808462A49097800FB01F101FB4F
:1035600003F3134427493A8821F81320BB78013329
:10357000BB70234B1B78BA789A42DBD3FB780133BC
:10358000FB701F4B1B78FA789A42D0D3BB8801336B
:10359000BB801D4B1B781A46BB889342B3D3FB8874
:1035A0000133FB80124B1B781A46FB889342A7D34A
:1035B000164B1B781846164B1B781C46104B1B7875
:1035C0001A460B4B1B7812FB03F39AB20C4B1B7879
:1035D00019460D4B1B7811FB03F39BB2094900916F
:1035E000214604F0A6FE00BF0C37BD4690BD00BFCB
:1035F0006000002008060020A0DC022062000020FD
:103600005F00002008380020610000205D000020DD
:103610005E00002080B489B000AF0346FB71002338
:10362000FB6148E0FB79BB611EE0294B1B781A4621
:10363000BB6902FB03F3FA691344FB60FB79BA69C7
:10364000D31A234A127802FB03F3FA691344BB60CE
:10365000204AFB68134419781E4ABB6813440A4683
:103660001A70BB690133BB611B4B1B781A46BB69DF
:103670009342DADB184B1B781A46FB79D31A7B612D
:1036800010E0134B1B781A467B6902FB03F3FA69BF
:1036900013443B610F4A3B69134400221A707B6953
:1036A00001337B610A4B1B781A467B699342E8DB46
:1036B000FB690133FB61064B1B781A46FB69934299
:1036C000B0DB00BF00BF2437BD465DF8047B704708
:1036D00060000020080600206100002080B489B04E
:1036E00000AF0346FB710023FB6144E0284B1B78CD
:1036F0001A46FB79D31A013BBB611EE0254B1B78B0
:103700001A46BB6902FB03F3FA691344FB60FA79BA
:10371000BB6913441F4A127802FB03F3FA6913448E
:10372000BB601D4AFB68134419781B4ABB681344ED
:103730000A461A70BB69013BBB61BB69002BDDDA2D
:1037400000237B6110E0134B1B781A467B6902FB58
:1037500003F3FA6913443B610F4A3B6913440022A7
:103760001A707B6901337B61FB797A699A42EADBE3
:10377000FB690133FB61074B1B781A46FB699342D7
:10378000B4DB00BF00BF2437BD465DF8047B704743
:1037900061000020600000200806002080B489B08D
:1037A00000AF0423FB77314B1B78002B01D10223A0
:1037B000FB770023BB614BE000237B611FE02C4BB8
:1037C0001B781A46BB6902FB03F37A691344BB609A
:1037D000FA7F7B691A44264B1B781946BB6901FBAB
:1037E00003F313447B60234A7B6813441978214A0E
:1037F000BB6813440A461A707B6901337B611C4B1A
:103800001B781A46FB7FD31A7A699A42D7DB184B8A
:103810001B781A46FB7FD31A3B6110E0144B1B78D0
:103820001A46BB6902FB03F33A691344FB60114A71
:10383000FB68134400221A703B6901333B610C4B57
:103840001B781A463B699342E8DBBB690133BB61D5
:10385000094B1B781A46BB699342ADDB00BF00BF22
:103860002437BD465DF8047B704700BF9EDC022014
:1038700060000020080600206100002080B489B0AC
:1038800000AF0423FB772D4B1B78002B01D10223C3
:10389000FB770023BB6143E0294B1B78013B7B6135
:1038A0001FE0274B1B781A46BB6902FB03F37A69BA
:1038B0001344BB60FB7F7A69D21A214B1B781946EF
:1038C000BB6901FB03F313447B601E4A7B6813440E
:1038D00019781C4ABB6813440A461A707B69013B7D
:1038E0007B61FB7F7A699A42DBDA00233B6110E05F
:1038F000134B1B781A46BB6902FB03F33A69134466
:10390000FB60104AFB68134400221A703B690133C4
:103910003B61FB7F3A699A42EADBBB690133BB61D9
:10392000094B1B781A46BB699342B5DB00BF00BF49
:103930002437BD465DF8047B704700BF9EDC022043
:1039400060000020080600206100002080B489B0DB
:1039500000AF78600B467B804E4B4FF400721A80AC
:103960004D4B00221A804D4B00221A804C4B0022F6
:103970001A804C4B00221A704B4B00221A70002305
:10398000FB7706E0FB7F494A0021D154FB7F0133DE
:10399000FB77FB7F0F2BF5D90023BB610BE0444A7B
:1039A000BB6913441978434ABB6913440A461A7029
:1039B000BB690133BB61BB69EF2BF0D90023FB82EC
:1039C0000BE0FB8A7A681A44FB8A03F500731178CE
:1039D000384AD154FB8A0133FB82FA8A7B889A42A7
:1039E000EFD300237B7506E07B7D334A0021D15461
:1039F0007B7D01337B757B7D072BF5D97B8803F5B8
:103A000000737B8206E07B8A2A4A0021D1547B8A9C
:103A100001337B827B8A41F20F229342F3D9274BF9
:103A200000221A700023FB6007E0254AFB6813445C
:103A300000221A70FB680133FB60FB68B3F5005F7E
:103A4000F3D30023BB6008E01E4B19881E4ABB68F5
:103A500022F81310BB680133BB60BB68B3F5106F6D
:103A6000F2D31A4B03221A70194B00221A70194B09
:103A700018221A70184B2E221A70184B40221A70F6
:103A8000174B20221A7000BF2437BD465DF8047B17
:103A9000704700BF36DC022008CA022034DC022056
:103AA00078DC02209CDC02209DDC02201CDC022051
:103AB0000C1802080CCA02202CDC0220A2DC022016
:103AC00008060020A0DC0220082600205F0000205D
:103AD0009EDC02205D0000205E00002060000020CF
:103AE0006100002080B400AF034B1B781846BD4630
:103AF0005DF8047B704700BFA3DC022080B483B074
:103B000000AF7860054A7B681360054B01221A708C
:103B100000BF0C37BD465DF8047B7047A4DC022073
:103B2000A3DC022080B400AF034B00221A7000BF58
:103B3000BD465DF8047B7047A3DC0220B0B58EB0B3
:103B400002AF7860002387F82E300AE097F82E3015
:103B5000AE4A002122F8131097F82E30013387F86F
:103B60002E3097F82E300F2BF0D9A94BD3E90C014A
:103B70004FF000024FF00003020A42EA01620B0A12
:103B8000941E43F1FF35052C75F1000322D2042C5D
:103B900020D801A353F824F0AD3B0008B53B000842
:103BA000BD3B0008C53B0008CD3B0008974BFF22FA
:103BB0005A810FE0954BFF221A820BE0934BFF22B4
:103BC0005A8207E0914BFF22DA8103E08F4BFF22FC
:103BD0009A8100BF8F4B1B687A68D31A102B16D9B5
:103BE0008D4B1B78002B05D08B4B1B78013BDAB239
:103BF000894B1A70894B1B78002B05D0874B1B789B
:103C0000013BDAB2854B1A70824A7B681360844BA1
:103C10001B8841F20F22934205D8824B1B8841F248
:103C20000F22934204D9804B00221A7001F032B95E
:103C30007B4B1B881A467D4B9B5C1B021AB2784B50
:103C40001B8801337949CB5C1BB213431BB29AB278
:103C5000774B1A80764B1B8803F47043B3F5704F93
:103C600000F0D586B3F5704F01F31181B3F5604FC5
:103C700000F08A86B3F5604F01F30981B3F5504F28
:103C800000F05784B3F5504F01F30181B3F5404F75
:103C900000F03684B3F5404F01F3F980B3F5304FAF
:103CA00000F02184B3F5304F01F3F180B3F5204FDC
:103CB00000F00A84B3F5204F01F3E980B3F5104F0B
:103CC00000F0E483B3F5104F01F3E180B3F5004F4A
:103CD00000F04782B3F5004F01F3D980B3F5E04F10
:103CE00000F02482B3F5E04F01F3D180B3F5C04F6B
:103CF00000F00A82B3F5C04F01F3C980B3F5A04FBD
:103D000000F0E481B3F5A04F01F3C180B3F5804F1B
:103D100000F0A381B3F5804F01F3B980B3F5405FA4
:103D200000F08081B3F5405F01F3B180B3F5005F2F
:103D300000F05A81B3F5005F01F3A980002B05D094
:103D4000B3F5805F00F0478101F0A1B8384B1B88C4
:103D5000DBB2012B50D0002B40F30A81FF2B00F384
:103D60000781E02BC0F20481E03B1F2B00F20081B1
:103D700001A252F823F000BF073E0008713F00087F
:103D8000713F0008713F0008713F0008713F000853
:103D9000713F0008713F0008713F0008713F000843
:103DA000713F0008713F0008713F0008713F000833
:103DB000953E0008713F0008713F0008713F000800
:103DC000713F0008713F0008713F0008713F000813
:103DD000713F0008713F0008713F0008713F000803
:103DE000713F0008CD3E0008E33E0008F93E0008A0
:103DF000013F0008393F0008094B1B8802339AB283
:103E0000074B1A80E5E00023BB621BE07CDC02204C
:103E100068000020A4DC02209DDC02209CDC022043
:103E200036DC022034DC0220A3DC02200CCA022093
:103E300008CA0220964ABB6A134400221A70BB6A61
:103E40000133BB62BB6AB3F5005FF3D3914B1B78C0
:103E50001846914B1B781C46904B1B781A46904B8A
:103E60001B7812FB03F39AB28E4B1B7819468C4BCE
:103E70001B7811FB03F399B28B4B1B8800930B4605
:103E8000214604F0B5F9894B1B8802339AB2874B5F
:103E90001A809EE0864B1B88013B9AB2844B1A80A5
:103EA000834B1B883F2B02D9824B00221A70804B18
:103EB0001B881A46804B33F812207C4B1A807B4BB0
:103EC0001B8802339AB2794B1A8082E0FFF7D6FC46
:103ED000FFF710FB754B1B8802339AB2734B1A80A5
:103EE00077E0FFF75BFCFFF705FB704B1B880233A5
:103EF0009AB26E4B1A806CE06E4B00221A7068E02A
:103F0000674B03221A706D4B00221A70614B182206
:103F10001A70614B2E221A70604B40221A70614B4E
:103F200020221A70614B1B8802339AB25F4B1A80B1
:103F3000634B00221A704CE0594B01221A70554B0A
:103F400038221A70544B40221A70544B80221A7037
:103F5000544B40221A70594B01221A70534B1B8844
:103F600002339AB2514B1A80554B00221A7030E03E
:103F7000544B1B8803F0F003C02B13D0D02B23D15C
:103F8000504B1B88DBB203F00F03DBB21846FFF780
:103F900041FBFFF7AFFA454B1B8802339AB2434B04
:103FA0001A8016E0474B1B88DBB203F00F03DBB22D
:103FB0001846FFF793FBFFF79DFA3C4B1B88023333
:103FC0009AB23A4B1A8004E03A4B00221A7000F081
:103FD00061BF00F05FBF3B4B1B88C3F30B039AB27A
:103FE000324B1A8000F056BF314B1B881A462F4BBC
:103FF0001988314B23F812102D4B1B8801339AB2CC
:104000002B4B1A802A4B1B883F2B02D9294B0022AD
:104010001A702C4B1B88C3F30B039AB2234B1A80E4
:1040200000F038BF274B1B881B1203F00F03264AF2
:10403000D35C1A46234B1B88DBB29A4205D11B4B3B
:104040001B8802339AB2194B1A80184B1B88023313
:104050009AB2164B1A8000F01DBF1A4B1B881B1218
:1040600003F00F03184AD35C1A46164B1B88DBB2C9
:104070009A4205D00D4B1B8802339AB20B4B1A8023
:104080000A4B1B8802339AB2084B1A8000F002BF19
:10409000080600205D0000205E0000206000002077
:1040A0005F00002061000020A0DC022036DC02203E
:1040B00078DC0220A3DC022038DC02209EDC022017
:1040C000A2DC022008CA02201CDC0220A04B1B88B4
:1040D0001B1203F00F039F4AD25C9D4B1B881B11E0
:1040E00003F00F039B49CB5C9A4205D19A4B1B8886
:1040F00002339AB2984B1A80974B1B8802339AB2BC
:10410000954B1A8000F0C6BE914B1A88904B1B88C5
:104110001B1203F00F03D1B28E4AD1548E4B1B8871
:1041200002339AB28C4B1A8000F0B4BE884B1B88C5
:104130001B1203F00F03874AD15C854B1B88DAB250
:10414000834B1B881B1203F00F030A44D1B2814A30
:10415000D154814B1B8802339AB27F4B1A8000F0F6
:1041600099BE7B4B1B881B12DBB203F00F037B72E3
:10417000774B1B881B11DBB203F00F033B72744BB0
:104180001B8803F00F030E2B00F2798101A252F875
:1041900023F000BFD1410008FB410008374200086E
:1041A00073420008AF42000827430008A7430008F5
:1041B0000D4400087F4400087F4400087F44000845
:1041C0007F4400087F4400087F440008DB43000868
:1041D0005F4B1B881B1103F00F025D4B1B881B12EA
:1041E00003F00F035B49895C5A4AD1545A4B1B8830
:1041F00002339AB2584B1A8046E1554B1B881B126A
:1042000003F00F03534AD15C514B1B881B1103F081
:104210000F03504AD25C4E4B1B881B1203F00F0356
:104220000A43D1B24B4AD1544B4B1B8802339AB24A
:10423000494B1A8028E1464B1B881B1203F00F03E1
:10424000444AD15C424B1B881B1103F00F03414AC7
:10425000D25C3F4B1B881B1203F00F030A40D1B204
:104260003C4AD1543C4B1B8802339AB23A4B1A80D9
:104270000AE1374B1B881B1203F00F03354AD15C50
:10428000334B1B881B1103F00F03324AD25C304BB7
:104290001B881B1203F00F034A40D1B22D4AD154A0
:1042A0002D4B1B8802339AB22B4B1A80ECE0284B23
:1042B0001B881B1103F00F03264AD35C1946244BBD
:1042C0001B881B1203F00F03224AD35CC3F1FF03C8
:1042D000994203DD012387F82F3002E0002387F89D
:1042E0002F301B4B1B881B1203F00F03194AD15CA4
:1042F000174B1B881B1103F00F03164AD25C144B9B
:104300001B881B1203F00F030A44D1B2114AD15487
:10431000104A97F82F30D3730F4B1B8802339AB291
:104320000D4B1A80B0E00A4B1B881B1103F00F03E2
:10433000084AD25C064B1B881B1203F00F03054989
:10434000CB5C9A420AD9002387F82F3009E000BFDE
:1043500008CA02201CDC022036DC0220012387F878
:104360002F309B4B1B881B1203F00F03994AD15C23
:10437000974B1B881B1103F00F03964AD25C944B9A
:104380001B881B1203F00F038A1AD1B2914AD15431
:10439000904A97F82F30D3738F4B1B8802339AB211
:1043A0008D4B1A8070E03B7A8A4AD35C03F001039C
:1043B00087F82F303B7A874AD25C7B7A5208D1B299
:1043C000844AD154834A97F82F30D373824B1B8889
:1043D00002339AB2804B1A8056E03B7A7D4AD35C16
:1043E000DB0987F82F303B7A7A4AD25C7B7A52001D
:1043F000D1B2784AD154774A97F82F30D373764B9D
:104400001B8802339AB2744B1A803DE0704B1B88B4
:104410001B1203F00F036F4AD25C6D4B1B881B11FC
:1044200003F00F036B49CB5C9A4203D9002387F852
:104430002F3002E0012387F82F30654B1B881B11BA
:1044400003F00F03634AD15C614B1B881B1203F01E
:104450000F03604AD25C5E4B1B881B1203F00F03F4
:104460008A1AD1B25B4AD1545A4A97F82F30D37383
:10447000594B1B8802339AB2574B1A8004E0574BB2
:1044800000221A7000F006BD00F004BD504B1B88DE
:104490001B1203F00F034F4AD25C4D4B1B881B11BC
:1044A00003F00F034B49CB5C9A4205D04A4B1B8863
:1044B00002339AB2484B1A80474B1B8802339AB298
:1044C000454B1A8000F0E6BC414B1B88C3F30B033D
:1044D0009AB2434B1A80404B1B8802339AB23E4B30
:1044E0001A8000F0D7BC3A4B1B88C3F30B039BB276
:1044F000384A127813449AB2374B1A8000F0CABC7B
:1045000004F0EEF803465AB2314B1B885BB21340FD
:104510005AB22F4B1B881B1203F00F03D1B22D4A46
:10452000D1542D4B1B8802339AB22B4B1A8000F0CA
:10453000B1BC274B1B881B1203F00F03254AD35C29
:104540003B82234B1B881B1103F00F03214AD35CD2
:10455000FB811F4B1B8803F00F03FB8400237B733D
:10456000082387F823301B4B0022DA731D4B1B787E
:10457000002B1FD11C4B1B7818461C4B1B781C466C
:104580001B4B1B781A461B4B1B7812FB03F39AB28A
:10459000194B1B781946174B1B7811FB03F399B283
:1045A000164B1B8800930B46214603F021FE0D4B52
:1045B00001221A70FB8C002B29D1114B1B78002B88
:1045C00020D01023FB84102387F823301FE000BF86
:1045D00008CA02201CDC022036DC0220A3DC0220F8
:1045E00034DC0220A2DC02205D0000205E000020FE
:1045F000600000205F00002061000020A0DC02209D
:104600009EDC02201023FB84102387F823308023B4
:104610003B840023FB773A8A97F8233013448D4A72
:104620001278934206DCFA89FB8C13448A4A12788A
:10463000934201DD012300E000237B730023BB8351
:1046400056E1FB8C102B1AD14FF400433B84834B73
:104650001B881A46BB8B5B001344814AD35C1B0248
:10466000BB847E4B1B881A46BB8B5B001344013313
:104670007B4AD35C1A46BB8C1343BB8409E080237E
:104680003B84764B1B881A46BB8B1344744AD35C1D
:10469000BB8400237B8321E1BA8C398C7B8B41FA6C
:1046A00003F31340002B01D0012300E000233B73F0
:1046B0003B7B002B00F0A2800123FB773A8A7B8BA7
:1046C0001344644A127893FBF2F101FB02F2991A47
:1046D000FA89BB8B1344604A127893FBF2F000FB1B
:1046E00002F29B1A5B4A127802FB03F30B445D4A09
:1046F000D35C002B02D05C4B0122DA733A8A7B8BAD
:104700001344544A127893FBF2F101FB02F29B1A14
:10471000F989BA8B0A445049097892FBF1F000FB01
:1047200001F1521A4B49097802FB01F119444D4835
:10473000415C4848007800FB02F213443A7B4A404F
:10474000D1B2484AD1547B7B002B57D03A8A7B8B1D
:104750001344404A127893FBF2F101FB02F2991ADA
:10476000FA89BB8B13443C4A127893FBF2F000FBAE
:1047700002F29B1A374A127802FB03F30B44394AC0
:10478000D35C002B02D1394B1B8801E0384B1B88CE
:104790007B81384B1B7818463A8A7B8B13442D4A11
:1047A000127893FBF2F101FB02F29B1A9BB2324AA0
:1047B000127813FB02F39BB2034498B22F4B1B7881
:1047C0001C46FA89BB8B1344234A127893FBF2F1FF
:1047D00001FB02F29B1A9BB2274A127813FB02F3E9
:1047E0009BB2234499B2244B1B781A46224B1B7868
:1047F0001C467B890093234603F0FAFC7B7B002B4D
:1048000069D13A8A7B8B1344124A127893FBF2F1F6
:1048100001FB02F2991AFA89BB8B13440E4A1278F3
:1048200093FBF2F000FB02F29B1A0A4A127802FB99
:1048300003F30B440B4AD35C002B02D10B4B1B88B8
:1048400001E00B4B1B887B8100237B763EE000233D
:104850003B7633E0600000206100002034DC022061
:104860000CCA0220080600201CDC0220A0DC02206A
:10487000620000205D0000205F0000205E0000203C
:104880007B8BAE4A127803FB02F27B7E1A44BB8B11
:10489000AA49097803FB01F13B7E0B4497F82310EA
:1048A000A648007800FB01F101FB03F31344A4497F
:1048B0007A8921F813203B7E01333B769F4B1B788E
:1048C0003A7E9A42DCD37B7E01337B769B4B1B780E
:1048D0007A7E9A42BBD37B8B01337B8397F823305C
:1048E0009BB27A8B9A42FFF4D7AEBB8B0133BB836A
:1048F000BA8BFB8C9A42FFF4A4AEFB7F002B3CD01A
:104900007B7B002B39D18F4B1B7818463B8A8E4A14
:10491000127893FBF2F101FB02F29B1A9BB2874AD9
:10492000127813FB02F39BB2034498B2874B1B78B7
:104930001C46FB89864A127893FBF2F101FB02F2D6
:104940009B1A9BB27D4A127813FB02F39BB223445D
:1049500099B27A4B1B781A4697F823309BB212FB18
:1049600003F39AB2754B1B781C46FB8C13FB04F3C4
:104970009BB2734C009403F0DCFC764B1B88023333
:104980009AB2744B1A8085E2734B1B88DBB29E2B64
:1049900002D0A12B1BD035E06F4B1B881B1203F0FC
:1049A0000F036E4AD35C1A466D4B33F81230002B5E
:1049B00006D0684B1B8804339AB2664B1A8025E0F8
:1049C000644B1B8802339AB2624B1A801EE0624B22
:1049D0001B881B1203F00F03604AD35C1A46604B1E
:1049E00033F81230002B06D15A4B1B8804339AB28D
:1049F000584B1A800AE0574B1B8802339AB2554B2A
:104A00001A8003E0574B00221A7043E242E2524BF5
:104A10001B88DBB2852B00F01982852B00F33182D5
:104A2000752B00F0E181752B00F32B82652B00F0D4
:104A3000AD81652B00F32582332B63DC072BC0F29D
:104A40002082073B2C2B00F21C8201A252F823F09B
:104A50000D4B0008834E0008834E00082D4B0008C4
:104A6000834E0008834E0008834E0008834E0008E2
:104A7000834E0008834E0008834E0008834E0008D2
:104A8000834E0008834E0008CD4B0008834E00087B
:104A9000834E0008ED4B0008834E0008834E00084B
:104AA000834E0008834E0008834E00080D4C00081A
:104AB000834E0008834E0008834E0008834E000892
:104AC000834E0008834E0008834E0008834E000882
:104AD000834E0008834E0008374C0008834E0008C0
:104AE000834E0008834E0008834E0008834E000862
:104AF000834E00085F4C0008834E0008834E000878
:104B00008D4C0008552B00F01381BAE1124B1B8825
:104B10001B1203F00F03144A1178104AD1540D4BA5
:104B20001B8802339AB20B4B1A80AFE10F4B1B78F4
:104B3000FF2B2FD10023FB7528E000BF5F00002072
:104B4000082600205D000020600000205E0000209C
:104B50006100002036DC022008CA02201CDC022092
:104B60007CDC0220A3DC02209CDC02205C00002014
:104B7000FB7D9F4A32F81330002B04D09D4AFB7D09
:104B8000137000BF81E1FB7D0133FB75FB7D0F2BB3
:104B9000EED97AE1974B1B781A46954B33F81230D1
:104BA000002B40F07281944B1B881B1203F00F0303
:104BB000904A1178914AD154914B1B8802339AB292
:104BC0008F4B1A808B4BFF221A705EE18A4B1B8839
:104BD0001B1203F00F03894AD25C8A4B1A70884B70
:104BE0001B8802339AB2864B1A804FE1824B1B8896
:104BF0001B1203F00F03814AD25C834B1A70804B67
:104C00001B8802339AB27E4B1A803FE17A4B1B8895
:104C10001B1203F00F03794AD35C1A467B4B1B88A7
:104C200013449AB2794B1A80754B1B8802339AB29F
:104C3000734B1A802AE1704B1B881B1203F00F0381
:104C40006E4AD35C1A46920013449AB26F4B1A8094
:104C50006B4B1B8802339AB2694B1A8016E1664B84
:104C60001B881B1203F00F03644AD35C1A469200A0
:104C700013445B009BB250339AB2644B1A80604B72
:104C80001B8802339AB25E4B1A80FFE05A4B1B8896
:104C90001B1203F00F03594AD35C5C4A1288114679
:104CA0005B4AA2FB03235B09DAB25A4B5A54524BBC
:104CB0001B881B1203F00F03504AD35C564AA2FB19
:104CC0000323DB08DAB2514B1B88581C524BA3FB61
:104CD0000213D9080B469B000B445B00D31ADAB2CF
:104CE0004C4B1A54444B1B881B1203F00F03434ACE
:104CF000D35C474AA2FB03125209642101FB02F272
:104D00009B1ADAB2414B1B88981C434BA3FB02133E
:104D1000D9080B469B000B445B00D31ADAB23D4B1B
:104D20001A54374B1B8802339AB2354B1A80ADE0C8
:104D30000023BB750CE0BA7D344B1B881946BB7D44
:104D40000B442E49895C334AD154BB7D0133BB757A
:104D5000BA7D294B1B881B1203F00F039A42EADD30
:104D6000254B1B881B129BB203F00F039AB2274BF3
:104D70001B8813449BB201339AB2244B1A80204BF8
:104D80001B8802339AB21E4B1A807FE000237B758A
:104D90000CE01E4B1B881A467B7D1A447B7D1D4907
:104DA000895C164AD1547B7D01337B757A7D124B29
:104DB0001B881B1203F00F039A42EADD0E4B1B887F
:104DC0001B129BB203F00F039AB2104B1B881344C3
:104DD0009BB201339AB20D4B1A80094B1B880233E8
:104DE0009AB2074B1A8051E000233B751FE000BFC9
:104DF0007CDC02205C00002008CA02201CDC0220AF
:104E000036DC02209CDC02209DDC022034DC022007
:104E10001F85EB510CCA0220CDCCCCCC3A7D3B7D1A
:104E20001E49895C1E4AD1543B7D01333B753A7D56
:104E30001C4B1B881B1203F00F039A42EEDD1A4B2A
:104E40001B8802339AB2184B1A801FE00023FB74B0
:104E500008E0FA7CFB7C1249895C104AD154FB7C47
:104E60000133FB74FA7C0F4B1B881B1203F00F03FA
:104E70009A42EEDD0C4B1B8802339AB20A4B1A8021
:104E800004E00A4B00221A7004E000BF02E0074B66
:104E900000221A7018463037BD46B0BD1CDC022017
:104EA0002CDC022008CA022036DC0220A3DC02200F
:104EB00080B483B000AF7860044A7B68136000BFA1
:104EC0000C37BD465DF8047B704700BFA8DC0220AC
:104ED00080B485B000AF786039607B68FB604FF0CC
:104EE000FF33BB600EE0FB685A1CFA601B781A4661
:104EF000BB685340DBB20A4A52F82320BB681B0A46
:104F00005340BB603B685A1E3A60002BEBD1BB6834
:104F1000DB4318461437BD465DF8047B704700BF7D
:104F2000CC38020880B582B000AF78607B689B6E99
:104F30009BB2184606F019FA03461A467B68DA84D3
:104F40007B68243304211846FFF7C2FF02467B68C2
:104F50009A62044B1A687B681A6100BF0837BD4625
:104F600080BD00BF0800002080B400AF034B0122C9
:104F70001A7000BFBD465DF8047B704764000020D6
:104F80002DE9B04F98B000AFF865B9657A657B6DD3
:104F90001B889BB27A6D1380BB6D012B06D87B6D8D
:104FA0001B889BB2DBB29BB27A6D1380BB6D002B6A
:104FB00000F0EC80FA6D40F2D3139A4200F0A98021
:104FC000FB6DB3F5EA7F80F0E080FA6D40F2BB1331
:104FD0009A4200F0CA80FB6DB3F5DE7F80F0D58089
:104FE000FB6DB3F5DC7F00F0A380FB6DB3F5DC7FD8
:104FF00000F2CB80FB6DB3F5A87F00F0A980FB6DBC
:10500000B3F5A87F00F2C180FB6D982B58D0FB6DE3
:10501000982B00F2BA80FB6D772B44D0FB6D772B79
:1050200000F2B380FB6D622B2CD0FB6D622B00F283
:10503000AC80FB6D242B03D0FB6D392B11D0A4E089
:105040007B6D1B889BB2184606F08FF903469BB216
:105050000022BB64FA64504BD7E91212C3E9001274
:1050600094E07B6D1B889BB2184606F07EF90346E0
:105070009BB200223B647A64474BD7E91012C3E924
:10508000041283E07B6D1B889BB2184606F06DF915
:1050900003469BB20022BB63FA633F4BD7E90E1273
:1050A000C3E9081272E07B6D1B889BB29BB20022A1
:1050B0003B637A63384BD7E90C12C3E90C1265E005
:1050C0007B6D1B889BB29BB20022BB62FA62BB6AFB
:1050D00003F0FF033B6200237B622F4BD7E90812EA
:1050E000C3E916122C4BD3E9162313430AD02B4BDA
:1050F0001B78002B06D1284BD3F888300133264A81
:10510000C2F88830244BD3E91623D2B2234B1A704D
:105110003CE07B6D1B889BB29BB20022BB61FA61B5
:10512000BB6903F0FF0400251B4BC3E910452DE0CC
:105130007B6D1B889BB29BB200223B617A613B690D
:1051400003F0FF0A4FF0000B134BC3E91EAB1DE049
:105150007B6D1B889BB29BB20022BB60FA600E4B3A
:10516000D7E90212C3E91A1210E07B6D1B889BB2CB
:105170009BB200223B607A603B6803F0FF084FF06F
:105180000009054BC3E9208900E000BF00BF60377C
:10519000BD46BDE8B08F00BF68000020ACDC022037
:1051A00080B584B000AF78600023FB7331E0FB7BF7
:1051B0001C4A52F82330DB6E7A68D21AFB7B1949FD
:1051C00051F823305B6E9A4220D3FB7B154A52F88C
:1051D00023301846FFF7A6FEFB7B124A52F8233015
:1051E0001846FB7B0F4A52F8233024331946FDF74B
:1051F0008FFFFB7B0B4A52F823309A6E01329A667E
:10520000FB7B084A52F823307A68DA66FB7B01336D
:10521000FB73FB7B062BCAD900BF00BF1037BD460E
:1052200080BD00BFF800002080B582B000AF78607C
:105230007B680133184605F0EBFF0346184606F07D
:1052400094F803461A46244B9A847B680433184624
:1052500005F0DEFF0346184606F087F803461A46B7
:105260001E4B9A847B680733184605F0D1FF03462E
:10527000184606F07AF803461A46194B9A847B685A
:105280000A33184605F0C4FF0346184606F06DF8C9
:1052900003461A46134B9A847B680D33184605F073
:1052A0006BFF03461A46104B9A847B680F331846EF
:1052B00005F062FF03461A460C4B9A847B68113353
:1052C000184605F059FF03461A46094B9A8400BF59
:1052D0000837BD4680BD00BF7C010020EC010020E6
:1052E0005C020020CC0200203C030020AC03002024
:1052F0001C04002080B483B000AF0346FB71044A55
:10530000FB79137000BF0C37BD465DF8047B704716
:10531000ADDC022080B5C4B000AF07F58873A3F5FB
:10532000867318600023C7F80C31D7F80C315A1C6B
:10533000C7F80C2107F58872A2F582724921D15471
:1053400007F58873A3F586731B68D86807F10C020C
:10535000D7F80C311344194605F0E4FD0246D7F89E
:105360000C311344C7F80C3107F58873A3F5867325
:105370001B68186907F10C02D7F80C311344194661
:1053800005F0D0FD0246D7F80C311344C7F80C31B4
:1053900007F58873A3F586731B68586907F10C023B
:1053A000D7F80C311344194605F0BCFD0246D7F876
:1053B0000C311344C7F80C3107F58873A3F58673D5
:1053C0001B68986907F10C02D7F80C311344194691
:1053D00005F0A8FD0246D7F80C311344C7F80C318C
:1053E000134B986807F10C02D7F80C311344194697
:1053F00005F098FD0246D7F80C311344C7F80C317C
:10540000D7F80C315A1CC7F80C2107F58872A2F5A1
:1054100082720D21D15407F10C03D7F80C111846F4
:1054200005F0DCFC00BF07F58877BD4680BD00BFF6
:105430006C01002080B582B000AF7860074B1B780C
:10544000012B07D17868FAF705FF034619467868FB
:1054500005F0C4FC00BF0837BD4680BDADDC0220AE
:1054600080B5C4B000AF07F58873A3F586731860E4
:1054700007F58873A3F5887319600023C7F80C310A
:10548000D7F80C315A1CC7F80C2107F58872A2F521
:1054900082724521D154A94B986807F10C02D7F8C4
:1054A0000C311344194605F03DFD0246D7F80C3186
:1054B0001344C7F80C3107F58873A3F586731B688E
:1054C000186807F10C02D7F80C311344194605F09F
:1054D00029FD0246D7F80C311344C7F80C3107F503
:1054E0008873A3F586731B68586807F10C02D7F818
:1054F0000C311344194605F015FD0246D7F80C315E
:105500001344C7F80C3107F58873A3F586731B683D
:10551000986807F10C02D7F80C311344194605F0CE
:1055200001FD0246D7F80C311344C7F80C3107F5DA
:105530008873A3F586731B68D86807F10C02D7F847
:105540000C311344194605F0EDFC0246D7F80C3136
:105550001344C7F80C3107F58873A3F588731B68EB
:10556000186807F10C02D7F80C311344194605F0FE
:10557000D9FC0246D7F80C311344C7F80C3107F5B3
:105580008873A3F588731B68586807F10C02D7F875
:105590000C311344194605F0C5FC0246D7F80C310E
:1055A0001344C7F80C3107F58873A3F588731B689B
:1055B000986807F10C02D7F80C311344194605F02E
:1055C000B1FC0246D7F80C311344C7F80C3107F58B
:1055D0008873A3F588731B68D86807F10C02D7F8A5
:1055E0000C311344194605F09DFC0246D7F80C31E6
:1055F0001344C7F80C3107F58873A3F588731B684B
:10560000186907F10C02D7F80C311344194605F05C
:1056100089FC0246D7F80C311344C7F80C3107F562
:105620008873A3F588731B68586907F10C02D7F8D3
:105630000C311344194605F075FC0246D7F80C31BD
:105640001344C7F80C3107F58873A3F588731B68FA
:10565000986907F10C02D7F80C311344194605F08C
:1056600061FC0246D7F80C311344C7F80C3107F53A
:105670008873A3F588731B68D86907F10C02D7F803
:105680000C311344194605F04DFC0246D7F80C3195
:105690001344C7F80C3107F58873A3F588731B68AA
:1056A000186A07F10C02D7F80C311344194605F0BB
:1056B00039FC0246D7F80C311344C7F80C3107F512
:1056C0008873A3F588731B68586A07F10C02D7F832
:1056D0000C311344194605F025FC0246D7F80C316D
:1056E0001344C7F80C3107F58873A3F588731B685A
:1056F000986A07F10C02D7F80C311344194605F0EB
:1057000011FC0246D7F80C311344C7F80C31D7F816
:105710000C315A1CC7F80C2107F58872A2F5827269
:105720000D21D15407F10C03D7F80C11184605F0E0
:1057300055FB00BF07F58877BD4680BD08000020F7
:1057400080B58EB000AFF860B9607A603B60AB485E
:10575000FFF770FEAA48FFF76DFEAA4B1B79DBB27C
:10576000002B06D0B968F868FFF77AFE7868FFF773
:10577000D1FD3B68002B00F0E1813B6803F00103A1
:10578000002B02D0A048FFF755FE3B6803F0020350
:10579000002B02D09D48FFF74DFE3B6803F0040349
:1057A000002B02D09A48FFF745FE3B6803F0080340
:1057B000002B02D09748FFF73DFE3B6803F0100333
:1057C000002B02D09448FFF735FE3B6803F020031E
:1057D000002B02D09148FFF72DFE3B6803F04003F9
:1057E000002B02D08E48FFF725FE3B6803F08003B4
:1057F000002B02D08B48FFF71DFE3B6803F480733B
:10580000002B02D08848FFF715FE3B6803F40073B5
:10581000002B02D08548FFF70DFE3B6803F4803370
:10582000002B02D08248FFF705FE3B6803F480138B
:10583000002B02D07F48FFF7FDFD3B6803F4001307
:10584000002B37D07C48FFF7F5FD7C4B1B79DBB292
:1058500063F07F03DAB2794B1A71BB681B687B6314
:105860007B6B012B02D17648FFF7E4FD7B6B022BAB
:1058700002D17448FFF7DEFD7B6B032B02D1724827
:10588000FFF7D8FD7B6B042B02D17048FFF7D2FDE8
:105890007B6B052B02D16E48FFF7CCFD7B6B062B93
:1058A00002D16C48FFF7C6FD7B6B072B02D16A481B
:1058B000FFF7C0FD3B6803F48003002B37D0674837
:1058C000FFF7B8FD5D4B1B79DBB263F07F03DAB203
:1058D0005A4B1A71BB685B683B633B6B012B02D16F
:1058E0005748FFF7A7FD3B6B022B02D15548FFF746
:1058F000A1FD3B6B032B02D15348FFF79BFD3B6B94
:10590000042B02D15148FFF795FD3B6B052B02D1CB
:105910004F48FFF78FFD3B6B062B02D14D48FFF739
:1059200089FD3B6B072B02D14B48FFF783FD3B689A
:1059300003F48013002B02D03E48FFF77BFD3B6849
:1059400003F48013002B02D03A48FFF773FD0023C5
:10595000BB74FB681B68DBB207F1100211461846E6
:1059600005F090FB3E48FFF765FD07F11003184670
:10597000FFF760FDFB681B68DB08DBB207F1100274
:105980001146184605F07EFB3648FFF753FD07F138
:1059900010031846FFF74EFDFB685B68DBB207F1AA
:1059A00010021146184605F06DFB2F48FFF742FD27
:1059B00007F110031846FFF73DFDFB68DB68DBB21B
:1059C00007F110021146184605F05CFB2748FFF767
:1059D00031FD07F110031846FFF72CFDBB689B6AE9
:1059E000DBB207F110021146184605F04BFB2048C8
:1059F000FFF720FD07F1100318463BE0FC03020807
:105A0000340402086C0100205804020874040208DF
:105A100098040208B8040208D8040208FC0402082A
:105A20001805020834050208540502087405020826
:105A300094050208B4050208D005020808000020F9
:105A4000F4050208100602082C060208480602089F
:105A500064060208800602089C060208BC060208CA
:105A6000E0060208F0060208F8060208100702081D
:105A700020070208FFF7DEFC3C48FFF7DBFCFB6871
:105A80009B68002B02D03A48FFF7D4FC3948FFF757
:105A9000D1FCBB689B68002B03D13748FFF7CAFCD9
:105AA0001AE0BB689B68082B03D13448FFF7C2FC9F
:105AB00012E0BB689B68102B03D13148FFF7BAFC9A
:105AC0000AE0BB689B68182B03D12E48FFF7B2FC95
:105AD00002E02D48FFF7AEFCBB68DB68002B02D06C
