:020000040800F2
:1000000000000420F1DA00080DD7000815D7000819
:100010001DD7000825D700082DD7000841DB0008B0
:10002000000000000000000000000000A1F4010832
:1000300035D700080000000031F40108B1BE010806
:1000400041DB000841DB000841DB000841DB000820
:1000500041DB000841DB000841DB000841DB000810
:1000600041DB000841DB000841DB000841DB000800
:1000700041DB000841DB000841DB000841DB0008F0
:1000800041DB000841DB000841DB000841DB0008E0
:1000900041DB000841DB000841DB000841DB0008D0
:1000A00041DB000841DB000841DB000841DB0008C0
:1000B00041DB000845D7000841DB000841DB0008B0
:1000C00041DB000841DB000841DB000841DB0008A0
:1000D00041DB000841DB000841DB000859D700087C
:1000E0006DD7000841DB000881D7000841DB00081C
:1000F00041DB000841DB000841DB000841DB000870
:1001000041DB000841DB000841DB000841DB00085F
:1001100041DB000841DB000841DB000841DB00084F
:1001200041DB000841DB000841DB000841DB00083F
:1001300095D7000841DB000841DB000841DB0008DF
:1001400041DB000841DB000841DB000841DB00081F
:1001500041DB000841DB000841DB000841DB00080F
:1001600041DB0008A9D7000841DB000841DB00089B
:1001700041DB00080000000041DB00080000000037
:10018000BDD7000841DB000841DB000841DB000867
:1001900041DB000841DB000841DB000841DB0008CF
:1001A00041DB000841DB000841DB000841DB0008BF
:1001B00041DB000800000000D1D7000841DB000847
:1001C00041DB00080000000041DB000841DB0008C3
:1001D00041DB000841DB000841DB000841DB00088F
:1001E00041DB000841DB000841DB000841DB00087F
:0401F000000000000B
:1002000010B5054C237833B9044B13B10448AFF350
:1002100000800123237010BD7CC800200000000076
:100220000415020808B5034B1BB103490348AFF39B
:10023000008008BD0000000080C8002004150208EE
:1002400010F8012B11F8013B012A28BF9A42F7D080
:10025000D01A7047034613F8012B002AFBD1181A55
:100260000138704753B94AB9002908BF00281CBF9C
:100270004FF0FF314FF0FF3000F07EB9ADF1080CC8
:100280006DE904CE00F006F8DDF804E0DDE90223B4
:1002900004B070472DE9F04F099D0C46002B4DD15D
:1002A0008A420F4684469646B2FA82F360D94BB131
:1002B00002FA03FEC3F120029F4000FA03FC20FA79
:1002C00002F217434FEA1E461FFA8EF44FEA1C4211
:1002D000B7FBF6F106FB117701FB04F042EA074297
:1002E000904208D91EEB020201F1FF3702D2904280
:1002F00000F22D813946121A1FFA8CFCB2FBF6F07F
:1003000006FB102200FB04F44CEA024C644508D9B9
:100310001EEB0C0C00F1FF3202D2644500F21A8190
:10032000104640EA0140ACEB040C002125B12CFA48
:1003300003F30022C5E90032BDE8F08F8B4205D9F6
:100340000DB1C5E9000100210846F5E7B3FA83F1D4
:1003500000294DD1A342C0F0F280904280F0EF809E
:10036000064623460846002DE6D0C5E90063E3E7CC
:10037000002B40F0A2808A1A4FEA1E471FFA8EF621
:100380000121B2FBF7F407FB14204FEA1C4242EABA
:10039000004206FB04F090420FD91EEB020204F16A
:1003A000FF382CBF4FF001094FF00009904203D9EC
:1003B000B9F1000F00F0C8804446121A1FFA8CFCF5
:1003C000B2FBF7F007FB102200FB06F64CEA024CEA
:1003D000664508D91EEB0C0C00F1FF3202D26645CF
:1003E00000F2BB801046ACEB060C40EA04409DE7EF
:1003F000C1F120068B4004FA01FE22FA06F720FA2A
:1004000006FCF4408A401F434EEA0C0300FA01FE4A
:100410004FEA17484FEA13491FFA87FCB4FBF8F07C
:1004200008FB104449EA044400FB0CF9A1450ED92D
:100430003C1900F1FF3A2CBF4FF0010B4FF0000BBD
:10044000A14503D9BBF1000F00F093805046A4EB07
:1004500009041FFA83F9B4FBF8F308FB134403FB08
:100460000CFC49EA0444A44506D93C1903F1FF38C1
:1004700001D2A4457AD8434643EA0040A4EB0C04D9
:10048000A0FB02984445CC46434602D306D1CE4554
:1004900004D20138B9EB020C68EB07035DB1BEEB87
:1004A0000C0264EB030404FA06F622FA01F3CC40D2
:1004B0001E43C5E9006400213EE702FA03FEC3F1D2
:1004C000200104FA03F200FA03FCCC404FEA1E4775
:1004D00020FA01F11FFA8EF6B4FBF7F00A4307FB8E
:1004E0001044110C41EA044100FB06F48C420ED981
:1004F0001EEB010100F1FF382CBF4FF001094FF056
:1005000000098C4202D9B9F1000F2CD04046091BDA
:1005100092B2B1FBF7F407FB141142EA014204FB6B
:1005200006F1914207D91EEB020204F1FF3801D215
:10053000914215D84446521A44EA004121E7861AEE
:1005400064EB030301200EE7023C724435E70239F5
:100550007244D0E6F4440238E3E6F444023842E759
:10056000023C7244E7E702387144D0E7023B3C4466
:1005700082E702383C446AE7704700BF80B483B02A
:1005800000AF7860396000BF0C37BD465DF8047B72
:100590007047000080B584B000AF78600023FB8115
:1005A000FB895A1CFA811A467B68134471221A701F
:1005B000402134480EF00DFDFB897A68134419463A
:1005C0000CF07AFC03469AB2FB891344FB812D4858
:1005D0000EF01DFDFB897A68134419460CF06CFC83
:1005E00003469AB2FB891344FB81274B1B681846CC
:1005F0001CF052FCFB897A68134419460CF05CFC31
:1006000003469AB2FB891344FB811F4B1B681846B3
:100610001CF06CFCFB897A68134419460CF04CFC06
:1006200003469AB2FB891344FB81184B1B6818469A
:100630001CF032FCFB897A68134419460CF03CFC30
:1006400003469AB2FB891344FB81104B1B68184682
:100650001CF04CFCFB897A68134419460CF02CFC06
:1006600003469AB2FB891344FB81FB895A1CFA8129
:100670001A467B6813440D221A70FB8918461037FE
:10068000BD4680BD24C9002090C6022094C6022029
:1006900080B584B002AF72B600BF764B4FF00062F7
:1006A0009A60BFF34F8F00BF62B600BF0DF049FAEA
:1006B00006F0AFFA00F03EF900F0DAFA00F09AFA2C
:1006C00000F02AFA00F042FA00F0DEF900F054FAE5
:1006D00000F0B0F900F033FA00F0B4F9664B009383
:1006E000664B0022012144F638201CF045FB0346EE
:1006F000634A1360634B0093634B0022012144F66D
:1007000038201CF039FB0346604A1360604B0093AD
:10071000604B0022012141F201001CF02DFB034639
:100720005D4A13605D4B00935D4B0022012141F255
:1007300001001CF021FB03465A4A13605A4B0093F8
:100740005A4B0022012145F6D8101CF015FB034638
:10075000574A1360574B0093574B0022012144F234
:1007600050601CF009FB0346544A1360002005F05A
:1007700039FC002005F04EFC05F071FC1DF0D0F9AD
:100780004F4B00934F4B444A4F4905F0BBFA4F483B
:1007900009F0D4FD4E4804F021FC4E4A4E494F4822
:1007A00002F032FC494813F007FB0346002B01D04E
:1007B00002F086FB00233B603B46184605F09EFB9B
:1007C0000346002B10D13B68002B0DD14FF0404366
:1007D0007B607B6843F424137B607B6843F00403F5
:1007E0007B60786805F050FB1BF07CFB3C4A0021E5
:1007F0003C481BF0C1FB03463B4A13603B4A0021C7
:100800003B481BF0B9FB03463A4A13603A4A0021C1
:100810003A481BF0B1FB03462F4A1360384A0021C7
:1008200038481BF0A9FB0346374A1360374A0021BA
:1008300037481BF0A1FB0346264A1360354A0021C6
:1008400035481BF099FB03461F4A1360334A0021C9
:1008500033481BF091FB0346324A1360324A0021B1
:1008600032481BF089FB0346314A13601BF05EFBE4
:1008700000BFFDE700ED00E0C8030120EC0301200C
:10088000244E0120284E01204C4E01208498012046
:10089000A0040220C404022060C50220C814022063
:1008A000EC14022064C50220F0240220142502204A
:1008B00090C60220EC7E0220107F022094C6022007
:1008C0006CC5022068C50220C4E5002088C900204C
:1008D00000C9002018E10020C0D3002024C9002056
:1008E00050380208D50D000868CA00207438020884
:1008F0000126000814CF002098380208412900087A
:10090000BC380208252A00086CD80020E03802080C
:10091000A52A000804390208512B000828390208CA
:10092000612D000870F600204C390208492E00089D
:100930001CFF002080B59EB000AF07F130034822B5
:10094000002118461FF029FF07F11C0300221A603E
:100950005A609A60DA601A613B1D00221A605A6080
:100960009A60DA601A615A614FF4007011F0B0FBBE
:100970000346002B01D002F0A3FA29233B634FF476
:1009800080337B630123BB650023BB6401237B644D
:100990000223FB6503233B6601237B661023BB66B2
:1009A0000723FB6604233B6702237B6707F13003C1
:1009B000184611F02DFC0346002B01D002F080FAFE
:1009C0000F23FB6103233B6200237B620023BB6296
:1009D0000023FB6207F11C030321184612F0EEF816
:1009E0000346002B01D002F06BFA114B9B6D104AAD
:1009F00043F0807393650E4B9B6D03F080733B60F7
:100A00003B6800237B604FF00053BB600023FB601A
:100A10004BF67F333B6122237B612023BB613B1D6F
:100A2000184612F051FF00BF7837BD4680BD00BFA9
:100A30000010024080B400AF00BFBD465DF8047BEB
:100A40007047000080B500AF0D4B0E4A1A600C4B8A
:100A500000221A710A4B00225A71094B00225A6176
:100A6000074B00229A61064B01221A6204480DF0DE
:100A7000D1F90346002B01D002F022FA00BF80BD5D
:100A800000C900200030024080B500AF204B214A51
:100A90001A601F4B00225A601D4B4FF440729A603F
:100AA0001B4B0022DA601A4B01221A74184B0022E9
:100AB0005A74174B00229A74154B01225A61144B39
:100AC00001229A61124B3C22DA61114B13221A6205
:100AD0000F4B01225A620E4B01229A620C4B0F22DD
:100AE000DA620B4B02221A63094B01225A63084B4C
:100AF00001229A63064B0022DA6305480DF0CEFD11
:100B00000346002B01D002F0DBF900BF80BD00BF1F
:100B100024C9002000A4004080B500AF00200FF0E1
:100B200059FD0346002B01D002F0CAF90FF072FD07
:100B30000346002B01D002F0C3F900BF80BD80B492
:100B400000AF00BFBD465DF8047B704780B500AFC5
:100B5000074B084A1A60064B00225A60044813F0FB
:100B600087F80346002B01D002F0AAF900BF80BD30
:100B700088C9002000080C4280B500AF1B4B1C4AFE
:100B80001A601A4B4FF482725A60184B00229A6016
:100B9000164B4FF4E062DA60144B00221A61134BDB
:100BA00000225A61114B4FF400729A610F4B0822D8
:100BB000DA610E4B00221A620C4B00225A620B4B78
:100BC00000229A62094B0722DA62084B00221A635C
:100BD000064B08225A63054813F093F90346002B8D
:100BE00001D002F06DF900BF80BD00BF9CC900209C
:100BF0000038004080B584B000AF1C4B9B6C1B4A92
:100C000043F004039364194B9B6C03F00403FB60F3
:100C1000FB68164B9B6C154A43F001039364134B1E
:100C20009B6C03F00103BB60BB68104B9B6C0F4ACD
:100C300043F0020393640D4B9B6C03F002037B6053
:100C40007B68002205211D200DF0A9F81D200DF064
:100C5000C0F80022052150200DF0A1F850200DF021
:100C6000B8F800BF1037BD4680BD00BF001002407D
:100C700080B58AB000AF07F1140300221A605A60F1
:100C80009A60DA601A61394BDB6C384A43F004032E
:100C9000D364364BDB6C03F004033B613B69334B9D
:100CA000DB6C324A43F08003D364304BDB6C03F0DF
:100CB0008003FB60FB682D4BDB6C2C4A43F0010387
:100CC000D3642A4BDB6C03F00103BB60BB68274B8A
:100CD000DB6C264A43F00203D364244BDB6C03F045
:100CE00002037B607B6800224FF4604120480FF0D4
:100CF00059FC002240F201111E480FF053FC002263
:100D000041F2E4011C480FF04DFC4FF460437B615D
:100D10000123BB610023FB6100233B6207F1140345
:100D2000194613480FF0D0F940F201137B610123FB
:100D3000BB610023FB6100233B6207F114031946EA
:100D40000C480FF0C1F941F2E4037B610123BB6160
:100D50000023FB6100233B6207F114031946064898
:100D60000FF0B2F900BF2837BD4680BD0010024029
:100D700000080242000002420004024280B487B030
:100D800000AF7860396000237B6100233B61002362
:100D9000FB6013E0FB687A6813441B78202B02D1B8
:100DA00000233B6107E03B69002B04D101233B6139
:100DB0007B6901337B61FB680133FB60FA683B6848
:100DC0009A42E7DB7B6918461C37BD465DF8047B19
:100DD0007047000090B5C3B002AF78601EF03AFDD6
:100DE0001EF038FD002387F8FE30B44B186807F179
:100DF0003E014FF0FF3302221CF0B9F9C7F8EC00B6
:100E0000D7F8EC30022B01D002F05AF8AB4B18683F
:100E1000FB8F1A464FF0FF33A9491CF0A8F9C7F819
:100E2000EC00FB8F1A46D7F8EC30934201D002F069
:100E300047F8A44B1B78002B00F07A84FB8F1A46EE
:100E40009F4B00219954FB8FB3F5007F04D39E483C
:100E50000BF0D6FF00F062BC0023C7F8F8309B4BC4
:100E600000221A700023C7F8F43032E0944AD7F811
:100E7000F43013441B78082B0FD1D7F8F830002B2F
:100E800022D0D7F8F830013BC7F8F8308F4AD7F8AE
:100E9000F830134400221A7016E0894AD7F8F4306B
:100EA00013441B780A2B0FD0854AD7F8F43013442B
:100EB0001978864AD7F8F83013440A461A70D7F8DA
:100EC000F8300133C7F8F830D7F8F4300133C7F8F9
:100ED000F430FB8F1A46D7F8F4309342C6D3D7F8D4
:100EE000F8309BB2FB87FB8F1A46784B0021995450
:100EF000FB8F19467548FFF741FF0346C7F8E430FA
:100F0000D7F8E430002B07D1FB8F002B04D17048B9
:100F10000BF076FF00F002BC6E496C481FF046FCF7
:100F2000C7F8E000D7F8E030002B03D16A480BF097
:100F300067FFF3E36949D7F8E000FFF781F903465B
:100F4000002B18D06649D7F8E000FFF779F903467F
:100F5000002B10D06349D7F8E000FFF771F9034682
:100F6000002B08D06049D7F8E000FFF769F9034685
:100F7000002B40F08881D7F8E430012B40F240810B
:100F8000544900201FF012FCC7F8E0005749D7F879
:100F9000E000FFF755F90346002B3CD154480BF015
:100FA0002FFF54480BF02CFF51480BF029FF5248FB
:100FB0000BF026FF51480BF023FF4F480BF020FFAA
:100FC0004F480BF01DFF4F480BF01AFF4A480BF03B
:100FD00017FF4D480BF014FF4C480BF011FF46482B
:100FE0000BF00EFF4A480BF00BFF4A480BF008FFCE
:100FF00041480BF005FF48480BF002FF47480BF053
:10100000FFFE47480BF0FCFE3B480BF0F9FE38486A
:101010000BF0F6FEF0E04349D7F8E000FFF710F9D7
:101020000346002B40F0948031480BF0E9FE314834
:101030000BF0E6FE2E480BF0E3FE2F480BF0E0FE2F
:1010400039480BF0DDFE2C480BF0DAFE2C480BF093
:10105000D7FE36480BF0D4FE27480BF0D1FE2A48C5
:101060000BF0CEFE32480BF0CBFE23480BF0C8FE4F
:1010700027480BF0C5FE2F480BF0C2FE1E480BF0B0
:10108000BFFE25480BF0BCFE2B480BF0B9FE2B48E9
:101090000BF0B6FE2A480BF0B3FE2A480BF0B0FE68
:1010A00029480BF0ADFE29480BF0AAFE12480BF0C0
:1010B000A7FE0F480BF0A4FE9EE000BF244E0120C7
:1010C0008898012090C201209415020894C2012042
:1010D000A8150208AC150208B0150208DC150208B4
:1010E000E4150208EC150208F4150208F8150208C8
:1010F00000160208401602086C1602087016020854
:101100008016020890160208C4160208CC160208BF
:10111000E8160208F41602083C17020848170208ED
:101120008C1702089C170208A4170208B8170208B7
:10113000F417020808180208541802087418020864
:1011400084180208A4180208B4180208D418020867
:10115000B649D7F8E000FFF773F80346002B48D1F3
:10116000B3480BF04DFEB3480BF04AFEB0480BF00D
:1011700047FEB1480BF044FEB0480BF041FEAE48CC
:101180000BF03EFEAE480BF03BFEAE480BF038FED7
:10119000A9480BF035FEAC480BF032FEAB480BF023
:1011A0002FFEA5480BF02CFEA9480BF029FEA948FC
:1011B0000BF026FEA0480BF023FEA7480BF020FE04
:1011C000A6480BF01DFEA6480BF01AFEA5480BF032
:1011D00017FEA5480BF014FEA4480BF011FEA4481E
:1011E0000BF00EFE94480BF00BFE91480BF008FE3E
:1011F00002E0A0480BF004FE9F480BF001FE8DE2D8
:101200008B480BF0FDFD8B480BF0FAFD88480BF086
:10121000F7FD89480BF0F4FD98480BF0F1FD864886
:101220000BF0EEFD96480BF0EBFD96480BF0E8FD59
:1012300095480BF0E5FD95480BF0E2FD94480BF066
:10124000DFFD94480BF0DCFD93480BF0D9FD93488B
:101250000BF0D6FD92480BF0D3FD92480BF0D0FD79
:1012600091480BF0CDFD91480BF0CAFD90480BF072
:10127000C7FD71480BF0C4FD8E480BF0C1FD6C48F2
:101280000BF0BEFD4AE26949D7F8E000FEF7D8FF4F
:101290000346002B4DD1D7F8E430022B03D086480B
:1012A0000BF0AEFD3AE2854900201FF07FFAC7F847
:1012B000E0008349D7F8E000FEF7C2FF0346002BA9
:1012C00003D180480BF09CFD28E27F49D7F8E0006D
:1012D000FEF7B6FF0346002B07D17C480BF090FDCC
:1012E0000021422004F01EFE18E27949D7F8E00000
:1012F000FEF7A6FF0346002B07D176480BF080FDD2
:101300000021432004F00EFE08E27349D7F8E00004
:10131000FEF796FF0346002B07D170480BF070FDD7
:101320000021442004F0FEFDF8E16D480BF068FD5B
:10133000F4E16C49D7F8E000FEF782FF0346002B8A
:101340004DD1D7F8E430022B03D067480BF058FD9D
:10135000E4E15A4900201FF029FAC7F8E000584993
:10136000D7F8E000FEF76CFF0346002B03D15F487F
:101370000BF046FDD2E15449D7F8E000FEF760FFDC
:101380000346002B07D15A480BF03AFD01214220B9
:1013900004F0C8FDC2E14E49D7F8E000FEF750FF67
:1013A0000346002B07D153480BF02AFD01214320AF
:1013B00004F0B8FDB2E14849D7F8E000FEF740FF7D
:1013C0000346002B07D14C480BF01AFD01214420A5
:1013D00004F0A8FDA2E142480BF012FD9EE147494E
:1013E000D7F8E000FEF72CFF0346002B40F0EC801E
:1013F000D7F8E430022B03D041480BF001FD8DE11A
:101400002E4900201FF0D2F9C7F8E0003D49D7F877
:10141000E000FEF715FF0346002B77D1012008F00E
:10142000B7F939480BF0ECFC78E100BFE41802088A
:1014300000160208401602086C160208EC18020892
:101440008016020800190208C41602083C19020896
:10145000E8160208501902083C1702089C190208F5
:10146000BC190208D0190208F0190208041A02086F
:10147000241A0208381A0208601A0208B41A02086C
:10148000581B02086C1B0208981B0208E81B020884
:10149000381C0208881C0208F41C02081C1D0208E3
:1014A000481D0208781D0208A41D0208FC1D020840
:1014B000481E02087C1E02089C1E0208AC15020889
:1014C000EC1E0208F01E0208241F0208281F020852
:1014D0004C1F0208501F0208741F0208781F0208E0
:1014E0009C1F02089C170208C01F02081020020857
:1014F0002C2002085020020874200208F815020867
:1015000098200208E8200208EC200208B249D7F827
:10151000E000FEF795FE0346002B06D1022008F0FE
:1015200037F9AE480BF06CFCF8E0AD49D7F8E000B5
:10153000FEF786FE0346002B06D1032008F028F9AB
:10154000A6480BF05DFCE9E0A649D7F8E000FEF7FD
:1015500077FE0346002B06D1042008F019F99F48B6
:101560000BF04EFCDAE0A049D7F8E000FEF768FE89
:101570000346002B06D1052008F00AF997480BF026
:101580003FFCCBE09949D7F8E000FEF759FE03464F
:10159000002B06D1062008F0FBF890480BF030FC39
:1015A000BCE09349D7F8E000FEF74AFE0346002B63
:1015B00006D1072008F0ECF888480BF021FCADE0DC
:1015C0008C480BF01DFCA9E08B49D7F8E000FEF732
:1015D00037FE0346002B17D08849D7F8E000FEF706
:1015E0002FFE0346002B0FD08549D7F8E000FEF709
:1015F00027FE0346002B07D08249D7F8E000FEF70C
:101600001FFE0346002B03D17F4B00221A7085E09A
:101610007E49D7F8E000FEF713FE0346002B08D101
:101620007B480BF0EDFBC8201AF039FD0CF0EDFB08
:1016300074E07849D7F8E000FEF702FE0346002B7D
:1016400003D175480BF0DCFB68E07449D7F8E00083
:10165000FEF7F6FD0346002B3ED1D7F8E430022B0F
:1016600003D06F480BF0CCFB58E06E4900201FF010
:101670009DF8C7F8E0006C49D7F8E000FEF7E0FD00
:101680000346002B06D1012006F0CBFE67480BF085
:10169000B7FB43E05049D7F8E000FEF7D1FD034621
:1016A000002B06D1022006F0BCFE61480BF0A8FB1F
:1016B00034E04B49D7F8E000FEF7C2FD0346002BAB
:1016C00006D1032006F0ADFE5A480BF099FB25E049
:1016D00059480BF095FB21E05849D7F8E000FEF798
:1016E000AFFD0346002B0FD102F0ACFA0346002BEE
:1016F00006D053480BF084FB012002F0C3FA0DE042
:1017000050480BF07DFB09E04F480BF079FBD7F810
:10171000E0000BF075FB4D480BF072FB3A4B1B7869
:10172000002B3FF45FAB4A480BF06AFBFFF75ABB54
:10173000484B1B78302B03D0464B1B78312B13D1F1
:101740004FF40013C7F8D430424B5B78302B03D1F1
:101750000023C7F8D03003E04FF48013C7F8D0302F
:10176000012387F8FE3008E00023C7F8D4300023B7
:10177000C7F8D030002387F8FE30374B5B79DBB2F7
:10178000012B12D1FB8F013B324AD35C692B08D16C
:101790004FF00043C7F8CC30FB8F013B9BB2FB8777
:1017A00007E00023C7F8CC3003E02C4B1B68C7F8D8
:1017B000CC300023C7F8D8300023C7F8DC30254BE5
:1017C0001B78752B4CD1FB8F132B7FF40BAB21486F
:1017D00003F0CEFDFFF706BBF8200208EC2002085C
:1017E000FC20020800210208042102080821020846
:1017F0000C2102081021020840210208442102089D
:101800004C2102085421020890C201205C210208E8
:1018100064210208B4210208BC210208382202080F
:1018200040220208AC150208E820020860220208E3
:1018300074220208882202089C220208CC22020894
:10184000D4220208E4220208F82202080C2302082B
:101850005023020888980120E001002008000020A1
:1018600097F8FE30A84AD35C742B06D097F8FE3068
:10187000A54AD35C722B40F09C80FB8F1A4697F8E8
:10188000FE30D31A042B40F38E800023C7F8C030FB
:101890000023C7F8C43097F8FE3001339A4A134446
:1018A00018460BF07FFC0346C7F8BC3097F8FE30B3
:1018B0000433954A134418460BF016FC034687F888
:1018C000FF3097F8FF30C7F8C83097F8FE308E4ADF
:1018D000D35C722B06D14FF00053C7F8C4300023FD
:1018E00087F8FF30FB8F1A4697F8FE30D41A97F826
:1018F000FF3018460BF0C6FC03465B0005339C42E4
:101900004BD197F8FE30053387F8FE30002387F877
:10191000F33018E097F8FE307B4A1A4497F8F3301A
:10192000591C87F8F3101C4610460BF0EFFB0346DA
:101930001A4604F580733B4403F8842C97F8FE3074
:10194000023387F8FE3097F8FE20FB8F013B9A4266
:10195000E0DB02E00A201AF0A2FB07F17C0207F1AB
:10196000BC031146184601F06BFC0346022BF1D074
:10197000012166480BF0FCF9D7F8BC4097F8FF301E
:1019800018460BF07FFC0346194607F17C031A4604
:10199000204603F08BFB00F019BE01215C480BF0E0
:1019A000E7F900F013BE012159480BF0E1F900F00E
:1019B0000DBE97F8FE30544AD35C522B06D097F8F0
:1019C000FE30514AD35C542B40F0A480FB8F1A4662
:1019D00097F8FE30D31A092B40F38F804FF08043E5
:1019E000C7F8C0300023C7F8C43097F8FE30013381
:1019F000454A134418460BF0FBFB0346C7F8BC30BE
:101A000097F8FE300933404A134418460BF06CFB3C
:101A1000034687F8FF3097F8FF30C7F8C83097F8CB
:101A2000FE30394AD35C522B06D14FF00053C7F831
:101A3000C430002387F8FF30FB8F1A4697F8FE303A
:101A4000D41A97F8FF3018460BF01CFC03460533F8
:101A50005B009C424BD197F8FE300A3387F8FE308A
:101A6000002387F8F23018E097F8FE30264A1A442F
:101A700097F8F230591C87F8F2101C4610460BF00C
:101A800045FB03461A4604F580733B4403F8842C57
:101A900097F8FE30023387F8FE3097F8FE20FB8F70
:101AA000013B9A42E0DB02E00A201AF0F8FA07F163
:101AB0007C0207F1BC031146184601F0C1FB034646
:101AC000022BF1D0012111480BF052F9D7F8BC409C
:101AD00097F8FF3018460BF0D5FB0346194607F17F
:101AE0007C031A46204603F0E1FA00F06FBD0121A5
:101AF00007480BF03DF900F069BD012104480BF0E7
:101B000037F900F063BD00BF889801206C16020809
:101B100054230208D24B1B78233B562B00F25185ED
:101B200001A252F823F000BFE5200008C3250008F9
:101B30000D250008C3250008C3250008C32500089B
:101B4000C3250008C3250008C3250008C3250008D5
:101B5000C3250008C3250008C3250008C3250008C5
:101B6000C3250008C3250008C3250008C3250008B5
:101B7000C3250008C3250008C3250008C3250008A5
:101B8000C3250008C3250008C3250008C325000895
:101B9000C3250008C325000835220008AD20000831
:101BA000C3250008C3250008A11C0008AD220008B9
:101BB00059220008C91D0008C71F00083522000867
:101BC000A52200080922000897210008B31C00087C
:101BD000C51E0008FB1C0008851C0008C325000862
:101BE000C3250008C3250008511D0008C3250008AF
:101BF000C3250008CF1C0008F51D0008C3250008F8
:101C0000E1230008591F0008C3250008C325000868
:101C1000C3250008C3250008C3250008C325000804
:101C200009200008B3250008C1240008F32000089B
:101C3000C325000839200008C32500083522000804
:101C4000971F0008DB210008532100083F220008ED
:101C50000F1F00089B240008C3250008D12200089C
:101C600083220008C32500088B1D0008C325000837
:101C7000C32500087D200008891F0008C32500082F
:101C80003D240008012177480BF072F8764B0022C2
:101C9000DA60764B01221A7001F0DAF900F096BC96
:101CA000724B00221A7001216E480BF061F800F0AF
:101CB0008DBC01216B480BF05BF86B4B0222DA60A4
:101CC0006A4B01221A7001F0C3F900F07FBC0F21AA
:101CD00067480BF04DF80C2166480BF049F80121DC
:101CE00065480BF045F8092164480BF041F80221E2
:101CF00063480BF03DF800F069BC4E233B720023B3
:101D000087F8F13014E097F8F1309A005D4B1344F6
:101D1000187897F8F1305B00013307F1080213449B
:101D200019460BF079F997F8F130013387F8F13063
:101D300097F8F1300B2BE6D907F108031921184663
:101D40000BF016F8012147480BF012F800F03EBCEA
:101D5000FB8F022B13D1424B5B78184601F09EF9A2
:101D60000346002B05D101213E480BF001F800F09D
:101D70002DBC012144480AF0FBFF00F027BC0121E3
:101D800041480AF0F5FF00F021BCFB8F052B15D16F
:101D90003E480BF0BBF903461A46334BDA613C4828
:101DA0000BF0B4F903461A462F4B1A6201F050F9B2
:101DB00001212C480AF0DCFF00F008BC0121324868
:101DC0000AF0D6FF00F002BC254B1B783B72314B6A
:101DD0001B79DAB207F108030133194610460BF0FC
:101DE0001BF90D23FB7207F10803042118460AF0C2
:101DF000BFFFEBE3FB8F022B5ED1194B5B78303BCF
:101E0000032B54D801A252F823F000BF1D1E000876
:101E1000331E0008491E0008991E00081D4B0022B1
:101E2000DA621C4B00225A6401210E480AF0A0FF1E
:101E300047E0184B0122DA62164B01225A64012155
:101E400008480AF095FF3CE0124B0222DA62114B7F
:101E500002225A64012103480AF08AFF31E000BFE0
:101E6000889801206C16020824C90020E001002097
:101E70005823020868230208AC15020874230208DC
:101E8000802302089005FA0B542302088998012048
:101E90008B98012008000020A14B0322DA62A04B9E
:101EA00003225A6401219F480AF062FF09E00121E0
:101EB0009D480AF05DFF04E001219B480AF058FFAD
:101EC00084E383E3FB8F042B0CD198480BF06AF971
:101ED0000346C3F30A03924A5363012191480AF06F
:101EE00047FF73E3FB8F092B0CD190480BF080F96F
:101EF000034623F000438A4AD364012189480AF04B
:101F000037FF63E3012188480AF032FF5EE3FB8F6D
:101F1000042B0CD185480BF045F90346C3F30A03A3
:101F20007F4A936301217F480AF022FF4EE3FB8F33
:101F3000092B0CD17D480BF05BF9034623F00043DD
:101F4000774A1365012177480AF012FF3EE3012129
:101F500075480AF00DFF39E3FB8F022B0FD1744B4C
:101F60005B78302B03D1734B0022DA7002E0714BA7
:101F70000122DA7001216B480AF0FAFE26E3012102
:101F800069480AF0F5FE21E301F062F80121654895
:101F90000AF0EEFE1AE3FB8F022B0FD1644B5B7845
:101FA000302B03D164480CF09AFD02E062480CF03B
:101FB00075FD01215B480AF0DBFE07E301215A4869
:101FC0000AF0D6FE02E3FB8F032B02D0FB8F052B1A
:101FD00015D156480BF09AF803461A46564B9A61AB
:101FE000FB8F052B06D155480BF090F803461A4697
:101FF000514B9A6201214B480AF0BAFEE6E20121F8
:1020000049480AF0B5FEE1E2FB8F022B0FD1484BA5
:102010005B78302B03D1484B00221A7402E0464B08
:1020200001221A7401213F480AF0A2FECEE20121EA
:102030003D480AF09DFEC9E2FB8F022B19D13C4BB3
:102040005B78302B03D13C4B00229A600CE0384B7C
:102050005B78312B04D1384B4FF480729A6003E0E7
:10206000354B4FF440729A6001212E480AF080FEF1
:10207000ACE201212C480AF07BFEA7E2FB8F022B89
:102080000FD12B4B5B78302B03D12A4B00225A7196
:1020900002E0284B01225A71012122480AF068FE11
:1020A00094E2012120480AF063FE8FE2FB8F022BAD
:1020B00013D11F4B5B78302B03D11E4B00221A71BA
:1020C00006E01B4B5B78312B02D11A4B01221A71AF
:1020D000012114480AF04CFE78E2012112480AF06E
:1020E00047FE73E2164B01221A7016480AF088FE6A
:1020F0006CE2FB8F022B27D10D4B5B78302B03D189
:10210000002003F09BF906E0094B5B78312B02D1EC
:10211000012003F093F9012102480AF029FE55E25B
:10212000080000206C160208542302088998012038
:1021300088980120E001002024C900208B9801200C
:1021400090C20120842302080121B1480AF010FE48
:102150003CE2FB8F092B19D1AE480AF0F3FF03468E
:102160001A46AD4B5A61AD480AF0D0FF03461A46F5
:10217000A94BDA61AA480AF0C9FF03461A46A64BE2
:102180001A620121A7480AF0F3FD1FE20121A048CD
:102190000AF0EEFD1AE2FB8F072B19D19D480AF0D9
:1021A000B5FF03461A469C4B5A629F480AF0AEFFA1
:1021B00003461A46984BDA6298480AF0A7FF03468E
:1021C0001A46954B1A63012196480AF0D1FDFDE1AC
:1021D00001218F480AF0CCFDF8E1944B1B783B724B
:1021E00008F000F903461A4607F1080301331946BF
:1021F00010460AF011FF0D23FB7207F108030421BA
:1022000018460AF0B5FDE1E1884B1B783B7208F0F7
:1022100011F9024607F108030133194610460AF086
:102220004BFE0D237B7407F108030A2118460AF0C0
:102230009FFDCBE116217E480AF09AFDC6E10121FF
:1022400078480AF095FD744B0122DA60794B01223F
:102250001A7000F0FDFEB9E107F1500319466E480F
:102260000CF042FE07F1400319466B480CF08CFE5F
:1022700007F1500207F140031146184603F094F9A4
:10228000A4E107F108031846FEF784F9034687F82E
:10229000FE3097F8FE2007F10803114618460AF0B1
:1022A00067FD93E1644803F0D9F88FE1FB8F032BBE
:1022B00009D15E4B5B787A2B05D15C4B9B785A2B0E
:1022C00001D104F00FFD012151480AF051FD7DE1DB
:1022D000FB8F022B7ED1554B5B78422B07D0534BA3
:1022E0005B78432B03D0514B5B78442B6DD1514B22
:1022F00000229A704F4B00221A704FF48013C7F8D7
:10230000D0300023C7F8C8304FF40013C7F8D430DA
:102310000023C7F8C03040F28113C7F8BC30002357
:1023200087F8F0303AE0002003F05CFE01F002F89C
:1023300000F08EFE642019F0B2FE3C4B5B78012168
:10234000184603F01FFE394B5B780121184603F055
:10235000E9FD97F8F0305A1C13469B0013449B008C
:10236000184619F09CFE02E00A2019F098FE07F1C9
:102370007C0207F1BC031146184600F061FF0346DA
:10238000022BF1D0322019F08AFE2B4B5B69002B17
:1023900009D197F8F030013387F8F03097F8F03032
:1023A000132BC0D900E000BF234B5B69002B04D185
:1023B000012117480AF0DCFC11E01E4B01221A70C3
:1023C000012118480AF0D4FC09E0012110480AF064
:1023D000CFFCFBE001210E480AF0CAFCF6E0F5E074
:1023E000FB8F022B0FD1114B5B78302B03D10020D8
:1023F00003F0F8FD02E0012003F0F4FD012109489B
:102400000AF0B6FCE2E0012101480AF0B1FCDDE08F
:10241000542302088998012024C900208D980120A6
:102420008F9801206C1602088B9801208898012053
:10243000B4230208E001002008000020FB8F032BDA
:1024400026D1634B5B78422B07D0614B5B78432BE3
:1024500003D05F4B5B78442B15D15D4B9B78302BC1
:1024600006D15B4B5B780021184603F05BFD05E06D
:10247000574B5B780121184603F054FD0121554864
:102480000AF076FCA2E0012153480AF071FC9DE0BD
:10249000012151480AF06CFC98E001214D480AF0F6
:1024A00067FC4E4803F06AF8002003F09BFD002013
:1024B00003F0B0FD642019F0F2FD0BF0A6FC85E0FE
:1024C000FB8F022B1DD1424B5B78302B06D1444B46
:1024D00001221A70434B00229A700DE0424B0022F9
:1024E000DA60404B00221A7000F0B2FD3D4B012231
:1024F0009A703B4B00221A70012136480AF038FCD2
:1025000064E0012134480AF033FC5FE0FB8F032BC9
:102510004AD9FB8F043BDA0F13445B10A7F8EA306B
:1025200032480AF03FFE03461A46B7F8EA309342B3
:1025300035D1B7F8EA301A462D492E480AF0A2FDE7
:102540001BF0EEFAB7F8EA2007F13C0300932A4BA0
:1025500028490AF013F9BB8F244918460AF0FEFCFB
:10256000BB8F1A46244922480AF06EFCBB8F023307
:102570005B00174A0D21D154BB8F5B000533194610
:1025800013480AF0F5FB1BF0CBFAB7F8EA2007F185
:102590003C030093184B17490AF070FB16E0012129
:1025A0000D480AF0E5FB11E001210B480AF0E0FBC1
:1025B0000CE0124B00221A70012106480AF0D8FBE9
:1025C00004E0012104480AF0D3FB00BFFEF70ABC77
:1025D000889801206C16020854230208CC230208B4
:1025E00064000020E001002024C900208998012017
:1025F0008C98012098E401209CF4012090C20120D5
:1026000080B59EB000AF78608B4B186807F14C0125
:102610004FF0FF3328221AF0AAFD0346282B40F082
:102620008581BB6D18460AF02DFE034687F877308A
:1026300097F87730002B10D07F4B186897F87720E9
:1026400007F10C014FF0FF331AF091FD024697F8A5
:1026500077309A4201D000F033FC7B6D002B1CD107
:10266000FB6C97F8771007F10C02184602F01EFD7C
:102670001BF056FA024607F10C0107F14C0318460D
:1026800003F07AFB1BF04CFA024607F10C0107F14C
:102690004C03184605F076FF29E07B6DB3F1005F2F
:1026A00025D1FB6CB3F5E06F21D1644B00225A6158
:1026B000624B00229A61614B00229A603B6D5F4A37
:1026C0005360FB6C5D4A1360BB6D5C4AD3605B4B2F
:1026D000DB68082B02D9594B0822DA6008225849D6
:1026E00058480AF0EDFD5749544800F0A9FD564BF3
:1026F0001B78DBB2002B87D0002387F876307B6E07
:10270000B3F5001F17D13B6EB3F5801F09D197F8C1
:1027100076305A1C87F876201A464C4B3121995452
:1027200010E097F876305A1C87F876201A46474B07
:102730003021995406E097F87730082B02D9082306
:1027400087F877307B6D002B0ED13B6D002B01D1CC
:10275000742100E0542197F876305A1C87F87620CF
:102760001A463A4B995410E03B6D002B01D172216F
:1027700000E0522197F876305A1C87F876201A46E6
:10278000324B9954002387F877303B6D002B11D1E1
:10279000FB6C9AB297F876302C490B4419461046D8
:1027A0000AF0DCFB0346DAB297F87630134487F878
:1027B00076300FE0FA6C97F8763024490B441946CE
:1027C00010460AF079FB0346DAB297F876301344E4
:1027D00087F876307B6EB3F5001F14D1BB6DDBB28A
:1027E00003F00F03DAB297F8763018490B44194614
:1027F00010460AF031FC0346DAB297F876301344FB
:1028000087F8763013E097F8773003F00F03DAB2E9
:1028100097F876300D490B44194610460AF01CFC17
:102820000346DAB297F87630134487F876300023FF
:1028300087F8753026E000BF90C6022070C50220E0
:102840009005FA0B94C50220E001002090B8012009
:1028500097F8753078333B4413F86C2C97F8763042
:1028600034490B44194610460AF0D6FB0346DAB247
:1028700097F87630134487F8763097F8753001333F
:1028800087F8753097F8752097F877309A42DFD33C
:10289000294BDB78DBB2002B1BD01BF041F9024641
:1028A000264BA3FB02139B0B4EF6602101FB03F3A7
:1028B000D31A9AB297F876301E490B44194610463F
:1028C0000AF076FB0346DAB297F87630134487F8BD
:1028D0007630194B5B79DBB2002B10D07B6EB3F5F1
:1028E000001F0CD1FB6DB3F1004F08D197F8763083
:1028F0005A1C87F876201A460E4B6921995497F88E
:1029000076305A1C87F876201A460A4B0D219954C6
:1029100097F87630194607480AF02AFA0346002B42
:102920003FF472AE044B00221A706DE600F0C8FA54
:102930006AE600BF90B80120E001002073B2E745CD
:1029400080B59EB000AF786000233B6715E0324B46
:1029500018683A6F1346DB0013449B001A4607F1D0
:102960004C0399183B6FC3F124024FF0FF331AF068
:10297000FEFB02463B6F13443B673B6F232BE6D9BC
:10298000BB6D18460AF07EFC034687F877307B6DF6
:10299000B3F1005F02D1002387F8773097F87730E2
:1029A000002B1FD000233B6711E01B4B186807F179
:1029B0000C023B6FD11897F877203B6FD21A4FF07B
:1029C000FF331AF0D4FB02463B6F13443B6797F882
:1029D00077303A6F9A42E8D304E04FF0FF3101209C
:1029E0001BF060FD0D480CF012FB0346002BF4D0E9
:1029F00007F10C0207F14C03194608480CF028F9BE
:102A00000346002B01D000F05BFA054BDB68013375
:102A1000034AD36098E700BF94C6022024C900206F
:102A20000800002080B584B000AF786002F032FB6F
:102A300000F00EFB03F006FB00F048FA06F01EFF64
:102A40001549164805F0CCFC1BF06AF80346FB60FC
:102A5000134B1B78DBB2002B0FD1FB68184606F036
:102A600003FFFB68184606F015FFFB68184600F0E8
:102A700034FAFB68184602F037FCFB68184605F08C
:102A8000DDFCFB68184603F063F907F10C030A212B
:102A900018461AF0C3FED7E76CD800209CC9002066
:102AA0006400002080B5A8B000AF78604FF0FF311F
:102AB00001201BF0F7FC1CF063FB22480CF00DFD1D
:102AC000C7F89C0007F1600319461E480CF00CFA89
:102AD00007F18C0319461B480CF056FA1A4AD7F82E
:102AE0009C309360184A07F10C0311465422184693
:102AF0001DF091FF134B00221A66BB6AB3F5003F2D
:102B00000BD9114B9B6803F40013002B05D00E4B1F
:102B1000012283F8202000F0B5FA1CF043FB07F1F6
:102B20000C0207F1600107F18C00D7F89C3002F02D
:102B3000ABFE064B18680023022200211BF04EFD5D
:102B4000B4E700BF24C9002008000020C0D3002043
:102B500080B588B002AF786000237B737B4B1B6825
:102B600018461AF0C3F90346002B00F0E980774BB2
:102B7000186807F10D014FF0FF3301221AF0F7FA40
:102B80000346012B40F0DC80704B1B6818461AF09E
:102B9000ADF90346012B40F2D3806C4B186807F166
:102BA0000E014FF0FF3302221AF0E1FA0346022B26
:102BB00040F0C680FB89B3F5805F80F0C1800023C0
:102BC000FB8212E0614B1868FB8A614A9918FB8905
:102BD0001A46FB8AD31A1A464FF0FF331AF0C7FA87
:102BE00003469AB2FB8A1344FB82FB89FA8A9A4213
:102BF000E8D17B7B002B3CD11AF092FFFA8907F1D8
:102C00000A030093534B524909F0B8FD7B89002B0E
:102C100024D0514B186807F10A014FF0FF3302220C
:102C20001AF07AF938614C4B18687B891A464FF0D4
:102C3000FF3348491AF070F902463B6913443B617F
:102C40007B8902333A699A4201D000F039F9434B4B
:102C500018680023022200211BF0C0FC1AF060FF5C
:102C6000FA8907F10A0300933A4B39490AF006F84A
:102C700066E01AF055FFFA8907F10A030093354B15
:102C8000334909F057FF7B89002B4FD000237B7518
:102C9000304B1B787F2B02D001237B751EE07B8994
:102CA000022B0ED92B4B9B78112B0AD0294B9B78EA
:102CB000122B06D0274B9B78312B02D001237B753A
:102CC0000CE07B89032B09D1224B1B787F2B05D18C
:102CD000204B5B780A2B01D801237B757B7D002B71
:102CE00024D01D4B186807F10A014FF0FF33022270
:102CF0001AF012F93861184B18687B891A464FF0A0
:102D0000FF3314491AF008F902463B6913443B614A
:102D10007B8902333A699A4201D000F0D1F80F4B17
:102D200018680023022200211BF058FC1AF0F8FE5C
:102D3000FA8907F10A030093064B054909F09EFF43
:102D40004FF0FF3100201BF0ADFB07E760C502200C
:102D500094C4012098D4012064C5022070F600209C
:102D600080B584B000AF78600023FB81314B1B68D5
:102D700018461AF0BBF80346012B54D92D4B18689E
:102D80004FF0FF3302222C491AF0F1F90346022BCF
:102D900049D12A4B03F580539B8AB3F5805F42D219
:102DA0000023FB8115E0234B1868FB89244A9918FE
:102DB000224B03F580539B8A1A46FB89D31A1A4685
:102DC0004FF0FF331AF0D3F903469AB2FB8913444C
:102DD000FB811A4B03F580539B8AFA899A42E2D110
:102DE0001AF09EFE03461946144803F0BAFD034646
:102DF000002B18D10EE0134B1B78DBB2002B05D053
:102E00000E4B03F5005393F8233000E00A231846D5
:102E100019F045F91AF084FE0346184609F0D4FB70
:102E20000346012BE7D14FF0FF3100201BF03AFBA6
:102E30009CE700BF64C5022080FF02206CEF0220E7
:102E400088FF02206400002080B584B000AF786065
:102E50000D490E4809F040FF0B4A0D490D481CF082
:102E600029FD0A4B18684FF0FF334FF400620A49FE
:102E70001AF07DF9F860FB68002BF2D0F96806487B
:102E800009F050FFEDE700BF1CFF002084980120EF
:102E900068CA0020244E012090BA012080B582B07B
:102EA00000AF78607B681B68044A934201D10AF046
:102EB00063FE00BF0837BD4680BD00BF002C014047
:102EC00080B400AF72B600BF00BFFDE780B400AFB2
:102ED00000BFBD465DF8047B704780B483B000AF8F
:102EE000786000BF0C37BD465DF8047B704780B446
:102EF00000AF00BFBD465DF8047B704780B582B06F
:102F000002AF3D4B1B683D4918460BF03CFD0346A4
:102F1000002B01D0FFF7D4FF374B1B683849184608
:102F20000BF031FD0346002B01D0FFF7C9FF324BF8
:102F30001868002300930023022202210BF07DFD7C
:102F40000346002B01D0FFF7BBFF2B4B1B68184635
:102F50000BF0E6FD0346002B01D0FFF7B1FF264B37
:102F60001B680022012118460CF063F80346002B71
:102F700001D0FFF7A5FF204B1B6800220621184651
:102F80000CF057F80346002B01D0FFF799FF1A4BBE
:102F90001B6807224FF4F05118460CF04AF803461C
:102FA000002B01D0FFF78CFF134B1B6807228021F9
:102FB00018460CF03EF80346002B01D0FFF780FFC7
:102FC0000D4B1B6800220F4918460CF032F80346DF
:102FD000002B01D0FFF774FF074B1B6800224FF452
:102FE000602118460CF025F80346002B01D0FFF7AE
:102FF00067FF00BFBD4680BD9CC502202C0000209D
:10300000440000200040710080B584B000AFF8603B
:10301000B9607A60094AFB681360094ABB681360AB
:10302000084A7B6813600849012019F026FA034614
:10303000064A136000BF1037BD4680BD9CC5022004
:10304000A0C50220A4C5022040C602203CC6022022
:1030500080B500AF0A4B1B6818460BF071FC084B9B
:103060001B6818460BF01AFB0346002B01D0FFF734
:1030700027FF00F0C3F8FFF741FF00BF80BD00BF8E
:103080009CC5022080B500AF034B1B6818460BF0AF
:1030900057FC00BF80BD00BF9CC5022080B485B036
:1030A00000AF0346FB710023FB73FB79303B082B19
:1030B00000F28B8001A252F823F000BFE13000083B
:1030C000FB300008153100082F3100084931000895
:1030D000633100087D31000897310008B1310008E4
:1030E000454B1B6832225A61434B1B681422DA613C
:1030F000414B1B6813221A6276E03F4B1B68192272
:103100005A613D4B1B681422DA613B4B1B6813224A
:103110001A6269E0384B1B680A225A61364B1B68F9
:103120001422DA61344B1B6813221A625CE0324BC2
:103130001B6805225A61304B1B681422DA612E4B42
:103140001B6813221A624FE02B4B1B6804225A6142
:10315000294B1B681422DA61274B1B6813221A6261
:1031600042E0254B1B6802225A61234B1B68142244
:10317000DA61214B1B6813221A6235E01E4B1B6873
:1031800001225A611C4B1B683F22DA611A4B1B68F3
:1031900010221A6228E0184B1B6801225A61164B54
:1031A0001B680C22DA61144B1B680C221A621BE0AC
:1031B000114B1B6801225A610F4B1B681422DA6104
:1031C0000D4B1B6813221A620EE00B4B1B68012289
:1031D0005A61094B1B683F22DA61074B1B681022BA
:1031E0001A620123FB7300BFFB7B18461437BD46F0
:1031F0005DF8047B704700BF9CC5022080B400AF1F
:103200000E4B00221A710D4B0022DA600B4B00228C
:103210001A610A4B00225A61084B00229A61074B3F
:1032200000229A60054B0022DA61044B002283F8E9
:10323000202000BFBD465DF8047B704708000020D9
:1032400080B586B000AF786039600023BB747B68BE
:10325000DB6818460AF016F80346FB747B689B6827
:10326000B3F1005F01D10023FB74FB7C2433FB60CE
:1032700000BF2C4B1B684FF0FF31184619F015FBAF
:103280000346012BF5D1284B1B68184619F004FEA4
:103290000246FB6893420AD9244B1B79DBB243F008
:1032A0000203DAB2214B1A710223BB7425E01E4BD4
:1032B00018684FF0FF332422796819F02DFE7861E9
:1032C000FB7C002B0BD0184B1868FA7C4FF0FF33B7
:1032D000396819F021FE02467B6913447B617A69E3
:1032E000FB689A4209D0114B1B79DBB243F008030B
:1032F000DAB20E4B1A710123BB740A4B1868002313
:103300000022002119F0D4F8094B1B68186800232B
:10331000022200211BF062F9BB7C18461837BD461B
:1033200080BD00BF3CC6022094C6022008000020D9
:10333000A0C5022080B400AF1E4B1B6801225A605A
:103340001C4B1B684FF440729A601A4B1B6800229A
:10335000DA60184B1B6800221A74164B1B68002297
:103360005A74144B1B6801229A74124B1B68012279
:103370005A61104B1B6810229A610E4B1B683F224A
:10338000DA610C4B1B6810221A620A4B1B6801227F
:103390005A62084B1B6804229A62064B1B680F2274
:1033A000DA62044B1B6804221A6300BFBD465DF855
:1033B000047B70479CC5022080B586B000AF786062
:1033C00039600023BB603B6803F00103002B4FD042
:1033D000454B464A402178680BF07EFC0346002BA3
:1033E00001D0FFF784FD424B5B690133404A5361D2
:1033F0003E4BDB68184609F045FF0346FB74FB7C37
:103400002833FB603B4B1B68184619F045FD02460C
:10341000FB6893420ED9364B9B690133344A936162
:10342000354B1B681B6807F10802114618461BF054
:1034300033FA1DE02F4B186807F1080328222B49A7
:1034400019F003FE7861FB7C002B0BD0294B186828
:10345000FA7C07F10803244919F0F7FD02467B695D
:1034600013447B617A69FB689A4201D0FFF73FFD04
:103470003B6803F00203002B0BD01D4B1B79DBB222
:1034800043F00103DAB21A4B1A717B681B680222FF
:103490001A653B6803F00403002B19D0144B9B6999
:1034A0000133134A9361124B1B79DBB243F00803DB
:1034B000DAB20F4B1A717B681B6804221A650E4B37
:1034C0001B681B6807F10802114618461BF0E4F957
:1034D000BB68002B03D0094B4FF080521A6000BF2D
:1034E0001837BD4680BD00BFA8C50220E8C5022030
:1034F0000800002090C60220A4C5022004ED00E0D0
:1035000080B584B000AF786039600023FB600C4B5D
:103510001B6901330A4A13610A4B1B681B6807F1D8
:103520000C02114618461BF0B7F9FB68002B03D0BC
:10353000054B4FF080521A6000BF1037BD4680BD6A
:1035400008000020A0C5022004ED00E080B584B092
:1035500000AF78600023FB600C4BDB6901330B4A42
:10356000D3610B4B1B681B6807F10C021146184610
:103570001BF092F9FB68002B03D0064B4FF08052F2
:103580001A6000BF1037BD4680BD00BF0800002094
:10359000A4C5022004ED00E080B582B000AF7860E1
:1035A00039601E4978680BF09FFC3B6803F40033D8
:1035B000002B0BD0194BDB68002B03D1184B0022DA
:1035C0001A6003E0164B4FF000421A603B6803F4A8
:1035D0008023002B14D0114B1B69012B08D1104BF9
:1035E0001B79DBB243F00403DAB20D4B1A7107E02A
:1035F0000B4B1B79DBB223F00403DAB2084B1A71D0
:103600003B6803F40023002B03D0054B012283F811
:10361000202000BF0837BD4680BD00BF10C6022075
:103620000800002090B585B002AF0023FB8051E078
:103630000023BB8045E0FA88BB883949097801FB43
:1036400003F31344374AD35C002B02D1364B1B885B
:1036500001E0364B1B883B800023FB7029E00023F0
:10366000BB701EE0FB88324A127803FB02F2FB7843
:103670001A44BB882E49097803FB01F1BB780B443F
:103680002749097808462A49097800FB01F101FB1E
:1036900003F3134427493A8821F81320BB780133F8
:1036A000BB70234B1B78BA789A42DBD3FB7801338B
:1036B000FB701F4B1B78FA789A42D0D3BB8801333A
:1036C000BB801D4B1B781A46BB889342B3D3FB8843
:1036D0000133FB80124B1B781A46FB889342A7D319
:1036E000164B1B781846164B1B781C46104B1B7844
:1036F0001A460B4B1B7812FB03F39AB20C4B1B7848
:1037000019460D4B1B7811FB03F39BB2094900913D
:10371000214606F0C8FB00BF0C37BD4690BD00BF78
:10372000600000207C06002030D9022062000020CA
:103730005F0000207C380020610000205D00002038
:103740005E00002080B489B000AF0346FB71002307
:10375000FB6148E0FB79BB611EE0294B1B781A46F0
:10376000BB6902FB03F3FA691344FB60FB79BA6996
:10377000D31A234A127802FB03F3FA691344BB609D
:10378000204AFB68134419781E4ABB6813440A4652
:103790001A70BB690133BB611B4B1B781A46BB69AE
:1037A0009342DADB184B1B781A46FB79D31A7B61FC
:1037B00010E0134B1B781A467B6902FB03F3FA698E
:1037C00013443B610F4A3B69134400221A707B6922
:1037D00001337B610A4B1B781A467B699342E8DB15
:1037E000FB690133FB61064B1B781A46FB69934268
:1037F000B0DB00BF00BF2437BD465DF8047B7047D7
:10380000600000207C0600206100002080B489B0A8
:1038100000AF0346FB710023FB6144E0284B1B789B
:103820001A46FB79D31A013BBB611EE0254B1B787E
:103830001A46BB6902FB03F3FA691344FB60FA7989
:10384000BB6913441F4A127802FB03F3FA6913445D
:10385000BB601D4AFB68134419781B4ABB681344BC
:103860000A461A70BB69013BBB61BB69002BDDDAFC
:1038700000237B6110E0134B1B781A467B6902FB27
:1038800003F3FA6913443B610F4A3B691344002276
:103890001A707B6901337B61FB797A699A42EADBB2
:1038A000FB690133FB61074B1B781A46FB699342A6
:1038B000B4DB00BF00BF2437BD465DF8047B704712
:1038C00061000020600000207C06002080B489B0E8
:1038D00000AF0423FB77314B1B78002B01D102236F
:1038E000FB770023BB614BE000237B611FE02C4B87
:1038F0001B781A46BB6902FB03F37A691344BB6069
:10390000FA7F7B691A44264B1B781946BB6901FB79
:1039100003F313447B60234A7B6813441978214ADC
:10392000BB6813440A461A707B6901337B611C4BE8
:103930001B781A46FB7FD31A7A699A42D7DB184B59
:103940001B781A46FB7FD31A3B6110E0144B1B789F
:103950001A46BB6902FB03F33A691344FB60114A40
:10396000FB68134400221A703B6901333B610C4B26
:103970001B781A463B699342E8DBBB690133BB61A4
:10398000094B1B781A46BB699342ADDB00BF00BFF1
:103990002437BD465DF8047B704700BF2ED9022056
:1039A000600000207C0600206100002080B489B007
:1039B00000AF0423FB772D4B1B78002B01D1022392
:1039C000FB770023BB6143E0294B1B78013B7B6104
:1039D0001FE0274B1B781A46BB6902FB03F37A6989
:1039E0001344BB60FB7F7A69D21A214B1B781946BE
:1039F000BB6901FB03F313447B601E4A7B681344DD
:103A000019781C4ABB6813440A461A707B69013B4B
:103A10007B61FB7F7A699A42DBDA00233B6110E02D
:103A2000134B1B781A46BB6902FB03F33A69134434
:103A3000FB60104AFB68134400221A703B69013393
:103A40003B61FB7F3A699A42EADBBB690133BB61A8
:103A5000094B1B781A46BB699342B5DB00BF00BF18
:103A60002437BD465DF8047B704700BF2ED9022085
:103A7000600000207C0600206100002080B483B03C
:103A800000AF03460A46FB801346BB80054AFB880D
:103A90001380054ABB88138000BF0C37BD465DF814
:103AA000047B70476200002030D9022080B489B0C6
:103AB00000AF78600B467B804E4B4FF400721A804B
:103AC0004D4B00221A804D4B00221A804C4B002295
:103AD0001A804C4B00221A704B4B00221A700023A4
:103AE000FB7706E0FB7F494A0021D154FB7F01337D
:103AF000FB77FB7F0F2BF5D90023BB610BE0444A1A
:103B0000BB6913441978434ABB6913440A461A70C7
:103B1000BB690133BB61BB69EF2BF0D90023FB828A
:103B20000BE0FB8A7A681A44FB8A03F5007311786C
:103B3000384AD154FB8A0133FB82FA8A7B889A4245
:103B4000EFD300237B7506E07B7D334A0021D154FF
:103B50007B7D01337B757B7D072BF5D97B8803F556
:103B600000737B8206E07B8A2A4A0021D1547B8A3B
:103B700001337B827B8A41F20F229342F3D9274B98
:103B800000221A700023FB6007E0254AFB681344FB
:103B900000221A70FB680133FB60FB68B3F5005F1D
:103BA000F3D30023BB6008E01E4B19881E4ABB6894
:103BB00022F81310BB680133BB60BB68B3F5106F0C
:103BC000F2D31A4B03221A70194B00221A70194BA8
:103BD00018221A70184B2E221A70184B40221A7095
:103BE000174B20221A7000BF2437BD465DF8047BB6
:103BF000704700BFC6D8022098C60220C4D8022051
:103C000008D902202CD902202DD90220ACD80220BC
:103C1000703902089CC60220BCD8022032D902208A
:103C20007C06002030D902207C2600205F00002086
:103C30002ED902205D0000205E00002060000020E0
:103C40006100002080B400AF034B1B781846BD46CE
:103C50005DF8047B704700BF33D9022080B483B085
:103C600000AF7860054A7B681360054B01221A702B
:103C700000BF0C37BD465DF8047B704734D9022085
:103C800033D9022080B400AF034B00221A7000BF6A
:103C9000BD465DF8047B704733D90220B0B58EB0C5
:103CA00002AF7860002387F82E300AE097F82E30B4
:103CB000AE4A002122F8131097F82E30013387F80E
:103CC0002E3097F82E300F2BF0D9A94BD3E90C01E9
:103CD0004FF000024FF00003020A42EA01620B0AB1
:103CE000941E43F1FF35052C75F1000322D2042CFC
:103CF00020D801A353F824F00D3D0008153D00081D
:103D00001D3D0008253D00082D3D0008974BFF2272
:103D10005A810FE0954BFF221A820BE0934BFF2252
:103D20005A8207E0914BFF22DA8103E08F4BFF229A
:103D30009A8100BF8F4B1B687A68D31A102B16D953
:103D40008D4B1B78002B05D08B4B1B78013BDAB2D7
:103D5000894B1A70894B1B78002B05D0874B1B7839
:103D6000013BDAB2854B1A70824A7B681360844B40
:103D70001B8841F20F22934205D8824B1B8841F2E7
:103D80000F22934204D9804B00221A7001F018B917
:103D90007B4B1B881A467D4B9B5C1B021AB2784BEF
:103DA0001B8801337949CB5C1BB213431BB29AB217
:103DB000774B1A80764B1B8803F47043B3F5704F32
:103DC00000F0BB86B3F5704F01F3F780B3F5604F99
:103DD00000F07086B3F5604F01F3EF80B3F5504FFC
:103DE00000F05784B3F5504F01F3E780B3F5404F2F
:103DF00000F03684B3F5404F01F3DF80B3F5304F68
:103E000000F02184B3F5304F01F3D780B3F5204F94
:103E100000F00A84B3F5204F01F3CF80B3F5104FC3
:103E200000F0E483B3F5104F01F3C780B3F5004F02
:103E300000F04782B3F5004F01F3BF80B3F5E04FC8
:103E400000F02482B3F5E04F01F3B780B3F5C04F23
:103E500000F00A82B3F5C04F01F3AF80B3F5A04F75
:103E600000F0E481B3F5A04F01F3A780B3F5804FD4
:103E700000F0A381B3F5804F01F39F80B3F5405F5D
:103E800000F08081B3F5405F01F39780B3F5005FE8
:103E900000F05A81B3F5005F01F38F80002B05D04D
:103EA000B3F5805F00F0478101F087B8384B1B887D
:103EB000DBB2012B50D0002B40F30A81FF2B00F323
:103EC0000781E02BC0F20481E03B1F2B00F2008150
:103ED00001A252F823F000BF673F0008D14000085C
:103EE000D1400008D1400008D1400008D14000086E
:103EF000D1400008D1400008D1400008D14000085E
:103F0000D1400008D1400008D1400008D14000084D
:103F1000F53F0008D1400008D1400008D14000081A
:103F2000D1400008D1400008D1400008D14000082D
:103F3000D1400008D1400008D1400008D14000081D
:103F4000D14000082D4000084340000859400008B7
:103F50006140000899400008094B1B8802339AB25F
:103F6000074B1A80E5E00023BB621BE00CD902205E
:103F70006800002034D902202DD902202CD902203B
:103F8000C6D80220C4D8022033D902209CC6022001
:103F900098C60220964ABB6A134400221A70BB6A74
:103FA0000133BB62BB6AB3F5005FF3D3914B1B785F
:103FB0001846914B1B781C46904B1B781A46904B29
:103FC0001B7812FB03F39AB28E4B1B7819468C4B6D
:103FD0001B7811FB03F399B28B4B1B8800930B46A4
:103FE000214605F0D7FE894B1B8802339AB2874BD6
:103FF0001A809EE0864B1B88013B9AB2844B1A8044
:10400000834B1B883F2B02D9824B00221A70804BB6
:104010001B881A46804B33F812207C4B1A807B4B4E
:104020001B8802339AB2794B1A8082E0FFF7BEFCFC
:10403000FFF7F8FA754B1B8802339AB2734B1A805C
:1040400077E0FFF743FCFFF7EDFA704B1B88023374
:104050009AB26E4B1A806CE06E4B00221A7068E0C8
:10406000674B03221A706D4B00221A70614B1822A5
:104070001A70614B2E221A70604B40221A70614BED
:1040800020221A70614B1B8802339AB25F4B1A8050
:10409000634B00221A704CE0594B01221A70554BA9
:1040A00038221A70544B40221A70544B80221A70D6
:1040B000544B40221A70594B01221A70534B1B88E3
:1040C00002339AB2514B1A80554B00221A7030E0DD
:1040D000544B1B8803F0F003C02B13D0D02B23D1FB
:1040E000504B1B88DBB203F00F03DBB21846FFF71F
:1040F00029FBFFF797FA454B1B8802339AB2434BD3
:104100001A8016E0474B1B88DBB203F00F03DBB2CB
:104110001846FFF77BFBFFF785FA3C4B1B88023301
:104120009AB23A4B1A8004E03A4B00221A7000F01F
:1041300047BF00F045BF3B4B1B88C3F30B039AB24C
:10414000324B1A8000F03CBF314B1B881A462F4B74
:104150001988314B23F812102D4B1B8801339AB26A
:104160002B4B1A802A4B1B883F2B02D9294B00224C
:104170001A702C4B1B88C3F30B039AB2234B1A8083
:1041800000F01EBF274B1B881B1203F00F03264AAB
:10419000D35C1A46234B1B88DBB29A4205D11B4BDA
:1041A0001B8802339AB2194B1A80184B1B880233B2
:1041B0009AB2164B1A8000F003BF1A4B1B881B12D1
:1041C00003F00F03184AD35C1A46164B1B88DBB268
:1041D0009A4205D00D4B1B8802339AB20B4B1A80C2
:1041E0000A4B1B8802339AB2084B1A8000F0E8BED3
:1041F0007C0600205D0000205E00002060000020A2
:104200005F0000206100002030D90220C6D80220C3
:1042100008D9022033D90220C8D802202ED9022082
:1042200032D9022098C60220ACD80220A04B1B88AD
:104230001B1203F00F039F4AD25C9D4B1B881B117E
:1042400003F00F039B49CB5C9A4205D19A4B1B8824
:1042500002339AB2984B1A80974B1B8802339AB25A
:10426000954B1A8000F0ACBE914B1A88904B1B887E
:104270001B1203F00F03D1B28E4AD1548E4B1B8810
:1042800002339AB28C4B1A8000F09ABE884B1B887E
:104290001B1203F00F03874AD15C854B1B88DAB2EF
:1042A000834B1B881B1203F00F030A44D1B2814ACF
:1042B000D154814B1B8802339AB27F4B1A8000F095
:1042C0007FBE7B4B1B881B12DBB203F00F037B729C
:1042D000774B1B881B11DBB203F00F033B72744B4F
:1042E0001B8803F00F030E2B00F2798101A252F814
:1042F00023F000BF314300085B43000897430008E8
:10430000D34300080F44000887440008074500080D
:104310006D450008DF450008DF450008DF4500085F
:10432000DF450008DF450008DF4500083B45000881
:104330005F4B1B881B1103F00F025D4B1B881B1288
:1043400003F00F035B49895C5A4AD1545A4B1B88CE
:1043500002339AB2584B1A8046E1554B1B881B1208
:1043600003F00F03534AD15C514B1B881B1103F020
:104370000F03504AD25C4E4B1B881B1203F00F03F5
:104380000A43D1B24B4AD1544B4B1B8802339AB2E9
:10439000494B1A8028E1464B1B881B1203F00F0380
:1043A000444AD15C424B1B881B1103F00F03414A66
:1043B000D25C3F4B1B881B1203F00F030A40D1B2A3
:1043C0003C4AD1543C4B1B8802339AB23A4B1A8078
:1043D0000AE1374B1B881B1203F00F03354AD15CEF
:1043E000334B1B881B1103F00F03324AD25C304B56
:1043F0001B881B1203F00F034A40D1B22D4AD1543F
:104400002D4B1B8802339AB22B4B1A80ECE0284BC1
:104410001B881B1103F00F03264AD35C1946244B5B
:104420001B881B1203F00F03224AD35CC3F1FF0366
:10443000994203DD012387F82F3002E0002387F83B
:104440002F301B4B1B881B1203F00F03194AD15C42
:10445000174B1B881B1103F00F03164AD25C144B39
:104460001B881B1203F00F030A44D1B2114AD15426
:10447000104A97F82F30D3730F4B1B8802339AB230
:104480000D4B1A80B0E00A4B1B881B1103F00F0381
:10449000084AD25C064B1B881B1203F00F03054928
:1044A000CB5C9A420AD9002387F82F3009E000BF7D
:1044B00098C60220ACD80220C6D80220012387F873
:1044C0002F30A04B1B881B1203F00F039E4AD15CB8
:1044D0009C4B1B881B1103F00F039B4AD25C994B2A
:1044E0001B881B1203F00F038A1AD1B2964AD154CB
:1044F000954A97F82F30D373944B1B8802339AB2A6
:10450000924B1A8070E03B7A8F4AD35C03F0010330
:1045100087F82F303B7A8C4AD25C7B7A5208D1B232
:10452000894AD154884A97F82F30D373874B1B8818
:1045300002339AB2854B1A8056E03B7A824AD35CAA
:10454000DB0987F82F303B7A7F4AD25C7B7A5200B6
:10455000D1B27D4AD1547C4A97F82F30D3737B4B2C
:104560001B8802339AB2794B1A803DE0754B1B8849
:104570001B1203F00F03744AD25C724B1B881B1191
:1045800003F00F037049CB5C9A4203D9002387F8EC
:104590002F3002E0012387F82F306A4B1B881B1154
:1045A00003F00F03684AD15C664B1B881B1203F0B3
:1045B0000F03654AD25C634B1B881B1203F00F0389
:1045C0008A1AD1B2604AD1545F4A97F82F30D37318
:1045D0005E4B1B8802339AB25C4B1A8004E05C4B42
:1045E00000221A7000F0ECBC00F0EABC554B1B88AE
:1045F0001B1203F00F03544AD25C524B1B881B1151
:1046000003F00F035049CB5C9A4205D04F4B1B88F7
:1046100002339AB24D4B1A804C4B1B8802339AB22C
:104620004A4B1A8000F0CCBC464B1B88C3F30B03EB
:104630009AB2484B1A80454B1B8802339AB2434BBF
:104640001A8000F0BDBC3F4B1B88C3F30B039BB229
:104650003D4A127813449AB23C4B1A8000F0B0BC29
:1046600005F0C0FE03465AB2364B1B885BB21340BE
:104670005AB2344B1B881B1203F00F03D1B2324ADB
:10468000D154324B1B8802339AB2304B1A8000F05F
:1046900097BC2C4B1B881B1203F00F032A4AD35CD8
:1046A0003B82284B1B881B1103F00F03264AD35C67
:1046B000FB81244B1B8803F00F03FB8400237B73D7
:1046C000082387F82330204B0022DA73224B1B7813
:1046D000002B0BD1214B1B8800936023C0222E217D
:1046E000182005F057FB1C4B01221A70FB8C002B85
:1046F0000ED11B4B1B78002B05D01023FB841023FD
:1047000087F8233004E01023FB84102387F823303C
:1047100080233B840023FB773A8A97F823301344A5
:10472000104A1278934206DCFA89FB8C13440E4A35
:104730001278934201DD012300E000237B73002304
:10474000BB836BE198C60220ACD80220C6D80220F9
:1047500033D90220C4D8022032D9022030D9022015
:104760002ED902206000002061000020FB8C102B5D
:104770001AD14FF400433B84814B1B881A46BB8BF4
:104780005B0013447F4AD35C1B02BB847C4B1B88B9
:104790001A46BB8B5B00134401337A4AD35C1A463A
:1047A000BB8C1343BB8409E080233B84744B1B8880
:1047B0001A46BB8B1344734AD35CBB8400237B83B0
:1047C00022E1BA8C398C7B8B41FA03F31340002B26
:1047D00001D0012300E000233B733B7B002B00F062
:1047E000A2800123FB773A8A7B8B1344664A1278B6
:1047F00093FBF2F101FB02F2991AFA89BB8B134485
:10480000624A127893FBF2F000FB02F29B1A5E4AB6
:10481000127802FB03F30B445D4AD35C002B02D0F9
:104820005C4B0122DA733A8A7B8B1344564A127826
:1048300093FBF2F101FB02F29B1AF989BA8B0A444D
:104840005249097892FBF1F000FB01F1521A4E49EE
:10485000097802FB01F119444D48415C4A4800784F
:1048600000FB02F213443A7B4A40D1B2484AD15489
:104870007B7B002B57D03A8A7B8B1344424A1278B9
:1048800093FBF2F101FB02F2991AFA89BB8B1344F4
:104890003E4A127893FBF2F000FB02F29B1A3A4A6E
:1048A000127802FB03F30B44394AD35C002B02D18C
:1048B000394B1B8801E0394B1B887B81384B1B78B7
:1048C00018463A8A7B8B13442F4A127893FBF2F1F5
:1048D00001FB02F29B1A9BB2324A127813FB02F3DD
:1048E0009BB2034498B2304B1B781C46FA89BB8BB1
:1048F0001344264A127893FBF2F101FB02F29B1A51
:104900009BB2284A127813FB02F39BB2234499B25C
:10491000244B1B781A46234B1B781C467B8900933B
:10492000234605F037FA7B7B002B6AD13A8A7B8BD2
:104930001344154A127893FBF2F101FB02F2991A23
:10494000FA89BB8B1344114A127893FBF2F000FBF7
:1049500002F29B1A0C4A127802FB03F30B440C4A36
:10496000D35C002B02D10C4B1B8801E00B4B1B8846
:104970007B8100237B763FE000233B7634E000BF61
:10498000C4D802209CC602206000002061000020E4
:104990007C060020ACD8022030D902206200002022
:1049A0005D0000205F0000205E0000207B8BAE4A8F
:1049B000127803FB02F27B7E1A44BB8BAA4909786A
:1049C00003FB01F13B7E0B4497F82310A6480078C7
:1049D00000FB01F101FB03F31344A4497A8921F898
:1049E00013203B7E01333B769F4B1B783A7E9A42E5
:1049F000DCD37B7E01337B769B4B1B787A7E9A429D
:104A0000BAD37B8B01337B8397F823309BB27A8BAD
:104A10009A42FFF4D6AEBB8B0133BB83BA8BFB8CBF
:104A20009A42FFF4A3AEFB7F002B3CD07B7B002B94
:104A300039D18F4B1B7818463B8A8E4A127893FBEC
:104A4000F2F101FB02F29B1A9BB2874A127813FB28
:104A500002F39BB2034498B2874B1B781C46FB8938
:104A6000864A127893FBF2F101FB02F29B1A9BB289
:104A70007D4A127813FB02F39BB2234499B27A4B1E
:104A80001B781A4697F823309BB212FB03F39AB2B5
:104A9000754B1B781C46FB8C13FB04F39BB2734CC9
:104AA000009405F000FA764B1B8802339AB2744BDF
:104AB0001A8085E2734B1B88DBB29E2B02D0A12BA0
:104AC0001BD035E06F4B1B881B1203F00F036E4A9F
:104AD000D35C1A466D4B33F81230002B06D0684B6E
:104AE0001B8804339AB2664B1A8025E0644B1B88FE
:104AF00002339AB2624B1A801EE0624B1B881B1273
:104B000003F00F03604AD35C1A46604B33F812304F
:104B1000002B06D15A4B1B8804339AB2584B1A808B
:104B20000AE0574B1B8802339AB2554B1A8003E0B8
:104B3000574B00221A7043E242E2524B1B88DBB211
:104B4000852B00F01982852B00F33182752B00F044
:104B5000E181752B00F32B82652B00F0AD81652B75
:104B600000F32582332B63DC072BC0F22082073B46
:104B70002C2B00F21C8201A252F823F0394C0008C1
:104B8000AF4F0008AF4F0008594C0008AF4F000866
:104B9000AF4F0008AF4F0008AF4F0008AF4F0008FD
:104BA000AF4F0008AF4F0008AF4F0008AF4F0008ED
:104BB000AF4F0008F94C0008AF4F0008AF4F000896
:104BC000194D0008AF4F0008AF4F0008AF4F000865
:104BD000AF4F0008AF4F0008394D0008AF4F000835
:104BE000AF4F0008AF4F0008AF4F0008AF4F0008AD
:104BF000AF4F0008AF4F0008AF4F0008AF4F00089D
:104C0000AF4F0008634D0008AF4F0008AF4F0008DA
:104C1000AF4F0008AF4F0008AF4F0008AF4F00087C
:104C20008B4D0008AF4F0008AF4F0008B94D00088A
:104C3000552B00F01381BAE1124B1B881B1203F0B5
:104C40000F03144A1178104AD1540D4B1B880233BC
:104C50009AB20B4B1A80AFE10F4B1B78FF2B2FD171
:104C60000023FB7528E000BF5F0000207C260020A9
:104C70005D000020600000205E0000206100002038
:104C8000C6D8022098C60220ACD802200CD9022037
:104C900033D902202CD902205C000020FB7D9F4AE2
:104CA00032F81330002B04D09D4AFB7D137000BFF7
:104CB00081E1FB7D0133FB75FB7D0F2BEED97AE1A2
:104CC000974B1B781A46954B33F81230002B40F067
:104CD0007281944B1B881B1203F00F03904A1178CA
:104CE000914AD154914B1B8802339AB28F4B1A8050
:104CF0008B4BFF221A705EE18A4B1B881B1203F05C
:104D00000F03894AD25C8A4B1A70884B1B88023386
:104D10009AB2864B1A804FE1824B1B881B1203F01C
:104D20000F03814AD25C834B1A70804B1B8802337D
:104D30009AB27E4B1A803FE17A4B1B881B1203F01C
:104D40000F03794AD35C1A467B4B1B8813449AB2F3
:104D5000794B1A80754B1B8802339AB2734B1A80B9
:104D60002AE1704B1B881B1203F00F036E4AD35CC1
:104D70001A46920013449AB26F4B1A806B4B1B88F1
:104D800002339AB2694B1A8016E1664B1B881B12DC
:104D900003F00F03644AD35C1A46920013445B008D
:104DA0009BB250339AB2644B1A80604B1B8802331B
:104DB0009AB25E4B1A80FFE05A4B1B881B1203F01D
:104DC0000F03594AD35C5C4A128811465B4AA2FB26
:104DD00003235B09DAB25A4B5A54524B1B881B12FD
:104DE00003F00F03504AD35C564AA2FB0323DB08AF
:104DF000DAB2514B1B88581C524BA3FB0213D90843
:104E00000B469B000B445B00D31ADAB24C4B1A548E
:104E1000444B1B881B1203F00F03434AD35C474AE1
:104E2000A2FB03125209642101FB02F29B1ADAB2BF
:104E3000414B1B88981C434BA3FB0213D9080B461C
:104E40009B000B445B00D31ADAB23D4B1A54374B2C
:104E50001B8802339AB2354B1A80ADE00023BB7534
:104E60000CE0BA7D344B1B881946BB7D0B442E49A0
:104E7000895C334AD154BB7D0133BB75BA7D294B64
:104E80001B881B1203F00F039A42EADD254B1B8897
:104E90001B129BB203F00F039AB2274B1B881344DB
:104EA0009BB201339AB2244B1A80204B1B880233E9
:104EB0009AB21E4B1A807FE000237B750CE01E4BDC
:104EC0001B881A467B7D1A447B7D1D49895C164AE6
:104ED000D1547B7D01337B757A7D124B1B881B126D
:104EE00003F00F039A42EADD0E4B1B881B129BB2A4
:104EF00003F00F039AB2104B1B8813449BB201338B
:104F00009AB20D4B1A80094B1B8802339AB2074B99
:104F10001A8051E000233B751FE000BF0CD902202E
:104F20005C00002098C60220ACD80220C6D802201F
:104F30002CD902202DD90220C4D802201F85EB5184
:104F40009CC60220CDCCCCCC3A7D3B7D1E49895CF1
:104F50001E4AD1543B7D01333B753A7D1C4B1B8867
:104F60001B1203F00F039A42EEDD1A4B1B8802332B
:104F70009AB2184B1A801FE00023FB7408E0FA7CF9
:104F8000FB7C1249895C104AD154FB7C0133FB74D1
:104F9000FA7C0F4B1B881B1203F00F039A42EEDDC5
:104FA0000C4B1B8802339AB20A4B1A8004E00A4B5E
:104FB00000221A7004E000BF02E0074B00221A70C2
:104FC00018463037BD46B0BDACD80220BCD8022050
:104FD00098C60220C6D8022033D9022080B483B0FC
:104FE00000AF7860044A7B68136000BF0C37BD4691
:104FF0005DF8047B704700BF38D9022080B485B0CB
:1050000000AF786039607B68FB604FF0FF33BB60B6
:105010000EE0FB685A1CFA601B781A46BB685340C6
:10502000DBB20A4A52F82320BB681B0A5340BB601C
:105030003B685A1E3A60002BEBD1BB68DB43184635
:105040001437BD465DF8047B704700BF305A020834
:1050500080B582B000AF78607B689B6E9BB21846CB
:1050600008F04DF903461A467B68DA847B682433DE
:1050700004211846FFF7C2FF02467B689A62044B80
:105080001A687B681A6100BF0837BD4680BD00BF43
:105090000800002080B400AF034B01221A7000BF4B
:1050A000BD465DF8047B7047640000202DE9B04FD9
:1050B00098B000AFF865B9657A657B6D1B889BB2C7
:1050C0007A6D1380BB6D012B06D87B6D1B889BB25C
:1050D000DBB29BB27A6D1380BB6D002B00F0FB80BE
:1050E000FA6D40F2D3139A4200F0B880FB6DB3F52D
:1050F000EA7F80F0EF80FA6D40F2BB139A4200F035
:10510000D980FB6DB3F5DE7F80F0E480FB6DB3F5F5
:10511000DC7F00F0B280FB6DB3F5DC7F00F2DA805B
:10512000FB6DB3F5A87F00F0B880FB6DB3F5A87FE9
:1051300000F2D080FB6D982B67D0FB6D982B00F2AE
:10514000C980FB6D772B44D0FB6D772B00F2C280BA
:10515000FB6D622B2CD0FB6D622B00F2BB80FB6DD4
:10516000242B03D0FB6D392B11D0B3E07B6D1B8852
:105170009BB2184608F0C3F803469BB20022BB64FA
:10518000FA64574BD7E91212C3E90012A3E07B6D12
:105190001B889BB2184608F0B2F803469BB2002267
:1051A0003B647A644E4BD7E91012C3E9041292E0D3
:1051B0007B6D1B889BB2184608F0A1F803469BB292
:1051C0000022BB63FA63464BD7E90E12C3E908120B
:1051D00081E07B6D1B889BB29BB200223B637A63AC
:1051E0003F4BD7E90C12C3E90C123D4BD3E90C013C
:1051F0004FF000024FF00003020A42EA01620B0A7C
:10520000D3B2184601F020FC65E07B6D1B889BB291
:105210009BB20022BB62FA62BB6A03F0FF033B62EF
:1052200000237B622E4BD7E90812C3E916122C4BE0
:10523000D3E9162313430AD02A4B1B78002B06D13F
:10524000274BD3F888300133254AC2F88830244BE5
:10525000D3E91623D2B2234B1A703CE07B6D1B8836
:105260009BB29BB20022BB61FA61BB6903F0FF04F1
:1052700000251B4BC3E910452DE07B6D1B889BB2BD
:105280009BB200223B617A613B6903F0FF0A4FF059
:10529000000B134BC3E91EAB1DE07B6D1B889BB25B
:1052A0009BB20022BB60FA600D4BD7E90212C3E942
:1052B0001A1210E07B6D1B889BB29BB200223B60F0
:1052C0007A603B6803F0FF084FF00009044BC3E924
:1052D000208900E000BF00BF6037BD46BDE8B08F49
:1052E000680000203CD9022080B584B000AF78600F
:1052F0000023FB7331E0FB7B1C4A52F82330DB6E4A
:105300007A68D21AFB7B194951F823305B6E9A42B6
:1053100020D3FB7B154A52F823301846FFF798FE3E
:10532000FB7B124A52F823301846FB7B0F4A52F897
:10533000233024331946FDF783FFFB7B0B4A52F8D9
:1053400023309A6E01329A66FB7B084A52F823306A
:105350007A68DA66FB7B0133FB73FB7B062BCAD9C9
:1053600000BF00BF1037BD4680BD00BFF800002061
:1053700080B582B000AF78607B680133184607F0D3
:1053800011FF0346184607F0BAFF03461A46244B9E
:105390009A847B680433184607F004FF03461846D6
:1053A00007F0ADFF03461A461E4B9A847B6807330D
:1053B000184607F0F7FE0346184607F0A0FF03461D
:1053C0001A46194B9A847B680A33184607F0EAFE9E
:1053D0000346184607F093FF03461A46134B9A8478
:1053E0007B680D33184607F091FE03461A46104BB2
:1053F0009A847B680F33184607F088FE03461A46E6
:105400000C4B9A847B681133184607F07FFE0346E5
:105410001A46094B9A8400BF0837BD4680BD00BFBD
:10542000F001002060020020D00200204003002094
:10543000B0030020200400209004002080B483B03A
:1054400000AF0346FB71044AFB79137000BF0C37B1
:10545000BD465DF8047B70473DD9022080B5C4B0DD
:1054600000AF07F58873A3F5867318600023C7F8AB
:105470000C31D7F80C315A1CC7F80C2107F588728B
:10548000A2F582724921D15407F58873A3F586737A
:105490001B68D86807F10C02D7F80C311344194681
:1054A00007F00AFD0246D7F80C311344C7F80C3157
:1054B00007F58873A3F586731B68186907F10C025A
:1054C000D7F80C311344194607F0F6FC0246D7F81A
:1054D0000C311344C7F80C3107F58873A3F58673B4
:1054E0001B68586907F10C02D7F80C3113441946B0
:1054F00007F0E2FC0246D7F80C311344C7F80C3130
:1055000007F58873A3F586731B68986907F10C0289
:10551000D7F80C311344194607F0CEFC0246D7F8F1
:105520000C311344C7F80C31134B986807F10C0287
:10553000D7F80C311344194607F0BEFC0246D7F8E1
:105540000C311344C7F80C31D7F80C315A1CC7F88A
:105550000C2107F58872A2F582720D21D15407F152
:105560000C03D7F80C11184607F002FC00BF07F532
:105570008877BD4680BD00BFE001002080B582B0C5
:1055800000AF7860074B1B78012B07D17868FAF7DA
:1055900061FE03461946786807F0EAFB00BF08374A
:1055A000BD4680BD3DD9022080B5C4B000AF07F52F
:1055B0008873A3F58673186007F58873A3F588735D
:1055C00019600023C7F80C31D7F80C315A1CC7F802
:1055D0000C2107F58872A2F582724521D154A94B9E
:1055E000986807F10C02D7F80C311344194607F0FC
:1055F00063FC0246D7F80C311344C7F80C3107F5A9
:105600008873A3F586731B68186807F10C02D7F836
:105610000C311344194607F04FFC0246D7F80C3101
:105620001344C7F80C3107F58873A3F586731B681C
:10563000586807F10C02D7F80C311344194607F0EB
:105640003BFC0246D7F80C311344C7F80C3107F580
:105650008873A3F586731B68986807F10C02D7F866
:105660000C311344194607F027FC0246D7F80C31D9
:105670001344C7F80C3107F58873A3F586731B68CC
:10568000D86807F10C02D7F80C311344194607F01B
:1056900013FC0246D7F80C311344C7F80C3107F558
:1056A0008873A3F588731B68186807F10C02D7F894
:1056B0000C311344194607F0FFFB0246D7F80C31B2
:1056C0001344C7F80C3107F58873A3F588731B687A
:1056D000586807F10C02D7F80C311344194607F04B
:1056E000EBFB0246D7F80C311344C7F80C3107F531
:1056F0008873A3F588731B68986807F10C02D7F8C4
:105700000C311344194607F0D7FB0246D7F80C3189
:105710001344C7F80C3107F58873A3F588731B6829
:10572000D86807F10C02D7F80C311344194607F07A
:10573000C3FB0246D7F80C311344C7F80C3107F508
:105740008873A3F588731B68186907F10C02D7F8F2
:105750000C311344194607F0AFFB0246D7F80C3161
:105760001344C7F80C3107F58873A3F588731B68D9
:10577000586907F10C02D7F80C311344194607F0A9
:105780009BFB0246D7F80C311344C7F80C3107F5E0
:105790008873A3F588731B68986907F10C02D7F822
:1057A0000C311344194607F087FB0246D7F80C3139
:1057B0001344C7F80C3107F58873A3F588731B6889
:1057C000D86907F10C02D7F80C311344194607F0D9
:1057D00073FB0246D7F80C311344C7F80C3107F5B8
:1057E0008873A3F588731B68186A07F10C02D7F851
:1057F0000C311344194607F05FFB0246D7F80C3111
:105800001344C7F80C3107F58873A3F588731B6838
:10581000586A07F10C02D7F80C311344194607F007
:105820004BFB0246D7F80C311344C7F80C3107F58F
:105830008873A3F588731B68986A07F10C02D7F880
:105840000C311344194607F037FB0246D7F80C31E8
:105850001344C7F80C31D7F80C315A1CC7F80C2187
:1058600007F58872A2F582720D21D15407F10C035D
:10587000D7F80C11184607F07BFA00BF07F58877B8
:10588000BD4680BD0800002080B58EB000AFF86036
:10589000B9607A603B60AB48FFF770FEAA48FFF73B
:1058A0006DFEAA4B1B79DBB2002B06D0B968F868F5
:1058B000FFF77AFE7868FFF7D1FD3B68002B00F018
:1058C000E1813B6803F00103002B02D0A048FFF701
:1058D00055FE3B6803F00203002B02D09D48FFF702
:1058E0004DFE3B6803F00403002B02D09A48FFF7FB
:1058F00045FE3B6803F00803002B02D09748FFF7F2
:105900003DFE3B6803F01003002B02D09448FFF7E4
:1059100035FE3B6803F02003002B02D09148FFF7CF
:105920002DFE3B6803F04003002B02D08E48FFF7AA
:1059300025FE3B6803F08003002B02D08B48FFF765
:105940001DFE3B6803F48073002B02D08848FFF7EC
:1059500015FE3B6803F40073002B02D08548FFF767
:105960000DFE3B6803F48033002B02D08248FFF722
:1059700005FE3B6803F48013002B02D07F48FFF73D
:10598000FDFD3B6803F40013002B37D07C48FFF784
:10599000F5FD7C4B1B79DBB263F07F03DAB2794B08
:1059A0001A71BB681B687B637B6B012B02D1764845
:1059B000FFF7E4FD7B6B022B02D17448FFF7DEFD9D
:1059C0007B6B032B02D17248FFF7D8FD7B6B042B56
:1059D00002D17048FFF7D2FD7B6B052B02D16E48D8
:1059E000FFF7CCFD7B6B062B02D16C48FFF7C6FDA1
:1059F0007B6B072B02D16A48FFF7C0FD3B6803F4BD
:105A00008003002B37D06748FFF7B8FD5D4B1B794B
:105A1000DBB263F07F03DAB25A4B1A71BB685B6882
:105A20003B633B6B012B02D15748FFF7A7FD3B6B54
:105A3000022B02D15548FFF7A1FD3B6B032B02D18E
:105A40005348FFF79BFD3B6B042B02D15148FFF7F6
:105A500095FD3B6B052B02D14F48FFF78FFD3B6B4C
:105A6000062B02D14D48FFF789FD3B6B072B02D176
:105A70004B48FFF783FD3B6803F48013002B02D0F3
:105A80003E48FFF77BFD3B6803F48013002B02D0F8
:105A90003A48FFF773FD0023BB74FB681B68DBB259
:105AA00007F110021146184607F0B6FA3E48FFF714
:105AB00065FD07F110031846FFF760FDFB681B68E2
:105AC000DB08DBB207F110021146184607F0A4FA12
:105AD0003648FFF753FD07F110031846FFF74EFD58
