:020000040800F2
:1000000000000420F57400089D720008A572000825
:10001000AD720008B5720008BD7200084575000891
:1000200000000000000000000000000061870108DF
:10003000C572000800000000F18601081151010896
:1000400045750008457500084575000845750008A8
:100050004575000845750008457500084575000898
:100060004575000845750008457500084575000888
:100070004575000845750008457500084575000878
:100080004575000845750008457500084575000868
:100090004575000845750008457500084575000858
:1000A0004575000845750008457500084575000848
:1000B00045750008D57200084575000845750008AB
:1000C0004575000845750008457500084575000828
:1000D000457500084575000845750008E972000877
:1000E000FD72000845750008117300084575000889
:1000F00045750008457500084575000845750008F8
:1001000045750008457500084575000845750008E7
:1001100045750008457500084575000845750008D7
:1001200045750008457500084575000845750008C7
:1001300025730008457500084575000845750008D9
:1001400045750008457500084575000845750008A7
:100150004575000845750008457500084575000897
:100160004575000839730008457500084575000895
:1001700045750008000000004575000800000000FB
:100180004D73000845750008457500084575000861
:100190004575000845750008457500084575000857
:1001A0004575000845750008457500084575000847
:1001B00045750008000000006173000845750008DF
:1001C00045750008000000004575000845750008E9
:1001D0004575000845750008457500084575000817
:1001E0004575000845750008457500084575000807
:0401F000000000000B
:1002000010B5054C237833B9044B13B10448AFF350
:1002100000800123237010BD840400200000000032
:10022000AC90010808B5034B1BB103490348AFF379
:10023000008008BD0000000088040020AC90010888
:10024000034613F8012B002AFBD1181A0138704716
:1002500080B483B000AF7860396000BF0C37BD4612
:100260005DF8047B7047000080B584B002AF72B6C1
:1002700000BF7F4B4FF000629A60BFF34F8F00BF0B
:1002800062B600BF07F05FF900F05AF900F0D8F944
:1002900000F0B6FB00F076FB00F006FB00F01EFB62
:1002A00000F0BAFA00F030FB00F0FCF900F00FFBB0
:1002B00000F090FA6F4B00936F4B0022012146F241
:1002C000060015F089FE03466C4A13606C4B0093E0
:1002D0006C4B0022012146F2060015F07DFE03461C
:1002E000694A1360694B0093694B0022012146F271
:1002F000060015F071FE0346664A1360664B0093D4
:10030000664B0022012146F2060015F065FE034609
:10031000634A1360634B0093634B002201214FF447
:100320007A6015F059FE0346604A1360604B0093F3
:10033000604B002201214FF47A6015F04DFE034618
:100340005D4A13605D4B00935D4B002201214FF429
:10035000A04015F041FE03465A4A13605A4B0093E1
:100360005A4B002201214FF4A04015F035FE034600
:10037000574A136002F0C6F816F032FD4B4B00935B
:10038000444B3E4A534901F06FFF534803F03AFE95
:10039000524801F0DFFB524A5249534801F012F92A
:1003A0004D480EF07FF90346002B01D001F02AF8EA
:1003B00000233B603B46184602F090F80346002BB2
:1003C0000FD13B68002B0CD100237B607B6843F08E
:1003D000B9737B607B6843F004037B60786802F04C
:1003E00043F814F0AFFE414A0021414814F0F4FEF6
:1003F0000346404A1360404A0021404814F0ECFE96
:1004000003463F4A13603F4A00213F4814F0E4FE90
:100410000346344A13603D4A00213D4814F0DCFE97
:1004200003463C4A13603C4A00213C4814F0D4FE89
:1004300003462B4A13603A4A00213A4814F0CCFE96
:100440000346244A1360384A0021384814F0C4FE99
:100450000346374A1360374A0021374814F0BCFE80
:100460000346364A136014F091FE00BFFDE700BF5B
:1004700000ED00E03C60002060600020BCA0022095
:1004800068C000208CC00020C0A002209420012061
:10049000B8200120C4A00220C0800120E4800120F7
:1004A000C8A00220ECE0012010E10120CCA0022035
:1004B000B0F00120D4F00120D0A00220740002206E
:1004C00098000220F4A1022098500220BC50022083
:1004D000F8A1022034220020F80500207005002039
:1004E000881D00203010002094050020289201086B
:1004F0000D0B0008D80600204C920108290B0008BB
:10050000840B002070920108310C000894920108BD
:10051000150D0008DC140020B8920108A50D000894
:10052000DC920108CD0D000800930108911100082C
:10053000E032002024930108C91300088C3B0020FE
:1005400080B59EB000AF07F1300348220021184665
:1005500018F0C4FC07F11C0300221A605A609A606C
:10056000DA601A613B1D00221A605A609A60DA60F4
:100570001A615A614FF400700CF030FA0346002BF8
:1005800001D000F03FFF29233B634FF480337B63AE
:100590000123BB650023BB6401237B640223FB654D
:1005A00003233B6601237B661023BB660723FB66A0
:1005B00008233B6702237B6707F1300318460CF0E2
:1005C0009DFA0346002B01D000F01CFF0F23FB61B6
:1005D00003233B6200237B620023BB620023FB6298
:1005E00007F11C03032118460CF05EFF0346002BA5
:1005F00001D000F007FF114B9B6D104A43F0807350
:1006000093650E4B9B6D03F080733B603B6800234A
:100610007B604FF00053BB600023FB604BF67F33E1
:100620003B6122237B612023BB613B1D18460DF0FB
:10063000C1FD00BF7837BD4680BD00BF001002403D
:1006400080B5A6B000AF3B1D94220021184618F0DB
:1006500045FC124B7B604FF00073FB664FF08053FC
:10066000C7F884300323BB600223FB6038233B615F
:1006700007237B610223BB610823FB61084B3B62BC
:100680003B1D18460DF012FA0346002B01D000F076
:10069000B9FE00BF9837BD4680BD00BF00400002D4
:1006A0000000010180B58AB000AF07F11C030022F1
:1006B0001A605A609A603B1D00221A605A609A6064
:1006C000DA601A615A613E4B3E4A1A603C4B4FF465
:1006D00030125A603A4B00229A60394B0022DA609D
:1006E000374B01221A61364B04225A61344B0022E7
:1006F0001A76334B01225A76314B0322DA61304BA2
:10070000002283F820202E4B00229A622C4B0022DC
:10071000DA622B4B012283F83020294B4FF48052B0
:100720005A63274B002283F83820254807F02EF91A
:100730000346002B01D000F065FE0023FB6107F1AA
:100740001C0319461E4808F069F80346002B01D027
:1007500000F058FE1C4B7B600623BB600023FB604F
:100760007F233B6104237B610023BB613B1D194652
:10077000134807F029FB0346002B01D000F042FE8E
:10078000124B7B600C23BB603B1D19460C4807F0E5
:100790001BFB0346002B01D000F034FE0C4B7B60AA
:1007A0001223BB603B1D1946054807F00DFB0346AD
:1007B000002B01D000F026FE00BF2837BD4680BDCB
:1007C000A004002000800242400020190002B02551
:1007D0000004002A80B500AF0D4B0E4A1A600C4B86
:1007E00000221A710A4B00225A71094B00225A61E9
:1007F000074B00229A61064B01221A62044808F056
:10080000DFF90346002B01D000F0FCFD00BF80BDE6
:10081000700500200030024080B500AF204B214A17
:100820001A601F4B00225A601D4B4FF440729A60B1
:100830001B4B0022DA601A4B01221A74184B00225B
:100840005A74174B00229A74154B01225A61144BAB
:1008500001229A61124B3C22DA61114B13221A6277
:100860000F4B01225A620E4B01229A620C4B0F224F
:10087000DA620B4B02221A63094B01225A63084BBE
:1008800001229A63064B0022DA63054808F0DCFD7A
:100890000346002B01D000F0B5FD00BF80BD00BFB6
:1008A0009405002000A4004080B500AF00200AF0AD
:1008B000D5FC0346002B01D000F0A4FD0AF0EEFCAD
:1008C0000346002B01D000F09DFD00BF80BD80B429
:1008D00000AF00BFBD465DF8047B704780B500AF38
:1008E000074B084A1A60064B00225A6004480DF074
:1008F00035FE0346002B01D000F084FD00BF80BD13
:10090000F805002000080C4280B500AF1B4B1C4AC4
:100910001A601A4B4FF482725A60184B00229A6088
:10092000164B4FF4E062DA60144B00221A61134B4D
:1009300000225A61114B4FF400729A610F4B102242
:10094000DA610E4B00221A620C4B00225A620B4BEA
:1009500000229A62094B0722DA62084B00221A63CE
:10096000064B08225A6305480DF041FF0346002B51
:1009700001D000F047FD00BF80BD00BF0C06002085
:100980000038004080B584B000AF1C4B9B6C1B4A04
:1009900043F004039364194B9B6C03F00403FB6066
:1009A000FB68164B9B6C154A43F001039364134B91
:1009B0009B6C03F00103BB60BB68104B9B6C0F4A40
:1009C00043F0020393640D4B9B6C03F002037B60C6
:1009D0007B68002205211D2008F0B7F81D2008F0D3
:1009E000CEF800220521502008F0AFF8502008F082
:1009F000C6F800BF1037BD4680BD00BF00100240E2
:100A000080B58AB000AF07F1140300221A605A6063
:100A10009A60DA601A61394BDB6C384A43F00403A0
:100A2000D364364BDB6C03F004033B613B69334B0F
:100A3000DB6C324A43F08003D364304BDB6C03F051
:100A40008003FB60FB682D4BDB6C2C4A43F00103F9
:100A5000D3642A4BDB6C03F00103BB60BB68274BFC
:100A6000DB6C264A43F00203D364244BDB6C03F0B7
:100A700002037B607B6800224FF4604120480AF04B
:100A8000D5FB002240F201111E480AF0CFFB0022E4
:100A900041F2E4011C480AF0C9FB4FF460437B615A
:100AA0000123BB610023FB6100233B6207F11403B8
:100AB000194613480AF04CF940F201137B610123F7
:100AC000BB610023FB6100233B6207F1140319465D
:100AD0000C480AF03DF941F2E4037B610123BB615C
:100AE0000023FB6100233B6207F11403194606480B
:100AF0000AF02EF900BF2837BD4680BD0010024025
:100B000000080242000002420004024280B582B0A6
:100B100000AF786017F0FEFF002015F07BFF00BFEC
:100B20000837BD4680BD000080B59EB000AF78603C
:100B30003B4B186807F14C014FF0FF33282215F0AA
:100B400011FC0346282B67D1BB6D184605F058FEF3
:100B5000034687F8773097F87730002B10D0304B6A
:100B6000186897F8772007F10C014FF0FF3315F064
:100B7000F9FB024697F877309A4201D000F042FC28
:100B80007B6D002B12D1FB6C97F8771007F10C02EC
:100B9000184601F087FA16F023F9024607F10C0116
:100BA00007F14C03184601F0AFFB2AE07B6DB3F16F
:100BB000005F26D1FB6C40F20272934221D1194BA7
:100BC00000225A61174B00229A61164B00229A604C
:100BD0003B6D144A5360FB6C124A1360BB6D114AA3
:100BE000D360104BDB68082B02D90E4B0822DA6069
:100BF00008220D490D4805F021FE0C49094800F076
:100C0000F9FD16F0EDF8024607F10C0107F14C036F
:100C1000184601F05DF88BE700F0F4FB88E700BFB1
:100C2000F4A10220D4A002209005FA0BF8A0022023
:100C300080B59EB000AF786000233B6715E0324B73
:100C400018683A6F1346DB0013449B001A4607F1FD
:100C50004C0399183B6FC3F124024FF0FF3315F09A
:100C600081FB02463B6F13443B673B6F232BE6D966
:100C7000BB6D184605F0C4FD034687F877307B6DE1
:100C8000B3F1005F02D1002387F8773097F877300F
:100C9000002B1FD000233B6711E01B4B186807F1A6
:100CA0000C023B6FD11897F877203B6FD21A4FF0A8
:100CB000FF3315F057FB02463B6F13443B6797F831
:100CC00077303A6F9A42E8D304E04FF0FF310120C9
:100CD00016F048FD0D4808F0EBFF0346002BF4D05A
:100CE00007F10C0207F14C031946084808F044FECE
:100CF0000346002B01D000F085FB054BDB68013378
:100D0000034AD36098E700BFF8A1022094050020B1
:100D10000000002080B584B000AF786001F0B6F923
:100D200000F074FC03221C491C4806F07BFF03F012
:100D3000C9F800F06DFB03F0D7F816F051F8034640
:100D4000184600F093FF16F04BF80346FB60144B77
:100D50001B78DBB2002B13D1FB68184603F0B9F8FF
:100D6000FB68184603F0CCF8FB68184600F058FB07
:100D7000FB68184601F034FAFB68184601F02CF9BC
:100D8000FB68184601F09CFA07F10C030A2118468B
:100D900015F0A4FED7E700BFA8C20220A0040020DF
:100DA0005400002080B582B000AF78604FF0FF3172
:100DB000012016F0D7FC044B186800230222002102
:100DC00016F06CFD00BFF1E73010002080B588B050
:100DD00002AF786000237B73864B1B68184615F0C2
:100DE00080F90346002B00F0E980824B186807F178
:100DF0000D014FF0FF33012215F0B4FA0346012B29
:100E000040F0DC807B4B1B68184615F06AF90346FE
:100E1000012B40F2D380774B186807F10E014FF099
:100E2000FF33022215F09EFA0346022B40F0C680E3
:100E3000FB89B3F5805F80F0C1800023FB8212E064
:100E40006C4B1868FB8A6C4A9918FB891A46FB8A16
:100E5000D31A1A464FF0FF3315F084FA03469AB2BC
:100E6000FB8A1344FB82FB89FA8A9A42E8D17B7B96
:100E7000002B3CD115F0B4FFFA8907F10A03009367
:100E80005E4B5D4905F01AFA7B89002B24D05C4B40
:100E9000186807F10A014FF0FF33022215F037F905
:100EA0003861574B18687B891A464FF0FF33534916
:100EB00015F02DF902463B6913443B617B890233EF
:100EC0003A699A4201D000F09DFA4E4B186800230F
:100ED0000222002116F0E2FC15F082FFFA8907F1E8
:100EE0000A030093454B444905F05CFC66E015F0AD
:100EF00077FFFA8907F10A030093404B3E4905F05A
:100F0000ADFB7B89002B4FD000237B753B4B1B78BF
:100F10007F2B02D001237B751EE07B89022B0ED92B
:100F2000364B9B78112B0AD0344B9B78122B06D072
:100F3000324B9B78312B02D001237B750CE07B89EF
:100F4000032B09D12D4B1B787F2B05D12B4B5B78C5
:100F50000A2B01D801237B757B7D002B24D0284BE5
:100F6000186807F10A014FF0FF33022215F0CFF89D
:100F70003861234B18687B891A464FF0FF331F49AD
:100F800015F0C5F802463B6913443B617B89023387
:100F90003A699A4201D000F035FA1A4B18680023DA
:100FA0000222002116F07AFC15F01AFFFA8907F1E7
:100FB0000A030093114B104905F0F4FB124B1B6818
:100FC000184615F08EF80346012B68D90E4B1868A9
:100FD00007F10E014FF0FF33022215F0C3F903466B
:100FE000022B5CD1FB89B3F5805F58D20023FB82D2
:100FF0001FE000BFBCA00220384000203C50002071
:10100000C0A00220E0320020C4A00220594B186882
:10101000FB8A594A9918FB891A46FB8AD31A1A4641
:101020004FF0FF3315F09EF903469AB2FB8A134442
:10103000FB82FB89FA8A9A42E8D115F0D1FEFA893F
:1010400007F10A0300934D4B4B4902F023FA7B89C9
:10105000002B24D04A4B186807F10A014FF0FF33E8
:10106000022215F054F83861454B18687B891A46FE
:101070004FF0FF33414915F04AF802463B691344EB
:101080003B617B8902333A699A4201D000F0BAF998
:101090003C4B186800230222002116F0FFFB3A4B5C
:1010A0001B68184615F01DF80346012B5BD9364B1B
:1010B000186807F10E014FF0FF33022215F052F9C4
:1010C0000346022B4FD1FB89B3F5805F4BD200233F
:1010D000FB8212E02C4B1868FB8A274A9918FB897F
:1010E0001A46FB8AD31A1A464FF0FF3315F03AF925
:1010F00003469AB2FB8A1344FB82FB89FA8A9A421E
:10110000E8D115F06DFEFA8907F10A0300931B4B35
:10111000194905F001FE7B89002B24D01B4B186870
:1011200007F10A014FF0FF33022214F0F0FF38619B
:10113000164B18687B891A464FF0FF330F4914F09D
:10114000E6FF02463B6913443B617B8902333A69FF
:101150009A4201D000F056F90A4B18680023022287
:10116000002116F09BFB4FF0FF31002016F0FAFA39
:1011700032E600BFC4A00220384000203C500020CE
:10118000C8A00220E0320020CCA00220D0A0022083
:1011900080B586B000AF78600023FB82804B1B686F
:1011A000184614F09EFF0346012B54D97C4B186857
:1011B0004FF0FF3302227B4915F0D4F80346022B8F
:1011C00049D1794B03F580539B8AB3F5805F42D2B6
:1011D0000023FB8215E0724B1868FB8A734A99184A
:1011E000714B03F580539B8A1A46FB8AD31A1A4621
:1011F0004FF0FF3315F0B6F803469AB2FB8A13445A
:10120000FB82694B03F580539B8AFA8A9A42E2D1AA
:1012100015F0E6FD03461946634801F0F4FD034668
:10122000002B18D10EE0624B1B78DBB2002B05D0EF
:101230005D4B03F5005393F8233000E00A23184672
:1012400014F05DF815F0CCFD0346184604F05AFF83
:101250000346012BE7D1574B1B68184614F041FF9A
:101260000346012B54D9534B18684FF0FF33022229
:10127000514915F077F80346022B49D14F4B03F53E
:1012800080539B8AB3F5805F42D20023FB8215E036
:10129000484B1868FB8A4A4A9918484B03F5805313
:1012A0009B8A1A46FB8AD31A1A464FF0FF3315F071
:1012B00059F803469AB2FB8A1344FB823F4B03F56D
:1012C00080539B8AFA8A9A42E2D115F089FD03463F
:1012D00019463A4801F097FD0346002B18D10EE05D
:1012E000334B1B78DBB2002B05D0344B03F5005396
:1012F00093F8233000E00A23184614F000F815F0A4
:101300006FFD0346184602F065F80346012BE7D14E
:101310002C4B1B68184614F0E4FE0346012B38D909
:10132000284B186807F114014FF0FF33022215F023
:1013300019F80346022B2CD1BB8A082B29D800238D
:10134000FB8213E01F4B1868FB8A07F10C02D118CF
:10135000BB8A1A46FB8AD31A1A464FF0FF3315F0A0
:1013600001F803469AB2FB8A1344FB82BB8AFA8ACD
:101370009A42E7D102E00A2013F0C1FF15F030FDD8
:10138000BA8A07F10C03194605F066FC0346012BE7
:10139000F1D14FF0FF31002016F0E4F9FEE600BF76
:1013A000C0A0022080D402206CC4022088D4022075
:1013B00054000020C8A0022090B202207CA202208B
:1013C00098B20220D0A0022080B582B000AF786031
:1013D000002015F01FFB00BF0837BD4680BD000090
:1013E00080B582B000AF78607B681B68044A934286
:1013F00001D106F0C3F800BF0837BD4680BD00BF6D
:10140000002C014080B400AF72B600BF00BFFDE702
:1014100080B400AF00BFBD465DF8047B704700009C
:1014200080B582B000AF7860184BD3E9002393B247
:10143000184605F022FA03461A46154B9A84134BB8
:10144000D3E9042393B2184605F017FA03461A4667
:10145000104B9A840D4BD3E90C2392B20E4B1B799F
:101460001B029BB213439AB20C4B9A84074BD3E9ED
:10147000162392B20A4B9A84044BD3E91C2392B2EE
:10148000084B9A8400BF0837BD4680BD5800002035
:10149000A80100201802002054010020880200202A
:1014A000F80200206803002080B400AF00BFBD46F2
:1014B0005DF8047B7047000080B582B002AF3D4B01
:1014C0001B683D49184608F034F90346002B01D04B
:1014D000FFF798FF374B1B683849184608F029F981
:1014E0000346002B01D0FFF78DFF324B1868002315
:1014F000009300230222022108F075F90346002B15
:1015000001D0FFF77FFF2B4B1B68184608F09CF9B2
:101510000346002B01D0FFF775FF264B1B68002206
:101520000121184608F0D6FB0346002B01D0FFF737
:1015300069FF204B1B6800220621184608F0CAFBF1
:101540000346002B01D0FFF75DFF1A4B1B680722F3
:101550004FF4F051184608F0BDFB0346002B01D0B4
:10156000FFF750FF134B1B6807228021184608F035
:10157000B1FB0346002B01D0FFF744FF0D4B1B6866
:1015800000220F49184608F0A5FB0346002B01D0A6
:10159000FFF738FF074B1B6800224FF46021184605
:1015A00008F098FB0346002B01D0FFF72BFF00BF8C
:1015B000BD4680BD00A10220240000203C00002088
:1015C0000040710080B584B000AFF860B9607A6007
:1015D000094AFB681360094ABB681360084A7B68C4
:1015E00013600849012014F078F80346064A136096
:1015F00000BF1037BD4680BD00A1022004A102201B
:1016000008A10220A4A10220A0A1022080B500AF61
:101610000A4B1B68184608F069F8084B1B68184607
:1016200007F012FF0346002B01D0FFF7EBFE00F09E
:10163000C3F8FFF741FF00BF80BD00BF00A102203B
:1016400080B500AF034B1B68184608F04FF800BF89
:1016500080BD00BF00A1022080B485B000AF03466A
:10166000FB710023FB73FB79303B082B00F28B806E
:1016700001A252F823F000BF9D160008B71600081B
:10168000D1160008EB160008051700081F17000800
:1016900039170008531700086D170008454B1B68E1
:1016A00032225A61434B1B681422DA61414B1B689A
:1016B00013221A6276E03F4B1B6819225A613D4B98
:1016C0001B681422DA613B4B1B6813221A6269E023
:1016D000384B1B680A225A61364B1B681422DA61A8
:1016E000344B1B6813221A625CE0324B1B680522E4
:1016F0005A61304B1B681422DA612E4B1B6813228F
:101700001A624FE02B4B1B6804225A61294B1B685D
:101710001422DA61274B1B6813221A6242E0254B20
:101720001B6802225A61234B1B681422DA61214B89
:101730001B6813221A6235E01E4B1B6801225A6196
:101740001C4B1B683F22DA611A4B1B6810221A627D
:1017500028E0184B1B6801225A61164B1B680C22AB
:10176000DA61144B1B680C221A621BE0114B1B68D8
:1017700001225A610F4B1B681422DA610D4B1B6862
:1017800013221A620EE00B4B1B6801225A61094BAF
:101790001B683F22DA61074B1B6810221A62012383
:1017A000FB7300BFFB7B18461437BD465DF8047B16
:1017B000704700BF00A1022080B400AF0C4B002294
:1017C0001A710B4B0022DA60094B00221A61084B98
:1017D00000225A61064B00229A61054B00229A6052
:1017E000034B0022DA6100BFBD465DF8047B704701
:1017F0000000002080B586B000AF7860396000231B
:10180000BB747B68DB68184604F0FAFF0346FB7480
:101810007B689B68B3F1005F01D10023FB74FB7C04
:101820002433FB6000BF2C4B1B684FF0FF31184680
:1018300014F06BF90346012BF5D1284B1B681846B1
:1018400014F025FC0246FB6893420AD9244B1B790D
:10185000DBB243F00203DAB2214B1A710223BB74EC
:1018600025E01E4B18684FF0FF332422796814F0EE
:101870004EFC7861FB7C002B0BD0184B1868FA7C6F
:101880004FF0FF33396814F042FC02467B69134481
:101890007B617A69FB689A4209D0114B1B79DBB2F4
:1018A00043F00803DAB20E4B1A710123BB740A4BE2
:1018B000186800230022002113F02AFF094B1B683F
:1018C000186800230222002115F0E8FFBB7C1846AF
:1018D0001837BD4680BD00BFA0A10220F8A102209C
:1018E0000000002004A1022080B586B000AF78601F
:1018F00039600023BB603B6803F00103002B4FD02D
:10190000454B464A4021786808F07AF80346002B98
:1019100001D0FFF7C9FD424B5B690133404A536177
:101920003E4BDB68184604F06BFF0346FB74FB7C00
:101930002833FB603B4B1B68184614F0A8FB02469B
:10194000FB6893420ED9364B9B690133344A93614D
:10195000354B1B681B6807F108021146184616F044
:10196000FBF81DE02F4B186807F1080328222B49CC
:1019700014F066FC7861FB7C002B0BD0294B1868B7
:10198000FA7C07F10803244914F05AFC02467B69EB
:1019900013447B617A69FB689A4201D0FFF784FDAA
:1019A0003B6803F00203002B0BD01D4B1B79DBB20D
:1019B00043F00103DAB21A4B1A717B681B680222EA
:1019C0001A653B6803F00403002B19D0144B9B6984
:1019D0000133134A9361124B1B79DBB243F00803C6
:1019E000DAB20F4B1A717B681B6804221A650E4B22
:1019F0001B681B6807F108021146184616F0ACF880
:101A0000BB68002B03D0094B4FF080521A6000BF17
:101A10001837BD4680BD00BF0CA102204CA102209A
:101A200000000020F4A1022008A1022004ED00E043
:101A300080B584B000AF786039600023FB600C4B48
:101A40001B6901330A4A13610A4B1B681B6807F1C3
:101A50000C021146184616F07FF8FB68002B03D0E5
:101A6000054B4FF080521A6000BF1037BD4680BD55
:101A70000000002004A1022004ED00E080B584B045
:101A800000AF78600023FB600C4BDB6901330B4A2D
:101A9000D3610B4B1B681B6807F10C0211461846FB
:101AA00016F05AF8FB68002B03D0064B4FF080521B
:101AB0001A6000BF1037BD4680BD00BF0000002087
:101AC00008A1022004ED00E080B582B000AF78608C
:101AD00039601E49786808F09BF83B6803F40033CE
:101AE000002B0BD0194BDB68002B03D1184B0022C5
:101AF0001A6003E0164B4FF000421A603B6803F493
:101B00008023002B14D0114B1B69012B08D1104BE3
:101B10001B79DBB243F00403DAB20D4B1A7107E014
:101B20000B4B1B79DBB223F00403DAB2084B1A71BA
:101B30003B6803F40023002B03D0054B012283F8FC
:101B4000202000BF0837BD4680BD00BF74A1022021
:101B50000000002080B483B000AF7860044A7B6846
:101B6000136000BF0C37BD465DF8047B704700BFB3
:101B7000FCA1022080B485B000AF786039607B683A
:101B8000FB604FF0FF33BB600EE0FB685A1CFA604D
:101B90001B781A46BB685340DBB20A4A52F823202E
:101BA000BB681B0A5340BB603B685A1E3A60002B5F
:101BB000EBD1BB68DB4318461437BD465DF8047BA8
:101BC000704700BF4893010880B584B000AF03465A
:101BD0003960FB80234B00225A61224B00229A611C
:101BE000204B00229A601F4B00225A60FB881D4A3E
:101BF00013603868FEF724FB03467B810023FB81DA
:101C000027E000237B737A89FB89D31A082B02D93A
:101C100008237B7305E07B89DAB2FB89DBB2D31A38
:101C20007B737B7B184604F0FDFD03460D4AD360B1
:101C3000FB893A6813447A7B19460B4804F0FEFD91
:101C400009490848FFF7D6FD7B7B9AB2FB8913440C
:101C5000FB81FA897B899A42D3D300BF00BF10373A
:101C6000BD4680BD04A2022028A2022080B483B019
:101C700000AF7860044B00221A6000BF0C37BD46ED
:101C80005DF8047B704700BF00A2022080B582B0DF
:101C900000AF786039607B689B68002B0ED17B6851
:101CA0001B68094A934209D108220849386817F08D
:101CB00005F90346002B01D1012300E0002318465B
:101CC0000837BD4680BD00BFFECA77003C910108C1
:101CD00080B584B000AFF860B9607A60FB689B683B
:101CE000002B0AD1FB681B6840F25642934204D194
:101CF00025494FF4EE60FFF767FFFB689B68B3F17F
:101D0000005F0AD1FB681B6840F27172934204D1F4
:101D10001E4940F27170FFF757FFFB689B68002B6C
:101D200012D1FB681B6840F2574293420CD1082243
:101D30001749B86817F0C2F80346002B04D11549BB
:101D400040F27170FFF740FFB968F868FFF79EFF37
:101D50000346002B04D0104940F27370FFF734FFA4
:101D6000FB689B68002B0AD1FB681B68B3F58B6F7F
:101D700005D10A4B01221A70094B00221A6000BFDC
:101D80001037BD4680BD00BF489101086091010831
:101D90007891010884910108989101085CA20220C1
:101DA00000A2022080B582B000AF8023FB80274BC9
:101DB00000225A61254B00229A61244B00229A602E
:101DC000224B00225A60214B4FF4DE621A60204BF6
:101DD0001B88002B09D1022004F024FD03461B4A76
:101DE000D3601C4B00225A7005E0012004F01AFD5C
:101DF0000346164AD360164B1B88DB089BB21A4673
:101E0000154B9B5C1A46124B1B88DB4303F0070300
:101E100042FA03F3DBB203F00103DAB20D4B1A709E
:101E20000B4B1B8801339AB2094B1A80084B1B8855
:101E3000FA889A4202D2064B00221A8005490348CA
:101E4000FFF7D8FC00BF0837BD4680BD30A2022096
:101E50005EA2022054A20220B491010880B582B093
:101E600000AF9023FB802A4B00225A61284B0022AE
:101E70009A61274B00229A60254B00225A60244B1E
:101E800040F2F1621A60234B1B88002B09D101201C
:101E900004F0C8FC03461E4AD3601F4B00221A7090
:101EA00005E0002004F0BEFC0346194AD360194B3C
:101EB0001B88DB089BB21A46184B9B5C1A46154BD5
:101EC0001B88DB4303F0070342FA03F303F001032B
:101ED000002B03D10E4B00229A6003E00C4B4FF015
:101EE00000529A600B4B1B8801339AB2094B1A803F
:101EF000084B1B88FA889A4202D2064B00221A80AD
:101F000005490348FFF776FC00BF0837BD4680BD92
:101F100030A2022060A2022054A20220C89101082F
:101F200080B582B000AF9823FB80274B00225A6116
:101F3000254B00229A61244B00229A60224B0022FA
:101F40005A60214B40F2F2621A60204B1B88002B32
:101F500009D1012004F066FC03461B4AD3601C4BE8
:101F600000221A7005E0002004F05CFC0346164ACB
:101F7000D36017491448FFF73DFC144B1B8801330D
:101F80009AB2124B1A80114B1B88FA889A4202D2DD
:101F90000E4B00221A800D4B1B88DB089BB21A46A1
:101FA0000C4B9B5C1A46094B1B88DB4303F0070371
:101FB00042FA03F303F00103002B00D0C5E700BF92
:101FC00000BF0837BD4680BD30A2022062A20220B9
:101FD00054A20220DC91010880B582B000AF786085
:101FE000154B1B78002B23D0144B1968144BA3FB03
:101FF0000123DA0813469B0013445B00CA1A002A27
:1020000003D1FFF7CFFEFFF729FF0C4B1A680D4BEA
:10201000A3FB02135B09642101FB03F3D31A002B1A
:1020200001D1FFF77DFF054B1B680133034A1360A5
:1020300000BF0837BD4680BD5CA2022000A202207E
:10204000CDCCCCCC1F85EB5180B582B000AF786091
:102050007B689B6E9BB2184604F00FFC03461A4641
:102060007B68DA847B68243304211846FFF782FDFD
:1020700002467B689A62044B1A687B681A6100BF4B
:102080000837BD4680BD00BF0000002080B400AF0F
:10209000034B00221A7000BFBD465DF8047B7047F9
:1020A000540000202DE9B04F8CB000AFF862B96247
:1020B0007A627B6A1B889BB27A6A1380BB6A012BA7
:1020C00006D87B6A1B889BB2DBB29BB27A6A13800C
:1020D000BB6A002B7DD0FA6A40F2C9139A425ED0E7
:1020E000FB6AB3F5E57F73D2FB6AB3F5DC7F61D0A1
:1020F000FB6AB3F5DC7F6BD8FB6A6D2B42D0FB6AC1
:102100006D2B65D8FB6A432B2BD0FB6A432B5FD822
:10211000FB6A1A2B03D0FB6A2F2B11D058E07B6A85
:102120001B889BB2184604F0A8FB03469BB2002212
:10213000BB61FA61294BD7E90612C3E9021248E0F4
:102140007B6A1B889BB2184604F097FB03469BB240
:1021500000223B617A61214BD7E90412C3E90612E0
:1021600037E07B6A1B889BB2184604F086FB034667
:102170009BB20022BB60FA60184BD7E90212C3E998
:10218000141226E07B6A1B889BB29BB200223B6044
:102190007A60124BD7E90012C3E90E1219E07B6A8C
:1021A0001B889BB29BB200229A4693460B4BC3E915
:1021B00012AB0EE07B6A1B889BB29BB20022984652
:1021C000914608F0FF040025044BC3E91E4500E0DA
:1021D00000BF00BF3037BD46BDE8B08F58000020BB
:1021E00080B584B000AF78600023FB7331E0FB7BE7
:1021F0001C4A52F82330DB6E7A68D21AFB7B1949ED
:1022000051F823305B6E9A4220D3FB7B154A52F87B
:1022100023301846FFF718FFFB7B124A52F8233091
:102220001846FB7B0F4A52F8233024331946FFF738
:10223000E1FAFB7B0B4A52F823309A6E01329A6620
:10224000FB7B084A52F823307A68DA66FB7B01335D
:10225000FB73FB7B042BCAD900BF00BF1037BD4600
:1022600080BD00BFE800002080B584B000AFF860FA
:10227000B9607A603B600E4ABB6813600D4A7B68A8
:1022800013600D4A3B6813600C4ABB69136000F091
:1022900093F8F86803F002FFF86801F079F8F8683D
:1022A00004F0B4FC002318461037BD4680BD00BFC3
:1022B00064A2022068A202206CA2022070A2022066
:1022C00080B584B000AF78600023FB73786803F0BA
:1022D000F9FE03461A46FB7B1343FB73786801F053
:1022E00069F803461A46FB7B1343FB73786804F0D6
:1022F00099FC03461A46FB7B1343FB73FB7B184692
:102300001037BD4680BD000080B584B000AFF860D6
:10231000B9607A601C4B1B687A68B968F86803F08A
:1023200003FF0346012B07D1184B1B6818680023D5
:102330000222002115F0B2FA154B1B687A68B968C1
:10234000F86801F059F80346012B07D10F4B1B68C1
:10235000186800230222002115F0A0FA0D4B1B681B
:102360007A68B968F86804F099FC0346012B07D134
:10237000064B1B68186800230222002115F08EFA14
:1023800000BF1037BD4680BD68A2022064A20220B3
:102390006CA2022070A2022080B483B000AF03467A
:1023A000FB71044AFB79137000BF0C37BD465DF822
:1023B000047B7047FC00002080B582B000AF002392
:1023C000FB713B461946102000F0DAF80346002B5B
:1023D00008D00021102000F0AEF80346002B01D0F9
:1023E0000123FB71FB7918460837BD4680BD80B5D7
:1023F00082B000AF0021102000F09DF80346002BB2
:1024000002D00123FB7101E00023FB71FB79184628
:102410000837BD4680BD80B584B000AF78603960B4
:102420000123FB730023BB6007F10803194610204A
:1024300000F0A6F80346002B10D1BB687A689A42D8
:102440000CD27B689BB211339BB23968184600F0FE
:1024500097F80346002B01D10023FB73FB7B184642
:102460001037BD4680BD000080B584B000AF7860F5
:102470000023BB600123FB73174B1B78002B02D199
:102480000023FB7322E007F108031946102000F037
:1024900077F80346002B19D1BB681133FF2B15D8F1
:1024A000BB689BB211339BB27968184600F043F8C1
:1024B0000346002B0AD1BB6801331946102000F0F7
:1024C0003AF80346002B01D10023FB73FB7B18462F
:1024D0001037BD4680BD00BFFC00002080B584B031
:1024E00000AF78600023FB737968102000F048F893
:1024F0000346002B01D00123FB73FB7B18461037EA
:10250000BD4680BD80B582B000AF0023FB8007F0E0
:1025100049FF00200EF082FF0346FB80FB88002B62
:1025200002D0002010F078F807F05EFFFB88184614
:102530000837BD4680BD80B584B000AF0346396022
:10254000FB8007F02FFF0023FB81FB8839681846CA
:1025500010F08DF90346FB81FB8903F48073002B97
:1025600006D010F09FF903461A46FB891343FB81FE
:1025700007F03AFFFB89DBB218461037BD4680BD35
:1025800080B584B000AF03463960FB800023FB8137
:10259000FB883968184610F045F903461A46FB894E
:1025A0001343FB81FB89DBB218461037BD4680BD63
:1025B00080B483B000AF78600B46FB701346BB70ED
:1025C000FB7803F00103002B02D07B6800221A7015
:1025D000FB7803F00203002B04D07B6803F58053E3
:1025E00003221A7400BF0C37BD465DF8047B7047A8
:1025F00080B485B000AF786039607B6800221A70C3
:102600007B6800225A807B6800229A807B680022C7
:102610001A737B6800229A607B6803F5805300225E
:102620001A747B6803F5805300225A827B6803F595
:10263000805300229A827B6803F580531A46002358
:1026400093617B6803F50053002283F821207B68A7
:1026500003F50053002283F822207B6803F5005322
:10266000002283F823207B6803F5005300229A7729
:102670007B6803F500530022DA777B6803F500538B
:10268000002283F820207B6803F580530022DA8142
:102690007B6803F5005300229A837B6803F500539F
:1026A0001A463B6853620023FB6008E07A68FB68C7
:1026B00013440D3300221A70FB680133FB60FB6882
:1026C000B3F5805FF2D30023BB600AE07A68BB6891
:1026D000134403F580531C3300221A70BB68013386
:1026E000BB60BB68B3F5805FF0D300BF00BF143799
:1026F000BD465DF8047B704790B589B000AFF860C7
:102700007A603B600B46FB72FB683A689A60FB7A22
:10271000002B00F080817B681B781B09DBB2032B48
:1027200000F2728101A252F823F000BF3D27000899
:10273000972700083B280008352900087B681B788C
:1027400003F00F03BB76FB681B78002B04D0062236
:102750000121F868FFF72CFFBB7E002B00F05681AB
:10276000BB7E072B00F25281BA7EFB7A013B9A4274
:1027700000F24C81FB6803F10D007B680133BA7EE7
:10278000194604F05BF8BB7E9AB2FB685A80FB687E
:1027900002221A703AE1FB681B78002B04D0062253
:1027A0000121F868FFF704FFFB7A072B40F2308124
:1027B0007B681B781B021BB203F470631AB27B6840
:1027C00001331B781BB213431BB29AB2FB689A8089
:1027D000FB689B88072B40F21B81FB689B88B3F545
:1027E000805F1CD8FB6803F10D007B680233062272
:1027F000194604F023F8FB6806225A80FB68012280
:102800001A70FB6803F5005300229A77FB680122D7
:102810001A73FB6803F580530122DA81F8E0FB6844
:1028200003F5005302229A77FB6801221A730722EC
:102830000121F868FFF7BCFEEAE0FB681B78012B7A
:1028400040F0E8807B681B7803F00F03FB77FB7F89
:102850009AB2FB6803F58053DB8903F00F039BB248
:102860009A4205D004220121F868FFF7A1FED1E0C9
:10287000FB689A88FB685B88D31ABB83BB8B072BEA
:1028800002D9FB7A082B54D1BB8B072B04D8FB7AD7
:102890009BB2BA8B9A424CD2FB6803F58053DB891A
:1028A00001339AB2FB6803F58053DA81BB8B062BA8
:1028B00002D8BB8BDBB202E0FB7A013BDBB2FB76DA
:1028C000FB685B880833FA681344581D7B68013342
:1028D000FA7E194603F0B2FFFB685A88FB7E9BB272
:1028E00013449AB2FB685A80FB685A88FB689B883D
:1028F0009A4203D1FB6802221A708BE0FB6803F551
:102900000053DB7F002B00F08580FB6803F58053CC
:10291000DB89013BFA6802F50052D27F93FBF2F1AA
:1029200001FB02F29B1A002B74D1FB6801221A737F
:1029300070E06FE07B681B7803F00F03DAB2FB688E
:1029400003F5005383F82120FB7A012B08D97B681B
:1029500001331A78FB6803F5005383F8222005E061
:10296000FB6803F50053002283F82220FB7A022B38
:1029700008D97B6802331A78FB6803F5005383F8A3
:10298000232005E0FB6803F50053002283F8232091
:10299000FB6803F5005393F82130022B24D0022B5F
:1029A00028DC002B02D0012B0CD023E0FB6803F5C0
:1029B00080531B7C022B23D1FB6803F5805301223B
:1029C0001A741DE0FB6803F580531B7C022B05D0B5
:1029D000FB6803F580531B7C012B13D1FB6803F5C7
:1029E000805302221A740DE008220221F868FFF7D2
:1029F000DFFD08E005220221F868FFF7D9FD02E0BB
:102A000000BF08E000BF06E000BF04E000BF02E036
:102A100000BF00E000BFFB681B7B012B1BD107F14F
:102A2000140207F119031946F86800F019F87A7EC4
:102A3000FB6803F500535C6A104603F0F3FE03469F
:102A4000E360FB6803F500535B6A07F1140211466B
:102A50001846FEF7CFFE00BF2437BD4690BD00BF2D
:102A600080B487B000AFF860B9607A600023FB756E
:102A7000FB681B7B002B1FD0FB6803F500539B7F7B
:102A800043F03003DAB27B681A707B680133FA686E
:102A900002F50052D27F1A707B680233FA6802F5A1
:102AA000005292F820201A70BB6803221A7001238A
:102AB000FB75FB6800221A73FB7D18461C37BD4668
:102AC0005DF8047B704780B586B000AFF860B960F0
:102AD0007A603B600023FB75FB6803F580531B7C29
:102AE000012B40F01381FB6803F5005393F823306A
:102AF000BB75BB7DF02B01D90123BB75FB6803F5CA
:102B000080539B693A68D21ABB7D9A42C0F0FE801E
:102B1000FB6803F580535B8A002B6AD1FB6803F5E1
:102B200080539B8A072B2FD8FB6803F580539B8A21
:102B3000DAB27B681A707B68581CFB6803F5805317
:102B40001C33FA6802F58052928A194603F076FE29
:102B5000FB6803F580539B8ADBB20133DAB2BB68B2
:102B60001A70FB6803F580539A8AFB6803F580535B
:102B70005A82FB6803F5005301229A83FB6803F530
:102B8000805303221A74B9E0FB6803F580539B8AD3
:102B90001B0A9BB25BB203F00F035BB243F010035E
:102BA0005BB2DAB27B681A70FB6803F580539A8ACD
:102BB0007B680133D2B21A707B68981CFB6803F5FE
:102BC00080531C330622194603F038FEBB680822E6
:102BD0001A70FB6803F5805306225A82FB6803F5DE
:102BE000005301229A83FB6803F5805302221A7472
:102BF00084E0FB6803F580539A8AFB6803F58053F1
:102C00005B8AD31ABB82FB6803F500539B8B5BB2D4
:102C100003F00F035BB243F020035BB2DAB27B68D0
:102C20001A70BB8A072B39D97B68581CFB6803F5DF
:102C300080535B8A03F580531833FA6813440433D6
:102C40000722194603F0FAFDBB6808221A70FB68D8
:102C500003F580535B8A07339AB2FB6803F5805310
:102C60005A82FB6803F5005393F82230002B3BD0C7
:102C7000FB6803F500539B8BFA6802F5005292F84B
:102C8000222093FBF2F101FB02F29B1A002B2BD1C5
:102C9000FB6803F5805302221A7425E07B68581CF8
:102CA000FB6803F580535B8A03F580531833FA6899
:102CB00013440433BA8A194603F0C0FDBB8ADBB261
:102CC0000133DAB2BB681A70FB6803F580535A8A85
:102CD000BB8A13449AB2FB6803F580535A82FB689F
:102CE00003F5805303221A74FB6803F500539B8B92
:102CF00001339AB2FB6803F500539A830123FB75F5
:102D0000FB6803F580531A463B689361FB7D1846C8
:102D10001837BD4680BD000080B584B000AF786034
:102D200039607B681B78012B0DD17B689B683A6802
:102D3000D31AFB60FB68064A934204DD032201219B
:102D40007868FFF735FC002318461037BD4680BD74
:102D5000400D030080B598B000AFF860B9607A60AC
:102D6000002387F85F30FB6803F580531B7C012B41
:102D700005D0FB6803F580531B7C022B0FD1FB6849
:102D800003F580539B69BA68D31ABB65BB6DB3F575
:102D9000FA6F04D902220221F868FFF709FC07F153
:102DA000140207F15701BB68F868FFF78CFE034671
:102DB000002B14D097F85730184603F033FD024625
:102DC0007B68DA6002E00A2012F099FA07F1140336
:102DD00019467868FEF70EFD0346002BF3D1FB6819
:102DE00003F580531B7C032B07D1012387F85F3049
:102DF000FB6803F5805300221A7497F85F30184679
:102E00006037BD4680BD80B584B000AF7860396062
:102E10000123FB737B6803F580539B8AB3F5805FC6
:102E20001ED87B6803F580531B7C002B01D0FEF776
:102E3000E9FA7B6803F5805300225A827B6803F528
:102E4000005300229A837B6803F580531A463B683F
:102E500093617B6803F5805301221A740023FB738E
:102E6000FB7B18461037BD4680BD80B485B000AFEF
:102E7000F8607A603B600B467B817B687F221A702A
:102E80007B680133FA6812781A707B68023311226A
:102E90001A703B6803221A8000BF002318461437BB
:102EA000BD465DF8047B704780B483B000AF7860A6
:102EB0000B46FB700C4B1B687F221A700A4B1B6879
:102EC00001337A6812781A70074B1B680233FA785C
:102ED0001A70064B1B6803221A8000BF0C37BD46D0
:102EE0005DF8047B704700BF74A2022078A2022024
:102EF00080B485B000AF78600B467B807B681A7821
:102F0000104B1B684032D2B21A700123FB810BE0D8
:102F1000FB897A681A440B4B1968FB890B441278B9
:102F20001A70FB890133FB81FA897B889A42EFD3BF
:102F3000054B1B6801221A8000BF1437BD465DF89F
:102F4000047B704774A2022078A2022080B582B070
:102F500000AF78600B467B807B88012B13D97B68A0
:102F600001331B78812B04D07B6801331B78852BC0
:102F700004D101217868FFF7BBFF08E012217868CF
:102F8000FFF792FF03E012217868FFF78DFF00BF83
:102F90000837BD4680BD80B582B000AF78600B4673
:102FA0007B8011217868FFF77FFF00BF0837BD469F
:102FB00080BD80B582B000AF78600B467B80112168
:102FC0007868FFF771FF00BF0837BD4680BD80B548
:102FD00082B000AF78600B467B8011217868FFF7E4
:102FE00063FF00BF0837BD4680BD80B582B000AF2B
:102FF00078600B467B8011217868FFF755FF00BF92
:103000000837BD4680BD80B582B000AF78600B4602
:103010007B8011217868FFF747FF00BF0837BD4666
:1030200080BD80B582B000AF78600B467B801121F7
:103030007868FFF739FF00BF0837BD4680BD80B50F
:1030400082B000AF78600B467B8011217868FFF773
:103050002BFF00BF0837BD4680BD80B582B000AFF2
:1030600078600B467B8011217868FFF71DFF00BF59
:103070000837BD4680BD80B582B000AF78600B4692
:103080007B8011217868FFF70FFF00BF0837BD462E
:1030900080BD80B582B000AF78600B467B80112187
:1030A0007868FFF701FF00BF0837BD4680BD80B5D7
:1030B00082B000AF78600B467B8011217868FFF703
:1030C000F3FE00BF0837BD4680BD000080B582B06A
:1030D00000AF78600B467B807B88012B1AD97B6818
:1030E00001331B78012B07D10E4B01221A700121ED
:1030F0007868FFF7FDFE11E07B6801331B78022B37
:1031000003D1084B01221A7008E012217868FFF7FA
:10311000CBFE03E012217868FFF7C6FE00BF083738
:10312000BD4680BD5400002080B582B000AF7860FD
:103130000B467B807B88012B1AD97B6801331B7877
:10314000012B07D10E4B00221A7001217868FFF77E
:10315000CFFE11E07B6801331B78022B03D1084BB3
:1031600000221A7008E012217868FFF79DFE03E044
:1031700012217868FFF798FE00BF0837BD4680BD72
:103180005400002080B582B000AF78600B467B8091
:1031900011217868FFF788FE00BF0837BD4680BD63
:1031A00080B582B000AF78600B467B8011217868D3
:1031B000FFF77AFE00BF0837BD4680BD80B582B0FC
:1031C00000AF78600B467B8011217868FFF76CFEBA
:1031D00000BF0837BD4680BD80B582B000AF7860C3
:1031E0000B467B8011217868FFF75EFE00BF083731
:1031F000BD4680BD80B582B000AF78600B467B8055
:1032000011217868FFF750FE00BF0837BD4680BD2A
:1032100080B582B000AF78600B467B801121786862
:10322000FFF742FE00BF0837BD4680BD80B582B0C3
:1032300000AF78600B467B8011217868FFF734FE81
:1032400000BF0837BD4680BD80B582B000AF786052
:103250000B467B8011217868FFF726FE00BF0837F8
:10326000BD4680BD80B582B000AF78600B467B80E4
:1032700011217868FFF718FE00BF0837BD4680BDF2
:1032800080B582B000AF78600B467B8011217868F2
:10329000FFF70AFE00BF0837BD4680BD80B582B08B
:1032A00000AF78600B467B8011217868FFF7FCFD4A
:1032B00000BF0837BD4680BD80B582B000AF7860E2
:1032C0000B467B8011217868FFF7EEFD00BF0837C1
:1032D000BD4680BD80B582B000AF78600B467B8074
:1032E00011217868FFF7E0FD00BF0837BD4680BDBB
:1032F00080B582B000AF78600B467B807B88012B65
:1033000013D97B6801331B78012B04D10121786824
:10331000FFF7EEFD0DE07B6801331B78022B08D030
:1033200012217868FFF7C0FD03E012217868FFF7EB
:10333000BBFD00BF0837BD4680BD80B582B000AF81
:1033400078600B467B8011217868FFF7ADFD00BFE8
:103350000837BD4680BD80B582B000AF78600B46AF
:103360007B8011217868FFF79FFD00BF0837BD46BD
:1033700080BD80B582B000AF78600B467B801121A4
:103380007868FFF791FD00BF0837BD4680BD00009B
:1033900080B582B000AF786004490548FFF728F98E
:1033A000002318460837BD4680BD00BF2401002019
:1033B0007CA2022080B582B000AF786079680448B2
:1033C000FFF7AAFC034618460837BD4680BD00BF7C
:1033D0007CA2022080B582B000AF7860044A796890
:1033E0000448FFF7B7FC034618460837BD4680BDC2
:1033F000000100207CA2022080B586B000AFF860FA
:10340000B9607A603B600023FB75FB681B6840F283
:10341000E672934233D1FB68DB68184603F0F0F99B
:10342000034619467B68BA681748FFF765F9164BDB
:103430001B78022B23D13B6818684FF0FF33022220
:10344000124912F064FE38613B6818680E4B5B88C5
:103450001A464FF0FF330E4912F059FE02463B69FF
:1034600013443B61084B5B8802333A699A4201D0AE
:10347000FDF7C8FF044B00221A700123FB75FB7D8A
:1034800018461837BD4680BD7CA202207EA20220CD
:1034900089A2022080B584B000AFF860B9603B60BB
:1034A0001346FB80CC4A3B681360CC4ABB6913606F
:1034B000CA4B1B6800221A80FB88002B00F0C581D4
:1034C000BB681B780F2B06D8F988BB693A68B868C7
:1034D000FFF7CBFCB9E1BB681B78103B762B00F201
:1034E000AF8101A252F823F0C5360008D13600089A
:1034F000DD360008F5360008E936000841380008D6
:1035000041380008013700080D370008413800082D
:1035100041380008413800084138000841380008A7
:1035200041380008413800084138000819370008C0
:1035300025370008313700084138000841380008B5
:103540003D37000849370008553700086137000843
:1035500041380008413800086D370008413800083C
:103560007937000885370008913700089D37000833
:10357000A9370008B5370008C1370008CD37000863
:10358000E1370008ED3700084138000841380008ED
:1035900041380008F93700084138000805380008AC
:1035A0001138000841380008413800084138000847
:1035B0004138000841380008413800084138000807
:1035C00041380008413800084138000841380008F7
:1035D00041380008413800084138000841380008E7
:1035E00041380008413800084138000841380008D7
:1035F00041380008413800084138000841380008C7
:1036000041380008413800084138000841380008B6
:1036100041380008413800084138000841380008A6
:103620004138000841380008413800084138000896
:103630004138000841380008413800084138000886
:103640004138000841380008413800084138000876
:103650004138000841380008413800084138000866
:103660004138000841380008413800084138000856
:103670004138000841380008413800084138000846
:103680004138000841380008413800084138000836
:103690004138000841380008413800084138000826
:1036A0004138000841380008413800084138000816
:1036B00041380008413800081D3800082938000842
:1036C00035380008FB881946B868FFF73FFCBCE0B6
:1036D000FB881946B868FFF75EFCB6E0FB88194620
:1036E000B868FFF766FCB0E0FB881946B868FFF7DA
:1036F0006EFCAAE0FB881946B868FFF776FCA4E0E8
:10370000FB881946B868FFF77EFC9EE0FB881946E7
:10371000B868FFF786FC98E0FB881946B868FFF7A1
:103720008EFC92E0FB881946B868FFF796FC8CE0A7
:10373000FB881946B868FFF79EFC86E0FB881946AF
:10374000B868FFF7A6FC80E0FB881946B868FFF769
:10375000AEFC7AE0FB881946B868FFF7B7FC74E066
:10376000FB881946B868FFF7DFFC6EE0FB88194656
:10377000B868FFF707FD68E0FB881946B868FFF7EF
:103780000FFD62E0FB881946B868FFF717FD5CE0A3
:10379000FB881946B868FFF71FFD56E0FB881946FD
:1037A000B868FFF727FD50E0FB881946B868FFF7B7
:1037B0002FFD4AE0FB881946B868FFF737FD44E063
:1037C000FB881946B868FFF73FFD3EE0FB881946C5
:1037D000B868FFF747FD38E074A2022078A2022003
:1037E000FB881946B868FFF74BFD2EE0FB881946A9
:1037F000B868FFF753FD28E0FB881946B868FFF763
:103800005BFD22E0FB881946B868FFF763FD1CE00A
:10381000FB881946B868FFF76BFD16E0FB88194670
:10382000B868FFF78AFD10E0FB881946B868FFF713
:1038300092FD0AE0FB881946B868FFF79AFD04E09C
:103840001121B868FFF730FB00BF00BF1037BD463D
:1038500080BD00BF80B58AB000AF06F0DFFD042355
:103860007B604FF48073BB613B1D184606F076FF0A
:1038700006F0F6FDFB6903F48013002B01D0012351
:1038800000E0022318462837BD4680BD80B588B0C9
:1038900000AF78600023FB610223FB607B683B6123
:1038A00000237B618023BB6107F11C0207F10C033D
:1038B0001146184606F07AFE034618462037BD46E4
:1038C00080BD80B58AB000AF002387F827303B4623
:1038D000184606F043FF04233B604FF400537B611E
:1038E000BB6943F08063BB6106F05CFD03461A468A
:1038F00097F82730134387F8273097F82730002BA5
:1039000037D106F08BFD03461A4697F8273013434C
:1039100087F8273097F82730002B2AD13B461846E6
:1039200006F0B4FE03461A4697F82730134387F88B
:10393000273097F82730002B09D106F0A9FD034660
:103940001A4697F82730134387F8273011E006F01E
:1039500087FD03461A4697F82730134387F8273028
:1039600006F042FD03461A4697F82730134387F8BE
:10397000273097F82730002B01D1002300E00123E6
:1039800018462837BD4680BD80B58AB000AF0023F9
:1039900087F8273006F006FD034687F8273006F043
:1039A0003DFD03461A4697F82730134387F8273022
:1039B0003B46184606F0D2FE04233B604FF480736A
:1039C0007B61BB6903F48013002B02D00023BB6131
:1039D00002E04FF48013BB6197F82730002B17D11A
:1039E0003B46184606F052FE03461A4697F8273023
:1039F000134387F8273097F82730002B08D106F0BB
:103A000047FD03461A4697F82730134387F82730B7
:103A100006F026FD03461A4697F82730134387F829
:103A2000273006F0E1FC03461A4697F82730134387
:103A300087F8273097F82730002B01D1002300E0CA
:103A4000012318462837BD4680BD80B582B000AF3F
:103A500006F0A8FC0346FB71FFF7FCFE0346184680
:103A6000FFF714FF03461A46FB791343FB7106F078
:103A7000BBFC03461A46FB791343FB71FB79002B11
:103A800001D1002300E0012318460837BD4680BD60
:103A900080B584B000AF1D4B7B601D4B3B6006F0D2
:103AA00081FC0346FB737B68BB6019E0BB68D3E90C
:103AB0000023B3F1FF3F08BFB2F1FF3F0DD0BB6859
:103AC00003F58021BB68D3E90023084600F057F8CE
:103AD00003461A46FB7B1343FB73BB680833BB608A
:103AE000BA683B689A42E1D306F07EFC03461A4668
:103AF000FB7B1343FB73FB7B002B01D1002300E016
:103B0000012318461037BD4680BD00BF00E0030802
:103B10000000040880B586B000AF00233B6106F0CA
:103B200041FC0346FB7502233B60FFF793FE03460F
:103B3000012B01D1022300E001237B607C23BB60C9
:103B40000423FB6007F110023B461146184606F0BD
:103B50002DFD03461A46FB7D1343FB7506F044FC1E
:103B600003461A46FB7D1343FB75FB7D002B01D1F9
:103B7000002300E0012318461837BD4680BD80B5FC
:103B800086B000AFF860C7E90023D7E90023F968E1
:103B9000012006F0C5FB0346FB75FB7D002B01D120
:103BA000002300E0012318461837BD4680BD000001
:103BB00080B485B000AF786039600123FB737B6807
:103BC000B3F1006F03D37B680D4A934201D3002306
:103BD000FB733B68B3F1006F03D33B68084A934221
:103BE00001D30023FB737A683B689A4201D9002312
:103BF000FB73FB7B18461437BD465DF8047B7047AA
:103C000000E0030880B485B000AF7860396000231D
:103C1000FB737B68B3F1005F06D33B680B4A9342AA
:103C200002D80123FB7309E07B68094A934205D956
:103C30003B68084A934201D80123FB73FB7B18467B
:103C40001437BD465DF8047B704700BF00000320B9
:103C5000FFFF02200000042080B485B000AF786030
:103C600039600023FB737B68B3F1006F16D33B68A8
:103C70002A4A934212D82A4B1B88BB81BB89B3F5D1
:103C8000007F02D10123FB733FE0264BBB603A6803
:103C9000BB689A4239D80123FB7336E07B68B3F1E5
:103CA000005F06D33B68204A934202D80123FB738E
:103CB0002CE07B681D4A934206D93B681C4A93421C
:103CC00002D80123FB7321E07B681A4A934206D98C
:103CD0003B68194A934202D80123FB7316E07B68C4
:103CE000164A934206D93B68154A934202D80123EB
:103CF000FB730BE07B68134A934207D93B68124A77
:103D0000934203D80123FB7300E000BFFB7B1846FE
:103D10001437BD465DF8047B704700BF00000808FB
:103D2000E005FA0B0000040800000320FFFF02205A
:103D300000000420FFFFF90B0002FA0BFFFFF80B55
:103D4000FF7FF90B3F2002403F21024080B485B045
:103D500000AF0346FB800023FB73FB88B3F5506F75
:103D600002D30123FB7321E0FB88B3F5406F02D33C
:103D70000323FB731AE0FB88B3F5306F02D30423EF
:103D8000FB7313E0FB88B3F5206F02D30523FB73AD
:103D90000CE0FB88B3F5E06F02D30623FB7305E06C
:103DA000FB88B3F5807F01D80223FB73FB7B1846A9
:103DB0001437BD465DF8047B7047000080B582B0C3
:103DC00000AF78603B4B1A883B4B1A80394B5A88BE
:103DD000394B5A80374B9B881846FFF7B7FF03468D
:103DE0001A46354B1A71354B1B687A68D31A642B07
:103DF00050D9324A7B6813602F4B1B79012B44D07A
:103E00002F4B1B79012B40D12B4B1B79022B10D14F
:103E1000294B5B79052B03D9274B5B79FF2B04D109
:103E2000254B5B790133DBB201E0234B5B79224AFE
:103E30005371214B1B79032B0CD11F4B5B79062B44
:103E400004D81D4B5B79013BDBB201E01A4B5B7977
:103E5000194A5371184B1B79042B08D1164BDB8878
:103E600083F001039BB2DBB29AB2134BDA80124BA0
:103E70001B79052B09D1104BDB8883F480739BB22F
:103E800023F0FF039AB20C4BDA800D4B0A4A07CAA3
:103E900003C31A80084B1B79062B03D1064B012262
:103EA0001A7202E0044B00221A7200BF0837BD46A6
:103EB00080BD00BFA8C2022054010020A4C202207D
:103EC0004801002080B400AF00BFBD465DF8047B10
:103ED000704780B582B000AF78607868FFF76EFFFA
:103EE00000BF0837BD4680BD80B400AF034B002241
:103EF0001A7000BFBD465DF8047B7047AEC2022059
:103F00002DE9B00F85B000AFF8602E49097800297F
:103F100007D02D4909881F2903D82B4949881F2913
:103F200014D92949098889B200200A46034627493D
:103F3000C1E900232449498889B2002039607860AA
:103F40002249D7E90023C1E904230BE01F4BD3E941
:103F500002231E49C1E900231C4BD3E906231B4958
:103F6000C1E90423174B1B78002B03D0164B5B7958
:103F7000002B09D0144B5B79DBB200229A469346A2
:103F8000124BC3E90CAB05E0104BD3E90E230F49EC
:103F9000C1E90C230C4B1B7ADBB2002298469146F8
:103FA0000A4BC3E91689084BDB889BB200221C46EA
:103FB0001546064BC3E91C4500BF1437BD46BDE896
:103FC000B00F7047AEC202205401002058000020FC
:103FD00080B500AF094B1B68184612F082F8034603
:103FE000802B08D800BF064B1B6818460AF05AFB06
:103FF0000346002BF7D100BF80BD00BFB4C2022032
:10400000B0C2022080B584B002AF78600C4A7B68F1
:1040100013600C4B00930C4B002201214FF4807075
:1040200011F0DAFF0346094A13600949012011F033
:1040300054FB0346074A136000BF0837BD4680BDE6
:10404000B0C202200CC3022030C30220B4C202203E
:10405000BCC20220B8C2022080B582B000AF786036
:1040600039600B4B186839460023042212F04FF8D0
:10407000074B1B68184612F00AF80346002B02D0C3
:1040800078680AF00FFB00BF0837BD4680BD00BF4F
:10409000B4C2022080B584B000AF786078680AF0BE
:1040A0009AFBF86000BF1037BD4680BD80B582B076
:1040B00000AFFFF78DFF00BF0E4B1B684FF0FF31C5
:1040C000184611F022FD0346012BF5D10A4B186862
:1040D000391D4FF0FF33042212F044F9054B1868E4
:1040E00000230022002111F013FB7B6818460837DB
:1040F000BD4680BDB8C20220B4C2022080B485B0E3
:1041000000AF78600B467B807B88002B12D00023A9
:10411000FB810BE0FB897A681A440B4B1968FB8919
:104120000B4412781A70FB890133FB81FA897B8872
:104130009A42EFD3054B1B687A881A8000BF143768
:10414000BD465DF8047B704744C4022048C4022089
:1041500080B483B000AF78600B46FB700C4B1B68DB
:104160007F221A700A4B1B6801337A6812781A7022
:10417000074B1B680233FA781A70064B1B68032240
:104180001A8000BF0C37BD465DF8047B704700BF46
:1041900044C4022048C4022080B485B000AF7860D7
:1041A0000B467B807B681A78104B1B684032D2B27A
:1041B0001A700123FB810BE0FB897A681A440B4BD0
:1041C0001968FB890B4412781A70FB890133FB8153
:1041D000FA897B889A42EFD3054B1B687A881A804C
:1041E00000BF1437BD465DF8047B704744C402200D
:1041F00048C4022080B400AF054B1B7F022B0CBFCC
:1042000001230023DBB21846BD465DF8047B7047EE
:104210004CC4022080B483B000AF78607B68002279
:104220001A607B6800225A607B6800229A607B6873
:1042300000221A747B680022DA6000BF0C37BD468A
:104240005DF8047B7047000080B584B000AF034682
:10425000FB710023FB730C4B1B78022B07D0FB79FF
:10426000002B01D07E2300E07F23FB7306E0FFF7E5
:10427000C1FF0346012B01D03323FB73FB7B1846A0
:104280001037BD4680BD00BF4CC4022080B582B04F
:1042900000AF7860094B01221A70094B00225A7353
:1042A000084B00221A700848FFF7B4FF034A7B68E6
:1042B000536000BF0837BD4680BD00BF4CC402201C
:1042C00030C4022040C4022058C4022080B584B00B
:1042D00000AF78600B467B805023BB817B88022B2C
:1042E00004D013217868FFF733FF77E07B68013350
:1042F0001B7803F07F03032B1CD0032B64DC012B02
:1043000002D0022B3BD05FE0364B5B681846FFF7CC
:10431000BDFF7B6801331B787B737B6801331B789F
:104320005BB2002B55DB07F10C0302211846FFF7A7
:10433000E5FE4EE02C4BD3E914230B2A73F1000366
:1043400004D388217868FFF703FF44E0254B5B68BE
:104350001846FFF79BFF234B03221A707B6801333B
:104360001B787B737B6801331B785BB2002B32DBDD
:1043700007F10C0302211846FFF7C0FE2BE01A4B91
:10438000D3E914230B2A73F1000304D322217868A4
:10439000FFF7DEFE21E0134B5B681846FFF776FF60
:1043A000104B02221A707B6801331B787B737B6889
:1043B00001331B785BB2002B0FDB07F10C030221EA
:1043C0001846FFF79BFE08E012217868FFF7C0FE51
:1043D00004E000BF02E000BF00E000BF00BF1037F4
:1043E000BD4680BD4CC402205800002080B582B07C
:1043F00000AF78600B467B807B88022B04D01321B2
:104400007868FFF7A5FE23E0134B1B78012B04D13E
:104410007F217868FFF79CFE1AE07B6801331B78E8
:1044200003F07F03012B0DD17B8819467868FFF7D5
:10443000B3FE7B6801331B785BB2002B07DA04F014
:10444000BAFB04E012217868FFF782FE00E000BFAB
:1044500000BF0837BD4680BD4CC4022080B582B085
:1044600000AF78600B467B807B88042B04D013213F
:104470007868FFF76DFE21E07B6801331B78FF2B26
:1044800009D17B6802331B78FF2B04D17B6803338F
:104490001B78FF2B04D031217868FFF759FE0DE01F
:1044A000FDF7A5FF0346002B04D072217868FFF7C3
:1044B0004FFE03E001217868FFF76EFE00BF08376A
:1044C000BD4680BD80B5C6B000AF07F58C73A3F5BF
:1044D0008A7318600A4607F58C73A3F58B731A80EC
:1044E00007F58C73A3F5847359221A600433FC22F8
:1044F0000021184614F0F2FC002387F8173107F565
:104500008C73A3F58B731B88022B08D807F58C736B
:10451000A3F58A7313211868FFF71AFE24E107F543
:104520008C73A3F58A731B6801331A7807F58C73B3
:10453000A3F584735A7007F58C73A3F58473042272
:104540009A7007F58C73A3F58A731B6801331B7887
:1045500003F07F03012B02D0022B45D0E8E007F5E2
:104560008C73A3F58B731B88032B08D007F58C7312
:10457000A3F58A7313211868FFF7EAFDE1E007F558
:104580008C73A3F584730022DA7007F108031846D0
:10459000FDF7A4FF0346002B08D007F58C73A3F5A5
:1045A0008A7372211868FFF7D3FDCAE007F58C7390
:1045B000A3F588731B681B0ADAB207F58C73A3F5A1
:1045C00084731A7107F58C73A3F588731B68DAB2CC
:1045D00007F58C73A3F584735A7107F11003062154
:1045E0001846FFF78BFDACE007F58C73A3F58B73D2
:1045F0001B88032B08D007F58C73A3F58A7313214E
:104600001868FFF7A5FD9CE007F58C73A3F584738C
:104610000022DA7007F108031846FDF75FFF034632
:10462000002B08D007F58C73A3F58A7372211868E4
:10463000FFF78EFD85E00023C7F8103151E007F148
:104640000C031946D7F81001FDF7E5FE0346002BD1
:1046500003D0012387F817313EE007F58C73A3F5EB
:1046600086731B681A0ED7F810319B000333D1B242
:1046700007F58C72A2F58472D15407F58C73A3F5FB
:1046800086731B681A0CD7F8103101339B00D1B226
:1046900007F58C72A2F58472D15407F58C73A3F5DB
:1046A00086731B681A0AD7F810319B000533D1B204
:1046B00007F58C72A2F58472D15407F58C73A3F5BB
:1046C00086731A68D7F810319B000633D1B207F50C
:1046D0008C72A2F58472D154D7F810310133C7F827
:1046E000103107F58C73A3F588731B68D7F8102178
:1046F0009A42A4D397F81731002B10D107F58C7389
:10470000A3F588731B689BB29B009BB203339AB2DC
:1047100007F1100311461846FFF7F0FC11E007F50A
:104720008C73A3F58A7372211868FFF711FD08E0F6
:1047300007F58C73A3F58A7312211868FFF708FD3B
:1047400000BF07F58C73A3F58A731B6801331B78D0
:104750005BB2002B08DA074B1B681B787F2B03D05A
:10476000054B1B6800221A8000BF07F58C77BD46F9
:1047700080BD00BF44C4022048C4022080B588B078
:1047800000AF78600B467B807B88012B04D8132117
:104790007868FFF7DDFCA2E07B6801331B7803F04B
:1047A0000F03042B04D012217868FFF7D1FC96E0A8
:1047B0007B6801331B7803F0F003402B04DD1221EA
:1047C0007868FFF7C5FC8AE0474B1B78012B04D1C2
:1047D0007F217868FFF7BCFC81E00023FB617B68E8
:1047E00001331B781B09FB747A88FB7C06339A42E1
:1047F00004D013217868FFF7ABFC70E07B680233CC
:104800001B781A067B6803331B781B041A447B68E9
:1048100004331B781B0213447A6805321278134460
:10482000FB600023FB7614E0FB7E06331A467B68B0
:1048300013441B781946FA7CFB7E0133D31ADB0044
:1048400001FA03F31A46FB691343FB61FB7E013354
:10485000FB76FA7EFB7C9A42E6D3FB6940F6FE7259
:10486000934204D931217868FFF772FC37E0FA6887
:10487000FB6913441946F868FFF7EEF90346002B6D
:1048800029D0FB6940F6FE72934224D87B681A78DF
:10489000164B1B684032D2B21A7000237B610EE0C7
:1048A000FA687B6913441946104B1A687B69013317
:1048B00013440A78D2B21A707B6901337B617A693A
:1048C000FB699A42ECD3FB699AB2094B1B6801322F
:1048D00092B21A8003E031217868FFF739FC00BFFB
:1048E0002037BD4680BD00BF4CC4022044C4022016
:1048F00048C4022080B592B000AF78600B467B8040
:104900007B88032B04D013217868FFF721FC25E175
:104910007B6801331B781B029BB27A6802321278E3
:104920001344A7F8423007F12C0300221A605A60A2
:104930009A60DA601A61002387F847300023A7F8ED
:104940004430B7F84230B3F5007F38D3B7F842307F
:10495000B3F5806F33D207F12C02B7F8423011461D
:104960001846FDF70DFE0346A7F84430B7F844306B
:10497000002B1AD17B681B784033DBB23B727B681B
:104980005B787B727B689B78BB7207F12C0107F127
:10499000080303330422184601F050FF07F108030F
:1049A00007211846FFF7AAFBD7E0B7F84430002BE1
:1049B00000F0D38031217868FFF7CAFBCDE0B7F86B
:1049C0004230A3F57143843B0C2B00F2A48001A27A
:1049D00052F823F0094A0008174B0008354A00082E
:1049E000434A0008174B0008174B0008174B0008F4
:1049F000174B00085B4A0008174B0008174B0008CC
:104A0000174B0008734A000807F1080303330C2210
:104A10005449184601F012FF2023FB7507F10803E3
:104A2000103309225049184601F008FF192387F86E
:104A3000473074E04D4B1B78FB72042387F84730F6
:104A40006DE007F10803033304224949184601F0D9
:104A5000F5FE072387F8473061E007F108030333C9
:104A60000C224449184601F0E9FE0F2387F847302D
:104A700055E007F12C0319460120FDF781FD03469F
:104A80001A46B7F844301343A7F8443007F12C0313
:104A9000043319460220FDF773FD03461A46B7F8A2
:104AA00044301343A7F8443007F12C030833194668
:104AB0000320FDF765FD03461A46B7F8443013435B
:104AC000A7F8443007F12C030C3319460420FDF7F6
:104AD00057FD03461A46B7F844301343A7F844304D
:104AE00007F12C03103319460520FDF749FD034655
:104AF0001A46B7F844301343A7F8443007F12C01A5
:104B000007F1080303331122184601F097FE14231E
:104B100087F8473003E00823A7F8443000BFB7F810
:104B20004430002B14D17B681B784033DBB23B72DE
:104B30007B685B787B727B689B78BB7297F84730A9
:104B40009AB207F1080311461846FFF7D7FA05E0B5
:104B500031217868FFF7FCFA00E000BF00BF48375A
:104B6000BD4680BDF0910108FC9101084CC40220B3
:104B7000089201089005FA0B80B582B000AF78600A
:104B80000B467B8011217868FFF7E2FA00BF0837F7
:104B9000BD4680BD80B584B000AF78600B467B8099
:104BA00067233B727B6801331B7803F07F03DBB222
:104BB0007B720023BB720023FB7200233B73002334
:104BC0007B73FFF773FA0346164AD360154BDA6816
:104BD000154B5340134A1361124BDB681B0EDBB2BB
:104BE000BB72104BDB681B0CDBB2FB720D4BDB683E
:104BF0001B0ADBB23B730B4BDB68DBB27B73094BED
:104C000001221A777B6801331B785BB2002B05DB2E
:104C100007F1080306211846FFF770FA00BF1037A6
:104C2000BD4680BD4CC402207856341280B584B095
:104C300000AF78600B467B8067233B727B68013353
:104C40001B7803F07F03DBB27B727B6802331B7837
:104C50001A067B6803331B781B041A447B680433F1
:104C60001B781B0213447A68053212781344FB60E8
:104C7000234B9B69042B04D936217868FFF768FA27
:104C800039E01F4B5A681E4B5B69D31A092B04D8B5
:104C900037217868FFF75CFA2DE0194B1B7F012B59
:104CA00004D033217868FFF753FA24E0144B1B69D2
:104CB000FA689A420FD1124B02221A777B680133AD
:104CC0001B785BB2002B16DB07F1080302211846A4
:104CD000FFF714FA0FE00A4B00221A77084B9B6982
:104CE0000133074A9361064B5B68054A53613521DE
:104CF0007868FFF72DFA00BF1037BD4680BD00BFB2
:104D00004CC4022080B582B000AF78600B467B8037
:104D10007B88012B04D813217868FFF719FA22E069
:104D20007B6801331B7803F07F03012B02D0022B39
:104D300006D013E07B8819467868FFF72BFF12E056
:104D40007B88062B04D013217868FFF701FA0AE06C
:104D50007B8819467868FFF769FF04E012217868BC
:104D6000FFF7F6F900BF00BF0837BD4680BD80B52C
:104D700082B000AF78600B467B8011217868FFF726
:104D8000E7F900BF0837BD4680BD80B582B000AFEF
:104D900078600B467B8011217868FFF7D9F900BF56
:104DA0000837BD4680BD80B582B000AF78600B4645
:104DB0007B8011217868FFF7CBF900BF0837BD462B
:104DC00080BD80B582B000AF78600B467B8011213A
:104DD0007868FFF7BDF900BF0837BD4680BD000009
:104DE00080B586B000AF78600B467B807B6801336E
:104DF0001B781B029BB27A68023212781344BB8282
:104E00000023FB82724B1B78022B04D07F21786831
:104E1000FFF79EF9D7E0BB8A4FF28412934204D089
:104E2000BB8A4FF28C12934204D131217868FFF78C
:104E30008FF9C8E0BB8A4FF29012934202D07B8870
:104E4000072B07D1BB8A4FF29012934207D17B8880
:104E5000142B04D013217868FFF77AF9B3E0BB8AEA
:104E60004FF2901293421AD07B6803331B781A06D4
:104E70007B6804331B781B041A447B6805331B785A
:104E80001B0213447A680632127813443B61BB8AD2
:104E900039691846FDF74FFB0346FB8277E07B68D4
:104EA00006331B781A067B6805331B781B041A44EB
:104EB0007B6804331B781B0213447A680332127830
:104EC000134419460120FDF736FB03461A46FB8AB8
:104ED0001343FB827B680A331B781A067B6809330D
:104EE0001B781B041A447B6808331B781B0213448D
:104EF0007A6807321278134419460220FDF71BFB2B
:104F000003461A46FB8A1343FB827B680E331B78E9
:104F10001A067B680D331B781B041A447B680C331C
:104F20001B781B0213447A680B321278134419461B
:104F30000320FDF700FB03461A46FB8A1343FB825E
:104F40007B6812331B781A067B6811331B781B04AD
:104F50001A447B6810331B781B0213447A680F32A3
:104F60001278134419460420FDF7E5FA03461A4661
:104F7000FB8A1343FB827B6813331B781946052099
:104F8000FDF7D9FA03461A46FB8A1343FB82FB8AD4
:104F9000002B04D072217868FFF7DAF813E07B6801
:104FA0001B784033DBB23B737B6801331B787B7328
:104FB0007B6802331B78BB7307F10C03032118468F
:104FC000FFF79CF8FFE700BF1837BD4680BD00BF64
:104FD0004CC4022080B582B000AF78600B467B8065
:104FE00011217868FFF7B4F800BF0837BD4680BDCF
:104FF00080B584B000AF78600B467B807B88042B43
:1050000004D013217868FFF7A3F827E07B68013309
:105010001B78012B1DD10120FFF716F90346FB7306
:10502000FB7B002B0FD1FEF710FD0346002B04D0B5
:1050300072217868FFF78CF810E07B881946786851
:10504000FFF7AAF80AE0FB7B19467868FFF780F8BB
:1050500004E012217868FFF77BF800BF00BF10372B
:10506000BD4680BD80B584B000AF78600B467B80C4
:105070007B88042B04D013217868FFF769F830E0AF
:105080007B6801331B78012B26D10120FFF7DCF868
:105090000346FB73FB7B002B18D1144B5B7B042B6B
:1050A0000FD1FEF771FC0346002B04D07221786803
:1050B000FFF74EF815E07B8819467868FFF76CF823
:1050C0000FE022217868FFF743F80AE0FB7B1946DE
:1050D0007868FFF73DF804E012217868FFF738F8A8
:1050E00000BF00BF1037BD4680BD00BF30C40220E6
:1050F00080B582B000AF78600B467B807B88042B44
:1051000004D013217868FFF723F81EE07B68013391
:105110001B78012B02D0022B09D011E00D4B01228C
:105120001A707B8819467868FFF736F80DE0094B4E
:1051300000221A707B8819467868FFF72DF804E082
:1051400012217868FFF704F800BF00BF0837BD469A
:1051500080BD00BF5400002080B584B000AF7860EF
:105160000B467B807B88042B04D013217868FEF7E4
:10517000EFFF27E00020FFF767F80346FB73FB7B98
:10518000002B05D0FB7B19467868FEF7E1FF19E09C
:105190007B6801331B78012B0FD1FEF792FB03468E
:1051A000002B04D072217868FEF7D2FF0AE07B88DA
:1051B00019467868FEF7F0FF04E012217868FEF7E0
:1051C000C7FF00BF00BF1037BD4680BD80B584B0AB
:1051D00000AF78600B467B807B88042B04D01321C2
:1051E0007868FEF7B5FF27E00020FFF72DF80346AB
:1051F000FB73FB7B002B05D0FB7B19467868FEF721
:10520000A7FF19E07B6801331B78012B0FD1FEF754
:10521000BBFB0346002B04D072217868FEF798FF91
:105220000AE07B8819467868FEF7B6FF04E0122191
:105230007868FEF78DFF00BF00BF1037BD4680BD08
:1052400080B586B000AF78600B467B807B880B2BE7
:1052500004D813217868FEF77BFF76E07B6804337F
:105260001B781A067B6805331B781B041A447B687D
:1052700006331B781B0213447A68073212781344F2
:105280007B617B6808331B781A067B6809331B78BF
:105290001B041A447B680A331B781B0213447A6888
:1052A0000B32127813443B617A693B691344FB600B
:1052B000F9687869FEF7D0FC0346002B04D1312150
:1052C0007868FEF745FF40E07B6939691846FCF7CE
:1052D00051FCB8607B681A781E4B1B684032D2B212
:1052E0001A707B685A1C1B4B1B68013312781A70AA
:1052F0007B689A1C174B1B68023312781A707B6804
:10530000DA1C144B1B68033312781A70BB681A0E30
:10531000104B1B680433D2B21A70BB681A0C0D4BC9
:105320001B680533D2B21A70BB681A0A094B1B6896
:105330000633D2B21A70074B1B680733BA68D2B271
:105340001A70054B1B6808221A8000BF1837BD462B
:1053500080BD00BF44C4022048C4022080B582B092
:1053600000AF78600B467B807B88042B04D0132130
:105370007868FEF7EDFE1EE07B6801331B78012B99
:1053800002D0022B09D011E00D4B01221A707B884C
:1053900019467868FEF700FF0DE0094B00221A70ED
:1053A0007B8819467868FEF7F7FE04E012217868DA
:1053B000FEF7CEFE00BF00BF0837BD4680BD00BF70
:1053C000AEC2022080B584B000AF78600B467B800F
:1053D0007B88032B04D813217868FEF7B9FE15E10A
:1053E0000023FB737B6801331B785BB2002B0ADA66
:1053F0000123FB737B6801331A787B68013302F069
:105400007F02D2B21A707B6802331B781B027A6863
:105410000332127813434FF60172934242D04FF693
:105420000172934200F3DC8040F2112293422FDCA0
:10543000B3F5007FC0F2D480A3F50073112B00F206
:10544000CF8001A252F823F0B1540008BD540008E7
:10545000DD540008FD5400080955000813550008E4
:10546000B1550008BD550008E1550008E155000898
:10547000E1550008E1550008E1550008E155000834
:10548000E1550008E1550008C9550008D555000848
:10549000B3F57F4F40F0A4807B8819467868FFF70A
:1054A000A7FDA2E07B8819467868FFF7DBFD9CE04A
:1054B0007B8819467868FFF71BFE96E0FEF72AFB0B
:1054C0000346002B05D17B8819467868FEF764FEF9
:1054D0008BE072217868FEF73BFE86E0FEF7D8FA93
:1054E0000346002B05D17B8819467868FEF754FEE9
:1054F0007BE072217868FEF72BFE76E07B88194608
:105500007868FEF749FE70E004217868FEF744FEF3
:105510006BE07B88062B46D17B6804331B781B022B
:105520009BB27A680532127813447B817B8940F6FE
:10553000FB72934204D931217868FEF709FE54E0EA
:105540007B681A78334B1B684032D2B21A70314BE9
:105550001B6801337A6852781A702E4B1B6802332D
:105560007A6892781A702B4B1B6803337A68D2786A
:105570001A700023BB810AE0264B1B68BA890432EB
:105580001344BA89D2B21A70BB890133BB81BA897C
:105590007B89043B9A42EFDB1F4B1B687A890432FC
:1055A00092B21A8021E013217868FEF7D1FD1CE049
:1055B0007B8819467868FFF743FE16E07B8819461A
:1055C0007868FFF7CBFE10E07B8819467868FFF714
:1055D000C3FD0AE07B8819467868FFF7F7FD04E011
:1055E00031217868FEF7B4FD00BF0B4B1B681B88A8
:1055F000002B0BD0FB7B002B08D0064B1B681B78C5
:105600007F2B03D0044B1B6800221A8000BF103789
:10561000BD4680BD44C4022048C4022080B584B089
:1056200000AF78600B467B8013467B707B88022B33
:1056300004D813217868FEF78BFD92E07B68013374
:105640001B78002B04D17B6802331B78442B04D0D9
:1056500031217868FEF77CFD83E07B880B2B04D03A
:1056600013217868FEF774FD7BE00020FEF7ECFD67
:105670000346FB73FB7B002B6DD13C4B5B7B002B0C
:1056800003D03A4B5B7B042B60D17B6803331B78E0
:105690001A067B6804331B781B041A447B680533A5
:1056A0001B781B0213447A680632127813441A4698
:1056B0002E4B1A602D4B00229A602C4B01221A733C
:1056C0007B6807331B781A067B6808331B781B043A
:1056D0001A447B6809331B781B0213447A680A3228
:1056E000127813441A46214B5A60204B18681F4BFE
:1056F0001A681E4B5B6813441946FEF759FA0346B5
:10570000002B1ED0194B5B6803F00703002B03D05E
:1057100070217868FEF71CFD7B681B784033DBB294
:105720003B7220237B720F23BB72F023FB720F4A64
:105730007B78537307F1080304211846FEF7DEFC5B
:105740000FE031217868FEF703FD0AE02421786834
:10575000FEF7FEFC05E0FB7B19467868FEF7F8FCD7
:10576000FFE700BF1037BD4680BD00BF30C4022038
:1057700080B584B000AF78600B467B800A4B1B88F5
:10578000FB81FB89B3F5007F06D17B880122194696
:105790007868FFF743FF03E011217868FEF7D8FC33
:1057A00000BF1037BD4680BDE005FA0B80B582B062
:1057B00000AF78600B467B807B88022219467868B0
:1057C000FFF72CFF00BF0837BD4680BD2DE9B04F65
:1057D0008CB000AF78600B467B807B88012B04D8AF
:1057E00013217868FEF7B4FC2CE1994B5B7B012B0D
:1057F00040F0C0807B88023B7B84002387F82F30F9
:105800007B8C03F007039BB2002B40F0AE80904BE3
:105810009A687B8C1A448E4B5B689A4200F2A58092
:105820007B6801331A788A4B1B7B9A4240F0988040
:10583000874B1B7B0133DAB2854B1A7304F0B2FD40
:105840000023BB6264E0BB6A09337A6813441B78A7
:105850001A06BB6A083379680B441B781B041A4488
:10586000BB6A073379680B441B781B021344BA6A7E
:10587000063279680A4412781344FB61BB6A053327
:105880007A6813441B781A06BB6A043379680B44A0
:105890001B781B041A44BB6A033379680B441B78DA
:1058A0001B021344BA6A023279680A44127813441C
:1058B000BB61FB6900229A4693464FF000024FF00D
:1058C000000353460022B96900200C46054612EB3E
:1058D000040843EB0509C7E904895D4B1A685C4B72
:1058E0009B68134403F58021D7E904230846FEF79B
:1058F00046F903461A4697F82F30134387F82F309E
:10590000534B9B680833524A9360BB6A0833BB62AF
:105910007B8CBA6A9A4296D304F066FD4C4B9A6827
:105920004B4B5B689A4202D3494B03225A7397F858
:105930002F30002B0FD17B681B784033DBB23B73D9
:105940007B6801331B787B7307F10C030221184637
:10595000FEF7D4FB76E072217868FEF7F9FB71E080
:1059600073217868FEF7F4FB6CE071217868FEF72C
:10597000EFFB67E0364B5B7B022B5ED17B88022B13
:1059800056D17B6801331A78314B1B7B9A424AD13E
:105990002F4B1B7B0133DAB22D4B1A730023FB8490
:1059A0007B681A782B4B1B684032D2B21A707B6826
:1059B0005A1C284B1B68013312781A700023BB84D1
:1059C00017E0234B1A68224B9B6813441946214B5E
:1059D0001B68BA8C023213440A781A701C4B9B68FD
:1059E00001331B4A9360FB8C0133FB84BB8C013376
:1059F000BB84BB8CB3F57F6F05D2154B9A68144BF3
:105A00005B689A42DDD3144B1B68FA8C023292B267
:105A10001A800F4B9A680E4B5B689A4212D30C4B5C
:105A200003225A730EE073217868FEF791FB09E0B8
:105A300071217868FEF78CFB04E024217868FEF77A
:105A400087FBFFE700BF3037BD46BDE8B08F00BF22
:105A500030C4022044C4022048C4022080B582B071
:105A600000AF78600B467B807B88012B04D013212C
:105A70007868FEF76DFB10E00A4B5B7B032B08D1C7
:105A8000084B04225A737B8819467868FEF784FB1A
:105A900003E024217868FEF75BFB00BF0837BD46B2
:105AA00080BD00BF30C4022080B582B000AF7860F6
:105AB0000B467B8011217868FEF74AFB00BF083750
:105AC000BD4680BD2DE9F04FA3B000AFF8660B4690
:105AD000A7F86A30B7F86A30012B04D81321F86EA2
