:020000040800F2
:100000000000042015530008915100089551000884
:10001000995100089D510008A1510008655300083E
:10002000000000000000000000000000C1F5000812
:10003000A55100080000000051F50008EDD10008AE
:1000400065530008655300086553000865530008B0
:1000500065530008655300086553000865530008A0
:100060006553000865530008655300086553000890
:100070006553000865530008655300086553000880
:100080006553000865530008655300086553000870
:100090006553000865530008655300086553000860
:1000A0006553000865530008655300086553000850
:1000B00065530008A9510008B551000865530008B0
:1000C0006553000865530008655300086553000830
:1000D000655300086553000865530008C1510008C6
:1000E000CD51000865530008D95100086553000838
:1000F0006553000865530008655300086553000800
:1001000065530008E5510008F151000865530008E7
:1001100065530008655300086553000865530008DF
:1001200065530008FD510008095200086553000896
:100130001552000865530008655300086553000810
:1001400065530008655300082152000865530008F4
:10015000655300086553000865530008655300089F
:10016000655300082D5200086553000865530008C8
:1001700065530008000000006553000800000000FF
:10018000395200086553000865530008655300089C
:10019000655300086553000865530008655300085F
:1001A000655300086553000865530008655300084F
:1001B0006553000800000000455200086553000820
:1001C00065530008000000006553000865530008EF
:1001D000655300086553000865530008655300081F
:1001E000655300086553000865530008655300080F
:0401F000000000000B
:1002000010B5054C237833B9044B13B10448AFF350
:1002100000800123237010BD400303200000000074
:1002200054FB000808B5034B1BB103490348AFF367
:10023000008008BD000000004403032054FB0008B8
:1002400010F8012B11F8013B012A28BF9A42F7D080
:10025000D01A7047034613F8012B002AFBD1181A55
:1002600001387047704700BF01F018BD2DE9F0411B
:100270002E4C2F4EDFF8C0802E4F9AB04FF0FF3338
:100280002822694620680DF0DBFD2828F6D1039866
:1002900004F03CFB054600283FD1029BD3B9294618
:1002A0000AAA009801F010FD0EF0C2F80AA9024651
:1002B000684601F0E1FE0EF0BBF80AA90246684666
:1002C00001F07EFB0EF0B4F80AA90246684601F080
:1002D000D3FCD3E7B3F1005FEDD140F20373009D8F
:1002E0009D42E8D1082203994FF0000E91420B463F
:1002F00028BF13469C46019B41463846C6E905EE99
:10030000C6E90053C6F808E0C6F80CC004F00AFBC2
:100310003946304601F0CCF9CDE74FF0FF332A469D
:1003200020680AA90DF08CFDB7E700BF98280320CC
:1003300070030320640303209005FA0B2DE9F041BC
:100340001F4DDFF884801F4F9AB0002404EBC401D6
:1003500001AEC4F124024FF0FF33286806EB81019F
:100360000DF06EFD0444232CF0D9049804F0CEFA6D
:10037000039B0646B3F1005F00D0A0B9384606F0F3
:10038000A7FA50B138460AAA01A906F065F9D8F8CB
:100390000C300133C8F80C30D7E74FF0FF310120A3
:1003A0000EF000FCEAE700240AA9321B21444FF0BA
:1003B000FF3328680DF044FD0444A642F4D8DDE77D
:1003C00094280320382703200000032000B583B0C1
:1003D00001F074FC01F036F803221B491B4805F0BC
:1003E000C9FB02F033FD00F019FE02F04BFD0EF0E8
:1003F0001FF801F0DFFA0EF01BF801F037FC14488B
:100400000AF048F913480AF00DF9134C0EF010F8F1
:10041000019002F01DFD019802F03AFD019800F0F4
:1004200015FE23782BB9019801F0A2FD019801F087
:1004300047FB019801F022FC019801F011FE0A210E
:1004400001A80EF057F9E1E7102A0320282803201D
:1004500070240320D8230320760003202DE9F043E5
:100460004FF00008204C214EDFF88890204FA5B0B7
:1004700011E00EF085FF99F8003033B1099B23B1EC
:1004800064200CF035FF00F0DDFF00230222194646
:1004900038680EF0FDFB4FF0FF3101200EF082FBBB
:1004A0000EF060FF204606F069FB054604A92046D1
:1004B00006F0D4F96946204606F0F8F95422314690
:1004C0000FA8B5600FF0EEFAC4F86080169BB3F584
:1004D000003FCED9B3689B02CBD5012386F82030EC
:1004E000099301F073F8C4E73827032000000320C4
:1004F000F81B03206003032000232DE9F04F85B093
:100500007D4E7E4FDFF8FC91DFF800B27C4DDFF8C6
:1005100000A20DF10E088DF80B3012E028680DF0E6
:10052000B7FB012808D94FF0FF330222286803A93E
:100530000DF086FC022846D04FF0FF3100200EF06F
:1005400031FB30680DF0A4FB0028E7D04FF0FF33FB
:10055000012230680DF10B010DF072FC0128DDD194
:1005600030680DF095FB0128D8D94FF0FF330222F7
:10057000306803A90DF064FC0228CFD1BDF80C202F
:10058000B2F5805FCAD2002A40F0A6809DF80B40E9
:10059000002C53D10DF04CFF5A4B5849BDF80C209C
:1005A000CDF8008003F072F9BDF80E30002B7AD13F
:1005B0000DF03EFF534B5149BDF80C20CDF80080A3
:1005C00004F072F9AAE7BDF80C20B2F5805FB3D24F
:1005D0006AB10024121B39194FF0FF3328680DF05F
:1005E0002FFCBDF80C20204484B2A242F2D10DF0C1
:1005F0001FFF4B463946BDF80C20CDF8008004F0B3
:100600001BFABDF80E30002B96D041464FF0FF3359
:100610000222DAF800000DF049FB4946BDF80E2031
:100620004FF0FF33DAF800000DF040FB0023022208
:100630001946DBF800000EF02BFB7DE70DF0F8FE0D
:10064000304B2E49BDF80C20CDF8008004F0C8F8DE
:10065000BDF80E30002BABD099F800207F2A09D1CD
:10066000022BA5D999F80230A3F11102012A9FD9D2
:10067000312B9DD02448414604464FF0FF330222DF
:1006800000680DF013FBBDF80E204FF0FF331D493D
:1006900020680DF00BFB002302221946DBF8000056
:1006A0000EF0F6FA84E7184841464FF0FF33022275
:1006B00000680DF0FBFA1448BDF80E204FF0FF3330
:1006C000104900680DF0F2FA234602222146DBF8B9
:1006D00000000EF0DDFA6BE70024121B4FF0FF3331
:1006E000391930680DF0ACFBBDF80C2023189CB212
:1006F000A242F2D14AE700BFA4030320508F012099
:1007000098030320507F0120A00303203809032011
:10071000940303202DE9F04F404F414E414DDFF847
:100720000CA185B007F11C0907F5805B07F11408DF
:1007300013E028680DF0ACFA012809D94FF0FF3317
:10074000022228680DF106010DF07AFB022843D041
:100750004FF0FF3100200EF025FA30680DF098FAC6
:100760000128E6D94FF0FF330222414630680DF0F0
:1007700067FB0228DDD1BA8AB2F5805FD9D26AB1AF
:100780000024121B09EB04014FF0FF3330680DF019
:1007900057FBBA8A204484B2A242F2D10DF048FE3F
:1007A0000146214801F012FF0028C2D103E09BF866
:1007B00023000CF09DFD0DF03BFE02F0C9FF012867
:1007C000B7D030680DF064FA0128B2D89AF800303A
:1007D000002BECD10A20ECE7BDF80620082AB7D898
:1007E00072B1002402A9121B21444FF0FF33286884
:1007F0000DF026FBBDF80620204484B2A242F1D1C0
:100800000DF016FEBDF8062002A904F0CFF801286D
:100810009ED00A200CF06CFDF2E700BF54AF01201F
:10082000A003032094030320549F0120760003209B
:1008300001F038BA01F03ABA002001F03BBA00BF2B
:100840000022024B02481A6009F024BF5C03032017
:1008500024240320014B1868704700BF5C03032069
:1008600030B59FB0482200210CA80FF087F8002374
:100870004FF40070CDE90233CDE90433CDE90733FD
:10088000CDE90933019306930B9308F009F908B1F8
:1008900072B6FEE701230222169311931993179261
:1008A00010231D9207229FED1E7BCDE91A320324EF
:1008B000042312900CA81C938DED0C7B189408F067
:1008C00029FB034608B172B6FEE70F22214601A8B4
:1008D000CDE9033305930294019208F0C9F9034668
:1008E00008B172B6FEE7104A4FF00055916D4BF615
:1008F0007F3441F080719165926D069302F08072B1
:10090000009208932222202306A8CDE90A23009909
:100910000795099409F05CFA1FB030BDAFF3008071
:10092000290000000000010000100240F0B593B063
:1009300072B64FF00062A54B9A60BFF34F8F62B65C
:10094000002504F011FDFFF78BFFCDE90C55CDE933
:100950000E559F4C1095E36C4FF4604143F0040337
:10096000E364E36C2A4603F004030593059BE36C00
:10097000984843F08003E364E36C012603F08003AE
:100980000693069BE36C082743F00103E364E36CE2
:1009900003F001030793079BE36C43F00203E36456
:1009A000E36C03F002030893089B06F085FD2A46DA
:1009B00040F20111884806F07FFD2A4641F2E40129
:1009C000864806F079FD4FF4604382480CA9CDE9D2
:1009D0000C360E950F9506F0B7FB40F201137E48DA
:1009E0000CA9CDE90C36CDE90E5506F0ADFB41F270
:1009F000E4037A480CA9CDE90C36CDE90E5506F092
:100A0000A3FB77480CA9CDE90C750E9506F09CFB6D
:100A1000A36C052143F00403A364A36C2A4603F0EE
:100A200004030293029BA36C1D203343A364A36CB5
:100A300033400393039BA36C43F00203A364A36CB2
:100A400003F002030493049B05F08AF91D2005F0CE
:100A5000C3F92A4605211E2005F082F91E2005F063
:100A6000BBF92A460521502005F07AF9502005F0FF
:100A7000B3F9284607F09EF808B172B6FEE707F012
:100A8000ADF8034640B957484360574B036009F03F
:100A9000C7F918B172B6FEE772B6FEE710224FF43E
:100AA0004071524B04251870514B99609A619A62BB
:100AB0003C211322C3E907120F22DA624D4A586023
:100AC000D8609874D8631846C3E90D661E825E61CB
:100AD0005E621A601D6305F015FC0346E8B9072243
:100AE0004FF4827C4FF400714FF4E0644248C0E957
:100AF0000433C0E90833C0E90A32836003633F4B23
:100B0000C76103604763C0F804C0C460816109F035
:100B1000B3FB034618B172B6FEE772B6FEE7CDE945
:100B20000C00CDE90E00CDE91000CDE90A000990D6
:100B30004FF480704FF4301703214FF48052304C43
:100B4000C4E9023384F82030A362E36284F83830C9
:100B50002C4B20832046266184F8306065616760F5
:100B6000E1616263236004F023FC08B172B6FEE722
:100B7000099009A9204605F07BF808B172B6FEE796
:100B800006237F220D93204B0E9011900CA9204636
:100B900010950F920C9304F035FD08B172B6FEE784
:100BA0000C231A4A20460CA90C920D9304F02AFD3E
:100BB00008B172B6FEE71223154A20460CA90C9222
:100BC0000D9304F01FFD28B372B6FEE700ED00E0C0
:100BD00000100240000802420000024200040242EB
:100BE000001C02423C26032000080C426003032044
:100BF0003827032000A40040D825032000380040F7
:100C00002828032000800242400020190002B0255D
:100C10000004002A002301225148C0E905338380E3
:100C2000504B0262036005F009F9034608B172B641
:100C3000FEE74D484D4AC37202604FF40273022230
:100C40008380C0F8072006F0D3FF08B172B6FEE734
:100C500041F63F75464C474ACDE90C00C4E9010016
:100C60000E90A06120462260E56009F027FF034650
:100C700008B172B6FEE720460CA90C930E9309F05A
:100C80004FFF034608B172B6FEE73B4CCDE90C338B
:100C90000E93A360A36142F20F73384A2046C4E961
:100CA0000023E56009F00AFF034608B172B6FEE7CB
:100CB00020460CA90C930E9309F032FF034608B1AD
:100CC00072B6FEE74F254FF6FF742D482D4AC0E956
:100CD00004338360836102604560C46009F0EEFE06
:100CE000034608B172B6FEE72748C0E90153C0E9E0
:100CF0000343C0E90533254B036009F0DFFE08B16B
:100D000072B6FEE74FF080414FF0FF32204CCDE944
:100D10000C00CDE90E00CDE90900C4E901000B90FB
:100D20002061A06120462160E26009F0C7FE08B1A1
:100D300072B6FEE74FF4805320460CA90C9309F0DD
:100D4000E7FC08B172B6FEE70023114809A9099330
:100D50000B9309F0E5FE0446E0B172B6FEE700BF72
:100D60009C27032000300240B020032000D4004024
:100D700024240320001400407024032000100040AD
:100D8000D8230320004401408C2303200048014065
:100D9000BC2403205C48224601215C4B009046F2B3
:100DA00006000CF021FF0246594D5A4E00950121D4
:100DB000594B326046F2060022460CF015FF574BA5
:100DC000574A0121009218602246564B4FF47A6030
:100DD0000CF00AFF544D554B224600930121544B11
:100DE00028604FF47A600CF0FFFE524B22460093CD
:100DF000514B01211860514B4FF4A0400CF0F4FE10
:100E00004F4B224600934F4B012118604E4B4FF43D
:100E1000A0400CF0E9FE4D4B4D4918604D4802F0E2
:100E2000C7F801F0D3F90DF003FB32464A4B4B49AA
:100E3000009501F0FBF84A4802F0F6F8494800F046
:100E40006BFD4948494A4A4900F0E2FA0CA80C9463
:100E500001F0B2F920B90C9B13B9464801F084F9AE
:100E60000CF0D2F90021444A44480CF0F9F9044648
:100E7000434B0021434A44481C600CF0F1F90446FE
:100E8000424B0021424A43481C600CF0E9F90446F9
:100E9000374B0021404A41481C600CF0E1F9044600
:100EA0002B4B00213E4A3F481C600CF0D9F9044608
:100EB0002E4B00213C4A3D481C600CF0D1F9044601
:100EC000264B00213A4A3B481C600CF0C9F9044605
:100ED000394B0021394A3A481C600CF0C1F90446EC
:100EE000384B0021384A39481C600CF0B9F90446E7
:100EF000374B0021374A38481C600CF0B1F9374BAA
:100F000018600CF093F9FEE75C040320481F0120F1
:100F100038040320A403032040BF0020A0030320C3
:100F200014040320A0AF002098030320F003032043
:100F300000A00020CC0303209403032000500020D5
:100F4000A8030320982803200000002094280320F1
:100F500048170320D82503209C030320E80D032015
:100F60003C2603209C2703203827032098120320C7
:100F7000F81B032004009180BCFE000869020008F1
:100F8000AC20032098FE00086D020008A820032072
:100F900074FE00083D03000850FE0008CD03000861
:100FA0002CFE00085D04000808FE0008F904000893
:100FB000E4FD00081507000838090320C0FD0008FB
:100FC00031080008880403209CFD0008350800084B
:100FD0008404032078FD00083908000880040320F9
:100FE000094A0368934206D0084A93420AD0084A45
:100FF000934205D07047074A136801331360704766
:1010000000F044BE04F0C2B900140040002C0140BE
:10101000001000405C03032072B6FEE7024B034859
:10102000DB8B037001F0E6BF5400032091280320FE
:10103000054AD38B9BB211B10343D383704723EA94
:101040000003D383704700BF5400032038B5124D0E
:101050000446A88B1149C0B200F036F9E88B10495C
:10106000C0B200F04DF940F6B7330E4AE98B9C420E
:1010700011700D4B01D8197831B101221A7009484D
:10108000BDE8384001F0B6BFFF2313700548BDE846
:10109000384001F0AFBF00BF5400032060010320BF
:1010A000E800032091280320902803208446002391
:1010B00010B50C4682B00DF1060002226146ADF873
:1010C000063003F02FFC012C8CBFBDF806009DF804
:1010D000060040BA80B202B010BD00BF84460023B3
:1010E00010B50C4682B00DF1060002226146ADF843
:1010F000063003F017FC012C8CBFBDF806009DF8EC
:10110000060040BA80B202B010BD00BF8446002382
:1011100010B50C4682B00DF1060002226146ADF812
:10112000063003F0FFFB012C8CBFBDF806009DF8D4
:10113000060040BA80B202B010BD00BF8446002352
:1011400010B50C4682B00DF1060002226146ADF8E2
:10115000063003F0E7FB012C8CBFBDF806009DF8BC
:10116000060040BA80B202B010BD00BF8446002322
:1011700010B50C4682B00DF1060002226146ADF8B2
:10118000063003F0CFFB012C8CBFBDF806009DF8A4
:10119000060040BA80B202B010BD00BF84460023F2
:1011A00010B50C4682B00DF1060002226146ADF882
:1011B000063003F0B7FB012C8CBFBDF806009DF88C
:1011C000060040BA80B202B010BD00BF84460023C2
:1011D00010B50C4682B00DF1060002226146ADF852
:1011E000063003F09FFB012C8CBFBDF806009DF874
:1011F000060040BA80B202B010BD00BF0078704750
:10120000002300B5012983B0ADF8063003D8184695
:1012100003B05DF804FB014602220DF1060003F065
:1012200081FB9DF8060003B05DF804FB002300B5C8
:10123000012983B0ADF8063003D8184603B05DF835
:1012400004FB014602220DF1060003F06BFBBDF822
:101250000600000A03B05DF804FB00BF0078704789
:10126000007870478446002310B50C4682B00DF11B
:10127000060002226146ADF8063003F053FB012C54
:101280008CBFBDF806009DF8060040BA80B202B0DF
:1012900010BD00BF8446002310B50C4682B00DF18E
:1012A000060002226146ADF8063003F03BFB012C3C
:1012B0008CBFBDF806009DF8060040BA80B202B0AF
:1012C00010BD00BF00787047087070470078704705
:1012D0008446002310B50C4682B00DF106000222B0
:1012E0006146ADF8063003F01DFB012C8CBFBDF844
:1012F00006009DF8060040BA80B202B010BD00BFE3
:1013000008707047007870472DE9F04F3C4B8346DA
:10131000984283B007D83B4B984269D94FF02809CF
:101320004FF4487E0BE04FF0250940F2EE2E364B8D
:10133000B3FBFBFC5FFA8CFCBCF1190F5DD90120FB
:10134000314B013080B2B3FBF0FCBCFBFBFC5FFA1D
:101350008CFCBCF1190FF4D8B0F5806F42D2012398
:101360006FF000444FF47A765A460093274B1F687B
:10137000431C1FFA83FAACF10208B8EB5C0F4FEA8A
:101380005C0120DD0CF1FF3B5FFA8BFBCDF804A084
:1013900006FB01F5B5FBFCF5BEEB050A48BFA5EB66
:1013A0000E0AA2450ADAD14508DB0025544600950D
:1013B000ABEB0105EDB2F96178613D620131414568
:1013C000E6DBDDF804A0104998B2B1FBFAFCBCFBE7
:1013D000F2FCB0F5806F0AF1010A5FFA8CFC03D0D1
:1013E000431CC8E701230093009803B0BDE8F08FC9
:1013F0004FF02B0940F26B3E99E70120AFE700BFA9
:1014000000350C0020A10700005A62028C2903203D
:1014100038B50C46064D0749074B0A602860074956
:1014200001201C600CF064F9054B186038BD00BF4A
:101430008C29032084290320882903209C28032049
:10144000EC2803202DE9F041584E82B0306805F0B9
:10145000EDF8306804F056FF002840F08780002245
:10146000534D402153482A71EA602A616A61AA619A
:10147000AA60EA6185F8202006F01EF8306805F0C1
:10148000D5F80D2201233068C0E90D2304F03AFF9E
:10149000002840F0888000240222012340F2FF71DE
:1014A000C5E90B23444FDFF82081A9636C6202E099
:1014B00001340D2C0ED037F8023B41463068AC6247
:1014C0006B6305F009F80028F2D00134FFF7A4FDA2
:1014D0000D2CF0D102234FF08042002001216B64DB
:1014E0006FF06043C5E90F20344A3068C5E9121235
:1014F00033492B6504F0F0FF08B1FFF78DFD0023A1
:10150000022230681146009305F012F8002847D1F6
:10151000306805F02FF800283FD100220121306803
:1015200005F0DCF9B0BB00220621306805F0D6F9E1
:1015300068BB07224FF4F051306805F0CFF918BBB3
:1015400007228021306805F0C9F9D0B900221D4971
:10155000306805F0C3F988B900224FF46021306883
:1015600005F0BCF928B902B0BDE8F081FFF754FDE1
:1015700075E702B0BDE8F041FFF74EBDFFF74CFD47
:10158000EAE7FFF749FDE1E7FFF746FDD8E7FFF798
:1015900043FDCEE7FFF740FDC5E7FFF73DFDBCE7A4
:1015A000FFF73AFDB4E7FFF737FD74E78C29032016
:1015B0000000032000040242E0FE0008FECA77009B
:1015C0003C0003200040710024000320014B1868F8
:1015D00005F02CB88C290320082824D8DFE800F077
:1015E000080C1014171A1D2005001448FFF78CBEB4
:1015F00042F21070FFF788BE44F62060FFF784BE09
:101600004CF25030FFF780BE0D48FFF77DBE0D480D
:10161000FFF77ABE0C48FFF777BE0C48FFF774BEA1
:101620000B48FFF771BE0B4AA0F51C53103B9342C9
:1016300001D901207047FFF767BE00BF40420F008D
:10164000A086010048E8010090D0030020A1070017
:1016500000350C00301B0F000346054A19780020A6
:1016600051615978D16199781162DB789361704743
:10167000382703200246024B00209A61704700BFC2
:1016800038270320034600B5074A93F801E093F892
:1016900000C082F810E005499B7881F800C05374BF
:1016A00000205DF804FB00BF3827032060030320FF
:1016B0002DE9F0470546C0680F4603F027F9AB68EF
:1016C000B3F1005F3CD00646824600F12409254C68
:1016D0004FF0FF3120680CF015F90128F8D1DFF840
:1016E0009080D8F800000CF0C3FA484515D20225C6
:1016F0001D4A13792B431371002320681A4619469B
:101700000BF05AFF0023194902220968086819469C
:101710000DF0BEFA2846BDE8F08729464FF0FF33AA
:101720002422D8F800000CF0C1FA054686B94D45D0
:101730000CD00D4A0125137943F008031371DBE740
:101740004FF0000A4FF024095646C0E70025D3E7C2
:10175000524639464FF0FF33D8F800000CF0A6FA95
:101760000544E4E7EC280320000003208829032037
:101770009428032000232DE9F0430C4683B0C907C9
:101780000546019316D4A20707D502212D4A1379E5
:1017900043F0010313712B681965630735D4019B6E
:1017A0002BB14FF0E0234FF08052C3F8042D03B06B
:1017B000BDE8F083DFF89880224F42464021224B5B
:1017C00004F0ACFF7B69D8F80C0001337B6103F0B7
:1017D0009DF8DFF880900646D9F800000CF048FA32
:1017E00006F12803984223D341462822D9F8000065
:1017F00001AB0CF0DFFA002EC5D03246D9F800005C
:10180000114901AB0CF0D6FABDE704240D4B0F498A
:101810009A69096801329A611A7942F008021A71CC
:101820002B6808680DEB04011C650DF01BFBB6E787
:10183000064ABB6912680133106801A9BB610DF04B
:1018400011FBA0E700000320442903208429032082
:101850001C2903209828032010B500240A4A0B49AC
:101860001369096882B00868013301A91361019402
:101870000DF0F8FA019B2BB14FF0E0234FF08052AE
:10188000C3F8042D02B010BD0000032088290320F6
:1018900010B500240A4A0B49D369096882B0086868
:1018A000013301A9D36101940DF0DCFA019B2BB146
:1018B0004FF0E0234FF08052C3F8042D02B010BD6A
:1018C000000003208429032038B50C46104D29461A
:1018D00004F0C4FFA10303D5EB68A3B90D4A13605C
:1018E000620309D52B690B4A012B13790CBF43F016
:1018F000040303F0FB031371230303D50122054BFB
:1019000083F8202038BD4FF00042024B1A60E7E711
:10191000F028032000000320704700BF91B14FF072
:10192000FF3210B4084C014410F8013B5340DBB2C5
:1019300054F82330884283EA1222F5D1D0435DF86F
:10194000044B704708467047FCFE00082DE9F0473D
:101950000024164F884638600846C7E90544C7E9A1
:10196000014402F0EBFFF8B18146114E13E08246CC
:10197000054602F0D1FF034608EB0401524630460B
:101980002544FB60ACB202F0CDFF31460748FFF7BB
:101990008FFEA14508D9A9EB04000828C0B2E6D9FA
:1019A00008252846AA46E4E7BDE8F087D0290320A9
:1019B000C42903200022014B1A607047F429032038
:1019C000836870B504460E4605683BB1B3F1005F0D
:1019D00003D140F272739D421CD070BD40F2564359
:1019E0009D422A4650D040F257439D423BD02C4B5B
:1019F0009A421AD0A368002BEFD12568B5F58B6FFA
:101A0000EBD1E368002BE8D10121264A264811706A
:101A1000036070BD40F272702449FFF797FF25689C
:101A2000A3682A46002BDED0D7E73378502BD4D1D9
:101A30007378342BD1D1B378242BCED1F378242BE7
:101A4000CBD13379572BC8D17379302BC5D1B3792A
:101A5000522BC2D1F379442BBFD140F27370144999
:101A6000FFF774FFC6E70822304612490DF076FFF3
:101A70000028C3D140F271700F49FFF767FFA368D8
:101A80002268002BB3D070BD4FF4EE600B49FFF716
:101A90005DFFA3682568B3F1005F2A4699D0C1E7CE
:101AA000FECA770096290320F429032028FC0008A9
:101AB00060FC000840FC00084CFC000810FC00081A
:101AC0005C4B1B78ABB12DE9F0475B4F5B4A3B6841
:101AD0005B4903FB02F2B1EB720F37D2594A5A4904
:101AE00003FB02F2B1EBB20F04D201333B60BDE85D
:101AF000F0877047002340F2F2600021534D544EAE
:101B0000A946C5E90001C5E90533DFF84C813488F1
:101B1000DFF854A1AB60002C7CD1012002F0FCFE68
:101B200088F80040E86041464846FFF7C1FD348828
:101B30000134A4B2982C4FEAD40234805FD9002239
:101B40003B68328001333B60BDE8F08700234FF4EF
:101B5000DE6000213F4E3D4DB6F80080C5E9000132
:101B6000C5E90533AB60B8F1000F5CD1022002F08B
:101B7000D3FE394CE86084F8018032883748531C22
:101B80009BB2812B28BF0023D143D2083380835CD2
:101B900001F00702134103F001032F492B48237082
:101BA000FFF786FD002040F2F16200232C4EC5E9CC
:101BB0000023B6F80080C5E90500A860B8F1000F61
:101BC0002DD1012002F0A8FE84F80080E860328860
:101BD0002448531C9BB2912B28BF0023D143D20829
:101BE0003380835C01F0070213415B0703F000536D
:101BF00019491648AB60FFF75BFD3B686EE7E343AE
:101C00001AF8022003F0070342FA03F3DB0782D439
:101C10003B686AE7002002F07FFEE86083E702F09D
:101C20007BFEE860D3E7012002F076FE0A4CE86014
:101C3000A3E700BF96290320F4290320CDCCCCCC08
:101C400099999919295C8FC2285C8F02A0290320D9
:101C50009029032094290320982903207CFC000864
:101C60009229032090FC0008A4FC00080022014BEC
:101C70001A607047FC290320704700BF024A1368AE
:101C800001331360704700BFFC290320024A136828
:101C900001331360704700BFF829032000200CF0C7
:101CA00005BB00BF00200CF001BB00BF00200CF002
:101CB000FDBA00BF00200CF0F9BA00BF0022014BB2
:101CC0001A7070477600032000294AD030B5772873
:101CD0000C4683B02DD8572800F284801A2800F0D3
:101CE0003981A0F124031F2B39D81F2B37D8DFE807
:101CF00013F00D013600360036003600360036008F
:101D00003600360036003600060136003600360052
:101D1000360036003600360036003600FF0036004A
:101D20003600360036003600360036003600360003
:101D3000F800B0F5EA7F12D2B0F5DC7F12D2B0F530
:101D4000A87F00F00D8100F2FA80982800F09280C0
:101D5000A22804D11046FFF783FA844BD87503B04C
:101D600030BD7047A0F5DC731B2BF8D801A151F8EA
:101D700023F000BF811E00085F1D00085F1D0008E2
:101D80009D1E00085F1D00085F1D00085F1D000804
:101D90005F1D00085F1D00085F1D00085F1D000833
:101DA0005F1D00085F1D00085F1D00085F1D000823
:101DB0005F1D00085F1D00088F1E00085F1D0008E2
:101DC0005F1D00085F1D00085F1D00085F1D000803
:101DD0005F1D00085F1D00085F1D00085F1D0008F3
:101DE000AB1E0008A0F158031F2BB8D801A151F871
:101DF00023F000BFB91E00085F1D00085F1D00082A
:101E00005F1D00085F1D00085F1D00085F1D0008C2
:101E10005F1D00085F1D00085F1D0008D51E00083B
:101E20005F1D00085F1D00085F1D00085F1D0008A2
:101E30005F1D00085F1D00085F1D00085F1D000892
:101E40005F1D00085F1D0008C71E00085F1D000819
:101E50005F1D00085F1D00085F1D00085F1D000872
:101E60005F1D00085F1D00085F1D00085F1D000862
:101E70001B1F00081046FFF7F1F93C4B98756EE701
:101E800021461046FFF722FA384B988367E7214630
:101E90001046FFF7FFF9354B588260E721461046A0
:101EA000FFF730FA314BD88359E721461046FFF748
:101EB00009FA2E4B188252E721461046FFF76EF9B9
:101EC0002A4B58814BE721461046FFF797F9274BDD
:101ED000D88144E721461046FFF778F9234B188153
:101EE0003DE721461046FFF741F9204B988236E73F
:101EF00021461046FFF722F91C4B98802FE7214618
:101F00001046FFF703F9194BD88028E72146104601
:101F1000FFF7E4F8154B188021E72146104601929F
:101F2000FFF76EF9114D012C28733FF418AF019A99
:101F300021461046FFF77AF985F820000FE740F2B6
:101F4000A71398427FF40BAF1046FFF78BF9074BAE
:101F5000588304E71046FFF7A9F8044B5880FEE6C3
:101F60001046FFF7B5F9014B1883F8E6540003203B
:101F70002B4B1B7893B92DE9F0410546294E82B0D1
:101F800006F1080756F8044BE36E626EEB1A9342B3
:101F900005D2B742F6D102B0BDE8F0817047B4F97E
:101FA000723004EBE300002B00F1240026DAB4F9D0
:101FB000743004F12408002B4FEAE3010BDA1A4BCA
:101FC00041461B6820462361FFF772FBA36EE5665E
:101FD0000133A366DDE74046FFF7A0FC0422019031
:101FE000B4F974000DEB02010028B8BF0730C0102F
:101FF000243004FA80F002F095FCE0E7B4F8683091
:1020000001A95BBA0222ADF8043002F08BFCB4F9EE
:10201000743004F12408002B4FEAE301CFDBDAE748
:1020200076000320FC0201080000032038B50446B6
:10203000084B094D1A60094B049A29601A6000F098
:1020400049F8204601F038FB204602F08FFC0020C2
:1020500038BD00BF042A0320082A0320002A0320D9
:1020600038B5054601F048FB0446284602F08AFCD4
:102070002043C0B238BD00BF134B70B51B68044687
:102080000D46164601F06EFB012809D00F4B324673
:10209000294620461B6802F09FFC012809D070BD2C
:1020A00000230B4A19461268106802220CF0F0FD5A
:1020B000ECE70023BDE87040054902220968086882
:1020C00019460CF0E5BD00BF042A0320002A0320B6
:1020D000082A032000B583B0102001A900F0A2F85F
:1020E00010B903B05DF804FB0021102000F082F865
:1020F000003818BF012003B05DF804FB00B583B0C1
:10210000102001A900F08EF828B90146019830B9D5
:1021100003B05DF804FB012003B05DF804FB102060
:1021200000F068F8003818BF012003B05DF804FB28
:1021300070B5002682B004460D46102001A9019614
:1021400000F070F810B9019BA34202D8012002B040
:1021500070BD04F11100294680B200F063F8801BC5
:1021600018BF012002B070BD002210B5114B82B023
:102170001B78019213B9184602B010BD044601A99C
:10218000102000F04FF840B901981130FF2804D812
:10219000214680B200F02EF818B10123184602B093
:1021A00010BD01991020013100F024F8031E18BF62
:1021B0000123E0E777000320014608B5102000F076
:1021C00031F8003818BF012008BD00BF10B504F079
:1021D000D7FC00200AF0CEF8044618B904F0E4FC5D
:1021E000204610BD002009F097FC04F0DDFC2046DD
:1021F00010BD00BF38B504460D4604F0C1FC2046B2
:1022000029460AF071FBC305044603D404F0CCFC54
:10221000204638BD09F05AFD0443A4B204F0C4FCC2
:10222000204638BD09F0B2BEF8B54FF48056002400
:102230000F46054683190470C0F802400473846099
:102240001C74C3F812409C61DC8100F500533246D7
:102250002146C3E907445F620D300DF08FFBA819DA
:1022600032462146BDE8F8401C300DF087BB00BF68
:10227000F0B5044683B0836031B3157894462B09DA
:10228000032B21D8DFE803F0253A600205F00F05A3
:1022900000F50056012986F8215000F0AB809CF82B
:1022A0000130022986F8223000F0A7809CF8023025
:1022B00086F82330002D00F0AC80012D00F09F80C7
:1022C000032204F580531A74237B012B73D003B0CF
:1022D000F0BD03780BB1002303706B1E062BF3D8FF
:1022E00001398D42F0D82A460CF1010104F10D00AC
:1022F00002F018FB022365802370E5E703780BB139
:10230000002303700729DFD99CF800309CF80120D6
:102310001B0203F470631343072BA380D4DD062252
:102320000CF1020104F10D0002F0FCFA012200217F
:10233000062004F5005622706080B17704F58051C4
:10234000CA813023F27F3CE00378012BBCD100F539
:102350008057FA8905F00F0502F00F039D4246D120
:102360004088A3881B1A9BB2072B5BD90829ABD1E5
:102370000132FA814B1EDDB20D302A460CF101010B
:10238000204402F0CFFA6388A2882B449BB29A4281
:1023900063804FD004F50056F27F002A94D0FB8969
:1023A000013B93FBF2F102FB1133002B8CD1B37F85
:1023B00043F0300305E004F50056B37FF27F43F0AD
:1023C0003003002196F8200021738DF802000320CD
:1023D000746A8DF800308DF8012002F09DFA0346F2
:1023E0006946706AE360FFF763F903B0F0BD00234C
:1023F000037069E7002386F82230002358E704F5CC
:102400008052137C013B012B3FF65EAF0223137415
:102410005AE704F580531A7C022A7FF455AF012253
:102420001A7451E78B42BFF44FAF0132072BFA8188
:10243000A1D19FE70223237046E700BF2DE9F843AF
:1024400000F58056347C012C03D000242046BDE8E2
:10245000F88300F500581D4698F823300F46F12BFD
:1024600028BF0123B1698446691A9942EDD3718A64
:10247000B38A99B9072B50D81046314600F8013B72
:10248000B28A1C3102F04EFA0322B38A01333B7048
:10249000B38A7382A8F81C4032743AE010465B1A83
:1024A0001FFA83F9B8F81C30B9F1070F03F00F03D6
:1024B00043F0200300F8013B718A01F5805101F1DE
:1024C0001C01614414D9072202F02CFA08233B7046
:1024D000738A0733738298F82220B8F81C30AAB1A7
:1024E000B3FBF2F102FB113282B9022232740DE029
:1024F0004A4602F017FA032309F101023A703374D5
:10250000738A9944B8F81C30A6F812900133A8F8E1
:102510001C302046B561BDE8F883C3F3032343F0C4
:1025200010031370B38A00F580515370901C1C3156
:10253000062202F0F7F9082306223B70022372827A
:10254000A8F81C403374E4E70378012B06D18268B5
:10255000034B891A9942C4BF0023037000207047BF
:10256000400D030030B500F5805514462A7C0B461B
:10257000013A012A93B006D8AA698A1A12498A42F6
:1025800084BF03222A7402AA0DF10701FFF756FF48
:1025900050B92B7C032B02D0002013B030BD002398
:1025A00001202B7413B030BD9DF8070002F0B4F980
:1025B000E06002E0012002F0CDF9204602A9FFF719
:1025C00077F80028F6D1E4E7400D030000F5805CC1
:1025D000BCF81430B3F5805F0FD800B500224FF07F
:1025E000010E00F50053ACF812209A838CF810E02D
:1025F0001046CCF818105DF804FB0120704700BFAE
:102600002DE9F043144602780646013A1D4685B08E
:10261000092A11D8DFE812F01C0010000A0082011C
:10262000100010000A0010005E010A00012900F0ED
:1026300082817F22122101E07F2211210323227057
:102640003278A17062702B80002005B0BDE8F08365
:102650000229EED141232370437863709A2BE8D886
:1026600001A252F823F000BFBF2A00089F2A0008E9
:102670003326000833260008FB2A0008F12A000848
:1026800033260008332600083326000833260008C6
:102690003326000833260008DB2A0008CB2A00086E
:1026A000332600083326000833260008692A00086C
:1026B0003326000833260008332600083326000896
:1026C0003326000833260008332600083326000886
:1026D0003326000833260008332600083326000876
:1026E000332600087F2A0008732A00085F2A0008A2
:1026F0003326000833260008332600083326000856
:102700003326000833260008332600083326000845
:102710003326000833260008332600083326000835
:102720003326000833260008692A00085F2A0008BB
:102730003326000833260008332600083326000815
:102740003326000833260008332600083326000805
:1027500033260008332600083326000833260008F5
:102760003326000833260008632B0008572B000887
:102770004B2B0008332600083326000833260008B8
:10278000412B0008332600083326000833260008B2
:102790003326000833260008332600085F2A000885
:1027A0005F2A000833260008332600083326000875
:1027B0003326000833260008332600083326000895
:1027C0003326000833260008332600083326000885
:1027D00033260008372B000833260008332600086C
:1027E0003326000833260008292B0008332600086A
:1027F0003326000833260008332600083326000855
:102800003326000833260008332600083326000844
:102810003326000833260008332600083326000834
:102820003326000833260008332600083326000824
:102830003326000833260008332600083326000814
:102840003326000833260008332600083326000804
:1028500033260008332600083326000833260008F4
:1028600033260008332600081B2B000833260008F7
:1028700033260008332600083326000833260008D4
:1028800033260008332600083326000833260008C4
:1028900033260008332600083326000833260008B4
:1028A00033260008332600083326000833260008A4
:1028B0003326000833260008332600083326000894
:1028C0003326000833260008332600083326000884
:1028D000052B000802297FF4ACAE4923237043780E
:1028E00063700A2B3FF6A5AE01A252F823F000BF99
:1028F0008F29000833260008BB290008332600086A
:102900009D290008332600084F2A000833260008B6
:102910003326000833260008272A000801297FF4FF
:1029200088AE0191FFF7EAFB019968BB3378403329
:102930002370298088E602A8FFF73EFC20BB029B9B
:102940005A1C52002A80327863704032DBB2227007
:10295000002B3FF479AE074604F1020904F10308A5
:102960000CE0039B1A0E09F817201B0C9DF8082099
:1029700008F8173001379742BFF466AE384603A90E
:10298000FFF7D6FB0028ECD07F22102156E644F258
:1029900054020623C4F802202B8055E60123132796
:1029A000744EA3700FCEC4F80300C4F80710C4F827
:1029B0000B20C4F80F302F8046E614230120E61CBC
:1029C0003146A0702B80FFF72DFCE11D054602204B
:1029D000FFF728FC034604F10B0103201D43FFF71A
:1029E00021FC034604F10F010420ADB21D43FFF7A3
:1029F00019FC0346ADB2052004F113011D43FFF796
:102A000011FCADB245EA00039BB2002B3FF41CAEB3
:102A10000023C4F80330C4F80730C4F80B30C4F8FE
:102A20000F30E37410E60123E61C14220021304627
:102A3000A37001F073FF17224F4B03CB1B88C4F820
:102A40000300C4F80710A4F80B302A80FCE57822B4
:102A500007234A49A271C4F802102B80F4E504222E
:102A600000232A806380EFE5032200232A80A370DD
:102A7000EAE50622424B2A80C4F80230E4E504234A
:102A80002B800BF0D5FC3F4DA5FB00239B0BA370C7
:102A90000BF0CEFCA5FB00539B09E370D4E503A823
:102AA000FFF78AFB002862D1039A02F07F0200231D
:102AB00006212980A270E37023716371C4E50622A8
:102AC000314B2A80C4F80230BEE503222F4B2A8006
:102AD0009B8AC3F30723A370B6E504232B4A2B80FC
:102AE0009388C3F34A13A3709388DB00E370ABE5CC
:102AF000032274232A80A370A6E503224C232A8094
:102B0000A370A1E509204FF46062002320492880CA
:102B1000C4F80210E280237296E506224FF080434B
:102B20002A80C4F802308FE506224FF080732A8095
:102B3000C4F8023088E503226D232A80A37083E560
:102B4000032251232A80A3707EE504224BF63573BD
:102B50002A80638078E5062200232A80C4F80230A8
:102B600072E506220B4B2A80C4F802306CE5002285
:102B70009DE700BFB8FC0008C8FC000801123456ED
:102B800080018001D34D6210981880035400032007
:102B900006003240A40C0021814204D900F17840A3
:102BA000B0F5802F01D30020704701F17841013941
:102BB000B1F5802F2CBF002001207047814208D939
:102BC000B0F1005F05D3044881428CBF0020012092
:102BD00070470020704700BF00000420814211D9D7
:102BE000B0F1005F10D21A4B98422AD8194B984284
:102BF00005D9194881428CBF002001207047B0F1EF
:102C0000006F0FD200207047144B994201D8012069
:102C10007047134B9842F5D9124881428CBF00206F
:102C200001207047104B9942ECD8104BB3F8E030BC
:102C3000B3F5007FEBD00E4881428CBF002001200D
:102C400070470C4881428CBF00200120704700BFB4
:102C5000FFFFF90BFFFFF80B0080F90B00000420C9
:102C60003F20024040210240000008080005FA0B06
:102C7000000004080002FA0B00B58BB001A804F0B4
:102C800077F90598AA3818BF01200BB05DF804FB4E
:102C900000B58BB072B601A804F06AF904214FF4B4
:102CA0000052079B019143F08063CDE9062303F0B6
:102CB00067FF20B162B601200BB05DF804FB03F0A2
:102CC0007FFF0028F6D101A804F030F810B903F016
:102CD00099FFEFE703F088FF03F066FFEAE700BF24
:102CE00010B58AB003F04CFF044603F069FF0443BB
:102CF00001A804F03DF904214FF48072079BE4B26F
:102D000083F4801303F48013CDE90623019134B1D9
:102D100003F06AFF03F048FF01200AB010BD01A8CC
:102D200004F004F80028F3D103F06CFF044603F02C
:102D30005BFF044303F038FFE4B22043C0B2003825
:102D400018BF01200AB010BD30B58BB003F018FFDA
:102D5000044601A804F00CF9002380220798022100
:102D600010F4801FCDE9033200930CBF022301232E
:102D7000019101A86946029304F090F9054603F019
:102D800013FF28432043C0B2003818BF01200BB006
:102D900030BD00BF70B503F0F3FE05460F4C104E7A
:102DA000D4E90023B3F1FF3F08BFB2F1FF3F04F5C0
:102DB000802107D0012003F05DFF002818BF45F0F7
:102DC0000105EDB20834B442EAD103F0EDFE284328
:102DD000C0B2003818BF012070BD00BF00E003087A
:102DE00000000408002330B58FB0009303F0C8FE44
:102DF0000223044605A8019304F0BAF80B9B0422B1
:102E000013F4801F4FF07C0014BF02230123694696
:102E100003900DEB02000492029304F03FF9054683
:102E200003F0C2FE054344EA0500C0B2003818BFF3
:102E300001200FB030BD00BF014608B5012003F0EE
:102E400019FF003818BF012008BD00BF704700BF40
:102E5000094A0A4B52880A491878B2F5407F08702F
:102E600006D9B2F5206F8CBF032202221A70704778
:102E700001221A70704700BF102A03207800032037
:102E80000C2A03200022014B1A707047162A0320D7
:102E900070B505460120424B424C1B78424E991EAC
:102EA00081428CBF00210121A383FEF7C1F8218B51
:102EB000022089B2FF2994BF00210121FEF7B8F852
:102EC000F369002B62D14FF47A71384B96F82020C9
:102ED000A3FB05039B0901FB1355B5F5FA7F34BF2E
:102EE00000250125012A56D023889BB20F2B49D8F3
:102EF000218A89B2003918BF01210420FEF798F811
:102F0000238BDBB2022B0BD0238BDBB2032B07D03E
:102F1000218BC9B2A1F10401B1FA81F1490900E0A4
:102F200001210820FEF784F8238BDBB2032B2BD082
:102F3000218BC9B2A1F10401B1FA81F14909102034
:102F4000FEF776F8218B2020C9B2A1F10401B1FA75
:102F500081F14909FEF76CF8638B40209BB2FF2B8F
:102F600094BF002105F00101FEF762F8638B802019
:102F7000DBB2002B0CBF002105F00101BDE8704061
:102F8000FEF756B80121B8E70121D8E70121022058
:102F9000FEF74EF897E729460220FEF749F8A3E727
:102FA000780003205400032000000320D34D62105A
:102FB000024A034B10601960704700BF1C2A0320AF
:102FC000182A0320002300B5094A83B0126801A91A
:102FD000106801930BF046FF019B2BB14FF0E023EB
:102FE0004FF08052C3F8042D03B05DF804FB00BF1E
:102FF000182A032038B50446094D0022284604212A
:1030000004F05AFA074B21460122186807F0B4F978
:103010002846BDE838400122042104F04DBA00BF23
:10302000000402421C2A0320014B1860704700BFB5
:10303000202A0320704700BF00B5054B83B01868F5
:1030400001A906F0D9FF019803B05DF804FB00BFA9
:10305000202A03200D4B02781B68403201291A7088
:1030600010D900B5A1F1020E10FA8EFE024610F83A
:1030700001CF724503F801CFF8D1054B1B681980C9
:103080005DF804FB024B1B68198070475C2A032023
:10309000582A032070B50129044682B00BD945781F
:1030A00005F07F05012D14D0022D02D07F201225BE
:1030B00003E006292CD07F2013250321344B354A09
:1030C0001B681268187020789D705870118002B0CB
:1030D00070BD40F26713ADF80030FFF7ADFF2E4A28
:1030E0002E4B4240C3E903021D7794F9013000BA28
:1030F000002BCDF80200EADB0621254B254A1B6890
:103100000098BDF80440126818609C801180DEE7CA
:10311000224BD0F802009A69042A02D97F20362572
:10312000CBE75E685969711A092902D87F203725D3
:10313000C3E7197F012902D07F202425BDE7196943
:1031400000BA814215D04FF0000E4FF07F0C3525AC
:10315000032001329A610E4A0E4912685E6183F8BB
:103160001CE082F800C023780968537095700880CD
:10317000ADE71D7794F90130002BA8DB40F2672101
:10318000034A044B12681B6811801D809FE700BF33
:103190005C2A0320582A032078563412382A032048
:1031A000022910B510D04FF07F0E4FF0130C032101
:1031B0000F4B104A1B68126883F800E0007883F810
:1031C00002C05870118010BD437833B1802BFAD003
:1031D0004FF07F0E4FF0120CE9E7054A03781268B2
:1031E00040331370034C407823685070198010BD31
:1031F0005C2A0320582A0320022930B510D04FF052
:103200007F0E4FF0130C0321424B434A1B68126898
:1032100083F800E0007883F802C05870118030BD58
:10322000437803F07F03022B2FD0032B1BD0012BFD
:103230003ED10022394C3A4D23703A4B2A705A73D2
:10324000C4E90322C4E90522227790F901304278CB
:10325000002BE4DB50242F4B2F481B6800685A706A
:103260001C70018030BD304A928A92B2B2F5805F04
:1032700047D37F258824274A274912680968157093
:103280000078947050700B8030BD274A928A92B2B9
:10329000B2F5805F1BD37F25222403211D4B1E4ADC
:1032A0001B6812681D7000789C705870118030BDCA
:1032B0004FF07F0C12240321164B174A1B6812682B
:1032C00083F800C000789C705870118030BD0022D7
:1032D0001249144CC1E90322C1E90522104D627361
:1032E0000A772A7090F901200B70002A417896DB4A
:1032F0005024084A0848126800685170147003800E
:1033000030BD0022054C074D2370054B6A731A70BF
:1033100096E700BF5C2A0320582A0320382A03209E
:10332000602A0320642A032054000320204B214AF2
:10333000022910B51B6812680CD04FF07F0E4FF0B9
:10334000130C032183F800E0007883F802C0587062
:10335000118010BD184C94F800C0BCF1010F11D0C1
:1033600090F801C00CF07F0CBCF1010F12D04FF0AF
:103370007F0C1224032183F800C000789C705870E1
:10338000118010BD7F210324197000789970587046
:10339000148010BD047840341C7044785C70118037
:1033A00090F90130002BD4DABDE8104002F034BDB2
:1033B0005C2A0320582A0320382A0320022910B54A
:1033C00010D04FF07F0E4FF0130C0321184B194A09
:1033D0001B68126883F800E0007883F802C0587018
:1033E000118010BD427802F07F03012B13D0022B15
:1033F00004D04FF07F0E4FF0120CE6E71206F0D427
:103400000B490278096840320A700A4C40782268F9
:103410004870138010BD1406E3D4054A037812687F
:1034200040331370034C407823685070198010BDEE
:103430005C2A0320582A032030B54378044685B01F
:1034400013B98378442B0FD07F204FF0310C032128
:10345000354B364A1B6812681870207883F802C012
:103460005870118005B030BD0B2903D07F204FF07C
:10347000130CECE72E4B1978022903D04FF07F0C88
:103480007F20E4E71B7F022B11D12A4D6B7B13F0C9
:10349000FB030FD07F2024250321234B234A1B68E5
:1034A0001268187020789D7058701180DAE74FF01C
:1034B000330CE5E7D0F80300AB6001232B73D4F89D
:1034C000073000BA1BBA1918019228606B60FFF729
:1034D00063FB28B3154B144918686B68096813F02F
:1034E000070F019A0BD07F234FF0700C0B70032352
:1034F00094F800E081F802C081F801E003802378AD
:10350000202440338DF80C304FF20F036A730422ED
:103510008DF80D40ADF80E30039B0B600280A1E7E3
:103520007F203125B8E700BF5C2A0320582A0320FA
:10353000382A0320642A0320012970B51FD9427854
:1035400002F07F03012B10D0032B1CD04FF07F0C17
:1035500012240321394B3A4A1B68126883F800C0D1
:1035600000789C705870118070BD02292AD0837831
:10357000103B032B51D8DFE803F04C4A444E4FF088
:103580007F0C1324E5E72F4C217869B1120626D46D
:1035900002212A4A0378126840331370284C40787D
:1035A00023685070198070BD4FF07F0C2224234A8D
:1035B00023491268096882F800C00078947050703E
:1035C0000B8070BD7F25132403211C4B1C4A1B68F4
:1035D00012681D7000789C705870118070BD0123B6
:1035E000194D2E782B70FDF7F1FF4FF47A7009F02A
:1035F0007FFEF6B22078FDF7EFFFFDF723FF2E7078
:1036000070BD36230F490B701306C1D570BD35232D
:10361000F8E73423F6E73823F4E77F220026312445
:103620000321064B074D1B682E701A70044A007860
:10363000126858709C70118070BD00BF5C2A032016
:10364000582A0320602A032076000320042910B59D
:1036500004460ED07F204FF0130C0321144B154A63
:103660001B6812681870207883F802C058701180A7
:1036700010BD4378FF2B03D07F204FF0310CECE7D7
:103680008378FF2BF8D1C378FF2BF5D1FEF736FDF9
:1036900018B17F204FF0720CDFE701210448237836
:1036A000044A0068126840330370118010BD00BFE7
:1036B0005C2A0320582A032038B500240122094B34
:1036C00009490A4D4C73586009490A48C3E9034443
:1036D000C3E905442C701A701C77FEF7A5FD20463F
:1036E00038BD00BF382A0320642A0320602A032043
:1036F0007C000320549F0120114B01461A78032AB5
:1037000002D01048FEF720BF41F288305A688A1A6A
:103710008242F6D900224FF0010C10B40A480B4C3B
:103720004273227083F800C01A7706485DF8044B94
:10373000C3E90322C3E905225960FEF705BF00BFB4
:10374000382A0320549F0120642A0320602A032082
:103750000146024A0248FEF705BF00BFA000032051
:10376000549F012040F2E37C2DE9F04100260446FD
:10377000006882B060450F4698468DF80560ADF848
:10378000066007D040F2DF7398423BD0002002B0C1
:10379000BDE8F081E068154601F0B8F83A4C014602
:1037A0002B4620463A46FEF763FD2578022DEDD1E3
:1037B0004FF0FF3301220DF10501D8F800008DF81C
:1037C00005600AF073FA2A464FF0FF330546A11C44
:1037D000D8F800000AF06AFA02464FF0FF331544A9
:1037E000D8F80000628804F10D010AF05FFA6388DE
:1037F00005440333AB4201D0FDF70EFC00232370D8
:103800000120C4E7E06801F081F80028BED03D78CF
:10381000002DBBD005F0080353EA1513B6D1E068BC
:1038200001F074F8431E9D42B0D8012217F8014BF5
:103830004FF0FF330DF1050104F00F04D8F800003C
:103840008DF80520ADF806400AF030FA4FF0FF334E
:10385000022204460DF10601D8F800000AF026FA0B
:1038600002464FF0FF3314443946D8F80000BDF843
:1038700006200AF01BFABDF8063004440333A342C5
:10388000BED0FDF7C9FBBBE7549F01202DE9F04FE7
:1038900000241D4691B01A9B9B4F1C809B4E0C46EA
:1038A0009B499146336048603D60002A00F0828069
:1038B00022780F2A40F28D80103A772A00F2868013
:1038C000DFE812F09200990084008400A0008400D8
:1038D000840084008400A7008400840084008400A5
:1038E0008400840084008400CD00D3008400840020
:1038F00084007B01840084008400840084008400B0
:10390000280184008400820184008400C901090226
:103910000F02FD01840084008400840084003B01C8
:10392000EF018400DC0184008400840084008400B2
:103930008400840084008400840084008400840067
:103940008400840084008400840084008400840057
:103950008400840084008400840084008400840047
:103960008400840084008400840084008400840037
:103970008400840084008400840084008400840027
:103980008400840084008400840084008400840017
:103990008400840084008400840084008400840007
:1039A0008400840084008400840084008F00F60179
:1039B00084001B017F2122701320032229702178AB
:1039C000A87069701A8011B0BDE8F08F7F211120B6
:1039D000F3E72A464946204611B0BDE8F04FFEF70E
:1039E0000FBE7F211220E8E74946204611B0BDE80E
:1039F000F04FFFF701BC4946204611B0BDE8F04F3B
:103A0000FFF794BC4946204611B0BDE8F04FFFF7E0
:103A10001DBEB9F1020F26D959222A7004226178FD
:103A2000AA706970627802F07F02012A00F0B983FF
:103A3000022A00F0BE837F2212212A7003222078FE
:103A4000A97068701A8094F90130002BBBDA3B68CA
:103A50001B787F2BB7D0002233681A80B3E7B9F107
:103A6000030F00F0B3827F21A6E7B9F1010FFAD06E
:103A7000627802F00F000428B3D102F0F000402871
:103A8000AFD80978012950D01209911D8945EAD192
:103A9000D4F80290002A00F00A854FF00008013A9D
:103AA000D200601D10F8011F9140083A12F1080F72
:103AB00048EA0108F6D140F6FE72904500F2EE8029
:103AC00099FA89F5284608EB0501FFF787F80028E1
:103AD00000F0198621783B6840311970EA1A03EB2F
:103AE000080102E0D05C03F8010F9942FAD1336873
:103AF00008F10108A3F8008065E74946204611B0A7
:103B0000BDE8F04FFFF718BD5C2A0320582A0320B8
:103B1000382A0320B9F1020FA5D991F80080B4F832
:103B20000120B8F1020F00F016837F2203212A70D2
:103B30002078AA706870198045E7B9F1010F92D01A
:103B4000627802F00F0004287FF44BAF02F0F0001F
:103B500040283FF646AF1209501D484583DA002A37
:103B600000F00F854FF0000802F1FF3C4FEACC0C4B
:103B700004F1050E1EF8010F00FA0CF0ACF1080C70
:103B800048EA00001CF1080F1FFA80F8F2D102F198
:103B9000060A0AEB080291457FF465AF0878D4F86D
:103BA0000220022800F018857F227F200321287040
:103BB0002078AA706870198005E74946204611B040
:103BC000BDE8F04FFFF766BAB9F1030F7FF64BAFD0
:103BD00094F9010062780028BCBF02F07F02627095
:103BE0006288B8BF4FF0010852BA92B2A8BF4FF036
:103BF0000008B2F5097F80F23F83B2F5007FC0F282
:103C00008480A2F50072232A7FD8DFE812F06801D1
:103C1000570147013701DD017701C0011401A101FE
:103C20002D01FB00EE007E007E007E007E00D700AE
:103C3000C7007E007E007E007E007E007E007E004B
:103C40007E007E007E007E007E007E007E00C00042
:103C5000B900A0009300B64AB2F8E020B2F5007FA8
:103C60007FF4B4AEB9F1020F7FF6FDAE01224946F2
:103C7000204611B0BDE8F04FFFF7DEBBB9F1040FED
:103C80007FF4F1AE6278772A7FF4ABAE0A78012A2E
:103C90003FF44BAFA278132A00F08A837F213120B2
:103CA0008BE64946204611B0BDE8F04FFFF778BAE1
:103CB0004946204611B0BDE8F04FFFF77FBBB9F190
:103CC000010F7FF4D0AE9B4A517B032900F0CB82D9
:103CD0007F21242071E6B9F1020F7FF6C4AE0222E3
:103CE000C5E7B9F1010F3FF4BEAEDFF8488298F89E
:103CF0000D20012A00F01682022AE9D1B9F1020F43
:103D000000F0DD827F21712057E67F222A70227821
:103D10006A703122AA7003221A803368B8F1000F4A
:103D20003FF451AE3A6812787F2A3FF44CAE00223D
:103D30001A8048E6B9F1040F00F071847F222A70DE
:103D400022786A701322AA7003221A80E5E7B9F17B
:103D5000070FF3D1201DFDF795FCFDF773FB0A203B
:103D600009F0C6FA042122783B6840321A70627862
:103D70005A70A2789A70E278DA7033681980CCE7CA
:103D8000B9F1050FDAD12079FDF774FCE5E7B9F157
:103D9000070FD3D1201DFDF75FFCDEE7B9F1040F5B
:103DA000CCD10A78022A00F06E847F227F2129700C
:103DB0002178AA70032269701A80AEE7B9F1040F66
:103DC000BCD10A78022AF0D10A7F022A40F0F98495
:103DD0006278012A00F0E1847F222A7022786A70DA
:103DE0001222AA7003221A8097E70A7F022A00F0A3
:103DF000CB837F222A7022786A703322AA70032232
:103E00001A808AE70A7F022AF3D140F6FA71A9F1F3
:103E1000050292B28A4240F285847F222A7022787B
:103E20006A701322AA7003221A8033681A88002A43
:103E30003FF4C9AD72E7B9F1040F7FF47FAF627848
:103E4000012A00F0C484022AC6D100213A4A117026
:103E5000227840322A7062786A70A278AA70E2787A
:103E6000EA7004221A8058E70A7F022AC1D1BFF300
:103E70004F8FBFF36F8F631D984773E77122611CEB
:103E80002A70A9F1020211FA82F214F8011FA2426B
:103E900005F8011FF9D1A3F800903EE7FEF77AFF7D
:103EA000002800F059837F22722003213B681A709A
:103EB00022785A703268987011802EE7FEF792FFD0
:103EC0000028F0D101232278396840320A70E25C80
:103ED000CA5401339AB29145F9D83368DBE7B9F196
:103EE000040F7FF42BAF6278012A00F0ED83022AE1
:103EF0007FF472AF0021114A1170A9E7B9F1060FE2
:103F00007FF41CAF40F6FB71A28852BA92B28A428B
:103F10003FF6FBAE71212846297061786970A1785F
:103F2000A970E178141F00F8031F00210BE000BF07
:103F30000005FA0B642A0320162A032076000320CA
:103F400000F8011F0131A142FADB04321A80E4E6D5
:103F5000B9F1080F7FF4F2AE6278012A7FF43CAF2A
:103F6000E279042A7FF4D1AEA0792379000240EAF5
:103F70000360637940EA034040F00400FEF7F4F880
:103F8000002890D104212046FFF764F84DE7B9F1ED
:103F90000B0F7FF6D3AE6568D4F808902DBA99FA66
:103FA00089F9284609EB0501FEF718FE002840F0C4
:103FB0008F837F22312003213B681A7022785A7048
:103FC000326898701180A8E6712243E70023B4F8A4
:103FD00001E002AD9EFA9EF080B2A0F5007CBCF537
:103FE000007F029394F80180C5E90133C5E90333EA
:103FF000A278C0F010814FF29013984212D84FF27D
:104000008313984240F21981A0F5714084380C283E
:1040100008D8DFE800F076076B6207070707590743
:10402000070712007F2031253B6832680321187092
:1040300020789D7058701180C5E429460120FEF754
:10404000F1F803A980460220FEF7ECF804A948EA3B
:1040500000080320FEF7E6F81FFA88F848EA00088F
:1040600005A90420FEF7DEF81FFA88F848EA0008E0
:1040700006A90520FEF7D6F81FFA88F848EA0008D6
:10408000294611221FFA88F50DF11F0000F04AFCA5
:10409000002DC7D14FF014092378A27840338DF852
:1040A0001C3063788DF81D303B688DF81E2009EBBD
:1040B000030007AA12F8011B03F8011B8342F9D180
:1040C0003368A3F800907EE40C22C2490DF11F0072
:1040D00000F028FC4FF00F09DEE70422BE490DF185
:1040E0001F0000F01FFC4FF00709D5E70B784FF0D9
:1040F00004098DF81F3062238DF81D808DF81C3067
:10410000D2E70C22B5490DF11F0000F00BFC202373
:104110000922B3490BA88DF82B304FF0190900F094
:1041200001FCB9E7A9F102091FFA89FA19F0070998
:104130007FF4E8ADD8F80820D8F8041052448A4239
:104140003FF6E0AD98F80C1062788A4200F0B28138
:104150007F21732031E44FF2841150BA80B220F0F5
:10416000080C8C453FF49AAD49F2F1018A4200F007
:104170003D81B9F1070F7FF476ACD4F8031009BA8A
:10418000FEF738F803463A683168002B00F07F816B
:104190007F207225032310702078957050700B805B
:1041A00011E4B9F1030F00F0BD807F2213212A70C2
:1041B00044E4B9F1030FF8D1002307A8EB70FDF731
:1041C000FBFF804600286ED1079B002B00F0FE818C
:1041D000824602AD14E09DF80B203B6803F80920ED
:1041E000BDF80A2003F82A20029A4B44120A9A705A
:1041F000029ADA70079B09F10409534540F23781AE
:1042000050462946FDF794FF0AF1010A0028E2D042
:104210004FF00108EEE72946FEF704F8002800F009
:1042200092807F2131203B68326819702178987024
:104230005970A2F80090FFF7C6BBBEF5007F00F0F2
:10424000088144F277239E4500F0FA80BEF5807F16
:104250007FF4E8AE132263490DF11F0000F062FB0A
:104260004FF0160918E7042349462046537311B04E
:10427000BDE8F04FFEF7EEBEB2F57F4F00F0838051
:104280004FF6017082427FF440ADB9F1040F7FF424
:1042900055AD6278012A7FF49FAD0A78022A00F0BA
:1042A000E0817E2282E57F223B681A7072222178AB
:1042B0009A7059703368A3F80090FFF7C4BB98F860
:1042C0000C1062788A427FF443AF013288F80C20E8
:1042D000227840322A706178002205F8011FD8F850
:1042E00008100EE0D8F800000132415CB2F57F6F93
:1042F00005F8011FD8F8081001F10101C8F80810ED
:1043000004D0D8F804008842ECD892B2D8E9011061
:10431000023288421A80FFF456AB032388F80D302E
:10432000FFF751BB002307A8EB70FDF745FF0028FE
:10433000B9D1079B3A6853711B0A1371062233687F
:104340001A80FFF780BB2378627840338DF81C30E9
:10435000A37829468DF81D200DF11F0004228DF849
:104360001E3000F0DFFA3A680DF11B01531E0632D1
:1043700011F8010F03F8010F9342F9D107223368B6
:104380001A80FFF720BBB9F1040F7FF4D7AC627835
:10439000012A7FF421AD0A78022A82D10A7F022AFB
:1043A00040F00F82FEF7D0FC00287FF47CADE9E5F9
:1043B000E278372A7FF472AC80232846142200F872
:1043C000013B094900F0AEFA152233681A80FFF765
:1043D000FABA00BF9005FA0B2CFD000814FD000886
:1043E00020FD0008D4FC000848FD0008B9F1140FB6
:1043F0007FF439ABD4F803100120FDF7FBFED4F8AD
:10440000071005464046FDF7F5FE0346D4F80B10AD
:1044100003201D43FDF7EEFE0346D4F80F100420E1
:10442000ADB21D43FDF7E6FE0346E17C0520ADB2CB
:104430001D43FDF7DFFEADB245EA00039BB2A2E6E5
:104440001522C5490DF11F0000F06CFA4FF0180954
:1044500022E60B7F022B00F08B8042F23F233322B7
:1044600042F27F212380ADF81C10A2701CE6326856
:10447000B8F1000F00F0AA807F213B68722019700C
:104480000321257898705D701180FFF7DCBA2378DE
:10449000607840338DF81C3003238DF81D00BDF883
:1044A0001C50A078158090700B80FFF78CBA904656
:1044B000FFF706BB013288F80C2002F061FBBAF16D
:1044C000000F00F0EE804D46A146AB4699F804304F
:1044D00099F805201B0403EB026399F8032099F86F
:1044E000081003EB022399F80920090401EB02618B
:1044F00099F80220D8F8080013441BEB030299F83E
:10450000073009F1080901EB0323D8F8001008442B
:1045100019F8021C00F580200B44FEF78DFC45EADB
:104520000003DDB2D8F808300833C8F80830A9EB2A
:1045300004039A45CAD802F037FBD8E901329A42FF
:1045400002D3032388F80D303B683268002D00F059
:10455000B0807F20722569E50123227839684032D6
:104560000A70E25CCA5401339AB29145F9D8B4E4B6
:1045700013227A490DF11F0000F0D4F94FF016090B
:104580008AE59046FFF703BB40F6FA71A9F10502F0
:1045900092B28A423FF6D2AB0022211D704804F845
:1045A000092001930BF076FA6E496D48FBF748FE3F
:1045B00000283FF4E7AC7F222A702278019B6A70C2
:1045C0003122AA7003221A80FFF7A7BB32689B0032
:1045D00003331380FFF737BA097F02293ED115BA9A
:1045E000284605EB0801FEF7E9FA00283FF41AAD6A
:1045F000B8F1020F2ED0B8F1040F27D0B8F1080F90
:104600001DD06FF00603E21D1B1B02E012F8011F14
:10461000297099184145F9D35146204627E6FCF701
:1046200011FF0A2008F064FE22783B6840321A70BD
:1046300062785A70A2789A70E278DA704DE4A168D4
:10464000E0680BBA02BAC5E90023E5E7A3681BBA24
:104650002B60E1E723895BBA2B80DDE73322FFF78C
:10466000A4BA0A7F022A40F0AC803F4A527B042A57
:1046700011D07F222A7022786A702222AA70032227
:104680001A80FFF74ABB0A7F022A40F09A806278BC
:10469000012A7FF4A1ABFEF723FB00287FF403ACD3
:1046A00070E402F081FAD8E901329A4201D355460A
:1046B00047E7022023783A68647831684033137002
:1046C00054700880FFF77FB928490A70FFF7C0BB14
:1046D00049462846FDF722F908250346227839681D
:1046E00040320A7062784A70A2788A70E278C871A3
:1046F000CA70000E32680871180CEB4048718B715B
:104700001580FFF70ABB1A4B3968994532D07F20D4
:10471000312503220870207833688D7048701A8024
:10472000FFF751B90022211D04F8092007A80193C1
:104730000BF0B0F90B4907A8FBF782FD019B00289D
:104740003FF420AC7F222A7022786A703122AA704E
:1047500003221A80FFF769BBFCFC0008E8FC000894
:10476000242A032004030108642A0320760003207E
:1047700001234567B8F1110FC9D822780B464032A2
:104780000A70154801EB080203E010F8011B03F85A
:10479000011F9342F9D1FFF7AAB9FEF76DFA98B954
:1047A000FEF776FA326800283FF4ECAB7F207225E2
:1047B00003213B68187020789D7058701180FFF7B6
:1047C000ACBA3322FFF7F2BA0BF0D2F9EAE70349A9
:1047D0000A70FFF73DBB00BF34FD0008162A032016
:1047E00070B400242D4D039E2B602D4D34802E601F
:1047F0002C4D8C461C4611466860B2B19CF80020D6
:104800000F2A1FD9272A23D8103A172A2AD8DFE8D7
:1048100002F0383429293029292929292929292947
:104820002929292929292929292C8CF800107F22B6
:104830001321032322709CF80020A1706270338042
:1048400070BC70473346224670BC6046FDF7D8BE48
:10485000852A1ED0872A18D03E2A03D170BC604614
:10486000FEF79EBC7F221121E3E7604670BCFEF795
:1048700011BC604670BCFEF7E9BE604670BCFEF736
:1048800055BD604670BCFEF7B7BC604670BCFEF715
:1048900053BE604670BCFEF791BD00BF5C2A03208A
:1048A000582A0320382A032038B5049A12884AB1BE
:1048B0001978512907D0C72904D1012A02D05B7881
:1048C000032B08D038BD4FF4FA7008F011FDBDE895
:1048D000384001F0A1BA4FF4FA7008F009FD012345
:1048E000084C25782370FCF771FE4FF47A7008F0BD
:1048F000FFFC054BEDB21878FCF76EFEFCF7A2FD4D
:10490000257038BD76000320602A0320014BC0B219
:10491000185C704714030108704700BF0AB10BF020
:104920002DB870474AB1013A4B1E0138114413F8B3
:10493000012F8B4200F8012FF9D1704708B5037899
:104940002BB10130FBF786FC013080B208BD184660
:1049500008BD00BF4FF47A7202FB00F0024BA3FBCC
:104960000030800908F0C4BCD34D6210002201461B
:10497000034B1046C3E903221A7059601A8170472D
:104980007C2A0320084B1A785AB14EF660215A68E7
:10499000821A8A4205D90022C3E9032258601A709C
:1049A0001A810020704700BF7C2A032038B5D0B29E
:1049B0000C46FFF7B1FF074DE86002E00A2008F05F
:1049C00097FC21462846FCF773FE0028F6D101200B
:1049D00038BD00BFB401032040F2565230B51C462A
:1049E000036883B0934202D0002003B030BDC0689A
:1049F0000D46FFF78BFFADF806000028F4D04FF00E
:104A0000FF33022220680DF1060109F04FF98446B8
:104A10004FF0FF3320682946BDF80620644609F0B0
:104A200045F9BDF8063004440233A34201D1012008
:104A3000DBE7FCF7F1FAFAE72DE9F041069EDFF833
:104A40005481504F504D3E606860C8F8003042B10C
:104A50000C46FF2119702178FF290ED028780128F3
:104A600001D0BDE8F081F53909291BD8DFE801F054
:104A7000203C1A1A1A2B1A5A4452012A01D0627881
:104A8000DAB9002201214FF4807408203F4FC5E9B4
:104A900003222A812970C3F80170A3F80540D97157
:104AA0003080DEE742F2FE01022219803280D8E730
:104AB000012A1BD0617807293FD942F2FE21022248
:104AC00019803280CDE7012A10D06278002AF4D113
:104AD0004FF080600821A3F80520DA712C4AC3F852
:104AE000010031802A61BCE7082A20D042F2FE1181
:104AF000022219803280B4E7002159702A7A0620F8
:104B0000013A18BF01221201D970197159719A70B6
:104B10003080A6E700230122C5E903332B702B81E7
:104B200032809EE7FE2102221980328099E701221D
:104B300063681BBA2B61328093E728690144FEF752
:104B40004DF8012808D042F2FE200222D8F80010C9
:104B50003B6808801A8084E7FF23D8F800000370C0
:104B6000617859B100232A6912780133DBB2C2544B
:104B70002A6901322A6161789942F5D83B6801318E
:104B800019806EE7742A03207C2A0320000008089D
:104B900024030108782A032010B50F4B82B0186E49
:104BA000002240F0010018661C6E072104F0010489
:104BB0000094009C9C6D6FF0010044F080549C6553
:104BC0009B6D03F080530193019B01F0C9F802B083
:104BD000BDE8104003F0A4BF0010024070B50021F2
:104BE0000446ACB0942207A8CDE90211CDE9041126
:104BF00006910AF0C3FE324B22689A4201D02CB0D3
:104C000070BD03234FF480424FF08051CDE907235C
:104C10000993182211232791CDE90A2302210822A2
:104C20004FF0807307A8CDE90D230C9104F054FEDA
:104C300000283BD1234B0026DA6C02A942F4005233
:104C4000DA64DA6C204D02F400520092009ADA6CB9
:104C500042F00102DA64DB6C322203F001030193BB
:104C6000032301981948CDE90223049602F06CFA57
:104C700080224FF480730521C5E903626B614FF414
:104C800080622023C5E9011611492846C5E906239B
:104C90002E62296001F074F970B910210A4801F000
:104CA00021FB30B92565AC622CB070BDFCF7B4F9BE
:104CB000C0E7FCF7B1F9F5E7FCF7AEF9EDE700BFA7
:104CC0000080024200100240C02703200000024280
:104CD00008040240094B02689A4200D07047A3F5CD
:104CE00000539A6C82B042F480529A649B6C03F435
:104CF00080530193019B02B0704700BF0030024017
:104D000010B500210446ACB0942207A8CDE90211E9
:104D1000CDE9041106910AF031FE274B22689A4230
:104D200001D02CB010BD4FF000724FF0807307A877
:104D30000792219304F0D0FD002832D19FED1A6B29
:104D40009FED1B7B09241D4B02A9DA6D1C4842F420
:104D50000072DA65DA6D02F400720092009ADA6C81
:104D600042F00202DA64DB6C8DED026B03F00203A9
:104D700001938DED047B019B069402F0E5F900227E
:104D80000521272000F0ECFF272001F025F8002264
:104D90000521282000F0E4FF282001F01DF82CB0A8
:104DA00010BDFCF739F9C9E700030000020000005C
:104DB000000000000000000000A4004000100240BD
:104DC0000004024208B502680A4B9A4200D008BDAE
:104DD000094A4FF44071D36D084823F40073D3653A
:104DE00002F0C2FA272001F005F8BDE808402820AB
:104DF00001F000B800A4004000100240000402428C
:104E000010B50446A6B09422002101A80AF0B6FD10
:104E1000114B22689A4201D026B010BD4FF4802376
:104E200001A8019304F058FD98B90C4B0022D86CEE
:104E3000052140F48020D864DB6C5E2003F48023DD
:104E40000093009B00F08CFF5E2000F0C5FF26B0B1
:104E500010BDFCF7E1F8E8E700080C420010024042
:104E6000F0B50024414B026889B09A42CDE9024472
:104E7000CDE90444069401D009B0F0BD03F5EC334C
:104E80009A6D052642F480429A659A6D032702F4D2
:104E900080420092009ADA6C054642F00202DA641F
:104EA000DB6C4FF4204203F00203019302230199CB
:104EB0002F4802A9CDE90223CDE9057602F044F995
:104EC00002224FF48043CDE902320123284802A98F
:104ED00006960493059702F037F980230E211022DD
:104EE000244EC6E90343244B3046C6E90112C6E905
:104EF0000544C6E90744336001F042F848BB10217D
:104F00001C4801F0EFF968BB002380220D211B4CE7
:104F10006E65C4E90233C4E90423C4E9063323629D
:104F2000174B2046B5626160236001F029F8B0B9E3
:104F30001021124801F0D6F970B9002205213C2059
:104F4000AC65A56200F00CFF3C2000F045FF09B005
:104F5000F0BDFCF761F8D2E7FCF75EF8EDE7FCF78F
:104F60005BF8E5E7FCF758F8CEE700BF00380040F3
:104F70000004024270250320080002400825032097
:104F80001C00024000B5036887B0B3F1804F0ED01B
:104F9000304A93423BD0304A934216D02F4A934234
:104FA00028D02F4A934247D007B05DF804FB03F5A1
:104FB00004339A6D42F001029A659B6D03F0010380
:104FC0000193019B07B05DF804FB264B0022986D0E
:104FD000052140F0200098659B6D322003F02003EE
:104FE0000393039B00F0BCFE322007B05DF804EB96
:104FF00000F0F2BE1B4B1A6E42F400321A661B6EB2
:1050000003F400330493049B07B05DF804FB154BD5
:105010000022986D052140F0100098659B6D3120AD
:1050200003F010030293029B00F09AFE312007B0B8
:105030005DF804EB00F0D0BE0A4B1A6E42F48022F9
:105040001A661B6E03F480230593059B07B05DF879
:1050500004FB00BF00100040001400400044014069
:10506000004801400010024010B500210446ACB0D9
:10507000942207A8CDE90211CDE9041106910AF0A6
:105080007DFC214B22689A4201D02CB010BD4FF418
:10509000005307A8079304F01FFC50BB9FED166B4D
:1050A0009FED177B0A22194C02A9E36C184843F0C4
:1050B0000103E364E36C8DED026B03F001030093E5
:1050C0008DED047B009B069202F03EF8E36D00221A
:1050D00043F40013E365E36D052103F4001301932A
:1050E0004920019B00F03CFE492000F075FE2CB0E9
:1050F00010BDFBF791FFD1E700180000020000008F
:10510000000000000000000000D400400010024039
:105110000000024210B5014688B000222A2000F0AB
:105120001FFE2A2000F058FE154B01A91A6E03A895
:1051300042F400621A661B6E124C03F40063029381
:10514000029B04F0C1FA04F0A7FA0346002140F2E2
:10515000E7300D4A2161A2FB0323A1609B0C0B49A0
:10516000E060013B20462160636005F0A7FC10B1C0
:10517000012008B010BD204605F08CFA08B010BD23
:1051800000100240902A032083DE1B43002C0140C4
:10519000FEE700BFFEE700BFFEE700BFFEE700BF7F
:1051A000FEE700BF704700BF014801F029B800BF0B
:1051B00070250320014801F023B800BF0825032013
:1051C000014801F015BC00BF38270320014801F059
:1051D0000FBC00BF38270320014805F053BB00BFB8
:1051E000902A0320014805F04DBB00BF7024032026
:1051F000014805F047BB00BF24240320014802F00A
:1052000061B900BFE4260320014802F005BB00BFDE
:10521000E4260320014805F053B900BFD825032038
:10522000014805F019BD00BF50260320014802F0D7
:105230002DBD00BFB0200320014800F0E1BF00BF3A
:10524000C0270320014804F055BE00BF3C260320C0
:10525000034AD2F8883043F47003C2F888307047AC
:1052600000ED00E0254B25491A682548120754BF78
:10527000D3F894301B688A6858BFC3F3032302F045
:105280000C0248BFC3F30313082A50F823300FD091
:105290000C2A0FD01B49042A08BF0B46174A1A488C
:1052A00092681A49C2F30312825CD3400B607047C4
:1052B000174BF3E7C868CA6800F00301C2F3031292
:1052C000022902F1010211D0032913D0B3FBF2F13C
:1052D0000A4AD368D268C3F3062301FB03F3C2F37F
:1052E000416201325200B3FBF2F3D7E70549B1FB4B
:1052F000F2F1EDE70649B1FBF2F1E9E700100240F7
:105300002C0301080024F40074030108D8010320D1
:1053100080969800DFF834D0FFF79AFF002103E071
:105320000B4B5B58435004310A480B4B42189A42CE
:10533000F6D30A4A02E0002342F8043B084B9A42A3
:10534000F9D30AF081FBFBF7F1FAFEE70000042035
:10535000A4030108000003204003032040030320AE
:1053600020580320FEE70000042010B500F0E6FC02
:10537000FFF778FF0020FFF7CDFE10B10124204693
:1053800010BD0446FFF708FC204610BD034A044B3D
:1053900011681B780B441360704700BFDC2A0320A0
:1053A000DC010320014B1868704700BFDC2A032092
:1053B000002330B583B00193002800F09880856DFC
:1053C0000446002D00F09880226893689D0005D562
:1053D000936823F0204323F03F0393609368D80041
:1053E00019D45A4B5A481B6891689B09A0FB0303C8
:1053F00021F010419B0921F03F0101335B0041F096
:10540000805191600193019B2BB1019B013B019362
:10541000019B002BF9D19368D9006BD40120A36DB7
:1054200043F01003A365E36D0343E365936813F052
:10543000040FA36D57D1DB0655D4A36D23F48173FC
:1054400043F00203A3659368DD0708D4414B9B68D2
:1054500013F0010F404B9B6801D1D9075FD5E56878
:10546000636B94F820102B43A568012943EA0503D8
:10547000657E43EA453343EA01434BD0A16A21B13B
:10548000E56A01F4707129430B43D568334929401B
:105490001943D16093681B0716D494F83030257EE9
:1054A000D1685B0043EA8533E56C21F4804121F04B
:1054B00006012B430B43D36094F83830012B36D0D0
:1054C000136923F0010313612369012B1AD0136BB5
:1054D00023F00F031363A36D23F0030343F00103D1
:1054E000A36503B030BDA36D43F01003A365012095
:1054F00003B030BD002099E7FFF770FBE56584F845
:10550000545061E7116BE36921F00F01013B0B433C
:105510001363E0E7616A013943EA4143AEE71049AA
:1055200065688B6823F47C132B438B6097E71169C4
:10553000E36B256C6FF38A012B430B43616C0B43C8
:10554000A16C0B4343F001031361BDE7D8010320B5
:10555000632D3E05008002420081024207C0F0FF39
:1055600000830242704700BF704700BF08B5806AE1
:10557000FFF7FAFF08BD00BF704700BF836A10B590
:105580009A6D12F0500F9A6D1DD1196842F4007295
:105590009A650A6812F0080FCA681BD012F4406FAF
:1055A0000DD1CA6894040AD49A6D22F480729A6567
:1055B0009A6DD10403D49A6D42F001029A6518469F
:1055C000FFF7D0FF10BDD2060AD4BDE810401B6D16
:1055D000DB6B18479007E7D51846FFF7C3FFF1E7E5
:1055E0001846FFF7C9FF10BD806A08B5836D43F008
:1055F00040038365C36D43F00403C365FFF7BCFF3D
:1056000008BD00BF0022F0B583B0019290F854208D
:10561000012A00F0F480034601201A6883F8540040
:105620009068400709D501209A6D42F020029A65E2
:10563000002283F8542003B0F0BD1F24486802F113
:10564000300500F01F0C4FEA901E08680EF00C0E9B
:10565000C0F3846000FA0CF004FA0CFC55F80E401C
:1056600024EA0C0C40EA0C0045F80E00906810F09B
:10567000040F906835D1070733D4072408688D6874
:10568000C0F30456B440C00DB5F1004F6FEA0404F6
:1056900000F0040000F0008102F11407B5403E580C
:1056A00034402C433C50506920F000405061D1E917
:1056B0000464042ED568086800F0BB80C5F3C105FA
:1056C0006D0002F1600757F826C0AC40BA4D00F0FB
:1056D000F8400CEA050505432C4344F0004447F824
:1056E00026409068C60738D4CE680C68B348D2F814
:1056F000B05006F01807F840C4F31207204025EA1E
:1057000007052843C2F8B000AD48864227D0AD490E
:105710000C4222D0AC48AD4986688D68ED0771D443
:10572000AB4DAD68EF073FF57EAFAA4D06F0E077D1
:10573000AC4200F06981A84DAC4200F08981A74DD0
:10574000AC420AD1740208D48A4206D1826822F09F
:10575000E0723A4342F480028260002068E7002F42
:1057600053D094FAA4F0002800F0A080B0FA80F0A2
:10577000013000F01F00092840F2988094FAA4F04C
:10578000002800F08181B0FA80F00130800600F03E
:10579000F84094FAA4F5002D00F06A810126B5FACC
:1057A00085F5354405F01F0506FA05F5284394FAFA
:1057B000A4F4002C00F05A81B4FA84F56FF01D06B1
:1057C0000324013505F01F0514FB0564240544F08E
:1057D000007407272043C50D8E6805F0040502F10B
:1057E000140C5CF80540C0F30450864007FA00F042
:1057F00024EA000030434CF805000C6887E70220DB
:1058000003B0F0BD724A92680DE70120A40E013486
:1058100004F01F06A40604F0F845B040092E06EB7C
:10582000460440EA050066D91E3C240544F0007495
:10583000CFE7146E146EC0F31205C4F38464002D18
:105840005BD1C0F38466B44200F08F80546E556E15
:1058500002F16004C5F3846502F1640CB54200F006
:10586000BF80A568A56804F10807C5F38465C0F387
:105870008466AE4200F08D80E568E56804F10C06B0
:10588000C5F38464C0F38460A0427FF42AAF30681B
:1058900020F00040306024E702F1140635582C4017
:1058A0003450506940F00040506100E794FAA4F091
:1058B000002800F0F180B0FA80F00130800600F09E
:1058C000F84094FAA4F5002D00F0E4800126B5FA22
:1058D00085F5354405F01F0506FA05F5284394FAC9
:1058E000A4F4002C00F0D380B4FA84F4013404F062
:1058F0001F0404EB440424056BE790FAA0F51DB1E6
:10590000B5FA85F5AC4230D0546E556E02F16004A4
:10591000C5F3846502F1640C90FAA0F604F108075F
:10592000BE46002E00F0AB80B6FA86F6AE4259D0E5
:105930003D683D68C5F3846590FAA0FC04F10C064F
:10594000B646BCF1000F00F09580BCFA8CFCAC456B
:1059500021D034683468C4F3846490FAA0F000283D
:105960003FF4BFAEB0FA80F08EE71446106E02F13D
:10597000640C20F0004044F8600F506E0868556ECB
:10598000C0F31206C5F38465002EC5D1C0F384664A
:1059900064E704F10C0E3868764620F00040386069
:1059A000E0680868E468C0F31205C4F38464002D5D
:1059B0003FF468AFD1E700BF00F0FF03FFFF07002F
:1059C00000007F4000000880008302420080024205
:1059D00000810242000052C7000084CB0100008019
:1059E00004F1080EDCF80000774620F00040CCF807
:1059F0000000A0680868A568C0F31206C5F38465B6
:105A0000002E3FF434AF97E736023FF5A6AE8A4248
:105A10007FF4A3AE8268224922F0E0723A4342F456
:105A2000000282600A681F499209A1FB02129209D2
:105A3000013202EB420292000192019A002A3FF4E5
:105A40008CAE019A013A0192019A002AF9D184E6BA
:105A5000F5013FF582AE8A427FF47FAE826822F084
:105A6000E0723A4342F08072826076E60E4CB0E615
:105A700002259BE6E568E468C4F384646DE7A568E5
:105A8000A568C5F3846557E74FF0806081E64FF461
:105A900040149EE6022521E74FF0806011E700BF29
:105AA000D8010320632D3E05000050FE002370B591
:105AB00082B0019303689A68D2072CD49968284A67
:105AC000044611422AD19A68264922F0004222F067
:105AD0003F0242F001029A608B681B0229D4FFF753
